:040000001CEF0DF0F4
:08000800046ED8CF05F0E0CF33
:1000100006F00001E9CF0CF0EACF07F0E1CF08F0DD
:10002000E2CF09F0D9CF0AF0DACF0BF0F3CF12F01C
:10003000F4CF13F0FACF14F000C00EF001C00FF0AF
:1000400002C010F003C011F09DA02AEF00F09EB096
:100050005AEF00F00EC000F00FC001F010C002F027
:1000600011C003F00CC0E9FF07C0EAFF078E08C00B
:10007000E1FF09C0E2FF0AC0D9FF0BC0DAFF12C0DE
:10008000F3FF13C0F4FF14C0FAFF045006C0E0FFF2
:1000900005C0D8FF1000F2CF0DF0F29EF76AB00F46
:1000A000F66E000EF7220900F5500DBEF28E12001A
:1000B000280C0106150ECF6EA00ECE6E652BD8B49F
:1000C000662B692BD8B46A2B472C03D06D2BD8B480
:1000D0006E2B6A5303E16951130803E26A6B696B83
:1000E000358C665303E16551C70845E2666B656B65
:1000F0002D2A358A34A211D035A20FD02A2A2ABE41
:1001000005D02A503B0802E22A6A2B2A2BBE05D0D2
:100110002B503B0802E22B6A2C2A64A319D02EBE76
:1001200005D02E50000802E22E0612D022BE07D0C3
:100130002250000804E222063B0E2E6E09D0649382
:100140008C869596140E176E8C8495943482348028
:1001500064A511D030BE05D03050000802E2300650
:100160000AD032BE07D03250000804E232063B0EFD
:10017000306E01D0FF009E902AEF00F0416C61725A
:100180006D61202020202020202020204F46460086
:10019000416C61726D6120202020202020202020D1
:1001A000204F4E0046696C74726F20202020202062
:1001B0002020202020202000566964612046696CA0
:1001C00074726F20202020202020200043616D6267
:1001D000696F20436F6E7472617365F16120200056
:1001E0005469656D706F2064652050757267612079
:1001F000202020005469656D706F20506F73742D3E
:10020000507572676120200050756E746F204365D1
:10021000726F2020202020202020200020434142F7
:10022000494E412020455854524143544F52412099
:100230000000202044452048554D4F532059204769
:100240004153455320200000202020204A502049BF
:100250004E474C4F42414C2020202020000020528D
:1002600045463A2050414E454C204A50434548317E
:10027000352000002020202020496E6772657365BC
:100280002020202020202020000020202020436F3C
:100290006E7472617365F1612020202020200000BF
:1002A00020202020434C4156453D2569256925697C
:1002B0002569202000002020202020202020202030
:1002C000202020202020202020002020202020432B
:1002D0006F6E7472617365F1612020202000202010
:1002E00020202020436F72726563746120202020DB
:1002F000200020202020202020202020202020201E
:100300002020202020002020202020436F6E7472A7
:10031000617365F1612020202000202020202049E9
:100320006E636F727265637461202020200020204C
:1003300020202020202020202020202020202020BD
:1003400020002D2D2D4D454E55205052494E4349EC
:1003500050414C2D2D2D0000202020202020202039
:1003600020202020202020202020202000002020CD
:1003700020202020202041637469766F20202020D7
:10038000202000002020202020202020416C6172AD
:100390006D6120202020202000002020202020200F
:1003A000202020202020202020202020202000008D
:1003B000202020202020202020202020202020203D
:1003C0002020202000002020202020204465736170
:1003D000637469766F2020202020000020202020D8
:1003E000202020416C61726D61202020202020207F
:1003F000000020202020202020202020202020203D
:100400002020202020200000202044757261636994
:100410006F6E2041637475616C20202000002054B1
:1004200069656D706F3D20253032753A2530327523
:100430003A25303275200000444553414354495613
:1004400041523D204F7072696D61203E0000204195
:100450004354495641523D204F7072696D61203EB0
:10046000202000002052455345543D204F707269B2
:100470006D61205E2020202000002052657365748D
:10048000206465207469656D706F20002020202035
:1004900020457869746F736F202020202000202071
:1004A0002020566964612046696C74726F20202098
:1004B000202000002020202020202530332E3066F0
:1004C00020486F726173202000002020202020200F
:1004D000496E67726573652020202020202000006F
:1004E00020436F6E7472617365F1612041637475AE
:1004F000616C2020000020202020434C4156453DC7
:1005000025692569256925692020000020202020F3
:1005100020202020202020202020202020202020DB
:1005200000002020202020436F6E7472617365F1FB
:100530006120202020200000202020202020436F48
:10054000727265637461202020202020000020202A
:10055000202020202020202020202020202020209B
:1005600020200000202020202020202020202020CB
:100570002020202020202020000020202020204398
:100580006F6E7472617365F161202020202000007D
:100590002020202020496E636F7272656374612091
:1005A000202020200000202020202020202020208B
:1005B000202020202020202020200000202020207B
:1005C00020496E677265736520202020202020203E
:1005D00000002020436F6E7472617365F161204EDC
:1005E000756576612020000020202020434C415674
:1005F000453D2569256925692569202000002020C1
:1006000020202020202020202020202020202020EA
:10061000202000002020202020436F6E7472617320
:1006200065F1612020202020000020202020204192
:100630006C6D6163656E6164612020202020000084
:1006400020202020202020202020202020202020AA
:1006500020202020000020202020205469656D707B
:100660006F202064652020202020200020202020D2
:10067000202020507572676120202020202020201B
:100680002000253032753A2530327520284D3A53F6
:10069000292020005469656D706F20416C6D616385
:1006A000656E61646F002020436F727265637461D0
:1006B0006D656E746520200020202020205469651F
:1006C0006D706F20206465202020202020002020D5
:1006D000202020506F73742D507572676120202088
:1006E00020202000253032753A2530327520284DE3
:1006F0003A53292020005469656D706F20416C6D5C
:100700006163656E61646F002020436F7272656380
:1007100074616D656E746520200020205A65726FCB
:1007200020506F696E7420436F6E66696720000009
:1007300050726573696F6E3D2025332E32662069D5
:100740006E48324F2000202020204144433D253276
:100750002E306600202020205A463D25322E30665D
:100760000000204A5020434547480000496E466C2F
:100770006F773D202D2D2D202020000053617475B2
:1007800072613A0046696C74726F3A43414D0000E1
:1007900046696C74726F3A4F4B20000046696C7466
:1007A000726F3A2D2D2D00004C757A3A4F4E200075
:1007B0004C757A3A4F46462000004D6F746F723A7E
:1007C0004F4E20004D6F746F723A4F464620000026
:1007D0002020202021506F73742D50757267612185
:1007E0002020202000002020202020202020202049
:1007F0002020202020202020202000002020202039
:100800002020253032753A253032752020002020F6
:1008100020202050726F6365736F202020202020DD
:1008200000002020202046696E616C697A61646F47
:100830002020202000002020204465736561206175
:10084000706167617220202020200000202020207D
:10085000206C6120636162696E612020202020206D
:1008600000002020203E20416365707461722020CA
:1008700020202020202000002020203C2043616EEA
:1008800063656C6172202020202020200000202041
:1008900020202020215075726761212020202020F7
:1008A0002020000020202020202020202020202088
:1008B0002020202020202020000020202020202078
:1008C000253032753A253032752020200000EA6A42
:1008D000D60EE96EEF500EE00F0E016E006A002E8C
:1008E000FED7012EFBD78F0E006E002EFED7000024
:1008F000EF2EF2D7000CD739F00B006E0F0E8114DB
:100900000010816E090E006E002EFED700D0818689
:10091000DB0E006E002EFED700D08196000C819277
:10092000010ED66FD4DFD4A18192D4B18182090E99
:10093000006E002EFED700D08194090E006E002EAE
:10094000FED700D08196D539D66F0F0ED617D6C0F8
:10095000D7F0D1DFD5510F0BD66FD76FCCDF000C9E
:10096000000E936E8192819481960F0ED66FAFDF49
:10097000010EBF6FBF51030808E3030ED76FBBDF43
:10098000050ED66FA4DFBF2BF5D7020ED76FB3DFEE
:10099000BF6BBF5103080FE3036ABF51F2CFC0F032
:1009A000F29E4BEC00F0C0BFF28EC06FD46BD56FDF
:1009B000B6DFBF2BEED7000C010ED25DFC0F0FE2AD
:1009C000040FF7EF04F0800ED36F09D0C00ED36F81
:1009D00006D0940ED36F03D0D40ED36F00D0010E87
:1009E000D15DD327D46BD3C0D5F099DF000CF2CF03
:1009F0000DF0F29EE824F76AF736130FF66E0A0E32
:100A0000F7220A00F550FA6E0800F5500DBEF28E7E
:100A1000F96EC609CC09D209D809D051F10802E112
:100A2000EE0ED06FD051D10802E1FF0ED06FD05141
:100A30000C0A05E0060A0DE0020A12E016D0D46B9B
:100A4000010ED56F6CDF010E166E020ED66F3FDF02
:100A500012D0162A010ED16F16C0D2F0ADDF0BD026
:100A6000D46B100ED56F5BDF06D0010ED46FD0C0F3
:100A7000D5F055DF00D0000C8E0E006ED8C001F00E
:100A8000D7C002F0036A015209E102C001F0026A14
:100A9000080E005E015202E1006A08D0D89001BE43
:100AA00004D0023601360006F9D7019E000CBF5370
:100AB00003E18996929602D089869296000C0900ED
:100AC000F5520CE0F6CFC2F0F7CFC3F0F5CFD0F07F
:100AD000A4DFC2C0F6FFC3C0F7FFF1D7000C0900C6
:100AE000F6CFC4F0F7CFC5F0F5CFD0F096DFC4C095
:100AF000F6FFC5C0F7FFC32FF2D7000CC651016A3D
:100B0000C55D03E2C5C000F00CD0006A080EC76FD7
:100B1000C5370036C651005CD8B0006E0136C72F0D
:100B2000F7D7000C200EC0A9300EC16FBFC000F077
:100B3000BFAF07D0001E002A00C0BFF02D0EC16F4E
:100B4000C08F0150BFC0C5F0640EC66FD7DF00C0B4
:100B5000BFF0300E0124C26FBFC0C5F00A0EC66FD1
:100B6000CDDF300E0024C46F300E0124C36FC1C02E
:100B700000F0C0A702D0C0AFC095C0B90BD0C0AFC5
:100B800022D0C0B520D000C0C2F0C0B31CD000C07D
:100B9000C3F019D0300EC25D16E100C0C2F0200EC5
:100BA000C16FC0A704D0C095C083C0AFC093300E42
:100BB000C35D09E100C0C3F0200EC26FC0A7F7D724
:100BC000C093C0AFC091C0A503D0C1C0D0F025DF95
:100BD000C0A303D0C2C0D0F020DFC0A103D0C3C0E7
:100BE000D0F01BDFC4C0D0F018DF000CC02D18D02F
:100BF00034B40AD0020ED16FC1C0D2F0DDDE7C0E5B
:100C0000F66E010EF76E5BDF34A40AD0020ED16FD0
:100C1000C1C0D2F0D1DE900EF66E010EF76E4FDF3E
:100C2000C05102080AE1020ED16FC1C0D2F0C4DE89
:100C3000A40EF66E010EF76E42DFC05103080AE102
:100C4000020ED16FC1C0D2F0B7DEB80EF66E010E43
:100C5000F76E35DFC05104080AE1020ED16FC1C042
:100C6000D2F0AADECC0EF66E010EF76E28DFC05170
:100C700005080AE1020ED16FC1C0D2F09DDEE00E80
:100C8000F66E010EF76E1BDFC05106080AE1020E78
:100C9000D16FC1C0D2F090DEF40EF66E010EF76E89
:100CA0000EDFC05107080AE1020ED16FC1C0D2F0B9
:100CB00083DE080EF66E020EF76E01DF000C0150A7
:100CC000BFC0C5F0640EC66F19DF00C0BFF0015091
:100CD000300E07E1C0A30CD0C0B70AD0C0B9200EB7
:100CE00003D0C097C099C081012601C0D0F095DE25
:100CF000BFC0C5F00A0EC66F01DF00C0BFF00150D3
:100D0000300E06E1C0B708D0C0A106D0C0B9200E91
:100D1000012601C0D0F081DE300EBF27BFC0D0F069
:100D20007CDE000CD351D8B471D0006ED751D8B44A
:100D30006DD0002604E3810E002668E204D07F0E09
:100D4000005E64E363E0D4C0DBF0D851DB1BD48FDA
:100D5000D88FD651DA03F4CFDDF0D551D903F4CFD3
:100D600003F0F3CFDCF0DA03F350DD27F450DC239B
:100D7000000E0322D651D903F350DD27F450DC23B3
:100D8000000E026A03220222D451DA03F350DC2758
:100D9000F4500322000E0222D451D903F35003264B
:100DA000F4500222000E016A0122D651D803F350FA
:100DB000DC27F4500322000E02220122D551D80371
:100DC000F3500326F4500222000E0122D451D8031E
:100DD000F3500226F4500122002A01BE05D0DC3770
:100DE0000336023601360006000EDCAF0AD0032AB5
:100DF00002220122015005E1025003E1035001E10A
:100E0000002ADBBF018EDBAF019E04D0006A016ABD
:100E1000026A036A000CD051B608D06F036AD1C0D1
:100E2000D4F0D18FD890D133D233D33303320232BE
:100E300001320032D02FF6D7D4AF0BD0001E011EE6
:100E4000021E031E002AD8B4012AD8B4022AD8B43C
:100E5000032A8FEF07F0006A016A026A036AD86BFF
:100E6000D96BDA6BDB6BD751D611D511D4112CE0CD
:100E7000200EDC6FD890D037D137D237D337D83760
:100E8000D937DA37DB37D751DB5D08E1D651DA5D88
:100E900005E1D551D95D02E1D451D85D0FE3D451BC
:100EA000D85FD551D8A0D53DD95FD651D8A0D63D71
:100EB000DA5FD751D8A0D73DDB5FD8800036013646
:100EC00002360336DC2FD6D7EA6AD80EE96E000C5C
:100ED000E950C86FC751CA6F19E0C6C0D6F0C5C087
:100EE000D5F0C4C0D4F0C3C0D3F0DA6BD96B200EF8
:100EF000D86F820ED76F16DF03C0C6F002C0C5F0F0
:100F000001C0C4F000C0C3F0CA2FE7D7C6C0D3F0F9
:100F1000C5C0D2F0C4C0D1F0C3C0D0F07CD703C0EC
:100F2000C6F002C0C5F001C0C4F000C0C3F0C6AF37
:100F30000DD0C807C88BC31FC41FC51FC61FC32B36
:100F4000D8B4C42BD8B4C52BD8B4C62B3B0ECF6FA6
:100F50009A0ECE6FCA0ECD6FCC6B0A0ECA6FC751F8
:100F6000D8B4C82BC6C0D3F0C5C0D2F0C4C0D1F02D
:100F7000C3C0D0F0CFC0D7F0CEC0D6F0CDC0D5F032
:100F8000CCC0D4F068DF0150EFCFC3F0ECCFC4F099
:100F9000ECCFC5F0ECCFC6F000520FE1C729CA5D17
:100FA0000CE0C8510CE00F0BCA5D01E037E2C8BF8E
:100FB00035D0C8BD04D0200E2DD0200EC817C8AB28
:100FC0000CD0C89BC751D8A4C8070050C86F2D0EBD
:100FD000D06F23DDC851006EC86BC751CA5D0AE1EE
:100FE0000050C86F2E0ED06F18DDC851006E200E55
:100FF000C817000E300EC8AB0DD0C89BC751D8A47F
:10100000C8070050C86F2D0ED06F07DDC851006EA5
:10101000C86B300E002600C0D0F0FFDCCFC0D3F08C
:10102000CEC0D2F0CDC0D1F0CCC0D0F0D76BD66B53
:10103000D56B0A0ED46F0FDF03C0CFF002C0CEF025
:1010400001C0CDF000C0CCF0CA2F8CD7000CD4C0AA
:10105000DBF0D851DB1BDBAF05D0D894D890D4BFE0
:10106000D8802FD0D4C0DBF0D7C0DCF0D351DC5F08
:1010700006E0DBAF26D0D850010AD86E22D0D8C007
:10108000DCF0D451DC5F06E0DBAF1BD0D850010AA6
:10109000D86E17D0D9C0DCF0D551DC5F06E0DBAFED
:1010A00010D0D850010AD86E0CD0DAC0DCF0D6517E
:1010B000DC5F06E0DBAF05D0D850010AD86E01D066
:1010C000D890000C800ED8B2DC1BE16BE26BD8C06C
:1010D000E0F0DC51E01BD751D8B4DCD0DF6F006EFC
:1010E000DB51D8B4E0D0DF5FD8B481D03DE3DCC0C1
:1010F000E5F0E58FDDC0E4F0DEC0E3F0E26BD89010
:10110000E533E433E333E233DF2FF8D7E0AF03D046
:10111000E181DDD0E191DF91E189EA6ADA0EE96EE1
:10112000E9D0E199E0BF0AD0DFA113D0E533E43381
:10113000E333E233002AD8B4C5D00BD0E5BF0CD0DE
:10114000D890E237E337E437E5370006D8B4BAD0B1
:10115000F5D7E18D6BD0E19DD8C0E0F0D8AF02D0DB
:10116000E58FA9D0E59FA7D0DBC0DFF0DBC000F0A2
:10117000D751DF5FD8C0E5F0E58FD9C0E4F0DAC021
:10118000E3F0E26BD890E533E433E333E233DF2F6F
:10119000F8D7E0AF03D0E1839AD0E193DF91E18B00
:1011A000EA6ADE0EE96EA6D0E19BE0BF0AD0DFA1BD
:1011B00013D0E533E433E333E233002AD8B482D0EA
:1011C0000BD0E5BF0CD0D890E237E337E437E537F2
:1011D0000006D8B477D0F5D7E18F28D0E19FDCC0E6
:1011E000E0F0DCAF02D0E58F66D0E59F64D0DCC0D4
:1011F000E5F0E58FDDC0E4F0DEC0E3F0E0AF04D061
:10120000E59FE18564D0E195E26BDF91EA6ADA0E51
:10121000E96E70D0E0BF1CD0D8C0E0F0DFA106D0EE
:10122000E533E433E333E233002A4CE0E2AF0BD0A2
:10123000E32B09E1E42B07E1E52B05E1E533E4339A
:10124000E333002A3FE0E1BD86D7E1BFC7D71CD01A
:10125000800EE51BE5AF04D03AD0DCC0E0F00AD048
:10126000D8C0E0F0E55306E1E45304E1E35302E1C2
:10127000006A21D0E5BF08D0D890E237E337E437E1
:10128000E537002EF7D71ED0E0AF02D0E58F13D0A0
:10129000E59F11D0DBC000F0DCC0E5F0DDC0E4F07C
:1012A000DEC0E3F008D0D7C000F0D8C0E5F0D9C068
:1012B000E4F0DAC0E3F0E5C001F0E4C002F0E3C01E
:1012C00003F034D0006A016A026A036A2FD0E26B2D
:1012D000E31FE41FE51FE21FE22B05E1E32B03E11F
:1012E000E42B01E1E52BE1B115D7E1B356D7E1B528
:1012F0008AD7B3D7EF50E32705E3E42B03E1E52BCF
:10130000D8B4DF81ED52EF50E42703E3E52BD8B4E6
:10131000DF81ED52EF50EFBE01D0800AE527D8B053
:10132000DF81E1B9FED6E1BB3FD774D7000C8E0E4A
:10133000006ED351005ED4C002F0D5C001F0028E21
:10134000005209E0D890025202E1015204E0023258
:101350000132002EF7D7D4AF05D0011E021E012A9C
:10136000D8B4022A000CC435006E0036FC0E0016FC
:1013700000C001F0C250C30B0010C26E0A0ED66F3F
:1013800067EC04F0C282C2B2FED7C4CF03F0C3CF71
:10139000D7F0C4CFD8F03CEC05F003C0C8F002C0D1
:1013A000C7F001C0C6F000C0C5F0C5C000F0C6C09F
:1013B00001F0C7C002F0C8C003F0000CD351D8B48C
:1013C000A5D0DF6FD751D8B4A1D0DF5F05E37F0E82
:1013D000DF27D8B09BD006D0810EDF5FD8A096D093
:1013E000D8B494D0DFC000F0016A026A036ADE6BF1
:1013F000D4C0DDF0DD8FD5C0DCF0D6C0DBF0190E37
:10140000DF6FDA51DB5F0DE2010EDC5F0AE2DD5FC8
:1014100008E2DE5F06E2DE2BDD2BDC2BDA51DB2778
:1014200028D0D951DC5F12E2010EDD5F0FE2DE5FF2
:101430000DE2DE2BDD2BD951DC27DA51DB2719E356
:10144000DC2B17E1DD2B15E1DE2B13D0D851800901
:10145000DD5F0EE2010EDE5F0BE2DE2BD85180096C
:10146000DD27D951DC27E9E3DD2BE7E1DE2BE5D7EA
:101470000380DF2F01D00BD0D890DB37DC37DD378E
:10148000DE37D890033602360136E037BAD7E0A10E
:1014900006D0D890013202320332E03302D0000687
:1014A00035E0E0BF1ED0D890DB37DC37DD37DE37E4
:1014B000DA51DB5F07E2010EDC5F04E2DD5F02E28E
:1014C000DE5F1AE3D951DC5F05E2010EDD5F02E267
:1014D000DE5F12E3D8518009DD5F03E2010EDE5FBB
:1014E0000BE3032A09E1022A07E1012A05E1002AA8
:1014F0000DE0013202320332D4C0DFF0D851DF1BDD
:10150000DFAF02D0018E06D0019E04D0006A016ACE
:10151000026A036A000CC36BC26BC16BC06BC46B05
:1015200022DF03C053F002C052F001C051F000C0EE
:1015300050F053C0D6F052C0D5F051C0D4F050C0D6
:10154000D3F05BC0DAF05AC0D9F059C0D8F058C017
:10155000D7F034DF00C0C4F001C0C5F002C0C6F04F
:1015600003C0C7F0D88203C0DAF002C0D9F001C0CE
:10157000D8F000C0D7F0DE6BDD6BDC6B7F0EDB6F6D
:10158000A1DD03C057F002C056F001C055F000C005
:1015900054F057C0D6F056C0D5F055C0D4F054C062
:1015A000D3F0DA6BD96BD86BD76B51DD04E3576A94
:1015B000566A556A546A010EBF5D425C02E001E35F
:1015C000426A4250040DF350036A6F0FE96E000E39
:1015D0000320EA6E54C0EFFF55C0ECFF56C0ECFF8D
:1015E00057C0ECFF422A436A010EBF5D435C01E035
:1015F00035E24350040DF350036A6F0FE96E000E9D
:101600000320EA6EEFCF00F0ECCF01F0ECCF02F058
:10161000ECCF03F0EACFC5F0E9CFC4F0D892C3C055
:10162000DAF0C2C0D9F0C1C0D8F0C0C0D7F003C052
:10163000DEF002C0DDF001C0DCF000C0DBF042DD16
:10164000C5C0EAFFC4C0E9FF03C0C3F002C0C2F0D6
:1016500001C0C1F000C0C0F0432AC6D7D86BBFC0DC
:10166000D7F03CEC05F0C3C0D6F0C2C0D5F0C1C085
:10167000D4F0C0C0D3F003C0DAF002C0D9F001C08A
:10168000D8F000C0D7F09ADE03C0C3F002C0C2F0A9
:1016900001C0C1F000C0C0F0C0C000F0C1C001F086
:1016A000C2C002F0C3C003F0000CD291C6C0CBF0A0
:1016B000C5C0CAF0C4C0C9F0C3C0C8F0C6C0D6F027
:1016C000C5C0D5F0C4C0D4F0C3C0D3F0DA6BD96BB9
:1016D000D86BD76BBCDC04E3D281C951800AC96FD7
:1016E000CBC0D6F0CAC0D5F0C9C0D4F0C8C0D3F0C2
:1016F000DA6BD96BD86B8E0ED76FA9DC01E218E1DB
:10170000CBC0D6F0CAC0D5F0C9C0D4F0C8C0D3F0A1
:101710000EDE02C0D8F001C0D7F03CEC05F003C0EB
:10172000CFF002C0CEF001C0CDF000C0CCF0C2D0EE
:10173000CBC0D6F0CAC0D5F0C9C0D4F0C8C0D3F071
:10174000800EDA6F960ED96F180ED86F960ED76F7F
:101750007EDCD8A0A7D0CBC0D6F0CAC0D5F0C9C017
:10176000D4F0C8C0D3F0DA6BD96BD86B8E0ED76FBC
:1017700025DE03C0D6F002C0D5F001C0D4F000C011
:10178000D3F0D5DD02C0D1F001C0D0F0CBC0D6F08F
:10179000CAC0D5F0C9C0D4F0C8C0D3F0DA6BD96BD9
:1017A000D86B8E0ED76F0ADE00C0D3F001C0D4F024
:1017B00002C0D5F003C0D6F0D1C0D8F0D0C0D7F069
:1017C0003CEC05F0D882D6C0DAF0D5C0D9F0D4C050
:1017D000D8F0D3C0D7F003C0DEF002C0DDF001C006
:1017E000DCF000C0DBF06EDCD66BD56BD46B8E0EFC
:1017F000D36F03C0DAF002C0D9F001C0D8F000C046
:10180000D7F092EC06F003C0CBF002C0CAF001C0E2
:10181000C9F000C0C8F0D1C0D8F0D0C0D7F03CECBF
:1018200005F0D66BD56BD46B8E0ED36F03C0DAF098
:1018300002C0D9F001C0D8F000C0D7F092EC06F099
:1018400003C0CFF002C0CEF001C0CDF000C0CCF09C
:10185000CBC0D6F0CAC0D5F0C9C0D4F0C8C0D3F050
:1018600066DD02C0D8F001C0D7F03CEC05F0D8929C
:10187000CFC0DAF0CEC0D9F0CDC0D8F0CCC0D7F010
:1018800003C0DEF002C0DDF001C0DCF000C0DBF020
:1018900019DC03C0CFF002C0CEF001C0CDF000C013
:1018A000CCF008D0CBC0CFF0CAC0CEF0C9C0CDF0CC
:1018B000C8C0CCF0CBC0D6F0CAC0D5F0C9C0D4F0F7
:1018C000C8C0D3F034DD02C0D8F001C0D7F03CEC82
:1018D00005F0D882CBC0DAF0CAC0D9F0C9C0D8F0C0
:1018E000C8C0D7F003C0DEF002C0DDF001C0DCF0FC
:1018F00000C0DBF062EC08F003C0CBF002C0CAF01D
:1019000001C0C9F000C0C8F0D2A103D0CD51800AF7
:10191000CD6FCBC0D6F0CAC0D5F0C9C0D4F0C8C016
:10192000D3F0DA6BD96BD86BD76B27EC08F038E0C3
:10193000D2A11AD0C75318E1D882CFC0DAF0CEC0F6
:10194000D9F0CDC0D8F0CCC0D7F0DE6BDD6BDC6B4E
:101950007F0EDB6F62EC08F003C0CFF002C0CEF068
:1019600001C0CDF000C0CCF0D2B11AD0C72D18D034
:10197000D892CFC0DAF0CEC0D9F0CDC0D8F0CCC06C
:10198000D7F0DE6BDD6BDC6B7F0EDB6F62EC08F09B
:1019900003C0CFF002C0CEF001C0CDF000C0CCF04B
:1019A000C6C0D6F0C5C0D5F0C4C0D4F0C3C0D3F013
:1019B000DA6BD96BD86BD76B27EC08F004E1CF6BEF
:1019C000CE6BCD6BCC6BCCC000F0CDC001F0CEC0E7
:1019D00002F0CFC003F0F7EF0CF0C2C0C6F0C1C0F8
:1019E000C5F0C0C0C4F0BFC0C3F0C76B5ED6000C6A
:1019F0008E0E006EC1C001F0C0C002F0036AC1AF1C
:101A000005D0011E021E022A01E1012A015209E14C
:101A100002C001F0026A080E005E015202E1006A93
:101A20000AD0D89001BE04D0023601360006F9D79C
:101A3000C1BF01D0019E000CF86AD09E078EEA6AF1
:101A4000E96A640E176E080E186E020E196E0B0E00
:101A50001A6E020E1B6E030E1C6E020E1D6E1E6EA3
:101A6000040E1F6E0A0E206E010E216E226A236A7A
:101A7000246A0A0E256E266E276E286E296A2A6A47
:101A80002B6A2C6A2D6A2E6A2F6A306A316A326A92
:101A9000336A34903492349434963498349A349C23
:101AA000349E359035923594366A426A436A446A68
:101AB000456A466A476A4B6A4A6A496A486A4F6A8F
:101AC0004E6A4D6A4C6A536A526A516A506A576A42
:101AD000566A556A546A5B6A5A6A596A586A5F6AF2
:101AE0005E6A5D6A5C6A636B626B616B606B3598A2
:101AF000359A359C359E649164936495666B656BED
:101B0000686B676B6A6B696B6C6B6B6B6E6B6D6B29
:101B1000C150C00B0F09C16E070EB46E3E0E376E7A
:101B2000200E386E5E0E396E3A6A3B6A3C6A3D6A38
:101B30003E6A3F6A406A416A6F6B706B716B726B91
:101B4000736B746B756B766B776B786B796B7A6B89
:101B50007B6B7C6B7D6B7E6B7F6B806B816B826B39
:101B6000836B846B856B866B876B886B896B8A6BE9
:101B70008B6B8C6B8D6B8E6B8F6B906B916B926B99
:101B8000936B946B956B966B976B986B996B9A6B49
:101B90009B6B9C6B9D6B9E6B9F6BA06BA16BA26BF9
:101BA000A36BA46BA56BA66BA76BA86BA96BAA6BA9
:101BB000AB6BAC6BAD6BAE6BAF6BB06BB16BB26B59
:101BC000B36BB46BB56BB66BB76BB86BB96BBA6B09
:101BD000BB6BBC6BBD6BBE6BC150C00B0D09C16E46
:101BE000C090C082C094C08EC280956A8C6A3586CF
:101BF000850ECD6E9D80C00EF212BE6AB0EC04F070
:101C00000C0ED06F0DEC05F0F2CFBFF0F29EA96A7A
:101C1000A69CA69EA680A850BFBFF28E3E6E140E54
:101C2000D66F67EC04F0F2CFBFF0F29E010EA96E02
:101C3000A69CA69EA680A850BFBFF28E3F6E140E33
:101C4000D66F67EC04F0F2CFBFF0F29E020EA96EE1
:101C5000A69CA69EA680A850BFBFF28E406E140E12
:101C6000D66F67EC04F0F2CFBFF0F29E030EA96EC0
:101C7000A69CA69EA680A850BFBFF28E416E140EF1
:101C8000D66F67EC04F0F2CFBFF0F29E050EA96E9E
:101C9000A69CA69EA680A850BFBFF28E016E34946B
:101CA00001B03484140ED66F67EC04F0F2CFBFF0AD
:101CB000F29E0A0EA96EA69CA69EA680A850BFBF43
:101CC000F28E276E140ED66F67EC04F0F2CFBFF0E1
:101CD000F29E0B0EA96EA69CA69EA680A850BFBF22
:101CE000F28E266E140ED66F67EC04F0F2CFBFF0C2
:101CF000F29E0C0EA96EA69CA69EA680A850BFBF01
:101D0000F28E286E140ED66F67EC04F0F2CFBFF09F
:101D1000F29E0D0EA96EA69CA69EA680A850BFBFDF
:101D2000F28E296E140ED66F67EC04F029C025F0F0
:101D3000F2CFBFF0F29E140EA96EA69CA69EA680BE
:101D4000A850BFBFF28E226E140ED66F67EC04F05F
:101D5000F2CFBFF0F29E150EA96EA69CA69EA6809D
:101D6000A850BFBFF28E2E6E140ED66F67EC04F033
:101D700022C023F02EC02FF0F2CFBFF0F29E160E3D
:101D8000A96EA69CA69EA680A850BFBFF28E326EFA
:101D9000140ED66F67EC04F0F2CFBFF0F29E170E70
:101DA000A96EA69CA69EA680A850BFBFF28E306EDC
:101DB00032C033F030C031F0F2CFBFF0F29E280EC7
:101DC000A96EA69CA69EA680A850BFBFF28ED86B17
:101DD000D76F3CEC05F003C04BF002C04AF001C0E5
:101DE00049F000C048F0140ED66F67EC04F0F2CF53
:101DF000BFF0F29E460EA96EA69CA69EA680A85095
:101E0000BFBFF28E2A6E140ED66F67EC04F0F2CFCD
:101E1000BFF0F29E470EA96EA69CA69EA680A85073
:101E2000BFBFF28E2B6E140ED66F67EC04F0F2CFAC
:101E3000BFF0F29E480EA96EA69CA69EA680A85052
:101E4000BFBFF28E2C6E140ED66F67EC04F0F2CF8B
:101E5000BFF0F29E490EA96EA69CA69EA680A85031
:101E6000BFBFF28E016E359201B03582F2CFBFF066
:101E7000F29E3C0EA96EA69CA69EA680A850BFBF4F
:101E8000F28E456EF2CFBFF0F29E3D0EA96EA69C7B
:101E9000A69EA680A850BFBFF28E466E46C06CF0CC
:101EA00045C06BF06CC0D8F06BC0D7F03CEC05F0CF
:101EB00003C05BF002C05AF001C059F000C058F0F6
:101EC000C80E176E1750C8085AE135B857D0020E21
:101ED000BF6FFA0ED66F67EC04F0BF2FFAD7968269
:101EE00084A24CD0B0EC04F020C0BFF057EC05F059
:101EF000010ED16FD26FDCEC04F01C0EF66E020EF8
:101F0000F76E5FEC05F0010ED16F020ED26FDCECC4
:101F100004F0320EF66E020EF76E5FEC05F0010E65
:101F2000D16F030ED26FDCEC04F0480EF66E020E99
:101F3000F76E5FEC05F0010ED16F040ED26FDCEC92
:101F400004F05E0EF66E020EF76E5FEC05F0080E02
:101F5000BF6FFA0ED66F67EC04F0BF2FFAD70C0EE6
:101F6000D06F0DEC05F03588176A3596020EBF6FFD
:101F7000FA0ED66F67EC04F0BF2FFAD7A3D76E51D5
:101F800000080AE2FF0A03E16D51900805E20C0E19
:101F9000D06F0DEC05F0FF00928480B405D047525D
:101FA00002E1010E476E03D0476A6E6B6D6B1752EC
:101FB000D8A4F4D1348EBE6A35A005D00C0ED06FF3
:101FC0000DEC05F0FF00010ED16FD26FDCEC04F0D8
:101FD000740EF66E020EF76E5FEC05F0010ED16F17
:101FE000020ED26FDCEC04F08A0EF66E020EF76E73
:101FF0005FEC05F0010ED16F030ED26FDCEC04F044
:10200000A00EF66E020EF76E0A0EC36F6FEC05F0AF
:102010003AC0BFF01F0EC06F92EC05F03BC0BFF09E
:102020001F0EC06F92EC05F03CC0BFF01F0EC06FDA
:1020300092EC05F03DC0BFF01F0EC06F92EC05F0B2
:10204000200ED06F0DEC05F0200ED06F0DEC05F0DA
:10205000928A80AA13D034B610D00B0E1A5C036A91
:102060003A0FE96E000E0320EA6EEF2A34861E0E48
:10207000D66F67EC04F0686B676B01D0349696807E
:1020800084A013D034BA10D00B0E1A5C036A3A0F36
:10209000E96E000E0320EA6EEF06348A1E0ED66F3C
:1020A00067EC04F0686B676B01D0349A968284A267
:1020B0000FD034B80CD034881A2A1E0ED66F67ECB5
:1020C00004F00C0ED06F0DEC05F0686B676B01D05F
:1020D0003498968484A40FD034BC0CD0348C1A0667
:1020E0001E0ED66F67EC04F00C0ED06F0DEC05F0F1
:1020F000686B676B01D0349C0B0E1A5C036A3A0F55
:10210000E96E000E0320EA6EEFBE01D00AD00B0E7E
:102110001A5C036A3A0FE96E000E0320EA6E090E9C
:10212000EF6E0B0E1A5C036A3A0FE96E000E032085
:10213000EA6EEFBE0CD0EF50090809E20B0E1A5CF4
:10214000036A3A0FE96E000E0320EA6EEF6A1ABEC8
:1021500003D01A500A0802E30B0E1A6E1AC0D1F00F
:10216000040ED26FDCEC04F039C0D0F00DEC05F0B9
:102170001ABEFDD01A500E08D8B0F9D03A50030854
:102180006DE13B5008086AE13C50090867E13D50A9
:10219000020864E1A96AA86AA69CA69EA684F250D9
:1021A000006EF29E0F01550EA76EAA0EA76EA682B4
:1021B000A6B2FED7A6940050F212140E0001D66FFC
:1021C00067EC04F0010EA96EA86AA69CA69EA684E0
:1021D000F250006EF29E0F01550EA76EAA0EA76E6A
:1021E000A682A6B2FED7A6940050F212140E0001E9
:1021F000D66F67EC04F0020EA96EA86AA69CA69E94
:10220000A684F250006EF29E0F01550EA76EAA0E24
:10221000A76EA682A6B2FED7A6940050F212140EA4
:102220000001D66F67EC04F0030EA96EA86AA69CA5
:10223000A69EA684F250006EF29E0F01550EA76E68
:10224000AA0EA76EA682A6B2FED7A6940050F212DE
:10225000140E0001D66F67EC04F0FF003E503A5CAC
:102260004FE13F503B5C4CE140503C5C49E1415008
:102270003D5C46E1010ED16FD26FDCEC04F0B60E8E
:10228000F66E020EF76E5FEC05F0010ED16F020ED6
:10229000D26FDCEC04F0CA0EF66E020EF76E5FEC45
:1022A00005F0010ED16F030ED26FDCEC04F0DE0EF0
:1022B000F66E020EF76E5FEC05F0010ED16F040EA4
:1022C000D26FDCEC04F0F20EF66E020EF76E5FECED
:1022D00005F0020EBF6FFA0ED66F67EC04F0BF2F49
:1022E000FAD7320E176E0B0E1A6E0C0ED06F0DEC65
:1022F00005F0349E35906483686B676B358E37D0FC
:10230000010ED16FD26FDCEC04F0010ED16F020E22
:10231000D26FDCEC04F0060EF66E030EF76E5FEC87
:1023200005F0010ED16F030ED26FDCEC04F01A0E33
:10233000F66E030EF76E5FEC05F0010ED16F040E22
:10234000D26FDCEC04F02E0EF66E030EF76E5FEC2F
:1023500005F0020EBF6FFA0ED66F67EC04F0BF2FC8
:10236000FAD70B0E1A6E0C0ED06F0DEC05F01ABEDC
:1023700014D01A500B0811E21ABE03D01A500D08DF
:102380000CE3010E1A5CBF6FD16F040ED26FDCEC50
:1023900004F038C0D0F00DEC05F009D6172C0BD1A5
:1023A00036BE01D001D0366A010ED16FD26FDCEC9F
:1023B00004F0420EF66E030EF76E5FEC05F0928AA3
:1023C00080AA0DD034B60AD01D061B06010E1B24B0
:1023D0001C6E34861E0ED66F67EC04F001D0349666
:1023E000968084A00DD034BA0AD01D2A1B2A010E73
:1023F0001B5C1C6E348A1E0ED66F67EC04F001D095
:10240000349A1F50800A006E1D50800A005C08E25A
:10241000362A1DC01FF0020E1F5C1E6E040E1B6EBE
:102420001D50800A006E1E50800A005C08E23606CD
:102430001DC01EF0020E1E241F6E020E1B6E1850D1
:10244000800A006E1D50800A005C09E219C01DF070
:10245000020E1B6E366A1DC01EF01E241F6E1D501C
:10246000800A006E1950800A005C0BE218C01DF053
:10247000040E1B6E185C366E1DC01FF0020E1F5C32
:102480001E6E010E3624BF6FC06F020EC16FF6ECD8
:1024900005F0020E3624BF6FC06F030EC16FF6EC5D
:1024A00005F0030E3624BF6FC06F040EC16FF6EC4B
:1024B00005F0010ED16F1BC0D2F0DCEC04F037C088
:1024C000D0F00DEC05F01B50020814E1010ED16FA5
:1024D000040ED26FDCEC04F038C0D0F00DEC05F047
:1024E000010ED16F030ED26FDCEC04F038C0D0F0D7
:1024F0000DEC05F01B50040814E1010ED16F020E23
:10250000D26FDCEC04F038C0D0F00DEC05F0010E19
:10251000D16F030ED26FDCEC04F038C0D0F00DECBC
:1025200005F01B50030814E1010ED16F040ED26FA9
:10253000DCEC04F038C0D0F00DEC05F0010ED16FEA
:10254000020ED26FDCEC04F038C0D0F00DEC05F0D8
:10255000968284A21AD034B817D01DC017F0030E8B
:102560001B6E020EBF6FFA0ED66F67EC04F0BF2F22
:10257000FAD70C0ED06F0DEC05F01750060804E1E9
:102580003A6A3B6A3C6A3D6A01D03498968484A4D6
:1025900011D034BC0ED0020EBF6FFA0ED66F67ECAE
:1025A00004F0BF2FFAD7140E176E0C0ED06F0DEC7F
:1025B00005F001D0349C17500208D8A492D034748E
:1025C0003488010E176E366A34A430D03484010E7C
:1025D000D16FD26FDCEC04F0580EF66E030EF76E7E
:1025E0005FEC05F0010ED16F020ED26FDCEC04F04F
:1025F0006E0EF66E030EF76E5FEC05F0010ED16FF6
:10260000030ED26FDCEC04F0840EF66E030EF76E50
:102610005FEC05F0010ED16F040ED26FDCEC04F01C
:102620009A0EF66E030EF76E5FEC05F034B430D000
:102630003494010ED16FD26FDCEC04F0B00EF66E64
:10264000030EF76E5FEC05F0010ED16F020ED26F34
:10265000DCEC04F0C60EF66E030EF76E5FEC05F0D0
:10266000010ED16F030ED26FDCEC04F0DC0EF66EBF
:10267000030EF76E5FEC05F0010ED16F040ED26F02
:10268000DCEC04F0F20EF66E030EF76E5FEC05F074
:10269000000E34B4010EBF6F050EA96EBFC0A8FFB7
:1026A000A69CA69EA684F250006EF29E0F01550EC7
:1026B000A76EAA0EA76EA682A6B2FED7A694005059
:1026C000F212040E0001BF6FFA0ED66F67EC04F031
:1026D000BF2FFAD7020E1B6E1D6E0C0ED06F0DECC5
:1026E00005F017500308D8A41FD1010ED16FD26F87
:1026F000DCEC04F0080EF66E040EF76E5FEC05F0ED
:10270000010ED16F020ED26FDCEC04F01E0EF66EDD
:10271000040EF76E090EC36F6FEC05F02CC0BFF00E
:10272000010EC06F5FEC06F03A0ED06F0DEC05F0B5
:102730002BC0BFF0010EC06F5FEC06F03A0ED06FF9
:102740000DEC05F02AC0BFF0010EC06F5FEC06F083
:10275000200ED06F0DEC05F035A20DD0010ED16F1B
:10276000030ED26FDCEC04F0380EF66E040EF76E3A
:102770005FEC05F00CD0010ED16F030ED26FDCECD4
:1027800004F04E0EF66E040EF76E5FEC05F0010ECF
:10279000D16F040ED26FDCEC04F0640EF66E040E02
:1027A000F76E5FEC05F0928A80AA74D0C80ED66FDF
:1027B00067EC04F00C0ED06F0DEC05F0010ED16F3C
:1027C000020ED26FDCEC04F07A0EF66E040EF76E99
:1027D0005FEC05F0010ED16F030ED26FDCEC04F05C
:1027E0008C0EF66E040EF76E5FEC05F0460EA96EC9
:1027F000A86AA69CA69EA684F250006EF29E0F01C7
:10280000550EA76EAA0EA76EA682A6B2FED7A694F4
:102810000050F212470EA96EA86AA69CA69EA68436
:10282000F250006EF29E550EA76EAA0EA76EA682FB
:10283000A6B2FED7A6940050F212480EA96EA86A5E
:10284000A69CA69EA684F250006EF29E550EA76E20
:10285000AA0EA76EA682A6B2FED7A6940050F212C8
:10286000040E0001BF6FAF0ED66F67EC04F0BF2FF0
:10287000FAD72A6A2B6A2C6A1E0ED66F67EC04F010
:10288000010E176E366A020E1B6E1D6E0C0ED06F97
:102890000DEC05F0968284A22DD03572000E35B273
:1028A000010EBF6F490EA96EBFC0A8FFA69CA69ED1
:1028B000A684F250006EF29E0F01550EA76EAA0E6E
:1028C000A76EA682A6B2FED7A6940050F212020E00
:1028D0000001BF6FFA0ED66F67EC04F0BF2FFAD776
:1028E000010E176E366A020E1B6E1D6E0C0ED06F37
:1028F0000DEC05F0968484A416D034BC13D0348C2F
:10290000020EBF6FFA0ED66F67EC04F0BF2FFAD736
:10291000010E176E366A020E1B6E1D6E0C0ED06F06
:102920000DEC05F001D0349C17500408D8A4FBD05E
:10293000010ED16F020ED26FDCEC04F09E0EF66E2B
:10294000040EF76E5FEC05F0010ED16F030ED26F2F
:10295000DCEC04F0B40EF66E040EF76E060EC36FD8
:102960006FEC05F0420EE96E4BC0C6F04AC0C5F0F0
:1029700049C0C4F048C0C3F0C76B68EC07F0C00E94
:10298000F66E040EF76E080EC36F6FEC05F04BC0C9
:10299000D6F04AC0D5F049C0D4F048C0D3F0DA6BC5
:1029A000D96BD86B7F0ED76F27EC08F005E34B6A25
:1029B0004A6A496A7F0E486ED66BD56B7F0ED46F1C
:1029C000860ED36F4BC0DAF04AC0D9F049C0D8F0B8
:1029D00048C0D7F027EC08F006E34B6A4A6A7F0E3E
:1029E000496E860E486E928A80AA1DD0D8924BC03E
:1029F000DAF04AC0D9F049C0D8F048C0D7F0DE6B51
:102A0000DD6BDC6B7F0EDB6F62EC08F003C04BF01C
:102A100002C04AF001C049F000C048F034861E0EE2
:102A2000D66F67EC04F0968084A01DD0D8824BC08E
:102A3000DAF04AC0D9F049C0D8F048C0D7F0DE6B10
:102A4000DD6BDC6B7F0EDB6F62EC08F003C04BF0DC
:102A500002C04AF001C049F000C048F0348A1E0E9E
:102A6000D66F67EC04F0968284A241D034B83ED091
:102A7000010E176E366A020E1B6E1D6E0B0E1A6E5D
:102A8000020EBF6FFA0ED66F67EC04F0BF2FFAD7B5
:102A90000C0ED06F0DEC05F04BC04FF04AC04EF05D
:102AA00049C04DF048C04CF04BC0D6F04AC0D5F0FC
:102AB00049C0D4F048C0D3F097EC09F001C024F02D
:102AC000280EA96E24C0A8FFA69CA69EA684F2503C
:102AD000006EF29E0F01550EA76EAA0EA76EA6827B
:102AE000A6B2FED7A6940050F212000101D034988D
:102AF000968484A417D034BC14D0010E176E366AA5
:102B0000020E1B6E1D6E0B0E1A6E020EBF6FFA0EBA
:102B1000D66F67EC04F0BF2FFAD70C0ED06F0DEC18
:102B200005F001D0349C17500508D8A484D1010EBB
:102B3000D16FD26FDCEC04F0CA0EF66E040EF76EA5
:102B40005FEC05F0010ED16F020ED26FDCEC04F0E9
:102B5000E00EF66E040EF76E5FEC05F0010ED16F1D
:102B6000030ED26FDCEC04F0F60EF66E040EF76E78
:102B70000A0EC36F6FEC05F03AC0BFF01F0EC06FB6
:102B800092EC05F03BC0BFF01F0EC06F92EC05F059
:102B90003CC0BFF01F0EC06F92EC05F03DC0BFF00F
:102BA0001F0EC06F92EC05F0200ED06F0DEC05F0FB
:102BB000200ED06F0DEC05F0928A80AA11D034B6A9
:102BC0000ED00B0E1A5C036A3A0FE96E000E03205A
:102BD000EA6EEF2A34861E0ED66F67EC04F001D041
:102BE0003496968084A011D034BA0ED00B0E1A5CA5
:102BF000036A3A0FE96E000E0320EA6EEF06348A8C
:102C00001E0ED66F67EC04F001D0349A968284A22F
:102C100011D034B80ED034881A2A020EBF6FFA0EC3
:102C2000D66F67EC04F0BF2FFAD70C0ED06F0DEC07
:102C300005F001D03498968484A411D034BC0ED011
:102C4000348C1A06020EBF6FFA0ED66F67EC04F0D2
:102C5000BF2FFAD70C0ED06F0DEC05F001D0349CCD
:102C60000B0E1A5C036A3A0FE96E000E0320EA6E3F
:102C7000EFBE01D00AD00B0E1A5C036A3A0FE96E60
:102C8000000E0320EA6E090EEF6E0B0E1A5C036A4B
:102C90003A0FE96E000E0320EA6EEFBE0CD0EF5043
:102CA000090809E20B0E1A5C036A3A0FE96E000E7E
:102CB0000320EA6EEF6A1ABE03D01A500A0808E32E
:102CC000010E176E366A020E1B6E1D6E0B0E1A6E0B
:102CD0001AC0D1F0040ED26FDCEC04F039C0D0F091
:102CE0000DEC05F01ABE91D01A500E08D8B08DD058
:102CF0003E503A5C4DE13F503B5C4AE140503C5C09
:102D000047E141503D5C44E1010ED16FD26FDCECF4
:102D100004F00C0EF66E050EF76E5FEC05F0010E7A
:102D2000D16F020ED26FDCEC04F0220EF66E050EAF
:102D3000F76E5FEC05F0010ED16F030ED26FDCEC85
:102D400004F0380EF66E050EF76E5FEC05F0010E1E
:102D5000D16F040ED26FDCEC04F04E0EF66E050E51
:102D6000F76E5FEC05F0020EBF6FFA0ED66F67ECE0
:102D700004F0BF2FFAD7330E176E0B0E1A6E0C0E1F
:102D8000D06F0DEC05F03A6A3B6A3C6A3D6A3DD073
:102D9000010ED16FD26FDCEC04F0640EF66E050EFE
:102DA000F76E5FEC05F0010ED16F020ED26FDCEC16
:102DB00004F07A0EF66E050EF76E5FEC05F0010E6C
:102DC000D16F030ED26FDCEC04F0900EF66E050EA0
:102DD000F76E5FEC05F0010ED16F040ED26FDCECE4
:102DE00004F0A60EF66E050EF76E5FEC05F0020E0F
:102DF000BF6FFA0ED66F67EC04F0BF2FFAD70B0E39
:102E00001A6E0C0ED06F0DEC05F01ABE14D01A50CD
:102E10000B0811E21ABE03D01A500D080CE3010E84
:102E20001A5CBF6FD16F040ED26FDCEC04F038C0B7
:102E3000D0F00DEC05F017503308D8A48FD1010E57
:102E4000D16FD26FDCEC04F0BC0EF66E050EF76E9F
:102E50005FEC05F0010ED16F020ED26FDCEC04F0D6
:102E6000D20EF66E050EF76E5FEC05F0010ED16F17
:102E7000030ED26FDCEC04F0E80EF66E050EF76E72
:102E80000A0EC36F6FEC05F03AC0BFF01F0EC06FA3
:102E900092EC05F03BC0BFF01F0EC06F92EC05F046
:102EA0003CC0BFF01F0EC06F92EC05F03DC0BFF0FC
:102EB0001F0EC06F92EC05F0200ED06F0DEC05F0E8
:102EC000200ED06F0DEC05F0928A80AA11D034B696
:102ED0000ED00B0E1A5C036A3A0FE96E000E032047
:102EE000EA6EEF2A34861E0ED66F67EC04F001D02E
:102EF0003496968084A011D034BA0ED00B0E1A5C92
:102F0000036A3A0FE96E000E0320EA6EEF06348A78
:102F10001E0ED66F67EC04F001D0349A968284A21C
:102F20000DD034B80AD034881A2A1E0ED66F67EC3A
:102F300004F00C0ED06F0DEC05F001D0349896849F
:102F400084A40DD034BC0AD0348C1A061E0ED66F61
:102F500067EC04F00C0ED06F0DEC05F001D0349C42
:102F60000B0E1A5C036A3A0FE96E000E0320EA6E3C
:102F7000EFBE01D00AD00B0E1A5C036A3A0FE96E5D
:102F8000000E0320EA6E090EEF6E0B0E1A5C036A48
:102F90003A0FE96E000E0320EA6EEFBE0CD0EF5040
:102FA000090809E20B0E1A5C036A3A0FE96E000E7B
:102FB0000320EA6EEF6A1ABE03D01A500A0804E32F
:102FC000050E176E0B0E1A6E1AC0D1F0040ED26FDA
:102FD000DCEC04F039C0D0F00DEC05F01ABEA8D03E
:102FE0001A500E08D8B0A4D0010ED16FD26FDCEC0D
:102FF00004F0FE0EF66E050EF76E5FEC05F0010EA6
:10300000D16F020ED26FDCEC04F0140EF66E060ED9
:10301000F76E5FEC05F0010ED16F030ED26FDCECA2
:1030200004F02A0EF66E060EF76E5FEC05F0010E48
:10303000D16F040ED26FDCEC04F0400EF66E060E7B
:10304000F76E5FEC05F0A96A3AC0A8FFA69CA69EA1
:10305000A684F250006EF29E0F01550EA76EAA0EC6
:10306000A76EA682A6B2FED7A6940050F212140E46
:103070000001D66F67EC04F0010EA96E3BC0A8FFFB
:10308000A69CA69EA684F250006EF29E0F01550EDD
:10309000A76EAA0EA76EA682A6B2FED7A69400506F
:1030A000F212140E0001D66F67EC04F0020EA96E46
:1030B0003CC0A8FFA69CA69EA684F250006EF29E7D
:1030C0000F01550EA76EAA0EA76EA682A6B2FED756
:1030D000A6940050F212140E0001D66F67EC04F0B3
:1030E000030EA96E3DC0A8FFA69CA69EA684F25022
:1030F000006EF29E0F01550EA76EAA0EA76EA68255
:10310000A6B2FED7A6940050F212140E0001D66F9C
:1031100067EC04F0020EBF6FFA0ED66F67EC04F096
:10312000BF2FFAD7010E176E366A020E1B6E1D6E88
:103130001ABE14D01A500B0811E21ABE03D01A504E
:103140000D080CE3010E1A5CBF6FD16F040ED26F35
:10315000DCEC04F038C0D0F00DEC05F01750060898
:10316000D8A41CD1010ED16FD26FDCEC04F0560E46
:10317000F66E060EF76E5FEC05F0010ED16F020ED3
:10318000D26FDCEC04F06C0EF66E060EF76E5FECA0
:1031900005F0060ED16F030ED26FDCEC04F023C0F5
:1031A000BFF0010EC06F5FEC06F03A0ED06F0DEC71
:1031B00005F02FC0BFF0010EC06F5FEC06F08B0E64
:1031C000F66E060EF76E080EC36F6FEC05F0060E76
:1031D0002124BF6FD16F040ED26FDCEC04F039C034
:1031E000D0F00DEC05F021BE03D02150000802E321
:1031F000010E216E21BE05D02150030802E2030E0C
:10320000216E928A80AA23D0212C0FD0232A23BE9C
:1032100004D023503B0801E2236A020EBF6F960ED2
:10322000D66F67EC04F0BF2FFAD7215003080FE1E7
:103230002F2A2FBE04D02F503B0801E22F6A020E26
:10324000BF6F960ED66F67EC04F0BF2FFAD796804B
:1032500084A021D0212C0ED0230623BE01D002D081
:103260003B0E236E020EBF6F960ED66F67EC04F016
:10327000BF2FFAD7215003080EE12F062FBE01D031
:1032800002D03B0E2F6E020EBF6F960ED66F67EC0C
:1032900004F0BF2FFAD7968284A219D0212C03D034
:1032A000030E216E08D02150030803E1010E216EA8
:1032B00002D0030E216E020EBF6FFA0ED66F67ECBE
:1032C00004F0BF2FFAD70C0ED06F0DEC05F09684EA
:1032D00084A464D0C80ED66F67EC04F00C0ED06FD7
:1032E0000DEC05F0010ED16F020ED26FDCEC04F094
:1032F000940EF66E060EF76E5FEC05F0010ED16FC0
:10330000030ED26FDCEC04F0A60EF66E060EF76E1E
:103310005FEC05F0140EA96E23C0A8FFA69CA69E24
:10332000A684F250006EF29E0F01550EA76EAA0EF3
:10333000A76EA682A6B2FED7A6940050F212150E72
:10334000A96E2FC0A8FFA69CA69EA684F250006E70
:10335000F29E550EA76EAA0EA76EA682A6B2FED743
:10336000A6940050F21223C022F02FC02EF0040EBB
:103370000001BF6FAF0ED66F67EC04F0BF2FFAD716
:103380001E0ED66F67EC04F0010E176E366A020E41
:103390001B6E1D6E0C0ED06F0DEC05F0175007085C
:1033A000D8A419D1010ED16FD26FDCEC04F0B80EA5
:1033B000F66E060EF76E5FEC05F0010ED16F020E91
:1033C000D26FDCEC04F0CE0EF66E060EF76E5FECFC
:1033D00005F0060ED16F030ED26FDCEC04F033C0A3
:1033E000BFF0010EC06F5FEC06F03A0ED06F0DEC2F
:1033F00005F031C0BFF0010EC06F5FEC06F0ED0EBE
:10340000F66E060EF76E080EC36F6FEC05F0060E33
:103410002124BF6FD16F040ED26FDCEC04F039C0F1
:10342000D0F00DEC05F021BE03D02150000802E3DE
:10343000010E216E21BE05D02150030802E2030EC9
:10344000216E928A80AA23D0212C0FD0332A33BE3A
:1034500004D033503B0801E2336A020EBF6F960E70
:10346000D66F67EC04F0BF2FFAD7215003080FE1A5
:10347000312A31BE04D031503B0801E2316A020EDC
:10348000BF6F960ED66F67EC04F0BF2FFAD7968009
:1034900084A021D0212C0ED0330633BE01D002D01F
:1034A0003B0E336E020EBF6F960ED66F67EC04F0C4
:1034B000BF2FFAD7215003080EE1310631BE01D0EB
:1034C00002D03B0E316E020EBF6F960ED66F67ECC8
:1034D00004F0BF2FFAD7968284A216D0212C03D0F5
:1034E000030E216E05D02150030802E1010E216E6A
:1034F000020EBF6FFA0ED66F67EC04F0BF2FFAD73B
:103500000C0ED06F0DEC05F0968484A464D0C80E28
:10351000D66F67EC04F00C0ED06F0DEC05F0010EC9
:10352000D16F020ED26FDCEC04F0F60EF66E060ED2
:10353000F76E5FEC05F0010ED16F030ED26FDCEC7D
:1035400004F0080EF66E070EF76E5FEC05F0160E2F
:10355000A96E33C0A8FFA69CA69EA684F250006E5A
:10356000F29E0F01550EA76EAA0EA76EA682A6B2F6
:10357000FED7A6940050F212170EA96E31C0A8FF14
:10358000A69CA69EA684F250006EF29E550EA76ED3
:10359000AA0EA76EA682A6B2FED7A6940050F2127B
:1035A00033C032F031C030F0040E0001BF6FAF0EF7
:1035B000D66F67EC04F0BF2FFAD71E0ED66F67ECFC
:1035C00004F0010E176E366A020E1B6E1D6E0C0E95
:1035D000D06F0DEC05F017500808D8A40DD1010EDE
:1035E000D16FD26FDCEC04F01A0EF66E070EF76E98
:1035F0005FEC05F0010ED16F020ED26FDCEC04F02F
:10360000050EBF6F8BEC0AF000C0BFF001C0C0F028
:1036100002C0C1F003C0C2F003C0D6F002C0D5F0B2
:1036200001C0D4F000C0D3F0D70EDA6FA30ED96F6B
:10363000D86B810ED76F92EC06F000C0BFF001C0CE
:10364000C0F002C0C1F003C0C2F0300EF66E070E2B
:10365000F76E090EC36F6FEC05F0020EE96EC2C083
:10366000C6F0C1C0C5F0C0C0C4F0BFC0C3F0C76FD2
:1036700068EC07F03E0EF66E070EF76E070EC36F8E
:103680006FEC05F0010ED16F030ED26FDCEC04F08D
:10369000C46BB3EC09F000C0BFF001C0C0F002C0C1
:1036A000C1F003C0C2F0460EF66E070EF76E080EAC
:1036B000C36F6FEC05F0010EE96EC2C0C6F0C1C069
:1036C000C5F0C0C0C4F0BFC0C3F0C76B68EC07F062
:1036D000010ED16F040ED26FDCEC04F0540EF66EC6
:1036E000070EF76E070EC36F6FEC05F0010EE96E63
:1036F0005BC0C6F05AC0C5F059C0C4F058C0C3F092
:10370000C76B68EC07F0968284A25ED034B85BD0B9
:10371000010E176E366A020E1B6E1D6E0B0E1A6EB0
:10372000020EBF6FFA0ED66F67EC04F0BF2FFAD708
:103730000C0ED06F0DEC05F0C46BB3EC09F003C0B8
:103740005BF002C05AF001C059F000C058F05BC0F5
:10375000D6F05AC0D5F059C0D4F058C0D3F097EC89
:1037600009F002C06CF001C06BF06BC045F06CC09A
:1037700046F03C0EA96E45C0A8FFA69CA69EA68456
:10378000F250006EF29E0F01550EA76EAA0EA76EA4
:10379000A682A6B2FED7A6940050F2123D0EA96EE4
:1037A00046C0A8FFA69CA69EA684F250006EF29E7C
:1037B000550EA76EAA0EA76EA682A6B2FED7A69435
:1037C0000050F212000101D03498968484A413D0E2
:1037D00034BC10D0010E176E366A020E1B6E1D6EC1
:1037E0000B0E1A6E1E0ED66F67EC04F00C0ED06F27
:1037F0000DEC05F001D0349C17501408D8A4B9D1B1
:1038000035AC24D0010ED16FD26FDCEC04F0620E27
:10381000F66E070EF76E5FEC05F0010ED16F030E2A
:10382000D26FDCEC04F06C0EF66E070EF76E5FECF8
:1038300005F0050EBF6F8BEC0AF003C05FF002C00D
:103840005EF001C05DF000C05CF0359C010ED16FF0
:10385000020ED26FDCEC04F07C0EF66E070EF76EF3
:103860005FEC05F05FC0D6F05EC0D5F05DC0D4F06F
:103870005CC0D3F0A40EDA6F700ED96F3D0ED86F16
:103880007D0ED76FDEEC09F000C0BFF001C0C0F0C4
:1038900002C0C1F003C0C2F003C0D6F002C0D5F030
:1038A00001C0D4F000C0D3F0DA6BD96B300ED86F02
:1038B000820ED76F92EC06F003C063F002C062F094
:1038C00001C061F000C060F0D66BD56B300ED46FD4
:1038D000820ED36F63C0DAF062C0D9F061C0D8F055
:1038E00060C0D7F027EC08F006E3636B626B300E24
:1038F000616F820E606F446A63C0C2F062C0C1F043
:1039000061C0C0F060C0BFF0EDEC0CF000C0BFF0D3
:1039100001C0C0F002C0C1F003C0C2F0D86B44C007
:10392000D7F03CEC05F003C0D6F002C0D5F001C0E2
:10393000D4F000C0D3F0C2C0DAF0C1C0D9F0C0C02A
:10394000D8F0BFC0D7F027EC08F00EE3080E4424EF
:10395000BF6FD16F020ED26FDCEC04F0D10ED06FCE
:103960000DEC05F0442AC8D763C0C2F062C0C1F0B4
:1039700061C0C0F060C0BFF0EDEC0CF003C0D6F049
:1039800002C0D5F001C0D4F000C0D3F097EC09F02C
:1039900001C044F044500A080EE3080E4424BF6FEF
:1039A000D16F020ED26FDCEC04F0200ED06F0DEC64
:1039B00005F0442AEFD735A235D0C16B2CC0C0F03A
:1039C000C0BFC107F8EC0CF04BC0D6F04AC0D5F030
:1039D00049C0D4F048C0D3F003C0DAF002C0D9F037
:1039E00001C0D8F000C0D7F027EC08F001E20DE1EB
:1039F0000A0ED16F010ED26FDCEC04F0840EF66E6D
:103A0000070EF76E5FEC05F00CD00A0ED16F010EB9
:103A1000D26FDCEC04F0900EF66E070EF76E5FECE2
:103A200005F00CD00A0ED16F010ED26FDCEC04F061
:103A30009C0EF66E070EF76E5FEC05F034A00FD00B
:103A40008C849594010ED16F040ED26FDCEC04F0DF
:103A5000A80EF66E070EF76E5FEC05F00ED08C9494
:103A60009594010ED16F040ED26FDCEC04F0B00E11
:103A7000F66E070EF76E5FEC05F034A20DD00A0E5D
:103A8000D16F040ED26FDCEC04F0BA0EF66E070EA6
:103A9000F76E5FEC05F010D064A102D08C9695967D
:103AA0000A0ED16F040ED26FDCEC04F0C40EF66E79
:103AB000070EF76E5FEC05F0968084A009D034B64F
:103AC00006D03486C80ED66F67EC04F0347001D08F
:103AD0003496968484A41CD034BA19D0348AC80E83
:103AE000D66F67EC04F0347234A209D08C869596B8
:103AF000960ED66F67EC04F0B0EC04F008D08C960C
:103B00009596960ED66F67EC04F0B0EC04F001D0F9
:103B1000349A928A80AA17D034B814D0020EBF6F9C
:103B2000FA0ED66F67EC04F0BF2FFAD70C0ED06FE9
:103B30000DEC05F0010E176E366A020E1B6E1D6E3F
:103B40000B0E1A6E01D03498968284A211D034BC28
:103B50000ED0020EBF6FFA0ED66F67EC04F0BF2FC7
:103B6000FAD70C0ED06F0DEC05F0280E176E01D0B1
:103B7000349C17501E08D8A4CBD0010ED16FD26F41
:103B8000DCEC04F0D00EF66E070EF76E5FEC05F07D
:103B9000010ED16F020ED26FDCEC04F0E60EF66E71
:103BA000070EF76E5FEC05F0010ED16F030ED26FBA
:103BB000DCEC04F0FC0EF66E070EF76E060EC36F1B
:103BC0006FEC05F032C0BFF0010EC06F5FEC06F085
:103BD0003A0ED06F0DEC05F030C0BFF0010EC06F93
:103BE0005FEC06F0200ED06F0DEC05F0200ED06FCC
:103BF0000DEC05F035AA8BD08C949594020EC46F11
:103C0000B3EC09F000C0BFF001C0C0F002C0C1F0C9
:103C100003C0C2F003C0D6F002C0D5F001C0D4F09A
:103C200000C0D3F0DA6BD96B400ED86F810ED76F1E
:103C300027EC08F06BE3305269E1325267E1460E3F
:103C4000A96E2AC0A8FFA69CA69EA684F250006E6C
:103C5000F29E0F01550EA76EAA0EA76EA682A6B2FF
:103C6000FED7A6940050F212470EA96E2BC0A8FFF3
:103C7000A69CA69EA684F250006EF29E550EA76EDC
:103C8000AA0EA76EA682A6B2FED7A6940050F21284
:103C9000480EA96E2CC0A8FFA69CA69EA684F25032
:103CA000006EF29E550EA76EAA0EA76EA682A6B251
:103CB000FED7A6940050F2120C0E0001D06F0DEC4E
:103CC00005F0010ED16F020ED26FDCEC04F00E0E87
:103CD000F66E080EF76E5FEC05F0010ED16F030E65
:103CE000D26FDCEC04F0220EF66E080EF76E5FEC7D
:103CF00005F0080EBF6FFA0ED66F67EC04F0BF2F09
:103D0000FAD70C0ED06F0DEC05F0FF00359A31D7C5
:103D10001750280860E1010ED16FD26FDCEC04F07F
:103D2000360EF66E080EF76E5FEC05F0010ED16FE1
:103D3000020ED26FDCEC04F04C0EF66E080EF76E3D
:103D40005FEC05F0010ED16F030ED26FDCEC04F0D6
:103D5000620EF66E080EF76E5FEC05F0010ED16F85
:103D6000040ED26FDCEC04F0780EF66E080EF76EDF
:103D70005FEC05F0968284A211D034B80ED034885E
:103D80001E0E176E20C0BFF057EC05F08C9095907A
:103D90000C0ED06F0DEC05F0648501D0349896843C
:103DA00084A418D034BC15D0348C140E176E366A27
:103DB000020E1B6E1D6E0B0E1A6E020EBF6FFA0EF8
:103DC000D66F67EC04F0BF2FFAD70C0ED06F0DEC56
:103DD00005F001D0349C1750320859E1010ED16F23
:103DE000D26FDCEC04F08E0EF66E080EF76E5FEC10
:103DF00005F0010ED16F020ED26FDCEC04F0A40EC0
:103E0000F66E080EF76E5FEC05F0010ED16F030E33
:103E1000D26FDCEC04F0BA0EF66E080EF76E060EEA
:103E2000C36F6FEC05F022C0BFF0010EC06F5FECF6
:103E300006F03A0ED06F0DEC05F02EC0BFF0010E6B
:103E4000C06F5FEC06F0200ED06F0DEC05F0200E79
:103E5000D06F0DEC05F0200ED06F0DEC05F08C86C8
:103E600095968C949594968484A411D064938C86B2
:103E700095968C84959434823480140E176E040EBB
:103E8000BF6FFA0ED66F67EC04F0BF2FFAD72DBEC6
:103E900006D02D50130803E2B0EC04F02D6A35A6CD
:103EA00004D0BF6B57EC05F00300175203E1175025
:103EB0001E083FE035AA3BD0C16B2CC0C0F0C0BF8C
:103EC000C107F8EC0CF04BC0D6F04AC0D5F049C0A1
:103ED000D4F048C0D3F003C0DAF002C0D9F001C07A
:103EE000D8F000C0D7F027EC08F001E21AE1175033
:103EF000140817E134A403D08C80959002D08C90E4
:103F00009590357435A407D020C0BFF057EC05F06C
:103F10008C80959005D0BF6B57EC05F08C909590F8
:103F200006D020C0BFF057EC05F08C909590359AE4
:103F300006D020C0BFF057EC05F08C90959062EF52
:043F40000FF003007B
:020000040030CA
:0E00000020CE1F1E000781000FC00FE00F4032
:00000001FF
;PIC18F4550
;CRC=6F40  CREATED="13-abr.-18 10:58"
