:04000000AEEF2AF045
:08000800046ED8CF05F0E0CF33
:1000100006F00001E9CF0CF0EACF07F0E1CF08F0DD
:10002000E2CF09F0D9CF0AF0DACF0BF0F3CF12F01C
:10003000F4CF13F0FACF14F000C00EF001C00FF0AF
:1000400002C010F003C011F09DA02AEF00F09EB096
:10005000C9EF04F00EC000F00FC001F010C002F0B4
:1000600011C003F00CC0E9FF07C0EAFF078E08C00B
:10007000E1FF09C0E2FF0AC0D9FF0BC0DAFF12C0DE
:10008000F3FF13C0F4FF14C0FAFF045006C0E0FFF2
:1000900005C0D8FF1000F2CF0DF0F29EF76AB00F46
:1000A000F66E000EF7220900F5500DBEF28E12001A
:1000B000280C0106202156616C6F7220416C6D6125
:1000C00063656E61646F20200000202020202020C6
:1000D0002020202020202020202020202020000060
:1000E00020202020436F7272656374616D656E74A9
:1000F00065212020000020202020202020202020FA
:10010000202020202020202020200000416C61722F
:100110006D61202020202020202020204F464600F6
:10012000416C61726D612020202020202020202041
:10013000204F4E0046696C74726F202020202020D2
:1001400020202020202020005469656D706F2046FB
:10015000696C74726F2020202020200043616D6242
:10016000696F20436F6E7472617365F161202000C6
:100170005469656D706F20646520507572676120E9
:10018000202020005469656D706F20506F73742DAE
:100190005075726761202000536572766963696FDC
:1001A000202020202020202020202000202020206F
:1001B00020496E6772657365202020202020202052
:1001C000000020202020436F6E7472617365F1611E
:1001D000202020202020000020202020434C4156B9
:1001E000453D2575257525752575202000002020A5
:1001F00020202020202020202020202020202020FF
:1002000020002020202020436F6E7472617365F1FE
:10021000612020202000202020202020436F7272A7
:1002200065637461202020202000202020202020D1
:1002300020202020202020202020202020002020DE
:10024000202020436F6E7472617365F1612020205D
:1002500020002020202020496E636F727265637435
:10026000612020202000202020202020202020206D
:10027000202020202020202020002D2D2D4D454EF7
:1002800055205052494E434950414C2D2D2D0000D0
:1002900020204475726163696F6E204163747561DB
:1002A0006C2020200000205469656D706F3D202572
:1002B0003032753A253032753A25303275200000DB
:1002C000444553414354495641523D204F70726951
:1002D0006D61203E000020414354495641523D206B
:1002E0004F7072696D61203E2020000020524553FE
:1002F00045543D204F7072696D61205E20202020A2
:100300000000205265736574206465207469656D12
:10031000706F20002020202020457869746F736F53
:10032000202020202000205469656D706F206465B6
:100330002046696C74726F00202020202020202528
:100340003033752020200000202020202020202075
:1003500020202020202020202020202000002020DD
:1003600020202020202041637469766F20202020E7
:10037000202000002020202020202020416C6172BD
:100380006D6120202020202000002020202020201F
:10039000202020202020202020202020202000009D
:1003A000202020202020202020202020202020204D
:1003B0002020202000002020202020204465736180
:1003C000637469766F2020202020000020202020E8
:1003D000202020416C61726D61202020202020208F
:1003E000000020202020202020202020202020204D
:1003F000202020202020000020202020204D656487
:100400006961204D6F76696C20202020000020203B
:1004100020202020202530326920202000002020AC
:100420005A65726F20506F696E7420436F6E6669F3
:1004300067200000496E466C6F773D2025322E31D3
:10044000662020286D2F732920005A463D25322E24
:100450003066204144433D25322E30660000204462
:1004600069666572656E6369613D25322E3066008E
:10047000204D414E542E2020563D25322E306620F0
:10048000200044616D703D25322E306625252020E8
:10049000543D25322E306620000049463D2025324D
:1004A0002E3166286D2F73292044616D3D25322E33
:1004B00030660000416A75737465313D2025322E27
:1004C00031662000204D4F444F20202044616D7044
:1004D0003D25322E30662525200049463D20253217
:1004E0002E3166286D2F73292044616D3D25322EF3
:1004F000306600002020204D6F646F204D616E75C6
:10050000616C202000002020202053656C6563630F
:10051000696F6E61646F2020202000002020204D34
:100520006F646F204175746F2020200020202020F0
:1005300053656C656363696F6E61646F2020202072
:1005400000002020204D6F646F2053656D692020CE
:1005500020002020416A757374652056616C6F72AB
:1005600020202020000020202020205469656D706C
:100570006F202064652020202020200020202020C3
:10058000202020507572676120202020202020200C
:100590002000253032753A2530327520284D3A53E7
:1005A000292020005469656D706F20416C6D616376
:1005B000656E61646F002020436F727265637461C1
:1005C0006D656E7465202000202020202054696510
:1005D0006D706F20206465202020202020002020C6
:1005E000202020506F73742D507572676120202079
:1005F00020202000253032753A2530327520284DD4
:100600003A53292020005469656D706F20416C6D4C
:100610006163656E61646F002020436F7272656371
:1006200074616D656E7465202000202020202150AB
:100630006F73742D50757267612120202020000097
:1006400020202020202020202020202020202020AA
:10065000202020200000202020202020253032755E
:100660003A25303275202000202020202050726F43
:100670006365736F20202020202000002020202090
:1006800046696E616C697A61646F202020200000E9
:10069000202020446573656120617061676172206C
:1006A00020202020000020202020206C6120636179
:1006B00062696E6120202020202000002020203E42
:1006C000204163657074617220202020202020204A
:1006D00000002020203C2043616E63656C61722025
:1006E0002020202020200000202020202020215019
:1006F000757267612120202020202020000020200A
:1007000020202020202020202020202020202020E9
:1007100020200000202020202020253032753A257E
:1007200030327520202000002020202020496E67D4
:1007300072657365202020202020202000002020CA
:10074000436F6E7472617365F161204E75657661F9
:100750002020000020202020434C4156453D2569A3
:1007600025692569256920200000202020202020DF
:1007700020202020202020202020202020200000B9
:100780002020202020436F6E7472617365F1612018
:100790002020202000002020202020416C6D61635B
:1007A000656E616461202020202000002020202030
:1007B0002020202020202020202020202020202039
:1007C0000000202056656C6F6369646164204D6F82
:1007D000746F723D20200000202020202020202047
:1007E00025312E31662525202020202020202000A4
:1007F00020202020202020203130302E30252520A0
:100800002020202020202000202056616C6F7220A4
:10081000616C6D6163656E61646F20200000202053
:1008200020436F7272656374616D656E746520201C
:1008300020003E4D65646961204D6F76696C202013
:1008400020202020202000002050756E746F20434F
:1008500065726F2020202020202020200000204DC5
:10086000616E74656E696D69656E746F20202020FD
:10087000202000002053616C69646120416E616C2E
:100880006F676120202020200000204D6564696191
:10089000204D6F76696C2020202020202020000031
:1008A0003E50756E746F204365726F2020202020AB
:1008B000202020200000204D616E74656E696D69F6
:1008C000656E746F20202020202000002053616C72
:1008D00069646120416E616C6F6761202020202077
:1008E0000000204D65646961204D6F76696C2020A1
:1008F00020202020202000002050756E746F20439F
:1009000065726F20202020202020202000003E4DF6
:10091000616E74656E696D69656E746F202020204C
:10092000202000002053616C69646120416E616C7D
:100930006F676120202020200000204D65646961E0
:10094000204D6F76696C2020202020202020000080
:100950002050756E746F204365726F202020202018
:10096000202020200000204D616E74656E696D6945
:10097000656E746F20202020202000003E53616CA3
:1009800069646120416E616C6F67612020202020C6
:1009900000009E0ECF6E580ECE6E542AD8B4552A43
:1009A000582AD8B4592A57500A0806E2FF0A03E128
:1009B0005650B70801E2428242A003D0562AD8B46A
:1009C000572A595203E15850C70803E2596A586A36
:1009D000428C555203E15450C70833E2556A546AB9
:1009E000392A428A41A20DD042A40BD0362A365071
:1009F0003C0802E1366A372A37503C0802E1376A80
:100A0000382A53A611D03A5202E03A060DD02652A7
:100A100004E026063B0E3A6E07D05396140E1C6E69
:100A20008A8893984182418053A80BD03C5202E0BF
:100A30003C0607D03E5204E03E063B0E3C6E01D021
:100A4000FF009E902AEF00F020434142494E412092
:100A500020455854524143544F5241200000202019
:100A600044452048554D4F53205920474153455345
:100A700020200000202020204A5020494E474C4F83
:100A800042414C20202020200000205245463A20A0
:100A900050414E454C204A504345483135200000D6
:100AA0004A502043454748004578743A2530336919
:100AB0002525000020202020202020203130302E2D
:100AC00030252520202020202020200054656D7016
:100AD000657261747572613A2025322E306620434A
:100AE0000000416C61726D613A4556310000416C05
:100AF00061726D613A2D2D2D000046696C74726F24
:100B00003A43414D000046696C74726F3A4F4B2076
:100B1000000046696C74726F3A2D2D2D00004C75E3
:100B20007A3A4F4E20004C757A3A4F4646200000E4
:100B30004D6F746F723A4F4E20004D6F746F723A62
:100B40004F4646200000010EEA6E220EE96EEF507D
:100B50000DE0060E016E006A002EFED7012EFBD7B7
:100B60007B0E006E002EFED7EF2EF3D7000CBE6A70
:100B70008A9893988A9A939A8A9C939C8A9E939E29
:100B8000000C0101075303E18A96939602D08A86EE
:100B900093960001000C01012339F00B006E0F0E3B
:100BA00083140010836E080E006E002EFED783841F
:100BB0005B0E006E002EFED7000083940001000C37
:100BC0008390020E0101226F0001BDDF010120A10F
:100BD000839020B18380080E006E002EFED7839292
:100BE000080E006E002EFED783942139226F0F0E5F
:100BF000221722C123F10001CEDF010121510F0B89
:100C0000226F236F0001C7DF000C000E956E8390EA
:100C1000839283940F0E0101226F000194DF010E75
:100C20000101076F075103080CE3030E236F000156
:100C3000B2DF050E0101226F000185DF0101072BE4
:100C4000F1D7020E236F0001A6DF0101076B0751E8
:100C5000030813E3036A0751F2CF08F1F29E000183
:100C60004BEC00F0010108BFF28E086F206B216F82
:100C70000001A6DF0101072BEAD70001000C010EDD
:100C800001011E5DFC0F15E2040F000162EF06F08A
:100C9000800E01011F6F0DD0C00E01011F6F09D022
:100CA000940E01011F6F05D0D40E01011F6F01D0FA
:100CB0000101010E1D5D1F27206B1FC121F10001E5
:100CC0007FDF000CF2CF0DF0F29EE824F76AF736D2
:100CD000E90FF66E0C0EF7220A00F550FA6E0800C6
:100CE000F5500DBEF28EF96E900C980CA00CA80C6D
:100CF00001011C51F10802E1EE0E1C6F1C510C0A9F
:100D0000000105E0060A11E0020A18E01ED0010108
:100D1000206B010E216F000153DF010E166E020ED3
:100D20000101226F00010FDF18D0162A010E010108
:100D30001D6F16C01EF10001A2DF0FD00101206B54
:100D4000100E216F00013CDF08D0010E0101206F61
:100D50001CC121F1000134DF00D08390000CC15090
:100D6000C00B0D09C16EC050C00B0209C06EC08E11
:100D7000C280850ECD6E9D80780E0609CA6EFF0E6C
:100D8000CB6E94948B94969C0C0EBD6EB76AB66A2B
:100D9000C00EF212ECDE0101076B0001F2DE35DF5E
:100DA0000C0E01011C6F0001A3DFEEEF2BF08E0E85
:100DB000006E1EC101F01DC102F0036A015209E17B
:100DC00002C001F0026A080E005E015202E1006AF0
:100DD00008D0D89001BE04D0023601360006F9D7FB
:100DE000019E000C01011C51D8B4A5D0286F2051E0
:100DF000D8B4A1D0285F05E37F0E2827D8B09BD0B8
:100E000006D0810E285FD8A096D0D8B494D028C13F
:100E100000F0016A026A036A276B1DC126F1268F62
:100E20001EC125F11FC124F1190E286F2351245F23
:100E30000DE2010E255F0AE2265F08E2275F06E267
:100E4000272B262B252B2351242728D02251255F01
:100E500012E2010E265F0FE2275F0DE2272B262B01
:100E6000225125272351242719E3252B17E1262B6F
:100E700015E1272B13D021518009265F0EE2010EC8
:100E8000275F0BE2272B2151800926272251252796
:100E9000E9E3262BE7E1272BE5D70380282F01D0B4
:100EA0000BD0D8902437253726372737D8900336EC
:100EB000023601362937BAD729A106D0D890013297
:100EC00002320332293302D0000635E029BF1ED09A
:100ED000D89024372537263727372351245F07E258
:100EE000010E255F04E2265F02E2275F1AE322512A
:100EF000255F05E2010E265F02E2275F12E3215122
:100F00008009265F03E2010E275F0BE3032A09E154
:100F1000022A07E1012A05E1002A0DE0013202322E
:100F200003321DC128F12151281B28AF02D0018EA8
:100F300006D0019E04D0006A016A026A036A0001B9
:100F4000000C800ED8A202D001011F1B0101246BEE
:100F5000256B1BC123F11F51231B1A51D8B4DFD0BD
:100F6000226F006E1E51D8B4E3D0225FD8B483D074
:100F70003EE31FC128F1288F20C127F121C126F1AE
:100F8000256BD8902833273326332533222FF8D7E3
:100F900023AF03D02481E0D0249122912489010E33
:100FA000EA6E1D0EE96EEBD0249923BF0AD022A170
:100FB00013D02833273326332533002AD8B4C7D09B
:100FC0000BD028BF0CD0D8902537263727372837A5
:100FD0000006D8B4BCD0F5D7248D6DD0249D1BC19C
:100FE00023F11BAF02D0288FABD0289FA9D01EC100
:100FF00022F11EC100F01A51225F1BC128F1288F77
:101000001CC127F11DC126F1256BD8902833273349
:1010100026332533222FF8D723AF03D024839CD047
:1010200024932291248B010EEA6E210EE96EA7D043
:10103000249B23BF0AD022A113D028332733263381
:101040002533002AD8B483D00BD028BF0CD0D89039
:1010500025372637273728370006D8B478D0F5D774
:10106000248F29D0249F1FC123F11FAF02D0288FC6
:1010700067D0289F65D01FC128F1288F20C127F194
:1010800021C126F123AF04D0289F248565D0249563
:10109000256B2291010EEA6E1D0EE96E70D023BF02
:1010A0001CD01BC123F122A106D0283327332633BD
:1010B0002533002A4CE025AF0BD0262B09E1272B46
:1010C00007E1282B05E1283327332633002A3FE0A8
:1010D00024BD84D724BFC6D71CD0800E281B28AFC0
:1010E00004D03AD01FC123F10AD01BC123F12853E9
:1010F00006E1275304E1265302E1006A21D028BF0C
:1011000008D0D8902537263727372837002EF7D72D
:101110001ED023AF02D0288F13D0289F11D01EC11C
:1011200000F01FC128F120C127F121C126F108D00C
:101130001AC100F01BC128F11CC127F11DC126F105
:1011400028C101F027C102F026C103F034D0006AA3
:10115000016A026A036A2FD0256B261F271F281FEA
:10116000251F252B05E1262B03E1272B01E1282B49
:1011700024B112D724B354D724B589D7B3D7EF50AD
:10118000262705E3272B03E1282BD8B42281ED5233
:10119000EF50272703E3282BD8B42281ED52EF50DC
:1011A000EFBE01D0800A2827D8B0228124B9FCD60E
:1011B00024BB3ED774D70001000CF2CF07F1F29E9A
:1011C000AA6A640EA96EA69CA69EA680A8500101DC
:1011D00007BFF28E4B6E140E226F0001B4DCF2CF0B
:1011E00007F1F29EAA6A650EA96EA69CA69EA6802D
:1011F000A850010107BFF28E4C6E140E226F000141
:10120000A2DCF2CF07F1F29EAA6A660EA96EA69C36
:10121000A69EA680A850010107BFF28E4D6E140E47
:10122000226F000190DCF2CF07F1F29EAA6A670EEE
:10123000A96EA69CA69EA680A850010107BFF28EAB
:101240004E6E140E226F00017EDCF2CF07F1F29E8B
:10125000AA6A050EA96EA69CA69EA680A8500101AA
:1012600007BFF28E016E419401B04184140E226FCB
:10127000000169DCF2CF07F1F29EAA6A0A0EA96E9C
:10128000A69CA69EA680A850010107BFF28E326ED2
:10129000140E226F000157DCF2CF07F1F29EAA6A0A
:1012A0000B0EA96EA69CA69EA680A850010107BFA2
:1012B000F28E316E140E226F000145DCF2CF07F181
:1012C000F29EAA6A0C0EA96EA69CA69EA680A850A5
:1012D000010107BFF28E336E140E226F000133DC62
:1012E000F2CF07F1F29EAA6A0D0EA96EA69CA69EE9
:1012F000A680A850010107BFF28E346E140E226F33
:10130000000121DC5D6A34C05CF0F2CF07F1F29E8F
:10131000AA6A140EA96EA69CA69EA680A8500101DA
:1013200007BFF28E266E140E226F00010CDCF2CF86
:1013300007F1F29EAA6A150EA96EA69CA69EA6802B
:10134000A850010107BFF28E3A6E140E226F000101
:10135000A3EC05F0F2CF07F1F29EAA6A160EA96E71
:10136000A69CA69EA680A850010107BFF28E3E6EE5
:10137000140E226F0001A3EC05F0F2CF07F1F29EEC
:10138000AA6A170EA96EA69CA69EA680A850010167
:1013900007BFF28E3C6E140E226F0001A3EC05F025
:1013A000F2CF07F1F29EAA6A190EA96EA69CA69E1C
:1013B000A680A850010107BFF28E286E140E226F7E
:1013C0000001A3EC05F0F2CF07F1F29EAA6A1A0E13
:1013D000A96EA69CA69EA680A850010107BFF28E0A
:1013E0001E6B1D6F0001E3DC03C089F002C088F0B2
:1013F00001C087F000C086F0140E0101226F0001C9
:10140000A3EC05F089C01FF188C01EF187C01DF153
:1014100086C01CF10101236B226B200E216F820E0E
:10142000206F0001DFDC03C089F002C088F001C03A
:1014300087F000C086F001011E6B28C01DF100017D
:10144000B6DCD89203C01DF102C01CF101C01BF133
:1014500000C01AF189C021F188C020F187C01FF1B6
:1014600086C01EF16EDD03C09DF002C09CF001C07D
:101470009BF000C09AF0F2CF07F1F29EAA6A280E04
:10148000A96EA69CA69EA680A850010107BFF28E59
:10149000286E140E226F0001A3EC05F0F2CF07F1C5
:1014A000F29EAA6A290EA96EA69CA69EA680A850A6
:1014B000010107BFF28E1E6B1D6F000178DC03C0B7
:1014C00089F002C088F001C087F000C086F0140ED9
:1014D0000101226F0001A3EC05F089C01FF188C053
:1014E0001EF187C01DF186C01CF10101236B226B28
:1014F000200E216F820E206F000174DC03C089F082
:1015000002C088F001C087F000C086F028C040F01B
:10151000F2CF07F1F29EAA6A2A0EA96EA69CA69E99
:10152000A680A850010107BFF28E2F6E140E226F05
:101530000001A3EC05F0F2CF07F1F29EAA6A320E89
:10154000A96EA69CA69EA680A850010107BFF28E98
:10155000306E140E226F0001A3EC05F0F2CF07F1FC
:10156000F29EAA6A3C0EA96EA69CA69EA680A850D2
:10157000010107BFF28E2A6E140E226F0001A3EC48
:1015800005F0F2CF07F1F29EAA6A3D0EA96EA69C65
:10159000A69EA680A850010107BFF28E1E6B1D6F8C
:1015A000000105DC03C095F002C094F001C093F087
:1015B00000C092F0140E0101226F0001A3EC05F0AF
:1015C00092C01EF12AC01DF10001D7EC06F003C045
:1015D00099F002C098F001C097F000C096F0F2CFE9
:1015E00007F1F29EAA6A460EA96EA69CA69EA68048
:1015F000A850010107BFF28E366E140E226F000153
:10160000A3EC05F0F2CF07F1F29EAA6A470EA96E8D
:10161000A69CA69EA680A850010107BFF28E376E39
:10162000140E226F0001A3EC05F0F2CF07F1F29E39
:10163000AA6A480EA96EA69CA69EA680A850010183
:1016400007BFF28E386E140E226F0001A3EC05F076
:10165000F2CF07F1F29EAA6A490EA96EA69CA69E39
:10166000A680A850010107BFF28E016E429401B01E
:101670004284140E226F0001A3EC05F01CEF2CF045
:101680000CC113F101011051131B13AF05D0D894F5
:10169000D8900CBFD8802FD00CC113F10FC114F11A
:1016A0000B51145F06E013AF26D0D850010AD86E54
:1016B00022D010C114F10C51145F06E013AF1BD0FF
:1016C000D850010AD86E17D011C114F10D51145F12
:1016D00006E013AF10D0D850010AD86E0CD012C15A
:1016E00014F10E51145F06E013AF05D0D850010A73
:1016F000D86E01D0D8900001000C4BBE03D04B50E7
:10170000090803E34BBE01D01CD04B6AAA6A640EE1
:10171000A96EA86AA69CA69EA684F250006EF29EB0
:101720000F01550EA76EAA0EA76EA682A6B2FED70F
:10173000A6940050F212140E0101226F0001A3ECD6
:1017400005F04CBE03D04C50090803E34CBE01D059
:101750001CD04C6AAA6A650EA96EA86AA69CA69EB1
:10176000A684F250006EF29E0F01550EA76EAA0ECF
:10177000A76EA682A6B2FED7A6940050F212140E4F
:101780000101226F0001A3EC05F04DBE03D04D50C6
:10179000090803E34DBE01D01CD04D6AAA6A660E4B
:1017A000A96EA86AA69CA69EA684F250006EF29E20
:1017B0000F01550EA76EAA0EA76EA682A6B2FED77F
:1017C000A6940050F212140E0101226F0001A3EC46
:1017D00005F04EBE03D04E50090803E34EBE01D0C3
:1017E0001CD04E6AAA6A670EA96EA86AA69CA69E1D
:1017F000A684F250006EF29E0F01550EA76EAA0E3F
:10180000A76EA682A6B2FED7A6940050F212140EBE
:101810000101226F0001A3EC05F0000E41B4010E9E
:1018200001081DE24184AA6A050EA96E010EA86E88
:10183000A69CA69EA684F250006EF29E0F01550E45
:10184000A76EAA0EA76EA682A6B2FED7A6940050D7
:10185000F212140E0101226F0001A3EC05F03250C8
:1018600014081EE2140E326EAA6A0A0EA96E140E35
:10187000A86EA69CA69EA684F250006EF29E0F0152
:10188000550EA76EAA0EA76EA682A6B2FED7A69484
:101890000050F212140E0101226F0001A3EC05F0BA
:1018A000315014081EE20A0E326EAA6A0B0EA96E9F
:1018B0000A0EA86EA69CA69EA684F250006EF29E0A
:1018C0000F01550EA76EAA0EA76EA682A6B2FED76E
:1018D000A6940050F212140E0101226F0001A3EC35
:1018E00005F0335014081EE20A0E336EAA6A0C0E7D
:1018F000A96E0A0EA86EA69CA69EA684F250006E43
:10190000F29E0F01550EA76EAA0EA76EA682A6B272
:10191000FED7A6940050F212140E0101226F0001AE
:10192000A3EC05F026503B081EE2020E266EAA6AC2
:10193000140EA96E020EA86EA69CA69EA684F25056
:10194000006EF29E0F01550EA76EAA0EA76EA6821C
:10195000A6B2FED7A6940050F212140E0101226F17
:101960000001A3EC05F03A503B081CE23A6AAA6A6F
:10197000150EA96EA86AA69CA69EA684F250006EBB
:10198000F29E0F01550EA76EAA0EA76EA682A6B2F2
:10199000FED7A6940050F212140E0101226F00012E
:1019A000A3EC05F03E503B081EE2020E3E6EAA6A12
:1019B000160EA96E020EA86EA69CA69EA684F250D4
:1019C000006EF29E0F01550EA76EAA0EA76EA6829C
:1019D000A6B2FED7A6940050F212140E0101226F97
:1019E0000001A3EC05F03C503B081CE23C6AAA6AEB
:1019F000170EA96EA86AA69CA69EA684F250006E39
:101A0000F29E0F01550EA76EAA0EA76EA682A6B271
:101A1000FED7A6940050F212140E0101226F0001AD
:101A2000A3EC05F001010E6B0D6B200E0C6F830E05
:101A30000B6F9DC012F19CC011F19BC010F19AC0B8
:101A40000FF100011DDE3CE39D6B9C6B9B6B7F0ED9
:101A50009A6FAA6A190EA96E010EA86EA69CA69E80
:101A6000A684F250006EF29E0F01550EA76EAA0ECC
:101A7000A76EA682A6B2FED7A6940050F212140E4C
:101A80000101226F0001A3EC05F0AA6A1A0EA96EEB
:101A9000A86AA69CA69EA684F250006EF29E0F0134
:101AA000550EA76EAA0EA76EA682A6B2FED7A69462
:101AB0000050F212140E0101226F0001A3EC05F098
:101AC0002F500C081EE20A0E2F6EAA6A2A0EA96E6B
:101AD0000A0EA86EA69CA69EA684F250006EF29EE8
:101AE0000F01550EA76EAA0EA76EA682A6B2FED74C
:101AF000A6940050F212140E0101226F0001A3EC13
:101B000005F0305014081EE20A0E306EAA6A320E3A
:101B1000A96E0A0EA86EA69CA69EA684F250006E20
:101B2000F29E0F01550EA76EAA0EA76EA682A6B250
:101B3000FED7A6940050F212140E0101226F00018C
:101B4000A3EC05F001010E6B0D6B160E0C6F880EE9
:101B50000B6F99C012F198C011F197C010F196C0A7
:101B60000FF100018DDD3AE3996B986B976B966BE3
:101B7000AA6A3C0EA96EA86AA69CA69EA684F250EC
:101B8000006EF29E0F01550EA76EAA0EA76EA682DA
:101B9000A6B2FED7A6940050F212140E0101226FD5
:101BA0000001A3EC05F0AA6A3D0EA96EA86AA69CE6
:101BB000A69EA684F250006EF29E0F01550EA76EEF
:101BC000AA0EA76EA682A6B2FED7A6940050F21265
:101BD000140E0101226F0001A3EC05F036503C0801
:101BE0001CE2366AAA6A460EA96EA86AA69CA69E40
:101BF000A684F250006EF29E0F01550EA76EAA0E3B
:101C0000A76EA682A6B2FED7A6940050F212140EBA
:101C10000101226F0001A3EC05F037503C081CE2E3
:101C2000376AAA6A470EA96EA86AA69CA69EA684D1
:101C3000F250006EF29E0F01550EA76EAA0EA76E0F
:101C4000A682A6B2FED7A6940050F212140E01018D
:101C5000226F0001A3EC05F038503C081CE2386A02
:101C6000AA6A480EA96EA86AA69CA69EA684F250EF
:101C7000006EF29E0F01550EA76EAA0EA76EA682E9
:101C8000A6B2FED7A6940050F212140E0101226FE4
:101C90000001A3EC05F0000E42B4010E01081CE2A5
:101CA0004294AA6A490EA96EA86AA69CA69EA6841A
:101CB000F250006EF29E0F01550EA76EAA0EA76E8F
:101CC000A682A6B2FED7A6940050F212140E01010D
:101CD000226F0001A3EC05F034500A0802E30B0E5A
:101CE000346E26C027F03AC03BF03EC03FF03CC007
:101CF0003DF05D5203E15C503B0805E25D5203E1BB
:101D00005C50600803E25D6A600E5C6E1EEF2CF0B2
:101D10000900F5520DE0F6CF0EF1F7CF0FF1F5CF38
:101D20001CF178EC06F00EC1F6FF0FC1F7FFF0D7FB
:101D3000000C0900F6CF10F1F7CF11F1F5CF1CF12F
:101D400078EC06F010C1F6FF11C1F7FF01010F2F6B
:101D500001D002D00001EDD70001000C01011151AA
:101D6000016A105D03E210C100F00CD0006A080E99
:101D7000126F103700361151005CD8B0006E01367A
:101D8000122FF7D70001000C01500EC110F1640EA4
:101D90000101116F0001E2DF00C00EF10150300EB1
:101DA00008E101010FA310D00FB70ED00FB9200E1C
:101DB00004D001010F970F990F81012601C01CF17A
:101DC000000178EC06F001010EC110F10A0E116F4E
:101DD0000001C4DF00C00EF10150300E08E1010126
:101DE0000FB70BD00FA109D00FB9200E00010126AB
:101DF00001C01CF178EC06F00101300E0E270EC177
:101E00001CF1000178EC06F0000C010E01011D6FC1
:101E10001E6F00013FEC06F0AC0EF66E010EF76E81
:101E200077DF010E01011D6F020E1E6F00013FECF6
:101E300006F0C20EF66E010EF76E6ADF010E0101AA
:101E40001D6F030E1E6F00013FEC06F0D80EF66EFC
:101E5000010EF76E0A0E01010F6F00016ADF47C025
:101E60000EF11B0E01010F6F00018EDF48C00EF155
:101E70001B0E01010F6F000187DF49C00EF11B0E21
:101E800001010F6F000180DF4AC00EF11B0E01013E
:101E90000F6F000179DF200E01011C6F000178EC4B
:101EA00006F0200E01011C6F000178EC06F0928A0A
:101EB00080BA1ED0140E0101226F0001A3EC05F0C0
:101EC000928A80BA14D041B812D00B0E1E5C036AFD
:101ED000470FE96E000E0320EA6EEF2A41881E0EBE
:101EE0000101226F0001A3EC05F0576A566A01D088
:101EF0004198968084B01CD0140E0101226F00011D
:101F0000A3EC05F0968084B012D00B0E1E5C036A21
:101F1000470FE96E000E0320EA6EEF06418C1E0E9D
:101F20000101226F0001A3EC05F0576A566A01D047
:101F3000419C968284B21CD0140E0101226F0001D4
:101F4000A3EC05F0968284B212D041BA10D0418A37
:101F50001E2A1E0E0101226F0001A3EC05F00C0EDB
:101F600001011C6F000178EC06F0576A566A01D037
:101F7000419A968484B41CD0140E0101226F000192
:101F8000A3EC05F0968484B412D041BE10D0418EEB
:101F90001E061E0E0101226F0001A3EC05F00C0EBF
:101FA00001011C6F000178EC06F0576A566A01D0F7
:101FB000419E0B0E1E5C036A470FE96E000E032064
:101FC000EA6EEFBE01D00AD00B0E1E5C036A470F0B
:101FD000E96E000E0320EA6E090EEF6E0B0E1E5C1A
:101FE000036A470FE96E000E0320EA6EEFBE0CD0C5
:101FF000EF50090809E20B0E1E5C036A470FE96EF9
:10200000000E0320EA6EEF6A1E500A080AE30B0E68
:102010001E6E08C11CF0436A020E1F6E216E0B0E6D
:102020001E6E1EC01DF1040E01011E6F00013FEC6B
:1020300006F046C01CF178EC06F01E500B0811E2C9
:102040001E500D080EE3010E1E5C01010E6F1D6F88
:10205000040E1E6F00013FEC06F045C01CF178EC49
:1020600006F01E500E08D8B01ED147500308D8A461
:102070007DD048500808D8A479D04950090876E1A5
:102080004A50020873E101010753D8B402D000019D
:102090006DD0AA6A640EA96EA86AA69CA69EA684A4
:1020A000F250006EF29E0F01550EA76EAA0EA76E9B
:1020B000A682A6B2FED7A6940050F212140E010119
:1020C000226F0001A3EC05F0AA6A650EA96EA86A4A
:1020D000A69CA69EA684F250006EF29E0F01550E9D
:1020E000A76EAA0EA76EA682A6B2FED7A69400502F
:1020F000F212140E0101226F0001A3EC05F0AA6A8E
:10210000660EA96EA86AA69CA69EA684F250006ED2
:10211000F29E0F01550EA76EAA0EA76EA682A6B25A
:10212000FED7A6940050F212140E0101226F000196
:10213000A3EC05F0AA6A670EA96EA86AA69CA69EE3
:10214000A684F250006EF29E0F01550EA76EAA0EE5
:10215000A76EA682A6B2FED7A6940050F212140E65
:102160000101226F0001A3EC05F0FF0001010A51FB
:10217000475C52E10B51485C4FE10C51495C4CE12A
:102180000D514A5C49E1010E1D6F1E6F00013FECCD
:1021900006F0EE0EF66E010EF76EBADD010E0101CD
:1021A0001D6F020E1E6F00013FEC06F0020EF66E70
:1021B000020EF76EADDD010E01011D6F030E1E6FE5
:1021C00000013FEC06F0160EF66E020EF76EA0DD73
:1021D000010E01011D6F040E1E6F00013FEC06F0A1
:1021E0002A0EF66E020EF76E93DD020E01010E6FDF
:1021F000FA0E226F0001A3EC05F001010E2FF8D7B3
:1022000009C11CF00B0E1E6E476A486A496A4A6A89
:10221000010E016E48D047D0010E1D6F1E6F0001E8
:102220003FEC06F0010E01011D6F020E1E6F000152
:102230003FEC06F03E0EF66E020EF76E69DD010E03
:1022400001011D6F030E1E6F00013FEC06F0520EE0
:10225000F66E020EF76E5CDD010E01011D6F040EBD
:102260001E6F00013FEC06F0660EF66E020EF76E72
:102270004FDD020E01010E6FFA0E226F0001A3EC7A
:1022800005F001010E2FF8D70B0E1E6E0C0E1C6F01
:10229000000178EC06F0476A486A496A4A6A000E0B
:1022A000016E010100D00001000C0101082D1ED0BB
:1022B00041B40DD0020E1D6F09C11EF100013FECAB
:1022C00006F00C0EF66E010EF76E22DD010141A440
:1022D0000DD0020E1D6F09C11EF100013FEC06F08A
:1022E000200EF66E010EF76E13DD01010851020893
:1022F0000DE1020E1D6F09C11EF100013FEC06F059
:10230000340EF66E010EF76E03DD0101085103086D
:102310000DE1020E1D6F09C11EF100013FEC06F038
:10232000480EF66E010EF76EF3DC01010851040849
:102330000DE1020E1D6F09C11EF100013FEC06F018
:102340005C0EF66E010EF76EE3DC01010851050824
:102350000DE1020E1D6F09C11EF100013FEC06F0F8
:10236000700EF66E010EF76ED3DC010108510608FF
:102370000DE1020E1D6F09C11EF100013FEC06F0D8
:10238000840EF66E010EF76EC3DC010108510708DA
:102390000DE1020E1D6F09C11EF100013FEC06F0B8
:1023A000980EF66E010EF76EB3DC01010001000C11
:1023B000010E01011D6F1E6F00013FEC06F07A0E49
:1023C000F66E020EF76EA4DC928A80BA18D0140E54
:1023D0000101226F0001A3EC05F0928A80BA0ED0B1
:1023E00041B80CD021061F06010E1F24206E418823
:1023F0001E0E0101226F0001A3EC05F001D04198EF
:10240000968084B018D0140E0101226F0001A3EC55
:1024100005F0968084B00ED041BC0CD0212A1F2A32
:10242000010E1F5C206E418C1E0E0101226F000107
:10243000A3EC05F001D0419C2150235C08E2432A23
:1024400021C023F0020E235C226E040E1F6E225068
:10245000215C08E2430621C022F0020E2224236EF2
:10246000020E1F6E21500101065D09E21DC021F020
:10247000020E1F6E436A21C022F02224236E1D50DB
:10248000215C0BE206C121F0040E1F6E065D436E57
:1024900021C023F0020E235C226E43BE01D001D086
:1024A000436A010E4324076F086F020E096F000193
:1024B000FCDE020E43240101076F086F030E096F53
:1024C0000001F3DE030E43240101076F086F040EC1
:1024D000096F0001EADE010E01011D6F1FC01EF130
:1024E00000013FEC06F044C01CF178EC06F01F50F0
:1024F000020818E1010E01011D6F040E1E6F00019C
:102500003FEC06F045C01CF178EC06F0010E01012D
:102510001D6F030E1E6F00013FEC06F045C01CF15D
:1025200078EC06F01F50040818E1010E01011D6F40
:10253000020E1E6F00013FEC06F045C01CF178EC66
:1025400006F0010E01011D6F030E1E6F00013FEC2E
:1025500006F045C01CF178EC06F01F50030818E1A6
:10256000010E01011D6F040E1E6F00013FEC06F00D
:1025700045C01CF178EC06F0010E01011D6F020E42
:102580001E6F00013FEC06F045C01CF178EC06F030
:10259000968284B228D0140E0101226F0001A3ECB0
:1025A00005F0968284B21ED041BA1CD0418A21C067
:1025B0001CF0030E1F6E020E0101076FFA0E226F50
:1025C0000001A3EC05F00101072FF8D70C0E1C6FDA
:1025D000000178EC06F01C50060804E1476A486ADE
:1025E000496A4A6A01D0419A968484B41ED0140E76
:1025F0000101226F0001A3EC05F0968484B414D08D
:1026000041BE12D0020E0101076FFA0E226F0001C7
:10261000A3EC05F00101072FF8D7140E1C6E0C0E69
:102620001C6F000178EC06F001D0419EB4EF2CF055
:102630004174418A010E1C6E436A41A438D0418422
:10264000010E01011D6F1E6F00013FEC06F0480EE8
:10265000F66E030EF76E88EC0EF0010E01011D6F91
:10266000020E1E6F00013FEC06F05E0EF66E030ECA
:10267000F76E88EC0EF0010E01011D6F030E1E6F48
:1026800000013FEC06F0740EF66E030EF76E88EC58
:102690000EF0010E01011D6F040E1E6F00013FECD4
:1026A00006F08A0EF66E030EF76E88EC0EF041B45B
:1026B00038D04194010E01011D6F1E6F00013FECE7
:1026C00006F0A00EF66E030EF76E88EC0EF0010E0B
:1026D00001011D6F020E1E6F00013FEC06F0B60EE9
:1026E000F66E030EF76E88EC0EF0010E01011D6F01
:1026F000030E1E6F00013FEC06F0CC0EF66E030ECB
:10270000F76E88EC0EF0010E01011D6F040E1E6FB6
:1027100000013FEC06F0E20EF66E030EF76E88EC59
:102720000EF0000E41B4010E0101076FAA6A050EFA
:10273000A96E07C1A8FFA69CA69EA684F250006EB3
:10274000F29E0F01550EA76EAA0EA76EA682A6B224
:10275000FED7A6940050F212040E0101076FFA0E84
:10276000226F0001A3EC05F00101072FF8D7020E3C
:102770001F6E216E0C0E1C6F000178EC06F0B9EF95
:102780002CF0010E01011D6F1E6F00013FEC06F0E1
:10279000900EF66E020EF76E88EC0EF0010E01013F
:1027A0001D6F020E1E6F00013FEC06F0A60EF66EC6
:1027B000020EF76E090E01010F6F000199EC0EF089
:1027C00038C00EF1010E01010F6F0001C4EC0EF0D4
:1027D0003A0E01011C6F000178EC06F037C00EF1D3
:1027E000010E01010F6F0001C4EC0EF03A0E010161
:1027F0001C6F000178EC06F036C00EF1010E0101ED
:102800000F6F0001C4EC0EF0200E01011C6F0001DF
:1028100078EC06F042A40FD0010E01011D6F030EEB
:102820001E6F00013FEC06F0C00EF66E020EF76E52
:1028300088EC0EF00ED0010E01011D6F030E1E6F0D
:1028400000013FEC06F0D60EF66E020EF76E88EC35
:102850000EF0010E01011D6F040E1E6F00013FEC12
:1028600006F0EC0EF66E020EF76E88EC0EF0928A11
:1028700080BA9BD0140E0101226F0001A3EC05F079
:10288000928A80BA92D00C0E01011C6F000178EC84
:1028900006F0010E01011D6F020E1E6F00013FECDC
:1028A00006F0020EF66E030EF76E88EC0EF0010EC7
:1028B00001011D6F030E1E6F00013FEC06F0140EA8
:1028C000F66E030EF76E88EC0EF0AA6A460EA96E3D
:1028D000A86AA69CA69EA684F250006EF29E0F01E6
:1028E000550EA76EAA0EA76EA682A6B2FED7A69414
:1028F0000050F212140E0101226F0001A3EC05F04A
:10290000AA6A470EA96EA86AA69CA69EA684F25043
:10291000006EF29E0F01550EA76EAA0EA76EA6823C
:10292000A6B2FED7A6940050F212140E0101226F37
:102930000001A3EC05F0AA6A480EA96EA86AA69C3D
:10294000A69EA684F250006EF29E0F01550EA76E51
:10295000AA0EA76EA682A6B2FED7A6940050F212C7
:10296000140E0101226F0001A3EC05F0040E010119
:10297000076FAF0E226F0001A3EC05F00101072FD6
:10298000F8D7366A376A386A1E0E226F0001A3EC48
:1029900005F0010E1C6E436A020E1F6E216E0C0EB6
:1029A00001011C6F000178EC06F0968284B241D0E0
:1029B000140E0101226F0001A3EC05F0968284B28F
:1029C00038D04274000E42B4010E0101076FAA6AAA
:1029D000490EA96E07C1A8FFA69CA69EA684F25028
:1029E000006EF29E0F01550EA76EAA0EA76EA6826C
:1029F000A6B2FED7A6940050F212140E0101226F67
:102A00000001A3EC05F0020E0101076FFA0E226F20
:102A10000001A3EC05F00101072FF8D7010E1C6E91
:102A2000436A020E1F6E216E0C0E1C6F000178ECC3
:102A300006F0968484B423D0140E0101226F0001A5
:102A4000A3EC05F0968484B419D041BE17D0418E12
:102A5000020E0101076FFA0E226F0001A3EC05F0D0
:102A60000101072FF8D7010E1C6E436A020E1F6E7C
:102A7000216E0C0E1C6F000178EC06F001D0419E17
:102A8000BEEF2CF00C0E01011C6F000178EC06F07B
:102A9000010E01011D6F020E1E6F00013FEC06F0DA
:102AA000B40EF66E000EF76E88EC0EF0010E01010A
:102AB0001D6F040E1E6F00013FEC06F0CA0EF66E8D
:102AC000000EF76E88EC0EF0010E01011D6F030E73
:102AD0001E6F00013FEC06F0E00EF66E000EF76E82
:102AE00088EC0EF0010E01011D6F1E6F00013FEC1E
:102AF00006F0F60EF66E000EF76E88EC0EF0080E7D
:102B00000101076FFA0E226F0001A3EC05F001012D
:102B1000072FF8D70C0E1C6F000178EC06F0000CA4
:102B2000010E01011D6F020E1E6F00013FEC06F049
:102B3000260EF66E030EF76E88EC0EF0010E010104
:102B40001D6F030E1E6F00013FEC06F0380EF66E8F
:102B5000030EF76E070E01010F6F000199EC0EF0E6
:102B600040C00EF1030E01010F6F0001C4EC0EF026
:102B7000200E01011C6F000178EC06F0200E01010F
:102B80001C6F000178EC06F0200E01011C6F0001A3
:102B900078EC06F04050090802E30A0E406E928A73
:102BA00080BA0FD0140E0101226F0001A3EC05F0D2
:102BB000928A80BA05D041B803D0010E40264188E0
:102BC00001D04198968084B00FD0140E0101226F7D
:102BD0000001A3EC05F0968084B005D041BC03D081
:102BE000010E405E418C01D0419C968284A203D0AC
:102BF000968484B444D0140E0101226F0001A3EC2A
:102C000005F0968284A203D0968484B437D041BA6A
:102C100035D0010E1C6E436A020E1F6E216E0B0E24
:102C20001E6E020E0101076FFA0E226F0001A3EC67
:102C300005F00101072FF8D70C0E1C6F000178EC8E
:102C400006F0AA6A280EA96E40C0A8FFA69CA69E00
:102C5000A684F250006EF29E0F01550EA76EAA0ECA
:102C6000A76EA682A6B2FED7A6940050F212140E4A
:102C70000101226F0001A3EC05F004DF01D0419AAD
:102C8000C3EF2CF0200E010109A9300E0A6F08C114
:102C900000F008AF07D0001E002A00C008F12D0E7A
:102CA0000A6F098F015008C110F1640E116F000105
:102CB000AEEC0EF000C008F1300E012401010B6FE4
:102CC00008C110F10A0E116F0001AEEC0EF0300ECB
:102CD000002401010D6F300E01240C6F0AC100F0B9
:102CE00009A702D009AF099509B90BD009AF22D0C5
:102CF00009B520D000C00BF109B31CD000C00CF105
:102D000019D0300E0B5D16E100C00BF1200E0A6FDA
:102D100009A704D00995098309AF0993300E0C5D0A
:102D200009E100C00CF1200E0B6F09A7F7D709933A
:102D300009AF099109A506D00AC11CF1000178EC80
:102D400006F0010109A306D00BC11CF1000178ECCB
:102D500006F0010109A105D00CC11CF1000178ECBD
:102D600006F00DC11CF1000178EC06F0000C010E1C
:102D700001011D6F1E6F00013FEC06F0280EF66E7C
:102D8000070EF76E88EC0EF0010E01011D6F020EAA
:102D90001E6F00013FEC06F03E0EF66E070EF76E5A
:102DA00088EC0EF0010E01011D6F030E1E6F000175
:102DB0003FEC06F0540EF66E070EF76E0A0E010198
:102DC0000F6F000199EC0EF047C008F11F0E0101D2
:102DD000096F000157DF48C008F11F0E0101096F9C
:102DE000000150DF49C008F11F0E0101096F000109
:102DF00049DF4AC008F11F0E0101096F000142DFDF
:102E0000200E01011C6F000178EC06F0200E01017C
:102E10001C6F000178EC06F0928A80BA1CD0140E68
:102E20000101226F0001A3EC05F0928A80BA12D052
:102E300041B810D00B0E1E5C036A470FE96E000EFE
:102E40000320EA6EEF2A41881E0E0101226F000165
:102E5000A3EC05F001D04198968084B01CD0140EEC
:102E60000101226F0001A3EC05F0968084B012D01E
:102E700041BC10D00B0E1E5C036A470FE96E000EBA
:102E80000320EA6EEF06418C1E0E0101226F000145
:102E9000A3EC05F001D0419C968284B21AD0140EA6
:102EA0000101226F0001A3EC05F0968284B210D0DC
:102EB00041BA0ED0418A1E2A1E0E0101226F000166
:102EC000A3EC05F00C0E01011C6F000178EC06F07C
:102ED00001D0419A968484B41AD0140E0101226F55
:102EE0000001A3EC05F0968484B410D041BE0ED04E
:102EF000418E1E061E0E0101226F0001A3EC05F09B
:102F00000C0E01011C6F000178EC06F001D0419E0F
:102F10000B0E1E5C036A470FE96E000E0320EA6E7B
:102F2000EFBE01D00AD00B0E1E5C036A470FE96E9C
:102F3000000E0320EA6E090EEF6E0B0E1E5C036A94
:102F4000470FE96E000E0320EA6EEFBE0CD0EF5083
:102F5000090809E20B0E1E5C036A470FE96E000EBA
:102F60000320EA6EEF6A1E500A081CE3020E0101FC
:102F7000076FFA0E226F0001A3EC05F00101072F85
:102F8000F8D7010E1C6E436A020E1F6E216E476A4F
:102F9000486A496A4A6A0C0E1C6F000178EC06F018
:102FA0000B0E1E6E1EC01DF1040E01011E6F0001EE
:102FB0003FEC06F046C01CF178EC06F01E500E08FF
:102FC000D8B0C7D0010E01011D6F1E6F00013FEC8C
:102FD00006F06A0EF66E070EF76E88EC0EF0010E24
:102FE00001011D6F020E1E6F00013FEC06F0800E06
:102FF000F66E070EF76E88EC0EF0010E01011D6FE4
:10300000030E1E6F00013FEC06F0960EF66E070EE3
:10301000F76E88EC0EF0010E01011D6F040E1E6F9D
:1030200000013FEC06F0AC0EF66E070EF76E88EC72
:103030000EF047C04BF048C04CF049C04DF04AC0BC
:103040004EF0AA6A640EA96E47C0A8FFA69CA69E71
:10305000A684F250006EF29E0F01550EA76EAA0EC6
:10306000A76EA682A6B2FED7A6940050F212140E46
:103070000101226F0001A3EC05F0AA6A650EA96E9A
:1030800048C0A8FFA69CA69EA684F250006EF29EA1
:103090000F01550EA76EAA0EA76EA682A6B2FED786
:1030A000A6940050F212140E0101226F0001A3EC4D
:1030B00005F0AA6A660EA96E49C0A8FFA69CA69E46
:1030C000A684F250006EF29E0F01550EA76EAA0E56
:1030D000A76EA682A6B2FED7A6940050F212140ED6
:1030E0000101226F0001A3EC05F0AA6A670EA96E28
:1030F0004AC0A8FFA69CA69EA684F250006EF29E2F
:103100000F01550EA76EAA0EA76EA682A6B2FED715
:10311000A6940050F212140E0101226F0001A3ECDC
:1031200005F0020E0101076FFA0E226F0001A3ECF9
:1031300005F00101072FF8D7010E1C6E436A020E3D
:103140001F6E216E476A486A496A4A6A0B0E1E6EF4
:1031500000011E500B0811E21E500D080EE3010E77
:103160001E5C0101076F1D6F040E1E6F00013FEC16
:1031700006F045C01CF178EC06F0DDEF2CF0010EF6
:1031800001011D6F1E6F00013FEC06F0660EF66E2A
:10319000050EF76E88EC0EF0010E01011D6F020E98
:1031A0001E6F00013FEC06F07C0EF66E050EF76E0A
:1031B00088EC0EF0060E01011D6F030E1E6F00015C
:1031C0003FEC06F027C00EF1010E01010F6F000168
:1031D000C4EC0EF03A0E01011C6F000178EC06F011
:1031E0003BC00EF1010E01010F6F0001C4EC0EF0A7
:1031F0009B0EF66E050EF76E080E01010F6F0001B3
:1032000099EC0EF0060E25240101076F1D6F040EC8
:103210001E6F00013FEC06F046C01CF178EC06F092
:10322000255202E1010E256E2550030802E2030E2D
:10323000256E928A80BA25D0252C10D027503C08C4
:103240000DE3272A020E0101076F960E226F00017F
:10325000A3EC05F00101072FF8D700012550030862
:1032600010E13B503B080DE33B2A020E0101076FC2
:10327000960E226F0001A3EC05F00101072FF8D78D
:103280000001968084B046D0252C21D0275001081B
:103290000DE22706020E0101076F960E226F000154
:1032A000A3EC05F00101072FF8D7000127503C08D7
:1032B0000EE23C0E276E020E0101076F960E226F82
:1032C0000001A3EC05F00101072FF8D700012550FC
:1032D000030820E13B520DE03B06020E0101076F9F
:1032E000960E226F0001A3EC05F00101072FF8D71D
:1032F00000013B503B080EE23B0E3B6E020E01010B
:10330000076F960E226F0001A3EC05F00101072F55
:10331000F8D70001968284B21DD0252C03D0030E6D
:10332000256E08D02550030803E1010E256E02D05A
:10333000030E256E020E0101076FFA0E226F0001C7
:10334000A3EC05F00101072FF8D70C0E1C6F00014C
:1033500078EC06F0968484B480D0C80E0101226F08
:103360000001A3EC05F00C0E01011C6F000178ECCC
:1033700006F0010E01011D6F020E1E6F00013FECF1
:1033800006F0A40EF66E050EF76E88EC0EF0010E38
:1033900001011D6F030E1E6F00013FEC06F0B60E1B
:1033A000F66E050EF76E88EC0EF0AA6A140EA96E82
:1033B00027C0A8FFA69CA69EA684F250006EF29E8F
:1033C0000F01550EA76EAA0EA76EA682A6B2FED753
:1033D000A6940050F2121E0E0101226F0001A3EC10
:1033E00005F0AA6A150EA96E3BC0A8FFA69CA69E72
:1033F000A684F250006EF29E0F01550EA76EAA0E23
:10340000A76EA682A6B2FED7A6940050F2121E0E98
:103410000101226F0001A3EC05F027C026F03BC09C
:103420003AF0040E0101076FAF0E226F0001A3EC0A
:1034300005F00101072FF8D71E0E226F0001A3EC43
:1034400005F0010E1C6E436A020E1F6E216E0C0EFB
:1034500001011C6F000178EC06F0E2EF2CF0010E88
:1034600001011D6F1E6F00013FEC06F0C80EF66EE5
:10347000050EF76E88EC0EF0010E01011D6F020EB5
:103480001E6F00013FEC06F0DE0EF66E050EF76EC5
:1034900088EC0EF0060E01011D6F030E1E6F000179
:1034A0003FEC06F03FC00EF1010E01010F6F00016D
:1034B000C4EC0EF03A0E01011C6F000178EC06F02E
:1034C0003DC00EF1010E01010F6F0001C4EC0EF0C2
:1034D000FD0EF66E050EF76E080E01010F6F00016E
:1034E00099EC0EF0060E25240101076F1D6F040EE6
:1034F0001E6F00013FEC06F046C01CF178EC06F0B0
:10350000255202E1010E256E2550030802E2030E4A
:10351000256E928A80BA25D0252C10D03F503C08C9
:103520000DE33F2A020E0101076F960E226F000184
:10353000A3EC05F00101072FF8D70001255003087F
:1035400010E13D503B080DE33D2A020E0101076FDB
:10355000960E226F0001A3EC05F00101072FF8D7AA
:103560000001968084B046D0252C21D03F50010820
:103570000DE23F06020E0101076F960E226F000159
:10358000A3EC05F00101072FF8D700013F503C08DC
:103590000EE23C0E3F6E020E0101076F960E226F87
:1035A0000001A3EC05F00101072FF8D70001255019
:1035B000030820E13D520DE03D06020E0101076FB8
:1035C000960E226F0001A3EC05F00101072FF8D73A
:1035D00000013D503B080EE23B0E3D6E020E010124
:1035E000076F960E226F0001A3EC05F00101072F73
:1035F000F8D70001968284B21AD0252C03D0030E8E
:10360000256E05D02550030802E1010E256E020E3D
:103610000101076FFA0E226F0001A3EC05F0010112
:10362000072FF8D70C0E1C6F000178EC06F096847B
:1036300084B480D0C80E0101226F0001A3EC05F014
:103640000C0E01011C6F000178EC06F0010E010167
:103650001D6F020E1E6F00013FEC06F0060EF66EA7
:10366000060EF76E88EC0EF0010E01011D6F030EC1
:103670001E6F00013FEC06F0180EF66E060EF76E98
:1036800088EC0EF0AA6A160EA96E3FC0A8FFA69C91
:10369000A69EA684F250006EF29E0F01550EA76EF4
:1036A000AA0EA76EA682A6B2FED7A6940050F2126A
:1036B000140E0101226F0001A3EC05F0AA6A170E97
:1036C000A96E3DC0A8FFA69CA69EA684F250006EDF
:1036D000F29E0F01550EA76EAA0EA76EA682A6B285
:1036E000FED7A6940050F212140E0101226F0001C1
:1036F000A3EC05F03FC03EF03DC03CF0040E0101DC
:10370000076FAF0E226F0001A3EC05F00101072F38
:10371000F8D71E0E226F0001A3EC05F0010E1C6EFF
:10372000436A020E1F6E216E0C0E01011C6F000118
:1037300078EC06F0E7EF2CF0355202E1040E356E1E
:103740003550040802E2010E356E352C38D0010EDA
:1037500001011D6F1E6F00013FEC06F0320EF66E88
:10376000080EF76E88EC0EF0010E01011D6F020EBF
:103770001E6F00013FEC06F0480EF66E080EF76E65
:1037800088EC0EF0010E01011D6F030E1E6F00018B
:103790003FEC06F05E0EF66E080EF76E88EC0EF04B
:1037A000010E01011D6F040E1E6F00013FEC06F0BB
:1037B000740EF66E080EF76E88EC0EF0B0D0355031
:1037C000020838E1010E01011D6F1E6F00013FEC80
:1037D00006F08A0EF66E080EF76E88EC0EF0010EFB
:1037E00001011D6F020E1E6F00013FEC06F0A00EDE
:1037F000F66E080EF76E88EC0EF0010E01011D6FDB
:10380000030E1E6F00013FEC06F0B60EF66E080EBA
:10381000F76E88EC0EF0010E01011D6F040E1E6F95
:1038200000013FEC06F0CC0EF66E080EF76E88EC49
:103830000EF075D03550030838E1010E01011D6FFF
:103840001E6F00013FEC06F0E20EF66E080EF76EFA
:1038500088EC0EF0010E01011D6F020E1E6F0001BB
:103860003FEC06F0F80EF66E080EF76E88EC0EF0E0
:10387000010E01011D6F030E1E6F00013FEC06F0EB
:103880000E0EF66E090EF76E88EC0EF0010E0101B9
:103890001D6F040E1E6F00013FEC06F0240EF66E45
:1038A000090EF76E88EC0EF03AD03550040837E177
:1038B000010E01011D6F1E6F00013FEC06F03A0E74
:1038C000F66E090EF76E88EC0EF0010E01011D6F09
:1038D000020E1E6F00013FEC06F0500EF66E090E50
:1038E000F76E88EC0EF0010E01011D6F030E1E6FC6
:1038F00000013FEC06F0660EF66E090EF76E88ECDE
:103900000EF0010E01011D6F040E1E6F00013FEC51
:1039100006F07C0EF66E090EF76E88EC0EF0928AB9
:1039200080BA10D0140E0101226F0001A3EC05F043
:10393000928A80BA07D01E0E0101226F0001A3EC0B
:1039400005F03506968084B010D0140E0101226F68
:103950000001A3EC05F0968084B007D01E0E010193
:10396000226F0001A3EC05F0352A968284B225D09F
:10397000140E0101226F0001A3EC05F0968284B2BF
:1039800016D0352C03D0090E1C6E11D0355002080C
:1039900003E10A0E1C6E0BD03550030803E10B0E39
:1039A0001C6E05D03550040802E10C0E1C6E0C0E86
:1039B00001011C6F000178EC06F0968484B421D0DC
:1039C000140E0101226F0001A3EC05F0968484B46B
:1039D00018D0010E1C6E436A020E1F6E216E0B0E74
:1039E0001E6E020E0101076FFA0E226F0001A3EC9A
:1039F00005F00101072FF8D70C0E1C6F000178ECC1
:103A000006F008EF2DF0010E01011D6F020E1E6F72
:103A100000013FEC06F0F80EF66E030EF76E88EC30
:103A20000EF0010E01011D6F030E1E6F00013FEC31
:103A300006F00E0EF66E040EF76E070E01010F6F04
:103A4000000199EC0EF02FC008F1010E0101096F81
:103A5000000142EC16F0200E01011C6F000178EC11
:103A600006F0200E01011C6F000178EC06F0200E1C
:103A700001011C6F000178EC06F02F500C0802E2E7
:103A80000C0E2F6E2F5202E1010E2F6E928A80BA19
:103A900015D0140E0101226F0001A3EC05F0928AEB
:103AA00080BA0BD041B809D0010E2F2641881E0ED6
:103AB0000101226F0001A3EC05F001D0419896802E
:103AC00084B015D0140E0101226F0001A3EC05F0A3
:103AD000968084B00BD041BC09D0010E2F5E418C82
:103AE0001E0E0101226F0001A3EC05F001D0419CE4
:103AF000968484B442D0140E0101226F0001A3EC1D
:103B000005F0968484B438D041BA36D0010E1C6ECC
:103B1000436A020E1F6E216E0B0E1E6E020E010115
:103B2000076FFA0E226F0001A3EC05F00101072FC9
:103B3000F8D70C0E1C6F000178EC06F0AA6A2A0E6A
:103B4000A96E2FC0A8FFA69CA69EA684F250006E68
:103B5000F29E0F01550EA76EAA0EA76EA682A6B200
:103B6000FED7A6940050F212140E0101226F00013C
:103B7000A3EC05F042EC15F001D0419A0DEF2DF0C9
:103B800001011C51D8B471D0006E2051D8B46DD051
:103B9000002604E3810E002668E204D07F0E005E5A
:103BA00064E363E01DC124F12151241B1D8F218F8B
:103BB0001F512303F4CF26F11E512203F4CF03F04B
:103BC000F3CF25F12303F3502627F4502523000ECD
:103BD00003221F512203F3502627F4502523000E01
:103BE000026A032202221D512303F3502527F450B9
:103BF0000322000E02221D512203F3500326F4502B
:103C00000222000E016A01221F512103F3502527D1
:103C1000F4500322000E022201221E512103F35010
:103C20000326F4500222000E01221D512103F350FD
:103C30000226F4500122002A01BE05D025370336A2
:103C4000023601360006000E25AF0AD0032A0222F2
:103C50000122015005E1025003E1035001E1002A75
:103C600024BF018E24AF019E04D0006A016A026A5B
:103C7000036A0001000C01011C51B6081C6F036AA5
:103C80001DC120F11D8FD8901D331E331F33033209
:103C90000232013200321C2FF6D720AF0BD0001EAB
:103CA000011E021E031E002AD8B4012AD8B4022A1B
:103CB000D8B4032A0001C8EF1EF0006A016A026A44
:103CC000036A0101246B256B266B276B235122119C
:103CD000211120112CE0200E286FD8901C371D37A1
:103CE0001E371F3724372537263727372351275DBF
:103CF00008E12251265D05E12151255D02E12051B7
:103D0000245D0FE32051245F2151D8A0213D255F80
:103D10002251D8A0223D265F2351D8A0233D275F02
:103D2000D8800036013602360336282FD6D7010E4A
:103D3000EA6E240EE96E0001000CE9500101146FD7
:103D40001351166F1BE012C11FF111C11EF110C1FA
:103D50001DF10FC11CF1236B226B200E216F820E0F
:103D6000206F00010DDF03C012F102C011F101C08C
:103D700010F100C00FF10101162FE5D712C11FF19C
:103D800011C11EF110C11DF10FC11CF1000173D74B
:103D900003C012F102C011F101C010F100C00FF117
:103DA000010112AF0DD01407148B0F1F101F111F2C
:103DB000121F0F2BD8B4102BD8B4112BD8B4122B40
:103DC0003B0E1B6F9A0E1A6FCA0E196F186B0A0EF4
:103DD000166F1351D8B4142B12C11FF111C11EF16B
:103DE00010C11DF10FC11CF11BC123F11AC122F139
:103DF00019C121F118C120F100015FDF0150EFCF9F
:103E00000FF1ECCF10F1ECCF11F1ECCF12F1005229
:103E100013E101011329165DD8A402D000010CD0D2
:103E200014510DE00F0B165D01E044E214BF42D0C7
:103E300014BD05D0200E37D0200E0101141714AB8D
:103E40000FD0149B1351D8A414070050146F2D0EDB
:103E50001C6F000178EC06F001011451006E146B28
:103E60001351165D0DE10050146F2E0E1C6F0001F2
:103E700078EC06F001011451006E200E1417000EAC
:103E8000300E14AB10D0149B1351D8A4140700505B
:103E9000146F2D0E1C6F000178EC06F00101145117
:103EA000006E146B300E002600C01CF1000178EC8F
:103EB00006F001011BC11FF11AC11EF119C11DF14C
:103EC00018C11CF1236B226B216B0A0E206F0001BD
:103ED000F4DE03C01BF102C01AF101C019F100C0E9
:103EE00018F10101162F78D70001000C01011835D7
:103EF000006E0036FC0E001600C001F0C250C30B6D
:103F00000010C26E0A0E226F0001A3EC05F0C282FF
:103F1000C2B2FED7C4CF1EF1C3CF1DF10001D7EC52
:103F200006F003C01CF102C01BF101C01AF100C071
:103F300019F119C100F01AC101F01BC102F01CC136
:103F400003F0000C8E0E006E01010751005E08C1E7
:103F500002F009C101F0028E005209E0D89002522D
:103F600002E1015204E002320132002EF7D708AF1D
:103F700005D0011E021E012AD8B4022A0001000C3D
:103F8000010E01011D6F1E6F00013FEC06F01E0EB9
:103F9000F66E040EF76E88EC0EF0010E01011D6F37
:103FA000020E1E6F00013FEC06F0340EF66E040E9A
:103FB000F76E080E01010F6F000199EC0EF0010E73
:103FC000E96E71C012F170C011F16FC010F16EC0D6
:103FD0000FF10101136F0001B0DE410EF66E040E09
:103FE000F76E080E01010F6F000199EC0EF0010E43
:103FF00001011D6F030E1E6F00013FEC06F0010171
:10400000186B000173DF00C007F101C008F102C0A6
:1040100009F103C00AF15A0E01011C6F000178EC8E
:1040200006F0460E01011C6F000178EC06F03D0E13
:1040300001011C6F000178EC06F0010EE96E52C020
:1040400012F151C011F150C010F14FC00FF1010138
:10405000136B000172DE520EF66E040EF76E050E43
:1040600001010F6F000199EC0EF0010EE96E0AC11B
:1040700012F109C111F108C110F107C10FF10101DD
:10408000136B00015ADE010E01011D6F040E1E6F3D
:1040900000013FEC06F05E0EF66E040EF76E0C0E9D
:1040A00001010F6F000199EC0EF0010EE96E99C04D
:1040B00012F198C011F197C010F196C00FF10101F3
:1040C000136B00013ADE968284B206D1140E010110
:1040D000226F0001A3EC05F0968284B2FCD041BAB5
:1040E000FAD0010E1C6E436A020E1F6E216E0B0E7B
:1040F0001E6E020E0101076FFA0E226F0001A3EC83
:1041000005F00101072FF8D70C0E1C6F000178ECA9
:1041100006F00101186B0001E9DEEACF08F1E9CFF2
:1041200007F1D88252C01DF151C01CF150C01BF1E3
:104130004FC01AF103C021F102C020F101C01FF1EC
:1041400000C01EF1A1EC07F008C1EAFF07C1E9FFBA
:1041500003C099F002C098F001C097F000C096F03B
:1041600001010E6B0D6B0C6B0B6B99C012F198C0BB
:1041700011F197C010F196C00FF1000140EC0BF067
:1041800001E21EE10A0E306EAA6A320EA96E30C03C
:10419000A8FFA69CA69EA684F250006EF29E0F0178
:1041A000550EA76EAA0EA76EA682A6B2FED7A6943B
:1041B0000050F212140E0101226F0001A3EC05F071
:1041C00099C00EF198C00DF197C00CF196C00BF19B
:1041D0000101126B116B106B0F6B000140EC0BF0C7
:1041E0001EE3140E306EAA6A320EA96E30C0A8FF0C
:1041F000A69CA69EA684F250006EF29E0F01550E5C
:10420000A76EAA0EA76EA682A6B2FED7A6940050ED
:10421000F212140E0101226F0001A3EC05F096C00A
:1042200000F097C001F098C002F099C003F0019E21
:1042300099C099F098C098F001C097F096C096F098
:1042400099C00AF198C009F197C008F196C007F12A
:1042500079DE02C05BF001C05AF05AC007F1AA6AC9
:104260003C0EA96E07C1A8FFA69CA69EA684F2508C
:10427000006EF29E0F01550EA76EAA0EA76EA682C3
:10428000A6B2FED7A6940050F212140E0101226FBE
:104290000001A3EC05F05BC007F1AA6A3D0EA96E10
:1042A00007C1A8FFA69CA69EA684F250006EF29EAF
:1042B0000F01550EA76EAA0EA76EA682A6B2FED754
:1042C000A6940050F212140E0101226F0001A3EC1B
:1042D00005F042EC15F001D0419A968484B424D0C4
:1042E000140E0101226F0001A3EC05F0968484B442
:1042F0001AD041BE18D0010E1C6E436A020E1F6E0A
:10430000216E0B0E1E6E020E0101076FFA0E226F58
:104310000001A3EC05F00101072FF8D70C0E1C6F6C
:10432000000178EC06F001D0419E12EF2DF0010E55
:1043300001011D6F1E6F00013FEC06F00101186BBB
:104340000001D4DD00C007F101C008F102C009F18D
:1043500003C00AF1700EF66E040EF76E0A0E01012C
:104360000F6F000199EC0EF0010EE96E0AC112F117
:1043700009C111F108C110F107C10FF10101136B5F
:104380000001DBDC200E01011C6F000178EC06F05F
:10439000200E01011C6F000178EC06F0010E0101F6
:1043A0001D6F020E1E6F00013FEC06F05DC01EF196
:1043B0005CC01DF1D7EC06F000C007F101C008F1A8
:1043C00002C009F103C00AF103C01FF102C01EF1CF
:1043D00001C01DF100C01CF10101236B226B7F0E97
:1043E000216F860E206F0001F2EC06F001011F6BB9
:1043F0001E6B480E1D6F850E1C6F03C023F102C09B
:1044000022F101C021F100C020F10001C0EC1DF03B
:1044100000C007F101C008F102C009F103C00AF1B0
:10442000010E0101186F000161DD00C00BF101C038
:104430000CF102C00DF103C00EF1820EF66E040EF7
:10444000F76E050E01010F6F000199EC0EF0010EE1
:10445000E96E0AC112F109C111F108C110F107C1D9
:104460000FF10101136B000168DC250E01011C6FC7
:10447000000178EC06F08E0EF66E040EF76E040E58
:1044800001010F6F000199EC0EF0010EE96E0EC1F3
:1044900012F10DC111F10CC110F10BC10FF10101AD
:1044A000136B00014ADC200E01011C6F000178EC47
:1044B00006F0010E01011D6F030E1E6F00013FEC9F
:1044C00006F0020E0101186F000110DD00C007F1B7
:1044D00001C008F102C009F103C00AF103C01FF1D5
:1044E00002C01EF101C01DF100C01CF10101236BCF
:1044F000C00E226F7F0E216F880E206F0001F2EC3C
:1045000006F001011F6B1E6B480E1D6F850E1C6FA0
:1045100003C023F102C022F101C021F100C020F14B
:104520000001C0EC1DF000C007F101C008F102C09D
:1045300009F103C00AF19A0EF66E040EF76E040E2E
:1045400001010F6F000199EC0EF0010EE96E71C0D0
:1045500012F170C011F16FC010F16EC00FF10101C6
:10456000136F00019DEC1EF0A30EF66E040EF76EA5
:104570000A0E01010F6F000199EC0EF0010EE96EB9
:104580000AC112F109C111F108C110F107C10FF1FF
:104590000101136B00019DEC1EF0010E01011D6F66
:1045A000040E1E6F00013FEC06F0B40EF66E040E12
:1045B000F76E090E01010F6F000199EC0EF0010E6C
:1045C000E96E9DC012F19CC011F19BC010F19AC020
:1045D0000FF10101136F00019DEC1EF0200E01018F
:1045E0001C6F000178EC06F001010E6B0D6B700E74
:1045F0000C6F830E0B6F9DC012F19CC011F19BC01C
:1046000010F19AC00FF1000140EC0BF004E39D6B38
:104610009C6B9B6B9A6B9DC00EF19CC00DF19BC077
:104620000CF19AC00BF10101126B116B106B0F6B47
:10463000000140EC0BF004E39D6B9C6B9B6B9A6B51
:10464000928A80BA26D0320E0101226F0001A3ECBB
:1046500005F0928A80BA1DD0D8929DC01DF19CC0F1
:104660001CF19BC01BF19AC01AF1CD0E0101216F04
:10467000CC0E206F4C0E1F6F7B0E1E6F0001A1EC45
:1046800007F003C09DF002C09CF001C09BF000C089
:104690009AF0968084B026D0320E0101226F00017C
:1046A000A3EC05F0968084B01DD0D8829DC01DF18A
:1046B0009CC01CF19BC01BF19AC01AF1CD0E0101E8
:1046C000216FCC0E206F4C0E1F6F7B0E1E6F0001F2
:1046D000A1EC07F003C09DF002C09CF001C09BF06C
:1046E00000C09AF0968484B4B6D0140E0101226FF3
:1046F0000001A3EC05F0968484B4ACD041BAAAD0F2
:10470000010E1C6E436A020E1F6E216E0B0E1E6E92
:104710001E0E0101226F0001A3EC05F00C0E010139
:104720001C6F000178EC06F09DC089F09CC088F0F9
:104730009BC087F09AC086F09DC00AF19CC009F129
:104740009BC008F19AC007F1A2EC1FF001C028F04D
:1047500001011E6B28C01DF10001D7EC06F0D882C4
:1047600089C01DF188C01CF187C01BF186C01AF1F9
:1047700003C021F102C020F101C01FF100C01EF1F1
:10478000A1EC07F003C089F002C088F001C087F0F7
:1047900000C086F089C01FF188C01EF187C01DF1DE
:1047A00086C01CF10101236B226B200E216F820E4B
:1047B000206F0001C0EC1DF003C08DF002C08CF032
:1047C00001C08BF000C08AF08DC00AF18CC009F1E5
:1047D0008BC008F18AC007F1A2EC1FF001C029F0DC
:1047E000AA6A190EA96E28C0A8FFA69CA69EA68438
:1047F000F250006EF29E0F01550EA76EAA0EA76E24
:10480000A682A6B2FED7A6940050F212140E0101A1
:10481000226F0001A3EC05F0AA6A1A0EA96E29C046
:10482000A8FFA69CA69EA684F250006EF29E0F01E1
:10483000550EA76EAA0EA76EA682A6B2FED7A694A4
:104840000050F212140E0101226F0001A3EC05F0DA
:1048500042EC15F001D0419A17EF2DF001010853F9
:1048600003E107515F0804E20A6B570E096F07D096
:10487000FF0ED8800755096F030E08550A6F0AC14D
:1048800002F009C101F00232013202320132023279
:1048900001C0BEFF02320230300B006EBD50CF0BA4
:1048A0000010BD6E0001000C010E01011D6F020E13
:1048B0001E6F00013FEC06F0C20EF66E070EF76E9B
:1048C00088EC0EF05D5206E15C503B0803E35D6A44
:1048D0003C0E5C6E5D5203E15C50600803E25D6A71
:1048E000600E5C6E5DC01EF15CC01DF1D7EC06F081
:1048F00003C01BF002C01AF001C019F000C018F08C
:104900001BC00AF11AC009F119C008F118C007F15B
:10491000A2EC1FF001C017F05D5236E15C505F0859
:1049200033E3010E01011D6F030E1E6F00013FEC0A
:1049300006F0D80EF66E070EF76E080E01010F6F27
:10494000000199EC0EF0890EE96E1BC012F11AC03D
:1049500011F119C010F118C00FF1010E0101136F10
:1049600000019DEC1EF0250E01011C6F000178EC8A
:1049700006F0E70EF66E070EF76E080E01010F6FD8
:10498000000199EC0EF022D0010E01011D6F030E03
:104990001E6F00013FEC06F0F00EF66E070EF76E8C
:1049A0000D0E01010F6F000199EC0EF0250E0101B3
:1049B0001C6F000178EC06F0FF0EF66E070EF76E26
:1049C000080E01010F6F000199EC0EF0928A80BA77
:1049D00018D0140E0101226F0001A3EC05F0928A99
:1049E00080BA0FD0010E5C26000E5D221E0E010162
:1049F000226F0001A3EC05F05DC008F15CC007F177
:104A00002DDF968084B018D0140E0101226F0001B2
:104A1000A3EC05F0968084B00FD0010E5C5E000E12
:104A20005D5A1E0E0101226F0001A3EC05F05DC06E
:104A300008F15CC007F112DF968484B475D0140EBF
:104A40000101226F0001A3EC05F0968484B46CD0C0
:104A50005DC008F15CC007F101DFAA6A0D0EA96E06
:104A60005CC0A8FFA69CA69EA684F250006EF29E93
:104A70000F01550EA76EAA0EA76EA682A6B2FED78C
:104A8000A6940050F212020E0101076FFA0E226F77
:104A90000001A3EC05F00101072FF8D7010E1D6FEF
:104AA000020E1E6F00013FEC06F0020E0101076FBF
:104AB000FA0E226F0001A3EC05F00101072FF8D7D1
:104AC0000C0E1C6F000178EC06F0010E01011D6F49
:104AD000020E1E6F00013FEC06F0080EF66E080E87
:104AE000F76E88EC0EF0010E01011D6F030E1E6FB4
:104AF00000013FEC06F01E0EF66E080EF76E88EC15
:104B00000EF0010E1C6E436A020E1F6E216E0B0E1C
:104B10001E6E020E0101076FFA0E226F0001A3EC58
:104B200005F00101072FF8D700011CEF2DF001015E
:104B30000B6B0A6B096B086B0F6B0E6B0D6B0C6BC1
:104B4000136B126B116B106B176B166B156B146B71
:104B5000186B000176EC1FF003C00BF102C00AF1E4
:104B600001C009F100C008F101011F6B1E6B200E8E
:104B70001D6F810E1C6F0BC123F10AC122F109C107
:104B800021F108C120F10001C0EC1DF000C018F1B6
:104B900001C019F102C01AF103C01BF103C01FF1DB
:104BA00002C01EF101C01DF100C01CF10101236B08
:104BB000C00E226F7F0E216F880E206F0001F2EC75
:104BC00006F003C00FF102C00EF101C00DF100C0EC
:104BD0000CF10FC11FF10EC11EF10DC11DF10CC171
:104BE0001CF10A0E0101236FD70E226F230E216FD5
:104BF000780E206F0001F2EC06F003C013F102C042
:104C000012F101C011F100C010F12C500101075D3B
:104C100001E22C6A2C50040DF350036AD60FE96EA2
:104C2000000E0320EA6E10C1EFFF11C1ECFF12C1AC
:104C3000ECFF13C1ECFF2C2A176B166B156B146B72
:104C40002E6A010E075D2E5C01E038E22E50040D45
:104C5000F350036AD60FE96E000E0320EA6EEFCF21
:104C600000F0ECCF01F0ECCF02F0ECCF03F0EACF94
:104C700019F1E9CF18F1D89217C11DF116C11CF135
:104C800015C11BF114C11AF103C021F102C020F1BA
:104C900001C01FF100C01EF10001A1EC07F019C115
:104CA000EAFF18C1E9FF03C017F102C016F101C005
:104CB00015F100C014F12E2A0101C3D71E6B07C1E4
:104CC0001DF10001D7EC06F017C11FF116C11EF14E
:104CD00015C11DF114C11CF103C023F102C022F162
:104CE00001C021F100C020F1F2EC06F0000C81AA15
:104CF0000ED0640E0101226F0001A3EC05F005EC5B
:104D000006F0640E0101226F0001A3EC05F08A9AFF
:104D1000939A000C81BA0ED0640E0101226F00013B
:104D2000A3EC05F005EC06F0640E0101226F000112
:104D3000A3EC05F08A8A939A000C010E01011D6F05
:104D40001E6F00013FEC06F02A0EF66E060EF76E9F
:104D500088EC0EF0010E01011D6F020E1E6F0001A6
:104D60003FEC06F0400EF66E060EF76E88EC0EF085
:104D7000010E01011D6F030E1E6F00013FEC06F0D6
:104D8000560EF66E060EF76E060E01010F6F00014D
:104D900099EC0EF03EC00EF1010E01010F6F000103
:104DA000C4EC0EF03A0E01011C6F000178EC06F025
:104DB0003CC00EF1010E01010F6F0001C4EC0EF0BA
:104DC000200E01011C6F000178EC06F0200E01019D
:104DD0001C6F000178EC06F08A8A939A42AAB7D039
:104DE0008A989398020E0101186F000176EC1FF06B
:104DF00000C007F101C008F102C009F103C00AF1C7
:104E000003C00EF102C00DF101C00CF100C00BF1A6
:104E10000101126B116B400E106F810E0F6F0001BC
:104E200040EC0BF0D8A092D03C52D8A48FD03E5288
:104E3000D8A48CD0AA6A460EA96E36C0A8FFA69C3C
:104E4000A69EA684F250006EF29E0F01550EA76E2C
:104E5000AA0EA76EA682A6B2FED7A6940050F212A2
:104E6000140E0101226F0001A3EC05F0AA6A470E9F
:104E7000A96E37C0A8FFA69CA69EA684F250006E1D
:104E8000F29E0F01550EA76EAA0EA76EA682A6B2BD
:104E9000FED7A6940050F212140E0101226F0001F9
:104EA000A3EC05F0AA6A480EA96E38C0A8FFA69C1C
:104EB000A69EA684F250006EF29E0F01550EA76EBC
:104EC000AA0EA76EA682A6B2FED7A6940050F21232
:104ED000140E0101226F0001A3EC05F00C0E01017C
:104EE0001C6F000178EC06F0010E01011D6F020E2F
:104EF0001E6F00013FEC06F0680EF66E060EF76EB0
:104F000088EC0EF0010E01011D6F030E1E6F0001F3
:104F10003FEC06F07C0EF66E060EF76E88EC0EF097
:104F2000080E0101076FFA0E226F0001A3EC05F0D5
:104F30000101072FF8D70C0E1C6F000178EC06F06A
:104F40005DC008F15CC007F189DCFF00429A00EF08
:104F50002FF0010E01011D6F1E6F00013FEC06F0E6
:104F6000900EF66E060EF76E88EC0EF0010E010143
:104F70001D6F020E1E6F00013FEC06F0A60EF66ECE
:104F8000060EF76E88EC0EF0010E01011D6F030E88
:104F90001E6F00013FEC06F0BC0EF66E060EF76EBB
:104FA00088EC0EF0010E01011D6F040E1E6F000152
:104FB0003FEC06F0D20EF66E060EF76E88EC0EF0A1
:104FC000968284B21CD0140E0101226F0001A3EC62
:104FD00005F0968284B212D041BA10D0418A1E0EDA
:104FE0001C6E24C007F1C1EC05F08A9E939E0C0E46
:104FF00001011C6F000178EC06F0538801D0419A42
:10500000968484B425D0140E0101226F0001A3EC14
:1050100005F0968484B41BD041BE19D0418E140E85
:105020001C6E436A020E1F6E216E0B0E1E6E020E68
:105030000101076FFA0E226F0001A3EC05F00101D8
:10504000072FF8D70C0E1C6F000178EC06F001D08A
:10505000419E05EF2FF030500A0832E1010E0101A8
:10506000186F000176EC1FF000C008F101C009F1D3
:1050700002C00AF103C00BF1EACF0DF1E9CF0CF148
:10508000D89203C01DF102C01CF101C01BF100C089
:105090001AF199C021F198C020F197C01FF196C074
:1050A0001EF1A1EC07F00DC1EAFF0CC1E9FF03C03E
:1050B0007DF002C07CF001C07BF000C07AF034D0FB
:1050C0003050140831E1010E0101186F000176EC37
:1050D0001FF000C008F101C009F102C00AF103C0CD
:1050E0000BF1EACF0DF1E9CF0CF1D88203C01DF12D
:1050F00002C01CF101C01BF100C01AF199C021F1DE
:1051000098C020F197C01FF196C01EF1A1EC07F0E6
:105110000DC1EAFF0CC1E9FF03C07DF002C07CF0C5
:1051200001C07BF000C07AF07DC01FF17CC01EF191
:105130007BC01DF17AC01CF17DC023F17CC022F13F
:105140007BC021F17AC020F1C0EC1DF003C081F0DA
:1051500002C080F001C07FF000C07EF07DC01FF172
:105160007CC01EF17BC01DF17AC01CF181C023F10F
:1051700080C022F17FC021F17EC020F1C0EC1DF083
:1051800003C085F002C084F001C083F000C082F04B
:1051900085C01FF184C01EF183C01DF182C01CF1C7
:1051A00061C023F160C022F15FC021F15EC020F137
:1051B000C0EC1DF000C008F101C009F102C00AF105
:1051C00003C00BF181C01FF180C01EF17FC01DF133
:1051D0007EC01CF165C023F164C022F163C021F1DF
:1051E00062C020F1C0EC1DF0D8920BC11DF10AC1C4
:1051F0001CF109C11BF108C11AF103C021F102C061
:1052000020F101C01FF100C01EF1A1EC07F000C0A9
:1052100008F101C009F102C00AF103C00BF17DC021
:105220001FF17CC01EF17BC01DF17AC01CF169C06A
:1052300023F168C022F167C021F166C020F1C0EC03
:105240001DF0D8920BC11DF10AC11CF109C11BF15F
:1052500008C11AF103C021F102C020F101C01FF101
:1052600000C01EF1A1EC07F000C008F101C009F177
:1052700002C00AF103C00BF1D89203C01DF102C0B5
:105280001CF101C01BF100C01AF16DC021F16CC00E
:1052900020F16BC01FF16AC01EF1A1EC07F003C042
:1052A00091F002C090F001C08FF000C08EF0D88263
:1052B00091C01DF190C01CF18FC01BF18EC01AF17E
:1052C0000A0E0101216FD70E206F230E1F6F7B0E78
:1052D0001E6F0001A1EC07F003C091F002C090F036
:1052E00001C08FF000C08EF091C00EF190C00DF1A2
:1052F0008FC00CF18EC00BF10101126B116B106BA2
:105300000F6B000140EC0BF004E3916B906B8F6B23
:105310008E6B010107512B5C01E32B6A2B50040DAE
:10532000F350036AA60FE96E000E0320EA6E8EC0EA
:10533000EFFF8FC0ECFF90C0ECFF91C0ECFF2B2A79
:10534000756A746A736A726A2D6A010E075D2D5C54
:1053500001E038E22D50040DF350036AA60FE96E08
:10536000000E0320EA6EEFCF00F0ECCF01F0ECCF9F
:1053700002F0ECCF03F0EACF09F1E9CF08F1D892BF
:1053800075C01DF174C01CF173C01BF172C01AF11D
:1053900003C021F102C020F101C01FF100C01EF1C5
:1053A0000001A1EC07F009C1EAFF08C1E9FF03C051
:1053B00075F002C074F001C073F000C072F02D2AC5
:1053C0000101C3D71E6B07C11DF10001D7EC06F028
:1053D00075C01FF174C01EF173C01DF172C01CF1C5
:1053E00003C023F102C022F101C021F100C020F16D
:1053F000F2EC06F000C008F101C009F102C00AF1A8
:1054000003C00BF103C01FF102C01EF101C01DF16A
:1054100000C01CF19DC023F19CC022F19BC021F172
:105420009AC020F1C0EC1DF003C075F002C074F00A
:1054300001C073F000C072F072C000F073C001F0E0
:1054400074C002F075C003F0000C42AC56D0010EDF
:1054500001011D6F1E6F00013FEC06F0E80EF66EB5
:10546000060EF76E88EC0EF0010E01011D6F020EA4
:105470001E6F00013FEC06F0FE0EF66E060EF76E94
:1054800088EC0EF0010E01011D6F030E1E6F00016E
:105490003FEC06F0140EF66E070EF76E060E0101D5
:1054A0000F6F000199EC0EF026C00EF1010E010104
:1054B0000F6F0001C4EC0EF03A0E01011C6F0001E9
:1054C00078EC06F03AC00EF1010E01010F6F0001F9
:1054D000C4EC0EF0200E01011C6F000178EC06F008
:1054E000200E01011C6F000178EC06F0200E010176
:1054F0001C6F000178EC06F0429C0CDC968484B4AE
:1055000014D0040E0101076FFA0E226F0001A3EC04
:1055100005F00101072FF8D7968484B407D053967D
:1055200000018AEC26F0140E1C6E01015DC008F12A
:105530005CC007F100012EEC24F08A98939842AAEF
:105540000BD02FC007F187DD03C071F002C070F0EF
:1055500001C06FF000C06EF00AEF2FF0F86AD09E25
:10556000078EEA6AE96A176A1B6A1A6A196A186A70
:10557000640E1C6E020E1D6E0B0E1E6E020E1F6E52
:10558000030E206E020E216E226E040E236E0A0E92
:10559000246E010E256E266A276A286A296A2A6AFD
:1055A0002B6A2C6A2D6A2E6A2F6A0A0E306E316EB3
:1055B000326E336E346A010E356E366A376A386A77
:1055C000396A3A6A3B6A3C6A3D6A3E6A3F6A406AA7
:1055D00041904192419441964198419A419C419E0B
:1055E00042904292429442964298436A526A516A69
:1055F0004B0E506E860E4F6E429A429C429E5390C6
:105600005392539453965398556A546A576A566AFC
:10561000596A586A5B6A5A6A5D6A0A0E5C6E190EAC
:10562000616E530E606E180E5F6E680E5E6EE90E50
:10563000656EBD0E646EC60E636E710E626EBE0E3A
:10564000696E960E686E240E676E7A0E666EF30EA5
:105650006D6E5A0E6C6EAB0E6B6E810E6A6E716A59
:10566000706A6F6A6E6A756A746A736A726A796A56
:10567000786A776A766A7D6A7C6A7B6A7A6A816B05
:10568000806B7F6A7E6A856B846B836B826B896BB0
:10569000886B876B866B8D6B8C6B8B6B8A6B916B5E
:1056A000906B8F6B8E6B956B946B936B926B996B0E
:1056B000986B976B966B9D6B9C6B9B6B7F0E9A6F39
:1056C000A16BA06B9F6B9E6BA56BA46BA36BA26B76
:1056D000080E0101066FC150C00B0F09C16E070E05
:1056E000B46E3E0E446E200E456E5E0E466E476AE8
:1056F000486A496A4A6A4B6A4C6A4D6A4E6A0001B6
:10570000A66BA76BA86BA96BAA6BAB6BAC6BAD6BF5
:10571000AE6BAF6BB06BB16BB26BB36BB46BB56BA5
:10572000B66BB76BB86BB96BBA6BBB6BBC6BBD6B55
:10573000BE6BBF6BC06BC16BC26BC36BC46BC56B05
:10574000C66BC76BC86BC96BCA6BCB6BCC6BCD6BB5
:10575000CE6BCF6BD06BD16BD26BD36BD46BD56B65
:10576000D66BD76BD86BD96BDA6BDB6BDC6BDD6B15
:10577000DE6BDF6BE06BE16BE26BE36BE46BE56BC5
:10578000E66BE76BE86BE96BEA6BEB6BEC6BED6B75
:10579000EE6BEF6BF06BF16BF26BF36BF46BF56B25
:1057A000F66BF76BF86BF96BFA6BFB6BFC6BFD6BD5
:1057B000FE6BFF6B0101006B016B026B036B046BF3
:1057C000056B040E076FFA0E226F0001A3EC05F0C3
:1057D0000101072FF8D70001AFEF06F0C80E1C6ECD
:1057E000B7EC05F05D5206E15C50810803E35D6AA9
:1057F000820E5C6E5D5203E15C50CC0803E25D6A90
:10580000CC0E5C6E1C50C808D8A47BD0B7EC05F059
:10581000968284B275D0040E0101076FFA0E226FD2
:105820000001A3EC05F00101072FF8D7968284B29E
:1058300066D00001DDEF08F07DEF0BF005EC06F01F
:10584000010E0101076F0001C1EC05F0010E01011D
:105850001D6F1E6F00013FEC06F0480EF66E0A0E3B
:10586000F76E88EC0EF0010E01011D6F020E1E6F27
:1058700000013FEC06F05E0EF66E0A0EF76E88EC45
:105880000EF0010E01011D6F030E1E6F00013FECB3
:1058900006F0740EF66E0A0EF76E88EC0EF0010E2E
:1058A00001011D6F040E1E6F00013FEC06F08A0E11
:1058B000F66E0A0EF76E88EC0EF0080E0101076F07
:1058C000FA0E226F0001A3EC05F00101072FF8D7B3
:1058D0000C0E1C6F000178EC06F01C6A0C0E010126
:1058E0001C6F000178EC06F0020E0101076FFA0E42
:1058F000226F0001A3EC05F00101072FF8D700018A
:1059000081D71C522DE14280B7EC05F042A207D0AE
:105910000C0E01011C6F000178EC06F0FF00010184
:10592000076B086B320E096F4BC00AF14CC00BF1CC
:105930004DC00CF14EC00DF1000105EC0FF0012C33
:105940000ED00C0E01011C6F000178EC06F04290A5
:1059500042925386576A566A428E8A8C939CD1D75C
:105960001C2C02D0D8EF11F01C50020802E118EFF5
:1059700013F01C50030802E1C1EF13F01C5004089F
:1059800002E190EF15F01C50050812E1050E01012F
:10599000076F010E086F330E096F4BC00AF14CC040
:1059A0000BF14DC00CF14EC00DF1000105EC0FF0F4
:1059B0001C50330802E1B7EF16F01C50060802E154
:1059C000BFEF18F01C50070802E12FEF1AF01C502F
:1059D000080819E1080E0101076F010E086F470E54
:1059E000096F040E0A6F0B6F0C6F0D6F000105EC51
:1059F0000FF0015204E11C50080801E1EBD7476A9F
:105A0000486A496A4A6A1C50470802E19CEF1BF049
:105A10001C50090802E103EF1DF01C500A0802E1C6
:105A2000C0EF1FF01C500B0802E197EF21F01C5053
:105A30000C0802E154EF24F01C501408D8A4DBD168
:105A400042ACCDD0010E01011D6F1E6F00013FEC75
:105A500006F0A00EF66E0A0EF76E88EC0EF0010E40
:105A600001011D6F020E1E6F00013FEC06F05DC0CC
:105A70001EF15CC01DF1D7EC06F003C01BF002C0A4
:105A80001AF001C019F000C018F05D5228E15C5016
:105A90005F0825E31BC00AF11AC009F119C008F11B
:105AA00018C007F1A2EC1FF001C007F1A80EF66EB6
:105AB0000A0EF76E040E01010F6F000199EC0EF053
:105AC00007C108F1030E0101096F000142EC16F055
:105AD000250E01011C6F000178EC06F01AD0B40EFF
