:040000009EEF2DF052
:08000800046ED8CF05F0E0CF33
:1000100006F00001E9CF0CF0EACF07F0E1CF08F0DD
:10002000E2CF09F0D9CF0AF0DACF0BF0F3CF12F01C
:10003000F4CF13F0FACF14F000C00EF001C00FF0AF
:1000400002C010F003C011F0F2A82AEF00F0F2B2E3
:10005000CAEF09F00EC000F00FC001F010C002F0AE
:1000600011C003F00CC0E9FF07C0EAFF078E08C00B
:10007000E1FF09C0E2FF0AC0D9FF0BC0DAFF12C0DE
:10008000F3FF13C0F4FF14C0FAFF045006C0E0FFF2
:1000900005C0D8FF1000F2CF0DF0F29EF76AB00F46
:1000A000F66E000EF7220900F5500DBEF28E12001A
:1000B000000000000000005F0000000300030014C7
:1000C0003E143E14242A7F2A1243330866613649BF
:1000D0005522500005030000001C2241000041226F
:1000E0001C0014083E081408083E080800503000A0
:1000F00000080808080800606000002010080402DA
:100100003E5149453E0004027F004261514946226A
:10011000414949361814127F1027454545393E4953
:100120004949320101710907364949493626494989
:10013000493E0036360000005636000008142241C1
:100140000014141414140041221408020151090669
:100150003E4159555E7E0909097E7F494949363E2F
:10016000414141227F4141413E7F494949417F0907
:100170000909013E4141493A7F0808087F00417F53
:100180004100304040403F7F081422417F404040C2
:10019000407F020C027F7F0204087F3E4141413EC6
:1001A0007F090909061E2121215E7F0909097600C0
:1001B000F2CF0DF0F29EF76ACA0FF66E010EF7222B
:1001C0000900F5500DBEF28E120026494949320150
:1001D000017F01013F4040403F1F2040201F7F2002
:1001E00010207F41221C22410708700807615149F5
:1001F0004543007F41000002040810200000417FB9
:10020000000402010204404040404000010204009A
:1002100020545454787F4444443838444444443847
:100220004444447F385454541804047E050508544B
:1002300054543C7F0804047800447D40002040442E
:100240003D007F1028440000417F40007C0478047A
:10025000787C0804047838444444387C1414140826
:10026000081414147C007C080404485454542004DA
:10027000043F44443C4040207C1C2040201C3C4027
:1002800030403C44281028440C5050503C446454A6
:100290004C44000836414100007F000041413608CF
:1002A000000201020402F2CF0DF0F29EBE0FF66EC4
:1002B000020EF7220900F5500DBEF28E120000006A
:1002C000000000000000000000000000000000002E
:1002D000000000000000000000000000000000001E
:1002E000000000000000000000000000000000000E
:1002F00000000000000000000000000000000000FE
:1003000000000000000000000000000000000000ED
:1003100000000000000000000000000000000000DD
:1003200000000000000000000000000000000000CD
:1003300000000000000000000000000000000000BD
:1003400000000000000000000000000000000000AD
:10035000000000000000000000000000000000009D
:10036000000000000000000000000000000000008D
:10037000000000000000000000000000000000007D
:10038000000000000000000000000000000000006D
:10039000000000000000000000000000000000005D
:1003A000000000000000000000000000000000004D
:1003B00000000000000000000000000800800000B5
:1003C0000000000000000000000000040100000028
:1003D0000000000000000000000000020200000019
:1003E0000000000000000000000000007800000095
:1003F0000000000000000000000000008400000079
:1004000000000000000000000000000102000000E9
:100410000000000000000000000000F902F80000E9
:1004200000000000000000000000000102000000C9
:1004300000000000000000000000000102000000B9
:1004400000000000000000000000000484800000A4
:1004500000000000000000000000000878400000DC
:100460000000000000000000000000104820000014
:100470000000000000000000000000204810000004
:1004800000000000000000000000000078000000F4
:10049000000000000000000000000000000000005C
:1004A000000000000000000000000000000000004C
:1004B000000000000000000000000000000000003C
:1004C000000000000000000000000000000000002C
:1006B0000000000000000000000000000000F2CF79
:1006C0000DF0F29ED60FF66E060EF7220900F550D9
:1006D0000DBEF28E120000000000000000000000BD
:1006E000000000000000000000000000000000000A
:1006F00000000000000000000000000000000000FA
:1007000000000000000000000000000000000000E9
:1007100000000000000000000000000000000000D9
:1007200000000000000000000000000000000000C9
:1007300000000000000000000000000000000000B9
:1007400000000000000000000000000000000000A9
:100750000000000000000000000000000000000099
:100760000000000000000000000000000000000089
:100770000000000000000000000000000000000079
:100780000000000000000000000000000000000069
:100790000000000000000000000000000000000059
:1007A0000000000000000000000000000000000049
:1007B0000000000000000000000000000000000039
:1007C0000000000000000000000000000000000029
:1007D0000000000000000000000000000000000019
:1007E0000000000000000000000000000000000009
:1007F00000000000000000000000000000000000F9
:1008000000000000000000000000000000000000E8
:1008100000000000000000000000000000000000D8
:1008200000000000000000000000000000000000C8
:1008300000000000000000000000000000000000B8
:1008400000000000000000000000000000000000A8
:100850000000000000000000000000000000000098
:100860000000000000000000000000000000000088
:100870000000000000000000000000000000000078
:100880000000000000000000000000000000000068
:100890000000000000000000000000000000000058
:1008A0000000000000000000000000000000000048
:1008B0000000000000000000000000000000000038
:1008C0000000007FFFF800000000000000000000B2
:1008D00000000040000800000000000000000000D0
:1008E0000000004703880000000000000000000036
:1008F0000000004502880000000000000000000029
:100900000000004502880000000000000000000018
:100910000000004502880000000000000000000008
:1009200000000045028800000000000000000000F8
:1009300000000047038800000000000000000000E5
:10094000000000400008000000000000000000005F
:1009500000000040FC080000000000000000000053
:1009600000000040840800000000000000000000BB
:1009700000000040840800000000000000000000AB
:1009800000000040FC080000000000000000000023
:10099000000000400008000000000000000000000F
:1009A0000000007FFFF800000000000000000000D1
:1009B0000000000000000000000000000000000037
:1009C0000000000000000000000000000000000027
:1009D0000000000000000000000000000000000017
:1009E0000000000000000000000000000000000007
:1009F00000000000000000000000000000000000F7
:100A000000000000000000000000000000000000E6
:100A100000000000000000000000000000000000D6
:100A200000000000000000000000000000000000C6
:100A300000000000000000000000000000000000B6
:100A400000000000000000000000000000000000A6
:100A50000000000000000000000000000000000096
:100A60000000000000000000000000000000000086
:100A70000000000000000000000000000000000076
:100A80000000000000000000000000000000000066
:100A90000000000000000000000000000000000056
:100AA0000000000000000000000000000000000046
:100AB0000000000000000000000000000000000036
:100AC0000000000000000000000000000000000026
:100AD000000000000000F2CF0DF0F29EEE0FF66E67
:100AE0000A0EF7220900F5500DBEF28E120000002A
:100AF00000000000000000000000000000000000F6
:100B000000000000000000000000000000000000E5
:100B100000000000000000000000000000000000D5
:100B200000000000000000000000000000000000C5
:100DD00000000000000000000000000060000000B3
:100DE000000000000000000000000000F000000013
:100DF000000000000000000000000001F8000000FA
:100E0000000000000000000000000001F8000000E9
:100E1000000000000000000000000001F8000000D9
:100E2000000000000000000000000000F0000000D2
:100E300000000000000000000000003871C0000049
:100E400000000000000000000000007C93E00000B3
:100E50000000000000000000000000FF0FF0000094
:100E60000000000000000000000000FF0FF0000084
:100E700000000000000000000000007D93E0000082
:100E800000000000000000000000003861C0000009
:100E9000000000000000000000000000F000000062
:100EA000000000000000000000000001F800000049
:100EB000000000000000000000000001F800000039
:100EC000000000000000000000000001F800000029
:100ED000000000000000000000000000F000000022
:100EE0000000000000000000000000006000F2CFE1
:100EF0000DF0F29EF76A080FF66E0F0EF72209004A
:100F0000F5500DBEF28E1200436C61766500F2CF93
:100F10000DF0F29EF76A280FF66E0F0EF722090009
:100F2000F5500DBEF28E1200436F727265637461EC
:100F30000000F2CF0DF0F29EF76A4C0FF66E0F0E26
:100F4000F7220900F5500DBEF28E1200496E636F54
:100F50007272656374610000F2CF0DF0F29EF76A61
:100F6000720FF66E0F0EF7220900F5500DBEF28ECD
:100F700012004A50434547483138302D4242000064
:100F8000F2CF0DF0F29EF76A9A0FF66E0F0EF7226F
:100F90000900F5500DBEF28E12004D656E75000011
:100FA000F2CF0DF0F29EF76ABA0FF66E0F0EF7222F
:100FB0000900F5500DBEF28E1200416A757374651A
:100FC0007300F2CF0DF0F29EF76ADC0FF66E0F0E93
:100FD000F7220900F5500DBEF28E120043616D62DA
:100FE000696F20646520436C61766500F2CF0DF077
:100FF000F29EF76A060FF66E100EF7220900F55002
:101000000DBEF28E12004D6F646F0000F2CF0DF036
:10101000F29EF76A260FF66E100EF7220900F550C1
:101020000DBEF28E12005469656D706F205075729E
:1010300067610000F2CF0DF0F29EF76A4E0FF66E78
:10104000100EF7220900F5500DBEF28E1200546901
:10105000656D706F20506F73742D507572676100ED
:10106000F2CF0DF0F29EF76A7A0FF66E100EF722AD
:101070000900F5500DBEF28E12004C757A205556BF
:101080000000F2CF0DF0F29EF76A9C0FF66E100E84
:10109000F7220900F5500DBEF28E12004D616E74FC
:1010A000656E696D69656E746F00F2CF0DF0F29E2A
:1010B000F76AC40FF66E100EF7220900F5500DBE48
:1010C000F28E1200536572766963696F0000F2CF89
:1010D0000DF0F29EF76AE80FF66E100EF722090087
:1010E000F5500DBEF28E12005556204F6666000078
:1010F000F2CF0DF0F29EF76A0A0FF66E110EF7228C
:101100000900F5500DBEF28E12005556204F6E00AC
:10111000F2CF0DF0F29EF76A2A0FF66E110EF7224B
:101120000900F5500DBEF28E1200542E205075723B
:1011300067610000F2CF0DF0F29EF76A4E0FF66E77
:10114000110EF7220900F5500DBEF28E1200542E3A
:1011500020506F73742D507572676100F2CF0DF0DF
:10116000F29EF76A760FF66E110EF7220900F5501F
:101170000DBEF28E1200436C617665204E75657669
:101180006100F2CF0DF0F29EF76A9C0FF66E110E21
:10119000F7220900F5500DBEF28E12004D616E74FB
:1011A000656E69656E746F00F2CF0DF0F29EF76A9E
:1011B000C20FF66E110EF7220900F5500DBEF28E29
:1011C000120054726162616A6F2046696C74726FBA
:1011D0002868293A0000F2CF0DF0F29EF76AF00F6E
:1011E000F66E110EF7220900F5500DBEF28E1200B8
:1011F00053656E736F7220646520466C756A6F006C
:10120000F2CF0DF0F29EF76A1A0FF66E120EF72269
:101210000900F5500DBEF28E120053656E736F72A9
:101220002064652050726573696F6E00F2CF0DF017
:10123000F29EF76A460FF66E120EF7220900F5507D
:101240000DBEF28E120056656C6F63696461642096
:1012500056656E74696C61646F720000F2CF0DF0B8
:10126000F29EF76A760FF66E120EF7220900F5501D
:101270000DBEF28E120020204170616761723F0046
:10128000F2CF0DF0F29EF76A9A0FF66E120EF72269
:101290000900F5500DBEF28E120053490000F2CF46
:1012A0000DF0F29EF76AB80FF66E120EF7220900E3
:1012B000F5500DBEF28E12004E4F0000F2CF0DF031
:1012C000F29EF76AD60FF66E120EF7220900F5505D
:1012D0000DBEF28E120053656C656363696F6E20FC
:1012E00056656C00F2CF0DF0F29EF76AFE0FF66EB7
:1012F000120EF7220900F5500DBEF28E120056654F
:101300006C6F636964616400F2CF0DF0F29EF76A5E
:10131000220FF66E130EF7220900F5500DBEF28E65
:10132000120047756172646164610000F2CF0DF0D4
:10133000F29EF76A460FF66E130EF7220900F5507B
:101340000DBEF28E12005469656D706F0000F2CF11
:101350000DF0F29EF76A680FF66E130EF722090081
:10136000F5500DBEF28E1200506F73742D507572D1
:1013700067610000030E06011A5F0AE3060EEA6EBB
:101380001A0EE96EEF5004E001D000D0EF2EFDD729
:101390000001000C0501C02BD8B4C12BC15303E1DF
:1013A000C05177084AE2C16BC06B04012C8D2E8FAF
:1013B000CE2B2CAF03D0E02BD8B4E12B2DBB02D029
:1013C0002FA51CD0E42BE4BF05D0E451090802E2AC
:1013D000E46BE52BE5BF05D0E551050802E2E56BBE
:1013E000E62BE6BF05D0E651090802E2E66BE72BE3
:1013F000E7BF04D0E751050801E2E76B2EA11CD03E
:10140000EC2BECBF05D0EC51090802E2EC6BED2BA4
:10141000EDBF05D0ED51050802E2ED6BEE2BEEBFFE
:1014200005D0EE51090802E2EE6BEF2BEFBF04D0BE
:10143000EF51050801E2EF6B0501C96BC86B0401B0
:101440002F830501CB51050820E3CB531CE0CA5183
:10145000630819E3C3C519F60601192B1907D8B497
:1014600006D0FF0E1A6F000185DF0601F7D7C2C54F
:101470001AF600017FDF8B849494A60E006E002E76
:10148000FED7000005018B949494F29200012AEF9C
:1014900000F0050EEA6EDD0EE96EEF500DE0060E6F
:1014A000016E006A002EFED7012EFBD77B0E006E68
:1014B000002EFED7EF2EF3D7000C0501D4510608FD
:1014C00004E1CA6B8B84949437D0D451050807E1AA
:1014D0000F0ECA6F070EC36FD00EC26F2DD0D4513E
:1014E000040807E1190ECA6F0B0EC36FB80EC26F66
:1014F00023D0D451030807E1230ECA6F0E0EC36F29
:10150000100EC26F19D0D451020807E12D0ECA6F18
:10151000100EC36FCC0EC26F0FD0D42D07D0320E79
:10152000CA6F130EC36F880EC26F06D0D45304E186
:10153000640ECA6F8B9494940001000C0501E35370
:1015400003E093968A8602D093948A84939C8A9C23
:10155000956AE4C58CFF0000939E8A8E00D000D06F
:101560000000939E8A9E93948A9493968A96000193
:10157000000C0501DF6B160EDE6F020EE16F160E1A
:10158000E06FDC51FF0DF3CFDDF5E36BE26BE35170
:1015900001081AE3DFC503F0DE51DE2BD8B4DF2BE0
:1015A000E96E03C0EAFFDDC5EFFFE1C503F0E051DE
:1015B000E02BD8B4E12BE96E03C0EAFFDDC5EFFFF5
:1015C000E22BD8B4E32BE3D70001000C0501DF6B5D
:1015D000160EDE6F020EE16F160EE06FDC6BDC5153
:1015E00007084EE3939A8A9AE36B400EE46F00017A
:1015F000A5DF010E0501E36F400EE46F00019EDFE1
:101600000501DC51B809E26FE36BE46F000196DF7E
:101610000501DC51B809E26F010EE36FE2C5E4F5A4
:1016200000018CDF939A8A8A0501DD6BDD513F084A
:1016300025E3DFC503F0DE51DE2BD8B4DF2BE96EE6
:1016400003C0EAFFEFCFE2F5E36BE2C5E4F500018A
:1016500075DF0501E1C503F0E051E02BD8B4E12BC3
:10166000E96E03C0EAFFEFCFE2F5010EE36FE2C5DA
:10167000E4F5000163DF0501DD2BD8D7DC2BAFD704
:101680000001000C93988A88939E8A9E93948A9472
:1016900093968A96939A8A9A0501E36BC00EE46F3B
:1016A00000014CDF010E0501E36FC00EE46F000185
:1016B00045DF0501E36B400EE46F00013FDF010EE3
:1016C0000501E36F400EE46F000138DF0501E36BB5
:1016D000B80EE46F000132DF010E0501E36FB80EB2
:1016E000E46F00012BDF0501D42D0ED0E36B3F0E1C
:1016F000E46F000123DF010E0501E36F3F0EE46F8D
:1017000000011CDF0DD00501E36B3E0EE46F00010C
:1017100015DF010E0501E36F3E0EE46F00010EDFE1
:101720000501DC6B000125DF51DF000C8E0E006E21
:101730000AC601F009C602F0036A015209E102C0BB
:1017400001F0026A080E005E015202E1006A08D050
:10175000D89001BE04D0023601360006F9D7019EAA
:10176000000C06010551D8B4A5D0116F0951D8B4A9
:10177000A1D0115F05E37F0E1127D8B09BD006D012
:10178000810E115FD8A096D0D8B494D011C600F0C5
:10179000016A026A036A106B06C60FF60F8F07C64E
:1017A0000EF608C60DF6190E116F0C510D5F0DE205
:1017B000010E0E5F0AE20F5F08E2105F06E2102BD7
:1017C0000F2B0E2B0C510D2728D00B510E5F12E260
:1017D000010E0F5F0FE2105F0DE2102B0F2B0B516C
:1017E0000E270C510D2719E30E2B17E10F2B15E1D6
:1017F000102B13D00A5180090F5F0EE2010E105F0B
:101800000BE2102B0A5180090F270B510E27E9E339
:101810000F2BE7E1102BE5D70380112F01D00BD060
:10182000D8900D370E370F371037D8900336023661
:1018300001361237BAD712A106D0D890013202323F
:101840000332123302D0000635E012BF1ED0D8900A
:101850000D370E370F3710370C510D5F07E2010EB1
:101860000E5F04E20F5F02E2105F1AE30B510E5F9E
:1018700005E2010E0F5F02E2105F12E30A518009D8
:101880000F5F03E2010E105F0BE3032A09E1022A56
:1018900007E1012A05E1002A0DE00132023203329C
:1018A00006C611F60A51111B11AF02D0018E06D0E7
:1018B000019E04D0006A016A026A036A0001000CFA
:1018C000800ED8A202D006010E1B0601136B146B0A
:1018D0000AC612F60E51121B0951D8B4DFD0116F8F
:1018E000006E0D51D8B4E3D0115FD8B483D03EE37D
:1018F0000EC617F6178F0FC616F610C615F6146B20
:10190000D8901733163315331433112FF8D712AF7D
:1019100003D01381E0D0139111911389060EEA6E62
:101920000C0EE96EEBD0139912BF0AD011A113D09F
:101930001733163315331433002AD8B4C7D00BD05D
:1019400017BF0CD0D8901437153716371737000645
:10195000D8B4BCD0F5D7138D6DD0139D0AC612F63E
:101960000AAF02D0178FABD0179FA9D00DC611F6C2
:101970000DC600F00951115F0AC617F6178F0BC686
:1019800016F60CC615F6146BD890173316331533AC
:101990001433112FF8D712AF03D013839CD01393B5
:1019A0001191138B060EEA6E100EE96EA7D0139BF1
:1019B00012BF0AD011A113D01733163315331433C5
:1019C000002AD8B483D00BD017BF0CD0D8901437CE
:1019D0001537163717370006D8B478D0F5D7138FD8
:1019E00029D0139F0EC612F60EAF02D0178F67D004
:1019F000179F65D00EC617F6178F0FC616F610C6BE
:101A000015F612AF04D0179F138565D01395146B8C
:101A10001191060EEA6E0C0EE96E70D012BF1CD04A
:101A20000AC612F611A106D0173316331533143334
:101A3000002A4CE014AF0BD0152B09E1162B07E15F
:101A4000172B05E1173316331533002A3FE013BD7A
:101A500084D713BFC6D71CD0800E171B17AF04D076
:101A60003AD00EC612F60AD00AC612F6175306E18D
:101A7000165304E1155302E1006A21D017BF08D0C4
:101A8000D8901437153716371737002EF7D71ED0D2
:101A900012AF02D0178F13D0179F11D00DC600F0D0
:101AA0000EC617F60FC616F610C615F608D009C6EC
:101AB00000F00AC617F60BC616F60CC615F617C6C2
:101AC00001F016C602F015C603F034D0006A016AB0
:101AD000026A036A2FD0146B151F161F171F141FDD
:101AE000142B05E1152B03E1162B01E1172B13B184
:101AF00012D713B354D713B589D7B3D7EF501527DF
:101B000005E3162B03E1172BD8B41181ED52EF50EA
:101B1000162703E3172BD8B41181ED52EF50EFBE17
:101B200001D0800A1727D8B0118113B9FCD613BB96
:101B30003ED774D70001000CF2CFD4F5F29EAA6A0A
:101B4000A96AA69CA69EA680A8500501D4BFF28EC5
:101B5000046F0A0EDD6F00019CDCF2CFD4F5F29E1B
:101B6000AA6A010EA96EA69CA69EA680A850050191
:101B7000D4BFF28E056F0A0EDD6F00018ADCF2CF52
:101B8000D4F5F29EAA6A020EA96EA69CA69EA68015
:101B9000A8500501D4BFF28E066F0A0EDD6F00015A
:101BA00078DCF2CFD4F5F29EAA6A030EA96EA69C49
:101BB000A69EA680A8500501D4BFF28E076F0A0E1C
:101BC000DD6F000166DCF2CFD4F5F29EAA6A040E46
:101BD000A96EA69CA69EA680A8500501D4BFF28E31
:101BE0000401E86F0A0E0501DD6F000152DCF2CF3F
:101BF000D4F5F29EAA6A050EA96EA69CA69EA680A2
:101C0000A8500501D4BFF28E0401E96F0A0E050148
:101C1000DD6F00013EDCF2CFD4F5F29EAA6A060E1B
:101C2000A96EA69CA69EA680A8500501D4BFF28EE0
:101C30000401EA6F0A0E0501DD6F00012ADCF2CF14
:101C4000D4F5F29EAA6A070EA96EA69CA69EA6804F
:101C5000A8500501D4BFF28E0401EB6F0A0E0501F6
:101C6000DD6F000116DCF2CFD4F5F29EAA6A080EF1
:101C7000A96EA69CA69EA680A8500501D4BFF28E90
:101C80000401F06F0A0E0501DD6F000102DCF2CFE6
:101C9000D4F5F29EAA6A090EA96EA69CA69EA680FD
:101CA000A8500501D4BFF28E0401F16F0A0E0501A0
:101CB000DD6F000149EC0AF0F2CFD4F5F29EAA6A7A
:101CC0000A0EA96EA69CA69EA680A8500501D4BFA8
:101CD000F28E0401F26F0A0E0501DD6F000149EC7E
:101CE0000AF0F2CFD4F5F29EAA6A0B0EA96EA69C5A
:101CF000A69EA680A8500501D4BFF28E0401F36F02
:101D00000A0E0501DD6F000149EC0AF0F2CFD4F5AF
:101D1000F29EAA6A0C0EA96EA69CA69EA680A8504A
:101D20000501D4BFF28E0401F46F0A0E0501DD6FC8
:101D3000000149EC0AF0F2CFD4F5F29EAA6A0D0E2A
:101D4000A96EA69CA69EA680A8500501D4BFF28EBF
:101D50000401F56F0A0E0501DD6F000149EC0AF080
:101D6000F2CFD4F5F29EAA6A0E0EA96EA69CA69E8C
:101D7000A680A8500501D4BFF28E0401F66F0A0EAA
:101D80000501DD6F000149EC0AF0F2CFD4F5F29EB7
:101D9000AA6A0F0EA96EA69CA69EA680A850050151
:101DA000D4BFF28E0401F76F0A0E0501DD6F00014A
:101DB00049EC0AF0F2CFD4F5F29EAA6A100EA96E91
:101DC000A69CA69EA680A8500501D4BFF28E040151
:101DD000FC6F0A0E0501DD6F000149EC0AF0F2CF3D
:101DE000D4F5F29EAA6A110EA96EA69CA69EA680A4
:101DF000A8500501D4BFF28E0401FD6F0A0E050143
:101E0000DD6F000149EC0AF0F2CFD4F5F29EAA6A28
:101E1000120EA96EA69CA69EA680A8500501D4BF4E
:101E2000F28E0401FE6F0A0E0501DD6F000149EC20
:101E30000AF0F2CFD4F5F29EAA6A130EA96EA69C00
:101E4000A69EA680A8500501D4BFF28E0401FF6FA4
:101E50000A0E0501DD6F000149EC0AF0F2CFD4F55E
:101E6000F29EAA6A150EA96EA69CA69EA680A850F0
:101E70000501D4BFF28E0401F86F0A0E0501DD6F73
:101E8000000149EC0AF0F2CFD4F5F29EAA6A160ED0
:101E9000A96EA69CA69EA680A8500501D4BFF28E6E
:101EA0000401F96F0A0E0501DD6F000149EC0AF02B
:101EB000F2CFD4F5F29EAA6A170EA96EA69CA69E32
:101EC000A680A8500501D4BFF28E0401FA6F0A0E55
:101ED0000501DD6F000149EC0AF0F2CFD4F5F29E66
:101EE000AA6A180EA96EA69CA69EA680A8500501F7
:101EF000D4BFF28E0401FB6F0A0E0501DD6F0001F5
:101F000049EC0AF0F2CFD4F5F29EAA6A190EA96E36
:101F1000A69CA69EA680A8500501D4BFF28E0401FF
:101F2000D36F0A0E0501DD6F000149EC0AF0F2CF14
:101F3000D4F5F29EAA6A1A0EA96EA69CA69EA68049
:101F4000A8500501D4BFF28E06010A6B096F00018B
:101F500096EC0BF003C033F502C032F501C031F549
:101F600000C030F50A0E0501DD6F000149EC0AF0F2
:101F700033C508F632C507F631C506F630C505F695
:101F800006010C6B0B6B200E0A6F820E096F0001AD
:101F9000B1EC0BF003C033F502C032F501C031F5EE
:101FA00000C030F506010A6BD3C409F6000196ECB7
:101FB0000BF0D89203C00CF602C00BF601C00AF673
:101FC00000C009F633C510F632C50FF631C50EF65E
:101FD00030C50DF675DC03C02BF502C02AF501C033
:101FE00029F500C028F5F2CFD4F5F29EAA6A1B0E9F
:101FF000A96EA69CA69EA680A8500501D4BFF28E0D
:102000000401D36F0A0E0501DD6F000149EC0AF0EF
:10201000F2CFD4F5F29EAA6A1C0EA96EA69CA69ECB
:10202000A680A8500501D4BFF28E06010A6B096F85
:10203000000196EC0BF003C033F502C032F501C08D
:1020400031F500C030F50A0E0501DD6F000149ECE5
:102050000AF033C508F632C507F631C506F630C5B5
:1020600005F606010C6B0B6B200E0A6F820E096FD2
:102070000001B1EC0BF003C033F502C032F501C032
:1020800031F500C030F506010A6BD3C409F6000132
:1020900096EC0BF0D89203C00CF602C00BF601C010
:1020A0000AF600C009F633C510F632C50FF631C581
:1020B0000EF630C50DF604DC03C02FF502C02EF578
:1020C00001C02DF500C02CF5F2CFD4F5F29EAA6A1E
:1020D0001E0EA96EA69CA69EA680A8500501D4BF80
:1020E000F28ED56FF2CFD6F5F29EAA6A1D0EA96EBA
:1020F000A69CA69EA680A850D6BFF28ED76FD5C547
:1021000003F0D7510601096F03C00AF6000196ECEF
:102110000BF003C0B3F502C0B2F501C0B1F500C0C9
:10212000B0F50A0E0501DD6F000149EC0AF0F2CFAF
:10213000D4F5F29EAA6A220EA96EA69CA69EA6803F
:10214000A8500501D4BFF28ED56FF2CFD6F5F29E1E
:10215000AA6A210EA96EA69CA69EA680A850D6BFEC
:10216000F28ED76FD5C5E1F4D7C5E0F40A0EDD6F66
:10217000000149EC0AF0F2CFD4F5F29EAA6A1F0ED4
:10218000A96EA69CA69EA680A8500501D4BFF28E7B
:102190000401DF6BDE6F0A0E0501DD6F000149EC03
:1021A0000AF0F2CFD4F5F29EAA6A200EA96EA69C80
:1021B000A69EA680A8500501D4BFF28ECB6F0A0E52
:1021C000DD6F000149EC0AF0F2CFD4F5F29EAA6A65
:1021D0003D0EA96EA69CA69EA680A8500501D4BF60
:1021E000F28ED56FF2CFD6F5F29EAA6A3C0EA96E9A
:1021F000A69CA69EA680A850D6BFF28ED76FD5C546
:1022000003F0D7510601096F03C00AF6000196ECEE
:102210000BF003C017F502C016F501C015F500C09C
:1022200014F50A0E0501DD6F000149EC0AF0F2CF4A
:10223000D4F5F29EAA6A3F0EA96EA69CA69EA68021
:10224000A8500501D4BFF28ED56FF2CFD6F5F29E1D
:10225000AA6A3E0EA96EA69CA69EA680A850D6BFCE
:10226000F28ED76FD5C503F0D7510601096F03C0B1
:102270000AF6000196EC0BF003C0BFF502C0BEF5F4
:1022800001C0BDF500C0BCF50A0E0501DD6F0001FF
:1022900049EC0AF0F2CFD4F5F29EAA6A320EA96E8A
:1022A000A69CA69EA680A8500501D4BFF28E04016C
:1022B000CB6F0A0E0501DD6F000149EC0AF05EEFFD
:1022C00030F006C60DF606010A510D1B0DAF05D004
:1022D000D894D89006BFD8802FD006C60DF609C670
:1022E0000EF605510E5F06E00DAF26D0D850010A5C
:1022F000D86E22D00AC60EF606510E5F06E00DAF6C
:102300001BD0D850010AD86E17D00BC60EF6075155
:102310000E5F06E00DAF10D0D850010AD86E0CD079
:102320000CC60EF608510E5F06E00DAF05D0D85072
:10233000010AD86E01D0D8900001000C050104BF3D
:1023400003D00451090803E304BF01D016D0046B85
:10235000AA6AA96AA86AA69CA69EA684F250006EE4
:10236000F29E0F01550EA76EAA0EA76EA682A6B208
:10237000FED7A6940050F212050105BF03D0055107
:10238000090803E305BF01D017D0056BAA6A010E47
:10239000A96EA86AA69CA69EA684F250006EF29E24
:1023A0000F01550EA76EAA0EA76EA682A6B2FED783
:1023B000A6940050F212050106BF03D00651090889
:1023C00003E306BF01D017D0066BAA6A020EA96EFE
:1023D000A86AA69CA69EA684F250006EF29E0F01EB
:1023E000550EA76EAA0EA76EA682A6B2FED7A69419
:1023F0000050F212050107BF03D00751090803E39B
:1024000007BF01D016D0076BAA6A030EA96EA86A8F
:10241000A69CA69EA684F250006EF29E0F01550E59
:10242000A76EAA0EA76EA682A6B2FED7A6940050EB
:10243000F2120401E8BF03D0E851090803E3E8BF42
:1024400001D017D0E86BAA6A040EA96EA86AA69CF0
:10245000A69EA684F250006EF29E0F01550EA76E46
:10246000AA0EA76EA682A6B2FED7A6940050F212BC
:102470000401E9BF03D0E951090803E3E9BF01D032
:1024800017D0E96BAA6A050EA96EA86AA69CA69E3B
:10249000A684F250006EF29E0F01550EA76EAA0E92
:1024A000A76EA682A6B2FED7A6940050F21204012F
:1024B000EABF03D0EA51090803E3EABF01D019D00B
:1024C000020EEA6FAA6A060EA96E020EA86EA69CFC
:1024D000A69EA684F250006EF29E0F01550EA76EC6
:1024E000AA0EA76EA682A6B2FED7A6940050F2123C
:1024F0000401EBBF03D0EB51090803E3EBBF01D0AC
:1025000017D0EB6BAA6A070EA96EA86AA69CA69EB6
:10251000A684F250006EF29E0F01550EA76EAA0E11
:10252000A76EA682A6B2FED7A6940050F2120401AE
:10253000F0BF03D0F051090803E3F0BF01D017D07A
:10254000F06BAA6A080EA96EA86AA69CA69EA6842D
:10255000F250006EF29E0F01550EA76EAA0EA76EE6
:10256000A682A6B2FED7A6940050F2120401F1BFD3
:1025700003D0F151090803E3F1BF01D017D0F16B8B
:10258000AA6A090EA96EA86AA69CA69EA684F25005
:10259000006EF29E0F01550EA76EAA0EA76EA682C0
:1025A000A6B2FED7A6940050F2120401F2BF03D0E7
:1025B000F251090803E3F2BF01D019D0020EF26F05
:1025C000AA6A0A0EA96E020EA86EA69CA69EA684F2
:1025D000F250006EF29E0F01550EA76EAA0EA76E66
:1025E000A682A6B2FED7A6940050F2120401F3BF51
:1025F00003D0F351090803E3F3BF01D017D0F36B05
:10260000AA6A0B0EA96EA86AA69CA69EA684F25082
:10261000006EF29E0F01550EA76EAA0EA76EA6823F
:10262000A6B2FED7A6940050F2120401F4BF03D064
:10263000F451090803E3F4BF01D017D0F46BAA6A80
:102640000C0EA96EA86AA69CA69EA684F250006EE7
:10265000F29E0F01550EA76EAA0EA76EA682A6B215
:10266000FED7A6940050F2120401F5BF03D0F55135
:10267000090803E3F5BF01D017D0F56BAA6A0D0E68
:10268000A96EA86AA69CA69EA684F250006EF29E31
:102690000F01550EA76EAA0EA76EA682A6B2FED790
:1026A000A6940050F2120401F6BF03D0F6510908B7
:1026B00003E3F6BF01D017D0F66BAA6A0E0EA96E1F
:1026C000A86AA69CA69EA684F250006EF29E0F01F8
:1026D000550EA76EAA0EA76EA682A6B2FED7A69426
:1026E0000050F2120401F7BF03D0F751090803E3C9
:1026F000F7BF01D017D0F76BAA6A0F0EA96EA86AB0
:10270000A69CA69EA684F250006EF29E0F01550E66
:10271000A76EAA0EA76EA682A6B2FED7A6940050F8
:10272000F2120401FCBF03D0FC51090803E3FCBF13
:1027300001D017D0FC6BAA6A100EA96EA86AA69CDD
:10274000A69EA684F250006EF29E0F01550EA76E53
:10275000AA0EA76EA682A6B2FED7A6940050F212C9
:102760000401FDBF03D0FD51090803E3FDBF01D003
:1027700017D0FD6BAA6A110EA96EA86AA69CA69E28
:10278000A684F250006EF29E0F01550EA76EAA0E9F
:10279000A76EA682A6B2FED7A6940050F21204013C
:1027A000FEBF03D0FE51090803E3FEBF01D017D0DE
:1027B000FE6BAA6A120EA96EA86AA69CA69EA684A3
:1027C000F250006EF29E0F01550EA76EAA0EA76E74
:1027D000A682A6B2FED7A6940050F2120401FFBF53
:1027E00003D0FF51090803E3FFBF01D017D0FF6BEF
:1027F000AA6A130EA96EA86AA69CA69EA684F25089
:10280000006EF29E0F01550EA76EAA0EA76EA6824D
:10281000A6B2FED7A6940050F2120401F8BF03D06E
:10282000F851090803E3F8BF01D017D0F86BAA6A82
:10283000150EA96EA86AA69CA69EA684F250006EEC
:10284000F29E0F01550EA76EAA0EA76EA682A6B223
:10285000FED7A6940050F2120401F9BF03D0F9513B
:10286000090803E3F9BF01D017D0F96BAA6A160E65
:10287000A96EA86AA69CA69EA684F250006EF29E3F
:102880000F01550EA76EAA0EA76EA682A6B2FED79E
:10289000A6940050F2120401FABF03D0FA510908BD
:1028A00003E3FABF01D017D0FA6BAA6A170EA96E1C
:1028B000A86AA69CA69EA684F250006EF29E0F0106
:1028C000550EA76EAA0EA76EA682A6B2FED7A69434
:1028D0000050F2120401FBBF03D0FB51090803E3CF
:1028E000FBBF01D018D0010EFB6FAA6A180EA96EAB
:1028F000010EA86EA69CA69EA684F250006EF29EC3
:102900000F01550EA76EAA0EA76EA682A6B2FED71D
:10291000A6940050F2120601086B076B480E066F72
:10292000830E056F2BC50CF62AC50BF629C50AF6D2
:1029300028C509F60001C5DC32E305012B6B2A6BC3
:10294000400E296F7F0E286FAA6A190EA96E010E1C
:10295000A86EA69CA69EA684F250006EF29E0F0161
:10296000550EA76EAA0EA76EA682A6B2FED7A69493
:102970000050F212AA6A1A0EA96E050EA86EA69C45
:10298000A69EA684F250006EF29E550EA76EAA0E69
:10299000A76EA682A6B2FED7A6940050F212060138
:1029A000086B076B480E066F830E056F2FC50CF67C
:1029B0002EC50BF62DC50AF62CC509F6000181DCE3
:1029C00030E305012F6B2E6B2D6B7F0E2C6FAA6AE7
:1029D0001B0EA96E010EA86EA69CA69EA684F250A0
:1029E000006EF29E0F01550EA76EAA0EA76EA6826C
:1029F000A6B2FED7A6940050F212AA6A1C0EA96EC7
:102A0000A86AA69CA69EA684F250006EF29E550E61
:102A1000A76EAA0EA76EA682A6B2FED7A6940050F5
:102A2000F2120601086B076B160E066F870E056F14
:102A3000B3C50CF6B2C50BF6B1C50AF6B0C509F6BA
:102A400000013FDC31E30501B36BB26B4B0EB16F9C
:102A5000860EB06FAA6A1D0EA96ECB0EA86EA69C3C
:102A6000A69EA684F250006EF29E0F01550EA76E30
:102A7000AA0EA76EA682A6B2FED7A6940050F212A6
:102A8000AA6A1E0EA96EA86AA69CA69EA684F250EB
:102A9000006EF29E550EA76EAA0EA76EA682A6B273
:102AA000FED7A6940050F2120401DF5303E1DE5179
:102AB0003C0817E2DF6BDE6BAA6A1F0EA96EA86ADC
:102AC000A69CA69EA684F250006EF29E0F01550EA3
:102AD000A76EAA0EA76EA682A6B2FED7A694005035
:102AE000F2120501CB51060818E2020ECB6FAA6A5A
:102AF000200EA96E020EA86EA69CA69EA684F25079
:102B0000006EF29E0F01550EA76EAA0EA76EA6824A
:102B1000A6B2FED7A6940050F2120401E1510D08AE
:102B200030E2FF0A03E1E05110082BE2E16BE06BB9
:102B3000AA6A210EA96EA86AA69CA69EA684F25037
:102B4000006EF29E0F01550EA76EAA0EA76EA6820A
:102B5000A6B2FED7A6940050F212AA6A220EA96E5F
:102B6000A86AA69CA69EA684F250006EF29E550E00
:102B7000A76EAA0EA76EA682A6B2FED7A694005094
:102B8000F2120601086B076B480E066F860E056F82
:102B900017C50CF616C50BF615C50AF614C509F6C9
:102BA000000161EC11F02EE30501176B166B156B3C
:102BB000146BAA6A3C0EA96EA86AA69CA69EA6845F
:102BC000F250006EF29E0F01550EA76EAA0EA76E70
:102BD000A682A6B2FED7A6940050F212AA6A3D0EB3
:102BE000A96EA86AA69CA69EA684F250006EF29ECC
:102BF000550EA76EAA0EA76EA682A6B2FED7A69401
:102C00000050F2120601086B076B610E066F880E0A
:102C1000056FBFC50CF6BEC50BF6BDC50AF6BCC533
:102C200009F6000161EC11F031E30501BF6BBE6BE9
:102C3000700EBD6F860EBC6FAA6A3E0EA96EF00EB6
:102C4000A86EA69CA69EA684F250006EF29E0F016E
:102C5000550EA76EAA0EA76EA682A6B2FED7A694A0
:102C60000050F212AA6A3F0EA96EA86AA69CA69E00
:102C7000A684F250006EF29E550EA76EAA0EA76EA5
:102C8000A682A6B2FED7A6940050F2120401CB5140
:102C9000140819E20A0ECB6FAA6A320EA96E0A0E48
:102CA000A86EA69CA69EA684F250006EF29E0F010E
:102CB000550EA76EAA0EA76EA682A6B2FED7A69440
:102CC0000050F2120401000160EF30F00501D5352B
:102CD000006E0036FC0E001600C001F0C250C30B9F
:102CE0000010C26E010EDD6F000149EC0AF0C282D5
:102CF000C2B2FED7C4CFD7F50501C3CFD6F5D6C52E
:102D000001F0D7C502F00001DDEF1FF08E0E006E5E
:102D100006010551005E06C602F007C601F0028EEC
:102D2000005209E0D890025202E1015204E002325E
:102D30000132002EF7D706AF05D0011E021E012A70
:102D4000D8B4022A0001000C06010551D8B471D094
:102D5000006E0951D8B46DD0002604E3810E002620
:102D600068E204D07F0E005E64E363E006C60DF601
:102D70000A510D1B068F0A8F08510C03F4CF0FF672
:102D800007510B03F4CF03F0F3CF0EF60C03F3500F
:102D90000F27F4500E23000E032208510B03F350AB
:102DA0000F27F4500E23000E026A0322022206515E
:102DB0000C03F3500E27F4500322000E022206519A
:102DC0000B03F3500326F4500222000E016A012285
:102DD00008510A03F3500E27F4500322000E02227A
:102DE000012207510A03F3500326F4500222000E79
:102DF000012206510A03F3500226F4500122002A50
:102E000001BE05D00E370336023601360006000E2D
:102E10000EAF0AD0032A02220122015005E102501E
:102E200003E1035001E1002A0DBF018E0DAF019EA9
:102E300004D0006A016A026A036A0001000C0601FC
:102E40000491F8C5FDF5F7C5FCF5F6C5FBF5F5C52C
:102E5000FAF5F8C508F6F7C507F6F6C506F6F5C59E
:102E600005F60C6B0B6B0A6B096B000161EC11F042
:102E700006E3060104810501FB51800AFB6FFDC5D5
:102E800008F6FCC507F6FBC506F6FAC505F6060109
:102E90000C6B0B6B0A6B8E0E096F000161EC11F06D
:102EA00001E218E1FDC508F6FCC507F6FBC506F60C
:102EB000FAC505F62BDF02C00AF601C009F696EC4A
:102EC0000BF003C001F602C000F601C0FFF500C020
:102ED000FEF5CFD0FDC508F6FCC507F6FBC506F626
:102EE000FAC505F6800E06010C6F960E0B6F180ED4
:102EF0000A6F960E096F000161EC11F0D8A0B1D0F5
:102F0000FDC508F6FCC507F6FBC506F6FAC505F6CD
:102F100006010C6B0B6B0A6B8E0E096F0001B1EC96
:102F20000BF003C008F602C007F601C006F600C0A9
:102F300005F6ECDE02C003F601C002F6FDC508F698
:102F4000FCC507F6FBC506F6FAC505F606010C6BCF
:102F50000B6B0A6B8E0E096F0001B1EC0BF000C019
:102F600005F601C006F602C007F603C008F603C660
:102F70000AF602C609F696EC0BF0D88208C60CF6E3
:102F800007C60BF606C60AF605C609F603C010F614
:102F900002C00FF601C00EF600C00DF660EC0CF09A
:102FA0000601086B076B066B8E0E056F03C00CF6EF
:102FB00002C00BF601C00AF600C009F60001C4DE2B
:102FC00003C0FDF502C0FCF501C0FBF500C0FAF539
:102FD00003C60AF602C609F696EC0BF00601086B6A
:102FE000076B066B8E0E056F03C00CF602C00BF666
:102FF00001C00AF600C009F60001A6DE03C001F612
:1030000002C000F601C0FFF500C0FEF5FDC508F6E0
:10301000FCC507F6FBC506F6FAC505F677DE02C065
:103020000AF601C009F696EC0BF0D89201C60CF630
:1030300000C60BF6FFC50AF6FEC509F603C010F67A
:1030400002C00FF601C00EF600C00DF660EC0CF0E9
:1030500003C001F602C000F601C0FFF500C0FEF596
:1030600008D0FDC501F6FCC500F6FBC5FFF5FAC5A5
:10307000FEF5FDC508F6FCC507F6FBC506F6FAC564
:1030800005F644DE02C00AF601C009F696EC0BF024
:10309000D882FDC50CF6FCC50BF6FBC50AF6FAC5D1
:1030A00009F603C010F602C00FF601C00EF600C00C
:1030B0000DF660EC0CF003C0FDF502C0FCF501C09C
:1030C000FBF500C0FAF5060104A105D00501FF518A
:1030D000800AFF6F0601FDC508F6FCC507F6FBC5B3
:1030E00006F6FAC505F60C6B0B6B0A6B096B000153
:1030F00061EC11F046E0060104A121D00501F9536D
:10310000D8B402D006011BD0D88201C60CF600C686
:103110000BF6FFC50AF6FEC509F60601106B0F6B2C
:103120000E6B7F0E0D6F000160EC0CF003C001F61A
:1031300002C000F601C0FFF500C0FEF5060104B1B3
:1031400021D00501F92D01D002D006011BD0D89263
:1031500001C60CF600C60BF6FFC50AF6FEC509F659
:103160000601106B0F6B0E6B7F0E0D6F000160EC94
:103170000CF003C001F602C000F601C0FFF500C06C
:10318000FEF50601F8C508F6F7C507F6F6C506F61A
:10319000F5C505F60C6B0B6B0A6B096B000161EC56
:1031A00011F007E10601016B006B0501FF6BFE6B7F
:1031B0000001FEC500F0FFC501F000C602F001C627
:1031C00003F0000CF4C5F8F5F3C5F7F5F2C5F6F514
:1031D000F1C5F5F5010E0501F96F000130DE5FEF75
:1031E00019F0F4C5F8F5F3C5F7F5F2C5F6F5F1C534
:1031F000F5F50501F96B000122DE83EF19F0E8C552
:1032000008F6E7C507F6E6C506F6E5C505F60601C4
:103210000C6B0B6B0A6B096B000161EC11F0D8B4FD
:10322000A0D0E4C508F6E3C507F6E2C506F6E1C599
:1032300005F6E8C50CF6E7C50BF6E6C50AF6E5C5E2
:1032400009F6B1EC0BF000C0EDF501C0EEF502C0DF
:10325000EFF503C0F0F503C008F602C007F601C0A1
:1032600006F600C005F606010C6B0B6B0A6B096BCA
:10327000000161EC11F024E3E4C508F6E3C507F6AC
:10328000E2C506F6E1C505F6E8C50CF6E7C50BF69E
:10329000E6C50AF6E5C509F6B1EC0BF000C0EDF5A0
:1032A00001C0EEF502C0EFF503C0F0F503C0F4F580
:1032B00002C0F3F501C0F2F500C0F1F583D723D0C9
:1032C000E4C508F6E3C507F6E2C506F6E1C505F66E
:1032D000E8C50CF6E7C50BF6E6C50AF6E5C509F63E
:1032E000B1EC0BF000C0EDF501C0EEF502C0EFF55A
:1032F00003C0F0F503C0F4F502C0F3F501C0F2F528
:1033000000C0F1F56ED703C0ECF502C0EBF501C0CB
:10331000EAF500C0E9F5ECC508F6EBC507F6EAC525
:1033200006F6E9C505F6E8C50CF6E7C50BF6E6C5F1
:103330000AF6E5C509F608DDD882E4C50CF6E3C552
:103340000BF6E2C50AF6E1C509F603C010F602C0A5
:103350000FF601C00EF600C00DF660EC0CF001D0C7
:1033600000D0000C8E0E006EFCC501F0FBC502F013
:10337000036A01AE05D0011E021E022A01E1012AE4
:10338000015209E102C001F0026A080E005E01521A
:1033900002E1006A0DD0D89001BE04D00236013699
:1033A0000006F9D70501FCAF02D0000101D0019E53
:1033B0000001000CE8C5ECF5E7C5EBF5E6C5EAF55C
:1033C000E5C5E9F5ECC508F6EBC507F6EAC506F66E
:1033D000E9C505F606010C6B0B6B0A6B7F0E096FD6
:1033E000000161EC11F0D8B445D2050E0501FB6F68
:1033F000E90EE96EFBC5EAFF7E0EEF6ED882ECC5E2
:103400000CF6EBC50BF6EAC50AF6E9C509F60601A6
:10341000106B0F6B0E6B7F0E0D6F000160EC0CF0EC
:1034200000C0FAF501C0FBF502C0FCF503C0FDF5D4
:10343000D892ECC50CF6EBC50BF6EAC50AF6E9C561
:1034400009F60601106B0F6B0E6B7F0E0D6F0001FE
:1034500060EC0CF0FDC508F6FCC507F6FBC506F6EA
:10346000FAC505F603C00CF602C00BF601C00AF659
:1034700000C009F6B1EC0BF003C0ECF502C0EBF5AF
:1034800001C0EAF500C0E9F5ECC508F6EBC507F6A2
:10349000EAC506F6E9C505F6ECC50CF6EBC50BF674
:1034A000EAC50AF6E9C509F64FDC03C0F8F502C023
:1034B000F7F501C0F6F500C0F5F5BC0E0601086F82
:1034C000240E076F670E066F7D0E056FF8C50CF6AC
:1034D000F7C50BF6F6C50AF6F5C509F6000134DCAA
:1034E00000C0FAF501C0FBF502C0FCF503C0FDF514
:1034F000D89203C00CF602C00BF601C00AF600C059
:1035000009F6E30E0601106FE40E0F6F900E0E6FBA
:10351000820E0D6F000160EC0CF003C0F0F502C0EC
:10352000EFF501C0EEF500C0EDF5F0C508F6EFC50A
:1035300007F6EEC506F6EDC505F6F8C50CF6F7C5B7
:103540000BF6F6C50AF6F5C509F6A4EC16F000C0B0
:10355000FAF501C0FBF502C0FCF503C0FDF5D892F9
:1035600003C00CF602C00BF601C00AF600C009F653
:103570001C0E0601106F870E0F6F570E0E6F830E15
:103580000D6F000160EC0CF003C0F0F502C0EFF528
:1035900001C0EEF500C0EDF5F0C508F6EFC507F681
:1035A000EEC506F6EDC505F6F8C50CF6F7C50BF643
:1035B000F6C50AF6F5C509F6A4EC16F000C0FAF552
:1035C00001C0FBF502C0FCF503C0FDF5D89203C0B5
:1035D0000CF602C00BF601C00AF600C009F6AB0EED
:1035E0000601106FE10E0F6F9E0E0E6F830E0D6FB2
:1035F000000160EC0CF003C0F0F502C0EFF501C073
:10360000EEF500C0EDF50601086B076B066B7F0E4B
:10361000056FF8C50CF6F7C50BF6F6C50AF6F5C545
:1036200009F60001A4EC16F000C0FAF501C0FBF5A4
:1036300002C0FCF503C0FDF5D89203C00CF602C031
:103640000BF601C00AF600C009F6B40E0601106FB1
:103650002A0E0F6F820E0E6F0D6F000160EC0CF0E2
:1036600003C0F4F502C0F3F501C0F2F500C0F1F5B6
:10367000F4C508F6F3C507F6F2C506F6F1C505F67A
:10368000F8C50CF6F7C50BF6F6C50AF6F5C509F64A
:10369000A4EC16F000C0FAF501C0FBF502C0FCF581
:1036A00003C0FDF5D89203C00CF602C00BF601C0B2
:1036B0000AF600C009F6800E0601106F3E0E0F6F6D
:1036C000060E0E6F830E0D6F000160EC0CF003C050
:1036D000F4F502C0F3F501C0F2F500C0F1F5F4C550
:1036E00008F6F3C507F6F2C506F6F1C505F6F8C506
:1036F0000CF6F7C50BF6F6C50AF6F5C509F6A4EC07
:1037000016F000C0FAF501C0FBF502C0FCF503C0DD
:10371000FDF5D89203C00CF602C00BF601C00AF604
:1037200000C009F6AB0E0601106FE10E0F6F9E0E82
:103730000E6F820E0D6F000160EC0CF003C0F4F50B
:1037400002C0F3F501C0F2F500C0F1F5ECC508F6D2
:10375000EBC507F6EAC506F6E9C505F6F0C50CF6B1
:10376000EFC50BF6EEC50AF6EDC509F6A4EC16F0AA
:1037700000C0FAF501C0FBF502C0FCF503C0FDF581
:1037800003C008F602C007F601C006F600C005F641
:10379000F4C50CF6F3C50BF6F2C50AF6F1C509F649
:1037A000B1EC0BF003C0F0F502C0EFF501C0EEF58F
:1037B00000C0EDF5050E0501FB6FE50EE96EFBC5DA
:1037C000EAFF7E0EEF5CF96FF9BF01D014D0000E56
:1037D000D880F955FC6BFB6FFBBFFC070001C2DD15
:1037E00000C0F1F50150800A0501F26F02C0F3F547
:1037F00003C0F4F50FD0FC6BF9C5FBF5FBBFFC076C
:103800000001B0DD03C0F4F502C0F3F501C0F2F52C
:1038100000C0F1F5F4C508F6F3C507F6F2C506F6E3
:10382000F1C505F6180E06010C6F720E0B6F310E06
:103830000A6F7E0E096F0001A4EC16F0D892F0C555
:103840000CF6EFC50BF6EEC50AF6EDC509F603C09A
:1038500010F602C00FF601C00EF600C00DF660ECC7
:103860000CF003C0F0F502C0EFF501C0EEF500C0AA
:10387000EDF506D00501F06BEF6BEE6BED6B000123
:10388000EDC500F0EEC501F0EFC502F0F0C503F0A4
:10389000000CE8C508F6E7C507F6E6C506F6E5C577
:1038A00005F6180E06010C6F720E0B6F310E0A6FC3
:1038B0007E0E096F0001B1EC0BF003C008F602C0E8
:1038C00007F601C006F600C005F686EC16F001C04A
:1038D000F5F50501F691E8C5ECF5E7C5EBF5E6C5AC
:1038E000EAF5E5C5E9F5E8C508F6E7C507F6E6C572
:1038F00006F6E5C505F606010C6B0B6B0A6B096B4A
:10390000000161EC11F006E30501F681F56DEA5165
:10391000800AEA6F0501F06BEF6BEE6BED6B050E45
:10392000F86FED0EE96EF8C5EAFF7F0EF525EF6E34
:10393000ECC508F6EBC507F6EAC506F6E9C505F6D7
:10394000180E06010C6F720E0B6F310E0A6F7E0E91
:10395000096F0001B1EC0BF000C0F7F501C0F8F5FC
:1039600002C0F9F503C0FAF50501FC6BF5C5FBF5DE
:10397000FBBFFC070001F6DCD882FAC50CF6F9C5DE
:103980000BF6F8C50AF6F7C509F603C010F602C033
:103990000FF601C00EF600C00DF660EC0CF003C08F
:1039A000ECF502C0EBF501C0EAF500C0E9F57C0ECC
:1039B0000601086F880E076F590E066F720E056FAD
:1039C000ECC50CF6EBC50BF6EAC50AF6E9C509F637
:1039D0000001A4EC16F000C0F7F501C0F8F502C034
:1039E000F9F503C0FAF5D89203C00CF602C00BF645
:1039F00001C00AF600C009F6E00E0601106F970E2E
:103A00000F6F260E0E6F750E0D6F000160EC0CF03F
:103A100003C0F4F502C0F3F501C0F2F500C0F1F502
:103A2000F4C508F6F3C507F6F2C506F6F1C505F6C6
:103A3000ECC50CF6EBC50BF6EAC50AF6E9C509F6C6
:103A4000A4EC16F000C0F7F501C0F8F502C0F9F5D6
:103A500003C0FAF5D89203C00CF602C00BF601C001
:103A60000AF600C009F6C40E0601106F1D0E0F6F96
:103A70001E0E0E6F780E0D6F000160EC0CF003C08F
:103A8000F4F502C0F3F501C0F2F500C0F1F5F4C59C
:103A900008F6F3C507F6F2C506F6F1C505F6ECC55E
:103AA0000CF6EBC50BF6EAC50AF6E9C509F6A4EC77
:103AB00016F000C0F7F501C0F8F502C0F9F503C033
:103AC000FAF5D89203C00CF602C00BF601C00AF654
:103AD00000C009F65E0E0601106F500E0F6F630EE8
:103AE0000E6F7A0E0D6F000160EC0CF003C0F4F560
:103AF00002C0F3F501C0F2F500C0F1F5F4C508F617
:103B0000F3C507F6F2C506F6F1C505F6ECC50CF6E9
:103B1000EBC50BF6EAC50AF6E9C509F6A4EC16F002
:103B200000C0F7F501C0F8F502C0F9F503C0FAF5D9
:103B3000D89203C00CF602C00BF601C00AF600C012
:103B400009F61A0E0601106FFE0E0F6F750E0E6F3E
:103B50007C0E0D6F000160EC0CF003C0F4F502C0A8
:103B6000F3F501C0F2F500C0F1F5F4C508F6F3C5B0
:103B700007F6F2C506F6F1C505F6ECC50CF6EBC581
:103B80000BF6EAC50AF6E9C509F6A4EC16F000C082
:103B9000F7F501C0F8F502C0F9F503C0FAF5D892BF
:103BA00003C00CF602C00BF601C00AF600C009F60D
:103BB000180E0601106F720E0F6F310E0E6F7E0E13
:103BC0000D6F000160EC0CF003C0F4F502C0F3F5DA
:103BD00001C0F2F500C0F1F5ECC508F6EBC507F63B
:103BE000EAC506F6E9C505F6F4C50CF6F3C50BF60D
:103BF000F2C50AF6F1C509F6A4EC16F0D892060152
:103C00000C6B0B6B0A6B7F0E096F03C010F602C0C2
:103C10000FF601C00EF600C00DF6000160EC0CF0CE
:103C2000F0C508F6EFC507F6EEC506F6EDC505F6D4
:103C300003C00CF602C00BF601C00AF600C009F67C
:103C4000A4EC16F003C0F0F502C0EFF501C0EEF5EC
:103C500000C0EDF50501F6A11AD00601086B076B4F
:103C6000066B7F0E056FF0C50CF6EFC50BF6EEC5C3
:103C70000AF6EDC509F60001B1EC0BF003C0F0F552
:103C800002C0EFF501C0EEF500C0EDF50501EDC590
:103C900000F0EEC501F0EFC502F0F0C503F0000141
:103CA000000CDCC508F6DBC507F6DAC506F6D9C593
:103CB00005F606010C6B0B6B0A6B096B000161ECDE
:103CC00011F0D8A0D9D0E0C5E4F5DFC5E3F5DEC535
:103CD000E2F5DDC5E1F50501E86BE76BE66B7F0E0C
:103CE000E56F0001FFEC18F000C0E1F501C0E2F55E
:103CF00002C0E3F503C0E4F503C008F602C007F60E
:103D000001C006F600C005F606010C6B0B6B0A6BD2
:103D1000096B000161EC11F0D8A4AED0E0C5E4F568
:103D2000DFC5E3F5DEC5E2F5DDC5E1F50501E86BCC
:103D3000E76BE66B800EE56F0001FFEC18F000C04A
:103D4000E1F501C0E2F502C0E3F503C0E4F503C00C
:103D500008F602C007F601C006F600C005F6060127
:103D60000C6B0B6B0A6B096B000161EC11F041E10C
:103D7000D9C5E1F50501DA51800AE26FDBC5E3F54B
:103D8000DCC5E4F5DCC5E8F5DBC5E7F5E66FD9C5CC
:103D9000E5F50001DAEC19F000C0E1F501C0E2F54B
:103DA00002C0E3F503C0E4F503C008F602C007F65D
:103DB00001C006F600C005F6E0C50CF6DFC50BF63F
:103DC000DEC50AF6DDC509F6A4EC16F000C0E1F583
:103DD00001C0E2F502C0E3F503C0E4F503C0E8F575
:103DE00002C0E7F501C0E6F500C0E5F552DDDED022
:103DF00042D0D9C5E1F50501DA51800AE26FDBC591
:103E0000E3F5DCC5E4F5DCC5E8F5DBC5E7F5E66F11
:103E1000D9C5E5F50001DAEC19F000C0E1F501C003
:103E2000E2F502C0E3F503C0E4F503C008F602C002
:103E300007F601C006F600C005F6E0C50CF6DFC5C2
:103E40000BF6DEC50AF6DDC509F6A4EC16F000C0D7
:103E5000E1F501C0E2F502C0E3F503C0E4F503C0FB
:103E6000E8F502C0E7F501C0E6F500C0E5F511DDB3
:103E7000800E011A9BD09AD0DCC508F6DBC507F688
:103E8000DAC506F6D9C505F606010C6B0B6B0A6B95
:103E9000096B000161EC11F030E3E0C5E4F5DFC52A
:103EA000E3F5DEC5E2F5DDC5E1F50501E86BE76B9D
:103EB000E66B7F0EE56F0001FFEC18F000C0E1F546
:103EC00001C0E2F502C0E3F503C0E4F503C008F663
:103ED00002C007F601C006F600C005F606010C6B2D
:103EE0000B6B0A6B096B000161EC11F006E0006AD4
:103EF000016A026A036A5AD059D0DCC508F6DBC5EC
:103F000007F6DAC506F6D9C505F606010C6B0B6B8C
:103F10000A6B096B000161EC11F012E1E0C508F6D3
:103F2000DFC507F6DEC506F6DDC505F606010C6B36
:103F30000B6B0A6B096B000161EC11F001E236E1D9
:103F4000DCC5E8F5DBC5E7F5DAC5E6F5D9C5E5F585
:103F5000DAEC19F000C0E1F501C0E2F502C0E3F5CA
:103F600003C0E4F503C008F602C007F601C006F678
:103F700000C005F6E0C50CF6DFC50BF6DEC50AF697
:103F8000DDC509F6A4EC16F000C0E1F501C0E2F5CC
:103F900002C0E3F503C0E4F503C0E8F502C0E7F5AD
:103FA00001C0E6F500C0E5F574DC00D0000C010EA0
:103FB0000501D56F000166EF16F002C0D7F401C00D
:103FC000D6F40401CB510A0823E1D7C40AF6D6C4BB
:103FD00009F6000196EC0BF0D89203C00CF602C073
:103FE0000BF601C00AF600C009F617C510F616C593
:103FF0000FF615C50EF614C50DF660EC0CF003C0F7
:104000001FF502C01EF501C01DF500C01CF504011E
:10401000CB51140822E1D7C40AF6D6C409F6000130
:1040200096EC0BF0D88203C00CF602C00BF601C070
:104030000AF600C009F617C510F616C50FF615C525
:104040000EF614C50DF660EC0CF003C01FF502C0AF
:104050001EF501C01DF500C01CF51FC5DCF51EC511
:10406000DBF51DC5DAF51CC5D9F50501E06BDF6B85
:10407000400EDE6F800EDD6F000113DE00C0D5F54F
:1040800001C0D6F502C0D7F503C0D8F503C008F6C5
:1040900002C007F601C006F600C005F63BC50CF6E7
:1040A0003AC50BF639C50AF638C509F6A4EC16F080
:1040B00000C0D5F501C0D6F502C0D7F503C0D8F5CC
:1040C0001FC5DCF51EC5DBF51DC5DAF51CC5D9F528
:1040D0000501E06BDF6BDE6B800EDD6F0001E1DD63
:1040E00000C0D9F501C0DAF502C0DBF503C0DCF58C
:1040F00003C008F602C007F601C006F600C005F6C8
:104100003FC50CF63EC50BF63DC50AF63CC509F6A3
:10411000A4EC16F0EACFDAF5E9CFD9F5D892D8C5F4
:104120000CF6D7C50BF6D6C50AF6D5C509F603C0F9
:1041300010F602C00FF601C00EF600C00DF660ECDE
:104140000CF0DAC5EAFFD9C5E9FF00C0D5F501C01A
:10415000D6F502C0D7F503C0D8F51FC508F61EC5B1
:1041600007F61DC506F61CC505F643C50CF642C587
:104170000BF641C50AF640C509F6A4EC16F0EACFE5
:10418000DCF5E9CFDBF5D892D8C50CF6D7C50BF630
:10419000D6C50AF6D5C509F603C010F602C00FF65B
:1041A00001C00EF600C00DF660EC0CF0DCC5EAFFB5
:1041B000DBC5E9FF00C0D5F501C0D6F502C0D7F5D3
:1041C00003C0D8F5EACFDEF5E9CFDDF5D89203C01C
:1041D0000CF602C00BF601C00AF600C009F647C58E
:1041E00010F646C50FF645C50EF644C50DF660EC53
:1041F0000CF0DEC5EAFFDDC5E9FF03C01BF502C018
:104200001AF501C019F500C018F51BC508F61AC546
:1042100007F619C506F618C505F606010C6B0B6BFB
:104220000A6B096B000161EC11F005E305011B6BE2
:104230001A6B196B186B0501D4510401D15D01E3B0
:10424000D16BD151040DF350036A480FE96E050E8E
:104250000320EA6E18C5EFFF19C5ECFF1AC5ECFF85
:104260001BC5ECFFD12B0501AB6BAA6BA96BA86B2F
:104270000401D26B010E0501D45D0401D25D01E0A1
:1042800038E2D251040DF350036A480FE96E050E6F
:104290000320EA6EEFCF00F0ECCF01F0ECCF02F09C
:1042A000ECCF03F0EACFD6F5E9CFD5F5D892ABC580
:1042B0000CF6AAC50BF6A9C50AF6A8C509F603C0EF
:1042C00010F602C00FF601C00EF600C00DF6000198
:1042D00060EC0CF0D6C5EAFFD5C5E9FF03C0ABF52D
:1042E00002C0AAF501C0A9F500C0A8F50401D22BAF
:1042F000C1D706010A6BD4C509F6000196EC0BF094
:10430000ABC508F6AAC507F6A9C506F6A8C505F601
:1043100003C00CF602C00BF601C00AF600C009F695
:10432000B1EC0BF000C0D5F501C0D6F502C0D7F551
:1043300003C0D8F503C008F602C007F601C006F6B0
:1043400000C005F62BC50CF62AC50BF629C50AF6E2
:1043500028C509F6A4EC16F003C0ABF502C0AAF517
:1043600001C0A9F500C0A8F5A8C500F0A9C501F0D5
:10437000AAC502F0ABC503F06CEF30F00401E151C7
:104380000D08D8B0D3D0FF0A04E1E0510F08D8B02F
:10439000CDD0E16BE06BE0C4D4F5AA6A210EA96E22
:1043A000D4C5A8FFA69CA69EA684F250006EF29EDD
:1043B0000F01550EA76EAA0EA76EA682A6B2FED753
:1043C000A6940050F212140E0501DD6F000149ECB5
:1043D0000AF0E1C4D4F5AA6A220EA96ED4C5A8FFDA
:1043E000A69CA69EA684F250006EF29E0F01550E6A
:1043F000A76EAA0EA76EA682A6B2FED7A6940050FC
:10440000F212140E0501DD6F000149EC0AF00401FF
:10441000FC2BFCBF05D0FC51090802E2FC6BFD2B14
:10442000FDBF05D0FD51090802E2FD6BFE2BFEBF6A
:1044300005D0FE51090802E2FE6BFF2BFFBF04D03E
:10444000FF51090801E2FF6BAA6A100EA96EFCC4B5
:10445000A8FFA69CA69EA684F250006EF29E0F01B5
:10446000550EA76EAA0EA76EA682A6B2FED7A69478
:104470000050F212140E0501DD6F000149EC0AF044
:10448000AA6A110EA96EFDC4A8FFA69CA69EA684CA
:10449000F250006EF29E0F01550EA76EAA0EA76E87
:1044A000A682A6B2FED7A6940050F212140E050101
:1044B000DD6F000149EC0AF0AA6A120EA96EFEC473
:1044C000A8FFA69CA69EA684F250006EF29E0F0145
:1044D000550EA76EAA0EA76EA682A6B2FED7A69408
:1044E0000050F212140E0501DD6F000149EC0AF0D4
:1044F000AA6A130EA96EFFC4A8FFA69CA69EA68456
:10450000F250006EF29E0F01550EA76EAA0EA76E16
:10451000A682A6B2FED7A6940050F212140E050190
:10452000DD6F000149EC0AF04FD00401E05184082E
:1045300003E1E15103080CE0E051080803E1E15117
:10454000070806E0E0518C0840E1E1510A083DE12E
:10455000E0C4D4F5AA6A210EA96ED4C5A8FFA69C12
:10456000A69EA684F250006EF29E0F01550EA76E15
:10457000AA0EA76EA682A6B2FED7A6940050F2128B
:10458000140E0501DD6F000149EC0AF0E1C4D4F519
:10459000AA6A220EA96ED4C5A8FFA69CA69EA684D0
:1045A000F250006EF29E0F01550EA76EAA0EA76E76
:1045B000A682A6B2FED7A6940050F212140E0501F0
:1045C000DD6F000149EC0AF004010001000C050157
:1045D000F251016AF15D03E2F1C500F00CD0006A0E
:1045E000080EF36FF1370036F251005CD8B0006E60
:1045F0000136F32FF7D70001000C2BC4EAFF2AC4C1
:10460000E9FF0501F6C5EFFFE92AD8B4EA2AEF6A07
:1046100004012A2BD8B42B2B0001000C200E05011D
:10462000ECA9300EED6FEBC500F0EBAF07D0001E2C
:10463000002A00C0EBF52D0EED6FEC8F0150EBC59D
:10464000F1F5640EF26F0001C2DF00C0EBF5300E31
:1046500001240501EE6FEBC5F1F50A0EF26F0001C2
:10466000B6DF300E00240501F06F300E0124EF6F2D
:10467000EDC500F0ECA702D0ECAFEC95ECB90BD097
:10468000ECAF22D0ECB520D000C0EEF5ECB31CD0DE
:1046900000C0EFF519D0300EEE5D16E100C0EEF56A
:1046A000200EED6FECA704D0EC95EC83ECAFEC930F
:1046B000300EEF5D09E100C0EFF5200EEE6FECA7C4
:1046C000F7D7EC93ECAFEC91ECA505D0EDC5F6F582
:1046D000000193DF0501ECA305D0EEC5F6F500015E
:1046E0008CDF0501ECA104D0EFC5F6F5000185DFF4
:1046F000F0C5F6F5000181DF000C06010E6B0931F3
:104700000D6F0D330D331F0E0D170D370E370D378F
:104710000E370D370E370D370E370D370E370D3775
:104720000E37C00E0D1708510D27000E0E2308512D
:104730003F080DE2160E0D250F6F020E0E21106FB1
:10474000400E0F5D0B6F000E10590C6F06D0160E49
:104750000D250B6F000E0E210C6F0A5315E00CC6D1
:1047600003F00BC6E9FF0CC6EAFF0951070B0F6FF8
:10477000010E006E0F51016E04E0D8900036012E3C
:10478000FCD70050EF1215D00CC603F00BC6E9FFA2
:104790000CC6EAFF0951070B0F6F010E006E0F5197
:1047A000016E04E0D8900036012EFCD70050FF0ABD
:1047B000EF160001000C010E0601016F026F076B7E
:1047C0000501F851FA5D0601086F085108AF03D0E2
:1047D000000ED8800855036A0501FF6F03C000F67C
:1047E000F951FB5D0601086F085108AF03D0000EB8
:1047F000D8800855036A0501FD6F03C0FEF5F85126
:10480000FA5D04E2FF0E0601016F0501F951FB5D3F
:1048100004E2FF0E0601026F0501FE510601005D74
:1048200054E308E10501FD51FF5DD8B002D0060157
:104830004CD00601D8900501FD37FE37FF51FD5DD4
:10484000006E060100510501FE5900C003F6060185
:10485000046F0501FF510601035D056F0051045906
:10486000066F005305E107510501FF5D2CE30601CA
:10487000F8C508F6F9C509F6FCC50AF600013DDFE2
:10488000060104BF01D00ED00501FD51060103272A
:104890000501FE510601042301510501F825F86FB9
:1048A0000ED00601055103270651042301510501CD
:1048B000F825F86F060102510501F925F96F060187
:1048C000072BCFD705014BD00601D8900501FF3744
:1048D000060100370501FD51FF5D006EFE51060126
:1048E000005900C003F6046F0501FD510601035D88
:1048F000056F0501FE5106010459066F0501FE53BF
:1049000005E1060107510501FD5D29E3F8C508F63B
:10491000F9C509F6FCC50AF60001EFDE060104BF81
:1049200001D00CD00501FF510601032700510423DB
:1049300002510501F925F96F0ED006010551032733
:104940000651042301510501F825F86F06010251B3
:104950000501F925F96F0601072BD0D705010001E4
:10496000000C0501F1532EE0EF51ED5D05E2EDC5C0
:10497000F4F5EFC5F5F504D0EFC5F4F5EDC5F5F5A3
:10498000F051EE5D05E2EEC5F6F5F0C5F7F504D0A1
:10499000F0C5F6F5EEC5F7F5F451F55D12E3F6C591
:1049A000F3F5F351F75D0BE3F4C508F6F3C509F62B
:1049B000F2C50AF60001A1DE0501F32BF2D7F42BB4
:1049C000EBD72ED0EDC5F8F5EEC5F9F5EFC5FAF544
:1049D000EEC5FBF5F2C5FCF50001EDDEEDC5F8F521
:1049E000F0C5F9F5EFC5FAF5F0C5FBF5F2C5FCF534
:1049F000E2DEEDC5F8F5EEC5F9F5EDC5FAF5F0C561
:104A0000FBF5F2C5FCF5D7DEEFC5F8F5EEC5F9F517
:104A1000EFC5FAF5F0C5FBF5F2C5FCF5CCDE0501F6
:104A20000001000CF0C503F00501EFC5E9FFF0C57A
:104A3000EAFFEF52D8B4D5D0F0C503F0EFC5E9FFD7
:104A4000F0C5EAFFEF50520829E3F0C503F0EFC5C7
:104A5000E9FFF0C5EAFF200EEF5C050DF350036A95
:104A6000FC6F050EEA6EF70EE96E0601006BFCC5E1
:104A7000FFF5F2CFFDF5F29E050E016EF76A050116
:104A8000FC5100014BEC00F00A000900F5CFEEFFED
:104A9000012EFBD70501FDBFF28E37D0F0C503F024
:104AA000EFC5E9FFF0C5EAFFEF507E0829E3F0C546
:104AB00003F0EFC5E9FFF0C5EAFF530EEF5C050D0B
:104AC000F350036AFC6F050EEA6EF70EE96E0601FD
:104AD000006BFCC5FFF5F2CFFDF5F29E050E016EF1
:104AE000F76A0501FC510001D8EC00F00A0009004A
:104AF000F5CFEEFF012EFBD70501FDBFF28E05D0ED
:104B0000F76BF86BF96BFA6BFB6BF0C503F0EF51C9
:104B1000E96E03C0EAFFEF500A0A000103E0070A4A
:104B200009E00BD00501F151070DF350010FEE27FD
:104B300051D000010501ED6B4DD00501F151050D7E
:104B4000F350ED257F0806E2ED6BF151070DF350B0
:104B5000010FEE27F36BF35104083CE3F46BF451BF
:104B6000060834E3036AF351F70FE96E050E0320DC
:104B7000EA6EEFCFFCF5FCC500F0F451016E04E0E5
:104B8000D8900032012EFCD700A01ED0F56BF15159
:104B9000F55D1AE2F66BF151F65D14E2F651ED2582
:104BA000FC6FF451F103F350EE25F525FD6FFCC5C4
:104BB00008F6E8CF09F6F2C50AF600019EDD050108
:104BC000F62BE9D7F52BE3D7F42BC9D7F32BF1510B
:104BD000ED27C1D7EF2BD8B4F02BED2B000122D756
:104BE00005010001000C050E04012B6FE20E2A6F77
:104BF000DEC5EBF51F0E0501EC6F00010FDD0501B1
:104C0000E12D27D0120EDF25EB6F180EE025EC6F9B
:104C1000DFC5EDF5E0C5EEF5EBC5EFF5F06F010E84
:104C2000F16FF26F00019DDE020E0501DF25EB6FD3
:104C3000010EE025EC6FEBC5EDF5EE6F050EF06FA4
:104C4000E20EEF6F020EF16FF26B0001EBDE26D089
:104C50000501120EDF25EB6F180EE025EC6FDFC5A6
:104C6000EDF5E0C5EEF5EBC5EFF5F06FF16BF26B2E
:104C7000000177DE020E0501DF25EB6F010EE02556
:104C8000EC6FEBC5EDF5EE6F050EF06FE20EEF6F1A
:104C9000020EF16F010EF26F0001C4DE000C05017F
:104CA000DCC501F0DDC503F0DCC5E2F5DDC5E3F5EB
:104CB000040EEA6E160EE96EDDC5E2FFDCC5E1FF0B
:104CC000E752E6CFEEFFFCE1E02D25D0E151080DE3
:104CD000F350DF25E26FED6BDFC5EEF57F0EEF6F72
:104CE000E2C5F0F5010EF16FF26F00013ADE010E40
:104CF0000501DE25E26F010EDF25E36FE2C5EDF56C
:104D0000EE6F040EF06F160EEF6FE1C5F1F5F26B6A
:104D1000000188DE0501E05326E1E151080DF35062
:104D2000DF25E26FED6BDFC5EEF57F0EEF6FE2C5BD
:104D3000F0F5010EF16FF26B000113DE010E0501BB
:104D4000DE25E26F010EDF25E36FE2C5EDF5EE6FC4
:104D5000040EF06F160EEF6FE1C5F1F5010EF26F64
:104D6000000160DE05010001000C04012FB14BD0F1
:104D700000C5DEF5140E0501DF6F1E0EE06F010E9B
:104D8000E16F000130DF01C5DEF5280E0501DF6FA0
:104D90001E0EE06FE16B000126DF02C5DEF53C0E62
:104DA0000501DF6F1E0EE06FE16B00011CDF00C527
:104DB000DEF5500E0501DF6F1E0EE06FE16B0001A6
:104DC00012DF040EEA6E160EE96EF2CFDCF5F29EEB
:104DD000000E77EC07F00A000900F550EE6E0009AE
:104DE000FBE10501DCBFF28E040EDD6F160EDC6FF9
:104DF000140EDE6FDF6B010EE06F030EE16F00013A
:104E00004EDF04012F81928A80BA68D02D9FDD6B1E
:104E1000DC6B2CB162D02C81050E0501DD6F000129
:104E200049EC0AF0010E0501C46FC451040854E3B3
:104E3000C4510401C95D36E1010E0501C45D036A78
:104E4000E96E050E0324EA6EEF2A010EC45D036AC3
:104E5000E96E050E0324EA6EEFBE0BD0EF50090891
:104E600008E2010EC45D036AE96E050E0324EA6ED2
:104E7000EF6A010EC45D036AE96E050E0324EA6E53
:104E8000EFCFDCF5C451140DF3CFDDF5DCC5DEF555
:104E9000DDC5DFF51E0EE06F010EE16F0001A3DE40
:104EA00018D00401010E0501C45D036AE96E050E08
:104EB0000324EA6EEFCFDCF5C451140DF3CFDDF51A
:104EC000DCC5DEF5DDC5DFF51E0EE06FE16B000130
:104ED0008ADE0501C42BA9D7040101D02C9196804C
:104EE00084B067D02D9FDD6BDC6B2CB561D02C8539
:104EF000050E0501DD6F000149EC0AF0010E050108
:104F0000C46FC451040853E3C4510401C95D35E1C1
:104F1000010E0501C45D036AE96E050E0324EA6E05
:104F2000EF06010EC45D036AE96E050E0324EA6E06
:104F3000EFBE01D009D0010EC45D036AE96E050E13
:104F40000324EA6E090EEF6E010EC45D036AE96E7A
:104F5000050E0324EA6EEFCFDCF5C451140DF3CF38
:104F6000DDF5DCC5DEF5DDC5DFF51E0EE06F010EFB
:104F7000E16F000138DE18D00401010E0501C45DA7
:104F8000036AE96E050E0324EA6EEFCFDCF5C45127
:104F9000140DF3CFDDF5DCC5DEF5DDC5DFF51E0E46
:104FA000E06FE16B00011FDE0501C42BAAD70401ED
:104FB00001D02C95968284B24ED02D9FDD6BDC6B98
:104FC0002CB348D02C83050E0501DD6F000149ECA0
:104FD0000AF00401C92B010E0501C46FC451040875
:104FE00038E3C4510401C95D1AE1010E0501C45D35
:104FF000036AE96E050E0324EA6EEFCFDCF5C451B7
:10500000140DF3CFDDF5DCC5DEF5DDC5DFF51E0ED5
:10501000E06F010EE16F0001E6DD18D00401010E22
:105020000501C45D036AE96E050E0324EA6EEFCF45
:10503000DCF5C451140DF3CFDDF5DCC5DEF5DDC5BF
:10504000DFF51E0EE06FE16B0001CDDD0501C42B25
:10505000C5D7040101D02C93968484B424D0640E67
:105060000501DD6F000149EC0AF0968484B41AD082
:10507000D5C5C8F40501DC6B0001B9EC0AF00401E8
:105080002F91010ECA6FC96F0501006B016B026B96
:10509000036BDC6B0001B9EC0AF0E6EC0AF0010EE0
:1050A000016EC3D10401C9510408D8B0BFD10501B4
:1050B000DC6B0001B9EC0AF0010E0401C96F2D9FF1
:1050C000DD6BDC6B050100510308D8A479D00151D8
:1050D0000808D8A475D00251090872E103510208EA
:1050E0006FE1D6536DE1AA6AA96AA86AA69CA69E3A
:1050F000A684F250006EF29E0F01550EA76EAA0E06
:10510000A76EA682A6B2FED7A6940050F212140E85
:105110000501DD6F000149EC0AF0AA6A010EA96ED3
:10512000A86AA69CA69EA684F250006EF29E0F016D
:10513000550EA76EAA0EA76EA682A6B2FED7A6949B
:105140000050F212140E0501DD6F000149EC0AF067
:10515000AA6A020EA96EA86AA69CA69EA684F25010
:10516000006EF29E0F01550EA76EAA0EA76EA682C4
:10517000A6B2FED7A6940050F212140E0501DD6F00
:10518000000149EC0AF0AA6A030EA96EA86AA69C5F
:10519000A69EA684F250006EF29E0F01550EA76ED9
:1051A000AA0EA76EA682A6B2FED7A6940050F2124F
:1051B000140E0501DD6F000149EC0AF0FF00050146
:1051C000D851005DD8A470D0D951015D6DE1DA519C
:1051D000025D6AE1DB51035D67E1DC6B0001B9EC64
:1051E0000AF0040EEA6E160EE96EF2CFDCF5F29EBE
:1051F000000E77EC07F00A000900F550EE6E00098A
:10520000FBE10501DCBFF28E040EDD6F160EDC6FD4
:105210001E0EDE6FDF6BE06B020EE16F00013FDD03
:10522000040EEA6E160EE96EF2CFDCF5F29E000E69
:1052300087EC07F00A000900F550EE6E0009FBE16B
:105240000501DCBFF28E040EDD6F160EDC6F0F0E53
:10525000DE6F1E0EDF6FE06B020EE16F00011FDDDF
:10526000D7C5C8F4E6EC0AF0040E0501DC6FFA0EAF
:10527000DD6F000149EC0AF00501DC2FF8D7DC6B8B
:105280000001B9EC0AF00501006B016B026B036BC6
:10529000D65302E104012D8B04012F91010E016E02
:1052A0000001C3D0C2D00501DC6B0001B9EC0AF0EB
:1052B000040EEA6E160EE96EF2CFDCF5F29E000ED9
:1052C00077EC07F00A000900F550EE6E0009FBE1EB
:1052D0000501DCBFF28E040EDD6F160EDC6F1E0EB4
:1052E000DE6FDF6BE06B020EE16F0001D8DC040EB5
:1052F000EA6E160EE96EF2CFDCF5F29E000E99EC26
:1053000007F00A000900F550EE6E0009FBE1050107
:10531000DCBFF28E040EDD6F160EDC6FDE6B1E0E30
:10532000DF6FE06B020EE16F0001B9DC010E0401DA
:10533000C96F0001E6EC0AF0040E0501DC6FFA0EFD
:10534000DD6F000149EC0AF00501DC2FF8D7006B96
:10535000016B026B036BDC6B0001B9EC0AF0050119
:10536000ED6BEE6B7F0EEF6F190EF06F010EF16FAC
:10537000F26F0001B1EC24F0040EEA6E160EE96E35
:10538000F2CFDCF5F29E000E77EC07F00A00090080
:10539000F550EE6E0009FBE10501DCBFF28E190E3F
:1053A000ED6F010EEE6F040EF06F160EEF6F030E31
:1053B000F16FF26B000112EC25F000C5DEF5140E62
:1053C0000501DF6F1E0EE06F010EE16F00010BDCC7
:1053D00001C5DEF5280E0501DF6F1E0EE06FE16BE3
:1053E000000101DC02C5DEF53C0E0501DF6F1E0E7B
:1053F000E06FE16B0001F3EC25F000C5DEF5500E27
:105400000501DF6F1E0EE06FE16B0001F3EC25F08C
:10541000D5C5C8F40501DC6B0001B9EC0AF0040144
:105420002F91000E016E000100D004010001000C5C
:10543000050E04012B6FD90E2A6FD4C5EBF51F0E94
:105440000501EC6F00010EEC23F00501D72D2CD0E7
:10545000D851060DF350D525E26FD851080DF35001
:10546000D625E36FD5C5EDF5D6C5EEF5E2C5EFF56A
:10547000F06F010EF16FF26F0001B1EC24F0020E3B
:105480000501D525E26F010ED625E36FE2C5EDF5E6
:10549000EE6F050EF06FD90EEF6FD8C5F1F5F26B18
:1054A000000112EC25F00501D7532DE1D851060D6E
:1054B000F350D525E26FD851080DF350D625E36F90
:1054C000D5C5EDF5D6C5EEF5E2C5EFF5F06F010EE9
:1054D000F16FF26B0001B1EC24F0020E0501D5254D
:1054E000E26F010ED625E36FE2C5EDF5EE6F050E16
:1054F000F06FD90EEF6FD8C5F1F5010EF26F000114
:1055000012EC25F005010001000C04012E95928497
:1055100080B403D0928880B805D08B9894988B8AF9
:10552000949A05D08B9894988B9A949A2E93000114
:10553000000C04012E93928480A403D0928880A84A
:1055400005D08B8894988B9A949A05D08B989498D0
:105550008B9A949A2E950001000C8B9894988B9AB4
:10556000949A000C0501D851DA03F3CF01F0F4CF7F
:1055700000F0DB03F3500026D951DA03F35000208A
:10558000026E0001000C0501D451030853E1D56BF4
:10559000D5513F084FE3D66BD6510F0849E3070EAC
:1055A000D76FD751800A7F0841E2D96BD5C5D8F5AE
:1055B000DB6B100EDA6F0001D5DF02C0D9F501C038
:1055C000D8F50501D6510124016E000E0220036EAC
:1055D0000150F2CFD8F5F29E03C0F7FF000153EC63
:1055E00001F00501D8BFF28ED86F070ED880D755CD
:1055F000D96FD8C500F0D951016E04E0D8900032BF
:10560000012EFCD700A010D0D651080DF350D7259D
:10561000D86FE8CF08F6D5C509F6010E06010A6F66
:1056200000017DEC23F00501D707BBD7D62BB4D7FB
:10563000D52BAED7D451040853E1D56BD5513F08D3
:105640004FE3D66BD6510F0849E3070ED76FD751FA
:10565000800A7F0841E2D96BD5C5D8F5DB6B100E07
:10566000DA6F00017FDF02C0D9F501C0D8F505016E
:10567000D6510124016E000E0220036E0150F2CFBC
:10568000D8F5F29E03C0F7FF00015FEC03F00501BF
:10569000D8BFF28ED86F070ED880D755D96FD8C52E
:1056A00000F0D951016E04E0D8900032012EFCD7F1
:1056B00000A010D0D651080DF350D725D86FE8CFF1
:1056C00008F6D5C509F6010E06010A6F00017DEC4A
:1056D00023F00501D707BBD7D62BB4D7D52BAED730
:1056E000D451050853E1D56BD5513F084FE3D66B34
:1056F000D6510F0849E3070ED76FD751800A7F08AC
:1057000041E2D96BD5C5D8F5DB6B100EDA6F00011D
:1057100029DF02C0D9F501C0D8F50501D651012411
:10572000016E000E0220036E0150F2CFD8F5F29EFA
:1057300003C0F7FF00016BEC05F00501D8BFF28E46
:10574000D86F070ED880D755D96FD8C500F0D9517A
:10575000016E04E0D8900032012EFCD700A010D0DA
:10576000D651080DF350D725D86FE8CF08F6D5C528
:1057700009F6010E06010A6F00017DEC23F0050118
:10578000D707BBD7D62BB4D7D52BAED70001000C8B
:105790000501F651B608F66F036AF7C5FAF5F78FFB
:1057A000D890F733F833F933033202320132003242
:1057B000F62FF6D7FAAF0BD0001E011E021E031EF5
:1057C000002AD8B4012AD8B4022AD8B4032A000186
:1057D00070EF2CF0006A016A026A036A0501FE6B31
:1057E000FF6B0601006B016B0501FD51FC11FB1104
:1057F000FA1143E0200E0601026FD8900501F6373A
:10580000F737F837F937FE37FF370601003701372A
:105810000501FD510601015D0FE10501FC51060185
:10582000005D0AE10501FB51FF5DD8B402D006011D
:1058300003D0FA51FE5D060119E30501FA51FE5F3E
:10584000FB51D8A0FB3DFF5FFC51D8A0FC3D01D02F
:1058500003D00601005F0501FD51D8A0FD3D01D038
:1058600003D00601015F0501D8800601003601362C
:1058700002360336022FC1D70501050EEA6EFE0E71
:10588000E96E0001000CE9500501EE6FED51F06F7B
:105890001DE0ECC508F6EBC507F6EAC506F6E9C556
:1058A00005F606010C6B0B6B200E0A6F820E096F5A
:1058B0000001A4EC16F003C0ECF502C0EBF501C04A
:1058C000EAF500C0E9F50501F02FE3D7ECC5F9F5DD
:1058D000EBC5F8F5EAC5F7F5E9C5F6F5000158D7C7
:1058E00003C0ECF502C0EBF501C0EAF500C0E9F534
:1058F0000501ECAF0DD0EE07EE8BE91FEA1FEB1FA1
:10590000EC1FE92BD8B4EA2BD8B4EB2BD8B4EC2B92
:105910003B0EF56F9A0EF46FCA0EF36FF26B0A0E20
:10592000F06FED51D8B4EE2BECC5F9F5EBC5F8F5F9
:10593000EAC5F7F5E9C5F6F5F5C5FDF5F4C5FCF5DD
:10594000F3C5FBF5F2C5FAF5000144DF0150EFCFD6
:10595000E9F5ECCFEAF5ECCFEBF5ECCFECF5005246
:1059600013E10501ED29F05DD8A402D000010CD0AF
:10597000EE510DE00F0BF05D01E044E2EEBF42D0CE
:10598000EEBD05D0200E37D0200E0501EE17EEAB90
:105990000FD0EE9BED51D8A4EE070050EE6F2D0E08
:1059A000F66F0001FDEC22F00501EE51006EEE6B8A
:1059B000ED51F05D0DE10050EE6F2E0EF66F00011F
:1059C000FDEC22F00501EE51006E200EEE17000EE8
:1059D000300EEEAB10D0EE9BED51D8A4EE07005088
:1059E000EE6F2D0EF66F0001FDEC22F00501EE5179
:1059F000006EEE6B300E002600C0F6F50001FDECE7
:105A000022F00501F5C5F9F5F4C5F8F5F3C5F7F58C
:105A1000F2C5F6F5FD6BFC6BFB6B0A0EFA6F00012D
:105A2000D9DE03C0F5F502C0F4F501C0F3F500C0FE
:105A3000F2F50501F02F78D7000132EF2DF0050EB9
:105A400004012B6FE00E2A6F010EE96EDBC5ECF549
:105A5000DAC5EBF5D9C5EAF5D8C5E9F50501ED6B71
:105A6000000111D7B00E0501F66F0001FDEC22F028
:105A7000430E0501F66F0001FDEC22F00501DE2D5D
:105A80002CD0DF51140DF350DC25E96FDF51080DE8
:105A9000F350DD25EA6FDCC5EDF5DDC5EEF5E9C5B2
:105AA000EFF5F06F010EF16FF26F0001B1EC24F031
:105AB000020E0501DC25E96F010EDD25EA6FE9C55F
:105AC000EDF5EE6F050EF06FE00EEF6FDFC5F1F54F
:105AD000F26B000112EC25F00501DE532DE1DF51E0
:105AE000140DF350DC25E96FDF51080DF350DD256F
:105AF000EA6FDCC5EDF5DDC5EEF5E9C5EFF5F06F54
:105B0000010EF16FF26B0001B1EC24F0020E050101
:105B1000DC25E96F010EDD25EA6FE9C5EDF5EE6FD5
:105B2000050EF06FE00EEF6FDFC5F1F5010EF26FBD
:105B3000000112EC25F005010001000CF86AD09E6E
:105B4000078EEA6AE96A04012C912C932C952C9714
:105B50002C992C9B2C9D2C9F2D912D932D952D9721
:105B60002D992D9B2D9D2D9F2E912E932E952E9709
:105B70002E992E9B2E9D2E9F2F91C80EC86F010E21
:105B8000C96FCA6F0A0ECB6FCC6BCD6BCE6BCF6B70
:105B9000D06BD16BD26BD36BD46BD56FD76BD66B0D
:105BA000D96BD86BDB6BDA6BDD6BDC6BDF6BDE6BC1
:105BB000E16BE06BE36BE26B05010B6B0A6B096B4E
:105BC000086B0F6B0E6B0D6B0C6B136B126B116B09
:105BD000106B176B166B156B146B1B6B1A6B196BB9
:105BE000186B1F6B1E6B1D6B1C6B236B226B216B69
:105BF000206B276B266B256B246B2B6B2A6B296B19
:105C0000286B2F6B2E6B2D6B2C6B336B326B316BC8
:105C1000306B376B366B356B346B290E3B6FB60EC2
:105C20003A6F200E396F6E0E386FEE0E3F6F7D0E9D
:105C30003E6FEE0E3D6F770E3C6FED0E436F470EDD
:105C4000426F6D0E416F7F0E406F1A0E476FD10E7F
:105C5000466F9C0E456F860E446FAB6BAA6BA96BAB
:105C6000A86BAF6BAE6B500EAD6F860EAC6FB36BA7
:105C7000B26BB16BB06BB76BB66BB56BB46BBB6B28
:105C8000BA6BB96BB86BBF6BBE6BBD6B800EBC6F74
:105C9000C16BC06BC36BC26BC46BC56BC66BC76B90
:105CA00004012F932F950501C96BC86BCA6BCB6B91
:105CB000CF6BCE6BCD6BCC6BD36BD26BD16BD06B10
:105CC000C150C00B0F09C16E070EB46E04012A6BE0
:105CD0002B6B4A0E306F500E316F200E326F490E13
:105CE000336F6E0E346F670E356F6C0E366F6F0E3E
:105CF000376F620E386F610E396F6C0E3A6F3B6B07
:105D0000430E3C6F610E3D6F620E3E6F690E3F6F3A
:105D10006E0E406F610E416F200E426F450E436F55
:105D2000780E446F740E456F720E466F610E476FAA
:105D3000630E486F740E496F6F0E4A6F720E4B6F91
:105D4000610E4C6F4D6B3A0E4E6F4F6B550E506F90
:105D5000560E516F526B430E536F6F0E546F6E0E93
:105D6000556F200E566F440E576F750E586F630EA9
:105D7000596F740E5A6F6F0E5B6F730E5C6F5D6BB5
:105D8000540E5E6F690E5F6F650E606F6D0E616F12
:105D9000700E626F6F0E636F200E646F640E656F1E
:105DA000650E666F200E676F500E686F750E696F17
:105DB000720E6A6F670E6B6F610E6C6F6D6B560EB5
:105DC0006E6F650E6F6F6C0E706F3A0E716F726B47
:105DD000540E736F650E746F6D0E756F700E766F67
:105DE000650E776F720E786F610E796F740E7A6F31
:105DF000750E7B6F720E7C6F610E7D6F7E6B460E33
:105E00007F6F610E806F620E816F720E826F690EFE
:105E1000836F630E846F610E856F3A0E866F320E4C
:105E2000876F300E886F380E896F2E0E8A6F300E96
:105E30008B6F8C6B410E8D6F630E8E6F740E8F6F38
:105E4000750E906F610E916F6C0E926F3A0E936F9C
:105E5000946B410E956F6A0E966F750E976F730E69
:105E6000986F740E996F650E9A6F3A0E9B6F9C6BCC
:105E7000540E9D6F2E0E9E6F200E9F6F460EA06FCC
:105E8000690EA16F6C0EA26F740EA36F720EA46FD9
:105E90006F0EA56F3A0EA66FA76B460EA86F610E28
:105EA000A96F620EAA6F720EAB6F690EAC6F630EB4
:105EB000AD6F610EAE6F3A0EAF6F320EB06F330E34
:105EC000B16F350EB26F2E0EB36F300EB46FB56B6F
:105ED000210EB66F460EB76F690EB86F6C0EB96FB4
:105EE000740EBA6F720EBB6F6F0EBC6F200EBD6F5B
:105EF000530EBE6F610EBF6F740EC06F750EC16F13
:105F0000720EC26F610EC36F640EC46F6F0EC56FE9
:105F1000210EC66FC76BE46BE56BE66BE76B090E92
:105F2000E86FE96BEA6BEB6BEC6BED6BEE6BEF6BB9
:105F3000F06FF16BF26BF36BF46BF56BF66BF76B69
:105F4000F86BF96BFA6BFB6BFC6BFD6BFE6BFF6B1D
:105F50000501006B016B026B036B046B056B066B39
