:04000000A0EF02F07B
:08000800046ED8CF05F0E0CF33
:1000100006F00001E9CF0CF0EACF07F0E1CF08F0DD
:10002000E2CF09F0D9CF0AF0DACF0BF0F3CF12F01C
:10003000F4CF13F0FACF14F000C00EF001C00FF0AF
:1000400002C010F003C011F0F2A82AEF00F0F2B2E3
:1000500079EF00F00EC000F00FC001F010C002F008
:1000600011C003F00CC0E9FF07C0EAFF078E08C00B
:10007000E1FF09C0E2FF0AC0D9FF0BC0DAFF12C0DE
:10008000F3FF13C0F4FF14C0FAFF045006C0E0FFF2
:1000900005C0D8FF1000F2CF0DF0F29EF76AB00F46
:1000A000F66E000EF7220900F5500DBEF28E12001A
:1000B000280C01063950070B006E3930016E0132F1
:1000C00001321F0E011601503B24E96E000E3C2048
:1000D000EA6E016A012A002A01D00136002EFDD7FE
:1000E0003A5203E00150EF1203D0011E0150EF1607
:1000F000000CCE501B6ECFCF1CF01D501B5C1F6E32
:100100001E501C58206E1CC01EF01BC01DF022A0EB
:1001100033D02050040815E2FF0A03E11F504608BF
:1001200010E2205005080DE303E11F50A90809E380
:1001300021C039F0010E3A6E3C6A170E3B6EBADFF1
:10014000212A2050010814E2FF0A03E11F508A0807
:100150000FE2205002080CE303E11F50ED0808E312
:1001600021C039F03A6A3C6A170E3B6EA3DF212AA0
:100170002150200801E1228220501F080EE2FF0AD0
:1001800003E11F50080809E22050210806E303E1BB
:100190001F50970802E32280216AF2922AEF00F0B2
:1001A00020202020202020434142494E4120202071
:1001B000202020200000202020202020202050432C
:1001C000522020202020202020200000202020203D
:1001D0004A5020494E474C4F42414C20202020207D
:1001E00000002020205245463A20204A5043522DFC
:1001F000363020202020000042303D25582020208D
:1002000042313D25580042323D25582020204233BE
:100210003D255800202020205449434B3A202530CA
:10022000344C75202000EA6A360EE96EEF500EE07D
:100230000F0E016E006A002EFED7012EFBD78F0E27
:10024000006E002EFED70000EF2EF2D7000C3738DC
:10025000F00B006E0F0E81140010816E090E006EFF
:10026000002EFED700D08186DB0E006E002EFED75A
:1002700000D08196000C8192010E366ED4DF34A03E
:10028000819234B08182090E006E002EFED700D01C
:100290008194090E006E002EFED700D0819635386D
:1002A000366E0F0E361636C037F0D1DF35500F0BD5
:1002B000366E376ECCDF000C000E936E8192819407
:1002C00081960F0E366EAFDF010E276E27500308A2
:1002D00008E3030E376EBBDF050E366EA4DF272A58
:1002E000F5D7020E376EB3DF276A275003080EE3F7
:1002F000036A2750F2CF28F0F29ECDDE28BEF28EA0
:10030000286E346A356EB7DF272AEFD7ACEF02F0DC
:10031000010E325CFC0F0FE2040FA3EF01F0800E20
:10032000336E09D0C00E336E06D0940E336E03D0F8
:10033000D40E336E00D0010E315C3326346A33C0E4
:1003400035F099DF000CF2CF0DF0F29EE824F76A49
:10035000F7366B0FF66E030EF7220A00F550FA6EB1
:100360000800F5500DBEF28EF96E1E0324032A0319
:1003700030033050F10802E1EE0E306E3050D108FB
:1003800002E1FF0E306E30500C0A05E0060A0DE067
:10039000020A12E016D0346A010E356E6CDF010ECF
:1003A000166E020E366E3FDF12D0162A010E316E27
:1003B00016C032F0ADDF0BD0346A100E356E5BDF45
:1003C00006D0010E346E30C035F055DF00D0000C81
:1003D0000900F5520CE0F6CF27F0F7CF28F0F5CF63
:1003E00030F0C7DF27C0F6FF28C0F7FFF1D7000CB9
:1003F0003650800DF3CF38F03550400DF35038268D
:100400003450200DF35038263350100DF350382659
:100410003250080DF35038263150040DF350382671
:10042000D890303438242F24376E37C001F0000CB8
:1004300028BE0FD00F0E006E273800160A0E005C83
:1004400003E2300E002602D02850002600C030F013
:1004500090DF0F0E27160A0E275C02E2300E02D044
:10046000289E2850272627C030F083DF000C090083
:10047000F6CF28F0F7CF29F0F5CF30F07ADF28C09B
:10048000F6FF29C0F7FF272EF2D7000CEACF2FF096
:10049000E9CF2EF02838F0092A6E2A26E20F2B6EBB
:1004A000320F2D6E28500F0B2B262B262D26E90FF1
:1004B0002C6E2C262C2627380F0B2C262D262C367E
:1004C0002D362D1E2D3627500F0B2D262A36070EC2
:1004D000296E0A0E2C062D26FDE32B062C26FDE3A5
:1004E0002A062B26FDE329062A26FDE3EA6A290EC1
:1004F000E96E070E2E142E9CE9262D0EE95CD8B469
:100500002E8CEF50006E08E12EBC06D02EB813D012
:100510002EB602D0200E03D02E862E98300E002646
:10052000EACF28F0E9CF27F000C030F022DF28C062
:10053000EAFF27C0E9FFEE502EACDFD705EF04F04D
:10054000F86AD09E078EEA6AE96AC150C00B0F09AB
:10055000C16E070EB46EB0D6B50ECD6EF19CF288AA
:10056000C00EF212010E316E326ED2DEA00EF66EA9
:10057000010EF76E2DDF010E316E020E326EC8DEF7
:10058000B60EF66E010EF76E23DF010E316E030E0E
:10059000326EBEDECC0EF66E010EF76E19DF010E66
:1005A000316E040E326EB4DEE20EF66E010EF76EA0
:1005B0000FDF080E276EFA0E366E35DE272EFBD7BC
:1005C0000C0E306ED6DE22A20DD12292000E17B094
:1005D000010E276E000E17B2010E286E000E17B422
:1005E000010E296E000E17B6010E2A6E000E17B806
:1005F000010E2B6E000E17BA010E2C6E000E17BCEA
:10060000010E2D6E000E17BE010E27C02FF028C060
:1006100030F029C031F02AC032F02BC033F02CC0AA
:1006200034F02DC035F0366EE3DE01C023F0000E4D
:1006300018B0010E276E000E18B2010E286E000EC3
:1006400018B4010E296E000E18B6010E2A6E000EA7
:1006500018B8010E2B6E000E18BA010E2C6E000E8B
:1006600018BC010E2D6E000E18BE010E27C02FF013
:1006700028C030F029C031F02AC032F02BC033F04E
:100680002CC034F02DC035F0366EB2DE01C024F03F
:10069000000E19B0010E276E000E19B2010E286E61
:1006A000000E19B4010E296E000E19B6010E2A6E45
:1006B000000E19B8010E2B6E000E19BA010E2C6E29
:1006C000000E19BC010E2D6E000E19BE010E27C0C2
:1006D0002FF028C030F029C031F02AC032F02BC0F2
:1006E00033F02CC034F02DC035F0366E81DE01C001
:1006F00025F0000E1AB0010E276E000E1AB2010E80
:10070000286E000E1AB4010E296E000E1AB6010EE4
:100710002A6E000E1AB8010E2B6E000E1ABA010EC8
:100720002C6E000E1ABC010E2D6E000E1ABE010EAC
:1007300027C02FF028C030F029C031F02AC032F095
:100740002BC033F02CC034F02DC035F0366E50DEA7
:1007500001C026F0010E316E326EDADD420E306ECF
:1007600008DE300E306E05DE3D0E306E02DE23C038
:1007700027F0370E286E5CDEFD0EF66E010EF76E6A
:10078000060E276E74DE24C027F0370E286E50DE6A
:10079000010E316E020E326EBBDD420E306EE9DDAF
:1007A000320E306EE6DD3D0E306EE3DD25C027F003
:1007B000370E286E3DDE0B0EF66E020EF76E060E3D
:1007C000276E55DE26C027F0370E286E31DE255005
:1007D000450803E1956AFF0E8C6E2550460802E13C
:1007E000956A8C6A010E316E030E326E91DD140E25
:1007F000F66E020EF76E0A0E276E39DE090EE96EEE
:1008000020C028F01FC027F041D6200E306EB1DD89
:0A081000200E306EAEDDD7D60300D7
:020000040030CA
:0E00000020CE1F1E000781000FC00FE00F4032
:00000001FF
;PIC18F4550
;CRC=58D3  CREATED="05-oct.-17 15:41"
