:0400000072EF2CF07F
:08000800046ED8CF05F0E0CF33
:1000100006F00001E9CF0CF0EACF07F0E1CF08F0DD
:10002000E2CF09F0D9CF0AF0DACF0BF0F3CF12F01C
:10003000F4CF13F0FACF14F0FBCF15F000C00EF0A0
:1000400001C00FF002C010F003C011F0F2A82CEFB5
:1000500000F0F2B23CEF09F00EC000F00FC001F06A
:1000600010C002F011C003F00CC0E9FF07C0EAFFA6
:10007000078E08C0E1FF09C0E2FF0AC0D9FF0BC02C
:10008000DAFF12C0F3FF13C0F4FF14C0FAFF15C06B
:10009000FBFF045006C0E0FF05C0D8FF1000F2CF00
:1000A0000DF0F29EF76ABC0FF66E000EF722000EFE
:1000B000F86E0900F5500DBEF28E1200000000002F
:1000C0000000005F00000003000300143E143E1413
:1000D000242A7F2A1243330866613649552250008C
:1000E00005030000001C2241000041221C001408EE
:1000F0003E081408083E08080050300000080808B0
:100100000808006060000020100804023E514945C4
:100110003E0004027F00426151494622414949366E
:100120001814127F1027454545393E494949320187
:10013000017109073649494936264949493E003681
:100140003600000056360000081422410014141432
:100150001414004122140802015109063E41595568
:100160005E7E0909097E7F494949363E4141412267
:100170007F4141413E7F494949417F090909013E8B
:100180004141493A7F0808087F00417F41003040E3
:1001900040403F7F081422417F404040407F020C96
:1001A000027F7F0204087F3E4141413E7F090909E9
:1001B000061E2121215E7F0909097600F2CF0DF08C
:1001C000F29EF76ADA0FF66E010EF722000EF86E55
:1001D0000900F5500DBEF28E120026494949320140
:1001E000017F01013F4040403F1F2040201F7F20F2
:1001F00010207F41221C22410708700807615149E5
:100200004543007F41000002040810200000417FA8
:10021000000402010204404040404000010204008A
:1002200020545454787F4444443838444444443837
:100230004444447F385454541804047E050508543B
:1002400054543C7F0804047800447D40002040441E
:100250003D007F1028440000417F40007C0478046A
:10026000787C0804047838444444387C1414140816
:10027000081414147C007C080404485454542004CA
:10028000043F44443C4040207C1C2040201C3C4017
:1002900030403C44281028440C5050503C44645496
:1002A0004C44000836414100007F000041413608BF
:1002B000000201020402F2CF0DF0F29ED20FF66EA0
:1002C000020EF722000EF86E0900F5500DBEF28EF8
:1002D000120000000000000000000000000000000C
:1002E000000000000000000000000000000000000E
:1002F00000000000000000000000000000000000FE
:1003000000000000000000000000000000000000ED
:1003100000000000000000000000000000000000DD
:1003200000000000000000000000000000000000CD
:1003300000000000000000000000000000000000BD
:1003400000000000000000000000000000000000AD
:10035000000000000000000000000000000000009D
:10036000000000000000000000000000000000008D
:10037000000000000000000000000000000000007D
:10038000000000000000000000000000000000006D
:10039000000000000000000000000000000000005D
:1003A000000000000000000000000000000000004D
:1003B000000000000000000000000000000000003D
:1003C0000000000000000000000000000000000825
:1003D0000080000000000000000000000000000499
:1003E000010000000000000000000000000000020A
:1003F00002000000000000000000000000000000FB
:100400007800000000000000000000000000000074
:100410008400000000000000000000000000000157
:10042000020000000000000000000000000000F9D1
:1004300002F80000000000000000000000000001C1
:1004400002000000000000000000000000000001A9
:100450000200000000000000000000000000000496
:100460008480000000000000000000000000000880
:1004700078400000000000000000000000000010B4
:1004800048200000000000000000000000000020E4
:100490004810000000000000000000000000000004
:1004A00078000000000000000000000000000000D4
:1004B000000000000000000000000000000000003C
:1004C000000000000000000000000000000000002C
:1004D000000000000000000000000000000000001C
:1004E000000000000000000000000000000000000C
:1006D0000000F2CF0DF0F29EEE0FF66E060EF7223E
:1006E000000EF86E0900F5500DBEF28E12000000EB
:1006F00000000000000000000000000000000000FA
:1007000000000000000000000000000000000000E9
:1007100000000000000000000000000000000000D9
:1007200000000000000000000000000000000000C9
:1007300000000000000000000000000000000000B9
:1007400000000000000000000000000000000000A9
:100750000000000000000000000000000000000099
:100760000000000000000000000000000000000089
:100770000000000000000000000000000000000079
:100780000000000000000000000000000000000069
:100790000000000000000000000000000000000059
:1007A0000000000000000000000000000000000049
:1007B0000000000000000000000000000000000039
:1007C0000000000000000000000000000000000029
:1007D0000000000000000000000000000000000019
:1007E0000000000000000000000000000000000009
:1007F00000000000000000000000000000000000F9
:1008000000000000000000000000000000000000E8
:1008100000000000000000000000000000000000D8
:1008200000000000000000000000000000000000C8
:1008300000000000000000000000000000000000B8
:1008400000000000000000000000000000000000A8
:100850000000000000000000000000000000000098
:100860000000000000000000000000000000000088
:100870000000000000000000000000000000000078
:100880000000000000000000000000000000000068
:100890000000000000000000000000000000000058
:1008A0000000000000000000000000000000000048
:1008B0000000000000000000000000000000000038
:1008C0000000000000000000000000000000000028
:1008D00000000000000000000000007FFFF80000A2
:1008E00000000000000000000000004000080000C0
:1008F0000000000000000000000000470388000026
:100900000000000000000000000000450288000018
:100910000000000000000000000000450288000008
:1009200000000000000000000000004502880000F8
:1009300000000000000000000000004502880000E8
:1009400000000000000000000000004703880000D5
:10095000000000000000000000000040000800004F
:10096000000000000000000000000040FC08000043
:1009700000000000000000000000004084080000AB
:10098000000000000000000000000040840800009B
:10099000000000000000000000000040FC08000013
:1009A00000000000000000000000004000080000FF
:1009B00000000000000000000000007FFFF80000C1
:1009C0000000000000000000000000000000000027
:1009D0000000000000000000000000000000000017
:1009E0000000000000000000000000000000000007
:1009F00000000000000000000000000000000000F7
:100A000000000000000000000000000000000000E6
:100A100000000000000000000000000000000000D6
:100A200000000000000000000000000000000000C6
:100A300000000000000000000000000000000000B6
:100A400000000000000000000000000000000000A6
:100A50000000000000000000000000000000000096
:100A60000000000000000000000000000000000086
:100A70000000000000000000000000000000000076
:100A80000000000000000000000000000000000066
:100A90000000000000000000000000000000000056
:100AA0000000000000000000000000000000000046
:100AB0000000000000000000000000000000000036
:100AC0000000000000000000000000000000000026
:100AD0000000000000000000000000000000000016
:100AE0000000000000000000000000000000F2CF45
:100AF0000DF0F29E0A0FF66E0B0EF722000EF86E46
:100B00000900F5500DBEF28E12000000000000003A
:100B100000000000000000000000000000000000D5
:100B200000000000000000000000000000000000C5
:100B300000000000000000000000000000000000B5
:100B400000000000000000000000000000000000A5
:100DF0000000000000000000600000000000000093
:100E00000000000000000000F000000000000000F2
:100E10000000000000000001F800000000000000D9
:100E20000000000000000001F800000000000000C9
:100E30000000000000000001F800000000000000B9
:100E40000000000000000000F000000000000000B2
:100E5000000000000000003871C000000000000029
:100E6000000000000000007C93E000000000000093
:100E700000000000000000FF0FF000000000000074
:100E800000000000000000FF0FF000000000000064
:100E9000000000000000007D93E000000000000062
:100EA000000000000000003861C0000000000000E9
:100EB0000000000000000000F00000000000000042
:100EC0000000000000000001F80000000000000029
:100ED0000000000000000001F80000000000000019
:100EE0000000000000000001F80000000000000009
:100EF0000000000000000000F00000000000000002
:100F000000000000000000006000F2CF0DF0F29E33
:100F1000F76A280FF66E0F0EF722000EF86E090022
:100F2000F5500DBEF28E1200436C61766500F2CF73
:100F30000DF0F29EF76A4C0FF66E0F0EF722000EC0
:100F4000F86E0900F5500DBEF28E1200436F7272FA
:100F5000656374610000F2CF0DF0F29EF76A740FC2
:100F6000F66E0F0EF722000EF86E0900F5500DBE5A
:100F7000F28E1200496E636F7272656374610000D5
:100F8000F2CF0DF0F29EF76A9E0FF66E0F0EF7226B
:100F9000000EF86E0900F5500DBEF28E12004D6580
:100FA0006E750000F2CF0DF0F29EF76AC20FF66E7A
:100FB0000F0EF722000EF86E0900F5500DBEF28EEE
:100FC0001200416A757374657300F2CF0DF0F29EE2
:100FD000F76AE80FF66E0F0EF722000EF86E0900A2
:100FE000F5500DBEF28E120043616D62696F206490
:100FF0006520436C61766500F2CF0DF0F29EF76AD2
:10100000160FF66E100EF722000EF86E0900F5505E
:101010000DBEF28E12004D6F646F0000F2CF0DF026
:10102000F29EF76A3A0FF66E100EF722000EF86E77
:101030000900F5500DBEF28E12005469656D706F97
:101040002050757267610000F2CF0DF0F29EF76AD2
:10105000660FF66E100EF722000EF86E0900F550BE
:101060000DBEF28E12004D616E74656E696D69651C
:101070006E746F00F2CF0DF0F29EF76A920FF66E6B
:10108000100EF722000EF86E0900F5500DBEF28E1C
:101090001200536572766963696F0000F2CF0DF03C
:1010A000F29EF76ABA0FF66E100EF722000EF86E77
:1010B0000900F5500DBEF28E1200542E20507572AC
:1010C00067610000F2CF0DF0F29EF76AE20FF66E54
:1010D000100EF722000EF86E0900F5500DBEF28ECC
:1010E0001200436C617665204E7565766100F2CF23
:1010F0000DF0F29EF76A0C0FF66E110EF722000E3D
:10110000F86E0900F5500DBEF28E12004D616E743E
:10111000656E69656E746F00F2CF0DF0F29EF76A2E
:10112000360FF66E110EF722000EF86E0900F5501C
:101130000DBEF28E120054726162616A6F204669C0
:101140006C74726F2868293A0000F2CF0DF0F29E9D
:10115000F76A680FF66E110EF722000EF86E09009E
:10116000F5500DBEF28E120053656E736F722064DF
:101170006520466C756A6F00F2CF0DF0F29EF76A3B
:10118000960FF66E110EF722000EF86E0900F5505C
:101190000DBEF28E120053656E736F72206465206F
:1011A00050726573696F6E00F2CF0DF0F29EF76AB0
:1011B000C60FF66E110EF722000EF86E0900F550FC
:1011C0000DBEF28E120056656C6F63696461642017
:1011D00056656E74696C61646F720000F2CF0DF039
:1011E000F29EF76AFA0FF66E110EF722000EF86EF5
:1011F0000900F5500DBEF28E120053656C656363F5
:10120000696F6E2056656C00F2CF0DF0F29EF76AA2
:10121000260FF66E120EF722000EF86E0900F5503A
:101220000DBEF28E120056656C6F636964616400D6
:10123000F2CF0DF0F29EF76A4E0FF66E120EF72205
:10124000000EF86E0900F5500DBEF28E12004775C3
:101250006172646164610000030E0601C35F0AE30A
:10126000060EEA6EC30EE96EEF5004E001D000D026
:10127000EF2EFDD70001000C04012F2BD8B4302B2A
:10128000305303E12F51770837E2306B2F6B2E6B11
:101290002D6B43850501062B0401458305010A2BAF
:1012A000040143A905D00501232BD8B4242B040144
:1012B00044B302D036A51ED00501272B27BF05D089
:1012C0002751090802E2276B282B28BF05D0285197
:1012D000050802E2286B292B29BF05D029510908EE
:1012E00002E2296B2A2B2ABF04D02A51050801E209
:1012F0002A6B0401949E8B7E386B376B36813A5390
:101300001CE03951630819E334C4C2F60601C22B4C
:10131000C207D8B406D0FF0EC36F00019DDF0601DF
:10132000F7D733C4C3F6000197DF8B849494A60EDD
:10133000006E002EFED7000004018B949494F2926C
:1013400000012CEF00F0060EEA6E860EE96EEF50FB
:101350000DE0060E016E006A002EFED7012EFBD7AF
:101360007B0E006E002EFED7EF2EF3D7000C060189
:101370007D51060808E10401396B030E346FE80E55
:10138000336F41D006017D51050809E10F0E0401BC
:10139000396F070E346FD00E336F35D006017D5193
:1013A000040809E1190E0401396F0B0E346FB80EF1
:1013B000336F29D006017D51030809E1230E040192
:1013C000396F0E0E346F100E336F1DD006017D5134
:1013D000020809E12D0E0401396F100E346FCC0E96
:1013E000336F11D006017D2D09D0320E0401396F03
:1013F000130E346F880E336F06D006017D5304E15F
:10140000640E0401396F06010001000C06018C53C3
:1014100003E093968A8602D093948A84939C8A9C54
:10142000956A8DC68CFF0000939E8A8E00D000D0F6
:101430000000939E8A9E93948A9493968A960001C4
:10144000000C0601886B170E876F020E8A6F170E4D
:10145000896F8551FF0DF3CF86F68C6B8B6B8C51AA
:1014600001081AE388C603F08751872BD8B4882B6C
:10147000E96E03C0EAFF86C6EFFF8AC603F0895112
:10148000892BD8B48A2BE96E03C0EAFF86C6EFFF2A
:101490008B2BD8B48C2BE3D70001000C0601886B92
:1014A000170E876F020E8A6F170E896F856B855135
:1014B00007084EE3939A8A9A8C6B400E8D6F000159
:1014C000A5DF010E06018C6F400E8D6F00019EDFBF
:1014D00006018551B8098B6F8C6B8D6F000196DF0B
:1014E00006018551B8098B6F010E8C6F8BC68DF686
:1014F00000018CDF939A8A8A0601866B86513F0829
:1015000025E388C603F08751872BD8B4882BE96E72
:1015100003C0EAFFEFCF8BF68C6B8BC68DF6000114
:1015200075DF06018AC603F08951892BD8B48A2B4E
:10153000E96E03C0EAFFEFCF8BF6010E8C6F8BC60E
:101540008DF6000163DF0601862BD8D7852BAFD738
:101550000001000C93988A88939E8A9E93948A94A3
:1015600093968A96939A8A9A06018C6BC00E8D6F19
:1015700000014CDF010E06018C6FC00E8D6F000163
:1015800045DF06018C6B400E8D6F00013FDF010EC1
:1015900006018C6F400E8D6F000138DF06018C6BE9
:1015A000B80E8D6F000132DF010E06018C6FB80E90
:1015B0008D6F00012BDF06017D2D0ED08C6B3F0E51
:1015C0008D6F000123DF010E06018C6F3F0E8D6FC2
:1015D00000011CDF0DD006018C6B3E0E8D6F0001EB
:1015E00015DF010E06018C6F3E0E8D6F00010EDFC0
:1015F0000601856B000125DF51DF000C0601B76B8A
:10160000B231B66FB633B6331F0EB617B637B7372B
:10161000B637B737B637B737B637B737B637B7375E
:10162000B637B737C00EB617B151B627000EB7237D
:10163000B1513F080DE2170EB625B86F020EB72163
:10164000B96F400EB85DB46F000EB959B56F06D0D2
:10165000170EB625B46F000EB721B56FB35315E062
:10166000B5C603F0B4C6E9FFB5C6EAFFB251070B31
:10167000B86F010E006EB851016E04E0D8900036CC
:10168000012EFCD70050EF1215D0B5C603F0B4C63A
:10169000E9FFB5C6EAFFB251070BB86F010E006E45
:1016A000B851016E04E0D8900036012EFCD70050EE
:1016B000FF0AEF160001000C99C603F0060198C658
:1016C000E9FF99C6EAFFEF52D8B4D0D099C603F02B
:1016D00098C6E9FF99C6EAFFEF50520827E399C67A
:1016E00003F098C6E9FF99C6EAFF200EEF5C050DEE
:1016F000F350036AA56F060EEA6EA00EE96EA96BA1
:10170000A5C6A8F6F2CFA6F6F29E050E016EF76A00
:10171000A55100014FEC00F00A000900F5CFEEFFE3
:10172000012EFBD70601A6BFF28E35D099C603F075
:1017300098C6E9FF99C6EAFFEF507E0827E399C6ED
:1017400003F098C6E9FF99C6EAFF530EEF5C050D5A
:10175000F350036AA56F060EEA6EA00EE96EA96B40
:10176000A5C6A8F6F2CFA6F6F29E050E016EF76AA0
:10177000A5510001DEEC00F00A000900F5CFEEFFF4
:10178000012EFBD70601A6BFF28E05D0A06BA16B80
:10179000A26BA36BA46B99C603F09851E96E03C0CA
:1017A000EAFFEF500A0A000103E0070A09E00BD044
:1017B00006019A51070DF350010F972750D00001F1
:1017C0000601966B4CD006019A51050DF3509625F3
:1017D0007F0806E2966B9A51070DF350010F972789
:1017E0009C6B9C5104083BE39D6B9D51060833E3C1
:1017F000036A9C51A00FE96E060E0320EA6EEFCF3C
:10180000A5F6A5C600F09D51016E04E0D890003207
:10181000012EFCD700A01DD09E6B9A519E5D19E24F
:101820009F6B9A519F5D13E29F519625A56F9D5125
:101830009A03F35097259E25A66FA5C6B1F6B26F01
:101840009BC6B3F60001DADE06019F2BEAD79E2B7A
:10185000E4D79D2BCAD79C2B9A519627C2D7982B99
:10186000D8B4992B962B000127D706010001000C54
:101870008E0E006EB3C601F0B2C602F0036A0152CA
:1018800009E102C001F0026A080E005E015202E1A5
:10189000006A08D0D89001BE04D002360136000696
:1018A000F9D7019E000C0601AE51D8B4A5D0BA6F8D
:1018B000B251D8B4A1D0BA5F05E37F0EBA27D8B031
:1018C0009BD006D0810EBA5FD8A096D0D8B494D061
:1018D000BAC600F0016A026A036AB96BAFC6B8F60D
:1018E000B88FB0C6B7F6B1C6B6F6190EBA6FB55115
:1018F000B65F0DE2010EB75F0AE2B85F08E2B95FBA
:1019000006E2B92BB82BB72BB551B62728D0B45166
:10191000B75F12E2010EB85F0FE2B95F0DE2B92BBB
:10192000B82BB451B727B551B62719E3B72B17E138
:10193000B82B15E1B92B13D0B3518009B85F0EE273
:10194000010EB95F0BE2B92BB3518009B827B4512E
:10195000B727E9E3B82BE7E1B92BE5D70380BA2F26
:1019600001D00BD0D890B637B737B837B937D89041
:10197000033602360136BB37BAD7BBA106D0D890A2
:10198000013202320332BB3302D0000635E0BBBF66
:101990001ED0D890B637B737B837B937B551B65F1C
:1019A00007E2010EB75F04E2B85F02E2B95F1AE333
:1019B000B451B75F05E2010EB85F02E2B95F12E30E
:1019C000B3518009B85F03E2010EB95F0BE3032A4C
:1019D00009E1022A07E1012A05E1002A0DE00132AE
:1019E00002320332AFC6BAF6B351BA1BBAAF02D055
:1019F000018E06D0019E04D0006A016A026A036A61
:101A00000001000C800ED8A202D00601B71B06010F
:101A1000BC6BBD6BB3C6BBF6B751BB1BB251D8B4E0
:101A2000DFD0BA6F006EB651D8B4E3D0BA5FD8B485
:101A300083D03EE3B7C6C0F6C08FB8C6BFF6B9C6FE
:101A4000BEF6BD6BD890C033BF33BE33BD33BA2FA3
:101A5000F8D7BBAF03D0BC81E0D0BC91BA91BC89B0
:101A6000060EEA6EB50EE96EEBD0BC99BBBF0AD08C
:101A7000BAA113D0C033BF33BE33BD33002AD8B4AC
:101A8000C7D00BD0C0BF0CD0D890BD37BE37BF3742
:101A9000C0370006D8B4BCD0F5D7BC8D6DD0BC9D86
:101AA000B3C6BBF6B3AF02D0C08FABD0C09FA9D036
:101AB000B6C6BAF6B6C600F0B251BA5FB3C6C0F643
:101AC000C08FB4C6BFF6B5C6BEF6BD6BD890C033E6
:101AD000BF33BE33BD33BA2FF8D7BBAF03D0BC83FF
:101AE0009CD0BC93BA91BC8B060EEA6EB90EE96E1F
:101AF000A7D0BC9BBBBF0AD0BAA113D0C033BF33A1
:101B0000BE33BD33002AD8B483D00BD0C0BF0CD0B5
:101B1000D890BD37BE37BF37C0370006D8B478D0AD
:101B2000F5D7BC8F29D0BC9FB7C6BBF6B7AF02D0E4
:101B3000C08F67D0C09F65D0B7C6C0F6C08FB8C68B
:101B4000BFF6B9C6BEF6BBAF04D0C09FBC8565D09A
:101B5000BC95BD6BBA91060EEA6EB50EE96E70D0FB
:101B6000BBBF1CD0B3C6BBF6BAA106D0C033BF33CF
:101B7000BE33BD33002A4CE0BDAF0BD0BE2B09E114
:101B8000BF2B07E1C02B05E1C033BF33BE33002AB2
:101B90003FE0BCBD84D7BCBFC6D71CD0800EC01BE5
:101BA000C0AF04D03AD0B7C6BBF60AD0B3C6BBF6B6
:101BB000C05306E1BF5304E1BE5302E1006A21D0E5
:101BC000C0BF08D0D890BD37BE37BF37C037002E52
:101BD000F7D71ED0BBAF02D0C08F13D0C09F11D09B
:101BE000B6C600F0B7C6C0F6B8C6BFF6B9C6BEF6F0
:101BF00008D0B2C600F0B3C6C0F6B4C6BFF6B5C6CC
:101C0000BEF6C0C601F0BFC602F0BEC603F034D0B7
:101C1000006A016A026A036A2FD0BD6BBE1FBF1F34
:101C2000C01FBD1FBD2B05E1BE2B03E1BF2B01E192
:101C3000C02BBCB112D7BCB354D7BCB589D7B3D76E
:101C4000EF50BE2705E3BF2B03E1C02BD8B4BA8108
:101C5000ED52EF50BF2703E3C02BD8B4BA81ED5249
:101C6000EF50EFBE01D0800AC027D8B0BA81BCB90E
:101C7000FCD6BCBB3ED774D70001000CF2CF7DF67A
:101C8000F29EAA6AA96AA69CA69EA680A8500601F2
:101C90007DBFF28E05014B6F0A0E0601866F0001B3
:101CA000A3EC09F0F2CF7DF6F29EAA6A010EA96EAE
:101CB000A69CA69EA680A85006017DBFF28E0501B7
:101CC0004C6F0A0E0601866F0001A3EC09F0F2CFFB
:101CD0007DF6F29EAA6A020EA96EA69CA69EA6801A
:101CE000A85006017DBFF28E05014D6F0A0E060158
:101CF000866F0001A3EC09F0F2CF7DF6F29EAA6A8E
:101D0000030EA96EA69CA69EA680A85006017DBFC4
:101D1000F28E05014E6F0A0E0601866F0001A3ECDC
:101D200009F0F2CF7DF6F29EAA6A040EA96EA69C77
:101D3000A69EA680A85006017DBFF28E05012B6FDE
:101D40000A0E0601866F0001A3EC09F0F2CF7DF6C2
:101D5000F29EAA6A050EA96EA69CA69EA680A85011
:101D600006017DBFF28E05012C6F0A0E0601866FFB
:101D70000001A3EC09F0F2CF7DF6F29EAA6A060EEE
:101D8000A96EA69CA69EA680A85006017DBFF28ED5
:101D900005012D6F0A0E0601866F0001A3EC09F004
:101DA000F2CF7DF6F29EAA6A070EA96EA69CA69EA9
:101DB000A680A85006017DBFF28E05012E6F0A0E87
:101DC0000601866F0001A3EC09F0F2CF7DF6F29ECA
:101DD000AA6A080EA96EA69CA69EA680A850060117
:101DE0007DBFF28E0501336F0A0E0601866F00017A
:101DF000A3EC09F0F2CF7DF6F29EAA6A090EA96E55
:101E0000A69CA69EA680A85006017DBFF28E050165
:101E1000346F0A0E0601866F0001A3EC09F0F2CFC1
:101E20007DF6F29EAA6A0A0EA96EA69CA69EA680C0
:101E3000A85006017DBFF28E0501356F0A0E06011E
:101E4000866F0001A3EC09F0F2CF7DF6F29EAA6A3C
:101E50000B0EA96EA69CA69EA680A85006017DBF6B
:101E6000F28E0501366F0A0E0601866F0001A3ECA3
:101E700009F0F2CF7DF6F29EAA6A0C0EA96EA69C1E
:101E8000A69EA680A85006017DBFF28E0501376F81
:101E90000A0E0601866F0001A3EC09F0F2CF7DF671
:101EA000F29EAA6A0D0EA96EA69CA69EA680A850B8
:101EB00006017DBFF28E0501386F0A0E0601866F9E
:101EC0000001A3EC09F0F2CF7DF6F29EAA6A0E0E95
:101ED000A96EA69CA69EA680A85006017DBFF28E84
:101EE0000501396F0A0E0601866F0001A3EC09F0A7
:101EF000F2CF7DF6F29EAA6A0F0EA96EA69CA69E50
:101F0000A680A85006017DBFF28E05013A6F0A0E29
:101F10000601866F0001A3EC09F0F2CF7DF6F29E78
:101F2000AA6A100EA96EA69CA69EA680A8500601BD
:101F30007DBFF28E0501436F0A0E0601866F000118
:101F4000A3EC09F0F2CF7DF6F29EAA6A110EA96EFB
:101F5000A69CA69EA680A85006017DBFF28E050114
:101F6000446F0A0E0601866F0001A3EC09F0F2CF60
:101F70007DF6F29EAA6A120EA96EA69CA69EA68067
:101F8000A85006017DBFF28E0501456F0A0E0601BD
:101F9000866F0001A3EC09F0F2CF7DF6F29EAA6AEB
:101FA000130EA96EA69CA69EA680A85006017DBF12
:101FB000F28E0501466F0A0E0601866F0001A3EC42
:101FC00009F0F2CF7DF6F29EAA6A150EA96EA69CC4
:101FD000A69EA680A85006017DBFF28E05013F6F28
:101FE0000A0E0601866F0001A3EC09F0F2CF7DF620
:101FF000F29EAA6A160EA96EA69CA69EA680A8505E
:1020000006017DBFF28E0501406F0A0E0601866F44
:102010000001A3EC09F0F2CF7DF6F29EAA6A170E3A
:10202000A96EA69CA69EA680A85006017DBFF28E32
:102030000501416F0A0E0601866F0001A3EC09F04D
:10204000F2CF7DF6F29EAA6A180EA96EA69CA69EF5
:10205000A680A85006017DBFF28E0501426F0A0ED0
:102060000601866F0001A3EC09F0F2CF7DF6F29E27
:10207000AA6A190EA96EA69CA69EA680A850060163
:102080007DBFF28E05010F6F0A0E0601866F0001FB
:10209000A3EC09F0F2CF7DF6F29EAA6A1A0EA96EA1
:1020A000A69CA69EA680A85006017DBFF28EB36BAB
:1020B000B26F000138EC0CF003C08EF502C08DF554
:1020C00001C08CF500C08BF50A0E0601866F000179
:1020D000A3EC09F08EC5B1F68DC5B0F68CC5AFF690
:1020E0008BC5AEF60601B56BB46B200EB36F820ED6
:1020F000B26F000153EC0CF003C08EF502C08DF5F9
:1021000001C08CF500C08BF50601B36B0FC5B2F6AC
:10211000000138EC0CF0D89203C0B5F602C0B4F65A
:1021200001C0B3F600C0B2F68EC5B9F68DC5B8F6DB
:102130008CC5B7F68BC5B6F665DC03C082F502C068
:1021400081F501C080F500C07FF5F2CF7DF6F29EEB
:10215000AA6A1B0EA96EA69CA69EA680A850060180
:102160007DBFF28E05010F6F0A0E0601866F00011A
:10217000A3EC09F0F2CF7DF6F29EAA6A1C0EA96EBE
:10218000A69CA69EA680A85006017DBFF28EB36BCA
:10219000B26F000138EC0CF003C08EF502C08DF573
:1021A00001C08CF500C08BF50A0E0601866F000198
:1021B000A3EC09F08EC5B1F68DC5B0F68CC5AFF6AF
:1021C0008BC5AEF60601B56BB46B200EB36F820EF5
:1021D000B26F000153EC0CF003C08EF502C08DF518
:1021E00001C08CF500C08BF50601B36B0FC5B2F6CC
:1021F000000138EC0CF0D89203C0B5F602C0B4F67A
:1022000001C0B3F600C0B2F68EC5B9F68DC5B8F6FA
:102210008CC5B7F68BC5B6F602EC0DF003C086F59B
:1022200002C085F501C084F500C083F5F2CF7DF6CC
:10223000F29EAA6A1E0EA96EA69CA69EA680A85013
:1022400006017DBFF28E7E6FF2CF7FF6F29EAA6A04
:102250001D0EA96EA69CA69EA680A8507FBFF28EDA
:10226000806F7EC603F08051B26F03C0B3F60001E9
:1022700038EC0CF003C00EF602C00DF601C00CF6EF
:1022800000C00BF60A0E0601866F0001A3EC09F0F0
:10229000F2CF7DF6F29EAA6A220EA96EA69CA69E99
:1022A000A680A85006017DBFF28E7E6FF2CF7FF62A
:1022B000F29EAA6A210EA96EA69CA69EA680A85090
:1022C0007FBFF28E806F7EC624F580C623F50A0E8E
:1022D000866F0001A3EC09F0F2CF7DF6F29EAA6AA8
:1022E0001F0EA96EA69CA69EA680A85006017DBFC3
:1022F000F28E0501226B216F0A0E0601866F000126
:10230000A3EC09F0F2CF7DF6F29EAA6A200EA96E28
:10231000A69CA69EA680A85006017DBFF28E040151
:102320003A6F0A0E0601866F0001A3EC09F0F2CFA6
:102330007DF6F29EAA6A3D0EA96EA69CA69EA68078
:10234000A85006017DBFF28E7E6FF2CF7FF6F29E1F
:10235000AA6A3C0EA96EA69CA69EA680A8507FBF26
:10236000F28E806F7EC603F08051B26F03C0B3F669
:10237000000138EC0CF003C05EF502C05DF501C051
:102380005CF500C05BF50A0E0601866F0001A3EC48
:1023900009F0F2CF7DF6F29EAA6A3F0EA96EA69CC6
:1023A000A69EA680A85006017DBFF28E7E6FF2CF5A
:1023B0007FF6F29EAA6A3E0EA96EA69CA69EA680F5
:1023C000A8507FBFF28E806F7EC603F08051B26F3F
:1023D00003C0B3F6000138EC0CF003C01AF602C0DB
:1023E00019F601C018F600C017F60A0E0601866F2E
:1023F0000001A3EC09F0F2CF7DF6F29EAA6A320E3C
:10240000A96EA69CA69EA680A85006017DBFF28E4E
:102410000501076F0A0E0601866F0001A3EC09F0A3
:10242000E3EF2FF0AFC6B6F60601B351B61BB6AF59
:1024300005D0D894D890AFBFD8802FD0AFC6B6F60D
:10244000B2C6B7F6AE51B75F06E0B6AF26D0D850E9
:10245000010AD86E22D0B3C6B7F6AF51B75F06E017
:10246000B6AF1BD0D850010AD86E17D0B4C6B7F695
:10247000B051B75F06E0B6AF10D0D850010AD86EA1
:102480000CD0B5C6B7F6B151B75F06E0B6AF05D010
:10249000D850010AD86E01D0D8900001000C050177
:1024A0004BBF03D04B51090803E34BBF01D016D0FB
:1024B0004B6BAA6AA96AA86AA69CA69EA684F2503B
:1024C000006EF29E0F01550EA76EAA0EA76EA68291
:1024D000A6B2FED7A6940050F21205014CBF03D05D
:1024E0004C51090803E34CBF01D017D04C6BAA6ACA
:1024F000010EA96EA86AA69CA69EA684F250006E44
:10250000F29E0F01550EA76EAA0EA76EA682A6B266
:10251000FED7A6940050F21205014DBF03D04D51D5
:10252000090803E34DBF01D017D04D6BAA6A020E14
:10253000A96EA86AA69CA69EA684F250006EF29E82
:102540000F01550EA76EAA0EA76EA682A6B2FED7E1
:10255000A6940050F21205014EBF03D04E51090857
:1025600003E34EBF01D017D04E6BAA6A030EA96ECB
:10257000A86AA69CA69EA684F250006EF29E0F0149
:10258000550EA76EAA0EA76EA682A6B2FED7A69477
:102590000050F21205012BBF03D02B51090803E3B1
:1025A0002BBF01D017D02B6BAA6A040EA96EA86AA4
:1025B000A69CA69EA684F250006EF29E0F01550EB8
:1025C000A76EAA0EA76EA682A6B2FED7A69400504A
:1025D000F21205012CBF03D02C51090803E32CBFD4
:1025E00001D017D02C6BAA6A050EA96EA86AA69C0A
:1025F000A69EA684F250006EF29E0F01550EA76EA5
:10260000AA0EA76EA682A6B2FED7A6940050F2121A
:1026100005012DBF03D02D51090803E32DBF01D0C3
:1026200019D0020E2D6FAA6A060EA96E020EA86EB0
:10263000A69CA69EA684F250006EF29E0F01550E37
:10264000A76EAA0EA76EA682A6B2FED7A6940050C9
:10265000F21205012EBF03D02E51090803E32EBF4D
:1026600001D017D02E6BAA6A070EA96EA86AA69C85
:10267000A69EA684F250006EF29E0F01550EA76E24
:10268000AA0EA76EA682A6B2FED7A6940050F2129A
:10269000050133BF03D03351090803E333BF01D031
:1026A00017D0336BAA6A080EA96EA86AA69CA69ECC
:1026B000A684F250006EF29E0F01550EA76EAA0E70
:1026C000A76EA682A6B2FED7A6940050F21205010C
:1026D00034BF03D03451090803E334BF01D017D00D
:1026E000346BAA6A090EA96EA86AA69CA69EA68447
:1026F000F250006EF29E0F01550EA76EAA0EA76E45
:10270000A682A6B2FED7A6940050F212050135BFEC
:1027100003D03551090803E335BF01D019D0020EAB
:10272000356FAA6A0A0EA96E020EA86EA69CA69E16
:10273000A684F250006EF29E0F01550EA76EAA0EEF
:10274000A76EA682A6B2FED7A6940050F21205018B
:1027500036BF03D03651090803E336BF01D017D086
:10276000366BAA6A0B0EA96EA86AA69CA69EA684C2
:10277000F250006EF29E0F01550EA76EAA0EA76EC4
:10278000A682A6B2FED7A6940050F212050137BF6A
:1027900003D03751090803E337BF01D017D0376B97
:1027A000AA6A0C0EA96EA86AA69CA69EA684F250E0
:1027B000006EF29E0F01550EA76EAA0EA76EA6829E
:1027C000A6B2FED7A6940050F212050138BF03D07E
:1027D0003851090803E338BF01D017D0386BAA6A13
:1027E0000D0EA96EA86AA69CA69EA684F250006E45
:1027F000F29E0F01550EA76EAA0EA76EA682A6B274
:10280000FED7A6940050F212050139BF03D039510A
:10281000090803E339BF01D017D0396BAA6A0E0E3D
:10282000A96EA86AA69CA69EA684F250006EF29E8F
:102830000F01550EA76EAA0EA76EA682A6B2FED7EE
:10284000A6940050F21205013ABF03D03A5109088C
:1028500003E33ABF01D017D03A6BAA6A0F0EA96EF4
:10286000A86AA69CA69EA684F250006EF29E0F0156
:10287000550EA76EAA0EA76EA682A6B2FED7A69484
:102880000050F212050143BF03D04351090803E38E
:1028900043BF01D017D0436BAA6A100EA96EA86A75
:1028A000A69CA69EA684F250006EF29E0F01550EC5
:1028B000A76EAA0EA76EA682A6B2FED7A694005057
:1028C000F212050144BF03D04451090803E344BF99
:1028D00001D017D0446BAA6A110EA96EA86AA69CF3
:1028E000A69EA684F250006EF29E0F01550EA76EB2
:1028F000AA0EA76EA682A6B2FED7A6940050F21228
:10290000050145BF03D04551090803E345BF01D088
:1029100017D0456BAA6A120EA96EA86AA69CA69E3D
:10292000A684F250006EF29E0F01550EA76EAA0EFD
:10293000A76EA682A6B2FED7A6940050F212050199
:1029400046BF03D04651090803E346BF01D017D064
:10295000466BAA6A130EA96EA86AA69CA69EA684B8
:10296000F250006EF29E0F01550EA76EAA0EA76ED2
:10297000A682A6B2FED7A6940050F21205013FBF70
:1029800003D03F51090803E33FBF01D017D03F6B8D
:10299000AA6A150EA96EA86AA69CA69EA684F250E5
:1029A000006EF29E0F01550EA76EAA0EA76EA682AC
:1029B000A6B2FED7A6940050F212050140BF03D084
:1029C0004051090803E340BF01D017D0406BAA6A09
:1029D000160EA96EA86AA69CA69EA684F250006E4A
:1029E000F29E0F01550EA76EAA0EA76EA682A6B282
:1029F000FED7A6940050F212050141BF03D0415109
:102A0000090803E341BF01D017D0416BAA6A170E32
:102A1000A96EA86AA69CA69EA684F250006EF29E9D
:102A20000F01550EA76EAA0EA76EA682A6B2FED7FC
:102A3000A6940050F212050142BF03D0425109088A
:102A400003E342BF01D018D0010E426FAA6A180EEC
:102A5000A96E010EA86EA69CA69EA684F250006EDA
:102A6000F29E0F01550EA76EAA0EA76EA682A6B201
:102A7000FED7A6940050F2120601B16BB06B480E5F
:102A8000AF6F830EAE6F82C5B5F681C5B4F680C553
:102A9000B3F67FC5B2F60001C5DC32E30501826BF7
:102AA000816B400E806F7F0E7F6FAA6A190EA96E30
:102AB000010EA86EA69CA69EA684F250006EF29E01
:102AC0000F01550EA76EAA0EA76EA682A6B2FED75C
:102AD000A6940050F212AA6A1A0EA96E050EA86EEC
:102AE000A69CA69EA684F250006EF29E550EA76E7E
:102AF000AA0EA76EA682A6B2FED7A6940050F21226
:102B00000601B16BB06B480EAF6F830EAE6F86C51A
:102B1000B5F685C5B4F684C5B3F683C5B2F6000133
:102B200081DC30E30501866B856B846B7F0E836FE0
:102B3000AA6A1B0EA96E010EA86EA69CA69EA6846C
:102B4000F250006EF29E0F01550EA76EAA0EA76EF0
:102B5000A682A6B2FED7A6940050F212AA6A1C0E54
:102B6000A96EA86AA69CA69EA684F250006EF29E4C
:102B7000550EA76EAA0EA76EA682A6B2FED7A69481
:102B80000050F2120601B16BB06B160EAF6F870EDC
:102B9000AE6F0EC6B5F60DC6B4F60CC6B3F60BC6D0
:102BA000B2F600013FDC31E306010E6B0D6B4B0EFC
:102BB0000C6F860E0B6FAA6A1D0EA96ECB0EA86E47
:102BC000A69CA69EA684F250006EF29E0F01550EA2
:102BD000A76EAA0EA76EA682A6B2FED7A694005034
:102BE000F212AA6A1E0EA96EA86AA69CA69EA684C8
:102BF000F250006EF29E550EA76EAA0EA76EA68228
:102C0000A6B2FED7A6940050F2120501225303E1AA
:102C100021513C0817E2226B216BAA6A1F0EA96E94
:102C2000A86AA69CA69EA684F250006EF29E0F0192
:102C3000550EA76EAA0EA76EA682A6B2FED7A694C0
:102C40000050F21204013A51060818E2020E3A6FDF
:102C5000AA6A200EA96E020EA86EA69CA69EA68445
:102C6000F250006EF29E0F01550EA76EAA0EA76ECF
:102C7000A682A6B2FED7A6940050F21205012451F6
:102C80000D0830E2FF0A03E1235110082BE2246B08
:102C9000236BAA6A210EA96EA86AA69CA69EA6848A
:102CA000F250006EF29E0F01550EA76EAA0EA76E8F
:102CB000A682A6B2FED7A6940050F212AA6A220EED
:102CC000A96EA86AA69CA69EA684F250006EF29EEB
:102CD000550EA76EAA0EA76EA682A6B2FED7A69420
:102CE0000050F2120601B16BB06B480EAF6F860E4A
:102CF000AE6F5EC5B5F65DC5B4F65CC5B3F65BC533
:102D0000B2F6000112EC12F02EE305015E6B5D6B72
:102D10005C6B5B6BAA6A3C0EA96EA86AA69CA69E19
:102D2000A684F250006EF29E0F01550EA76EAA0EF9
:102D3000A76EA682A6B2FED7A6940050F212AA6A87
:102D40003D0EA96EA86AA69CA69EA684F250006EAF
:102D5000F29E550EA76EAA0EA76EA682A6B2FED749
:102D6000A6940050F2120601B16BB06B610EAF6F0A
:102D7000880EAE6F1AC6B5F619C6B4F618C6B3F605
:102D800017C6B2F6000112EC12F031E306011A6B1D
:102D9000196B700E186F860E176FAA6A3E0EA96E19
:102DA000F00EA86EA69CA69EA684F250006EF29E1F
:102DB0000F01550EA76EAA0EA76EA682A6B2FED769
:102DC000A6940050F212AA6A3F0EA96EA86AA69CA9
:102DD000A69EA684F250006EF29E550EA76EAA0E15
:102DE000A76EA682A6B2FED7A6940050F2120501E5
:102DF0000751140819E20A0E076FAA6A320EA96E6B
:102E00000A0EA86EA69CA69EA684F250006EF29EA4
:102E10000F01550EA76EAA0EA76EA682A6B2FED708
:102E2000A6940050F21205010001E5EF2FF0060113
:102E30008235006E0036FC0E001600C001F0C25054
:102E4000C30B0010C26E010E866F0001A3EC09F0E7
:102E5000C282C2B2FED7C4CF84F60601C3CF83F6C6
:102E600083C601F084C602F00001000C8E0E006ED5
:102E70000601AE51005EAFC602F0B0C601F0028E90
:102E8000005209E0D890025202E1015204E00232FD
:102E90000132002EF7D7AFAF05D0011E021E012A66
:102EA000D8B4022A0001000C0601AE51D8B471D08A
:102EB000006EB251D8B46DD0002604E3810E002616
:102EC00068E204D07F0E005E64E363E0AFC6B6F64E
:102ED000B351B61BAF8FB38FB151B503F4CFB8F672
:102EE000B051B403F4CF03F0F3CFB7F6B503F3500A
:102EF000B827F450B723000E0322B151B403F350A6
:102F0000B827F450B723000E026A03220222AF5101
:102F1000B503F350B727F4500322000E0222AF513D
:102F2000B403F3500326F4500222000E016A01227A
:102F3000B151B303F350B727F4500322000E02221D
:102F40000122B051B303F3500326F4500222000EC5
:102F50000122AF51B303F3500226F4500122002A9C
:102F600001BE05D0B7370336023601360006000E23
:102F7000B7AF0AD0032A02220122015005E1025014
:102F800003E1035001E1002AB6BF018EB6AF019EF6
:102F900004D0006A016A026A036A0001000C06019B
:102FA000AD91A1C6A6F6A0C6A5F69FC6A4F69EC67C
:102FB000A3F6A1C6B1F6A0C6B0F69FC6AFF69EC6F0
:102FC000AEF6B56BB46BB36BB26B000112EC12F0E2
:102FD00005E30601AD81A451800AA46FA6C6B1F62F
:102FE000A5C6B0F6A4C6AFF6A3C6AEF60601B56B8D
:102FF000B46BB36B8E0EB26F000112EC12F001E2F3
:1030000018E1A6C6B1F6A5C6B0F6A4C6AFF6A3C62B
:10301000AEF62CDF02C0B3F601C0B2F638EC0CF00D
:1030200003C0AAF602C0A9F601C0A8F600C0A7F620
:10303000CFD0A6C6B1F6A5C6B0F6A4C6AFF6A3C655
:10304000AEF6800E0601B56F960EB46F180EB36F14
:10305000960EB26F000112EC12F0D8A0B1D0A6C645
:10306000B1F6A5C6B0F6A4C6AFF6A3C6AEF6060185
:10307000B56BB46BB36B8E0EB26F000153EC0CF0FA
:1030800003C0B1F602C0B0F601C0AFF600C0AEF6A4
:10309000EDDE02C0ACF601C0ABF6A6C6B1F6A5C621
:1030A000B0F6A4C6AFF6A3C6AEF60601B56BB46B18
:1030B000B36B8E0EB26F000153EC0CF000C0AEF695
:1030C00001C0AFF602C0B0F603C0B1F6ACC6B3F6AD
:1030D000ABC6B2F638EC0CF0D882B1C6B5F6B0C6C5
:1030E000B4F6AFC6B3F6AEC6B2F603C0B9F602C0C8
:1030F000B8F601C0B7F600C0B6F602EC0DF0060156
:10310000B16BB06BAF6B8E0EAE6F03C0B5F602C085
:10311000B4F601C0B3F600C0B2F60001C5DE03C0CC
:10312000A6F602C0A5F601C0A4F600C0A3F6ACC680
:10313000B3F6ABC6B2F638EC0CF00601B16BB06B6F
:10314000AF6B8E0EAE6F03C0B5F602C0B4F601C011
:10315000B3F600C0B2F60001A7DE03C0AAF602C0B3
:10316000A9F601C0A8F600C0A7F6A6C6B1F6A5C686
:10317000B0F6A4C6AFF6A3C6AEF678DE02C0B3F6CC
:1031800001C0B2F638EC0CF0D892AAC6B5F6A9C6C2
:10319000B4F6A8C6B3F6A7C6B2F603C0B9F602C025
:1031A000B8F601C0B7F600C0B6F602EC0DF003C0E9
:1031B000AAF602C0A9F601C0A8F600C0A7F608D07A
:1031C000A6C6AAF6A5C6A9F6A4C6A8F6A3C6A7F6DB
:1031D000A6C6B1F6A5C6B0F6A4C6AFF6A3C6AEF6AF
:1031E00045DE02C0B3F601C0B2F638EC0CF0D8826E
:1031F000A6C6B5F6A5C6B4F6A4C6B3F6A3C6B2F67F
:1032000003C0B9F602C0B8F601C0B7F600C0B6F602
:1032100002EC0DF003C0A6F602C0A5F601C0A4F6AC
:1032200000C0A3F60601ADA103D0A851800AA86F83
:10323000A6C6B1F6A5C6B0F6A4C6AFF6A3C6AEF64E
:10324000B56BB46BB36BB26B000112EC12F03CE0E7
:103250000601ADA11CD0A2531AE1D882AAC6B5F6C8
:10326000A9C6B4F6A8C6B3F6A7C6B2F6B96BB86BD2
:10327000B76B7F0EB66F000102EC0DF003C0AAF62B
:1032800002C0A9F601C0A8F600C0A7F60601ADB1BC
:103290001CD0A22D1AD0D892AAC6B5F6A9C6B4F6EB
:1032A000A8C6B3F6A7C6B2F6B96BB86BB76B7F0EFC
:1032B000B66F000102EC0DF003C0AAF602C0A9F639
:1032C00001C0A8F600C0A7F60601A1C6B1F6A0C6C7
:1032D000B0F69FC6AFF69EC6AEF6B56BB46BB36BD9
:1032E000B26B000112EC12F006E10601AA6BA96BA9
:1032F000A86BA76B0001A7C600F0A8C601F0A9C67D
:1033000002F0AAC603F0000C9DC6A1F69CC6A0F66A
:103310009BC69FF69AC69EF6010E0601A26F00019B
:103320003EDE01EF1AF09DC6A1F69CC6A0F69BC634
:103330009FF69AC69EF60601A26B000130DE25EFCD
:103340001AF091C6B1F690C6B0F68FC6AFF68EC62B
:10335000AEF60601B56BB46BB36BB26B000112EC49
:1033600012F0D8B4A0D08DC6B1F68CC6B0F68BC61C
:10337000AFF68AC6AEF691C6B5F690C6B4F68FC65D
:10338000B3F68EC6B2F653EC0CF000C096F601C050
:1033900097F602C098F603C099F603C0B1F602C0D2
:1033A000B0F601C0AFF600C0AEF60601B56BB46B67
:1033B000B36BB26B000112EC12F024E38DC6B1F6D0
:1033C0008CC6B0F68BC6AFF68AC6AEF691C6B5F619
:1033D00090C6B4F68FC6B3F68EC6B2F653EC0CF0B8
:1033E00000C096F601C097F602C098F603C099F6A1
:1033F00003C09DF602C09CF601C09BF600C09AF681
:1034000083D723D08DC6B1F68CC6B0F68BC6AFF687
:103410008AC6AEF691C6B5F690C6B4F68FC6B3F6B8
:103420008EC6B2F653EC0CF000C096F601C097F6CB
:1034300002C098F603C099F603C09DF602C09CF640
:1034400001C09BF600C09AF66ED703C095F602C085
:1034500094F601C093F600C092F695C6B1F694C6F4
:10346000B0F693C6AFF692C6AEF691C6B5F690C664
:10347000B4F68FC6B3F68EC6B2F616DDD8828DC608
:10348000B5F68CC6B4F68BC6B3F68AC6B2F603C0E0
:10349000B9F602C0B8F601C0B7F600C0B6F602EC45
:1034A0000DF001D000D0000C8E0E006EA5C601F00C
:1034B000A4C602F0036A01AE05D0011E021E022A54
:1034C00001E1012A015209E102C001F0026A080E7D
:1034D000005E015202E1006A0DD0D89001BE04D016
:1034E000023601360006F9D70601A5AF02D0000169
:1034F00001D0019E0001000C91C695F690C694F68D
:103500008FC693F68EC692F695C6B1F694C6B0F6FF
:1035100093C6AFF692C6AEF60601B56BB46BB36B4D
:103520007F0EB26F000112EC12F0D8B443D2060E37
:103530000601A46F920EE96EA4C6EAFF7E0EEF6E3E
:10354000D88295C6B5F694C6B4F693C6B3F692C6BD
:10355000B2F6B96BB86BB76B7F0EB66F000102ECB9
:103560000DF000C0A3F601C0A4F602C0A5F603C08A
:10357000A6F6D89295C6B5F694C6B4F693C6B3F639
:1035800092C6B2F60601B96BB86BB76B7F0EB66F19
:10359000000102EC0DF0A6C6B1F6A5C6B0F6A4C6B1
:1035A000AFF6A3C6AEF603C0B5F602C0B4F601C0CE
:1035B000B3F600C0B2F653EC0CF003C095F602C0AF
:1035C00094F601C093F600C092F695C6B1F694C683
:1035D000B0F693C6AFF692C6AEF695C6B5F694C6EB
:1035E000B4F693C6B3F692C6B2F65EDC03C0A1F69B
:1035F00002C0A0F601C09FF600C09EF6BC0E0601F8
:10360000B16F240EB06F670EAF6F7D0EAE6FA1C6A7
:10361000B5F6A0C6B4F69FC6B3F69EC6B2F60001D4
:1036200043DC00C0A3F601C0A4F602C0A5F603C0A7
:10363000A6F6D89203C0B5F602C0B4F601C0B3F640
:1036400000C0B2F6E30E0601B96FE40EB86F900E3B
:10365000B76F820EB66F000102EC0DF003C099F651
:1036600002C098F601C097F600C096F699C6B1F66A
:1036700098C6B0F697C6AFF696C6AEF6A1C6B5F632
:10368000A0C6B4F69FC6B3F69EC6B2F60DDC00C067
:10369000A3F601C0A4F602C0A5F603C0A6F6D89210
:1036A00003C0B5F602C0B4F601C0B3F600C0B2F66E
:1036B0001C0E0601B96F870EB86F570EB76F830ED9
:1036C000B66F000102EC0DF003C099F602C098F647
:1036D00001C097F600C096F699C6B1F698C6B0F646
:1036E00097C6AFF696C6AEF6A1C6B5F6A0C6B4F6B6
:1036F0009FC6B3F69EC6B2F654EC17F000C0A3F610
:1037000001C0A4F602C0A5F603C0A6F6D89203C075
:10371000B5F602C0B4F601C0B3F600C0B2F6AB0E07
:103720000601B96FE10EB86F9E0EB76F830EB66FCC
:10373000000102EC0DF003C099F602C098F601C03A
:1037400097F600C096F60601B16BB06BAF6B7F0EBB
:10375000AE6FA1C6B5F6A0C6B4F69FC6B3F69EC6B8
:10376000B2F6000154EC17F000C0A3F601C0A4F6B5
:1037700002C0A5F603C0A6F6D89203C0B5F602C0F3
:10378000B4F601C0B3F600C0B2F6B40E0601B96FCC
:103790002A0EB86F820EB76FB66F000102EC0DF003
:1037A00003C09DF602C09CF601C09BF600C09AF6CD
:1037B0009DC6B1F69CC6B0F69BC6AFF69AC6AEF6ED
:1037C000A1C6B5F6A0C6B4F69FC6B3F69EC6B2F6BD
:1037D00054EC17F000C0A3F601C0A4F602C0A5F691
:1037E00003C0A6F6D89203C0B5F602C0B4F601C075
:1037F000B3F600C0B2F6800E0601B96F3E0EB86F88
:10380000060EB76F830EB66F000102EC0DF003C019
:103810009DF602C09CF601C09BF600C09AF69DC6BC
:10382000B1F69CC6B0F69BC6AFF69AC6AEF6A1C678
:10383000B5F6A0C6B4F69FC6B3F69EC6B2F654EC73
:1038400017F000C0A3F601C0A4F602C0A5F603C09D
:10385000A6F6D89203C0B5F602C0B4F601C0B3F61E
:1038600000C0B2F6AB0E0601B96FE10EB86F9E0E46
:10387000B76F820EB66F000102EC0DF003C09DF62B
:1038800002C09CF601C09BF600C09AF695C6B1F640
:1038900094C6B0F693C6AFF692C6AEF699C6B5F624
:1038A00098C6B4F697C6B3F696C6B2F654EC17F0BF
:1038B00000C0A3F601C0A4F602C0A5F603C0A6F698
:1038C00003C0B1F602C0B0F601C0AFF600C0AEF65C
:1038D0009DC6B5F69CC6B4F69BC6B3F69AC6B2F6BC
:1038E00053EC0CF003C099F602C098F601C097F6AD
:1038F00000C096F6060E0601A46F8E0EE96EA4C6F1
:10390000EAFF7E0EEF5CA26FA2BF01D014D0000EC2
:10391000D880A255A56BA46FA4BFA5070001C4DD84
:1039200000C09AF60150800A06019B6F02C09CF607
:1039300003C09DF610D0A56BA2C6A4F6A4BFA50730
:103940000001B2DD03C09DF602C09CF601C09BF6EB
:1039500000C09AF606019DC6B1F69CC6B0F69BC69D
:10396000AFF69AC6AEF6180EB56F720EB46F310E82
:10397000B36F7E0EB26F000154EC17F0D89299C667
:10398000B5F698C6B4F697C6B3F696C6B2F603C0B7
:10399000B9F602C0B8F601C0B7F600C0B6F602EC40
:1039A0000DF003C099F602C098F601C097F600C06A
:1039B00096F606D00601996B986B976B966B000193
:1039C00096C600F097C601F098C602F099C603F0BB
:1039D000000C91C6B1F690C6B0F68FC6AFF68EC693
:1039E000AEF6180E0601B56F720EB46F310EB36FDE
:1039F0007E0EB26F000153EC0CF003C0B1F602C0B2
:103A0000B0F601C0AFF600C0AEF636EC17F001C05C
:103A10009EF606019F9191C695F690C694F68FC6C4
:103A200093F68EC692F691C6B1F690C6B0F68FC6E2
:103A3000AFF68EC6AEF6B56BB46BB36BB26B00016E
:103A400012EC12F006E306019F819E6D9351800AED
:103A5000936F0601996B986B976B966B060EA16F2F
:103A6000960EE96EA1C6EAFF7F0E9E25EF6E95C603
:103A7000B1F694C6B0F693C6AFF692C6AEF6180E7F
:103A8000B56F720EB46F310EB36F7E0EB26F000160
:103A900053EC0CF000C0A0F601C0A1F602C0A2F6E3
:103AA00003C0A3F60601A56B9EC6A4F6A4BFA50796
:103AB0000001FADCD882A3C6B5F6A2C6B4F6A1C648
:103AC000B3F6A0C6B2F603C0B9F602C0B8F601C09C
:103AD000B7F600C0B6F602EC0DF003C095F602C0D2
:103AE00094F601C093F600C092F67C0E0601B16F09
:103AF000880EB06F590EAF6F720EAE6F95C6B5F6E9
:103B000094C6B4F693C6B3F692C6B2F6000154EC6E
:103B100017F000C0A0F601C0A1F602C0A2F603C0D3
:103B2000A3F6D89203C0B5F602C0B4F601C0B3F64E
:103B300000C0B2F6E00E0601B96F970EB86F260E00
:103B4000B76F750EB66F000102EC0DF003C09DF665
:103B500002C09CF601C09BF600C09AF69DC6B1F665
:103B60009CC6B0F69BC6AFF69AC6AEF695C6B5F63D
:103B700094C6B4F693C6B3F692C6B2F654EC17F0F8
:103B800000C0A0F601C0A1F602C0A2F603C0A3F6D1
:103B9000D89203C0B5F602C0B4F601C0B3F600C0B7
:103BA000B2F6C40E0601B96F1D0EB86F1E0EB76FC8
:103BB000780EB66F000102EC0DF003C09DF602C056
:103BC0009CF601C09BF600C09AF69DC6B1F69CC655
:103BD000B0F69BC6AFF69AC6AEF695C6B5F694C6D5
:103BE000B4F693C6B3F692C6B2F654EC17F000C022
:103BF000A0F601C0A1F602C0A2F603C0A3F6D892B7
:103C000003C0B5F602C0B4F601C0B3F600C0B2F608
:103C10005E0E0601B96F500EB86F630EB76F7A0E65
:103C2000B66F000102EC0DF003C09DF602C09CF6D9
:103C300001C09BF600C09AF69DC6B1F69CC6B0F6D0
:103C40009BC6AFF69AC6AEF695C6B5F694C6B4F660
:103C500093C6B3F692C6B2F654EC17F000C0A0F6C5
:103C600001C0A1F602C0A2F603C0A3F6D89203C019
:103C7000B5F602C0B4F601C0B3F600C0B2F61A0E33
:103C80000601B96FFE0EB86F750EB76F7C0EB66F7A
:103C9000000102EC0DF003C09DF602C09CF601C0CD
:103CA0009BF600C09AF69DC6B1F69CC6B0F69BC6C0
:103CB000AFF69AC6AEF695C6B5F694C6B4F693C6F8
:103CC000B3F692C6B2F654EC17F000C0A0F601C0ED
:103CD000A1F602C0A2F603C0A3F6D89203C0B5F6BF
:103CE00002C0B4F601C0B3F600C0B2F6180E060169
:103CF000B96F720EB86F310EB76F7E0EB66F0001DE
:103D000002EC0DF003C09DF602C09CF601C09BF6CC
:103D100000C09AF695C6B1F694C6B0F693C6AFF653
:103D200092C6AEF69DC6B5F69CC6B4F69BC6B3F673
:103D30009AC6B2F654EC17F0D8920601B56BB46B84
:103D4000B36B7F0EB26F03C0B9F602C0B8F601C004
:103D5000B7F600C0B6F6000102EC0DF099C6B1F658
:103D600098C6B0F697C6AFF696C6AEF603C0B5F6DF
:103D700002C0B4F601C0B3F600C0B2F654EC17F0BE
:103D800003C099F602C098F601C097F600C096F6F7
:103D900006019FA119D0B16BB06BAF6B7F0EAE6FF8
:103DA00099C6B5F698C6B4F697C6B3F696C6B2F6F7
:103DB000000153EC0CF003C099F602C098F601C064
:103DC00097F600C096F6060196C600F097C601F079
:103DD00098C602F099C603F00001000C85C6B1F642
:103DE00084C6B0F683C6AFF682C6AEF60601B56BE2
:103DF000B46BB36BB26B000112EC12F0D8A0D9D047
:103E000089C68DF688C68CF687C68BF686C68AF676
:103E10000601916B906B8F6B7F0E8E6F0001A1EC92
:103E200019F000C08AF601C08BF602C08CF603C000
:103E30008DF603C0B1F602C0B0F601C0AFF600C007
:103E4000AEF60601B56BB46BB36BB26B000112EC4E
:103E500012F0D8A4AED089C68DF688C68CF687C677
:103E60008BF686C68AF60601916B906B8F6B800E7F
:103E70008E6F0001A1EC19F000C08AF601C08BF62C
:103E800002C08CF603C08DF603C0B1F602C0B0F6D6
:103E900001C0AFF600C0AEF60601B56BB46BB36BF4
:103EA000B26B000112EC12F041E182C68AF6060103
:103EB0008351800A8B6F84C68CF685C68DF685C6C5
:103EC00091F684C690F68F6F82C68EF600017CEC68
:103ED0001AF000C08AF601C08BF602C08CF603C04F
:103EE0008DF603C0B1F602C0B0F601C0AFF600C057
:103EF000AEF689C6B5F688C6B4F687C6B3F686C6EA
:103F0000B2F654EC17F000C08AF601C08BF602C07E
:103F10008CF603C08DF603C091F602C090F601C086
:103F20008FF600C08EF655DDDED042D082C68AF60E
:103F300006018351800A8B6F84C68CF685C68DF688
:103F400085C691F684C690F68F6F82C68EF6000104
:103F50007CEC1AF000C08AF601C08BF602C08CF629
:103F600003C08DF603C0B1F602C0B0F601C0AFF6D3
:103F700000C0AEF689C6B5F688C6B4F687C6B3F6F5
:103F800086C6B2F654EC17F000C08AF601C08BF674
:103F900002C08CF603C08DF603C091F602C090F605
:103FA00001C08FF600C08EF614DD800E011A9BD082
:103FB0009AD085C6B1F684C6B0F683C6AFF682C67F
:103FC000AEF60601B56BB46BB36BB26B000112ECCD
:103FD00012F030E389C68DF688C68CF687C68BF65C
:103FE00086C68AF60601916B906B8F6B7F0E8E6F83
:103FF0000001A1EC19F000C08AF601C08BF602C0E6
:104000008CF603C08DF603C0B1F602C0B0F601C055
:10401000AFF600C0AEF60601B56BB46BB36BB26B16
:10402000000112EC12F006E0006A016A026A036AFB
:104030005AD059D085C6B1F684C6B0F683C6AFF65D
:1040400082C6AEF60601B56BB46BB36BB26B000102
:1040500012EC12F012E189C6B1F688C6B0F687C636
:10406000AFF686C6AEF60601B56BB46BB36BB26B3A
:10407000000112EC12F001E236E185C691F684C629
:1040800090F683C68FF682C68EF67CEC1AF000C0DE
:104090008AF601C08BF602C08CF603C08DF603C011
:1040A000B1F602C0B0F601C0AFF600C0AEF689C6E8
:1040B000B5F688C6B4F687C6B3F686C6B2F654EC33
:1040C00017F000C08AF601C08BF602C08CF603C060
:1040D0008DF603C091F602C090F601C08FF600C0C5
:1040E0008EF677DC00D0000C0601826B000117EC25
:1040F00017F002C01AF501C019F5050107510A08A9
:1041000023E11AC5B3F619C5B2F6000138EC0CF07C
:10411000D89203C0B5F602C0B4F601C0B3F600C031
:10412000B2F65EC5B9F65DC5B8F65CC5B7F65BC557
:10413000B6F602EC0DF003C076F502C075F501C0CD
:1041400074F500C073F505010751140822E11AC582
:10415000B3F619C5B2F6000138EC0CF0D88203C0F2
:10416000B5F602C0B4F601C0B3F600C0B2F65EC543
:10417000B9F65DC5B8F65CC5B7F65BC5B6F602EC38
:104180000DF003C076F502C075F501C074F500C0EE
:1041900073F576C585F675C584F674C583F673C563
:1041A00082F60601896B886B400E876F800E866FE2
:1041B000000114DE00C07EF601C07FF602C080F66A
:1041C00003C081F603C0B1F602C0B0F601C0AFF67D
:1041D00000C0AEF696C5B5F695C5B4F694C5B3F66F
:1041E00093C5B2F654EC17F000C07EF601C07FF61E
:1041F00002C080F603C081F676C585F675C584F6E3
:1042000074C583F673C582F60601896B886B876B6C
:10421000800E866F0001E2DD00C082F601C083F6E9
:1042200002C084F603C085F603C0B1F602C0B0F642
:1042300001C0AFF600C0AEF69AC5B5F699C5B4F6A2
:1042400098C5B3F697C5B2F654EC17F0EACF83F6EB
:10425000E9CF82F6D89281C6B5F680C6B4F67FC69D
:10426000B3F67EC6B2F603C0B9F602C0B8F601C016
:10427000B7F600C0B6F602EC0DF083C6EAFF82C6C0
:10428000E9FF00C07EF601C07FF602C080F603C0E1
:1042900081F676C5B1F675C5B0F674C5AFF673C5CF
:1042A000AEF69EC5B5F69DC5B4F69CC5B3F69BC5E6
:1042B000B2F654EC17F0EACF85F6E9CF84F6D8923F
:1042C00081C6B5F680C6B4F67FC6B3F67EC6B2F632
:1042D00003C0B9F602C0B8F601C0B7F600C0B6F622
:1042E00002EC0DF085C6EAFF84C6E9FF00C07EF649
:1042F00001C07FF602C080F603C081F6EACF87F6E0
:10430000E9CF86F6D89203C0B5F602C0B4F601C074
:10431000B3F600C0B2F6A2C5B9F6A1C5B8F6A0C5FD
:10432000B7F69FC5B6F602EC0DF087C6EAFF86C663
:10433000E9FF03C072F502C071F501C070F500C05D
:104340006FF572C5B1F671C5B0F670C5AFF66FC541
:10435000AEF60601B56BB46BB36BB26B000112EC39
:1043600012F005E30501726B716B706B6F6B0601E8
:104370007D5105010D5D01E30D6B0D51040DF350F1
:10438000036AA30FE96E050E0320EA6E6FC5EFFF07
:1043900070C5ECFF71C5ECFF72C5ECFF0D2B06017B
:1043A000066B056B046B036B05010E6B010E0601BA
:1043B0007D5D05010E5D01E038E20E51040DF35004
:1043C000036AA30FE96E050E0320EA6EEFCF00F03B
:1043D000ECCF01F0ECCF02F0ECCF03F0EACF7FF6A8
:1043E000E9CF7EF6D89206C6B5F605C6B4F604C681
:1043F000B3F603C6B2F603C0B9F602C0B8F601C000
:10440000B7F600C0B6F6000102EC0DF07FC6EAFF79
:104410007EC6E9FF03C006F602C005F601C004F639
:1044200000C003F605010E2BC1D70601B36B7DC694
:10443000B2F6000138EC0CF006C6B1F605C6B0F6CF
:1044400004C6AFF603C6AEF603C0B5F602C0B4F6B6
:1044500001C0B3F600C0B2F653EC0CF000C07EF61B
:1044600001C07FF602C080F603C081F603C0B1F63A
:1044700002C0B0F601C0AFF600C0AEF682C5B5F618
:1044800081C5B4F680C5B3F67FC5B2F654EC17F01B
:1044900003C006F602C005F601C004F600C003F62C
:1044A00003C600F004C601F005C602F006C603F01C
:1044B00062EF30F00601816B806B7F6B7E6B020ECA
:1044C000826F000117EC17F002C01CF501C01BF54C
:1044D0001CC5B3F61BC5B2F638EC0CF003C012F6DF
:1044E00002C011F601C010F600C00FF612C6B1F6F8
:1044F00011C6B0F610C6AFF60FC6AEF61AC6B5F6C0
:1045000019C6B4F618C6B3F617C6B2F653EC0CF0DB
:1045100000C082F601C083F602C084F603C085F6AF
:10452000D88203C0B5F602C0B4F601C0B3F600C02D
:10453000B2F60601B96BB86BB76B7F0EB66F0001B0
:1045400002EC0DF003C016F602C015F601C014F619
:1045500000C013F616C6B1F615C6B0F614C6AFF60F
:1045600013C6AEF60601B56BB46BB36BB26B00014C
:1045700012EC12F005E30601166B156B146B136B4E
:10458000010E06017D5D05010C5D02E001E30C6B8F
:104590000C51040DF350036AE30FE96E050E03207E
:1045A000EA6E16C6B1F615C6B0F614C6AFF613C657
:1045B000AEF6D70E0601B56FA30EB46FB36B810EC6
:1045C000B26F000154EC17F000C0EFFF01C0ECFF28
:1045D00002C0ECFF03C0ECFF05010C2B0B6B010EBE
:1045E00006017D5D05010B5D01E038E20B51040D14
:1045F000F350036AE30FE96E050E0320EA6EEFCF76
:1046000000F0ECCF01F0ECCF02F0ECCF03F0EACFFA
:1046100083F6E9CF82F6D89281C6B5F680C6B4F6A5
:104620007FC6B3F67EC6B2F603C0B9F602C0B8F6CE
:1046300001C0B7F600C0B6F6000102EC0DF083C66B
:10464000EAFF82C6E9FF03C081F602C080F601C01E
:104650007FF600C07EF605010B2BC1D70601B36BB8
:104660007DC6B2F6000138EC0CF081C6B1F680C60A
:10467000B0F67FC6AFF67EC6AEF603C0B5F602C092
:10468000B4F601C0B3F600C0B2F653EC0CF003C0B0
:1046900081F602C080F601C07FF600C07EF67EC6BD
:1046A00000F07FC601F080C602F081C603F070EF13
:1046B00030F006019B51016A9A5D03E29AC600F050
:1046C0000CD0006A080E9C6F9A3700369B51005C34
:1046D000D8B0006E01369C2FF7D70001000C2CC417
:1046E000EAFF2BC4E9FF06019FC6EFFFE92AD8B411
:1046F000EA2AEF6A04012B2BD8B42C2B0001000C02
:10470000200E060195A9300E966F94C600F094AF66
:1047100007D0001E002A00C094F62D0E966F958FCC
:10472000015094C69AF6640E9B6F0001C2DF00C070
:1047300094F6300E01240601976F94C69AF60A0E7D
:104740009B6F0001B6DF300E00240601996F300E1A
:104750000124986F96C600F095A702D095AF959565
:1047600095B90BD095AF22D095B520D000C097F663
:1047700095B31CD000C098F619D0300E975D16E1A5
:1047800000C097F6200E966F95A704D09595958357
:1047900095AF9593300E985D09E100C098F6200E14
:1047A000976F95A7F7D7959395AF959195A505D058
:1047B00096C69FF6000193DF060195A305D097C624
:1047C0009FF600018CDF060195A104D098C69FF6E4
:1047D000000185DF99C69FF6000181DF000C010E04
:1047E0000601AA6FAB6FB06BA151A35DB16FB15160
:1047F000B1AF03D0000ED880B155036AA86F03C0D3
:10480000A9F6A251A45DB16FB151B1AF03D0000EB2
:10481000D880B155036AA66F03C0A7F6A151A35D66
:1048200002E2FF0EAA6FA251A45D02E2FF0EAB6F7F
:10483000A751A95D3CE303E1A651A85D38E3D890F8
:10484000A637A737A851A65D006EA951A75900C089
:10485000ACF6AD6FA851AC5DAE6FA951AD59AF6F5D
:10486000A95303E1B051A85D21E3A1C6B1F6A2C6E8
:10487000B2F6A5C6B3F60001FEEC0AF00601ADBF24
:1048800001D008D0A651AC27A751AD23AA51A1252C
:10489000A16F0AD0AE51AC27AF51AD23AA51A125CB
:1048A000A16FAB51A225A26FB02BDAD737D0D89029
:1048B000A837A937A651A85D006EA751A95900C015
:1048C000ACF6AD6FA651AC5DAE6FA751AD59AF6FF1
:1048D000A75303E1B051A65D21E3A1C6B1F6A2C67C
:1048E000B2F6A5C6B3F60001FEEC0AF00601ADBFB4
:1048F00001D008D0A851AC27A951AD23AB51A225B6
:10490000A26F0AD0AE51AC27AF51AD23AA51A12559
:10491000A16FAB51A225A26FB02BDAD70001000C1A
:1049200006019A532FE09851965D05E296C69DF6D2
:1049300098C69EF604D098C69DF696C69EF69951E6
:10494000975D05E297C69FF699C6A0F604D099C672
:104950009FF697C6A0F69D519E5D13E39FC69CF6F9
:104960009C51A05D0CE39DC6B1F69CC6B2F69BC6F9
:10497000B3F60001FEEC0AF006019C2BF1D79D2B4B
:10498000EAD72ED096C6A1F697C6A2F698C6A3F689
:1049900097C6A4F69BC6A5F6000121DF96C6A1F630
:1049A00099C6A2F698C6A3F699C6A4F69BC6A5F624
:1049B00016DF96C6A1F697C6A2F696C6A3F699C6C6
:1049C000A4F69BC6A5F60BDF98C6A1F697C6A2F67D
:1049D00098C6A3F699C6A4F69BC6A5F600DF060105
:1049E0000001000C060E04012C6F8B0E2B6F87C686
:1049F00094F61F0E0601956F000182DE06018A2DD6
:104A000028D0120E8825946F180E8925956F88C6B8
:104A100096F689C697F694C698F6996F010E9A6F26
:104A20009B6F00017DDF020E06018825946F010E49
:104A30008925956F94C696F6976F060E996F8B0E23
:104A4000986F020E9A6F9B6B00015CEC0BF027D005
:104A50000601120E8825946F180E8925956F88C659
:104A600096F689C697F694C698F6996F9A6B9B6BE3
:104A7000000156DF020E06018825946F010E89257C
:104A8000956F94C696F6976F060E996F8B0E986F7A
:104A9000020E9A6F010E9B6F00015CEC0BF0000C94
:104AA000060185C601F086C603F085C68BF686C66C
:104AB0008CF6040EEA6E170EE96E86C6E2FF85C616
:104AC000E1FFE752E6CFEEFFFCE1892D26D08A51C7
:104AD000080DF35088258B6F966B88C697F67F0E6E
:104AE000986F8BC699F6010E9A6F9B6F000118DFC5
:104AF000010E060187258B6F010E88258C6F8BC6F2
:104B000096F6976F040E996F170E986F8AC69AF6ED
:104B10009B6B00015CEC0BF00601895327E18A5185
:104B2000080DF35088258B6F966B88C697F67F0E1D
:104B3000986F8BC699F6010E9A6F9B6B0001F0DEA1
:104B4000010E060187258B6F010E88258C6F8BC6A1
:104B500096F6976F040E996F170E986F8AC69AF69D
:104B6000010E9B6F00015CEC0BF006010001000CD4
:104B7000040145B54BD047C587F6140E0601886F72
:104B80001E0E896F010E8A6F00012CDF48C587F663
:104B9000280E0601886F1E0E896F8A6B000122DFC6
:104BA00049C587F63C0E0601886F1E0E896F8A6B19
:104BB000000118DF47C587F6500E0601886F1E0EEC
:104BC000896F8A6B00010EDF040EEA6E170EE96E24
:104BD000F2CF85F6F29E000E85EC07F00A00090080
:104BE000F550EE6E0009FBE1060185BFF28E040E62
:104BF000866F170E856F140E876F886B010E896F95
:104C0000030E8A6F00014CDF04014585928A80BA49
:104C100070D0449D0501206B1F6B040136B768D02E
:104C20003687050E0601866F0001A3EC09F0010E20
:104C30000401356F355104085BE335510501045D0E
:104C40003BE1010E0401355D036A470FE96E050E75
:104C50000320EA6EEF2A010E355D036A470FE96E05
:104C6000050E0320EA6EEFBE0CD0EF50090809E2F2
:104C7000010E355D036A470FE96E050E0320EA6EEB
:104C8000EF6A010E355D036A470FE96E050E0320DA
:104C9000EA6EEFCF85F63551140DF3CF86F6060197
:104CA00085C687F686C688F61E0E896F010E8A6F46
:104CB000000198DE1AD00501010E0401355D036A7A
:104CC000470FE96E050E0320EA6EEFCF85F63551EA
:104CD000140DF3CF86F6060185C687F686C688F6DC
:104CE0001E0E896F8A6B00017DDE0401352BA2D771
:104CF00001D03697968084B06FD0449D0501206B1B
:104D00001F6B040136BB67D0368B050E0601866F1C
:104D10000001A3EC09F0010E0401356F35510408C0
:104D20005AE335510501045D3AE1010E0401355D98
:104D3000036A470FE96E050E0320EA6EEF06010EC7
:104D4000355D036A470FE96E050E0320EA6EEFBE7C
:104D500001D00AD0010E355D036A470FE96E050EDA
:104D60000320EA6E090EEF6E010E355D036A470FF0
:104D7000E96E050E0320EA6EEFCF85F63551140D6E
:104D8000F3CF86F6060185C687F686C688F61E0E20
:104D9000896F010E8A6F000125DE1AD00501010E10
:104DA0000401355D036A470FE96E050E0320EA6EC4
:104DB000EFCF85F63551140DF3CF86F6060185C683
:104DC00087F686C688F61E0E896F8A6B00010ADE9A
:104DD0000401352BA3D701D0369B968284B253D0E1
:104DE000449D0501206B1F6B040136B94BD03689F9
:104DF000050E0601866F0001A3EC09F00501042BE6
:104E0000010E0401356F355104083CE335510501AD
:104E1000045D1CE1010E0401355D036A470FE96E74
:104E2000050E0320EA6EEFCF85F63551140DF3CF52
:104E300086F6060185C687F686C688F61E0E896F39
:104E4000010E8A6F0001CEDD1AD00501010E0401AA
:104E5000355D036A470FE96E050E0320EA6EEFCF5A
:104E600085F63551140DF3CF86F6060185C687F613
:104E700086C688F61E0E896F8A6B0001B3DD0401B9
:104E8000352BC1D701D03699968484B424D0640ED2
:104E90000601866F0001A3EC09F0968484B41BD050
:104EA0007EC603F50601856B000121EC0AF00401C2
:104EB0004595010E0501056F046F476B486B496B03
:104EC0004A6B0601856B000121EC0AF04EEC0AF0FA
:104ED000010E016ED7D1050104510408D8B0D3D119
:104EE0000601856B000121EC0AF0010E0501046F3B
:104EF0000401449D0501206B1F6B47510308D8A492
:104F00007CD048510808D8A478D04951090875E1E7
:104F10004A51020872E106017F53D8B402D005015C
:104F20006CD0AA6AA96AA86AA69CA69EA684F2501A
:104F3000006EF29E0F01550EA76EAA0EA76EA682F6
:104F4000A6B2FED7A6940050F212140E0601866F88
:104F50000001A3EC09F0AA6A010EA96EA86AA69C3A
:104F6000A69EA684F250006EF29E0F01550EA76E0B
:104F7000AA0EA76EA682A6B2FED7A6940050F21281
:104F8000140E0601866F0001A3EC09F0AA6A020E56
:104F9000A96EA86AA69CA69EA684F250006EF29EF8
:104FA0000F01550EA76EAA0EA76EA682A6B2FED757
:104FB000A6940050F212140E0601866F0001A3ECB5
:104FC00009F0AA6A030EA96EA86AA69CA69EA684EA
:104FD000F250006EF29E0F01550EA76EAA0EA76E3C
:104FE000A682A6B2FED7A6940050F212140E0601B5
:104FF000866F0001A3EC09F0FF0006018151050155
:10500000475DD8A479D0060182510501485DD8A436
:1050100073D0060183510501495D6EE1060184519B
:1050200005014A5D69E10601856B000121EC0AF08A
:10503000040EEA6E170EE96EF2CF85F6F29E000EB0
:1050400085EC07F00A000900F550EE6E0009FBE15F
:10505000060185BFF28E040E866F170E856F1E0E39
:10506000876F886B896B020E8A6F000119DD040E51
:10507000EA6E170EE96EF2CF85F6F29E000E97ECFF
:1050800007F00A000900F550EE6E0009FBE1060189
:1050900085BFF28E040E866F170E856F0F0E876F19
:1050A0001E0E886F896B020E8A6F0001F9DC80C6C4
:1050B00003F54EEC0AF0040E0601856FFA0E866FBA
:1050C0000001A3EC09F00601852FF8D7856B0001DC
:1050D00021EC0AF00501476B486B496B4A6B0601EE
:1050E0007F5302E10401448304014595010E016EE2
:1050F0000001C8D0C7D005010601856B000121EC75
:105100000AF0040EEA6E170EE96EF2CF85F6F29EF3
:10511000000E85EC07F00A000900F550EE6E00095C
:10512000FBE1060185BFF28E040E866F170E856FB8
:105130001E0E876F886B896B020E8A6F0001B0DCD0
:10514000040EEA6E170EE96EF2CF85F6F29E000E9F
:10515000ABEC07F00A000900F550EE6E0009FBE128
:10516000060185BFF28E040E866F170E856F876B62
:105170001E0E886F896B020E8A6F000191DC010E92
:105180000501046F00014EEC0AF0040E0601856F64
:10519000FA0E866F0001A3EC09F00601852FF8D7FF
:1051A0000501476B486B496B4A6B0601856B000133
:1051B00021EC0AF00601966B976B7F0E986F190E23
:1051C000996F010E9A6F9B6F000190EC24F0040E12
:1051D000EA6E170EE96EF2CF85F6F29E000E85ECB0
:1051E00007F00A000900F550EE6E0009FBE1060128
:1051F00085BFF28E190E966F010E976F040E996F90
:10520000170E986F030E9A6F9B6B00015CEC0BF00E
:1052100047C587F6140E0601886F1E0E896F010EB2
:105220008A6F0001F2EC24F048C587F6280E0601CB
:10523000886F1E0E896F8A6B0001F2EC24F049C55D
:1052400087F63C0E0601886F1E0E896F8A6B00017F
:10525000F2EC24F047C587F6500E0601886F1E0E4B
:10526000896F8A6B0001F2EC24F07EC603F506011B
:10527000856B000121EC0AF004014595000E016EDA
:10528000000100D005010001000C060E04012C6F86
:10529000820E2B6F7DC694F61F0E0601956F0001DE
:1052A00080EC23F00601802D2CD08151060DF350A7
:1052B0007E258B6F8151080DF3507F258C6F7EC644
:1052C00096F67FC697F68BC698F6996F010E9A6F81
:1052D0009B6F000190EC24F0020E06017E258B6F7F
:1052E000010E7F258C6F8BC696F6976F060E996F11
:1052F000820E986F81C69AF69B6B00015CEC0BF0F6
:10530000060180532DE18151060DF3507E258B6FF0
:105310008151080DF3507F258C6F7EC696F67FC6AF
:1053200097F68BC698F6996F010E9A6F9B6B0001EA
:1053300090EC24F0020E06017E258B6F010E7F2576
:105340008C6F8BC696F6976F060E996F820E986FCC
:1053500081C69AF6010E9B6F00015CEC0BF0060112
:105360000001000C060181518303F3CF01F0F4CF5B
:1053700000F08403F350002682518303F350002091
:10538000026E0001000C06017D51030851E17E6BA5
:105390007E513F084DE37F6B7F510F0847E3070EB7
:1053A000806F8051800A7F083FE2826B7EC681F663
:1053B000846B100E836F0001D5DF02C082F601C03E
:1053C00081F606017F510124016E000E0220036E5A
:1053D0000150F2CF81F6F29E03C0F7FF00015BECB3
:1053E00001F0060181BFF28E816F070ED8808055D3
:1053F000826F81C600F08251016E04E0D8900032C5
:10540000012EFCD700A00ED07F51080DF35080254F
:10541000816FB16F7EC6B2F6010EB36F0001FEEC74
:105420000AF006018007BDD77F2BB6D77E2BB0D7F9
:105430007D51040851E17E6B7E513F084DE37F6B47
:105440007F510F0847E3070E806F8051800A7F0865
:105450003FE2826B7EC681F6846B100E836F000183
:1054600081DF02C082F601C081F606017F5101246E
:10547000016E000E0220036E0150F2CF81F6F29E03
:1054800003C0F7FF000169EC03F0060181BFF28E53
:10549000816F070ED8808055826F81C600F08251DF
:1054A000016E04E0D8900032012EFCD700A00ED08F
:1054B0007F51080DF3508025816FB16F7EC6B2F623
:1054C000010EB36F0001FEEC0AF006018007BDD7A4
:1054D0007F2BB6D77E2BB0D77D51050851E17E6B6F
:1054E0007E513F084DE37F6B7F510F0847E3070E66
:1054F000806F8051800A7F083FE2826B7EC681F612
:10550000846B100E836F00012DDF02C082F601C094
:1055100081F606017F510124016E000E0220036E08
:105520000150F2CF81F6F29E03C0F7FF000177EC45
:1055300005F0060181BFF28E816F070ED88080557D
:10554000826F81C600F08251016E04E0D890003273
:10555000012EFCD700A00ED07F51080DF3508025FE
:10556000816FB16F7EC6B2F6010EB36F0001FEEC23
:105570000AF006018007BDD77F2BB6D77E2BB0D7A8
:105580000001000C06019F51B6089F6F036AA0C678
:10559000A3F6A08FD890A033A133A23303320232F6
:1055A000013200329F2FF6D7A3AF0BD0001E011E91
:1055B000021E031E002AD8B4012AD8B4022AD8B485
:1055C000032A000150EF2BF0006A016A026A036AA5
:1055D0000601A76BA86BA96BAA6BA651A511A41114
:1055E000A3112CE0200EAB6FD8909F37A037A137C6
:1055F000A237A737A837A937AA37A651AA5D08E16D
:10560000A551A95D05E1A451A85D02E1A351A75DE3
:105610000FE3A351A75FA451D8A0A43DA85FA55153
:10562000D8A0A53DA95FA651D8A0A63DAA5FD88065
:105630000036013602360336AB2FD6D7060EEA6E99
:10564000A70EE96E0001000CE9500601976F965114
:10565000996F1CE095C6B1F694C6B0F693C6AFF646
:1056600092C6AEF6B56BB46B200EB36F820EB26FFE
:10567000000154EC17F003C095F602C094F601C087
:1056800093F600C092F60601992FE4D795C6A2F6CC
:1056900094C6A1F693C6A0F692C69FF6000172D7F3
:1056A00003C095F602C094F601C093F600C092F6CE
:1056B000060195AF0DD09707978B921F931F941FEC
:1056C000951F922BD8B4932BD8B4942BD8B4952B88
:1056D0003B0E9E6F9A0E9D6FCA0E9C6F9B6B0A0EBF
:1056E000996F9651D8B4972B95C6A2F694C6A1F699
:1056F00093C6A0F692C69FF69EC6A6F69DC6A5F6D0
:105700009CC6A4F69BC6A3F600015EDF0150EFCF56
:1057100092F6ECCF93F6ECCF94F6ECCF95F60052E0
:1057200013E106019629995DD8A402D000010CD09E
:1057300097510DE00F0B995D01E044E297BF42D015
:1057400097BD05D0200E37D0200E0601971797ABD6
:105750000FD0979B9651D8A497070050976F2D0EA6
:105760009F6F00016FEC23F006019751006E976B5D
:105770009651995D0DE10050976F2E0E9F6F0001BD
:105780006FEC23F006019751006E200E9717000E64
:10579000300E97AB10D0979B9651D8A49707005026
:1057A000976F2D0E9F6F00016FEC23F0060197514C
:1057B000006E976B300E002600C09FF600016FEC64
:1057C00023F006019EC6A2F69DC6A1F69CC6A0F6D1
:1057D0009BC69FF6A66BA56BA46B0A0EA36F000178
:1057E000F3DE03C09EF602C09DF601C09CF600C029
:1057F0009BF60601992F78D7000112EF2CF0060EC8
:1058000004012C6F890E2B6FE96E84C695F683C652
:1058100094F682C693F681C692F6020E0601966F42
:10582000000112D70601872D2CD08851300DF3507E
:105830008525926F8851080DF3508625936F85C694
:1058400096F686C697F692C698F6996F010E9A6FED
:105850009B6F000190EC24F0020E06018525926FEB
:10586000010E8625936F92C696F6976F060E996F76
:10587000890E986F88C69AF69B6B00015CEC0BF062
:10588000060187532DE18851300DF3508525926F25
:105890008851080DF3508625936F85C696F686C607
:1058A00097F692C698F6996F010E9A6F9B6B00015E
:1058B00090EC24F0020E06018525926F010E8625DC
:1058C000936F92C696F6976F060E996F890E986F32
:1058D00088C69AF6010E9B6F00015CEC0BF0060186
:1058E0000001000CF86AD09E078EEA6AE96A04019A
:1058F0002E6B2D6B306B2F6B326B316B346B336BCC
:10590000356B369136933695386B376B396B3A6B0E
:105910003E6B3D6B3C6B3B6B426B416B406B3F6B3B
:1059200036973699369B369D369F439143934395E0
:1059300043974399439B439D439F4491449344958C
:1059400044974499449B449D449F45914593459574
:105950004597C80E0501036F010E046F056F066BB6
:105960000A0E076F086B096B0A6B0B6B0C6B0D6BE8
:105970000E6B0F6B106B116F126F136F146B156B37
:10598000166B176B186B1A6B196B1C6B1B6B1E6BF2
:105990001D6B206B1F6B226B216B246B236B266BA3
:1059A000256B526B516B506B4F6B566B556B546B39
:1059B000536B5A6B596B586B576B5E6B5D6B5C6BC3
:1059C0005B6B626B616B606B5F6B666B656B646B73
:1059D000636B6A6B696B686B676B6E6B6D6B6C6B23
:1059E0006B6B726B716B706B6F6B766B756B746BD3
:1059F000736B7A6B796B786B776B7E6B7D6B7C6B83
:105A00007B6B826B816B806B7F6B866B856B846B32
:105A1000836B8A6B896B886B876B8E6B8D6B8C6BE2
:105A20008B6B926B916B906B8F6B290E966FB60E92
:105A3000956F200E946F6E0E936FEE0E9A6F7D0E23
:105A4000996FEE0E986F770E976FED0E9E6F470E63
:105A50009D6F6D0E9C6F7F0E9B6F1A0EA26FD10E05
:105A6000A16F9C0EA06F860E9F6F0601066B056BE3
:105A7000046B036B0A6B096B500E086F860E076F81
:105A80000E6B0D6B0C6B0B6B126B116B106B0F6B4A
:105A9000166B156B146B136B1A6B196B186B800EEE
:105AA000176F1E6B1D6B1C6B1B6B786B776B040188
:105AB000459BC150C00B0F09C16E070EB46E2B6B16
:105AC0002C6B4A0E466F500E476F200E486F490EE2
:105AD000496F6E0E4A6F670E4B6F6C0E4C6F6F0EF8
:105AE0004D6F620E4E6F610E4F6F6C0E506F516BAB
:105AF000430E526F610E536F620E546F690E556FF5
:105B00006E0E566F610E576F200E586F450E596F0F
:105B1000780E5A6F740E5B6F720E5C6F610E5D6F64
:105B2000630E5E6F740E5F6F6F0E606F720E616F4B
:105B3000610E626F636B540E646F200E656F650EAD
:105B4000666F730E676F740E686F3D0E696F6A6BD8
:105B50003A0E6B6F6C6B530E6D6F690E6E6F6E0E3F
:105B60006F6F200E706F440E716F750E726F630E43
:105B7000736F740E746F6F0E756F730E766F776B35
:105B8000540E786F690E796F650E7A6F6D0E7B6FAC
:105B9000700E7C6F6F0E7D6F200E7E6F640E7F6FB8
:105BA000650E806F200E816F500E826F750E836FB1
:105BB000720E846F670E856F610E866F876B550E50
:105BC000886F560E896F8A6B210E8B6F8C6F550E06
:105BD0008D6F620E8E6F690E8F6F710E906F750EE6
:105BE000916F650E926F200E936F560E946F690E33
:105BF000956F640E966F720E976F690E986F6F0EA9
:105C0000996F210E9A6F9B6F9C6B4A0E9D6F500E81
:105C10009E6F430E9F6F450EA06F470EA16F480EFB
:105C2000A26F2D0EA36F460EA46F2D0EA56F410E11
:105C3000A66FA76B500EA86F720EA96F650EAA6FA4
:105C4000730EAB6F280EAC6F690EAD6F6E0EAE6F3C
:105C5000480EAF6F320EB06F4F0EB16F290EB26F9C
:105C60003A0EB36FB46B460EB56F610EB66F620E2F
:105C7000B76F720EB86F690EB96F630EBA6F610EAF
:105C8000BB6F3A0EBC6F320EBD6F300EBE6F380E5A
:105C9000BF6F2E0EC06F300EC16FC26B410EC36F4F
:105CA000630EC46F740EC56F750EC66F610EC76F3D
:105CB0006C0EC86F3A0EC96FCA6B410ECB6F6A0E7D
:105CC000CC6F750ECD6F730ECE6F740ECF6F650EE9
:105CD000D06F3A0ED16FD26B550ED36F560ED46F74
:105CE0004C0ED56F690ED66F660ED76F650ED86FE6
:105CF0003A0ED96FDA6B460EDB6F690EDC6F6C0EF5
:105D0000DD6F740EDE6F650EDF6F720EE06F3A0EA0
:105D1000E16FE26B460EE36F610EE46F620EE56FBA
:105D2000720EE66F690EE76F630EE86F610EE96F42
:105D30003A0EEA6F320EEB6F330EEC6F350EED6FED
:105D40002E0EEE6F300EEF6FF06B210EF16F460EE0
:105D5000F26F690EF36F6C0EF46F740EF56F720EC6
:105D6000F66F6F0EF76F200EF86F530EF96F610E1E
:105D7000FA6F740EFB6F750EFC6F720EFD6F610E85
:105D8000FE6F640EFF6F6F0E0501006F210E016F35
:105D9000026B276B286B296B2A6B090E2B6F2C6B00
:105DA0002D6B2E6B2F6B306B316B326B336F346B13
:105DB000356B366B376B386B396B3A6B3B6B3C6BC7
:105DC0003D6B3E6B3F6B406B416B426B436B446B77
:105DD000456B466B476B486B496B4A6B4B6B4C6B27
:105DE0004D6B4E6BA36BA46BA56BA66BA76BA86BDF
:105DF000A96BAA6BAB6BAC6BAD6BAE6BAF6BB06BE7
:105E0000B16BB26BB36BB46BB56BB66BB76BB86B96
:105E1000B96BBA6BBB6BBC6BBD6BBE6BBF6BC06B46
:105E2000C16BC26BC36BC46BC56BC66BC76BC86BF6
:105E3000C96BCA6BCB6BCC6BCD6BCE6BCF6BD06BA6
:105E4000D16BD26BD36BD46BD56BD66BD76BD86B56
:105E5000D96BDA6BDB6BDC6BDD6BDE6BDF6BE06B06
:105E6000E16BE26BE36BE46BE56BE66BE76BE86BB6
:105E7000E96BEA6BEB6BEC6BED6BEE6BEF6BF06B66
:105E8000F16BF26BF36BF46BF56BF66BF76BF86B16
:105E9000F96BFA6BFB6BFC6BFD6BFE6BFF6B06012A
:105EA000006B016B026B040E7D6FFA0E866F0001B2
:105EB000A3EC09F006017D2FF8D704013691060105
:105EC0007D6B0001B7EC09F00401426B416B260EBB
:105ED000406F850E3F6F3E6BB00E3D6F010E3C6F05
:105EE0008C0E3B6F8B949494F288F18CC150C00B54
:105EF0000B09C16EC050C00B0209C06EC08EC280BB
:105F0000C00EF21206017D6B0001B7EC09F08B9414
:105F100094948A829392010E06017D6F0001AAEC8F
:105F20000AF00601856B000121EC0AF00601966B70
:105F3000976B040E996F460E986F020E9A6F010EC2
:105F40009B6F00015CEC0BF0050E0601966F140EC2
:105F5000976F040E996F520E986F010E9A6F9B6F98
