:020000040000FA
:100000000CEF13F0FFFFFFFF046ED8CF05F0E0CF39
:1000100006F00001E9CF0CF0EACF07F0E1CF08F0DD
:10002000E2CF09F0D9CF0AF0DACF0BF0F3CF12F01C
:10003000F4CF13F0FACF14F000C00EF001C00FF0AF
:1000400002C010F003C011F09DA02AEF00F09EB096
:1000500017EF02F0F2A830EF00F0F2B289EF01F0F2
:100060000EC000F00FC001F010C002F011C003F08C
:100070000CC0E9FF07C0EAFF078E08C0E1FF09C016
:10008000E2FF0AC0D9FF0BC0DAFF12C0F3FF13C0B2
:10009000F4FF14C0FAFF045006C0E0FF05C0D8FF0B
:1000A0001000F76AB20FF66E000EF7220900F55045
:1000B0001200280C0106010EEA6E320EE96EEF50B6
:1000C0000EE0070E016E006A002EFED7012EFBD750
:1000D000C70E006E002EFED70000EF2EF2D7000CE8
:1000E00001013839F00B006E0F0E83140010836E7F
:1000F00000008384030E006E002EFED700D0839490
:100100000001000CF00E956E8380000083840000D7
:1001100083380F0B0101386F83940000838400D073
:1001200000D000D083380F0B376F8394000E956E8C
:100130003839006EF00E001600503711016E0001C4
:10014000000C8392DFDF01C037F1010101AE02D064
:100150000001F8D735A1839235B1838200008390E6
:10016000000083943639376F0F0E371737C138F1D7
:100170000001B6DF010136510F0B376F386F0001F8
:10018000AFDF000C000E956E8392839083940F0E68
:100190000101326F00018FDF010E01012F6F2F511E
:1001A00003080CE3030E386F00019ADF050E01010E
:1001B000326F000180DF01012F2BF1D7020E386F63
:1001C00000018EDF01012F6B2F51030812E3036A38
:1001D0002F51F2CF30F1F29E000163DF010130BFF9
:1001E000F28E306F356B366F0001ABDF01012F2BC4
:1001F000EBD700019AEF01F001012F5303E18B923D
:10020000949202D08B8294920001000C010E0101A5
:10021000335DFC0F15E2040F000129EF01F0800EA1
:100220000101346F0DD0C00E0101346F09D0940E5E
:100230000101346F05D0D40E0101346F01D00101EA
:10024000010E325D3427356B34C136F1000179DFA0
:10025000000C07AE03D0F2CF0DF0F29EE824F76A4F
:10026000F7367F0FF66E020EF7220A00F550FA6E8F
:100270000800F55007AE02D00DBEF28EF96E1E02D8
:1002800026022E02360201013151F10802E1EE0E82
:10029000316F31510C0A000105E0060A11E0020A33
:1002A00018E01ED00101356B010E366F000149DFE9
:1002B000010E176E020E0101326F0001FCDE18D034
:1002C000172A010E0101326F17C033F100019EDFC2
:1002D0000FD00101356B100E366F000132DF08D0F0
:1002E000010E0101356F31C136F100012ADF00D066
:1002F000000C0900F5520CE0F6CF2FF1F7CF30F1EA
:10030000F5CF31F1C0DF2FC1F6FF30C1F7FFF1D7D4
:10031000000C35B85DD0020E01012F6FFA0E326F5E
:100320000001C9DE01012F2FF9D7938081A04FD0A2
:10033000000128D721C02FF15FDF010E0101326FCC
:10034000336F000163DFD60EF66E030EF76ED1DF5A
:10035000010E0101326F020E336F000157DFEC0E08
:10036000F66E030EF76EC5DF010E0101326F030E4C
:10037000336F00014BDF020EF66E040EF76EB9DF2D
:10038000010E0101326F040E336F00013FDF180EC2
:10039000F66E040EF76EADDF080E01012F6FFA0E38
:1003A000326F000188DE01012F2FF9D70C0E316F5B
:1003B000000169DF3588186A3596020E01012F6F3A
:1003C000FA0E326F000177DE01012F2FF9D70001FD
:1003D000F29230EF00F020434142494E4120204547
:1003E0005854524143544F5241200000202044456C
:1003F0002048554D4F532059204741534553202005
:100400000000202020204A5020494E474C4F4241B6
:100410004C20202020200000205245463A20504108
:100420004E454C204A504345483135200000950E3A
:10043000CF6E8E0ECE6E4F2AD8B4502A532AD8B41F
:10044000542A5350140805E1545203E1546A536A84
:10045000358C35A003D0512AD8B4522A52500A08FC
:1004600006E2FF0A03E15150B70801E2358235AEDA
:100470000ED0552AD8B4562A56502D0808E2FF0A45
:1004800003E15550DF0803E234828B80949056508C
:10049000450807E2FF0A03E155504F0802E24E808B
:1004A000359E4F50C80814E1505212E1506A4F6A0D
:1004B000358A34A20DD035A40BD0312A31503C08F6
:1004C00002E1316A322A32503C0802E1326A332AB0
:1004D0009E9030EF00F0414C41524D4120202020B1
:1004E0002020202020204F464600414C41524D41C3
:1004F00020202020202020202020204F4E00464970
:100500004C54524F2020202020202020202020202A
:100510002000534554504F494E5420202020202085
:1005200020202020200043414D42494F20434F4E80
:1005300054524153454E412020004D4544494120ED
:100540004D4F56494C20202020202020200050557F
:100550004E544F205A45524F20202020202020204A
:1005600020004D414E54454E494D49454E544F2073
:100570002020202020004D4F444F202020202020EC
:100580002020202020202020200020202020204962
:100590006E677265736520202020202020200000D7
:1005A00020202020436F6E7472617365F1612020FA
:1005B00020202020000020202020434C4156453D93
:1005C0002569256925692569202000002020202033
:1005D000202020202020202020202020202020003B
:1005E0002020202020436F6E7472617365F16120BA
:1005F00020202000202020202020436F727265637D
:100600007461202020202000202020202020202075
:1006100020202020202020202020200020202020FA
:1006200020436F6E7472617365F161202020200099
:100630002020202020496E636F72726563746120F0
:1006400020202000202020202020202020202020CA
:1006500020202020202020002D2D2D4D454E5520DE
:100660005052494E434950414C2D2D2D0000202021
:10067000202020202020202020202020202020207A
:1006800020200000202020202020202041637469A9
:10069000766F2020202020200000202020202020F5
:1006A0002020416C61726D612020202020200000FC
:1006B000202020202020202020202020202020203A
:1006C000202020200000202020202020202020206A
:1006D000202020202020202020200000202020205A
:1006E000202044657361637469766F202020202088
:1006F000000020202020202020416C61726D6120AC
:100700002020202020200000202020202020202029
:100710002020202020202020202020200000202019
:100720004475726163696F6E2041637475616C20FA
:1007300020200000205469656D706F3D2025303207
:10074000753A253032753A2530327520000044451F
:1007500053414354495641523D204F7072696D6177
:10076000203E000020414354495641523D204F70E5
:1007700072696D61203E202000002052455345548F
:100780003D204F7072696D61205E202020200000A6
:10079000205265736574206465207469656D706F9F
:1007A00020002020202020457869746F736F20205E
:1007B00020202000202020202020536574706F69A5
:1007C0006E742020202020200000202020202020C7
:1007D0002025322E326620202000202020202020BC
:1007E000496E67726573652020202020202000005C
:1007F00020436F6E7472617365F16120416374759B
:10080000616C2020000020202020434C4156453DB3
:1008100025692569256925692020000020202020E0
:1008200020202020202020202020202020202020C8
:1008300000002020202020436F6E7472617365F1E8
:100840006120202020200000202020202020436F35
:100850007272656374612020202020200000202017
:100860002020202020202020202020202020202088
:1008700020200000202020202020202020202020B8
:100880002020202020202020000020202020204385
:100890006F6E7472617365F161202020202000006A
:1008A0002020202020496E636F727265637461207E
:1008B0002020202000002020202020202020202078
:1008C0002020202020202020202000002020202068
:1008D00020496E677265736520202020202020202B
:1008E00000002020436F6E7472617365F161204EC9
:1008F000756576612020000020202020434C415661
:10090000453D2569256925692569202000002020AD
:1009100020202020202020202020202020202020D7
:10092000202000002020202020436F6E747261730D
:1009300065F161202020202000002020202020417F
:100940006C6D6163656E6164612020202020000071
:100950002020202020202020202020202020202097
:1009600020202020000020202020204D6564696187
:10097000204D6F76696C2020202000002020202050
:1009800020202025303269202020000020205A65B8
:10099000726F20506F696E7420436F6E66696720B6
:1009A0000000496E466C6F773D2025322E3166205F
:1009B00020286D2F732920005A463D25322E30669F
:1009C000204144433D25322E3066000020446966B4
:1009D0006572656E6369613D25322E306600204D7B
:1009E000414E542E2020563D25322E3066202000C8
:1009F00044616D703D25322E306625252020543D02
:100A000025322E306620000049463D2025322E3109
:100A100066286D2F73292044616D3D25322E306686
:100A20000000416A75737465313D2025322E3266AF
:100A30002000204D4F444F20202044616D703D2503
:100A4000322E30662525200049463D2025322E31A4
:100A500066286D2F73292044616D3D25322E306646
:100A600000002020204D6F646F204D616E75616C19
:100A7000202000002020204D6F646F204175746F8E
:100A8000202020002020204D6F646F2053656D6969
:100A9000202020002020204D6F646F204D616E7556
:100AA000616C202000002020202053656C6563636A
:100AB000696F6E61646F2020202000002020204D8F
:100AC0006F646F204175746F20202000202020204B
:100AD00053656C656363696F6E61646F20202020CD
:100AE00000002020204D6F646F2053656D69202029
:100AF0002000204A502043454748000044616D7063
:100B00003D25322E306625250000496E466C6F77F4
:100B10003D2025322E316620286D2F7329200000BC
:100B200046696C74726F3A43414D000046696C74BB
:100B3000726F3A4F4B200000466C756A6F3D416AF8
:100B400075730000466C756A6F3D42616A6F000004
:100B5000466C756A6F3D416C746F0000466C756A37
:100B60006F3D4F4B202000004C757A3A4F4E2000CD
:100B70004C757A3A4F46462000004D6F746F723ABA
:100B80004F4E20004D6F746F723A4F464620000062
:100B9000202020202041706167616E646F2020203A
:100BA00020200000202020202020436162696E6107
:100BB00020202020202000002045737065726500F1
:100BC0002020202020202020202020202020202025
:100BD000202020200000202020202050726F6365FC
:100BE000736F202020202020000020202020466934
:100BF0006E616C697A61646F2020202000002020E3
:100C000020446573656120617061676172202020F6
:100C10002020000020202020206C61206361626978
:100C20006E6120202020202000002020203E204136
:100C30006365707461722020202020202020000035
:100C40002020203C2043616E63656C61722020206F
:100C50002020202000008E0E006E0AC101F009C184
:100C600002F0036A015209E102C001F0026A080EB3
:100C7000005E015202E1006A08D0D89001BE04D0A3
:100C8000023601360006F9D7019E000C01011E5103
:100C9000D8B4A5D02A6F2251D8B4A1D02A5F05E3D9
:100CA0007F0E2A27D8B09BD006D0810E2A5FD8A00D
:100CB00096D0D8B494D02AC100F0016A026A036ABF
:100CC000296B1FC128F1288F20C127F121C126F1EE
:100CD000190E2A6F2551265F0DE2010E275F0AE2E9
:100CE000285F08E2295F06E2292B282B272B2551B4
:100CF000262728D02451275F12E2010E285F0FE239
:100D0000295F0DE2292B282B24512727255126273F
:100D100019E3272B17E1282B15E1292B13D0235199
:100D20008009285F0EE2010E295F0BE2292B235177
:100D30008009282724512727E9E3282BE7E1292BDD
:100D4000E5D703802A2F01D00BD0D890263727373C
:100D500028372937D8900336023601362B37BAD7D1
:100D60002BA106D0D8900132023203322B3302D0AD
:100D7000000635E02BBF1ED0D890263727372837FE
:100D800029372551265F07E2010E275F04E2285F1D
:100D900002E2295F1AE32451275F05E2010E285F72
:100DA00002E2295F12E323518009285F03E2010E6A
:100DB000295F0BE3032A09E1022A07E1012A05E181
:100DC000002A0DE00132023203321FC12AF1235101
:100DD0002A1B2AAF02D0018E06D0019E04D0006AE1
:100DE000016A026A036A0001000C800ED8A202D0D8
:100DF0000101231B0101286B296B1FC127F123511E
:100E0000271B1E51D8B4DFD0266F006E2251D8B4F4
:100E1000E3D0265FD8B483D03EE323C12CF12C8FDE
:100E200024C12BF125C12AF1296BD8902C332B3307
:100E30002A332933262FF8D727AF03D02881E0D0D3
:100E4000289126912889010EEA6E210EE96EEBD0D9
:100E5000289927BF0AD026A113D02C332B332A334D
:100E60002933002AD8B4C7D00BD02CBF0CD0D890CF
:100E700029372A372B372C370006D8B4BCD0F5D702
:100E8000288D6DD0289D1FC127F11FAF02D02C8F58
:100E9000ABD02C9FA9D022C126F122C100F01E5157
:100EA000265F1FC12CF12C8F20C12BF121C12AF10B
:100EB000296BD8902C332B332A332933262FF8D79C
:100EC00027AF03D028839CD028932691288B010E2E
:100ED000EA6E250EE96EA7D0289B27BF0AD026A16F
:100EE00013D02C332B332A332933002AD8B483D0A0
:100EF0000BD02CBF0CD0D89029372A372B372C3762
:100F00000006D8B478D0F5D7288F29D0289F23C1E0
:100F100027F123AF02D02C8F67D02C9F65D023C13F
:100F20002CF12C8F24C12BF125C12AF127AF04D03D
:100F30002C9F288565D02895296B2691010EEA6E95
:100F4000210EE96E70D027BF1CD01FC127F126A14A
:100F500006D02C332B332A332933002A4CE029AF17
:100F60000BD02A2B09E12B2B07E12C2B05E12C338D
:100F70002B332A33002A3FE028BD84D728BFC6D7A9
:100F80001CD0800E2C1B2CAF04D03AD023C127F1EB
:100F90000AD01FC127F12C5306E12B5304E12A5339
:100FA00002E1006A21D02CBF08D0D89029372A3717
:100FB0002B372C37002EF7D71ED027AF02D02C8F1F
:100FC00013D02C9F11D022C100F023C12CF124C1D9
:100FD0002BF125C12AF108D01EC100F01FC12CF150
:100FE00020C12BF121C12AF12CC101F02BC102F04B
:100FF0002AC103F034D0006A016A026A036A2FD062
:10100000296B2A1F2B1F2C1F291F292B05E12A2B97
:1010100003E12B2B01E12C2B28B112D728B354D795
:1010200028B589D7B3D7EF502A2705E32B2B03E147
:101030002C2BD8B42681ED52EF502B2703E32C2B19
:10104000D8B42681ED52EF50EFBE01D0800A2C2794
:10105000D8B0268128B9FCD628BB3ED774D700016A
:10106000000C0900F6CF09F1F7CF0AF1166AF2BEBB
:10107000168EF29EF5CF31F143EC01F016BEF28EE2
:1010800009C1F6FF0AC1F7FF0101082F01D002D004
:101090000001E7D70001000C01010751016A065D5C
:1010A00003E206C100F00CD0006A080E086F063794
:1010B00000360751005CD8B0006E0136082FF7D714
:1010C0000001000C200E010101A9300E026F00C1C9
:1010D00000F000AF07D0001E002A00C000F12D0E66
:1010E000026F018F015000C106F1640E076F00010D
:1010F000D3DF00C000F1300E01240101036F00C1F5
:1011000006F10A0E076F0001C7DF300E002401014F
:10111000056F300E0124046F02C100F001A702D058
:1011200001AF019501B90BD001AF22D001B520D09C
:1011300000C003F101B31CD000C004F119D0300E7F
:10114000035D16E100C003F1200E026F01A704D079
:101150000195018301AF0193300E045D09E100C0E8
:1011600004F1200E036F01A7F7D7019301AF01919E
:1011700001A50CD0166AF2BE168EF29E02C131F1A4
:10118000000143EC01F016BEF28E010101A30CD068
:10119000166AF2BE168EF29E03C131F1000143ECD5
:1011A00001F016BEF28E010101A10CD0166AF2BE4A
:1011B000168EF29E04C131F1000143EC01F016BE1F
:1011C000F28E0101166AF2BE168EF29E05C131F151
:1011D000000143EC01F016BEF28E000C0101012D5E
:1011E00038D034B41AD0166AF2BE168EF29E020EB1
:1011F000326F02C133F1000106EC01F016BEF28E2F
:10120000D60EF66E040EF76E166AF2BE168EF29EBB
:1012100079EC01F016BEF28E010134A41AD0166AE0
:10122000F2BE168EF29E020E326F02C133F1000141
:1012300006EC01F016BEF28EEA0EF66E040EF76EA4
:10124000166AF2BE168EF29E79EC01F016BEF28E90
:101250000101015102081AE1166AF2BE168EF29ED1
:10126000020E326F02C133F1000106EC01F016BE2E
:10127000F28EFE0EF66E040EF76E166AF2BE168E33
:10128000F29E79EC01F016BEF28E010101510308C5
:101290001AE1166AF2BE168EF29E020E326F02C17B
:1012A00033F1000106EC01F016BEF28E120EF66E5E
:1012B000050EF76E166AF2BE168EF29E79EC01F0FC
:1012C00016BEF28E0101015104081AE1166AF2BE3F
:1012D000168EF29E020E326F02C133F1000106EC4F
:1012E00001F016BEF28E260EF66E050EF76E166A29
:1012F000F2BE168EF29E79EC01F016BEF28E01015E
:10130000015105081AE1166AF2BE168EF29E020E0F
:10131000326F02C133F1000106EC01F016BEF28E0D
:101320003A0EF66E050EF76E166AF2BE168EF29E35
:1013300079EC01F016BEF28E0101015106081AE1A6
:10134000166AF2BE168EF29E020E326F02C133F1A1
:10135000000106EC01F016BEF28E4E0EF66E050E82
:10136000F76E166AF2BE168EF29E79EC01F016BE8A
:10137000F28E0101015107081AE1166AF2BE168EBB
:10138000F29E020E326F02C133F1000106EC01F051
:1013900016BEF28E620EF66E050EF76E166AF2BE7D
:1013A000168EF29E79EC01F016BEF28E010101510B
:1013B00008081AE1166AF2BE168EF29E020E326F0D
:1013C00002C133F1000106EC01F016BEF28E760E7A
:1013D000F66E050EF76E166AF2BE168EF29E79EC68
:1013E00001F016BEF28E01010001000C0150FFC099
:1013F00006F1640E0101076F00014EDE00C0FFF030
:101400000150300E08E1010100A316D000B714D03E
:1014100000B9200E04D00101009700990081012637
:10142000166AF2BE168EF29E01C031F1000143EC45
:1014300001F016BEF28E0101FFC006F10A0E076F21
:1014400000012ADE00C0FFF00150300E08E101016A
:1014500000B710D000A10ED000B9200E0001012667
:10146000166AF2BE168EF29E01C031F143EC01F015
:1014700016BEF28E300E0001FF27166AF2BE168EDF
:10148000F29EFFC031F143EC01F016BEF28E000C6B
:1014900001011A51D8B471D0006E1E51D8B46DD06C
:1014A000002604E3810E002668E204D07F0E005E71
:1014B00064E363E01BC122F11F51221B1B8F1F8FAE
:1014C0001D512103F4CF24F11C512003F4CF03F06C
:1014D000F3CF23F12103F3502427F4502323000EEC
:1014E00003221D512003F3502427F4502323000E20
:1014F000026A032202221B512103F3502327F450D6
:101500000322000E02221B512003F3500326F45045
:101510000222000E016A01221D511F03F3502327EE
:10152000F4500322000E022201221C511F03F3502B
:101530000326F4500222000E01221B511F03F35018
:101540000226F4500122002A01BE05D023370336BB
:10155000023601360006000E23AF0AD0032A02220B
:101560000122015005E1025003E1035001E1002A8C
:1015700022BF018E22AF019E04D0006A016A026A76
:10158000036A0001000C01011551B608156F036ACA
:1015900016C119F1168FD89016331733183303324A
:1015A000023201320032152FF6D719AF0BD0001ED0
:1015B000011E021E031E002AD8B4012AD8B4022A32
:1015C000D8B4032A000150EF0BF0006A016A026AE6
:1015D000036A01011D6B1E6B1F6B206B1C511B11DD
:1015E0001A1119112CE0200E216FD89015371637DB
:1015F000173718371D371E371F3720371C51205D0E
:1016000008E11B511F5D05E11A511E5D02E11951F0
:101610001D5D0FE319511D5F1A51D8A01A3D1E5FC1
:101620001B51D8A01B3D1F5F1C51D8A01C3D205F43
:10163000D8800036013602360336212FD6D7010E68
:10164000EA6E1D0EE96E0001000CE95001010D6FFC
:101650000C510F6F1BE00BC11DF10AC11CF109C138
:101660001BF108C11AF1216B206B200E1F6F820E37
:101670001E6F00010DDF03C00BF102C00AF101C0B3
:1016800009F100C008F101010F2FE5D70BC118F1D6
:101690000AC117F109C116F108C115F1000173D78C
:1016A00003C00BF102C00AF101C009F100C008F14A
:1016B00001010BAF0DD00D070D8B081F091F0A1F6D
:1016C0000B1F082BD8B4092BD8B40A2BD8B40B2B7A
:1016D0003B0E146F9A0E136FCA0E126F116B0A0E27
:1016E0000F6F0C51D8B40D2B0BC118F10AC117F1B3
:1016F00009C116F108C115F114C11CF113C11BF188
:1017000012C11AF111C119F100015FDF0150EFCFD1
:1017100008F1ECCF09F1ECCF0AF1ECCF0BF100525C
:1017200013E101010C290F5DD8A402D000010CD0F7
:101730000D510DE00F0B0F5D01E05CE20DBF5AD0C3
:101740000DBD05D0200E49D0200E01010D170DABA7
:1017500015D00D9B0C51D8A40D0700500D6F166AC3
:10176000F2BE168EF29E2D0E316F000143EC01F099
:1017700016BEF28E01010D51006E0D6B0C510F5D06
:1017800013E100500D6F166AF2BE168EF29E2E0EF9
:10179000316F000143EC01F016BEF28E01010D51D4
:1017A000006E200E0D17000E300E0DAB16D00D9BE7
:1017B0000C51D8A40D0700500D6F166AF2BE168E9C
:1017C000F29E2D0E316F000143EC01F016BEF28E39
:1017D00001010D51006E0D6B300E0026166AF2BE2F
:1017E000168EF29E00C031F1000143EC01F016BEEE
:1017F000F28E010114C118F113C117F112C116F1D3
:1018000011C115F11C6B1B6B1A6B0A0E196F0001CD
:10181000DCDE03C014F102C013F101C012F100C0FC
:1018200011F101010F2F60D70001000C1BC122F143
:1018300001011F51221B22AF05D0D894D8901BBFA5
:10184000D8802FD01BC122F11EC123F11A51235F72
:1018500006E022AF26D0D850010AD86E22D01FC190
:1018600023F11B51235F06E022AF1BD0D850010AA1
:10187000D86E17D020C123F11C51235F06E022AFA0
:1018800010D0D850010AD86E0CD021C123F11D51BF
:10189000235F06E022AF05D0D850010AD86E01D0F0
:1018A000D8900001000C8E0E006EFF51005E00C14A
:1018B00002F001C101F0028E005209E0D8900252FC
:1018C00002E1015204E002320132002EF7D7010199
:1018D00000AF05D0011E021E012AD8B4022A000161
:1018E000000C01010435006E0036FC0E001600C02D
:1018F00001F0C250C30B0010C26E166AF2BE168E03
:10190000F29E0A0E326F00015BEC00F016BEF28E02
:10191000C282C2B2FED7C4CF0AF1C3CF09F100011F
:101920002BEC06F003C008F102C007F101C006F17C
:1019300000C005F105C100F006C101F007C102F0C9
:1019400008C103F0000CFFC0BEFF000C8E0E006E3D
:101950001BC101F01AC102F0036A01AE05D0011EDD
:10196000021E022A01E1012A015209E102C001F02E
:10197000026A080E005E015202E1006A0DD0D890A2
:1019800001BE04D0023601360006F9D701011BAFB3
:1019900002D0000101D0019E0001000C08C10CF131
:1019A00007C10BF106C10AF105C109F10CC11DF116
:1019B0000BC11CF10AC11BF109C11AF10101216B14
:1019C000206B1F6B7F0E1E6F000130DFD8B440D23A
:1019D000010E01011B6F090EE96E1BC1EAFF7E0EAD
:1019E000EF6ED8820CC121F10BC120F10AC11FF1A9
:1019F00009C11EF1256B246B236B7F0E226F000142
:101A0000F5EC06F000C01AF101C01BF102C01CF198
:101A100003C01DF1D8920CC121F10BC120F10AC104
:101A20001FF109C11EF10101256B246B236B7F0E91
:101A3000226F0001F5EC06F01DC121F11CC120F15F
:101A40001BC11FF11AC11EF103C025F102C024F110
:101A500001C023F100C022F146EC06F003C00CF1F6
:101A600002C00BF101C00AF100C009F10CC11DF167
:101A70000BC11CF10AC11BF109C11AF10CC121F102
:101A80000BC120F10AC11FF109C11EF101DD03C024
:101A900018F102C017F101C016F100C015F1BC0E1B
:101AA00001011D6F240E1C6F670E1B6F7D0E1A6FD8
:101AB00018C121F117C120F116C11FF115C11EF186
:101AC0000001E6DC00C01AF101C01BF102C01CF1EC
:101AD00003C01DF1D89203C021F102C020F101C062
:101AE0001FF100C01EF1E30E0101256FE40E246F0B
:101AF000900E236F820E226F0001F5EC06F003C0FA
:101B000010F102C00FF101C00EF100C00DF110C1C3
:101B10001DF10FC11CF10EC11BF10DC11AF118C14D
:101B200021F117C120F116C11FF115C11EF1B0DC62
:101B300000C01AF101C01BF102C01CF103C01DF16D
:101B4000D89203C021F102C020F101C01FF100C0F2
:101B50001EF11C0E0101256F870E246F570E236F97
:101B6000830E226F0001F5EC06F003C010F102C0F5
:101B70000FF101C00EF100C00DF110C11DF10FC138
:101B80001CF10EC11BF10DC11AF118C121F117C1D1
:101B900020F116C11FF115C11EF17ADC00C01AF147
:101BA00001C01BF102C01CF103C01DF1D89203C09B
:101BB00021F102C020F101C01FF100C01EF1AB0EE7
:101BC0000101256FE10E246F9E0E236F830E226F9D
:101BD0000001F5EC06F003C010F102C00FF101C0E6
:101BE0000EF100C00DF101011D6B1C6B1B6B7F0E14
:101BF0001A6F18C121F117C120F116C11FF115C1CB
:101C00001EF1000145DC00C01AF101C01BF102C049
:101C10001CF103C01DF1D89203C021F102C020F1D4
:101C200001C01FF100C01EF1B40E0101256F2A0E84
:101C3000246F820E236F226F0001F5EC06F003C0C3
:101C400014F102C013F101C012F100C011F114C16E
:101C50001DF113C11CF112C11BF111C11AF118C100
:101C600021F117C120F116C11FF115C11EF110DCC1
:101C700000C01AF101C01BF102C01CF103C01DF12C
:101C8000D89203C021F102C020F101C01FF100C0B1
:101C90001EF1800E0101256F3E0E246F060E236F8C
:101CA000830E226F0001F5EC06F003C014F102C0B0
:101CB00013F101C012F100C011F114C11DF113C1E3
:101CC0001CF112C11BF111C11AF118C121F117C188
:101CD00020F116C11FF115C11EF148EC0AF000C039
:101CE0001AF101C01BF102C01CF103C01DF1D89212
:101CF00003C021F102C020F101C01FF100C01EF19C
:101D0000AB0E0101256FE10E246F9E0E236F820E34
:101D1000226F0001F5EC06F003C014F102C013F1CC
:101D200001C012F100C011F10CC11DF10BC11CF179
:101D30000AC11BF109C11AF110C121F10FC120F133
:101D40000EC11FF10DC11EF148EC0AF000C01AF1DE
:101D500001C01BF102C01CF103C01DF103C021F141
:101D600002C020F101C01FF100C01EF114C125F115
:101D700013C124F112C123F111C122F146EC06F086
:101D800003C010F102C00FF101C00EF100C00DF14F
:101D9000010E01011B6F050EE96E1BC1EAFF7E0EED
:101DA000EF5C196F19BF01D014D0000ED8801955FF
:101DB0001B6B1A6F1ABF1B070001C8DD00C011F1B1
:101DC0000150800A0101126F02C013F103C014F127
:101DD00010D01B6B19C11AF11ABF1B070001B6DD29
:101DE00003C014F102C013F101C012F100C011F1DF
:101DF000010114C11DF113C11CF112C11BF111C16C
:101E00001AF1180E216F720E206F310E1F6F7E0EA9
:101E10001E6F000148EC0AF0D89210C121F10FC1E9
:101E200020F10EC11FF10DC11EF103C025F102C04A
:101E300024F101C023F100C022F1F5EC06F003C04B
:101E400010F102C00FF101C00EF100C00DF106D07B
:101E50000101106B0F6B0E6B0D6B00010DC100F0DB
:101E60000EC101F00FC102F010C103F024EF10F019
:101E70000101046B000135DD00C000F101C001F17A
:101E800002C002F103C003F103C01DF102C01CF146
:101E900001C01BF100C01AF10101216B206B200E63
:101EA0001F6F810E1E6F000148EC0AF000C000F1A8
:101EB00001C001F102C002F103C003F103C021F12E
:101EC00002C020F101C01FF100C01EF10101256B0D
:101ED000C00E246F7F0E236F880E226F000146EC28
:101EE00006F003C076F002C075F001C074F000C0C7
:101EF00073F0010E0101046F0001F3DC00C000F17A
:101F000001C001F102C002F103C003F103C01DF1E1
:101F100002C01CF101C01BF100C01AF10101216BCC
:101F2000206B200E1F6F810E1E6F000148EC0AF01F
:101F300000C000F101C001F102C002F103C003F1D1
:101F400003C021F102C020F101C01FF100C01EF149
:101F50000101256BC00E246F7F0E236F880E226F48
:101F6000000146EC06F003C07AF002C079F001C02F
:101F700078F000C077F00101216B206B200E1F6FFD
:101F8000810E1E6F7AC025F179C024F178C023F14B
:101F900077C022F1000146EC06F000C000F101C05C
:101FA00001F102C002F103C003F1D88203C021F1A4
:101FB00002C020F101C01FF100C01EF10101256B1C
:101FC000246B236B7F0E226F0001F5EC06F06EC0D0
:101FD00021F16DC020F16CC01FF16BC01EF103C078
:101FE00025F102C024F101C023F100C022F146EC2A
:101FF00006F003C072F002C071F001C070F000C0C2
:102000006FF072C021F171C020F170C01FF16FC07C
:102010001EF15EC025F15DC024F15CC023F15BC000
:1020200022F146EC06F000C000F101C001F102C04F
:1020300002F103C003F103C008F102C007F101C0BF
:1020400006F100C005F1AAD400C000F101C001F101
:1020500002C002F103C003F103C021F102C020F16C
:1020600001C01FF100C01EF15AC025F159C024F172
:1020700058C023F157C022F146EC06F000C000F131
:1020800001C001F102C002F103C003F10101216BA3
:10209000206B1F6B7F0E1E6F62C025F161C024F1A3
:1020A00060C023F15FC022F1000146EC06F0EACFE8
:1020B00005F1E9CF04F1D89203C121F102C120F169
:1020C00001C11FF100C11EF103C025F102C024F1BE
:1020D00001C023F100C022F1F5EC06F005C1EAFFD2
:1020E00004C1E9FF0101216B206B1F6B7F0E1E6F86
:1020F00003C025F102C024F101C023F100C022F188
:10210000000146EC06F003C066F002C065F001C0B5
:1021100064F000C063F0D88266C021F165C020F190
:1021200064C01FF163C01EF1330E0101256F930ED1
:10213000246F080E236F870E226F0001F5EC06F066
:1021400003C06AF002C069F001C068F000C067F027
:102150002C500A0830E10101046B000171EC0CF015
:1021600000C000F101C001F102C002F103C003F19F
:10217000EACF05F1E9CF04F1D89203C021F102C002
:1021800020F101C01FF100C01EF1BEC025F1BDC08D
:1021900024F1BCC023F1BBC022F1F5EC06F005C16F
:1021A000EAFF04C1E9FF03C09AF002C099F001C040
:1021B00098F000C097F02C50140830E10101046B36
:1021C000000171EC0CF000C000F101C001F102C08F
:1021D00002F103C003F1EACF05F1E9CF04F1D8829F
:1021E00003C021F102C020F101C01FF100C01EF1A7
:1021F000BEC025F1BDC024F1BCC023F1BBC022F19B
:10220000F5EC06F005C1EAFF04C1E9FF03C09AF04E
:1022100002C099F001C098F000C097F09AC01DF17B
:1022200099C01CF198C01BF197C01AF19AC021F116
:1022300099C020F198C01FF197C01EF148EC0AF038
:1022400003C09EF002C09DF001C09CF000C09BF056
:102250009AC01DF199C01CF198C01BF197C01AF1EA
:102260009EC021F19DC020F19CC01FF19BC01EF1BA
:1022700048EC0AF003C0A2F002C0A1F001C0A0F037
:1022800000C09FF0A2C01DF1A1C01CF1A0C01BF1B5
:102290009FC01AF17EC021F17DC020F17CC01FF1EA
:1022A0007BC01EF148EC0AF000C000F101C001F152
:1022B00002C002F103C003F19EC01DF19DC01CF1DC
:1022C0009CC01BF19BC01AF182C021F181C020F19A
:1022D00080C01FF17FC01EF148EC0AF0D89203C104
:1022E00021F102C120F101C11FF100C11EF103C0A3
:1022F00025F102C024F101C023F100C022F1F5EC68
:1023000006F000C000F101C001F102C002F103C0FB
:1023100003F19AC01DF199C01CF198C01BF197C040
:102320001AF186C021F185C020F184C01FF183C05D
:102330001EF148EC0AF0D89203C121F102C120F14C
:1023400001C11FF100C11EF103C025F102C024F13B
:1023500001C023F100C022F1F5EC06F000C000F14D
:1023600001C001F102C002F103C003F1D89203C021
:1023700021F102C020F101C01FF100C01EF18AC08E
:1023800025F189C024F188C023F187C022F1F5EC42
:1023900006F003C0B2F002C0B1F001C0B0F000C05E
:1023A000AFF0B2C01DF1B1C01CF1B0C01BF1AFC0A5
:1023B0001AF10101216B206B1F6B1E6B000116ECE3
:1023C0000CF004E3B26BB16BB06BAF6BFF51285CE8
:1023D00001E3286A2850040DF350036ACF0FE96E19
:1023E000000E0320EA6EAFC0EFFFB0C0ECFFB1C03B
:1023F000ECFFB2C0ECFF282A926B916B906B8F6B55
:10240000296A010EFF5D295C01E036E22950040DC6
:10241000F350036ACF0FE96E000E0320EA6EEFCF90
:1024200000F0ECCF01F0ECCF02F0ECCF03F0EACFFC
:1024300001F1E9CF00F1D89292C021F191C020F1D1
:1024400090C01FF18FC01EF103C025F102C024F11E
:1024500001C023F100C022F1F5EC06F001C1EAFF52
:1024600000C1E9FF03C092F002C091F001C090F0FA
:1024700000C08FF0292AC5D701010A6BFFC009F1FE
:1024800000012BEC06F092C021F191C020F190C028
:102490001FF18FC01EF103C025F102C024F101C05D
:1024A00023F100C022F146EC06F000C000F101C0AB
:1024B00001F102C002F103C003F103C01DF102C02B
:1024C0001CF101C01BF100C01AF1C2C021F1C1C052
:1024D00020F1C0C01FF1BFC01EF148EC0AF003C0DC
:1024E00092F002C091F001C090F000C08FF08FC058
:1024F00000F090C001F091C002F092C003F00BEF29
:1025000034F02D501408D8A479D034A277D0D882D2
:1025100045C021F144C020F143C01FF142C01EF16B
:102520008EC025F18DC024F18CC023F18BC022F127
:10253000F5EC06F003C0CEF002C0CDF001C0CCF047
:1025400000C0CBF0CEC01DF1CDC01CF1CCC01BF142
:10255000CBC01AF1CD0E0101216FCC0E206F4C0EB5
:102560001F6F7C0E1E6F000116EC0CF015E3CD0EF4
:1025700001011D6FCC0E1C6F1B6F7C0E1A6FCEC03D
:1025800021F1CDC020F1CCC01FF1CBC01EF1000164
:1025900016EC0CF001E326D001011D6B1C6B1B6BCC
:1025A0001A6BCEC021F1CDC020F1CCC01FF1CBC041
:1025B0001EF1000116EC0CF002E3010E2A26CEC03B
:1025C0001DF1CDC01CF1CCC01BF1CBC01AF1010133
:1025D000216B206B1F6B1E6B000116EC0CF002E3ED
:1025E000010E2A5E2A50FB0802E2FB0E2A6E2A50D8
:1025F000030802E3040E2A6E2AC0BEFF2E50140800
:1026000004E1FB0E2A6E2AC0BEFF2F50140802E11F
:1026100030C0BEFF17EF34F0F86AD09E078EEA6A2A
:10262000E96A640E186E090E196E020E1A6E0B0E10
:102630001B6E020E1C6E030E1D6E020E1E6E1F6EB2
:10264000040E206E0A0E216E226A236A246A256A0D
:10265000266A276A286A296A2A6E2B6A2C6E2D6ED2
:102660002E6E2F6E306A316A326A336A3490349239
:10267000349434963498349A349C349E3590359200
:102680003594366A456A446A436A426A496A486AC6
:10269000476A466A4D6A800E4C6E560E4B6E870E28
:1026A0004A6E3598359A359C359E4E904E924E9492
:1026B0004E96506A4F6A526A516A546A536A566A11
:1026C000556A5A6AE00E596E5D0E586E8A0E576E44
:1026D0005E6AC00E5D6E280E5C6E890E5B6E330EF8
:1026E000626F130E616F150E606F870E5F6E666B03
:1026F000656B646B636B6A6B696B686B676B6E6B46
:102700006D6B7A0E6C6F880E6B6F726B716B706B8A
:102710006F6B766B756B746B736B7A6B796B786BB5
:10272000776B980E7E6FD80E7D6F5E0E7C6F700E8D
:102730007B6F900E826FC00E816F910E806F7B0E4B
:102740007F6FDE0E866F680E856F7E0E846F830E40
:10275000836FE50E8A6F1D0E896F940E886F8B0E46
:10276000876F8E6B8D6B8C6B8B6B926B916B906BA1
:102770008F6B966B956B946B936B9A6B996B986B55
:10278000976B9E6B9D6B9C6B9B6BA26BA16BA06B05
:102790009F6BA66FFD0EA56F650EA46F7C0EA36FD9
:1027A000AA6BA96BA86BA76BAE6BAD6BAC6BAB6B7D
:1027B000B26BB16BB06BAF6BB66BB56BB46BB36B2D
:1027C000BA6BB96BB86BB76BBE6BBD6BBC6BBB6BDD
:1027D000C26BC16BC06B7F0EBF6FC66BC56B240E27
:1027E000C46F880EC36FCA6BC96BC86BC76BCE6BE7
:1027F000CD6BCC6BCB6BC150C00B0F09C16E070EFC
:10280000B46E3E0E376E200E386E5E0E396E3A6A2A
:102810003B6A3C6A3D6A3E6A3F6A406A416ACF6BE6
:10282000D06BD16BD26BD36BD46BD56BD66BD76BB4
:10283000D86BD96BDA6BDB6BDC6BDD6BDE6BDF6B64
:10284000E06BE16BE26BE36BE46BE56BE66BE76B14
:10285000E86BE96BEA6BEB6BEC6BED6BEE6BEF6BC4
:10286000F06BF16BF26BF36BF46BF56BF66BF76B74
:10287000F86BF96BFA6BFB6BFC6BFD6BFE6BC1507D
:10288000C00B0B09C16EC090C082C094C08EC280C4
:10289000956A8C6A3586850ECD6E9D80F288F18CA6
:1028A000000E0509CA6EFF0ECB6E94948B94969C15
:1028B0000C0EBD6EB76AB66AC00EF212BE6AF2CFD7
:1028C00000F1F29EA96AA69CA69EA680A8500101CE
:1028D00000BFF28E3E6E166AF2BE168EF29E140E87
:1028E000326F00015BEC00F016BEF28EF2CF00F109
:1028F000F29E010EA96EA69CA69EA680A85001017C
:1029000000BFF28E3F6E166AF2BE168EF29E140E55
:10291000326F00015BEC00F016BEF28EF2CF00F1D8
:10292000F29E020EA96EA69CA69EA680A85001014A
:1029300000BFF28E406E166AF2BE168EF29E140E24
:10294000326F00015BEC00F016BEF28EF2CF00F1A8
:10295000F29E030EA96EA69CA69EA680A850010119
:1029600000BFF28E416E166AF2BE168EF29E140EF3
:10297000326F00015BEC00F016BEF28EF2CF00F178
:10298000F29E050EA96EA69CA69EA680A8500101E7
:1029900000BFF28E016E349401B03484F2CF00F1A6
:1029A000F29E0A0EA96EA69CA69EA680A85000BF05
:1029B000F28E2E6EF2CF00F1F29E0B0EA96EA69C47
:1029C000A69EA680A85000BFF28E2D6EF2CF00F119
:1029D000F29E0C0EA96EA69CA69EA680A85000BFD3
:1029E000F28E2F6EF2CF00F1F29E0D0EA96EA69C14
:1029F000A69EA680A85000BFF28E306E30C02AF08E
:102A0000F2CF00F1F29E190EA96EA69CA69EA6809A
:102A1000A85000BFF28E226EF2CF00F1F29E1A0E85
:102A2000A96EA69CA69EA680A85000BFF28E0A6B37
:102A3000096F00012BEC06F003C0AAF002C0A9F058
:102A400001C0A8F000C0A7F0AAC021F1A9C020F1E0
:102A5000A8C01FF1A7C01EF10101256B246B480E11
:102A6000236F850E226F000146EC06F003C0AAF02A
:102A700002C0A9F001C0A8F000C0A7F001010A6BD4
:102A800022C009F100012BEC06F0D89203C021F11D
:102A900002C020F101C01FF100C01EF1AAC025F143
:102AA000A9C024F1A8C023F1A7C022F1F5EC06F0DB
:102AB00003C0C2F002C0C1F001C0C0F000C0BFF04E
:102AC000F2CF00F1F29E280EA96EA69CA69EA680CB
:102AD000A850010100BFF28E226EF2CF00F1F29EEB
:102AE000290EA96EA69CA69EA680A85000BFF28EB5
:102AF0000A6B096F00012BEC06F003C0AAF002C0BC
:102B0000A9F001C0A8F000C0A7F0AAC021F1A9C097
:102B100020F1A8C01FF1A7C01EF10101256B246B95
:102B2000480E236F850E226F000146EC06F003C0AD
:102B3000AAF002C0A9F001C0A8F000C0A7F00101EE
:102B40000A6B22C009F100012BEC06F0D89203C0F9
:102B500021F102C020F101C01FF100C01EF1AAC086
:102B600025F1A9C024F1A8C023F1A7C022F1F5ECFA
:102B700006F003C045F002C044F001C043F000C0BD
:102B800042F0F2CF00F1F29E3C0EA96EA69CA69EEA
:102B9000A680A850010100BFF28E256EF2CF00F191
:102BA000F29E3D0EA96EA69CA69EA680A85000BFD0
:102BB000F28E0A6B096F00012BEC06F003C0B6F031
:102BC00002C0B5F001C0B4F000C0B3F0B6C021F14E
:102BD000B5C020F1B4C01FF1B3C01EF10101256BD7
:102BE000246B480E236F850E226F000146EC06F021
:102BF00003C0B6F002C0B5F001C0B4F000C0B3F03D
:102C000001010A6B25C009F100012BEC06F0D892F6
:102C100003C021F102C020F101C01FF100C01EF16C
:102C2000B6C025F1B5C024F1B4C023F1B3C022F180
:102C3000F5EC06F003C0BEF002C0BDF001C0BCF070
:102C400000C0BBF0F2CF00F1F29E320EA96EA69C3E
:102C5000A69EA680A850010100BFF28E2C6EF2CF76
:102C600000F1F29E2A0EA96EA69CA69EA680A850F0
:102C700000BFF28E2B6E2B500C0802E20C0E2B6E56
:102C80002B5202E1010E2B6EF2CF00F1F29E460EA6
:102C9000A96EA69CA69EA680A85000BFF28E316E9B
:102CA000F2CF00F1F29E470EA96EA69CA69EA680CA
:102CB000A85000BFF28E326EF2CF00F1F29E480EA5
:102CC000A96EA69CA69EA680A85000BFF28E336E69
:102CD000F2CF00F1F29E490EA96EA69CA69EA68098
:102CE000A85000BFF28E016E359401B035841852A1
:102CF000D8A42DD33580BE6A35A20DD0166AF2BE97
:102D0000168EF29E0C0E316F000143EC01F016BEE0
:102D1000F28EFF000101166AF2BE168EF29E010EBF
:102D2000326F336F000106EC01F016BEF28E8A0E90
:102D3000F66E050EF76E166AF2BE168EF29E79ECEE
:102D400001F016BEF28E166AF2BE168EF29E010ECB
:102D50000101326F020E336F000106EC01F016BE66
:102D6000F28EA00EF66E050EF76E166AF2BE168E85
:102D7000F29E79EC01F016BEF28E166AF2BE168E45
:102D8000F29E010E0101326F030E336F000106EC5B
:102D900001F016BEF28EB60EF66E050EF76E0A0E36
:102DA0000101086F000131EC08F03AC000F11F0E7C
:102DB0000101016F000162EC08F03BC000F11F0E41
:102DC0000101016F000162EC08F03CC000F11F0E30
:102DD0000101016F000162EC08F03DC000F11F0E1F
:102DE0000101016F000162EC08F0166AF2BE168E56
:102DF000F29E200E0101316F000143EC01F016BE7E
:102E0000F28E166AF2BE168EF29E200E0101316F0E
:102E1000000143EC01F016BEF28E938681A61BD012
:102E200034B818D00B0E1B5C036A3A0FE96E000E23
:102E30000320EA6EEF2A3488166AF2BE168EF29EDE
:102E40001E0E0101326F00015BEC00F016BEF28E27
:102E5000526A516A01D03498938481A41BD034BC47
:102E600018D00B0E1B5C036A3A0FE96E000E0320AC
:102E7000EA6EEF06348C166AF2BE168EF29E1E0EB5
:102E80000101326F00015BEC00F016BEF28E526A57
:102E9000516A01D0349C938081A01FD034BA1CD0D9
:102EA000348A1B2A166AF2BE168EF29E1E0E01018D
:102EB000326F00015BEC00F016BEF28E166AF2BEB5
:102EC000168EF29E0C0E0101316F000143EC01F0F1
:102ED00016BEF28E526A516A01D0349A938281A250
:102EE0001FD034BE1CD0348E1B06166AF2BE168E5E
:102EF000F29E1E0E0101326F00015BEC00F016BE67
:102F0000F28E166AF2BE168EF29E0C0E0101316F21
:102F1000000143EC01F016BEF28E526A516A01D0F4
:102F2000349E0B0E1B5C036A3A0FE96E000E032001
:102F3000EA6EEFBE01D00AD00B0E1B5C036A3A0F9B
:102F4000E96E000E0320EA6E090EEF6E0B0E1B5C9D
:102F5000036A3A0FE96E000E0320EA6EEFBE0CD052
:102F6000EF50090809E20B0E1B5C036A3A0FE96E89
:102F7000000E0320EA6EEF6A1B500A0802E30B0EF4
:102F80001B6E166AF2BE168EF29E1BC032F1040E44
:102F90000101336F000106EC01F016BEF28E166AD5
:102FA000F2BE168EF29E39C031F143EC01F016BE2E
:102FB000F28E1B500E08D8B0A8D13A500308D8A4FE
:102FC0008CD03B500808D8A488D03C500908D8A41D
:102FD00084D03D500208D8A480D0A96AA86AA69CD3
:102FE000A69EA684F250006EF29E0F01550EA76EAB
:102FF000AA0EA76EA682A6B2FED7A6940050F21221
:10300000166AF2BE168EF29E140E0101326F000196
:103010005BEC00F016BEF28E010EA96EA86AA69CAB
:10302000A69EA684F250006EF29E0F01550EA76E6A
:10303000AA0EA76EA682A6B2FED7A6940050F212E0
:10304000166AF2BE168EF29E140E0101326F000156
:103050005BEC00F016BEF28E020EA96EA86AA69C6A
:10306000A69EA684F250006EF29E0F01550EA76E2A
:10307000AA0EA76EA682A6B2FED7A6940050F212A0
:10308000166AF2BE168EF29E140E0101326F000116
:103090005BEC00F016BEF28E030EA96EA86AA69C29
:1030A000A69EA684F250006EF29E0F01550EA76EEA
:1030B000AA0EA76EA682A6B2FED7A6940050F21260
:1030C000166AF2BE168EF29E140E0101326F0001D6
:1030D0005BEC00F016BEF28EFF003E503A5CD8A4C6
:1030E0009BD03F503B5CD8A497D040503C5CD8A4C8
:1030F00093D041503D5CD8A48FD0166AF2BE168E94
:10310000F29E010E0101326F336F000106EC01F0F7
:1031100016BEF28ECC0EF66E050EF76E166AF2BE75
:10312000168EF29E79EC01F016BEF28E166AF2BE91
:10313000168EF29E010E0101326F020E336F0001F6
:1031400006EC01F016BEF28EE00EF66E050EF76E7E
:10315000166AF2BE168EF29E79EC01F016BEF28E61
:10316000166AF2BE168EF29E010E0101326F030E38
:10317000336F000106EC01F016BEF28EF40EF66E0F
:10318000050EF76E166AF2BE168EF29E79EC01F00D
:1031900016BEF28E166AF2BE168EF29E010E010166
:1031A000326F040E336F000106EC01F016BEF28E92
:1031B000080EF66E060EF76E166AF2BE168EF29EB8
:1031C00079EC01F016BEF28E020E0101006F166A54
:1031D000F2BE168EF29EFA0E326F00015BEC00F02A
:1031E00016BEF28E0101002FF2D7140E186E0B0ED0
:1031F0001B6E166AF2BE168EF29E0C0E316F000127
:1032000043EC01F016BEF28E8A8A939A359035927D
:10321000526A516A358E79D0166AF2BE168EF29EC7
:10322000010E0101326F336F000106EC01F016BE92
:10323000F28E166AF2BE168EF29E010E0101326FF8
:10324000020E336F000106EC01F016BEF28E1C0E6A
:10325000F66E060EF76E166AF2BE168EF29E79ECC8
:1032600001F016BEF28E166AF2BE168EF29E010EA6
:103270000101326F030E336F000106EC01F016BE40
:10328000F28E300EF66E060EF76E166AF2BE168ECF
:10329000F29E79EC01F016BEF28E166AF2BE168E20
:1032A000F29E010E0101326F040E336F000106EC35
:1032B00001F016BEF28E440EF66E060EF76E166A1A
:1032C000F2BE168EF29E79EC01F016BEF28E020E60
:1032D0000101006F166AF2BE168EF29EFA0E326F70
:1032E00000015BEC00F016BEF28E0101002FF2D758
:1032F0000B0E1B6E166AF2BE168EF29E0C0E316F0E
:10330000000143EC01F016BEF28E1B500B081DE2CB
:103310001B500D081AE3010E1B5C0101006F166AB9
:10332000F2BE168EF29E326F040E336F000106EC71
:1033300001F016BEF28E166AF2BE168EF29E38C0EC
:1033400031F143EC01F016BEF28E0101D0D4182CFD
:10335000A1D136BE01D001D0366A166AF2BE168EF1
:10336000F29E010E326F336F000106EC01F016BEC3
:10337000F28E580EF66E060EF76E166AF2BE168EB6
:10338000F29E79EC01F016BEF28E938681A615D0DE
:1033900034B812D01E061C06010E1C241D6E348883
:1033A000166AF2BE168EF29E1E0E0101326F0001E9
:1033B0005BEC00F016BEF28E01D03498938481A4A9
:1033C00015D034BC12D01E2A1C2A010E1C5C1D6EA6
:1033D000348C166AF2BE168EF29E1E0E0101326FFA
:1033E00000015BEC00F016BEF28E01D0349C1E5042
:1033F000205C08E2362A1EC020F0020E205C1F6E00
:10340000040E1C6E1F501E5C08E236061EC01FF024
:10341000020E1F24206E020E1C6E1E50195C09E263
:103420001AC01EF0020E1C6E366A1EC01FF01F244A
:10343000206E1A501E5C0BE219C01EF0040E1C6EAA
:10344000195C366E1EC020F0020E205C1F6E010E4D
:1034500036240101006F016F020E026F0001EEECD5
:1034600008F0020E36240101006F016F030E026F97
:103470000001EEEC08F0030E36240101006F016F2D
:10348000040E026F0001EEEC08F0166AF2BE168E12
:10349000F29E010E0101326F1CC033F1000106ECF7
:1034A00001F016BEF28E166AF2BE168EF29E37C07C
:1034B00031F143EC01F016BEF28E1C50020830E1EF
:1034C000166AF2BE168EF29E010E0101326F040ED4
:1034D000336F000106EC01F016BEF28E166AF2BEE2
:1034E000168EF29E38C031F143EC01F016BEF28E1A
:1034F000166AF2BE168EF29E010E0101326F030EA5
:10350000336F000106EC01F016BEF28E166AF2BEB1
:10351000168EF29E38C031F143EC01F016BEF28EE9
:103520001C50040830E1166AF2BE168EF29E010E9F
:103530000101326F020E336F000106EC01F016BE7E
:10354000F28E166AF2BE168EF29E38C031F143EC4E
:1035500001F016BEF28E166AF2BE168EF29E010EB3
:103560000101326F030E336F000106EC01F016BE4D
:10357000F28E166AF2BE168EF29E38C031F143EC1E
:1035800001F016BEF28E1C50030830E1166AF2BE3E
:10359000168EF29E010E0101326F040E336F000190
:1035A00006EC01F016BEF28E166AF2BE168EF29E80
:1035B00038C031F143EC01F016BEF28E166AF2BE4D
:1035C000168EF29E010E0101326F020E336F000162
:1035D00006EC01F016BEF28E166AF2BE168EF29E50
:1035E00038C031F143EC01F016BEF28E938081A019
:1035F0002AD034BA27D01EC018F0030E1C6E020E5B
:103600000101006F166AF2BE168EF29EFA0E326F3C
:1036100000015BEC00F016BEF28E0101002FF2D724
:10362000166AF2BE168EF29E0C0E316F000143EC4C
:1036300001F016BEF28E1850060804E13A6A3B6AA1
:103640003C6A3D6A01D0349A938281A221D034BE73
:103650001ED0020E0101006F166AF2BE168EF29E97
:10366000FA0E326F00015BEC00F016BEF28E010123
:10367000002FF2D7140E186E166AF2BE168EF29E46
:103680000C0E316F000143EC01F016BEF28E01D03A
:10369000349E010118500208D8A412D13474348A1F
:1036A000010E186E366A34A468D03484166AF2BEED
:1036B000168EF29E010E326F336F000106EC01F0A0
:1036C00016BEF28E6E0EF66E060EF76E166AF2BE1D
:1036D000168EF29E79EC01F016BEF28E166AF2BEDC
:1036E000168EF29E010E0101326F020E336F000141
:1036F00006EC01F016BEF28E840EF66E060EF76E24
:10370000166AF2BE168EF29E79EC01F016BEF28EAB
:10371000166AF2BE168EF29E010E0101326F030E82
:10372000336F000106EC01F016BEF28E9A0EF66EB3
:10373000060EF76E166AF2BE168EF29E79EC01F056
:1037400016BEF28E166AF2BE168EF29E010E0101B0
:10375000326F040E336F000106EC01F016BEF28EDC
:10376000B00EF66E060EF76E166AF2BE168EF29E5A
:1037700079EC01F016BEF28E010134B468D03494B5
:10378000166AF2BE168EF29E010E326F336F000182
:1037900006EC01F016BEF28EC60EF66E060EF76E41
:1037A000166AF2BE168EF29E79EC01F016BEF28E0B
:1037B000166AF2BE168EF29E010E0101326F020EE3
:1037C000336F000106EC01F016BEF28EDC0EF66ED1
:1037D000060EF76E166AF2BE168EF29E79EC01F0B6
:1037E00016BEF28E166AF2BE168EF29E010E010110
:1037F000326F030E336F000106EC01F016BEF28E3D
:10380000F20EF66E060EF76E166AF2BE168EF29E77
:1038100079EC01F016BEF28E166AF2BE168EF29E9A
:10382000010E0101326F040E336F000106EC01F04E
:1038300016BEF28E080EF66E070EF76E166AF2BE10
:10384000168EF29E79EC01F016BEF28E0101000E8A
:1038500034B4010E006F050EA96E00C1A8FFA69C2E
:10386000A69EA684F250006EF29E0F01550EA76E22
:10387000AA0EA76EA682A6B2FED7A6940050F21298
:10388000020E0101006F166AF2BE168EF29EFA0E4B
:10389000326F00015BEC00F016BEF28E0101002FCA
:1038A000F2D7020E1C6E1E6E166AF2BE168EF29EC5
:1038B0000C0E316F000143EC01F016BEF28E0101D7
:1038C00018500308D8A4DED1166AF2BE168EF29EF6
:1038D000010E326F336F000106EC01F016BEF28E5E
:1038E0001E0EF66E070EF76E166AF2BE168EF29E6A
:1038F00079EC01F016BEF28E166AF2BE168EF29EBA
:10390000010E0101326F020E336F000106EC01F06F
:1039100016BEF28E340EF66E070EF76E090E01011A
:10392000086F000131EC08F033C0FFF0010E010117
:10393000006F0001F6EC09F0166AF2BE168EF29ED8
:103940003A0E0101316F000143EC01F016BEF28E18
:1039500032C0FFF0010E0101006F0001F6EC09F02A
:10396000166AF2BE168EF29E3A0E0101316F000108
:1039700043EC01F016BEF28E31C0FFF0010E0101E2
:10398000006F0001F6EC09F0166AF2BE168EF29E88
:10399000200E0101316F000143EC01F016BEF28EE2
:1039A00035A41BD0166AF2BE168EF29E010E0101DE
:1039B000326F030E336F000106EC01F016BEF28E7B
:1039C0004E0EF66E070EF76E166AF2BE168EF29E59
:1039D00079EC01F016BEF28E1AD0166AF2BE168E7F
:1039E000F29E010E0101326F030E336F000106ECEF
:1039F00001F016BEF28E640EF66E070EF76E166AB2
:103A0000F2BE168EF29E79EC01F016BEF28E166AA8
:103A1000F2BE168EF29E010E0101326F040E336F5C
:103A2000000106EC01F016BEF28E7A0EF66E070E5D
:103A3000F76E166AF2BE168EF29E79EC01F016BE93
:103A4000F28E938681A6B7D0166AF2BE168EF29ECB
:103A5000C80E0101326F00015BEC00F016BEF28E61
:103A6000166AF2BE168EF29E0C0E0101316F000135
:103A700043EC01F016BEF28E166AF2BE168EF29E6E
:103A8000010E0101326F020E336F000106EC01F0EE
:103A900016BEF28E900EF66E070EF76E166AF2BE26
:103AA000168EF29E79EC01F016BEF28E166AF2BE08
:103AB000168EF29E010E0101326F030E336F00016C
:103AC00006EC01F016BEF28EA20EF66E070EF76E31
:103AD000166AF2BE168EF29E79EC01F016BEF28ED8
:103AE000460EA96EA86AA69CA69EA684F250006EF9
:103AF000F29E0F01550EA76EAA0EA76EA682A6B261
:103B0000FED7A6940050F212470EA96EA86AA69C92
:103B1000A69EA684F250006EF29E550EA76EAA0EC7
:103B2000A76EA682A6B2FED7A6940050F212480E47
:103B3000A96EA86AA69CA69EA684F250006EF29E6C
:103B4000550EA76EAA0EA76EA682A6B2FED7A694A1
:103B50000050F212040E0101006F166AF2BE168EBA
:103B6000F29EAF0E326F00015BEC00F016BEF28EDB
:103B70000101002FF2D7316A326A336A166AF2BE47
:103B8000168EF29E1E0E326F00015BEC00F016BE28
:103B9000F28E010E186E366A020E1C6E1E6E166ACA
:103BA000F2BE168EF29E0C0E0101316F000143EC45
:103BB00001F016BEF28E938081A03DD03574000EC8
:103BC00035B4010E0101006F490EA96E00C1A8FFB6
:103BD000A69CA69EA684F250006EF29E0F01550E82
:103BE000A76EAA0EA76EA682A6B2FED7A694005014
:103BF000F212020E0101006F166AF2BE168EF29EDC
:103C0000FA0E326F00015BEC00F016BEF28E01017D
:103C1000002FF2D7010E186E366A020E1C6E1E6E51
:103C2000166AF2BE168EF29E0C0E316F000143EC46
:103C300001F016BEF28E938281A222D034BE1FD034
:103C4000348E166AF2BE168EF29E1E0E0101326F7F
:103C500000015BEC00F016BEF28E010E186E366AA3
:103C6000020E1C6E1E6E166AF2BE168EF29E0C0EB0
:103C70000101316F000143EC01F016BEF28E01D05C
:103C8000349E010118500408D8A4CAD1166AF2BEA5
:103C9000168EF29E010E326F020E336F000106EC9B
:103CA00001F016BEF28EB40EF66E070EF76E166AAF
:103CB000F2BE168EF29E79EC01F016BEF28E166AF6
:103CC000F2BE168EF29E010E0101326F030E336FAB
:103CD000000106EC01F016BEF28ECA0EF66E070E5B
:103CE000F76E070E0101086F000131EC08F0890E34
:103CF000E96E45C00BF144C00AF143C009F142C06E
:103D000008F1020E01010C6F000125EC0BF0166AA0
:103D1000F2BE168EF29E200E0101316F000143ECBF
:103D200001F016BEF28E166AF2BE168EF29E200EBC
:103D30000101316F000143EC01F016BEF28E166AEC
:103D4000F2BE168EF29E200E0101316F000143EC8F
:103D500001F016BEF28E01011D6B1C6B1B6B800EF9
:103D60001A6F45C021F144C020F143C01FF142C089
:103D70001EF1000116EC0CF005E3456A446A436A43
:103D8000800E426E45C01DF144C01CF143C01BF1C2
:103D900042C01AF10101216B206B1F6B7E0E1E6F5A
:103DA000000116EC0CF005E3456A446A436A7E0E96
:103DB000426E938681A62DD034B82AD0D89245C0C1
:103DC00021F144C020F143C01FF142C01EF1CD0ECD
:103DD0000101256FCC0E246F4C0E236F7B0E226FDA
:103DE0000001F5EC06F003C045F002C044F001C04C
:103DF00043F000C042F03488166AF2BE168EF29E7E
:103E00001E0E0101326F00015BEC00F016BEF28E57
:103E100001D03498938481A42DD034BC2AD0D88288
:103E200045C021F144C020F143C01FF142C01EF142
:103E3000CD0E0101256FCC0E246F4C0E236F7B0E2F
:103E4000226F0001F5EC06F003C045F002C044F01B
:103E500001C043F000C042F0348C166AF2BE168EE8
:103E6000F29E1E0E0101326F00015BEC00F016BEE7
:103E7000F28E01D0349C938081A0A9D034BAA6D010
:103E8000010E186E366A020E1C6E1E6E0B0E1B6E35
:103E9000166AF2BE168EF29E1E0E0101326F0001EE
:103EA0005BEC00F016BEF28E166AF2BE168EF29E23
:103EB0000C0E0101316F000143EC01F016BEF28ED1
:103EC00045C0AAF044C0A9F043C0A8F042C0A7F082
:103ED00045C002F144C001F143C000F142C0FFF00F
:103EE00053EC0CF001C022F001010A6B22C009F171
:103EF00000012BEC06F0D882AAC021F1A9C020F164
:103F0000A8C01FF1A7C01EF103C025F102C024F113
:103F100001C023F100C022F1F5EC06F003C0AAF0C5
:103F200002C0A9F001C0A8F000C0A7F0AAC01DF10E
:103F3000A9C01CF1A8C01BF1A7C01AF10101216B97
:103F4000206B480E1F6F850E1E6F000148EC0AF0B3
:103F500003C0AEF002C0ADF001C0ACF000C0ABF0E9
:103F6000AEC002F1ADC001F1ACC000F1ABC0FFF0DA
:103F700053EC0CF001C024F0280EA96E22C0A8FF5B
:103F8000A69CA69EA684F250006EF29E0F01550ECE
:103F9000A76EAA0EA76EA682A6B2FED7A694005060
:103FA000F212290EA96E24C0A8FFA69CA69EA68484
:103FB000F250006EF29E550EA76EAA0EA76EA68254
:103FC000A6B2FED7A6940050F212000101D0349A96
:103FD000938281A223D034BE20D0010E186E366A9F
:103FE000020E1C6E1E6E0B0E1B6E166AF2BE168E35
:103FF000F29E1E0E0101326F00015BEC00F016BE56
:10400000F28E166AF2BE168EF29E0C0E0101316F10
:10401000000143EC01F016BEF28E01D0349E010186
:1040200018500508D8A492D2166AF2BE168EF29ED7
:10403000010E326F336F000106EC01F016BEF28EF6
:10404000DA0EF66E070EF76E166AF2BE168EF29E46
:1040500079EC01F016BEF28E166AF2BE168EF29E52
:10406000010E0101326F020E336F000106EC01F008
:1040700016BEF28EF00EF66E070EF76E166AF2BEE0
:10408000168EF29E79EC01F016BEF28E166AF2BE22
:10409000168EF29E010E0101326F030E336F000186
:1040A00006EC01F016BEF28E060EF66E080EF76EE6
:1040B0000A0E0101086F000131EC08F03AC000F16E
:1040C0001F0E0101016F000162EC08F03BC000F11E
:1040D0001F0E0101016F000162EC08F03CC000F10D
:1040E0001F0E0101016F000162EC08F03DC000F1FC
:1040F0001F0E0101016F000162EC08F0166AF2BEAA
:10410000168EF29E200E0101316F000143EC01F08A
:1041100016BEF28E166AF2BE168EF29E200E0101B7
:10412000316F000143EC01F016BEF28E938681A63A
:1041300019D034B816D00B0E1B5C036A3A0FE96E27
:10414000000E0320EA6EEF2A3488166AF2BE168E3D
:10415000F29E1E0E0101326F00015BEC00F016BEF4
:10416000F28E01D03498938481A419D034BC16D037
:104170000B0E1B5C036A3A0FE96E000E0320EA6E19
:10418000EF06348C166AF2BE168EF29E1E0E0101E8
:10419000326F00015BEC00F016BEF28E01D0349C51
:1041A000938081A01DD034BA1AD0348A1B2A166A93
:1041B000F2BE168EF29E1E0E0101326F00015BEC04
:1041C00000F016BEF28E166AF2BE168EF29E0C0E2D
:1041D0000101316F000143EC01F016BEF28E01D0F7
:1041E000349A938281A21DD034BE1AD0348E1B061D
:1041F000166AF2BE168EF29E1E0E0101326F00018B
:104200005BEC00F016BEF28E166AF2BE168EF29EBF
:104210000C0E0101316F000143EC01F016BEF28E6D
:1042200001D0349E0B0E1B5C036A3A0FE96E000E40
:104230000320EA6EEFBE01D00AD00B0E1B5C036AAE
:104240003A0FE96E000E0320EA6E090EEF6E0B0EB8
:104250001B5C036A3A0FE96E000E0320EA6EEFBEA4
:104260000CD0EF50090809E20B0E1B5C036A3A0FF1
:10427000E96E000E0320EA6EEF6A1B500A0808E39D
:10428000010E186E366A020E1C6E1E6E0B0E1B6E31
:10429000166AF2BE168EF29E1BC032F1040E0101A8
:1042A000336F000106EC01F016BEF28E166AF2BE04
:1042B000168EF29E39C031F143EC01F016BEF28E3B
:1042C0001B500E08D8B021D13E503A5CD8A498D0EB
:1042D0003F503B5CD8A494D040503C5CD8A490D0D4
:1042E00041503D5CD8A48CD0166AF2BE168EF29E68
:1042F000010E0101326F336F000106EC01F016BEB2
:10430000F28E1C0EF66E080EF76E166AF2BE168E50
:10431000F29E79EC01F016BEF28E166AF2BE168E8F
:10432000F29E010E0101326F020E336F000106ECA6
:1043300001F016BEF28E320EF66E080EF76E166A99
:10434000F2BE168EF29E79EC01F016BEF28E166A5F
:10435000F2BE168EF29E010E0101326F030E336F14
:10436000000106EC01F016BEF28E480EF66E080E45
:10437000F76E166AF2BE168EF29E79EC01F016BE4A
:10438000F28E166AF2BE168EF29E010E0101326F97
:10439000040E336F000106EC01F016BEF28E5E0EC5
:1043A000F66E080EF76E166AF2BE168EF29E79EC65
:1043B00001F016BEF28E020E0101006F166AF2BE07
:1043C000168EF29EFA0E326F00015BEC00F016BE04
:1043D000F28E0101002FF2D7330E186E0B0E1B6EFA
:1043E000166AF2BE168EF29E0C0E316F000143EC7F
:1043F00001F016BEF28E3A6A3B6A3C6A3D6A85D08D
:10440000166AF2BE168EF29E010E0101326F336FF4
:10441000000106EC01F016BEF28E740EF66E080E68
:10442000F76E166AF2BE168EF29E79EC01F016BE99
:10443000F28E166AF2BE168EF29E010E0101326FE6
:10444000020E336F000106EC01F016BEF28E8A0EEA
:10445000F66E080EF76E166AF2BE168EF29E79ECB4
:1044600001F016BEF28E166AF2BE168EF29E010E94
:104470000101326F030E336F000106EC01F016BE2E
:10448000F28EA00EF66E080EF76E166AF2BE168E4B
:10449000F29E79EC01F016BEF28E166AF2BE168E0E
:1044A000F29E010E0101326F040E336F000106EC23
:1044B00001F016BEF28EB60EF66E080EF76E166A94
:1044C000F2BE168EF29E79EC01F016BEF28E020E4E
:1044D0000101006F166AF2BE168EF29EFA0E326F5E
:1044E00000015BEC00F016BEF28E0101002FF2D746
:1044F0000B0E1B6E166AF2BE168EF29E0C0E316FFC
:10450000000143EC01F016BEF28E1B500B081DE2B9
:104510001B500D081AE3010E1B5C0101006F166AA7
:10452000F2BE168EF29E326F040E336F000106EC5F
:1045300001F016BEF28E166AF2BE168EF29E38C0DA
:1045400031F143EC01F016BEF28E01011850330830
:10455000D8A46FD2166AF2BE168EF29E010E326F8A
:10456000336F000106EC01F016BEF28ECC0EF66E33
:10457000080EF76E166AF2BE168EF29E79EC01F006
:1045800016BEF28E166AF2BE168EF29E010E010162
:10459000326F020E336F000106EC01F016BEF28E90
:1045A000E20EF66E080EF76E166AF2BE168EF29ED8
:1045B00079EC01F016BEF28E166AF2BE168EF29EED
:1045C000010E0101326F030E336F000106EC01F0A2
:1045D00016BEF28EF80EF66E080EF76E0A0E010188
:1045E000086F000131EC08F03AC000F11F0E010124
:1045F000016F000162EC08F03BC000F11F0E0101E9
:10460000016F000162EC08F03CC000F11F0E0101D7
:10461000016F000162EC08F03DC000F11F0E0101C6
:10462000016F000162EC08F0166AF2BE168EF29E6F
:10463000200E0101316F000143EC01F016BEF28E35
:10464000166AF2BE168EF29E200E0101316F000135
:1046500043EC01F016BEF28E938681A619D034B8D1
:1046600016D00B0E1B5C036A3A0FE96E000E032096
:10467000EA6EEF2A3488166AF2BE168EF29E1E0E7D
:104680000101326F00015BEC00F016BEF28E01D02A
:104690003498938481A419D034BC16D00B0E1B5CC3
:1046A000036A3A0FE96E000E0320EA6EEF06348CBF
:1046B000166AF2BE168EF29E1E0E0101326F0001C6
:1046C0005BEC00F016BEF28E01D0349C938081A08A
:1046D0001DD034BA1AD0348A1B2A166AF2BE168E3E
:1046E000F29E1E0E0101326F00015BEC00F016BE5F
:1046F000F28E166AF2BE168EF29E0C0E0101316F1A
:10470000000143EC01F016BEF28E01D0349A938280
:1047100081A21DD034BE1AD0348E1B06166AF2BE9A
:10472000168EF29E1E0E0101326F00015BEC00F04E
:1047300016BEF28E166AF2BE168EF29E0C0E0101A5
:10474000316F000143EC01F016BEF28E01D0349EB1
:104750000B0E1B5C036A3A0FE96E000E0320EA6E33
:10476000EFBE01D00AD00B0E1B5C036A3A0FE96E54
:10477000000E0320EA6E090EEF6E0B0E1B5C036A3F
:104780003A0FE96E000E0320EA6EEFBE0CD0EF5038
:10479000090809E20B0E1B5C036A3A0FE96E000E72
:1047A0000320EA6EEF6A1B500A0804E3050E186E38
:1047B0000B0E1B6E166AF2BE168EF29E1BC032F1F5
:1047C000040E0101336F000106EC01F016BEF28EFB
:1047D000166AF2BE168EF29E39C031F143EC01F03A
:1047E00016BEF28E1B500E08D8B002D1166AF2BE69
:1047F000168EF29E010E0101326F336F000106EC3E
:1048000001F016BEF28E0E0EF66E090EF76E166AE7
:10481000F2BE168EF29E79EC01F016BEF28E166A8A
:10482000F2BE168EF29E010E0101326F020E336F40
:10483000000106EC01F016BEF28E240EF66E090E93
:10484000F76E166AF2BE168EF29E79EC01F016BE75
:10485000F28E166AF2BE168EF29E010E0101326FC2
:10486000030E336F000106EC01F016BEF28E3A0E15
:10487000F66E090EF76E166AF2BE168EF29E79EC8F
:1048800001F016BEF28E166AF2BE168EF29E010E70
:104890000101326F040E336F000106EC01F016BE09
:1048A000F28E500EF66E090EF76E166AF2BE168E76
:1048B000F29E79EC01F016BEF28EA96A3AC0A8FF0A
:1048C000A69CA69EA684F250006EF29E0F01550E85
:1048D000A76EAA0EA76EA682A6B2FED7A694005017
:1048E000F212166AF2BE168EF29E140E0101326F9B
:1048F00000015BEC00F016BEF28E010EA96E3BC00B
:10490000A8FFA69CA69EA684F250006EF29E0F0100
:10491000550EA76EAA0EA76EA682A6B2FED7A694C3
:104920000050F212166AF2BE168EF29E140E0101AB
:10493000326F00015BEC00F016BEF28E020EA96E23
:104940003CC0A8FFA69CA69EA684F250006EF29ED4
:104950000F01550EA76EAA0EA76EA682A6B2FED7AD
:10496000A6940050F212166AF2BE168EF29E140E33
:104970000101326F00015BEC00F016BEF28E030EF7
:10498000A96E3DC0A8FFA69CA69EA684F250006E0C
:10499000F29E0F01550EA76EAA0EA76EA682A6B2B2
:1049A000FED7A6940050F212166AF2BE168EF29E40
:1049B000140E0101326F00015BEC00F016BEF28EA6
:1049C000020E0101006F166AF2BE168EF29EFA0EFA
:1049D000326F00015BEC00F016BEF28E0101002F79
:1049E000F2D7010E186E366A020E1C6E1E6E0001A2
:1049F0001B500B081DE21B500D081AE3010E1B5C37
:104A00000101006F166AF2BE168EF29E326F040E1E
:104A1000336F000106EC01F016BEF28E166AF2BE8C
:104A2000168EF29E38C031F143EC01F016BEF28EC4
:104A3000010118500608D8A4F7D0166AF2BE168EE7
:104A4000F29E010E326F020E336F000106EC01F090
:104A500016BEF28E660EF66E090EF76E166AF2BE7E
:104A6000168EF29E79EC01F016BEF28E166AF2BE38
:104A7000168EF29E010E0101326F030E336F00019C
:104A800006EC01F016BEF28E7C0EF66E090EF76E85
:104A9000070E0101086F000131EC08F02BC000F196
:104AA000010E0101016F000162EC08F0166AF2BE0E
:104AB000168EF29E200E0101316F000143EC01F0D1
:104AC00016BEF28E166AF2BE168EF29E200E0101FE
:104AD000316F000143EC01F016BEF28E166AF2BE91
:104AE000168EF29E200E0101316F000143EC01F0A1
:104AF00016BEF28E2B500C0802E20C0E2B6E2B52BF
:104B000002E1010E2B6E938681A612D034B80FD02D
:104B1000010E2B263488166AF2BE168EF29E1E0EE9
:104B20000101326F00015BEC00F016BEF28E01D085
:104B30003498938481A412D034BC0FD0010E2B5E24
:104B4000348C166AF2BE168EF29E1E0E0101326F72
:104B500000015BEC00F016BEF28E01D0349C938015
:104B600081A039D034BA36D0010E186E366A020EE2
:104B70001C6E1E6E0B0E1B6E166AF2BE168EF29E19
:104B80001E0E0101326F00015BEC00F016BEF28ECA
:104B9000166AF2BE168EF29E0C0E0101316F0001F4
:104BA00043EC01F016BEF28E2A0EA96E2BC0A8FFB0
:104BB000A69CA69EA684F250006EF29E0F01550E92
:104BC000A76EAA0EA76EA682A6B2FED7A694005024
:104BD000F212000101D0349A938281A223D034BE14
:104BE00020D0010E186E366A020E1C6E1E6E0B0E61
:104BF0001B6E166AF2BE168EF29E1E0E0101326FF9
:104C000000015BEC00F016BEF28E166AF2BE168E44
:104C1000F29E0C0E0101316F000143EC01F016BE53
:104C2000F28E01D0349E010118500708D8A437D263
:104C3000166AF2BE168EF29E010E326F336F0001BD
:104C400006EC01F016BEF28E8C0EF66E090EF76EB3
:104C5000166AF2BE168EF29E79EC01F016BEF28E46
:104C6000166AF2BE168EF29E010E0101326F020E1E
:104C7000336F000106EC01F016BEF28EA20EF66E46
:104C8000090EF76E080E0101086F000131EC08F003
:104C9000010EE96E8EC00BF18DC00AF18CC009F1D6
:104CA0008BC008F101010C6F000125EC0BF0AF0E79
:104CB000F66E090EF76E080E0101086F000131EC67
:104CC00008F0166AF2BE168EF29E010E0101326FD6
:104CD000030E336F000106EC01F016BEF28E0101E7
:104CE000046B000171EC0CF000C000F101C001F197
:104CF00002C002F103C003F1166AF2BE168EF29EE4
:104D00005A0E0101316F000143EC01F016BEF28E24
:104D1000166AF2BE168EF29E460E0101316F000138
:104D200043EC01F016BEF28E166AF2BE168EF29EAB
:104D30003D0E0101316F000143EC01F016BEF28E11
:104D4000010EE96E4DC00BF14CC00AF14BC009F1E8
:104D50004AC008F101010C6B000125EC0BF0C00EFC
:104D6000F66E090EF76E050E0101086F000131ECB9
:104D700008F0010EE96E03C10BF102C10AF101C195
:104D800009F100C108F101010C6B000125EC0BF0E9
:104D9000166AF2BE168EF29E010E0101326F040EEB
:104DA000336F000106EC01F016BEF28ECC0EF66EEB
:104DB000090EF76E0C0E0101086F000131EC08F0CE
:104DC000010EE96EBEC00BF1BDC00AF1BCC009F115
:104DD000BBC008F101010C6B000125EC0BF09380C6
:104DE00081A034D134BA31D1010E186E366A020E68
:104DF0001C6E1E6E0B0E1B6E166AF2BE168EF29E97
:104E00001E0E0101326F00015BEC00F016BEF28E47
:104E1000166AF2BE168EF29E0C0E0101316F000171
:104E200043EC01F016BEF28E0101046B000171EC3F
:104E30000CF0EACF01F1E9CF00F1D8824DC021F1A9
:104E40004CC020F14BC01FF14AC01EF103C025F138
:104E500002C024F101C023F100C022F1F5EC06F0FC
:104E600001C1EAFF00C1E9FF03C0BEF002C0BDF00E
:104E700001C0BCF000C0BBF001011D6B1C6B1B6BC3
:104E80001A6BBEC021F1BDC020F1BCC01FF1BBC078
:104E90001EF1000116EC0CF001E217E10A0E2C6E77
:104EA000320EA96E2CC0A8FFA69CA69EA684F25026
:104EB000006EF29E0F01550EA76EAA0EA76EA68277
:104EC000A6B2FED7A6940050F212BEC01DF1BDC01E
:104ED0001CF1BCC01BF1BBC01AF10101216B206B9E
:104EE0001F6B1E6B000116EC0CF018E3140E2C6EF9
:104EF000320EA96E2CC0A8FFA69CA69EA684F250D6
:104F0000006EF29E0F01550EA76EAA0EA76EA68226
:104F1000A6B2FED7A6940050F2120001BBC000F06A
:104F2000BCC001F0BDC002F0BEC003F0019EBEC017
:104F3000BEF0BDC0BDF001C0BCF0BBC0BBF0BEC088
:104F4000B6F0BDC0B5F0BCC0B4F0BBC0B3F0B6C0E5
:104F500002F1B5C001F1B4C000F1B3C0FFF053ECF1
:104F60000CF001C025F001010A6B25C009F1000118
:104F70002BEC06F0D882B6C021F1B5C020F1B4C048
:104F80001FF1B3C01EF103C025F102C024F101C01E
:104F900023F100C022F1F5EC06F003C0B6F002C028
:104FA000B5F001C0B4F000C0B3F0B6C01DF1B5C09B
:104FB0001CF1B4C01BF1B3C01AF10101216B206BCD
:104FC000480E1F6F850E1E6F000148EC0AF003C0EB
:104FD000BAF002C0B9F001C0B8F000C0B7F0BAC072
:104FE00002F1B9C001F1B8C000F1B7C0FFF053EC55
:104FF0000CF001C026F03C0EA96E25C0A8FFA69CAF
:10500000A69EA684F250006EF29E0F01550EA76E6A
:10501000AA0EA76EA682A6B2FED7A6940050F212E0
:105020003D0EA96E26C0A8FFA69CA69EA684F2509F
:10503000006EF29E550EA76EAA0EA76EA682A6B2AD
:10504000FED7A6940050F212000101D0349A938248
:1050500081A223D034BE20D0010E186E366A020E13
:105060001C6E1E6E0B0E1B6E166AF2BE168EF29E24
:105070001E0E0101326F00015BEC00F016BEF28ED5
:10508000166AF2BE168EF29E0C0E0101316F0001FF
:1050900043EC01F016BEF28E01D0349E010118508F
:1050A0000808D8A406D3166AF2BE168EF29E010E28
:1050B000326F336F000106EC01F016BEF28E010173
:1050C000046B000171EC0CF000C000F101C001F1B3
:1050D00002C002F103C003F1DE0EF66E090EF76E98
:1050E0000A0E0101086F000131EC08F0010EE96EB3
:1050F00003C10BF102C10AF101C109F100C108F1BC
:1051000001010C6B000125EC0BF0166AF2BE168E45
:10511000F29E200E0101316F000143EC01F016BE3A
:10512000F28E166AF2BE168EF29E200E0101316FCB
:10513000000143EC01F016BEF28E166AF2BE168E26
:10514000F29E010E0101326F020E336F000106EC78
:1051500001F016BEF28E01010A6B2AC009F10001AE
:105160002BEC06F000C000F101C001F102C002F119
:1051700003C003F103C021F102C020F101C01FF1FF
:1051800000C01EF10101256B246B7F0E236F860E7C
:10519000226F000146EC06F001011D6B1C6B480EEE
:1051A0001B6F850E1A6F03C021F102C020F101C0F0
:1051B0001FF100C01EF1000148EC0AF000C000F130
:1051C00001C001F102C002F103C003F1010E0101AF
:1051D000046F000171EC0CF000C004F101C005F196
:1051E00002C006F103C007F1F00EF66E090EF76E6D
:1051F000050E0101086F000131EC08F0010EE96EA7
:1052000003C10BF102C10AF101C109F100C108F1AA
:1052100001010C6B000125EC0BF0166AF2BE168E34
:10522000F29E250E0101316F000143EC01F016BE24
:10523000F28EFC0EF66E090EF76E040E0101086F79
:10524000000131EC08F0010EE96E07C10BF106C157
:105250000AF105C109F104C108F101010C6B00015B
:1052600025EC0BF0166AF2BE168EF29E200E01019E
:10527000316F000143EC01F016BEF28E166AF2BEE9
:10528000168EF29E010E0101326F030E336F000184
:1052900006EC01F016BEF28E020E0101046F000151
:1052A00071EC0CF000C000F101C001F102C002F18C
:1052B00003C003F103C021F102C020F101C01FF1BE
:1052C00000C01EF10101256BC00E246F7F0E236FFD
:1052D000880E226F000146EC06F001011D6B1C6B6D
:1052E000480E1B6F850E1A6F03C021F102C020F11A
:1052F00001C01FF100C01EF1000148EC0AF000C01F
:1053000000F101C001F102C002F103C003F1080E77
:10531000F66E0A0EF76E040E0101086F000131EC03
:1053200008F0010EE96E8EC00BF18DC00AF18CC041
:1053300009F18BC008F101010C6F000125EC0BF0A5
:10534000110EF66E0A0EF76E0A0E0101086F0001CB
:1053500031EC08F0010EE96E03C10BF102C10AF154
:1053600001C109F100C108F101010C6B000125EC3C
:105370000BF0166AF2BE168EF29E010E0101326F1C
:10538000040E336F000106EC01F016BEF28E220E01
:10539000F66E0A0EF76E090E0101086F000131EC7E
:1053A00008F0890EE96EC2C00BF1C1C00AF1C0C09D
:1053B00009F1BFC008F1020E01010C6F000125ECDC
:1053C0000BF0166AF2BE168EF29E200E0101316FAE
:1053D000000143EC01F016BEF28E938681A642D006
:1053E000D892C2C021F1C1C020F1C0C01FF1BFC01E
:1053F0001EF10A0E0101256FD70E246F230E236FB5
:10540000780E226F0001F5EC06F003C0C2F002C076
:10541000C1F001C0C0F000C0BFF0166AF2BE168E27
:10542000F29E320E0101326F00015BEC00F016BEFD
:10543000F28E01011D6B1C6B700E1B6F830E1A6FB9
:10544000C2C021F1C1C020F1C0C01FF1BFC01EF118
:10545000000116EC0CF006E3C26BC16B700EC06F5E
:10546000830EBF6F938481A43ED0D882C2C021F145
:10547000C1C020F1C0C01FF1BFC01EF10A0E010162
:10548000256FD70E246F230E236F780E226F000135
:10549000F5EC06F003C0C2F002C0C1F001C0C0F0DC
:1054A00000C0BFF0166AF2BE168EF29E320E0101E7
:1054B000326F00015BEC00F016BEF28EC2C01DF12F
:1054C000C1C01CF1C0C01BF1BFC01AF10101216BAA
:1054D000206B1F6B1E6B000116EC0CF004E3C26B1B
:1054E000C16BC06BBF6B938081A0BAD034BAB7D008
:1054F000010E186E366A020E1C6E1E6E0B0E1B6EAF
:10550000166AF2BE168EF29E1E0E0101326F000167
:105510005BEC00F016BEF28E166AF2BE168EF29E9C
:105520000C0E0101316F000143EC01F016BEF28E4A
:10553000C2C0AAF0C1C0A9F0C0C0A8F0BFC0A7F007
:10554000C2C002F1C1C001F1C0C000F1BFC0FFF094
:1055500053EC0CF001C022F001010A6B22C009F1EA
:1055600000012BEC06F0D882AAC021F1A9C020F1DD
:10557000A8C01FF1A7C01EF103C025F102C024F18D
:1055800001C023F100C022F1F5EC06F003C0AAF03F
:1055900002C0A9F001C0A8F000C0A7F0AAC01DF188
:1055A000A9C01CF1A8C01BF1A7C01AF10101216B11
:1055B000206B480E1F6F850E1E6F000148EC0AF02D
:1055C00003C0AEF002C0ADF001C0ACF000C0ABF063
:1055D000AEC002F1ADC001F1ACC000F1ABC0FFF054
:1055E00053EC0CF001C023F0190EA96E22C0A8FFE5
:1055F000A69CA69EA684F250006EF29E0F01550E48
:10560000A76EAA0EA76EA682A6B2FED7A6940050D9
:10561000F2121A0EA96E23C0A8FFA69CA69EA6840D
:10562000F250006EF29E550EA76EAA0EA76EA682CD
:10563000A6B2FED7A6940050F212040E0101006F2C
:10564000166AF2BE168EF29EFA0E326F00015BEC05
:1056500000F016BEF28E0101002FF2D7000101D03A
:10566000349A938281A223D034BE20D0010E186ECA
:10567000366A020E1C6E1E6E0B0E1B6E166AF2BE92
:10568000168EF29E1E0E0101326F00015BEC00F0DF
:1056900016BEF28E166AF2BE168EF29E0C0E010136
:1056A000316F000143EC01F016BEF28E01D0349E42
:1056B000010118500908D8A44CEF2FF0166AF2BE69
:1056C000168EF29E010E326F336F000106EC01F070
:1056D00016BEF28E01010A6B2AC009F100012BEC03
:1056E00006F000C000F101C001F102C002F103C0E8
:1056F00003F103C021F102C020F101C01FF100C07D
:105700001EF10101256B246B7F0E236F860E226F25
:10571000000146EC06F001011D6B1C6B480E1B6F6F
:10572000850E1A6F03C021F102C020F101C01FF1E4
:1057300000C01EF1000148EC0AF000C000F101C0F9
:1057400001F102C002F103C003F1320EF66E0A0E3F
:10575000F76E0D0E0101086F000131EC08F0010E2B
:10576000E96E03C10BF102C10AF101C109F100C1E7
:1057700008F101010C6B000125EC0BF0166AF2BE7A
:10578000168EF29E250E0101316F000143EC01F0EF
:1057900016BEF28E166AF2BE168EF29E200E010121
:1057A000316F000143EC01F016BEF28E166AF2BEB4
:1057B000168EF29E010E0101326F040E336F00014E
:1057C00006EC01F016BEF28E020E0101046F00011C
:1057D00071EC0CF000C000F101C001F102C002F157
:1057E00003C003F103C021F102C020F101C01FF189
:1057F00000C01EF10101256BC00E246F7F0E236FC8
:10580000880E226F000146EC06F001011D6B1C6B37
:10581000480E1B6F850E1A6F03C021F102C020F1E4
:1058200001C01FF100C01EF1000148EC0AF000C0E9
:1058300000F101C001F102C002F103C003F1480E02
:10584000F66E0A0EF76E040E0101086F000131ECCE
:1058500008F0010EE96E8EC00BF18DC00AF18CC00C
:1058600009F18BC008F101010C6F000125EC0BF070
:10587000510EF66E0A0EF76E0A0E0101086F000156
:1058800031EC08F0010EE96E03C10BF102C10AF11F
:1058900001C109F100C108F101010C6B000125EC07
:1058A0000BF04EB203D14EB401D14EB6FFD0938669
:1058B00081A645D0020E0101006F166AF2BE168E57
:1058C000F29EFA0E326F00015BEC00F016BEF28E13
:1058D0000101002FF2D7938681A630D0166AF2BE5E
:1058E000168EF29E010E326F020E336F000106EC2F
:1058F00001F016BEF28E620EF66E0A0EF76E166A92
:10590000F2BE168EF29E79EC01F016BEF28E4E8239
:105910004E944E960A0E2D6E2F6E040E0101006FEE
:10592000166AF2BE168EF29EFA0E326F00015BEC22
:1059300000F016BEF28E0101002FF2D70001938411
:1059400081A445D0020E0101006F166AF2BE168EC8
:10595000F29EFA0E326F00015BEC00F016BEF28E82
:105960000101002FF2D7938481A430D0166AF2BED1
:10597000168EF29E010E326F020E336F000106EC9E
:1059800001F016BEF28E740EF66E0A0EF76E166AEF
:10599000F2BE168EF29E79EC01F016BEF28E4E84A7
:1059A0004E924E960A0E2E6E2F6E040E0101006F5F
:1059B000166AF2BE168EF29EFA0E326F00015BEC92
:1059C00000F016BEF28E0101002FF2D70001938085
:1059D00081A045D0020E0101006F166AF2BE168E3C
:1059E000F29EFA0E326F00015BEC00F016BEF28EF2
:1059F0000101002FF2D7938081A030D0166AF2BE49
:105A0000168EF29E010E326F020E336F000106EC0D
:105A100001F016BEF28E840EF66E0A0EF76E166A4E
:105A2000F2BE168EF29E79EC01F016BEF28E4E8614
:105A30004E924E940A0E2D6E2E6E040E0101006FD2
:105A4000166AF2BE168EF29EFA0E326F00015BEC01
:105A500000F016BEF28E0101002FF2D700019382F2
:105A600081A224D0010E186E366A020E1C6E1E6EC4
:105A70000B0E1B6E020E0101006F166AF2BE168E2F
:105A8000F29EFA0E326F00015BEC00F016BEF28E51
:105A90000101002FF2D7166AF2BE168EF29E0C0E8E
:105AA000316F000143EC01F016BEF28E4EB204D00D
:105AB0002E501408D8A4B6D04E944E960A0E2D6ED1
:105AC0002F6E166AF2BE168EF29E010E0101326F23
:105AD000020E336F000106EC01F016BEF28E940E3A
