:04000000B9EF04F060
:08000800046ED8CF05F0E0CF33
:1000100006F00001E9CF0CF0EACF07F0E1CF08F0DD
:10002000E2CF09F0D9CF0AF0DACF0BF0F3CF12F01C
:10003000F4CF13F0FACF14F000C00EF001C00FF0AF
:1000400002C010F003C011F09DA02AEF00F09EB096
:100050005AEF00F00EC000F00FC001F010C002F027
:1000600011C003F00CC0E9FF07C0EAFF078E08C00B
:10007000E1FF09C0E2FF0AC0D9FF0BC0DAFF12C0DE
:10008000F3FF13C0F4FF14C0FAFF045006C0E0FFF2
:1000900005C0D8FF1000F2CF0DF0F29EF76AB00F46
:1000A000F66E000EF7220900F5500DBEF28E12001A
:1000B000280C0106150ECF6EA00ECE6E2F2AD8B4D6
:1000C000302A305203E12F50C70803E2306A2F6A0A
:1000D000212A9E902AEF00F04C555A20424C414E66
:1000E00043412020202020204F4646004C555A20D6
:1000F000424C414E4341202020202020204F4E00E2
:10010000455854524143544F522020202020202053
:100110004F464600455854524143544F52202020E8
:1001200020202020204F4E0043414D42494F204384
:100130004F4E54524153454E4120200020434142EE
:10014000494E412020455854524143544F5241207A
:100150000000202044452048554D4F53205920474A
:100160004153455320200000202020204A502049A0
:100170004E474C4F42414C2020202020000020526E
:1001800045463A2050414E454C204A50434548315F
:10019000352000002020202020496E67726573659D
:1001A0002020202020202020000020202020436F1D
:1001B0006E7472617365F1612020202020200000A0
:1001C00020202020434C4156453D2569256925695D
:1001D0002569202000002020202020202020202011
:1001E000202020202020202020002020202020430C
:1001F0006F6E7472617365F16120202020002020F1
:1002000020202020436F72726563746120202020BB
:1002100020002020202020202020202020202020FE
:100220002020202020002020202020436F6E747288
:10023000617365F1612020202000202020202049CA
:100240006E636F727265637461202020200020202D
:10025000202020202020202020202020202020209E
:1002600020002D2D2D4D454E55205052494E4349CD
:1002700050414C2D2D2D000020202020202020201A
:1002800020202020202020202020202000002020AE
:1002900020202020456E63656E64696F2020202039
:1002A0002020000020202020204C757A20426C6104
:1002B0006E636120202020200000202020202020AC
:1002C000202020202020202020202020202000006E
:1002D000202020202020202020202020202020201E
:1002E000202020200000202020202020204170619C
:1002F000676F2020202020202020000020202020A8
:100300004C757A2020426C616E6361202020202091
:10031000000020202020202020202020202020201D
:10032000202020202020000020202020202020200D
:1003300020202020202020202020202000002020FD
:1003400020202020456E63656E64696F2020202088
:100350002020000020202020202045787472616336
:10036000746F7220202020200000202020202020D8
:1003700020202020202020202020202020200000BD
:10038000202020202020202020202020202020206D
:1003900020202020000020202020202020417061EB
:1003A000676F2020202020202020000020202020F7
:1003B00020457874726163746F72202020202020A1
:1003C000000020202020202020202020202020206D
:1003D0002020202020200000202020202020496EE6
:1003E00067726573652020202020202000002043B4
:1003F0006F6E7472617365F1612041637475616C35
:100400002020000020202020434C4156453D2569F6
:100410002569256925692020000020202020202032
:10042000202020202020202020202020202000000C
:100430002020202020436F6E7472617365F161206B
:10044000202020200000202020202020436F7272D6
:1004500065637461202020202020000020202020BF
:10046000202020202020202020202020202020208C
:1004700000002020202020202020202020202020BC
:1004800020202020202000002020202020436F6EEC
:100490007472617365F1612020202020000020200B
:1004A000202020496E636F72726563746120202082
:1004B000202000002020202020202020202020207C
:1004C0002020202020202020000020202020204943
:1004D0006E67726573652020202020202020000098
:1004E0002020436F6E7472617365F161204E7565F3
:1004F00076612020000020202020434C4156453DBD
:1005000025692569256925692020000020202020F3
:1005100020202020202020202020202020202020DB
:1005200000002020202020436F6E7472617365F1FB
:1005300061202020202000002020202020416C6D00
:100540006163656E6164612020202020000020200E
:10055000202020202020202020202020202020209B
:1005600020200000EA6A380EE96EEF500EE00F0E10
:10057000016E006A002EFED7012EFBD78F0E006E93
:10058000002EFED70000EF2EF2D7000C3E38F00B05
:10059000006E0F0E81140010816E080E006E002E8A
:1005A000FED78180DB0E006E002EFED700D081903A
:1005B000000CF00E936E8184080E006E002EFED7A4
:1005C0008180080E006E002EFED781380F0B3E6E24
:1005D0008190080E006E002EFED78180630E006EA3
:1005E000002EFED700D081380F0B3D6E8190000E9B
:1005F000936E3E38006EF00E001600503D10016EF6
:1006000004EF03F08192D5D701C03DF001BEFBD7C6
:100610003BA081923BB08182080E006E002EFED777
:100620008194080E006E002EFED781903C383D6EFE
:100630000F0E3D163DC03EF0A9DF3C500F0B3D6E46
:100640003E6EA4DF000C000E936E81928194819027
:100650000F0E386E87DF010E316E3150030808E34C
:10066000030E3E6E93DF050E386E7CDF312AF5D720
:10067000020E3E6E8BDF316A315003080EE3036ACF
:100680003150F2CF32F0F29E06DD32BEF28E326E83
:100690003B6A3C6EB7DF312AEFD7000C010E395CA4
:1006A000FC0F0FE2040F69EF03F0800E3A6E09D0E1
:1006B000C00E3A6E06D0940E3A6E03D0D40E3A6E47
:1006C00000D0010E385C3A263B6A3AC03CF09ADF13
:1006D000000CF2CF0DF0F29EE824F76AF736F70F20
:1006E000F66E060EF7220A00F550FA6E0800F55075
:1006F0000DBEF28EF96EAA06B006B606BC063750DD
:10070000F10802E1EE0E376E37500C0A05E0060ADA
:100710000DE0020A12E016D03B6A010E3C6E72DF59
:10072000010E166E050E386E1DDF12D0162A010E50
:10073000386E16C039F0B2DF0BD03B6A100E3C6E3B
:1007400061DF06D0010E3B6E37C03CF05BDF00D0AE
:10075000000C0900F5520CE0F6CF34F0F7CF35F07D
:10076000F5CF37F0CCDF34C0F6FF35C0F7FFF1D757
:10077000000C0900F6CF32F0F7CF33F0F5CF37F0A9
:10078000BEDF32C0F6FF33C0F7FF312EF2D7000CC8
:100790003850016A375C03E237C000F00CD0006AC1
:1007A000080E396E373600363850005CD8B0006E0F
:1007B0000136392EF7D7000C200E32A8300E336EDA
:1007C00031C000F031AE07D0001E002A00C031F069
:1007D0002D0E336E328E015031C037F0640E386EFC
:1007E000D7DF00C031F0300E0124346E31C037F055
:1007F0000A0E386ECDDF300E0024366E300E012426
:10080000356E33C000F032A602D032AE329432B828
:100810000BD032AE22D032B420D000C034F032B28D
:100820001CD000C035F019D0300E345C16E100C089
:1008300034F0200E336E32A604D03294328232AEBF
:100840003292300E355C09E100C035F0200E346E76
:1008500032A6F7D7329232AE329032A403D033C0F0
:1008600037F04DDF32A203D034C037F048DF32A07A
:1008700003D035C037F043DF36C037F040DF000C1F
:10088000322C18D017B20AD0020E386E33C039F0AD
:1008900005DFD80EF66E000EF76E5BDF17A20AD0EA
:1008A000020E386E33C039F0F9DEEC0EF66E000E33
:1008B000F76E4FDF3250020818E117B40AD0020E6B
:1008C000386E33C039F0EADE000EF66E010EF76EB8
:1008D00040DF17A40AD0020E386E33C039F0DEDED6
:1008E000140EF66E010EF76E34DF325003080AE183
:1008F000020E386E33C039F0D1DE280EF66E010ECE
:10090000F76E27DF000C315208E18C9695968C9893
:1009100095988C9A959A8C949594312C08D08C96B5
:1009200095968C9895988C9A959A8C84959431503C
:10093000020808E18C9895988C9A959A8C949594D5
:100940008C8695963150030808E18C9A959A8C9480
:1009500095948C9695968C8895983150040808E16A
:100960008C9695968C9895988C9495948C8A959A5B
:10097000000CF86AD09E078EEA6AE96A179017920F
:10098000179417961798179A179C186A050E196EE0
:10099000020E1A6E0B0E1B6E020E1C6E030E1D6EE7
:1009A000020E1E6E1F6E040E206E216A266A010E54
:1009B000276E306A2F6AC150C00B0F09C16E070E37
:1009C000B46E226A236A246A256A286A296A2A6A16
:1009D0002B6A3E0E2C6E200E2D6E5E0E2E6E956ACC
:1009E0008C6A31DE850ECD6E9D80C00EF212010E36
:1009F000386E396E53DE3C0EF66E010EF76EA9DED0
:100A0000010E386E020E396E49DE520EF66E010E80
:100A1000F76E9FDE010E386E030E396E3FDE680EF4
:100A2000F66E010EF76E95DE010E386E040E396E0D
:100A300035DE7E0EF66E010EF76E8BDE080E316E21
:100A4000FA0E386E8FDD312EFBD70C0E376E57DE67
:100A5000F2CF31F0F29EA96AA69CA69EA680A8506D
:100A600031BEF28E226E140E386E7CDDF2CF31F084
:100A7000F29E010EA96EA69CA69EA680A85031BE2D
:100A8000F28E236E140E386E6DDDF2CF31F0F29ED1
:100A9000020EA96EA69CA69EA680A85031BEF28E1C
:100AA000246E140E386E5EDDF2CF31F0F29E030E2E
:100AB000A96EA69CA69EA680A85031BEF28E256E79
:100AC000140E386E4FDD1852D8A4A9D1010E386E1D
:100AD000396EE4DD940EF66E010EF76E3ADE010E0D
:100AE000386E020E396EDADDAA0EF66E010EF76E62
:100AF00030DE010E386E030E396ED0DDC00EF66E9C
:100B0000010EF76E0A0E316E34DE28C031F01F0E72
:100B1000326E52DE29C031F01F0E326E4DDE2AC019
:100B200031F01F0E326E48DE2BC031F01F0E326ED8
:100B300043DE200E376EE3DD200E376EE0DD92805F
:100B400080A010D017B60DD00B0E1B5C036A280FC7
:100B5000E96E000E0320EA6EEF2A17861E0E386E2D
:100B600001DD01D01796928280A210D017BA0DD065
:100B70000B0E1B5C036A280FE96E000E0320EA6E61
:100B8000EF06178A1E0E386EEDDC01D0179A92849C
:100B900080A40BD017B808D017881B2A1E0E386EF9
:100BA000E1DC0C0E376EABDD01D01798928680A683
:100BB0000BD017BC08D0178C1B061E0E386ED2DC6B
:100BC0000C0E376E9CDD01D0179C0B0E1B5C036A6C
:100BD000280FE96E000E0320EA6EEFBE01D00AD0A6
:100BE0000B0E1B5C036A280FE96E000E0320EA6EF1
:100BF000090EEF6E0B0E1B5C036A280FE96E000EE8
:100C00000320EA6EEFBE0CD0EF50090809E20B0E8C
:100C10001B5C036A280FE96E000E0320EA6EEF6A80
:100C20001B500A0802E30B0E1B6E1BC038F0040EAB
:100C3000396E34DD2EC037F062DD1B500E08D8B09F
:100C4000DED02850030869E12950080866E12A50DF
:100C5000090863E12B50020860E1A96AA86AA69C12
:100C6000A69EA684F250006EF29E0F01550EA76E4E
:100C7000AA0EA76EA682A6B2FED7A6940050F212C4
:100C8000140E386E00016EDC010EA96EA86AA69CD7
:100C9000A69EA684F250006EF29E0F01550EA76E1E
:100CA000AA0EA76EA682A6B2FED7A6940050F21294
:100CB000140E386E000156DC020EA96EA86AA69CBE
:100CC000A69EA684F250006EF29E0F01550EA76EEE
:100CD000AA0EA76EA682A6B2FED7A6940050F21264
:100CE000140E386E00013EDC030EA96EA86AA69CA5
:100CF000A69EA684F250006EF29E0F01550EA76EBE
:100D0000AA0EA76EA682A6B2FED7A6940050F21233
:100D1000140E386E000126DCFF002250285C40E1F2
:100D20002350295C3DE124502A5C3AE125502B5C9C
:100D300037E1010E386E396EB1DCD60EF66E010E5B
:100D4000F76E07DD010E386E020E396EA7DCEA0E73
:100D5000F66E010EF76EFDDC010E386E030E396E75
:100D60009DDCFE0EF66E010EF76EF3DC010E386EA2
:100D7000040E396E93DC120EF66E020EF76EE9DC8D
:100D8000020E316EFA0E386EB2EC02F0312EFAD746
:100D9000010E186E0B0E1B6E0C0E376EB0DC2FD0D2
:100DA000010E386E396E7ADC010E386E020E396E25
:100DB00075DC260EF66E020EF76ECBDC010E386E79
:100DC000030E396E6BDC3A0EF66E020EF76EC1DC66
:100DD000010E386E040E396E61DC4E0EF66E020E98
:100DE000F76EB7DC020E316EFA0E386EB2EC02F01E
:100DF000312EFAD70B0E1B6E0C0E376E80DC1B509B
:100E00000B080DE21B500D080AE3010E1B5C316E4E
:100E1000386E040E396E42DC2DC037F070DC182CB1
:100E200052D0010E386E396E39DC620EF66E020E4B
:100E3000F76E8FDC26BE01D001D0266A010E262473
:100E4000316E326E030E336E1BDD020E2624316EC0
:100E5000326E040E336E14DD928680A60AD017B669
:100E600007D0030E186E17861E0E386EB2EC02F015
:100E700001D01796928280A20AD017BA07D0178A9B
:100E80001E0E386EB2EC02F0020E186E01D0179AE8
:100E9000928080A017D017B814D0040E186E020EDE
:100EA000316EFA0E386EB2EC02F0312EFAD70C0E1B
:100EB000376E25DC1850040804E1286A296A2A6A7A
:100EC0002B6A01D017981850020876E1010E186EAF
:100ED000266A177217A22ED017828C829592010E65
:100EE000386E396E4EEC03F0780EF66E020EF76E29
:100EF00030DC010E386E020E396E4EEC03F08E0EB1
:100F0000F66E020EF76E25DC010E386E030E396E9A
:100F10004EEC03F0A40EF66E020EF76E1ADC010E14
:100F2000386E040E396E4EEC03F0BA0EF66E020EF9
:100F3000F76E0FDC17B231D017928C929592010E9A
:100F4000386E396E4EEC03F0D00EF66E020EF76E70
:100F500000DC010E386E020E396E4EEC03F0E60E28
:100F6000F66E020EF76EA9EC03F0010E386E030E5A
:100F7000396E4EEC03F0FC0EF66E020EF76EA9EC25
:100F800003F0010E386E040E396E4EEC03F0120EB3
:100F9000F66E030EF76EA9EC03F0020E316EFA0E38
:100FA000386EB2EC02F0312EFAD7020E1C6E1E6EB5
:100FB0000C0E376E7FEC03F018500308D8A481D0D4
:100FC00017741788010E186E266A17A435D0178477
:100FD000010E316E98DC8C809590010E386E396E62
:100FE0004EEC03F0280EF66E030EF76EA9EC03F03C
:100FF000010E386E020E396E4EEC03F03E0EF66EA8
:10100000030EF76EA9EC03F0010E386E030E396E75
:101010004EEC03F0540EF66E030EF76EA9EC03F0DF
:10102000010E386E040E396E4EEC03F06A0EF66E49
:10103000030EF76EA9EC03F017B434D01794316A9D
:1010400062DC8C909590010E386E396E4EEC03F098
:10105000800EF66E030EF76EA9EC03F0010E386EEB
:10106000020E396E4EEC03F0960EF66E030EF76E1E
:10107000A9EC03F0010E386E030E396E4EEC03F04E
:10108000AC0EF66E030EF76EA9EC03F0010E386E8F
:10109000040E396E4EEC03F0C20EF66E030EF76EC0
:1010A000A9EC03F0020E316EFA0E386EB2EC02F0CB
:1010B000312EFAD7020E1C6E1E6E0C0E376E7FECB0
:1010C00003F018500408D8A480D1010E386E396E90
:1010D0004EEC03F0D80EF66E030EF76EA9EC03F09B
:1010E000010E386E020E396E4EEC03F0EE0EF66E07
:1010F000030EF76EA9EC03F0010E386E030E396E85
:101100004EEC03F0040EF66E040EF76E0A0E316E0E
:10111000B9EC03F028C031F01F0E326EDCEC03F0A6
:1011200029C031F01F0E326EDCEC03F02AC031F022
:101130001F0E326EDCEC03F02BC031F01F0E326E4E
:10114000DCEC03F0200E376E7FEC03F0200E376EE0
:101150007FEC03F0928080A011D017B60ED00B0E5A
:101160001B5C036A280FE96E000E0320EA6EEF2A6B
:1011700017861E0E386EB2EC02F001D017969282DE
:1011800080A211D017BA0ED00B0E1B5C036A280F79
:10119000E96E000E0320EA6EEF06178A1E0E386E07
:1011A000B2EC02F001D0179A928480A40DD017B847
:1011B0000AD017881B2A1E0E386EB2EC02F00C0EF5
:1011C000376E7FEC03F001D01798928680A60DD081
:1011D00017BC0AD0178C1B061E0E386EB2EC02F03C
:1011E0000C0E376E7FEC03F001D0179C0B0E1B5CCE
:1011F000036A280FE96E000E0320EA6EEFBE01D0ED
:101200000AD00B0E1B5C036A280FE96E000E032048
:10121000EA6E090EEF6E0B0E1B5C036A280FE96E77
:10122000000E0320EA6EEFBE0CD0EF50090809E271
:101230000B0E1B5C036A280FE96E000E0320EA6E9A
:10124000EF6A1B500A0814E3010E186E266A020E9C
:101250001C6E1E6E0B0E1B6E0C0E376E7FEC03F0B9
:10126000020E316EFA0E386EB2EC02F0312EFAD761
:101270001BC038F0040E396E4EEC03F02EC037F070
:101280007FEC03F01B500E08D8B08DD02250285CA4
:101290004DE12350295C4AE124502A5C47E1255066
:1012A0002B5C44E1010E386E396E4EEC03F01A0EE1
:1012B000F66E040EF76EA9EC03F0010E386E020E06
:1012C000396E4EEC03F0300EF66E040EF76EA9EC9C
:1012D00003F0010E386E030E396E4EEC03F0460E2D
:1012E000F66E040EF76EA9EC03F0010E386E040ED4
:1012F000396E4EEC03F05C0EF66E040EF76EA9EC40
:1013000003F0020E316EFA0E386EB2EC02F0312E9E
:10131000FAD7330E186E0B0E1B6E0C0E376E7FEC69
:1013200003F0286A296A2A6A2B6A3DD0010E386EBA
:10133000396E4EEC03F0720EF66E040EF76EA9ECE9
:1013400003F0010E386E020E396E4EEC03F0880E7B
:10135000F66E040EF76EA9EC03F0010E386E030E64
:10136000396E4EEC03F09E0EF66E040EF76EA9EC8D
:1013700003F0010E386E040E396E4EEC03F0B40E1D
:10138000F66E040EF76EA9EC03F0020E316EFA0E43
:10139000386EB2EC02F0312EFAD70B0E1B6E0C0E2B
:1013A000376E7FEC03F01B500B080FE21B500D084B
:1013B0000CE3010E1B5C316E386E040E396E4EEC80
:1013C00003F02DC037F07FEC03F018503308D8A499
:1013D00087D1010E386E396E4EEC03F0CA0EF66EF0
:1013E000040EF76EA9EC03F0010E386E020E396E92
:1013F0004EEC03F0E00EF66E040EF76EA9EC03F06F
:10140000010E386E030E396E4EEC03F0F60EF66EDA
:10141000040EF76E0A0E316EB9EC03F028C031F0FD
:101420001F0E326EDCEC03F029C031F01F0E326E5D
:10143000DCEC03F02AC031F01F0E326EDCEC03F05E
:101440002BC031F01F0E326EDCEC03F0200E376E35
:101450007FEC03F0200E376E7FEC03F0928080A0CB
:1014600011D017B60ED00B0E1B5C036A280FE96E65
:10147000000E0320EA6EEF2A17861E0E386EB2ECBD
:1014800002F001D01796928280A211D017BA0ED026
:101490000B0E1B5C036A280FE96E000E0320EA6E38
:1014A000EF06178A1E0E386EB2EC02F001D0179AC2
:1014B000928480A40DD017B80AD017881B2A1E0E5C
:1014C000386EB2EC02F00C0E376E7FEC03F001D0F8
:1014D0001798928680A60DD017BC0AD0178C1B06D1
:1014E0001E0E386EB2EC02F00C0E376E7FEC03F07D
:1014F00001D0179C0B0E1B5C036A280FE96E000ECF
:101500000320EA6EEFBE01D00AD00B0E1B5C036A0B
:10151000280FE96E000E0320EA6E090EEF6E0B0E27
:101520001B5C036A280FE96E000E0320EA6EEFBE13
:101530000CD0EF50090809E20B0E1B5C036A280F60
:10154000E96E000E0320EA6EEF6A1B500A0804E3FE
:10155000050E186E0B0E1B6E1BC038F0040E396E94
:101560004EEC03F02EC037F07FEC03F01B500E085A
:10157000D8B0A4D0010E386E396E4EEC03F00C0ECC
:10158000F66E050EF76EA9EC03F0010E386E020E32
:10159000396E4EEC03F0220EF66E050EF76EA9ECD6
:1015A00003F0010E386E030E396E4EEC03F0380E68
:1015B000F66E050EF76EA9EC03F0010E386E040E00
:1015C000396E4EEC03F04E0EF66E050EF76EA9EC7A
:1015D00003F0A96A28C0A8FFA69CA69EA684F25084
:1015E000006EF29E0F01550EA76EAA0EA76EA68280
:1015F000A6B2FED7A6940050F212140E386E000167
:10160000B2EC02F0010EA96E29C0A8FFA69CA69E0E
:10161000A684F250006EF29E0F01550EA76EAA0E20
:10162000A76EA682A6B2FED7A6940050F212140EA0
:10163000386E0001B2EC02F0020EA96E2AC0A8FFBB
:10164000A69CA69EA684F250006EF29E0F01550E37
:10165000A76EAA0EA76EA682A6B2FED7A6940050C9
:10166000F212140E386E0001B2EC02F0030EA96EF5
:101670002BC0A8FFA69CA69EA684F250006EF29EE8
:101680000F01550EA76EAA0EA76EA682A6B2FED7B0
:10169000A6940050F212140E386E0001B2EC02F063
:1016A000020E316EFA0E386EB2EC02F0312EFAD71D
:1016B000010E186E266A020E1C6E1E6E1B500B0861
:1016C0000FE21B500D080CE3010E1B5C316E386EEF
:1016D000040E396E4EEC03F02DC037F07FEC03F0B2
:1016E0002150130803E223EC03F0216A63EF05F0B5
:0216F0000300F5
:020000040030CA
:0E00000020CE1E1E008781000FC00FE00F40B3
:00000001FF
;PIC18F4550
;CRC=3F55  CREATED="29-oct.-15 11:11"
