:04000000CCEF11F040
:08000800046ED8CF05F0E0CF33
:1000100006F00001E9CF0CF0EACF07F0E1CF08F0DD
:10002000E2CF09F0D9CF0AF0DACF0BF0F3CF12F01C
:10003000F4CF13F0FACF14F000C00EF001C00FF0AF
:1000400002C010F003C011F09DA02AEF00F09EB096
:100050005AEF00F00EC000F00FC001F010C002F027
:1000600011C003F00CC0E9FF07C0EAFF078E08C00B
:10007000E1FF09C0E2FF0AC0D9FF0BC0DAFF12C0DE
:10008000F3FF13C0F4FF14C0FAFF045006C0E0FFF2
:1000900005C0D8FF1000F2CF0DF0F29EF76AB00F46
:1000A000F66E000EF7220900F5500DBEF28E12001A
:1000B000280C0106150ECF6EA00ECE6E4F2AD8B4B6
:1000C000502A532AD8B4542A52500A0806E2FF0A8A
:1000D00003E15150B70801E2358235A003D0512A1F
:1000E000D8B4522A35AE0ED0552AD8B4562A565016
:1000F0002D0808E2FF0A03E15550DF0803E23482CD
:100100008A8E939E5350140805E1545203E1546AB9
:10011000536A358C4F50C80815E1505213E1506AAC
:100120004F6A332A358A34A20DD035A40BD0302A39
:1001300030503C0802E1306A312A31503C0802E17B
:10014000316A322A9E902AEF00F0416C61726D6133
:10015000202020202020202020204F464600416CD7
:1001600061726D6120202020202020202020204F3F
:100170004E0046696C74726F2020202020202020C1
:10018000202020202000536574706F696E74202039
:100190002020202020202020200043616D62696FF4
:1001A00020436F6E7472617365F1612020004D65AC
:1001B000646961204D6F76696C202020202020200A
:1001C000200050756E746F204365726F20202020D0
:1001D0002020202020004D616E74656E696D696578
:1001E0006E746F202020202020004D6F646F20202F
:1001F00020202020202020202020202020002043FC
:100200004142494E412020455854524143544F5297
:1002100041200000202044452048554D4F5320598F
:1002200020474153455320200000202020204A50E1
:1002300020494E474C4F42414C20202020200000B6
:10024000205245463A2050414E454C204A504345A5
:100250004831352000002020202020496E6772653B
:100260007365202020202020202000002020202036
:10027000436F6E7472617365F1612020202020202D
:10028000000020202020434C4156453D256925692A
:100290002569256920200000202020202020202002
:1002A000202020202020202020202000202020206E
:1002B00020436F6E7472617365F16120202020000D
:1002C000202020202020436F7272656374612020FB
:1002D000202020002020202020202020202020203E
:1002E00020202020202020002020202020436F6E6E
:1002F0007472617365F1612020202000202020208D
:1003000020496E636F727265637461202020200043
:1003100020202020202020202020202020202020DD
:10032000202020002D2D2D4D454E55205052494E58
:10033000434950414C2D2D2D00002020202020200D
:1003400020202020202020202020202020200000ED
:10035000202020202020202041637469766F2020F7
:100360002020202000002020202020202020416C60
:1003700061726D612020202020200000202020209C
:10038000202020202020202020202020202020206D
:10039000000020202020202020202020202020209D
:1003A0002020202020200000202020202020446524
:1003B0007361637469766F20202020200000202064
:1003C0002020202020416C61726D6120202020209F
:1003D000202000002020202020202020202020205D
:1003E0002020202020202020000020204475726141
:1003F00063696F6E2041637475616C20202000007A
:10040000205469656D706F3D20253032753A253076
:1004100032753A253032752000004445534143542B
:10042000495641523D204F7072696D61203E000077
:1004300020414354495641523D204F7072696D61CD
:10044000203E202000002052455345543D204F704F
:1004500072696D61205E20202020000020526573AB
:100460006574206465207469656D706F20002020BC
:10047000202020457869746F736F20202020200091
:10048000202020202020536574706F696E74202016
:100490002020202000002020202020202025322E77
:1004A000326620202000202020202020496E677204
:1004B00065736520202020202020000020436F6EDF
:1004C0007472617365F1612041637475616C202001
:1004D000000020202020434C4156453D25692569D8
:1004E00025692569202000002020202020202020B0
:1004F000202020202020202020202020000020203C
:10050000202020436F6E7472617365F1612020209A
:1005100020200000202020202020436F727265637D
:100520007461202020202020000020202020202076
:1005300020202020202020202020202020200000FB
:1005400020202020202020202020202020202020AB
:100550002020202000002020202020436F6E747275
:10056000617365F1612020202020000020202020E0
:1005700020496E636F7272656374612020202020B1
:1005800000002020202020202020202020202020AB
:1005900020202020202000002020202020496E67DD
:1005A000726573652020202020202020000020205C
:1005B000436F6E7472617365F161204E756576618B
:1005C0002020000020202020434C4156453D256935
:1005D0002569256925692020000020202020202071
:1005E000202020202020202020202020202000004B
:1005F0002020202020436F6E7472617365F16120AA
:100600002020202000002020202020416C6D6163EC
:10061000656E6164612020202020000020202020C1
:1006200020202020202020202020202020202020CA
:10063000000020202020204D65646961204D6F76E8
:10064000696C202020200000202020202020202550
:10065000303269202020000020205A65726F20501F
:100660006F696E7420436F6E666967200000496E83
:10067000466C6F773D2025322E31662020286D2F65
:10068000732920005A463D25322E306620414443CE
:100690003D25322E30660000204469666572656E25
:1006A0006369613D25322E306600204D414E542E47
:1006B0002020563D25322E306620200044616D708A
:1006C0003D25322E306625252020543D25322E3002
:1006D0006620000049463D2025322E3166286D2FC8
:1006E00073292044616D3D25322E30660000416A39
:1006F00075737465313D2025322E32662000204D01
:100700004F444F20202044616D703D25322E3066CD
:100710002525200049463D2025322E3166286D2FA3
:1007200073292044616D3D25322E30660000202063
:10073000204D6F646F204D616E75616C202000004C
:100740002020204D6F646F204175746F20202000A1
:100750002020204D6F646F2053656D69202020009C
:100760002020204D6F646F204D616E75616C2020DC
:1007700000002020202053656C656363696F6E6103
:10078000646F2020202000002020204D6F646F2007
:100790004175746F202020002020202053656C6557
:1007A0006363696F6E61646F202020200000202049
:1007B000204D6F646F2053656D6920202000204A12
:1007C000502043454748000044616D703D25322E5E
:1007D000306625250000496E466C6F773D20253236
:1007E0002E316620286D2F732920000046696C7415
:1007F000726F3A43414D000046696C74726F3A4F14
:100800004B200000466C756A6F3D416A75730000AD
:10081000466C756A6F3D42616A6F0000466C756A8E
:100820006F3D416C746F0000466C756A6F3D4F4BB5
:10083000202000004C757A3A4F4E20004C757A3AD1
:100840004F46462000004D6F746F723A4F4E2000A5
:100850004D6F746F723A4F464620000020202020D2
:100860002041706167616E646F20202020200000AD
:10087000202020202020436162696E6120202020FA
:100880002020000020457370657265002020202024
:100890002020202020202020202020202020202058
:1008A0000000202020202050726F6365736F20208D
:1008B0002020202000002020202046696E616C69E5
:1008C0007A61646F2020202000002020204465737E
:1008D0006561206170616761722020202020000026
:1008E00020202020206C6120636162696E612020DD
:1008F0002020202000002020203E204163657074CD
:100900006172202020202020202000002020203C78
:100910002043616E63656C617220202020202020BE
:100920000000010EEA6E1B0EE96EEF500EE00F0E96
:10093000016E006A002EFED7012EFBD78F0E006ECF
:10094000002EFED70000EF2EF2D7000C01011C395B
:10095000F00B006E0F0E83140010836E080E006EF5
:10096000002EFED78384DB0E006E002EFED700D053
:1009700083940001000C8392010E01011B6F0001A2
:10098000D0DF010119A1839219B18382080E006E94
:10099000002EFED78390080E006E002EFED78394A3
:1009A0001A391B6F0F0E1B171BC11CF10001CEDF84
:1009B00001011A510F0B1B6F1C6F0001C7DF000CE8
:1009C000000E956E8392839083940F0E01011B6F2E
:1009D0000001A7DF010EFF6FFF5103080CE3030EB8
:1009E00001011C6F0001B2DF050E01011B6F000148
:1009F00098DFFF2BF1D7020E01011C6F0001A6DF6B
:100A0000FF6BFF51030811E3036AFF51F2CF00F1BE
:100A1000F29E4BEC00F0010100BFF28E006F196BEB
:100A20001A6F0001A8DFFF2BECD7000C010E0101AB
:100A3000175DFC0F15E2040F000139EF05F0800E81
:100A40000101186F0DD0C00E0101186F09D0940E6E
:100A50000101186F05D0D40E0101186F01D00101FA
:100A6000010E165D1827196B18C11AF1000183DFFA
:100A7000000CF2CF0DF0F29EE824F76AF736970FDC
:100A8000F66E0A0EF7220A00F550FA6E0800F550CD
:100A90000DBEF28EF96E3E0A460A4E0A560A010152
:100AA0001551F10802E1EE0E156F15510C0A000107
:100AB00005E0060A11E0020A18E01ED00101196BD8
:100AC000010E1A6F000157DF010E166E020E0101B2
:100AD0001B6F000126DF18D0162A010E0101166FC8
:100AE00016C017F10001A2DF0FD00101196B100E23
:100AF0001A6F000140DF08D0010E0101196F15C106
:100B00001AF1000138DF00D0000C8E0E006E0AC111
:100B100001F009C102F0036A015209E102C001F0CB
:100B2000026A080E005E015202E1006A08D0D89005
:100B300001BE04D0023601360006F9D7019E000C32
:100B400001011E51D8B4A5D02A6F2251D8B4A1D02A
:100B50002A5F05E37F0E2A27D8B09BD006D0810EEE
:100B60002A5FD8A096D0D8B494D02AC100F0016AE8
:100B7000026A036A296B1FC128F1288F20C127F15F
:100B800021C126F1190E2A6F2551265F0DE2010EB3
:100B9000275F0AE2285F08E2295F06E2292B282B5B
:100BA000272B2551262728D02451275F12E2010E3A
:100BB000285F0FE2295F0DE2292B282B24512727DC
:100BC0002551262719E3272B17E1282B15E1292B7F
:100BD00013D023518009285F0EE2010E295F0BE23A
:100BE000292B23518009282724512727E9E3282B83
:100BF000E7E1292BE5D703802A2F01D00BD0D8902D
:100C00002637273728372937D8900336023601365A
:100C10002B37BAD72BA106D0D8900132023203323B
:100C20002B3302D0000635E02BBF1ED0D8902637DC
:100C30002737283729372551265F07E2010E275F1E
:100C400004E2285F02E2295F1AE32451275F05E2EC
:100C5000010E285F02E2295F12E323518009285F19
:100C600003E2010E295F0BE3032A09E1022A07E1EF
:100C7000012A05E1002A0DE00132023203321FC1D0
:100C80002AF123512A1B2AAF02D0018E06D0019EE1
:100C900004D0006A016A026A036A0001000C800E37
:100CA000D8A202D00101231B0101286B296B1FC1AF
:100CB00027F12351271B1E51D8B4DFD0266F006EB9
:100CC0002251D8B4E3D0265FD8B483D03EE323C109
:100CD0002CF12C8F24C12BF125C12AF1296BD8903E
:100CE0002C332B332A332933262FF8D727AF03D0C1
:100CF0002881E0D0289126912889010EEA6E210EE4
:100D0000E96EEBD0289927BF0AD026A113D02C3347
:100D10002B332A332933002AD8B4C7D00BD02CBFA9
:100D20000CD0D89029372A372B372C370006D8B467
:100D3000BCD0F5D7288D6DD0289D1FC127F11FAFDE
:100D400002D02C8FABD02C9FA9D022C126F122C17A
:100D500000F01E51265F1FC12CF12C8F20C12BF1FA
:100D600021C12AF1296BD8902C332B332A33293314
:100D7000262FF8D727AF03D028839CD0289326911D
:100D8000288B010EEA6E250EE96EA7D0289B27BF9F
:100D90000AD026A113D02C332B332A332933002A2F
:100DA000D8B483D00BD02CBF0CD0D89029372A3799
:100DB0002B372C370006D8B478D0F5D7288F29D018
:100DC000289F23C127F123AF02D02C8F67D02C9FFF
:100DD00065D023C12CF12C8F24C12BF125C12AF120
:100DE00027AF04D02C9F288565D02895296B2691A4
:100DF000010EEA6E210EE96E70D027BF1CD01FC114
:100E000027F126A106D02C332B332A332933002A8D
:100E10004CE029AF0BD02A2B09E12B2B07E12C2B1F
:100E200005E12C332B332A33002A3FE028BD84D739
:100E300028BFC6D71CD0800E2C1B2CAF04D03AD0B4
:100E400023C127F10AD01FC127F12C5306E12B53F0
:100E500004E12A5302E1006A21D02CBF08D0D890C7
:100E600029372A372B372C37002EF7D71ED027AF3C
:100E700002D02C8F13D02C9F11D022C100F023C19F
:100E80002CF124C12BF125C12AF108D01EC100F09C
:100E90001FC12CF120C12BF121C12AF12CC101F07D
:100EA0002BC102F02AC103F034D0006A016A026A41
:100EB000036A2FD0296B2A1F2B1F2C1F291F292BB8
:100EC00005E12A2B03E12B2B01E12C2B28B112D7B2
:100ED00028B354D728B589D7B3D7EF502A2705E3CD
:100EE0002B2B03E12C2BD8B42681ED52EF502B276E
:100EF00003E32C2BD8B42681ED52EF50EFBE01D086
:100F0000800A2C27D8B0268128B9FCD628BB3ED72A
:100F100074D70001000C0101005303E18B929492FD
:100F200002D08B8294920001000C0900F5520CE073
:100F3000F6CF03F1F7CF04F1F5CF15F1B0DD03C122
:100F4000F6FF04C1F7FFF1D7000C0900F6CF09F155
:100F5000F7CF0AF1F5CF15F1A2DD09C1F6FF0AC1FD
:100F6000F7FF0101082F01D002D00001EED70001E8
:100F7000000C01010751016A065D03E206C100F0A1
:100F80000CD0006A080E086F063700360751005C67
:100F9000D8B0006E0136082FF7D70001000C200EE4
:100FA000010101A9300E026F00C100F000AF07D0AF
:100FB000001E002A00C000F12D0E026F018F0150AB
:100FC00000C106F1640E076F0001D3DF00C000F11D
:100FD000300E01240101036F00C106F10A0E076FF4
:100FE0000001C7DF300E00240101056F300E01241F
:100FF000046F02C100F001A702D001AF019501B951
:101000000BD001AF22D001B520D000C003F101B355
:101010001CD000C004F119D0300E035D16E100C0F1
:1010200003F1200E026F01A704D00195018301AFE7
:101030000193300E045D09E100C004F1200E036F3E
:1010400001A7F7D7019301AF019101A505D002C116
:1010500015F1000124DD010101A305D003C115F143
:1010600000011DDD010101A104D004C115F1000141
:1010700016DD05C115F1000112DD000C0101012D85
:101080001CD034B40CD0020E166F02C117F100014F
:10109000CDDC4A0EF66E010EF76E47DF010134A477
:1010A0000CD0020E166F02C117F10001BFDC5E0EFC
:1010B000F66E010EF76E39DF0101015102080CE1F5
:1010C000020E166F02C117F10001B0DC720EF66E4F
:1010D000010EF76E2ADF0101015103080CE1020E37
:1010E000166F02C117F10001A1DC860EF66E010E2B
:1010F000F76E1BDF0101015104080CE1020E166FAF
:1011000002C117F1000192DC9A0EF66E010EF76E25
:101110000CDF0101015105080CE1020E166F02C13E
:1011200017F1000183DCAE0EF66E010EF76EFDDEE8
:101130000101015106080CE1020E166F02C117F100
:10114000000174DCC20EF66E010EF76EEEDE0101D8
:10115000015107080CE1020E166F02C117F10001E0
:1011600065DCD60EF66E010EF76EDFDE0101015171
:1011700008080CE1020E166F02C117F1000156DCDF
:10118000EA0EF66E010EF76ED0DE01010001000CD2
:101190000150FFC006F1640E0101076F0001E9DE96
:1011A00000C0FFF00150300E08E1010100A30FD094
:1011B00000B70DD000B9200E04D0010100970099AE
:1011C0000081012601C015F1000169DC0101FFC0A9
:1011D00006F10A0E076F0001CCDE00C0FFF00150DF
:1011E000300E08E1010100B709D000A107D000B915
:1011F000200E0001012601C015F151DC300E000166
:10120000FF27FFC015F14BDC000C01011A51D8B4C7
:1012100071D0006E1E51D8B46DD0002604E3810E4B
:10122000002668E204D07F0E005E64E363E01BC129
:1012300022F11F51221B1B8F1F8F1D512103F4CF41
:1012400024F11C512003F4CF03F0F3CF23F1210349
:10125000F3502427F4502323000E03221D512003B2
:10126000F3502427F4502323000E026A03220222A3
:101270001B512103F3502327F4500322000E0222B6
:101280001B512003F3500326F4500222000E016A82
:1012900001221D511F03F3502327F4500322000E97
:1012A000022201221C511F03F3500326F450022294
:1012B000000E01221B511F03F3500226F45001229D
:1012C000002A01BE05D02337033602360136000658
:1012D000000E23AF0AD0032A02220122015005E1A9
:1012E000025003E1035001E1002A22BF018E22AF28
:1012F000019E04D0006A016A026A036A0001000CC0
:1013000001011551B608156F036A16C119F1168F40
:10131000D8901633173318330332023201320032B9
:10132000152FF6D719AF0BD0001E011E021E031E8B
:10133000002AD8B4012AD8B4022AD8B4032A00015A
:101340000DEF0AF0006A016A026A036A01011D6B6F
:101350001E6B1F6B206B1C511B111A1119112CE0F5
:10136000200E216FD89015371637173718371D37CD
:101370001E371F3720371C51205D08E11B511F5DB0
:1013800005E11A511E5D02E119511D5D0FE319516E
:101390001D5F1A51D8A01A3D1E5F1B51D8A01B3DDE
:1013A0001F5F1C51D8A01C3D205FD880003601363D
:1013B00002360336212FD6D7010EEA6E1D0EE96ED6
:1013C0000001000CE95001010D6F0C510F6F1BE083
:1013D0000BC11DF10AC11CF109C11BF108C11AF1B1
:1013E000216B206B200E1F6F820E1E6F00010DDF20
:1013F00003C00BF102C00AF101C009F100C008F1FD
:1014000001010F2FE5D70BC118F10AC117F109C16E
:1014100016F108C115F1000173D703C00BF102C02A
:101420000AF101C009F100C008F101010BAF0DD0B4
:101430000D070D8B081F091F0A1F0B1F082BD8B49F
:10144000092BD8B40A2BD8B40B2B3B0E146F9A0E71
:10145000136FCA0E126F116B0A0E0F6F0C51D8B4B6
:101460000D2B0BC118F10AC117F109C116F108C102
:1014700015F114C11CF113C11BF112C11AF111C1F4
:1014800019F100015FDF0150EFCF08F1ECCF09F156
:10149000ECCF0AF1ECCF0BF1005213E101010C2962
:1014A0000F5DD8A402D000010CD00D510DE00F0B40
:1014B0000F5D01E044E20DBF42D00DBD05D0200E0E
:1014C00037D0200E01010D170DAB0FD00D9B0C5125
:1014D000D8A40D0700500D6F2D0E156F00014FECB5
:1014E00005F001010D51006E0D6B0C510F5D0DE10A
:1014F00000500D6F2E0E156F00014FEC05F001012D
:101500000D51006E200E0D17000E300E0DAB10D0D9
:101510000D9B0C51D8A40D0700500D6F2D0E156FAB
:1015200000014FEC05F001010D51006E0D6B300E06
:10153000002600C015F100014FEC05F0010114C1B7
:1015400018F113C117F112C116F111C115F11C6B7D
:101550001B6B1A6B0A0E196F0001F4DE03C014F145
:1015600002C013F101C012F100C011F101010F2FEF
:1015700078D70001000C1BC122F101011F51221B71
:1015800022AF05D0D894D8901BBFD8802FD01BC1D4
:1015900022F11EC123F11A51235F06E022AF26D0AB
:1015A000D850010AD86E22D01FC123F11B51235FEE
:1015B00006E022AF1BD0D850010AD86E17D020C148
:1015C00023F11C51235F06E022AF10D0D850010A4E
:1015D000D86E0CD021C123F11D51235F06E022AF4C
:1015E00005D0D850010AD86E01D0D8900001000C67
:1015F0008E0E006EFF51005E00C102F001C101F0CD
:10160000028E005209E0D890025202E1015204E039
:1016100002320132002EF7D7010100AF05D0011EC2
:10162000021E012AD8B4022A0001000C010104356F
:10163000006E0036FC0E001600C001F0C250C30B55
:101640000010C26E0A0E1B6F000191EC04F0C28202
:10165000C2B2FED7C4CF0AF1C3CF09F1000185ECB5
:1016600005F003C008F102C007F101C006F100C097
:1016700005F105C100F006C101F007C102F008C183
:1016800003F0000C00C1BEFF000C8E0E006E1BC1EB
:1016900001F01AC102F0036A01AE05D0011E021E5C
:1016A000022A01E1012A015209E102C001F0026AA5
:1016B000080E005E015202E1006A0DD0D89001BE12
:1016C00004D0023601360006F9D701011BAF02D063
:1016D000000101D0019E0001000C08C10CF107C1FE
:1016E0000BF106C10AF105C109F10CC11DF10BC1D5
:1016F0001CF10AC11BF109C11AF10101216B206B18
:101700001F6B7F0E1E6F000136DFD8B440D2010E72
:1017100001011B6F090EE96E1BC1EAFF7E0EEF6E21
:10172000D8820CC121F10BC120F10AC11FF109C1FE
:101730001EF1256B246B236B7F0E226F00014FEC93
:1017400006F000C01AF101C01BF102C01CF103C079
:101750001DF1D8920CC121F10BC120F10AC11FF17A
:1017600009C11EF10101256B246B236B7F0E226FD3
:1017700000014FEC06F01DC121F11CC120F11BC17D
:101780001FF11AC11EF103C025F102C024F101C0EE
:1017900023F100C022F1A0EC05F003C00CF102C05F
:1017A0000BF101C00AF100C009F10CC11DF10BC120
:1017B0001CF10AC11BF109C11AF10CC121F10BC1C5
:1017C00020F10AC11FF109C11EF11FDD03C018F18C
:1017D00002C017F101C016F100C015F1BC0E0101E5
:1017E0001D6F240E1C6F670E1B6F7D0E1A6F18C1C4
:1017F00021F117C120F116C11FF115C11EF1000121
:1018000004DD00C01AF101C01BF102C01CF103C0CD
:101810001DF1D89203C021F102C020F101C01FF1D7
:1018200000C01EF1E30E0101256FE40E246F900E3F
:10183000236F820E226F00014FEC06F003C010F1FF
:1018400002C00FF101C00EF100C00DF110C11DF179
:101850000FC11CF10EC11BF10DC11AF118C121F10C
:1018600017C120F116C11FF115C11EF1CEDC00C059
:101870001AF101C01BF102C01CF103C01DF1D89286
:1018800003C021F102C020F101C01FF100C01EF110
:101890001C0E0101256F870E246F570E236F830ED8
:1018A000226F00014FEC06F003C010F102C00FF1EF
:1018B00001C00EF100C00DF110C11DF10FC11CF1EE
:1018C0000EC11BF10DC11AF118C121F117C120F190
:1018D00016C11FF115C11EF198DC00C01AF101C03C
:1018E0001BF102C01CF103C01DF1D89203C021F10D
:1018F00002C020F101C01FF100C01EF1AB0E0101BA
:10190000256FE10E246F9E0E236F830E226F000160
:101910004FEC06F003C010F102C00FF101C00EF150
:1019200000C00DF101011D6B1C6B1B6B7F0E1A6F4C
:1019300018C121F117C120F116C11FF115C11EF107
:10194000000163DC00C01AF101C01BF102C01CF1F0
:1019500003C01DF1D89203C021F102C020F101C0E3
:101960001FF100C01EF1B40E0101256F2A0E246F75
:10197000820E236F226F00014FEC06F003C014F1BA
:1019800002C013F101C012F100C011F114C11DF128
:1019900013C11CF112C11BF111C11AF118C121F1BF
:1019A00017C120F116C11FF115C11EF12EDC00C0B8
:1019B0001AF101C01BF102C01CF103C01DF1D89245
:1019C00003C021F102C020F101C01FF100C01EF1CF
:1019D000800E0101256F3E0E246F060E236F830ECD
:1019E000226F00014FEC06F003C014F102C013F1A6
:1019F00001C012F100C011F114C11DF113C11CF19D
:101A000012C11BF111C11AF118C121F117C120F146
:101A100016C11FF115C11EF105EC09F000C01AF145
:101A200001C01BF102C01CF103C01DF1D89203C01C
:101A300021F102C020F101C01FF100C01EF1AB0E68
:101A40000101256FE10E246F9E0E236F820E226F1F
:101A500000014FEC06F003C014F102C013F101C005
:101A600012F100C011F10CC11DF10BC11CF10AC132
:101A70001BF109C11AF110C121F10FC120F10EC1F2
:101A80001FF10DC11EF105EC09F000C01AF101C0F3
:101A90001BF102C01CF103C01DF103C021F102C003
:101AA00020F101C01FF100C01EF114C125F113C1C6
:101AB00024F112C123F111C122F1A0EC05F003C001
:101AC00010F102C00FF101C00EF100C00DF1010EC6
:101AD00001011B6F050EE96E1BC1EAFF7E0EEF5C74
:101AE000196F19BF01D014D0000ED88019551B6B87
:101AF0001A6F1ABF1B070001C8DD00C011F10150A9
:101B0000800A0101126F02C013F103C014F110D05A
:101B10001B6B19C11AF11ABF1B070001B6DD03C008
:101B200014F102C013F101C012F100C011F1010162
:101B300014C11DF113C11CF112C11BF111C11AF125
:101B4000180E216F720E206F310E1F6F7E0E1E6FEA
:101B5000000105EC09F0D89210C121F10FC120F16C
:101B60000EC11FF10DC11EF103C025F102C024F109
:101B700001C023F100C022F14FEC06F003C010F1C8
:101B800002C00FF101C00EF100C00DF106D001013D
:101B9000106B0F6B0E6B0D6B00010DC100F00EC1D1
:101BA00001F00FC102F010C103F0C3EF0EF001010C
:101BB000046B00013BDD00C001F101C002F102C075
:101BC00003F103C004F103C01DF102C01CF101C008
:101BD0001BF100C01AF10101216B206B200E1F6F59
:101BE000810E1E6F000105EC09F000C001F101C07B
:101BF00002F102C003F103C004F103C021F102C0ED
:101C000020F101C01FF100C01EF10101256BC00EC3
:101C1000246F7F0E236F880E226F0001A0EC05F069
:101C200003C076F002C075F001C074F000C073F01C
:101C3000010E0101046F0001F9DC00C001F101C0D7
:101C400002F102C003F103C004F103C01DF102C0A0
:101C50001CF101C01BF100C01AF10101216B206BC6
:101C6000200E1F6F810E1E6F000105EC09F000C0F1
:101C700001F101C002F102C003F103C004F103C08D
:101C800021F102C020F101C01FF100C01EF10101CD
:101C9000256BC00E246F7F0E236F880E226F00010C
:101CA000A0EC05F003C07AF002C079F001C078F032
:101CB00000C077F00101216B206B200E1F6F810E99
:101CC0001E6F7AC025F179C024F178C023F177C066
:101CD00022F10001A0EC05F000C001F101C002F109
:101CE00002C003F103C004F1D88203C021F102C095
:101CF00020F101C01FF100C01EF10101256B246B12
:101D0000236B7F0E226F00014FEC06F06EC021F1B5
:101D10006DC020F16CC01FF16BC01EF103C025F136
:101D200002C024F101C023F100C022F1A0EC05F0B3
:101D300003C072F002C071F001C070F000C06FF01B
:101D400072C021F171C020F170C01FF16FC01EF18F
:101D50005EC025F15DC024F15CC023F15BC022F1BF
:101D6000A0EC05F000C001F101C002F102C003F1D6
:101D700003C004F103C008F102C007F101C006F17D
:101D800000C005F1AAD400C001F101C002F102C0F7
:101D900003F103C004F103C021F102C020F101C02E
:101DA0001FF100C01EF15AC025F159C024F158C0DE
:101DB00023F157C022F1A0EC05F000C001F101C0F1
:101DC00002F102C003F103C004F10101216B206B99
:101DD0001F6B7F0E1E6F62C025F161C024F160C0D1
:101DE00023F15FC022F10001A0EC05F0EACF06F17B
:101DF000E9CF05F1D89204C121F103C120F102C15C
:101E00001FF101C11EF103C025F102C024F101C080
:101E100023F100C022F14FEC06F006C1EAFF05C134
:101E2000E9FF0101216B206B1F6B7F0E1E6F03C04A
:101E300025F102C024F101C023F100C022F100010C
:101E4000A0EC05F003C066F002C065F001C064F0CC
:101E500000C063F0D88266C021F165C020F164C083
:101E60001FF163C01EF1330E0101256F930E246F25
:101E7000080E236F870E226F00014FEC06F003C09F
:101E80006AF002C069F001C068F000C067F02B5032
:101E90000A0830E10101046B000116EC0BF000C0F0
:101EA00001F101C002F102C003F103C004F1EACF65
:101EB00006F1E9CF05F1D89203C021F102C020F16B
:101EC00001C01FF100C01EF1BEC025F1BDC024F14C
:101ED000BCC023F1BBC022F14FEC06F006C1EAFF03
:101EE00005C1E9FF03C09AF002C099F001C098F063
:101EF00000C097F02B50140830E10101046B000181
:101F000016EC0BF000C001F101C002F102C003F1B8
:101F100003C004F1EACF06F1E9CF05F1D88203C08E
:101F200021F102C020F101C01FF100C01EF1BEC0AE
:101F300025F1BDC024F1BCC023F1BBC022F14FECA0
:101F400006F006C1EAFF05C1E9FF03C09AF002C02E
:101F500099F001C098F000C097F09AC01DF199C0A7
:101F60001CF198C01BF197C01AF19AC021F199C0D9
:101F700020F198C01FF197C01EF105EC09F003C0D5
:101F80009EF002C09DF001C09CF000C09BF09AC082
:101F90001DF199C01CF198C01BF197C01AF19EC0A9
:101FA00021F19DC020F19CC01FF19BC01EF105ECEA
:101FB00009F003C0A2F002C0A1F001C0A0F000C06F
:101FC0009FF0A2C01DF1A1C01CF1A0C01BF19FC0D9
:101FD0001AF17EC021F17DC020F17CC01FF17BC0D1
:101FE0001EF105EC09F000C001F101C002F102C0D0
:101FF00003F103C004F19EC01DF19DC01CF19CC003
:102000001BF19BC01AF182C021F181C020F180C078
:102010001FF17FC01EF105EC09F0D89204C121F137
:1020200003C120F102C11FF101C11EF103C025F15E
:1020300002C024F101C023F100C022F14FEC06F0F0
:1020400000C001F101C002F102C003F103C004F1BC
:102050009AC01DF199C01CF198C01BF197C01AF1EC
:1020600086C021F185C020F184C01FF183C01EF11C
:1020700005EC09F0D89204C121F103C120F102C19D
:102080001FF101C11EF103C025F102C024F101C0FE
:1020900023F100C022F14FEC06F000C001F101C0B5
:1020A00002F102C003F103C004F1D89203C021F190
:1020B00002C020F101C01FF100C01EF18AC025F14D
:1020C00089C024F188C023F187C022F14FEC06F0CB
:1020D00003C0B2F002C0B1F001C0B0F000C0AFF078
:1020E000D882B2C021F1B1C020F1B0C01FF1AFC0A1
:1020F0001EF10A0E0101256FD70E246F230E236FE8
:102100007B0E226F00014FEC06F003C0B2F002C05C
:10211000B1F001C0B0F000C0AFF0B2C01DF1B1C06D
:102120001CF1B0C01BF1AFC01AF10101216B206B93
:102130001F6B1E6B0001BBEC0AF004E3B26BB16BCA
:10214000B06BAF6B01010051275C01E3276A275098
:10215000040DF350036ACF0FE96E000E0320EA6E00
:10216000AFC0EFFFB0C0ECFFB1C0ECFFB2C0ECFFFE
:10217000272A0001926B916B906B8F6B286A010E7E
:102180000101005D285C01E038E22850040DF350A5
:10219000036ACF0FE96E000E0320EA6EEFCF00F066
:1021A000ECCF01F0ECCF02F0ECCF03F0EACF02F17C
:1021B000E9CF01F1D89292C021F191C020F190C0F5
:1021C0001FF18FC01EF103C025F102C024F101C030
:1021D00023F100C022F100014FEC06F002C1EAFF3A
:1021E00001C1E9FF03C092F002C091F001C090F07C
:1021F00000C08FF0282AC3D701010A6B00C109F182
:10220000000185EC05F092C021F191C020F190C051
:102210001FF18FC01EF103C025F102C024F101C0DF
:1022200023F100C022F1A0EC05F000C001F101C0D3
:1022300002F102C003F103C004F103C01DF102C0AA
:102240001CF101C01BF100C01AF1C2C021F1C1C0D4
:1022500020F1C0C01FF1BFC01EF105EC09F003C0A2
:1022600092F002C091F001C090F000C08FF08FC0DA
:1022700000F090C001F091C002F092C003F0E7EFCF
:102280002BF02C501408D8A479D034A277D0D8825F
:1022900045C021F144C020F143C01FF142C01EF1EE
:1022A0008EC025F18DC024F18CC023F18BC022F1AA
:1022B0004FEC06F003C0CEF002C0CDF001C0CCF070
:1022C00000C0CBF0CEC01DF1CDC01CF1CCC01BF1C5
:1022D000CBC01AF1CD0E0101216FCC0E206F4C0E38
:1022E0001F6F7C0E1E6F0001BBEC0AF015E3CD0ED4
:1022F00001011D6FCC0E1C6F1B6F7C0E1A6FCEC0C0
:1023000021F1CDC020F1CCC01FF1CBC01EF10001E6
:10231000BBEC0AF001E326D001011D6B1C6B1B6BAB
:102320001A6BCEC021F1CDC020F1CCC01FF1CBC0C3
:102330001EF10001BBEC0AF002E3010E2926CEC01B
:102340001DF1CDC01CF1CCC01BF1CBC01AF10101B5
:10235000216B206B1F6B1E6B0001BBEC0AF002E3CC
:10236000010E295E2950FB0802E2FB0E296E29505E
:10237000030802E3040E296E29C0BEFF2D50140885
:1023800004E1FB0E296E29C0BEFF2E50140802E1A5
:102390002FC0BEFFF3EF2BF0F86AD09E078EEA6ADB
:1023A000E96A640E176E090E186E020E196E0B0E96
:1023B0001A6E020E1B6E030E1C6E020E1D6E1E6E3A
:1023C000040E1F6E0A0E206E216A226A236A246A96
:1023D000256A266A276A286A296E2A6A2B6E2C6E5D
:1023E0002D6E2E6E2F6A306A316A326A336A3490EB
:1023F0003492349434963498349A349C349E359084
:1024000035923594366A456A446A436A426A496A33
:10241000486A476A466A4D6A4C6A4B0E4B6E860E96
:102420004A6E3598359A359C359E4E904E924E9414
:102430004E96506A4F6A526A516A546A536A566A93
:10244000556A5A6AE00E596E5D0E586E8A0E576EC6
:102450005E6AC00E5D6E280E5C6E890E5B6E330E7A
:10246000626F130E616F150E606F870E5F6E666B85
:10247000656B646B636B6A6B696B686B676B6E6BC8
:102480006D6B7A0E6C6F880E6B6F726B716B706B0D
:102490006F6B766B756B746B736B7A6B796B786B38
:1024A000776B190E7E6F530E7D6F180E7C6F680E62
:1024B0007B6FE90E826FBD0E816FC60E806F710E4D
:1024C0007F6FBE0E866F960E856F240E846F7A0E18
:1024D000836FF30E8A6F5A0E896FAB0E886F810E71
:1024E000876F8E6B8D6B8C6B8B6B926B916B906B24
:1024F0008F6B966B956B946B936B9A6B996B986BD8
:10250000976B9E6B9D6B9C6B9B6BA26BA16BA06B87
:102510009F6B8B0EA66FFD0EA56F650EA46F7C0ED4
:10252000A36FAA6BA96BA86BA76BAE6BAD6BAC6B03
:10253000AB6BB26BB16BB06BAF6BB66BB56BB46BB7
:10254000B36BBA6BB96BB86BB76BBE6BBD6BBC6B67
:10255000BB6BC26BC16BC06B7F0EBF6FC66BC56BB5
:10256000240EC46F880EC36FCA6BC96BC86BC76B70
:10257000CE6BCD6BCC6BCB6BC150C00B0F09C16E5A
:10258000070EB46E3E0E376E200E386E5E0E396E3C
:102590003A6A3B6A3C6A3D6A3E6A3F6A406A416AFF
:1025A000CF6BD06BD16BD26BD36BD46BD56BD66B3F
:1025B000D76BD86BD96BDA6BDB6BDC6BDD6BDE6BEF
:1025C000DF6BE06BE16BE26BE36BE46BE56BE66B9F
:1025D000E76BE86BE96BEA6BEB6BEC6BED6BEE6B4F
:1025E000EF6BF06BF16BF26BF36BF46BF56BF66BFF
:1025F000F76BF86BF96BFA6BFB6BFC6BFD6BFE6BAF
:10260000C150C00B0B09C16EC090C082C094C08E77
:10261000C280956A8C6A3586850ECD6E9D80000ECF
:102620000509CA6EFF0ECB6E94948B94969C0C0E8B
:10263000BD6EB76AB66AC00EF212BE6AE0EC04F074
:102640000C0E0101156F00014FEC05F0F2CF00F107
:10265000F29EA96AA69CA69EA680A850010100BF72
:10266000F28E3E6E140E1B6F000191EC04F0F2CF5F
:1026700000F1F29E010EA96EA69CA69EA680A8500F
:10268000010100BFF28E3F6E140E1B6F000191EC32
:1026900004F0F2CF00F1F29E020EA96EA69CA69E57
:1026A000A680A850010100BFF28E406E140E1B6F71
:1026B000000191EC04F0F2CF00F1F29E030EA96E3E
:1026C000A69CA69EA680A850010100BFF28E416E76
:1026D000140E1B6F000191EC04F0F2CF00F1F29E9A
:1026E000050EA96EA69CA69EA680A850010100BF5B
:1026F000F28E016E349401B03484F2CF00F1F29E78
:102700000A0EA96EA69CA69EA680A85000BFF28EB7
:102710002D6EF2CF00F1F29E0B0EA96EA69CA69E26
:10272000A680A85000BFF28E2C6EF2CF00F1F29E70
:102730000C0EA96EA69CA69EA680A85000BFF28E85
:102740002E6EF2CF00F1F29E0D0EA96EA69CA69EF3
:10275000A680A85000BFF28E2F6E2FC029F0F2CFB6
:1027600000F1F29E190EA96EA69CA69EA680A85006
:1027700000BFF28E216EF2CF00F1F29E1A0EA96E0A
:10278000A69CA69EA680A85000BFF28E0A6B096F79
:10279000000185EC05F003C0AAF002C0A9F001C059
:1027A000A8F000C0A7F0AAC021F1A9C020F1A8C0DC
:1027B0001FF1A7C01EF10101256B246B480E236F8A
:1027C000850E226F0001A0EC05F003C0AAF002C044
:1027D000A9F001C0A8F000C0A7F001010A6B21C058
:1027E00009F1000185EC05F0D89203C021F102C087
:1027F00020F101C01FF100C01EF1AAC025F1A9C03F
:1028000024F1A8C023F1A7C022F14FEC06F003C0C9
:10281000C2F002C0C1F001C0C0F000C0BFF0F2CFF2
:1028200000F1F29E280EA96EA69CA69EA680A85036
:10283000010100BFF28E216EF2CF00F1F29E290E4F
:10284000A96EA69CA69EA680A85000BFF28E0A6B19
:10285000096F000185EC05F003C0AAF002C0A9F0E1
:1028600001C0A8F000C0A7F0AAC021F1A9C020F1C2
:10287000A8C01FF1A7C01EF10101256B246B480EF3
:10288000236F850E226F0001A0EC05F003C0AAF0B3
:1028900002C0A9F001C0A8F000C0A7F001010A6BB6
:1028A00021C009F1000185EC05F0D89203C021F1A7
:1028B00002C020F101C01FF100C01EF1AAC025F125
:1028C000A9C024F1A8C023F1A7C022F14FEC06F063
:1028D00003C045F002C044F001C043F000C042F024
:1028E000F2CF00F1F29E3C0EA96EA69CA69EA68099
:1028F000A850010100BFF28E246EF2CF00F1F29ECB
:102900003D0EA96EA69CA69EA680A85000BFF28E82
:102910000A6B096F000185EC05F003C0B6F002C038
:10292000B5F001C0B4F000C0B3F0B6C021F1B5C03D
:1029300020F1B4C01FF1B3C01EF10101256B246B5F
:10294000480E236F850E226F0001A0EC05F003C036
:10295000B6F002C0B5F001C0B4F000C0B3F00101A0
:102960000A6B24C009F1000185EC05F0D89203C080
:1029700021F102C020F101C01FF100C01EF1B6C05C
:1029800025F1B5C024F1B4C023F1B3C022F14FEC5E
:1029900006F003C0BEF002C0BDF001C0BCF000C034
:1029A000BBF0F2CF00F1F29E320EA96EA69CA69E5D
:1029B000A680A850010100BFF28E2B6EF2CF00F16D
:1029C000F29E2A0EA96EA69CA69EA680A85000BFC5
:1029D000F28E2A6E2A500C0802E20C0E2A6E2A523F
:1029E00002E1010E2A6EF2CF00F1F29E460EA96EB0
:1029F000A69CA69EA680A85000BFF28E306EF2CF95
:102A000000F1F29E470EA96EA69CA69EA680A85035
:102A100000BFF28E316EF2CF00F1F29E480EA96E29
:102A2000A69CA69EA680A85000BFF28E326EF2CF62
:102A300000F1F29E490EA96EA69CA69EA680A85003
:102A400000BFF28E016E359401B03584C80E176E4A
:102A50001750C8086CE135B869D0020E006FFA0E45
:102A60001B6F000191EC04F00101002FF8D7938057
:102A700081A05CD00001E0EC04F020C000F18BEC00
:102A800007F0010E0101166F176F000116EC05F03B
:102A9000FE0EF66E010EF76E95EC07F0010E0101C9
:102AA000166F020E176F000116EC05F0140EF66E8D
:102AB000020EF76E95EC07F0010E0101166F030E82
:102AC000176F000116EC05F02A0EF66E020EF76E77
:102AD00095EC07F0010E0101166F040E176F00014F
:102AE00016EC05F0400EF66E020EF76E95EC07F050
:102AF000080E0101006FFA0E1B6F000191EC04F04B
:102B00000101002FF8D70C0E156F00014FEC05F0F6
:102B10003588176A3596020E0101006FFA0E1B6F99
:102B2000000191EC04F00101002FF8D791D7175262
:102B3000D8A42FD23580BE6A35A207D00C0E156FEF
:102B400000014FEC05F0FF000101010E166F176F39
:102B5000000116EC05F0560EF66E020EF76E95ECBF
:102B600007F0010E0101166F020E176F000116EC3F
:102B700005F06C0EF66E020EF76E95EC07F0010E86
:102B80000101166F030E176F000116EC05F0820E9F
:102B9000F66E020EF76E0A0E0101086F0001A5EC39
:102BA00007F03AC000F11F0E0101016F0001CFECE8
:102BB00007F03BC000F11F0E0101016F0001CFECD7
:102BC00007F03CC000F11F0E0101016F0001CFECC6
:102BD00007F03DC000F11F0E0101016F0001CFECB5
:102BE00007F0200E0101156F00014FEC05F0200EDB
:102BF0000101156F00014FEC05F0938681A615D0F9
:102C000034B812D00B0E1A5C036A3A0FE96E000E4C
:102C10000320EA6EEF2A34881E0E01011B6F0001AB
:102C200091EC04F0526A516A01D03498938481A4E3
:102C300015D034BC12D00B0E1A5C036A3A0FE96E41
:102C4000000E0320EA6EEF06348C1E0E01011B6F8E
:102C5000000191EC04F0526A516A01D0349C9380D7
:102C600081A013D034BA10D0348A1A2A1E0E010162
:102C70001B6F000191EC04F00C0E0101156F0001B7
:102C80004FEC05F0526A516A01D0349A938281A2C6
:102C900013D034BE10D0348E1A061E0E01011B6FE5
:102CA000000191EC04F00C0E0101156F00014FECD6
:102CB00005F0526A516A01D0349E0B0E1A5C036A09
:102CC0003A0FE96E000E0320EA6EEFBE01D00AD083
:102CD0000B0E1A5C036A3A0FE96E000E0320EA6ECF
:102CE000090EEF6E0B0E1A5C036A3A0FE96E000EC6
:102CF0000320EA6EEFBE0CD0EF50090809E20B0E7C
:102D00001A5C036A3A0FE96E000E0320EA6EEF6A5E
:102D10001A500A0802E30B0E1A6E1AC016F1040EBE
:102D20000101176F000116EC05F039C015F14FECE9
:102D300005F01A500E08D8B016D13A50030871E1C8
:102D40003B5008086EE13C5009086BE13D50020819
:102D500068E1A96AA86AA69CA69EA684F250006EA5
:102D6000F29E0F01550EA76EAA0EA76EA682A6B2FE
:102D7000FED7A6940050F212140E01011B6F000141
:102D800091EC04F0010EA96EA86AA69CA69EA684EA
:102D9000F250006EF29E0F01550EA76EAA0EA76E9E
:102DA000A682A6B2FED7A6940050F212140E01011C
:102DB0001B6F000191EC04F0020EA96EA86AA69C9C
:102DC000A69EA684F250006EF29E0F01550EA76ECD
:102DD000AA0EA76EA682A6B2FED7A6940050F21243
:102DE000140E01011B6F000191EC04F0030EA96E9B
:102DF000A86AA69CA69EA684F250006EF29E0F01C1
:102E0000550EA76EAA0EA76EA682A6B2FED7A694EE
:102E10000050F212140E01011B6F000191EC04F03E
:102E2000FF003E503A5C5CE13F503B5C59E1405052
:102E30003C5C56E141503D5C53E1010E0101166FCF
:102E4000176F000116EC05F0980EF66E020EF76E85
:102E500095EC07F0010E0101166F020E176F0001CD
:102E600016EC05F0AC0EF66E020EF76E95EC07F060
:102E7000010E0101166F030E176F000116EC05F02D
:102E8000C00EF66E020EF76E95EC07F0010E010112
:102E9000166F040E176F000116EC05F0D40EF66ED7
:102EA000020EF76E95EC07F0020E0101006FFA0EAC
:102EB0001B6F000191EC04F00101002FF8D7140EF4
:102EC000176E0B0E1A6E0C0E156F00014FEC05F00D
:102ED0008A8C939C35903592526A516A358E43D0D4
:102EE000010E0101166F176F000116EC05F0010EBF
:102EF0000101166F020E176F000116EC05F0E80EC7
:102F0000F66E020EF76E95EC07F0010E0101166FDA
:102F1000030E176F000116EC05F0FC0EF66E020EA4
:102F2000F76E95EC07F0010E0101166F040E176F96
:102F3000000116EC05F0100EF66E030EF76E95EC20
:102F400007F0020E0101006FFA0E1B6F000191ECF9
:102F500004F00101002FF8D70B0E1A6E0C0E156F3E
:102F600000014FEC05F01A500B0811E21A500D0841
:102F70000EE3010E1A5C0101006F166F040E176F4D
:102F8000000116EC05F038C015F14FEC05F0010119
:102F9000CED5172C1DD136BE01D001D0366A010E18
:102FA000166F176F000116EC05F0240EF66E030E77
:102FB000F76E95EC07F0938681A60FD034B80CD04D
:102FC0001D061B06010E1B241C6E34881E0E0101FB
:102FD0001B6F000191EC04F001D03498938481A41C
:102FE0000FD034BC0CD01D2A1B2A010E1B5C1C6E9A
:102FF000348C1E0E01011B6F000191EC04F001D016
:10300000349C1D501F5C08E2362A1DC01FF0020EC2
:103010001F5C1E6E040E1B6E1E501D5C08E2360601
:103020001DC01EF0020E1E241F6E020E1B6E1D50D0
:10303000185C09E219C01DF0020E1B6E366A1DC035
:103040001EF01E241F6E19501D5C0BE218C01DF0EF
:10305000040E1B6E185C366E1DC01FF0020E1F5C46
:103060001E6E010E36240101006F016F020E026F09
:1030700000013EEC08F0020E36240101006F016FE2
:10308000030E026F00013EEC08F0030E362401012E
:10309000006F016F040E026F00013EEC08F0010E9C
:1030A0000101166F1BC017F1000116EC05F037C0C7
:1030B00015F14FEC05F01B50020818E1010E01015B
:1030C000166F040E176F000116EC05F038C015F1ED
:1030D0004FEC05F0010E0101166F030E176F000192
:1030E00016EC05F038C015F14FEC05F01B50040844
:1030F00018E1010E0101166F020E176F000116ECA8
:1031000005F038C015F14FEC05F0010E0101166F06
:10311000030E176F000116EC05F038C015F14FECE7
:1031200005F01B50030818E1010E0101166F040E93
:10313000176F000116EC05F038C015F14FEC05F0E3
:10314000010E0101166F020E176F000116EC05F05B
:1031500038C015F14FEC05F0938081A01ED034BA31
:103160001BD01DC017F0030E1B6E020E0101006F75
:10317000FA0E1B6F000191EC04F00101002FF8D74B
:103180000C0E156F00014FEC05F01750060804E116
:103190003A6A3B6A3C6A3D6A01D0349A938281A2C2
:1031A00015D034BE12D0020E0101006FFA0E1B6F53
:1031B000000191EC04F00101002FF8D7140E176EF6
:1031C0000C0E156F00014FEC05F001D0349E01018B
:1031D00017500208D8A4A6D03474348A010E176E92
:1031E000366A34A438D03484010E166F176F00018C
:1031F00016EC05F03A0EF66E030EF76E95EC07F03E
:10320000010E0101166F020E176F000116EC05F09A
:10321000500EF66E030EF76E95EC07F0010E0101ED
:10322000166F030E176F000116EC05F0660EF66EB2
:10323000030EF76E95EC07F0010E0101166F040EF8
:10324000176F000116EC05F07C0EF66E030EF76E9C
:1032500095EC07F0010134B438D03494010E166FA8
:10326000176F000116EC05F0920EF66E030EF76E66
:1032700095EC07F0010E0101166F020E176F0001A9
:1032800016EC05F0A80EF66E030EF76E95EC07F03F
:10329000010E0101166F030E176F000116EC05F009
:1032A000BE0EF66E030EF76E95EC07F0010E0101EF
:1032B000166F040E176F000116EC05F0D40EF66EB3
:1032C000030EF76E95EC07F00101000E34B4010E09
:1032D000006F050EA96E00C1A8FFA69CA69EA6843D
:1032E000F250006EF29E0F01550EA76EAA0EA76E49
:1032F000A682A6B2FED7A6940050F212020E0101D9
:10330000006FFA0E1B6F000191EC04F00101002F19
:10331000F8D7020E1B6E1D6E0C0E156F00014FECE0
:1033200005F0010117500308D8A44CD1010E166F07
:10333000176F000116EC05F0EA0EF66E030EF76E3D
:1033400095EC07F0010E0101166F020E176F0001D8
:1033500016EC05F0000EF66E040EF76E090E010174
:10336000086F0001A5EC07F032C0FFF0010E01016B
:10337000006F0001C8EC08F03A0E0101156F000162
:103380004FEC05F031C0FFF0010E0101006F0001AC
:10339000C8EC08F03A0E0101156F00014FEC05F082
:1033A00030C0FFF0010E0101006F0001C8EC08F011
:1033B000200E0101156F00014FEC05F035A40FD070
:1033C000010E0101166F030E176F000116EC05F0D8
:1033D0001A0EF66E040EF76E95EC07F00ED0010E85
:1033E0000101166F030E176F000116EC05F0300E89
:1033F000F66E040EF76E95EC07F0010E0101166FE4
:10340000040E176F000116EC05F0460EF66E040E62
:10341000F76E95EC07F0938681A681D0C80E010166
:103420001B6F000191EC04F00C0E0101156F0001FF
:103430004FEC05F0010E0101166F020E176F00012F
:1034400016EC05F05C0EF66E040EF76E95EC07F0C8
:10345000010E0101166F030E176F000116EC05F047
:103460006E0EF66E040EF76E95EC07F0460EA96E22
:10347000A86AA69CA69EA684F250006EF29E0F013A
:10348000550EA76EAA0EA76EA682A6B2FED7A69468
:103490000050F212470EA96EA86AA69CA69EA684AA
:1034A000F250006EF29E550EA76EAA0EA76EA6826F
:1034B000A6B2FED7A6940050F212480EA96EA86AD2
:1034C000A69CA69EA684F250006EF29E550EA76E94
:1034D000AA0EA76EA682A6B2FED7A6940050F2123C
:1034E000040E0101006FAF0E1B6F000191EC04F0A0
:1034F0000101002FF8D7306A316A326A1E0E1B6F45
:10350000000191EC04F0010E176E366A020E1B6E7C
:103510001D6E0C0E0101156F00014FEC05F093803C
:1035200081A031D03574000E35B4010E0101006F59
:10353000490EA96E00C1A8FFA69CA69EA684F250C3
:10354000006EF29E0F01550EA76EAA0EA76EA68200
:10355000A6B2FED7A6940050F212020E0101006F2F
:10356000FA0E1B6F000191EC04F00101002FF8D757
:10357000010E176E366A020E1B6E1D6E0C0E156F55
:1035800000014FEC05F0938281A21AD034BE17D00F
:10359000348E020E0101006FFA0E1B6F000191ECD8
:1035A00004F00101002FF8D7010E176E366A020EE3
:1035B0001B6E1D6E0C0E156F00014FEC05F001D057
:1035C000349E010117500408D8A48AD1010E166F49
:1035D000020E176F000116EC05F0800EF66E040E59
:1035E000F76E95EC07F0010E0101166F030E176FD1
:1035F000000116EC05F0960EF66E040EF76E070E3F
:103600000101086F0001A5EC07F0890EE96E45C0C5
:103610000BF144C00AF143C009F142C008F1020EA7
:1036200001010C6F0001E2EC09F0200E0101156FA1
:1036300000014FEC05F0200E0101156F00014FEC69
:1036400005F0200E0101156F00014FEC05F001019E
:103650001D6B1C6B1B6B800E1A6F45C021F144C0A3
:1036600020F143C01FF142C01EF10001BBEC0AF083
:1036700005E3456A446A436A800E426E45C01DF107
:1036800044C01CF143C01BF142C01AF10101216B7F
:10369000206B1F6B7E0E1E6F0001BBEC0AF005E372
:1036A000456A446A436A7E0E426E938681A627D09D
:1036B00034B824D0D89245C021F144C020F143C091
:1036C0001FF142C01EF1CD0E0101256FCC0E246FFB
:1036D0004C0E236F7B0E226F00014FEC06F003C0EF
:1036E00045F002C044F001C043F000C042F034880D
:1036F0001E0E01011B6F000191EC04F001D0349803
:10370000938481A427D034BC24D0D88245C021F131
:1037100044C020F143C01FF142C01EF1CD0E010193
:10372000256FCC0E246F4C0E236F7B0E226F000191
:103730004FEC06F003C045F002C044F001C043F076
:1037400000C042F0348C1E0E01011B6F000191EC91
:1037500004F001D0349C938081A0A1D034BA9ED0D3
:10376000010E176E366A020E1B6E1D6E0B0E1A6E60
:10377000020E0101006FFA0E1B6F000191EC04F0C4
:103780000101002FF8D70C0E156F00014FEC05F06A
:1037900045C0AAF044C0A9F043C0A8F042C0A7F0B9
:1037A00045C002F144C001F143C000F142C0FFF046
:1037B000F8EC0AF001C021F001010A6B21C009F107
:1037C000000185EC05F0D882AAC021F1A9C020F142
:1037D000A8C01FF1A7C01EF103C025F102C024F14B
:1037E00001C023F100C022F14FEC06F003C0AAF0A3
:1037F00002C0A9F001C0A8F000C0A7F0AAC01DF146
:10380000A9C01CF1A8C01BF1A7C01AF10101216BCE
:10381000206B480E1F6F850E1E6F000105EC09F02E
:1038200003C0AEF002C0ADF001C0ACF000C0ABF020
:10383000AEC002F1ADC001F1ACC000F1ABC0FFF011
:10384000F8EC0AF001C023F0280EA96E21C0A8FFF1
:10385000A69CA69EA684F250006EF29E0F01550E05
:10386000A76EAA0EA76EA682A6B2FED7A694005097
:10387000F212290EA96E23C0A8FFA69CA69EA684BC
:10388000F250006EF29E550EA76EAA0EA76EA6828B
:10389000A6B2FED7A6940050F212000101D0349ACD
:1038A000938281A21BD034BE18D0010E176E366AE7
:1038B000020E1B6E1D6E0B0E1A6E020E0101006FC2
:1038C000FA0E1B6F000191EC04F00101002FF8D7F4
:1038D0000C0E156F00014FEC05F001D0349E010174
:1038E00017500508D8A4B8D1010E166F176F000144
:1038F00016EC05F0A60EF66E040EF76E95EC07F0CA
:10390000010E0101166F020E176F000116EC05F093
:10391000BC0EF66E040EF76E95EC07F0010E010179
:10392000166F030E176F000116EC05F0D20EF66E3F
:10393000040EF76E0A0E0101086F0001A5EC07F0F6
:103940003AC000F11F0E0101016F0001CFEC07F03A
:103950003BC000F11F0E0101016F0001CFEC07F029
:103960003CC000F11F0E0101016F0001CFEC07F018
:103970003DC000F11F0E0101016F0001CFEC07F007
:10398000200E0101156F00014FEC05F0200E010122
:10399000156F00014FEC05F0938681A613D034B863
:1039A00010D00B0E1A5C036A3A0FE96E000E03206A
:1039B000EA6EEF2A34881E0E01011B6F000191ECA4
:1039C00004F001D03498938481A413D034BC10D077
:1039D0000B0E1A5C036A3A0FE96E000E0320EA6EC2
:1039E000EF06348C1E0E01011B6F000191EC04F0F8
:1039F00001D0349C938081A015D034BA12D0348A7F
:103A00001A2A020E0101006FFA0E1B6F000191ECE1
:103A100004F00101002FF8D70C0E156F00014FECD8
:103A200005F001D0349A938281A215D034BE12D011
:103A3000348E1A06020E0101006FFA0E1B6F000190
:103A400091EC04F00101002FF8D70C0E156F000166
:103A50004FEC05F001D0349E0B0E1A5C036A3A0F4E
:103A6000E96E000E0320EA6EEFBE01D00AD00B0E05
:103A70001A5C036A3A0FE96E000E0320EA6E090E23
:103A8000EF6E0B0E1A5C036A3A0FE96E000E03200C
:103A9000EA6EEFBE0CD0EF50090809E20B0E1A5C7B
:103AA000036A3A0FE96E000E0320EA6EEF6A1A50BD
:103AB0000A0808E3010E176E366A020E1B6E1D6EB1
:103AC0000B0E1A6E1AC016F1040E0101176F0001D9
:103AD00016EC05F039C015F14FEC05F01A500E0840
:103AE000D8B0A5D03E503A5C59E13F503B5C56E11E
:103AF00040503C5C53E141503D5C50E1010E0101FE
:103B0000166F176F000116EC05F0E80EF66E040E46
:103B1000F76E95EC07F0010E0101166F020E176F9C
:103B2000000116EC05F0FE0EF66E040EF76E95EC35
:103B300007F0010E0101166F030E176F000116EC5E
:103B400005F0140EF66E050EF76E95EC07F0010EFB
:103B50000101166F040E176F000116EC05F02A0E16
:103B6000F66E050EF76E95EC07F0020E0101006F80
:103B7000FA0E1B6F000191EC04F00101002FF8D741
:103B8000330E176E0B0E1A6E0C0E156F00014FECF4
:103B900005F03A6A3B6A3C6A3D6A49D0010E010170
:103BA000166F176F000116EC05F0400EF66E050E4D
:103BB000F76E95EC07F0010E0101166F020E176FFC
:103BC000000116EC05F0560EF66E050EF76E95EC3C
:103BD00007F0010E0101166F030E176F000116ECBE
:103BE00005F06C0EF66E050EF76E95EC07F0010E03
:103BF0000101166F040E176F000116EC05F0820E1E
:103C0000F66E050EF76E95EC07F0020E0101006FDF
:103C1000FA0E1B6F000191EC04F00101002FF8D7A0
:103C20000B0E1A6E0C0E156F00014FEC05F01A50BA
:103C30000B0811E21A500D080EE3010E1A5C010187
:103C4000006F166F040E176F000116EC05F038C0F8
:103C500015F14FEC05F0010117503308D8A4BBD182
:103C6000010E166F176F000116EC05F0980EF66E38
:103C7000050EF76E95EC07F0010E0101166F020EAE
:103C8000176F000116EC05F0AE0EF66E050EF76E1E
:103C900095EC07F0010E0101166F030E176F00017E
:103CA00016EC05F0C40EF66E050EF76E0A0E010155
:103CB000086F0001A5EC07F03AC000F11F0E0101EA
:103CC000016F0001CFEC07F03BC000F11F0E0101B6
:103CD000016F0001CFEC07F03CC000F11F0E0101A5
:103CE000016F0001CFEC07F03DC000F11F0E010194
:103CF000016F0001CFEC07F0200E0101156F0001EC
:103D00004FEC05F0200E0101156F00014FEC05F09E
:103D1000938681A613D034B810D00B0E1A5C036AB8
:103D20003A0FE96E000E0320EA6EEF2A34881E0E69
:103D300001011B6F000191EC04F001D034989384D1
:103D400081A413D034BC10D00B0E1A5C036A3A0F56
:103D5000E96E000E0320EA6EEF06348C1E0E0101A0
:103D60001B6F000191EC04F001D0349C938081A082
:103D700011D034BA0ED0348A1A2A1E0E01011B6FDC
:103D8000000191EC04F00C0E0101156F00014FECE5
:103D900005F001D0349A938281A211D034BE0ED0A6
:103DA000348E1A061E0E01011B6F000191EC04F007
:103DB0000C0E0101156F00014FEC05F001D0349E8F
:103DC0000B0E1A5C036A3A0FE96E000E0320EA6ECE
:103DD000EFBE01D00AD00B0E1A5C036A3A0FE96EEF
:103DE000000E0320EA6E090EEF6E0B0E1A5C036ADA
:103DF0003A0FE96E000E0320EA6EEFBE0CD0EF50D2
:103E0000090809E20B0E1A5C036A3A0FE96E000E0C
:103E10000320EA6EEF6A1A500A0804E3050E176ED3
:103E20000B0E1A6E1AC016F1040E0101176F000175
:103E300016EC05F039C015F14FEC05F01A500E08DC
:103E4000D8B0B4D0010E0101166F176F000116EC47
:103E500005F0DA0EF66E050EF76E95EC07F0010E22
:103E60000101166F020E176F000116EC05F0F00E3F
:103E7000F66E050EF76E95EC07F0010E0101166F58
:103E8000030E176F000116EC05F0060EF66E060E17
:103E9000F76E95EC07F0010E0101166F040E176F17
:103EA000000116EC05F01C0EF66E060EF76E95EC92
:103EB00007F0A96A3AC0A8FFA69CA69EA684F25065
:103EC000006EF29E0F01550EA76EAA0EA76EA68277
:103ED000A6B2FED7A6940050F212140E01011B6F79
:103EE000000191EC04F0010EA96E3BC0A8FFA69C56
:103EF000A69EA684F250006EF29E0F01550EA76E8C
:103F0000AA0EA76EA682A6B2FED7A6940050F21201
:103F1000140E01011B6F000191EC04F0020EA96E5A
:103F20003CC0A8FFA69CA69EA684F250006EF29EFE
:103F30000F01550EA76EAA0EA76EA682A6B2FED7D7
:103F4000A6940050F212140E01011B6F000191ECB7
:103F500004F0030EA96E3DC0A8FFA69CA69EA684F1
:103F6000F250006EF29E0F01550EA76EAA0EA76EBC
:103F7000A682A6B2FED7A6940050F212140E01013A
:103F80001B6F000191EC04F0020E0101006FFA0EAC
:103F90001B6F000191EC04F00101002FF8D7010E16
:103FA000176E366A020E1B6E1D6E00011A500B084A
:103FB00011E21A500D080EE3010E1A5C0101006FA8
:103FC000166F040E176F000116EC05F038C015F1DE
:103FD0004FEC05F0010117500608D8A4B7D0010E28
:103FE000166F020E176F000116EC05F0320EF66E1A
:103FF000060EF76E95EC07F0010E0101166F030E29
:10400000176F000116EC05F0480EF66E060EF76EFF
:10401000070E0101086F0001A5EC07F02AC000F1AE
:10402000010E0101016F0001CFEC07F0200E01012C
:10403000156F00014FEC05F0200E0101156F000116
:104040004FEC05F0200E0101156F00014FEC05F05B
:104050002A500C0802E20C0E2A6E2A5202E1010ECE
:104060002A6E938681A60CD034B809D0010E2A2678
:1040700034881E0E01011B6F000191EC04F001D089
:104080003498938481A40CD034BC09D0010E2A5EEC
:10409000348C1E0E01011B6F000191EC04F001D065
:1040A000349C938081A031D034BA2ED0010E176E8B
:1040B000366A020E1B6E1D6E0B0E1A6E020E010189
:1040C000006FFA0E1B6F000191EC04F00101002F4C
:1040D000F8D70C0E156F00014FEC05F02A0EA96EF3
:1040E0002AC0A8FFA69CA69EA684F250006EF29E4F
:1040F0000F01550EA76EAA0EA76EA682A6B2FED716
:10410000A6940050F212000101D0349A938281A249
:104110001BD034BE18D0010E176E366A020E1B6E0D
:104120001D6E0B0E1A6E020E0101006FFA0E1B6F50
:10413000000191EC04F00101002FF8D70C0E156F6F
:1041400000014FEC05F001D0349E01011750070823
:10415000D8A4F7D1010E166F176F000116EC05F009
:10416000580EF66E060EF76E95EC07F0010E010183
:10417000166F020E176F000116EC05F06E0EF66E4C
:10418000060EF76E080E0101086F0001A5EC07F09E
:10419000010EE96E8EC00BF18DC00AF18CC009F1E1
:1041A0008BC008F101010C6F0001E2EC09F07B0EFD
:1041B000F66E060EF76E080E0101086F0001A5EC01
:1041C00007F0010E0101166F030E176F000116ECC8
:1041D00005F00101046B000116EC0BF000C000F1CA
:1041E00001C001F102C002F103C003F15A0E010146
:1041F000156F00014FEC05F0460E0101156F00012F
:104200004FEC05F03D0E0101156F00014FEC05F07C
:10421000010EE96E4DC00BF14CC00AF14BC009F123
:104220004AC008F101010C6B0001E2EC09F08C0EB0
:10423000F66E060EF76E050E0101086F0001A5EC83
:1042400007F0010EE96E03C10BF102C10AF101C1D1
:1042500009F100C108F101010C6B0001E2EC09F069
:10426000010E0101166F040E176F000116EC05F028
:10427000980EF66E060EF76E0C0E0101086F000127
:10428000A5EC07F0010EE96EBEC00BF1BDC00AF14E
:10429000BCC009F1BBC008F101010C6B0001E2ECEC
:1042A00009F0938081A02CD134BA29D1010E176E68
:1042B000366A020E1B6E1D6E0B0E1A6E020E010187
:1042C000006FFA0E1B6F000191EC04F00101002F4A
:1042D000F8D70C0E156F00014FEC05F00101046BCF
:1042E000000116EC0BF0EACF01F1E9CF00F1D88222
:1042F0004DC021F14CC020F14BC01FF14AC01EF14E
:1043000003C025F102C024F101C023F100C022F155
:104310004FEC06F001C1EAFF00C1E9FF03C0BEF0A7
:1043200002C0BDF001C0BCF000C0BBF001011D6BBC
:104330001C6B1B6B1A6BBEC021F1BDC020F1BCC051
:104340001FF1BBC01EF10001BBEC0AF001E217E156
:104350000A0E2B6E320EA96E2BC0A8FFA69CA69E3D
:10436000A684F250006EF29E0F01550EA76EAA0EA3
:10437000A76EA682A6B2FED7A6940050F212BEC0C7
:104380001DF1BDC01CF1BCC01BF1BBC01AF1010185
:10439000216B206B1F6B1E6B0001BBEC0AF018E356
:1043A000140E2B6E320EA96E2BC0A8FFA69CA69EE3
:1043B000A684F250006EF29E0F01550EA76EAA0E53
:1043C000A76EA682A6B2FED7A6940050F2120001F4
:1043D000BBC000F0BCC001F0BDC002F0BEC003F025
:1043E000019EBEC0BEF0BDC0BDF001C0BCF0BBC0F0
:1043F000BBF0BEC0B6F0BDC0B5F0BCC0B4F0BBC031
:10440000B3F0B6C002F1B5C001F1B4C000F1B3C061
:10441000FFF0F8EC0AF001C024F001010A6B24C09F
:1044200009F1000185EC05F0D882B6C021F1B5C0D4
:1044300020F1B4C01FF1B3C01EF103C025F102C0CA
:1044400024F101C023F100C022F14FEC06F003C0BB
:10445000B6F002C0B5F001C0B4F000C0B3F0B6C011
:104460001DF1B5C01CF1B4C01BF1B3C01AF10101BC
:10447000216B206B480E1F6F850E1E6F000105EC2F
:1044800009F003C0BAF002C0B9F001C0B8F000C032
:10449000B7F0BAC002F1B9C001F1B8C000F1B7C0BD
:1044A000FFF0F8EC0AF001C025F03C0EA96E24C024
:1044B000A8FFA69CA69EA684F250006EF29E0F0155
:1044C000550EA76EAA0EA76EA682A6B2FED7A69418
:1044D0000050F2123D0EA96E25C0A8FFA69CA69E14
:1044E000A684F250006EF29E550EA76EAA0EA76E1D
:1044F000A682A6B2FED7A6940050F212000101D007
:10450000349A938281A21BD034BE18D0010E176E4C
:10451000366A020E1B6E1D6E0B0E1A6E020E010124
:10452000006FFA0E1B6F000191EC04F00101002FE7
:10453000F8D70C0E156F00014FEC05F001D0349E3A
:10454000010117500808D8A4A8D2010E166F176FE2
:10455000000116EC05F00101046B000116EC0BF0F4
:1045600000C000F101C001F102C002F103C003F17B
:10457000AA0EF66E060EF76E0A0E0101086F000114
:10458000A5EC07F0010EE96E03C10BF102C10AF1BF
:1045900001C109F100C108F101010C6B0001E2EC5D
:1045A00009F0200E0101156F00014FEC05F0200EFF
:1045B0000101156F00014FEC05F0010E0101166FAE
:1045C000020E176F000116EC05F001010A6B29C0FD
:1045D00009F1000185EC05F000C000F101C001F116
:1045E00002C002F103C003F103C021F102C020F1B7
:1045F00001C01FF100C01EF10101256B246B7F0E6D
:10460000236F860E226F0001A0EC05F001011D6BE7
:104610001C6B480E1B6F850E1A6F03C021F102C080
:1046200020F101C01FF100C01EF1000105EC09F0EE
:1046300000C000F101C001F102C002F103C003F1AA
:10464000010E0101046F000116EC0BF000C004F133
:1046500001C005F102C006F103C007F1BC0EF66E01
:10466000060EF76E050E0101086F0001A5EC07F0BC
:10467000010EE96E03C10BF102C10AF101C109F19A
:1046800000C108F101010C6B0001E2EC09F0250EFC
:104690000101156F00014FEC05F0C80EF66E060E15
:1046A000F76E040E0101086F0001A5EC07F0010E82
:1046B000E96E07C10BF106C10AF105C109F104C198
:1046C00008F101010C6B0001E2EC09F0200E010180
:1046D000156F00014FEC05F0010E0101166F030E7E
:1046E000176F000116EC05F0020E0101046F0001C6
:1046F00016EC0BF000C000F101C001F102C002F1A4
:1047000003C003F103C021F102C020F101C01FF179
:1047100000C01EF10101256BC00E246F7F0E236FB8
:10472000880E226F0001A0EC05F001011D6B1C6BCF
:10473000480E1B6F850E1A6F03C021F102C020F1D5
:1047400001C01FF100C01EF1000105EC09F000C01E
:1047500000F101C001F102C002F103C003F1D40E67
:10476000F66E060EF76E040E0101086F0001A5EC4F
:1047700007F0010EE96E8EC00BF18DC00AF18CC0FE
:1047800009F18BC008F101010C6F0001E2EC09F0A6
:10479000DD0EF66E060EF76E0A0E0101086F0001BF
:1047A000A5EC07F0010EE96E03C10BF102C10AF19D
:1047B00001C109F100C108F101010C6B0001E2EC3B
:1047C00009F0010E0101166F040E176F000116ECBF
:1047D00005F0EE0EF66E060EF76E090E0101086F7B
:1047E0000001A5EC07F0890EE96EC2C00BF1C1C053
:1047F0000AF1C0C009F1BFC008F1020E01010C6F3F
:104800000001E2EC09F0200E0101156F00014FECF0
:1048100005F0938681A63AD0D892C2C021F1C1C0DA
:1048200020F1C0C01FF1BFC01EF10A0E0101256FAB
:10483000D70E246F230E236F780E226F00014FECEA
:1048400006F003C0C2F002C0C1F001C0C0F000C059
:10485000BFF0320E01011B6F000191EC04F0010169
:104860001D6B1C6B700E1B6F830E1A6FC2C021F183
:10487000C1C020F1C0C01FF1BFC01EF10001BBECE0
:104880000AF004E3C26BC16BC06BBF6B938481A45D
:1048900038D0D882C2C021F1C1C020F1C0C01FF100
:1048A000BFC01EF10A0E0101256FD70E246F230E23
:1048B000236F780E226F00014FEC06F003C0C2F0A8
:1048C00002C0C1F001C0C0F000C0BFF0320E010153
:1048D0001B6F000191EC04F0C2C01DF1C1C01CF1BE
:1048E000C0C01BF1BFC01AF10101216B206B1F6B0F
:1048F0001E6B0001BBEC0AF004E3C26BC16BC06B22
:10490000BF6B938081A0A8D034BAA5D0010E176EDA
:10491000366A020E1B6E1D6E0B0E1A6E1E0E010104
:104920001B6F000191EC04F00C0E0101156F0001EA
:104930004FEC05F0C2C0AAF0C1C0A9F0C0C0A8F0F9
:10494000BFC0A7F0C2C002F1C1C001F1C0C000F1F8
:10495000BFC0FFF0F8EC0AF001C021F001010A6BC2
:1049600021C009F1000185EC05F0D882AAC021F12F
:10497000A9C020F1A8C01FF1A7C01EF103C025F1F6
:1049800002C024F101C023F100C022F14FEC06F077
:1049900003C0AAF002C0A9F001C0A8F000C0A7F0AF
:1049A000AAC01DF1A9C01CF1A8C01BF1A7C01AF133
:1049B0000101216B206B480E1F6F850E1E6F0001D9
:1049C00005EC09F003C0AEF002C0ADF001C0ACF0E0
:1049D00000C0ABF0AEC002F1ADC001F1ACC000F15F
:1049E000ABC0FFF0F8EC0AF001C022F0190EA96E7E
:1049F00021C0A8FFA69CA69EA684F250006EF29E3F
:104A00000F01550EA76EAA0EA76EA682A6B2FED7FC
:104A1000A6940050F2121A0EA96E22C0A8FFA69CFE
:104A2000A69EA684F250006EF29E550EA76EAA0EA8
:104A3000A76EA682A6B2FED7A6940050F212040E6C
:104A40000101006FFA0E1B6F000191EC04F00101EF
:104A5000002FF8D7000101D0349A938281A21BD095
:104A600034BE18D0010E176E366A020E1B6E1D6E14
:104A70000B0E1A6E020E0101006FFA0E1B6F000181
:104A800091EC04F00101002FF8D70C0E156F000116
:104A90004FEC05F001D0349E010117500908D8A44D
:104AA00023D3010E166F176F000116EC05F00101FC
:104AB0000A6B29C009F1000185EC05F000C000F186
:104AC00001C001F102C002F103C003F103C021F1F2
:104AD00002C020F101C01FF100C01EF10101256BD1
:104AE000246B7F0E236F860E226F0001A0EC05F071
:104AF00001011D6B1C6B480E1B6F850E1A6F03C0E6
:104B000021F102C020F101C01FF100C01EF100011F
:104B100005EC09F000C000F101C001F102C002F192
:104B200003C003F1FE0EF66E060EF76E0D0E0101C8
:104B3000086F0001A5EC07F0010EE96E03C10BF14F
:104B400002C10AF101C109F100C108F101010C6BB8
:104B50000001E2EC09F0250E0101156F00014FEC98
:104B600005F0200E0101156F00014FEC05F0010E5C
:104B70000101166F040E176F000116EC05F0020E0E
:104B80000101046F000116EC0BF000C000F101C040
:104B900001F102C002F103C003F103C021F102C020
:104BA00020F101C01FF100C01EF10101256BC00EF4
:104BB000246F7F0E236F880E226F0001A0EC05F09A
:104BC00001011D6B1C6B480E1B6F850E1A6F03C015
:104BD00021F102C020F101C01FF100C01EF100014F
:104BE00005EC09F000C000F101C001F102C002F1C2
:104BF00003C003F1140EF66E070EF76E040E0101EA
:104C0000086F0001A5EC07F0010EE96E8EC00BF1F4
:104C10008DC00AF18CC009F18BC008F101010C6F45
:104C20000001E2EC09F01D0EF66E070EF76E0A0E9B
:104C30000101086F0001A5EC07F0010EE96E03C148
:104C40000BF102C10AF101C109F100C108F1010132
:104C50000C6B0001E2EC09F04EB2AFD04EB4ADD017
:104C60004EB6ABD0938681A62DD0020E0101006F07
:104C7000FA0E1B6F000191EC04F00101002FF8D730
:104C8000938681A61ED0010E166F020E176F0001CB
:104C900016EC05F02E0EF66E070EF76E95EC07F08B
:104CA0004E824E944E960A0E2C6E2E6E040E01010C
:104CB000006FFA0E1B6F000191EC04F00101002F50
:104CC000F8D70001938481A42DD0020E0101006F5A
:104CD000FA0E1B6F000191EC04F00101002FF8D7D0
:104CE000938481A41ED0010E166F020E176F00016F
:104CF00016EC05F0400EF66E070EF76E95EC07F019
:104D00004E844E924E960A0E2D6E2E6E040E0101AA
:104D1000006FFA0E1B6F000191EC04F00101002FEF
:104D2000F8D70001938081A02DD0020E0101006F01
:104D3000FA0E1B6F000191EC04F00101002FF8D76F
:104D4000938081A01ED0010E166F020E176F000116
:104D500016EC05F0500EF66E070EF76E95EC07F0A8
:104D60004E864E924E940A0E2C6E2D6E040E01014C
:104D7000006FFA0E1B6F000191EC04F00101002F8F
:104D8000F8D70001938281A218D0010E176E366AFF
:104D9000020E1B6E1D6E0B0E1A6E020E0101006FCD
:104DA000FA0E1B6F000191EC04F00101002FF8D7FF
:104DB0000C0E156F00014FEC05F04EB204D02D50D3
:104DC0001408D8A494D04E944E960A0E2C6E2E6ED3
:104DD000010E0101166F020E176F000116EC05F0AF
:104DE000600EF66E070EF76E95EC07F0010E0101EE
:104DF000166F030E176F000116EC05F0720EF66EBB
:104E0000070EF76E95EC07F0938281A270D04E9258
:104E1000140E2D6E0A0E2C6E2E6E020E0101006F06
:104E2000FA0E1B6F000191EC04F00101002FF8D77E
:104E30000C0E156F00014FEC05F0FE0E0101006F26
:104E4000000142EC0BF0FE0E296E0A0EA96E2DC079
:104E5000A8FFA69CA69EA684F250006EF29E0F01AB
:104E6000550EA76EAA0EA76EA682A6B2FED7A6946E
:104E70000050F2120C0EA96E2EC0A8FFA69CA69E92
:104E8000A684F250006EF29E550EA76EAA0EA76E73
:104E9000A682A6B2FED7A6940050F2120B0EA96EFF
:104EA0002CC0A8FFA69CA69EA684F250006EF29E7F
:104EB000550EA76EAA0EA76EA682A6B2FED7A6941E
:104EC0000050F2120D0EA96E29C0A8FFA69CA69E46
:104ED000A684F250006EF29E550EA76EAA0EA76E23
:104EE000A682A6B2FED7A6940050F21200014EB4DC
:104EF00003D02C50140864E14E924E960A0E2E6E8A
:104F00002D6E010E0101166F020E176F000116ECD7
:104F100005F0880EF66E070EF76E95EC07F0010EA1
:104F20000101166F030E176F000116EC05F0980EC5
:104F3000F66E070EF76E95EC07F0938281A240D0D3
:104F40004E94140E2C6E0A0E2E6E2D6E020E010162
:104F5000006FFA0E1B6F000191EC04F00101002FAD
:104F6000F8D70C0E156F00014FEC05F00B0EA96E73
:104F70002CC0A8FFA69CA69EA684F250006EF29EAE
:104F80000F01550EA76EAA0EA76EA682A6B2FED777
:104F9000A6940050F2120C0EA96E2EC0A8FFA69C7B
:104FA000A69EA684F250006EF29E550EA76EAA0E23
:104FB000A76EA682A6B2FED7A6940050F2120001F8
:104FC0004EB604D02E501408D8A48DD04E924E94D4
:104FD0000A0E2C6E2D6E010E0101166F020E176F58
:104FE000000116EC05F0AE0EF66E070EF76E95ECAE
:104FF00007F0938681A601D0292A938481A401D049
:10500000290629C02FF029C000F142EC0BF0938251
:1050100081A269D00D0EA96E29C0A8FFA69CA69EEC
:10502000A684F250006EF29E0F01550EA76EAA0ED6
:10503000A76EA682A6B2FED7A6940050F2124E9694
:10504000140E2E6E0A0E2C6E2D6E020E0101006FD4
:10505000FA0E1B6F000191EC04F00101002FF8D74C
:105060000C0E156F00014FEC05F00C0EA96E2EC052
:10507000A8FFA69CA69EA684F250006EF29E0F0189
:10508000550EA76EAA0EA76EA682A6B2FED7A6944C
:105090000050F2120B0EA96E2CC0A8FFA69CA69E73
:1050A000A684F250006EF29E550EA76EAA0EA76E51
:1050B000A682A6B2FED7A6940050F2120A0EA96EDE
:1050C0002DC0A8FFA69CA69EA684F250006EF29E5C
:1050D000550EA76EAA0EA76EA682A6B2FED7A694FC
:1050E0000050F2120001010117501408D8A4D5D1C4
:1050F00035AC9BD0010E166F176F000116EC05F052
:10510000BE0EF66E070EF76E95EC07F0010E01016C
:10511000166F020E176F000116EC05F001010A6B05
:1051200029C009F1000185EC05F000C000F101C0C3
:1051300001F102C002F103C003F103C021F102C07A
:1051400020F101C01FF100C01EF10101256B246B8D
:105150007F0E236F860E226F0001A0EC05F0010187
:105160001D6B1C6B480E1B6F850E1A6F03C021F15F
:1051700002C020F101C01FF100C01EF1000105ECCA
:1051800009F000C000F101C001F102C002F103C04A
:1051900003F1C80EF66E070EF76E050E0101086FDB
:1051A0000001A5EC07F0010EE96E03C10BF102C18D
:1051B0000AF101C109F100C108F101010C6B000104
:1051C000E2EC09F0250E0101156F00014FEC05F02E
:1051D000010E0101166F030E176F000116EC05F0AA
:1051E000D60EF66E070EF76E080E0101086F00016D
:1051F000A5EC07F0010EE96E8EC00BF18DC00AF12F
:105200008CC009F18BC008F101010C6F0001E2ECC8
:1052100009F0E30EF66E070EF76E070E0101086F38
:105220000001A5EC07F0359C010132503B080FE26C
:105230000A0E166F010E176F000116EC05F0EC0E4A
:10524000F66E070EF76E95EC07F00ED001010A0E10
:10525000166F010E176F000116EC05F0F80EF66ED2
:10526000070EF76E95EC07F04EB010D0358E0B0E92
:105270000101166F020E176F000116EC05F0040E07
:10528000F66E080EF76E95EC07F051D0359E8EC085
:105290001DF18DC01CF18CC01BF18BC01AF10101F6
:1052A000216B206B1F6B7E0E1E6F0001BBEC0AF0A2
:1052B0000FE30B0E0101166F020E176F000116ECC3
:1052C00005F0100EF66E080EF76E95EC07F02FD075
:1052D00001011D6B1C6B1B6B800E1A6F8EC021F1C0
:1052E0008DC020F18CC01FF18BC01EF10001BBEC02
:1052F0000AF00FE30B0E0101166F020E176F00018B
:1053000016EC05F01C0EF66E080EF76E95EC07F025
:105310000ED00B0E0101166F020E176F000116EC76
:1053200005F0280EF66E080EF76E95EC07F034A027
:1053300011D08A889398010E0101166F040E176F21
:10534000000116EC05F0340EF66E080EF76E95ECC3
:1053500007F010D08A989398010E0101166F040E81
:10536000176F000116EC05F03C0EF66E080EF76E96
:1053700095EC07F034A20FD00A0E0101166F040E4F
:10538000176F000116EC05F0460EF66E080EF76E6C
:1053900095EC07F012D04EA002D08A9E939E0A0E82
:1053A0000101166F040E176F000116EC05F0500E88
:1053B000F66E080EF76E95EC07F0938481A40BD07F
:1053C00034B808D03488C80E01011B6F000191EC7D
:1053D00004F0347001D03498938281A224D034BC7C
:1053E00021D0348CC80E01011B6F000191EC04F038
:1053F000347234A20DD04EA002D08A8E939E960EA7
:1054000001011B6F000191EC04F0E0EC04F00AD004
:105410008A9E939E960E01011B6F000191EC04F091
:10542000E0EC04F001D0349C938681A61BD034BA02
:1054300018D0020E0101006FFA0E1B6F000191ECF3
:1054400004F00101002FF8D70C0E156F00014FEC8E
:1054500005F0010E176E366A020E1B6E1D6E0B0EE6
:105460001A6E01D0349A938081A015D034BE12D028
:10547000020E0101006FFA0E1B6F000191EC04F0A7
:105480000101002FF8D70C0E156F00014FEC05F04D
:10549000280E176E01D0349E010117501E08D8A4A3
:1054A00009D1010E166F176F000116EC05F05C0EA6
:1054B000F66E080EF76E95EC07F0010E0101166FFF
:1054C000020E176F000116EC05F0700EF66E080E56
:1054D000F76E95EC07F0010E0101166F030E176FC2
:1054E000000116EC05F0840EF66E080EF76E95ECD2
:1054F00007F035AADDD00101006B000142EC0BF092
:105500002650070812E3090E26240101006F166FCA
:10551000030E176F000116EC05F02E0E0101156F3A
:1055200000014FEC05F0262A0FD0266A010E01017A
:10553000166F030E176F000116EC05F08C0EF66E59
:10554000080EF76E95EC07F0020E0101046F0001E2
:1055500016EC0BF000C000F101C001F102C002F135
:1055600003C003F103C01DF102C01CF101C01BF117
:1055700000C01AF10101216B206B1F6B880E1E6F9A
:105580000001BBEC0AF002E38A9E939E020E010129
:10559000046F000116EC0BF000C000F101C001F136
:1055A00002C002F103C003F103C01DF102C01CF1EF
:1055B00001C01BF100C01AF10101216B206B400EEC
:1055C0001F6F810E1E6F0001BBEC0AF070E3460EE8
:1055D000A96E30C0A8FFA69CA69EA684F250006EBD
:1055E000F29E0F01550EA76EAA0EA76EA682A6B256
:1055F000FED7A6940050F212470EA96E31C0A8FF44
:10560000A69CA69EA684F250006EF29E550EA76E32
:10561000AA0EA76EA682A6B2FED7A6940050F212DA
:10562000480EA96E32C0A8FFA69CA69EA684F25082
:10563000006EF29E550EA76EAA0EA76EA682A6B2A7
:10564000FED7A6940050F2120C0E0101156F000156
:105650004FEC05F0010E0101166F020E176F0001ED
:1056600016EC05F0A20EF66E080EF76E95EC07F03C
:10567000010E0101166F030E176F000116EC05F005
:10568000B60EF66E080EF76E95EC07F0080E0101E7
:10569000006FFA0E1B6F000191EC04F00101002F66
:1056A000F8D70C0E156F00014FEC05F0FF00359A8E
:1056B0000101F3D6175028086DE1010E166F176F20
:1056C000000116EC05F0CA0EF66E080EF76E95ECAA
:1056D00007F0010E0101166F020E176F000116ECA4
:1056E00005F0E00EF66E080EF76E95EC07F0010E71
:1056F0000101166F030E176F000116EC05F0F60E90
:10570000F66E080EF76E95EC07F0010E0101166FAC
:10571000040E176F000116EC05F00C0EF66E090E64
:10572000F76E95EC07F0938081A012D034BA0FD0B9
:10573000348A1E0E176E20C000F18BEC07F08A9A97
:10574000939A0C0E0101156F00014FEC05F001D08A
:10575000349A938281A21CD034BE19D0348E140E98
:10576000176E366A020E1B6E1D6E0B0E1A6E020E3F
:105770000101006FFA0E1B6F000191EC04F00101B2
:10578000002FF8D70C0E156F00014FEC05F001D07B
:10579000349E01013350130805E20001E0EC04F0EF
:1057A000336A010135A606D0006B00018BEC07F0CF
:1057B00003000101175204E117501E08D8B46CD041
:1057C00035AA6AD02AC000F10001D7EF0DF003C05E
:1057D0008EF002C08DF001C08CF000C08BF04EA0A6
:1057E0004FD041EF11F08EC01DF18DC01CF18CC067
:1057F0001BF18BC01AF10101216B206B1F6B7E0E18
:105800001E6F0001BBEC0AF01DE34EA01BD0175029
:10581000140818E1358035A214D034A403D08A8A44
:10582000939A02D08A9A939A347634A605D020C0EF
:1058300000F18BEC07F005D00101006B00018BEC4F
:1058400007F01DD020C000F18BEC07F08A9A939AE4
:1058500001011D6B1C6B1B6B7E0E1A6F8EC021F13C
:105860008DC020F18CC01FF18BC01EF10001BBEC7C
:105870000AF001E204E13592526A516A35900AD089
:1058800020C000F18BEC07F08A9A939A3592526A05
:10589000516A3590359A01015650450807E2FF0AD2
:1058A00003E155504F0802E24E80359E28EF15F077
:0258B0000300F3
:020000040030CA
:0E00000020CE1E1E008781000FC00FE00F40B3
:00000001FF
;PIC18F4550
;CRC=D230  CREATED="05-dic.-15 09:48"
