:0400000046EF12F0C5
:08000800046ED8CF05F0E0CF33
:1000100006F00001E9CF0CF0EACF07F0E1CF08F0DD
:10002000E2CF09F0D9CF0AF0DACF0BF0F3CF12F01C
:10003000F4CF13F0FACF14F000C00EF001C00FF0AF
:1000400002C010F003C011F09DA02AEF00F09EB096
:1000500014EF02F0F2A830EF00F0F2B286EF01F0F8
:100060000EC000F00FC001F010C002F011C003F08C
:100070000CC0E9FF07C0EAFF078E08C0E1FF09C016
:10008000E2FF0AC0D9FF0BC0DAFF12C0F3FF13C0B2
:10009000F4FF14C0FAFF045006C0E0FF05C0D8FF0B
:1000A0001000F76AB20FF66E000EF7220900F55045
:1000B0001200280C0106010EEA6E350EE96EEF50B3
:1000C0000EE0030E016E006A002EFED7012EFBD754
:1000D000E30E006E002EFED70000EF2EF2D7000CCC
:1000E00001013B39F00B006E0F0E83140010836E7C
:1000F0000000838400D000D000D083940001000C65
:10010000F00E956E838000008384000083380F0B0F
:1001100001013B6F83940000838400D0000083388A
:100120000F0B3A6F8394000E956E3B39006EF00E04
:10013000001600503A11016E0001000C8392E0DFBE
:1001400001C03AF1010101AE02D00001F8D738A197
:10015000839238B183820000839000008394393900
:100160003A6F0F0E3A173AC13BF10001B9DF0101B6
:1001700039510F0B3A6F3B6F0001B2DF000C000EDC
:10018000956E8392839083940F0E0101356F000169
:1001900092DF010E0101326F325103080CE3030EAE
:1001A0003B6F00019DDF050E0101356F000183DF0C
:1001B0000101322BF1D7020E3B6F000191DF0101EB
:1001C000326B3251030812E3036A3251F2CF33F13A
:1001D000F29E000166DF010133BFF28E336F386B90
:1001E000396F0001ABDF0101322BEBD7000197EF34
:1001F00001F00101325303E18B92949202D08B8281
:1002000094920001000C010E0101365DFC0F15E215
:10021000040F000126EF01F0800E0101376F0DD0B1
:10022000C00E0101376F09D0940E0101376F05D060
:10023000D40E0101376F01D00101010E355D372762
:10024000386B37C139F1000179DF000C07AE03D0FC
:10025000F2CF0DF0F29EE824F76AF736790FF66ECA
:10026000020EF7220A00F550FA6E0800F55007AEAC
:1002700002D00DBEF28EF96E180220022802300262
:1002800001013451F10802E1EE0E346F34510C0AD1
:10029000000105E0060A11E0020A18E01ED0010183
:1002A000386B010E396F000149DF010E176E020E27
:1002B0000101356F0001FFDE18D0172A010E010180
:1002C000356F17C036F100019EDF0FD00101386B8A
:1002D000100E396F000132DF08D0010E0101386FB6
:1002E00034C139F100012ADF00D0000C0900F552B9
:1002F0000CE0F6CF32F1F7CF33F1F5CF34F1C0DFB8
:1003000032C1F6FF33C1F7FFF1D7000C32B65DD032
:10031000020E0101326FFA0E356F0001CCDE0101D1
:10032000322FF9D7938081A04FD0000128D721C068
:1003300032F15FDF010E0101356F366F000163DFBF
:10034000D00EF66E030EF76ED1DF010E0101356F90
:10035000020E366F000157DFE60EF66E030EF76EE3
:10036000C5DF010E0101356F030E366F00014BDF53
:10037000FC0EF66E030EF76EB9DF010E0101356F4C
:10038000040E366F00013FDF120EF66E040EF76E9C
:10039000ADDF080E0101326FFA0E356F00018BDE02
:1003A0000101322FF9D70C0E346F000169DF32865C
:1003B000186A3294020E0101326FFA0E356F000195
:1003C0007ADE0101322FF9D70001F29230EF00F00E
:1003D00020434142494E4120204558545241435404
:1003E0004F5241200000202044452048554D4F5396
:1003F0002059204741534553202000002020202031
:100400004A5020494E474C4F42414C20202020204A
:100410000000205245463A2050414E454C204A505B
:1004200043454831352000008E0ECF6EB20ECE6EA1
:100430004C2AD8B44D2A502AD8B4512A5050140806
:1004400005E1515203E1516A506A328A32A003D069
:100450004E2AD8B44F2A4F500A0806E2FF0A03E199
:100460004E50B70801E2328232AC0ED0522AD8B4D4
:10047000532A53502D0808E2FF0A03E15250DF08C7
:1004800003E231828B8094905350450807E2FF0AC3
:1004900003E152504F0802E2328E329C4C50C808A1
:1004A00005E14D5203E14D6A4C6A32889E9030EF6F
:1004B00000F0414C41524D4120202020202020209E
:1004C00020204F464600414C41524D4120202020E3
:1004D000202020202020204F4E00534554504F49CB
:1004E0004E54202020202020202020202000434186
:1004F0004D42494F20434F4E54524153454E4120A7
:1005000020004D45444941204D4F56494C20202064
:1005100020202020200050554E544F205A45524F45
:10052000202020202020202020004D414E54454EE8
:10053000494D49454E544F202020202020004D4F4A
:10054000444F202020202020202020202020202058
:1005500020002020202020496E67726573652020CE
:10056000202020202020000020202020436F6E74B7
:1005700072617365F161202020202020000020207E
:100580002020434C4156453D25692569256925694B
:10059000202000002020202020202020202020209B
:1005A00020202020202020002020202020436F6EAB
:1005B0007472617365F161202020200020202020CA
:1005C0002020436F72726563746120202020200018
:1005D000202020202020202020202020202020201B
:1005E000202020002020202020436F6E7472617331
:1005F00065F16120202020002020202020496E630A
:100600006F727265637461202020200020202020FA
:1006100020202020202020202020202020202000FA
:100620002D2D2D4D454E55205052494E4349504198
:100630004C2D2D2D000020202020202020202020A7
:1006400020202020202020202020000020202020EA
:100650002020202041637469766F202020202020F4
:1006600000002020202020202020416C61726D613C
:1006700020202020202000002020202020202020BA
:1006800020202020202020202020202000002020AA
:10069000202020202020202020202020202020205A
:1006A00020200000202020202020446573616374F6
:1006B00069766F202020202000002020202020208C
:1006C00020416C61726D61202020202020200000DC
:1006D000202020202020202020202020202020201A
:1006E000202020200000202020202020536574702E
:1006F0006F696E7420202020202000002020202000
:1007000020202025322E326620202000202020208C
:100710002020496E677265736520202020202020EC
:10072000000020436F6E7472617365F16120416354
:100730007475616C2020000020202020434C41561D
:10074000453D25692569256925692020000020206F
:100750002020202020202020202020202020202099
:10076000202000002020202020436F6E74726173CF
:1007700065F1612020202020000020202020202062
:10078000436F727265637461202020202020000076
:100790002020202020202020202020202020202059
:1007A0002020202000002020202020202020202089
:1007B0002020202020202020202000002020202079
:1007C00020436F6E7472617365F1612020202020D8
:1007D00000002020202020496E636F7272656374D0
:1007E0006120202020200000202020202020202008
:1007F0002020202020202020202020200000202039
:10080000202020496E6772657365202020202020FB
:10081000202000002020436F6E7472617365F161C7
:10082000204E756576612020000020202020434C5A
:100830004156453D25692569256925692020000027
:1008400020202020202020202020202020202020A8
:100850002020202000002020202020436F6E747272
:10086000617365F1612020202020000020202020DD
:1008700020416C6D6163656E6164612020202020E1
:1008800000002020202020202020202020202020A8
:10089000202020202020000020202020204D6564E2
:1008A0006961204D6F76696C202020200000202097
:1008B0002020202020253032692020200000202008
:1008C0005A65726F20506F696E7420436F6E66694F
:1008D00067200000496E466C6F773D2025322E312F
:1008E000662020286D2F732920005A463D25322E80
:1008F0003066204144433D25322E306600002044BE
:1009000069666572656E6369613D25322E306600E9
:10091000204D414E542E2020563D25322E3066204B
:10092000200044616D703D25322E30662525202043
:10093000543D25322E30660049463D2025322E3169
:1009400066286D2F73292044616D3D25322E306657
:100950000000416A75737465313D2025322E326680
:100960002000204D4F444F20202044616D703D25D4
:10097000322E30662525200049463D2025322E3175
:1009800066286D2F73292044616D3D25322E306617
:1009900000002020204D6F646F204D616E75616CEA
:1009A000202000002020204D6F646F204175746F5F
:1009B000202020002020204D6F646F2053656D693A
:1009C000202020002020204D6F646F204D616E7527
:1009D000616C202000002020202053656C6563633B
:1009E000696F6E61646F2020202000002020204D60
:1009F0006F646F204175746F20202000202020201C
:100A000053656C656363696F6E61646F202020209D
:100A100000002020204D6F646F2053656D692020F9
:100A20002000204A50204345474820202020000035
:100A300044616D703D25322E306625250000496EDB
:100A4000466C6F773D2025322E316620286D2F733E
:100A500029200000466C756A6F3D416A757300007D
:100A6000466C756A6F3D42616A6F0000466C756A3C
:100A70006F3D416C746F0000466C756A6F3D4F4B63
:100A8000202000004C757A3A4F4E20004C757A3A7F
:100A90004F46462000004D6F746F723A4F4E200053
:100AA0004D6F746F723A4F46462000002020202080
:100AB0002041706167616E646F202020202000005B
:100AC000202020202020436162696E6120202020A8
:100AD00020200000204573706572650020202020D2
:100AE0002020202020202020202020202020202006
:100AF0000000202020202050726F6365736F20203B
:100B00002020202000002020202046696E616C6992
:100B10007A61646F2020202000002020204465732B
:100B200065612061706167617220202020200000D3
:100B300020202020206C6120636162696E6120208A
:100B40002020202000002020203E2041636570747A
:100B50006172202020202020202000002020203C26
:100B60002043616E63656C6172202020202020206C
:100B700000008E0E006E0AC101F009C102F0036A86
:100B8000015209E102C001F0026A080E005E015242
:100B900002E1006A08D0D89001BE04D002360136C6
:100BA0000006F9D7019E000C01011E51D8B4A5D052
:100BB0002A6F2251D8B4A1D02A5F05E37F0E2A27DD
:100BC000D8B09BD006D0810E2A5FD8A096D0D8B4DA
:100BD00094D02AC100F0016A026A036A296B1FC11E
:100BE00028F1288F20C127F121C126F1190E2A6F83
:100BF0002551265F0DE2010E275F0AE2285F08E219
:100C0000295F06E2292B282B272B2551262728D0C0
:100C10002451275F12E2010E285F0FE2295F0DE2E7
:100C2000292B282B245127272551262719E3272B49
:100C300017E1282B15E1292B13D023518009285FB8
:100C40000EE2010E295F0BE2292B23518009282790
:100C500024512727E9E3282BE7E1292BE5D7038057
:100C60002A2F01D00BD0D89026372737283729379D
:100C7000D8900336023601362B37BAD72BA106D0CF
:100C8000D8900132023203322B3302D0000635E015
:100C90002BBF1ED0D8902637273728372937255124
:100CA000265F07E2010E275F04E2285F02E2295F68
:100CB0001AE32451275F05E2010E285F02E2295F53
:100CC00012E323518009285F03E2010E295F0BE341
:100CD000032A09E1022A07E1012A05E1002A0DE0C1
:100CE0000132023203321FC12AF123512A1B2AAFDB
:100CF00002D0018E06D0019E04D0006A016A026A09
:100D0000036A0001000C800ED8A202D00101231B4F
:100D10000101286B296B1FC127F12351271B1E518D
:100D2000D8B4DFD0266F006E2251D8B4E3D0265F4E
:100D3000D8B483D03EE323C12CF12C8F24C12BF1F6
:100D400025C12AF1296BD8902C332B332A33293330
:100D5000262FF8D727AF03D02881E0D028912691FD
:100D60002889010EEA6E210EE96EEBD0289927BF83
:100D70000AD026A113D02C332B332A332933002A4F
:100D8000D8B4C7D00BD02CBF0CD0D89029372A3775
:100D90002B372C370006D8B4BCD0F5D7288D6DD0B2
:100DA000289D1FC127F11FAF02D02C8FABD02C9FE5
:100DB000A9D022C126F122C100F01E51265F1FC119
:100DC0002CF12C8F20C12BF121C12AF1296BD89055
:100DD0002C332B332A332933262FF8D727AF03D0D0
:100DE00028839CD028932691288B010EEA6E250E2D
:100DF000E96EA7D0289B27BF0AD026A113D02C3399
:100E00002B332A332933002AD8B483D00BD02CBFFC
:100E10000CD0D89029372A372B372C370006D8B476
:100E200078D0F5D7288F29D0289F23C127F123AF69
:100E300002D02C8F67D02C9F65D023C12CF12C8F32
:100E400024C12BF125C12AF127AF04D02C9F28857E
:100E500065D02895296B2691010EEA6E210EE96E68
:100E600070D027BF1CD01FC127F126A106D02C337C
:100E70002B332A332933002A4CE029AF0BD02A2BFD
:100E800009E12B2B07E12C2B05E12C332B332A33E3
:100E9000002A3FE028BD84D728BFC6D71CD0800ECB
:100EA0002C1B2CAF04D03AD023C127F10AD01FC18C
:100EB00027F12C5306E12B5304E12A5302E1006A87
:100EC00021D02CBF08D0D89029372A372B372C3780
:100ED000002EF7D71ED027AF02D02C8F13D02C9F17
:100EE00011D022C100F023C12CF124C12BF125C166
:100EF0002AF108D01EC100F01FC12CF120C12BF136
:100F000021C12AF12CC101F02BC102F02AC103F04A
:100F100034D0006A016A026A036A2FD0296B2A1F43
:100F20002B1F2C1F291F292B05E12A2B03E12B2B1B
:100F300001E12C2B28B112D728B354D728B589D773
:100F4000B3D7EF502A2705E32B2B03E12C2BD8B482
:100F50002681ED52EF502B2703E32C2BD8B42681AA
:100F6000ED52EF50EFBE01D0800A2C27D8B0268179
:100F700028B9FCD628BB3ED774D70001000C090065
:100F8000F6CF09F1F7CF0AF1166AF2BE168EF29E7D
:100F9000F5CF34F140EC01F016BEF28E09C1F6FF38
:100FA0000AC1F7FF0101082F01D002D00001E7D7E5
:100FB0000001000C01010751016A065D03E206C150
:100FC00000F00CD0006A080E086F06370036075193
:100FD000005CD8B0006E0136082FF7D70001000C76
:100FE000200E010101A9300E026F00C100F000AF18
:100FF00007D0001E002A00C000F12D0E026F018FE5
:10100000015000C106F1640E076F0001D3DF00C07C
:1010100000F1300E01240101036F00C106F10A0E38
:10102000076F0001C7DF300E00240101056F300E8D
:101030000124046F02C100F001A702D001AF0195A5
:1010400001B90BD001AF22D001B520D000C003F10F
:1010500001B31CD000C004F119D0300E035D16E1BD
:1010600000C003F1200E026F01A704D00195018397
:1010700001AF0193300E045D09E100C004F1200EC0
:10108000036F01A7F7D7019301AF019101A50CD020
:10109000166AF2BE168EF29E02C134F1000140ECD7
:1010A00001F016BEF28E010101A30CD0166AF2BE49
:1010B000168EF29E03C134F1000140EC01F016BE21
:1010C000F28E010101A10CD0166AF2BE168EF29EBC
:1010D00004C134F1000140EC01F016BEF28E0101B2
:1010E000166AF2BE168EF29E05C134F1000140EC84
:1010F00001F016BEF28E000C0101012D38D031B482
:101100001AD0166AF2BE168EF29E020E356F02C11A
:1011100036F1000103EC01F016BEF28EB20EF66E4F
:10112000040EF76E166AF2BE168EF29E76EC01F091
:1011300016BEF28E010131A41AD0166AF2BE168EC6
:10114000F29E020E356F02C136F1000103EC01F090
:1011500016BEF28EC60EF66E040EF76E166AF2BE5C
:10116000168EF29E76EC01F016BEF28E0101015150
:1011700002081AE1166AF2BE168EF29E020E356F52
:1011800002C136F1000103EC01F016BEF28EDA0E58
:10119000F66E040EF76E166AF2BE168EF29E76ECAE
:1011A00001F016BEF28E0101015103081AE1166A20
:1011B000F2BE168EF29E020E356F02C136F10001AC
:1011C00003EC01F016BEF28EEE0EF66E040EF76E14
:1011D000166AF2BE168EF29E76EC01F016BEF28E04
:1011E0000101015104081AE1166AF2BE168EF29E40
:1011F000020E356F02C136F1000103EC01F016BE9C
:10120000F28E020EF66E050EF76E166AF2BE168E9E
:10121000F29E76EC01F016BEF28E01010151050836
:101220001AE1166AF2BE168EF29E020E356F02C1E8
:1012300036F1000103EC01F016BEF28E160EF66ECA
:10124000050EF76E166AF2BE168EF29E76EC01F06F
:1012500016BEF28E0101015106081AE1166AF2BEAD
:10126000168EF29E020E356F02C136F1000103ECBC
:1012700001F016BEF28E2A0EF66E050EF76E166A95
:10128000F2BE168EF29E76EC01F016BEF28E0101D1
:10129000015107081AE1166AF2BE168EF29E020E7E
:1012A000356F02C136F1000103EC01F016BEF28E7B
:1012B0003E0EF66E050EF76E166AF2BE168EF29EA2
:1012C00076EC01F016BEF28E01010001000C010166
:1012D0001A51D8B471D0006E1E51D8B46DD000260A
:1012E00004E3810E002668E204D07F0E005E64E312
:1012F00063E01BC122F11F51221B1B8F1F8F1D5149
:101300002103F4CF24F11C512003F4CF03F0F3CFD9
:1013100023F12103F3502427F4502323000E03224A
:101320001D512003F3502427F4502323000E026A9A
:10133000032202221B512103F3502327F4500322DE
:10134000000E02221B512003F3500326F450022208
:10135000000E016A01221D511F03F3502327F45090
:101360000322000E022201221C511F03F350032608
:10137000F4500222000E01221B511F03F3500226DB
:10138000F4500122002A01BE05D02337033602366D
:1013900001360006000E23AF0AD0032A02220122E2
:1013A000015005E1025003E1035001E1002A22BF90
:1013B000018E22AF019E04D0006A016A026A036AAC
:1013C0000001000C01011551B608156F036A16C122
:1013D00019F1168FD89016331733183303320232AF
:1013E00001320032152FF6D719AF0BD0001E011EA7
:1013F000021E031E002AD8B4012AD8B4022AD8B487
:10140000032A00016FEF0AF0006A016A026A036AA8
:1014100001011D6B1E6B1F6B206B1C511B111A11E0
:1014200019112CE0200E216FD89015371637173779
:1014300018371D371E371F3720371C51205D08E134
:101440001B511F5D05E11A511E5D02E119511D5D21
:101450000FE319511D5F1A51D8A01A3D1E5F1B5191
:10146000D8A01B3D1F5F1C51D8A01C3D205FD88019
:101470000036013602360336212FD6D7010EEA6E2A
:101480001D0EE96E0001000CE95001010D6F0C51B9
:101490000F6F1BE00BC11DF10AC11CF109C11BF14B
:1014A00008C11AF1216B206B200E1F6F820E1E6F78
:1014B00000010DDF03C00BF102C00AF101C009F108
:1014C00000C008F101010F2FE5D70BC118F10AC1C7
:1014D00017F109C116F108C115F1000173D703C056
:1014E0000BF102C00AF101C009F100C008F10101CD
:1014F0000BAF0DD00D070D8B081F091F0A1F0B1F07
:10150000082BD8B4092BD8B40A2BD8B40B2B3B0E1C
:10151000146F9A0E136FCA0E126F116B0A0E0F6FB3
:101520000C51D8B40D2B0BC118F10AC117F109C128
:1015300016F108C115F114C11CF113C11BF112C140
:101540001AF111C119F100015FDF0150EFCF08F16D
:10155000ECCF09F1ECCF0AF1ECCF0BF1005213E123
:1015600001010C290F5DD8A402D000010CD00D514F
:101570000DE00F0B0F5D01E05CE20DBF5AD00DBD19
:1015800005D0200E49D0200E01010D170DAB15D04E
:101590000D9B0C51D8A40D0700500D6F166AF2BEBA
:1015A000168EF29E2D0E346F000140EC01F016BE37
:1015B000F28E01010D51006E0D6B0C510F5D13E1A8
:1015C00000500D6F166AF2BE168EF29E2E0E346F0C
:1015D000000140EC01F016BEF28E01010D51006ECB
:1015E000200E0D17000E300E0DAB16D00D9B0C51BA
:1015F000D8A40D0700500D6F166AF2BE168EF29E2B
:101600002D0E346F000140EC01F016BEF28E010188
:101610000D51006E0D6B300E0026166AF2BE168E4E
:10162000F29E00C034F1000140EC01F016BEF28ED3
:10163000010114C118F113C117F112C116F111C142
:1016400015F11C6B1B6B1A6B0A0E196F0001DCDEA7
:1016500003C014F102C013F101C012F100C011F176
:1016600001010F2F60D70001000C1BC122F1010105
:101670001F51221B22AF05D0D894D8901BBFD88011
:101680002FD01BC122F11EC123F11A51235F06E0A6
:1016900022AF26D0D850010AD86E22D01FC123F124
:1016A0001B51235F06E022AF1BD0D850010AD86E31
:1016B00017D020C123F11C51235F06E022AF10D0C8
:1016C000D850010AD86E0CD021C123F11D51235FDF
:1016D00006E022AF05D0D850010AD86E01D0D890CC
:1016E0000001000C8E0E006EFC51005EFDC002F089
:1016F000FEC001F0028E005209E0D890025202E1D1
:10170000015204E002320132002EF7D7FDAF05D0BE
:10171000011E021E012AD8B4022A000C0101043560
:10172000006E0036FC0E001600C001F0C250C30B64
:101730000010C26E166AF2BE168EF29E0A0E356F49
:1017400000015BEC00F016BEF28EC282C2B2FED780
:10175000C4CF0AF1C3CF09F10001B9EC05F003C011
:1017600008F102C007F101C006F100C005F105C192
:1017700000F006C101F007C102F008C103F0000C3F
:10178000FCC0BEFF000C8E0E006E1BC101F01AC122
:1017900002F0036A01AE05D0011E021E022A01E119
:1017A000012A015209E102C001F0026A080E005E3E
:1017B000015202E1006A0DD0D89001BE04D0023679
:1017C00001360006F9D701011BAF02D0000101D09C
:1017D000019E0001000C08C10CF107C10BF106C10C
:1017E0000AF105C109F10CC11DF10BC11CF10AC1BF
:1017F0001BF109C11AF10101216B206B1F6B7F0ED8
:101800001E6F000132DFD8B440D2010E01011B6F00
:10181000090EE96E1BC1EAFF7E0EEF6ED8820CC185
:1018200021F10BC120F10AC11FF109C11EF1256B85
:10183000246B236B7F0E226F000183EC06F000C047
:101840001AF101C01BF102C01CF103C01DF1D892B6
:101850000CC121F10BC120F10AC11FF109C11EF118
:101860000101256B246B236B7F0E226F000183EC3B
:1018700006F01DC121F11CC120F11BC11FF11AC1CD
:101880001EF103C025F102C024F101C023F100C004
:1018900022F1D4EC05F003C00CF102C00BF101C041
:1018A0000AF100C009F10CC11DF10BC11CF10AC104
:1018B0001BF109C11AF10CC121F10BC120F10AC1C0
:1018C0001FF109C11EF103DD03C018F102C017F1B9
:1018D00001C016F100C015F1BC0E01011D6F240EF0
:1018E0001C6F670E1B6F7D0E1A6F18C121F117C197
:1018F00020F116C11FF115C11EF10001E8DC00C086
:101900001AF101C01BF102C01CF103C01DF1D892F5
:1019100003C021F102C020F101C01FF100C01EF17F
:10192000E30E0101256FE40E246F900E236F820EEB
:10193000226F000183EC06F003C010F102C00FF12A
:1019400001C00EF100C00DF110C11DF10FC11CF15D
:101950000EC11BF10DC11AF118C121F117C120F1FF
:1019600016C11FF115C11EF1B2DC00C01AF101C091
:101970001BF102C01CF103C01DF1D89203C021F17C
:1019800002C020F101C01FF100C01EF11C0E0101B8
:10199000256F870E246F570E236F830E226F000171
:1019A00083EC06F003C010F102C00FF101C00EF18C
:1019B00000C00DF110C11DF10FC11CF10EC11BF1D2
:1019C0000DC11AF118C121F117C120F116C11FF183
:1019D00015C11EF17CDC00C01AF101C01BF102C070
:1019E0001CF103C01DF1D89203C021F102C020F107
:1019F00001C01FF100C01EF1AB0E0101256FE10E09
:101A0000246F9E0E236F830E226F000183EC06F07D
:101A100003C010F102C00FF101C00EF100C00DF1C2
:101A200001011D6B1C6B1B6B7F0E1A6F18C121F11E
:101A300017C120F116C11FF115C11EF1000147DCCD
:101A400000C01AF101C01BF102C01CF103C01DF15E
:101A5000D89203C021F102C020F101C01FF100C0E3
:101A60001EF1B40E0101256F2A0E246F820E236F22
:101A7000226F000183EC06F003C014F102C013F1E1
:101A800001C012F100C011F114C11DF113C11CF10C
:101A900012C11BF111C11AF118C121F117C120F1B6
:101AA00016C11FF115C11EF112DC00C01AF101C0F0
:101AB0001BF102C01CF103C01DF1D89203C021F13B
:101AC00002C020F101C01FF100C01EF1800E010113
:101AD000256F3E0E246F060E236F830E226F0001CA
:101AE00083EC06F003C014F102C013F101C012F13F
:101AF00000C011F114C11DF113C11CF112C11BF181
:101B000011C11AF118C121F117C120F116C11FF13D
:101B100015C11EF167EC09F000C01AF101C01BF1FC
:101B200002C01CF103C01DF1D89203C021F102C014
:101B300020F101C01FF100C01EF1AB0E0101256FA5
:101B4000E10E246F9E0E236F820E226F000183EC44
:101B500006F003C014F102C013F101C012F100C07D
:101B600011F10CC11DF10BC11CF10AC11BF109C11E
:101B70001AF110C121F10FC120F10EC11FF10DC1E9
:101B80001EF167EC09F000C01AF101C01BF102C0A0
:101B90001CF103C01DF103C021F102C020F101C0FE
:101BA0001FF100C01EF114C125F113C124F112C1AF
:101BB00023F111C122F1D4EC05F003C010F102C0F1
:101BC0000FF101C00EF100C00DF1010E01011B6FFC
:101BD000050EE96E1BC1EAFF7E0EEF5C196F19BF9F
:101BE00001D014D0000ED88019551B6B1A6F1ABF84
:101BF0001B070001C8DD00C011F10150800A01017E
:101C0000126F02C013F103C014F110D01B6B19C185
:101C10001AF11ABF1B070001B6DD03C014F102C0A0
:101C200013F101C012F100C011F1010114C11DF145
:101C300013C11CF112C11BF111C11AF1180E216F51
:101C4000720E206F310E1F6F7E0E1E6F000167EC4B
:101C500009F0D89210C121F10FC120F10EC11FF17E
:101C60000DC11EF103C025F102C024F101C023F112
:101C700000C022F183EC06F003C010F102C00FF1A6
:101C800001C00EF100C00DF106D00101106B0F6B09
:101C90000E6B0D6B00010DC100F00EC101F00FC104
:101CA00002F010C103F041EF0FF00101046B0001DD
:101CB00035DD00C000F101C001F102C002F103C036
:101CC00003F103C01DF102C01CF101C01BF100C0F3
:101CD0001AF10101216B206B200E1F6F810E1E6F08
:101CE000000167EC09F000C000F101C001F102C081
:101CF00002F103C003F103C021F102C020F101C0D1
:101D00001FF100C01EF10101256BC00E246F7F0E74
:101D1000236F880E226F0001D4EC05F003C073F02E
:101D200002C072F001C071F000C070F0010E01013C
:101D3000046F0001F3DC00C000F101C001F102C03A
:101D400002F103C003F103C01DF102C01CF101C088
:101D50001BF100C01AF10101216B206B200E1F6FD7
:101D6000810E1E6F000167EC09F000C000F101C098
:101D700001F102C002F103C003F103C021F102C06E
:101D800020F101C01FF100C01EF10101256BC00E42
:101D9000246F7F0E236F880E226F0001D4EC05F0B4
:101DA00003C077F002C076F001C075F000C074F097
:101DB0000101216B206B200E1F6F810E1E6F77C0FB
:101DC00025F176C024F175C023F174C022F1000121
:101DD000D4EC05F000C000F101C001F102C002F135
:101DE00003C003F1D88203C021F102C020F101C079
:101DF0001FF100C01EF10101256B246B236B7F0EC8
:101E0000226F000183EC06F06BC021F16AC020F163
:101E100069C01FF168C01EF103C025F102C024F1A2
:101E200001C023F100C022F1D4EC05F003C06FF033
:101E300002C06EF001C06DF000C06CF06FC021F107
:101E40006EC020F16DC01FF16CC01EF15BC025F1AA
:101E50005AC024F159C023F158C022F1D4EC05F046
:101E600000C000F101C001F102C002F103C003F1A2
:101E700003C008F102C007F101C006F100C005F17E
:101E8000AAD400C000F101C001F102C002F103C0F8
:101E900003F103C021F102C020F101C01FF100C015
:101EA0001EF157C025F156C024F155C023F154C08E
:101EB00022F1D4EC05F000C000F101C001F102C034
:101EC00002F103C003F10101216B206B1F6B7F0E38
:101ED0001E6F5FC025F15EC024F15DC023F15CC0C0
:101EE00022F10001D4EC05F0EACF05F1E9CF04F1CD
:101EF000D89203C121F102C120F101C11FF100C13B
:101F00001EF103C025F102C024F101C023F100C07D
:101F100022F183EC06F005C1EAFF04C1E9FF0101EB
:101F2000216B206B1F6B7F0E1E6F03C025F102C05B
:101F300024F101C023F100C022F10001D4EC05F02E
:101F400003C063F002C062F001C061F000C060F045
:101F5000D88263C021F162C020F161C01FF160C06E
:101F60001EF1330E0101256F930E246F080E236FAF
:101F7000870E226F000183EC06F003C067F002C0F9
:101F800066F001C065F000C064F02C500A0830E132
:101F90000101046B00018EEC0BF000C000F101C0E8
:101FA00001F102C002F103C003F1EACF05F1E9CF6C
:101FB00004F1D89203C021F102C020F101C01FF149
:101FC00000C01EF1BBC025F1BAC024F1B9C023F195
:101FD000B8C022F183EC06F005C1EAFF04C1E9FFB5
:101FE00003C097F002C096F001C095F000C094F0D5
:101FF0002C50140830E10101046B00018EEC0BF051
:1020000000C000F101C001F102C002F103C003F100
:10201000EACF05F1E9CF04F1D88203C021F102C073
:1020200020F101C01FF100C01EF1BBC025F1BAC0F4
:1020300024F1B9C023F1B8C022F183EC06F005C148
:10204000EAFF04C1E9FF03C097F002C096F001C0A7
:1020500095F000C094F097C01DF196C01CF195C09A
:102060001BF194C01AF197C021F196C020F195C0E0
:102070001FF194C01EF167EC09F003C09BF002C091
:102080009AF001C099F000C098F097C01DF196C079
:102090001CF195C01BF194C01AF19BC021F19AC0AC
:1020A00020F199C01FF198C01EF167EC09F003C040
:1020B0009FF002C09EF001C09DF000C09CF09FC048
:1020C0001DF19EC01CF19DC01BF19CC01AF17BC08C
:1020D00021F17AC020F179C01FF178C01EF167ECC0
:1020E00009F000C000F101C001F102C002F103C01B
:1020F00003F19BC01DF19AC01CF199C01BF198C05F
:102100001AF17FC021F17EC020F17DC01FF17CC09B
:102110001EF167EC09F0D89203C121F102C120F150
:1021200001C11FF100C11EF103C025F102C024F15D
:1021300001C023F100C022F183EC06F000C000F1E1
:1021400001C001F102C002F103C003F197C01DF10B
:1021500096C01CF195C01BF194C01AF183C021F107
:1021600082C020F181C01FF180C01EF167EC09F030
:10217000D89203C121F102C120F101C11FF100C1B8
:102180001EF103C025F102C024F101C023F100C0FB
:1021900022F183EC06F000C000F101C001F102C0A1
:1021A00002F103C003F1D89203C021F102C020F173
:1021B00001C01FF100C01EF187C025F186C024F1C7
:1021C00085C023F184C022F183EC06F003C0AFF098
:1021D00002C0AEF001C0ADF000C0ACF0D882AFC01C
:1021E00021F1AEC020F1ADC01FF1ACC01EF10A0E4E
:1021F0000101256FD70E246F230E236F7B0E226FF4
:10220000000183EC06F003C0AFF002C0AEF001C0E5
:10221000ADF000C0ACF0AFC01DF1AEC01CF1ADC060
:102220001BF1ACC01AF10101216B206B1F6B1E6BFF
:10223000000135EC0BF004E3AF6BAE6BAD6BAC6B38
:10224000FC51285C01E3286A2850040DF350036A0E
:10225000CC0FE96E000E0320EA6EACC0EFFFADC0FC
:10226000ECFFAEC0ECFFAFC0ECFF282A8F6B8E6B8B
:102270008D6B8C6B296A010EFC5D295C01E036E2F6
:102280002950040DF350036ACC0FE96E000E0320B1
:10229000EA6EEFCF00F0ECCF01F0ECCF02F0ECCF24
:1022A00003F0EACF01F1E9CF00F1D8928FC021F11C
:1022B0008EC020F18DC01FF18CC01EF103C025F12E
:1022C00002C024F101C023F100C022F183EC06F02A
:1022D00001C1EAFF00C1E9FF03C08FF002C08EF028
:1022E00001C08DF000C08CF0292AC5D701010A6B0E
:1022F000FCC009F10001B9EC05F08FC021F18EC0DE
:1023000020F18DC01FF18CC01EF103C025F102C069
:1023100024F101C023F100C022F1D4EC05F000C08B
:1023200000F101C001F102C002F103C003F103C0DA
:102330001DF102C01CF101C01BF100C01AF1BFC0A9
:1023400021F1BEC020F1BDC01FF1BCC01EF167EC81
:1023500009F003C08FF002C08EF001C08DF000C004
:102360008CF08CC000F08DC001F08EC002F08FC0E8
:1023700003F0A6EF30F02D501408D8A479D031A284
:1023800077D0D88242C021F141C020F140C01FF176
:102390003FC01EF18BC025F18AC024F189C023F112
:1023A00088C022F183EC06F003C0CBF002C0CAF073
:1023B00001C0C9F000C0C8F0CBC01DF1CAC01CF1FB
:1023C000C9C01BF1C8C01AF1CD0E0101216FCC0E9E
:1023D000206F4C0E1F6F7C0E1E6F000135EC0BF052
:1023E00015E3CD0E01011D6FCC0E1C6F1B6F7C0E13
:1023F0001A6FCBC021F1CAC020F1C9C01FF1C8C0FB
:102400001EF1000135EC0BF001E326D001011D6B3C
:102410001C6B1B6B1A6BCBC021F1CAC020F1C9C069
:102420001FF1C8C01EF1000135EC0BF002E3010EF4
:102430002A26CBC01DF1CAC01CF1C9C01BF1C8C0FF
:102440001AF10101216B206B1F6B1E6B000135EC33
:102450000BF002E3010E2A5E2A50FB0802E2FB0E9B
:102460002A6E2A50030802E3040E2A6E2AC0BEFF19
:102470002E50140804E1FB0E2A6E2AC0BEFF2F5016
:10248000140802E130C0BEFFB2EF30F0F86AD09E0F
:10249000078EEA6AE96A640E186E080E196E020E5B
:1024A0001A6E0B0E1B6E020E1C6E030E1D6E020EBC
:1024B0001E6E1F6E040E206E0A0E216E226A236AA3
:1024C000246A256A266A276A286A296A2A6E2B6A7C
:1024D0002C6E2D6E2E6E2F6E306A319031923194AB
:1024E00031963198319A319C319E32903292336AD2
:1024F000426A416A406A3F6A466A456A446A436A78
:102500004A6A496A4B0E486E860E476E329632987A
:10251000329A329C329E4B904B924B944D6A4C6A4D
:102520004F6A4E6A516A506A536A526A576AE00E9D
:10253000566E5D0E556E8A0E546E5B6AC00E5A6EF4
:10254000280E596E890E586E330E5F6E130E5E6E36
:10255000150E5D6E870E5C6E636B626B616B606BFC
:10256000676B666B656B646B6B6B6A6B7A0E696F1E
:10257000880E686F6F6B6E6B6D6B6C6B736B726BD1
:10258000716B706B776B766B756B746B190E7B6F01
:10259000530E7A6F180E796F680E786FE90E7F6FA1
:1025A000BD0E7E6FC60E7D6F710E7C6FBE0E836F8B
:1025B000960E826F240E816F7A0E806FF30E876FF6
:1025C0005A0E866FAB0E856F810E846F8B6B8A6B94
:1025D000896B886B8F6B8E6B8D6B8C6B936B926B37
:1025E000916B906B976B966B956B946B9B6B9A6BE7
:1025F000996B986B9F6B9E6B9D6B9C6B8B0EA36F07
:10260000FD0EA26F650EA16F7C0EA06FA76BA66B6F
:10261000A56BA46BAB6BAA6BA96BA86BAF6BAE6B16
:10262000AD6BAC6BB36BB26BB16BB06BB76BB66BC6
:10263000B56BB46BBB6BBA6BB96BB86BBF6BBE6B76
:10264000BD6B7F0EBC6FC36BC26B240EC16F880E57
:10265000C06FC76BC66BC56BC46BCB6BCA6BC96BEA
:10266000C86BC150C00B0F09C16E070EB46E3E0E91
:10267000346E200E356E5E0E366E376A386A396AF1
:102680003A6A3B6A3C6A3D6A3E6ACC6BCD6BCE6B64
:10269000CF6BD06BD16BD26BD36BD46BD56BD66B4E
:1026A000D76BD86BD96BDA6BDB6BDC6BDD6BDE6BFE
:1026B000DF6BE06BE16BE26BE36BE46BE56BE66BAE
:1026C000E76BE86BE96BEA6BEB6BEC6BED6BEE6B5E
:1026D000EF6BF06BF16BF26BF36BF46BF56BF66B0E
:1026E000F76BF86BF96BFA6BFB6BC150C00B0B0906
:1026F000C16EC090C082C094C08EC280956A8C6A40
:102700003284850ECD6E9D80F288F18C000E050915
:10271000CA6EFF0ECB6E94948B94969C0C0EBD6E7D
:10272000B76AB66AC00EF212BE6AF2CF00F1F29E2C
:10273000A96AA69CA69EA680A850010100BFF28EA1
:102740003B6E166AF2BE168EF29E140E356F0001B5
:102750005BEC00F016BEF28EF2CF00F1F29E010E9D
:10276000A96EA69CA69EA680A850010100BFF28E6D
:102770003C6E166AF2BE168EF29E140E356F000184
:102780005BEC00F016BEF28EF2CF00F1F29E020E6C
:10279000A96EA69CA69EA680A850010100BFF28E3D
:1027A0003D6E166AF2BE168EF29E140E356F000153
:1027B0005BEC00F016BEF28EF2CF00F1F29E030E3B
:1027C000A96EA69CA69EA680A850010100BFF28E0D
:1027D0003E6E166AF2BE168EF29E140E356F000122
:1027E0005BEC00F016BEF28EF2CF00F1F29E050E09
:1027F000A96EA69CA69EA680A850010100BFF28EDD
:10280000016E319401B03184F2CF00F1F29E0A0ED4
:10281000A96EA69CA69EA680A85000BFF28E2E6E22
:10282000F2CF00F1F29E0B0EA96EA69CA69EA6808A
:10283000A85000BFF28E2D6EF2CF00F1F29E0C0E6A
:10284000A96EA69CA69EA680A85000BFF28E2F6EF1
:10285000F2CF00F1F29E0D0EA96EA69CA69EA68058
:10286000A85000BFF28E306E30C02AF0F2CF00F1D7
:10287000F29E190EA96EA69CA69EA680A85000BF27
:10288000F28E226EF2CF00F1F29E1A0EA96EA69C75
:10289000A69EA680A85000BFF28E0A6B096F0001A9
:1028A000B9EC05F003C0A7F002C0A6F001C0A5F086
:1028B00000C0A4F0A7C021F1A6C020F1A5C01FF15F
:1028C000A4C01EF10101256B246B480E236F850EF9
:1028D000226F0001D4EC05F003C0A7F002C0A6F0FF
:1028E00001C0A5F000C0A4F001010A6B22C009F1EB
:1028F0000001B9EC05F0D89203C021F102C020F12B
:1029000001C01FF100C01EF1A7C025F1A6C024F12F
:10291000A5C023F1A4C022F183EC06F003C0BFF0F0
:1029200002C0BEF001C0BDF000C0BCF0F2CF00F1AB
:10293000F29E280EA96EA69CA69EA680A850010114
:1029400000BFF28E226EF2CF00F1F29E290EA96E28
:10295000A69CA69EA680A85000BFF28E0A6B096FA7
:102960000001B9EC05F003C0A7F002C0A6F001C059
:10297000A5F000C0A4F0A7C021F1A6C020F1A5C019
:102980001FF1A4C01EF10101256B246B480E236FBB
:10299000850E226F0001D4EC05F003C0A7F002C041
:1029A000A6F001C0A5F000C0A4F001010A6B22C08E
:1029B00009F10001B9EC05F0D89203C021F102C081
:1029C00020F101C01FF100C01EF1A7C025F1A6C073
:1029D00024F1A5C023F1A4C022F183EC06F003C0CA
:1029E00042F002C041F001C040F000C03FF0F2CF21
:1029F00000F1F29E3C0EA96EA69CA69EA680A85051
:102A0000010100BFF28E256EF2CF00F1F29E3D0E65
:102A1000A96EA69CA69EA680A85000BFF28E0A6B47
:102A2000096F0001B9EC05F003C0B3F002C0B2F0C9
:102A300001C0B1F000C0B0F0B3C021F1B2C020F1CC
:102A4000B1C01FF1B0C01EF10101256B246B480E0F
:102A5000236F850E226F0001D4EC05F003C0B3F0A4
:102A600002C0B2F001C0B1F000C0B0F001010A6BC9
:102A700025C009F10001B9EC05F0D89203C021F19D
:102A800002C020F101C01FF100C01EF1B3C025F14A
:102A9000B2C024F1B1C023F1B0C022F183EC06F042
:102AA00003C0BBF002C0BAF001C0B9F000C0B8F07A
:102AB000F2CF00F1F29E320EA96EA69CA69EA680D1
:102AC000A850010100BFF28E2C6EF2CF00F1F29EF1
:102AD0002A0EA96EA69CA69EA680A85000BFF28EC4
:102AE0002B6E2B500C0802E20C0E2B6E2B5202E1C7
:102AF000010E2B6E1852D8A42DD33280BE6A32A29A
:102B00000DD0166AF2BE168EF29E0C0E346F0001C6
:102B100040EC01F016BEF28EFF000101166AF2BE13
:102B2000168EF29E010E356F366F000103EC01F038
:102B300016BEF28E520EF66E050EF76E166AF2BED5
:102B4000168EF29E76EC01F016BEF28E166AF2BE7A
:102B5000168EF29E010E0101356F020E366F0001D6
:102B600003EC01F016BEF28E680EF66E050EF76EDF
:102B7000166AF2BE168EF29E76EC01F016BEF28E4A
:102B8000166AF2BE168EF29E010E0101356F030E1B
:102B9000366F000103EC01F016BEF28E7E0EF66E6B
:102BA000050EF76E0A0E0101086F0001BFEC07F079
:102BB00037C000F11F0E0101016F0001F0EC07F0BA
:102BC00038C000F11F0E0101016F0001F0EC07F0A9
:102BD00039C000F11F0E0101016F0001F0EC07F098
:102BE0003AC000F11F0E0101016F0001F0EC07F087
:102BF000166AF2BE168EF29E200E0101346F00019D
:102C000040EC01F016BEF28E166AF2BE168EF29EEF
:102C1000200E0101346F000140EC01F016BEF28E6F
:102C2000938681A61BD031B818D00B0E1B5C036AAB
:102C3000370FE96E000E0320EA6EEF2A3188166A1C
:102C4000F2BE168EF29E1E0E0101356F00015BEC86
:102C500000F016BEF28E4F6A4E6A01D0319893840E
:102C600081A41BD031BC18D00B0E1B5C036A370F3C
:102C7000E96E000E0320EA6EEF06318C166AF2BE92
:102C8000168EF29E1E0E0101356F00015BEC00F006
:102C900016BEF28E4F6A4E6A01D0319C938081A09D
:102CA0001FD031BA1CD0318A1B2A166AF2BE168E8A
:102CB000F29E1E0E0101356F00015BEC00F016BEA6
:102CC000F28E166AF2BE168EF29E0C0E0101346F61
:102CD000000140EC01F016BEF28E4F6A4E6A01D040
:102CE000319A938281A21FD031BE1CD0318E1B0637
:102CF000166AF2BE168EF29E1E0E0101356F00019D
:102D00005BEC00F016BEF28E166AF2BE168EF29ED4
:102D10000C0E0101346F000140EC01F016BEF28E82
:102D20004F6A4E6A01D0319E0B0E1B5C036A370F4F
:102D3000E96E000E0320EA6EEFBE01D00AD00B0E42
:102D40001B5C036A370FE96E000E0320EA6E090E62
:102D5000EF6E0B0E1B5C036A370FE96E000E03204B
:102D6000EA6EEFBE0CD0EF50090809E20B0E1B5CB7
:102D7000036A370FE96E000E0320EA6EEF6A1B50FC
:102D80000A0802E30B0E1B6E166AF2BE168EF29E46
:102D90001BC035F1040E0101366F000103EC01F098
:102DA00016BEF28E166AF2BE168EF29E36C034F150
:102DB00040EC01F016BEF28E1B500E08D8B0A8D120
:102DC00037500308D8A48CD038500808D8A488D02D
:102DD00039500908D8A484D03A500208D8A480D029
:102DE000A96AA86AA69CA69EA684F250006EF29ECE
:102DF0000F01550EA76EAA0EA76EA682A6B2FED729
:102E0000A6940050F212166AF2BE168EF29E140EAE
:102E10000101356F00015BEC00F016BEF28E010E71
:102E2000A96EA86AA69CA69EA684F250006EF29E89
:102E30000F01550EA76EAA0EA76EA682A6B2FED7E8
:102E4000A6940050F212166AF2BE168EF29E140E6E
:102E50000101356F00015BEC00F016BEF28E020E30
:102E6000A96EA86AA69CA69EA684F250006EF29E49
:102E70000F01550EA76EAA0EA76EA682A6B2FED7A8
:102E8000A6940050F212166AF2BE168EF29E140E2E
:102E90000101356F00015BEC00F016BEF28E030EEF
:102EA000A96EA86AA69CA69EA684F250006EF29E09
:102EB0000F01550EA76EAA0EA76EA682A6B2FED768
:102EC000A6940050F212166AF2BE168EF29E140EEE
:102ED0000101356F00015BEC00F016BEF28EFF00C1
:102EE0003B50375CD8A49BD03C50385CD8A497D0DA
:102EF0003D50395CD8A493D03E503A5CD8A48FD0D2
:102F0000166AF2BE168EF29E010E0101356F366F03
:102F1000000103EC01F016BEF28E940EF66E050E63
:102F2000F76E166AF2BE168EF29E76EC01F016BEB1
:102F3000F28E166AF2BE168EF29E010E0101356FF8
:102F4000020E366F000103EC01F016BEF28EA80EE1
:102F5000F66E050EF76E166AF2BE168EF29E76ECCF
:102F600001F016BEF28E166AF2BE168EF29E010EA9
:102F70000101356F030E366F000103EC01F016BE40
:102F8000F28EBC0EF66E050EF76E166AF2BE168E47
:102F9000F29E76EC01F016BEF28E166AF2BE168E26
:102FA000F29E010E0101356F040E366F000103EC35
:102FB00001F016BEF28ED00EF66E050EF76E166A92
:102FC000F2BE168EF29E76EC01F016BEF28E020E66
:102FD0000101006F166AF2BE168EF29EFA0E356F70
:102FE00000015BEC00F016BEF28E0101002FF2D75B
:102FF000140E186E0B0E1B6E166AF2BE168EF29E23
:103000000C0E346F000140EC01F016BEF28E8A8A7D
:10301000939A329032924F6A4E6A328C79D0166A05
:10302000F2BE168EF29E010E0101356F366F000161
:1030300003EC01F016BEF28E166AF2BE168EF29EF8
:10304000010E0101356F020E366F000103EC01F035
:1030500016BEF28EE40EF66E050EF76E166AF2BE1E
:10306000168EF29E76EC01F016BEF28E166AF2BE55
:10307000168EF29E010E0101356F030E366F0001B0
:1030800003EC01F016BEF28EF80EF66E050EF76E2A
:10309000166AF2BE168EF29E76EC01F016BEF28E25
:1030A000166AF2BE168EF29E010E0101356F040EF5
:1030B000366F000103EC01F016BEF28E0C0EF66EB8
:1030C000060EF76E166AF2BE168EF29E76EC01F0D0
:1030D00016BEF28E020E0101006F166AF2BE168E47
:1030E000F29EFA0E356F00015BEC00F016BEF28E18
:1030F0000101002FF2D70B0E1B6E166AF2BE168E60
:10310000F29E0C0E346F000140EC01F016BEF28E00
:103110001B500B081DE21B500D081AE3010E1B5C2F
:103120000101006F166AF2BE168EF29E356F040E14
:10313000366F000103EC01F016BEF28E166AF2BE85
:10314000168EF29E35C034F140EC01F016BEF28EC0
:103150000101D0D4182C9DD133BE01D001D0336AE7
:10316000166AF2BE168EF29E010E356F366F0001A2
:1031700003EC01F016BEF28E200EF66E060EF76E10
:10318000166AF2BE168EF29E76EC01F016BEF28E34
:10319000938681A615D031B812D01E061C06010EEA
:1031A0001C241D6E3188166AF2BE168EF29E1E0E0B
:1031B0000101356F00015BEC00F016BEF28E01D00C
:1031C0003198938481A415D031BC12D01E2A1C2AB8
:1031D000010E1C5C1D6E318C166AF2BE168EF29EBC
:1031E0001E0E0101356F00015BEC00F016BEF28E81
:1031F00001D0319C1E50205C08E2332A1EC020F012
:10320000020E205C1F6E040E1C6E1F501E5C08E236
:1032100033061EC01FF0020E1F24206E020E1C6E0D
:103220001E50195C09E21AC01EF0020E1C6E336AB1
:103230001EC01FF01F24206E1A501E5C0BE219C026
:103240001EF0040E1C6E195C336E1EC020F0020EC0
:10325000205C1F6E010E33240101006F016F020E0E
:10326000026F00017CEC08F0020E33240101006FB4
:10327000016F030E026F00017CEC08F0030E332493
:103280000101006F016F040E026F00017CEC08F079
:10329000166AF2BE168EF29E010E0101356F1CC039
:1032A00036F1000103EC01F016BEF28E166AF2BE92
:1032B000168EF29E34C034F140EC01F016BEF28E50
:1032C0001C50020830E1166AF2BE168EF29E010E04
:1032D0000101356F040E366F000103EC01F016BEDC
:1032E000F28E166AF2BE168EF29E35C034F140ECB4
:1032F00001F016BEF28E166AF2BE168EF29E010E16
:103300000101356F030E366F000103EC01F016BEAC
:10331000F28E166AF2BE168EF29E35C034F140EC83
:1033200001F016BEF28E1C50040830E1166AF2BE9F
:10333000168EF29E010E0101356F020E366F0001EE
:1033400003EC01F016BEF28E166AF2BE168EF29EE5
:1033500035C034F140EC01F016BEF28E166AF2BEB2
:10336000168EF29E010E0101356F030E366F0001BD
:1033700003EC01F016BEF28E166AF2BE168EF29EB5
:1033800035C034F140EC01F016BEF28E1C5003083B
:1033900030E1166AF2BE168EF29E010E0101356F03
:1033A000040E366F000103EC01F016BEF28E166AB1
:1033B000F2BE168EF29E35C034F140EC01F016BE1E
:1033C000F28E166AF2BE168EF29E010E0101356F64
:1033D000020E366F000103EC01F016BEF28E166A83
:1033E000F2BE168EF29E35C034F140EC01F016BEEE
:1033F000F28E938081A026D031BA23D01EC018F05F
:10340000030E1C6E166AF2BE168EF29EC80E0101E5
:10341000356F00015BEC00F016BEF28E166AF2BE4C
:10342000168EF29E0C0E0101346F000140EC01F08B
:1034300016BEF28E1850060804E1376A386A396AF7
:103440003A6A01D0319A938281A221D031BE1ED036
:10345000020E0101006F166AF2BE168EF29EFA0E7F
:10346000356F00015BEC00F016BEF28E0101002FFB
:10347000F2D7140E186E166AF2BE168EF29E0C0E5D
:10348000346F000140EC01F016BEF28E01D0319E87
:10349000010118500208D8A412D13174318A010EEA
:1034A000186E336A31A468D03184166AF2BE168E63
:1034B000F29E010E356F366F000103EC01F016BE6F
:1034C000F28E360EF66E060EF76E166AF2BE168E87
:1034D000F29E76EC01F016BEF28E166AF2BE168EE1
:1034E000F29E010E0101356F020E366F000103ECF2
:1034F00001F016BEF28E4C0EF66E060EF76E166AD0
:10350000F2BE168EF29E76EC01F016BEF28E166AB0
:10351000F2BE168EF29E010E0101356F030E366F5C
:10352000000103EC01F016BEF28E620EF66E060E7E
:10353000F76E166AF2BE168EF29E76EC01F016BE9B
:10354000F28E166AF2BE168EF29E010E0101356FE2
:10355000040E366F000103EC01F016BEF28E780EF9
:10356000F66E060EF76E166AF2BE168EF29E76ECB8
:1035700001F016BEF28E010131B468D03194166AA2
:10358000F2BE168EF29E010E356F366F000103EC0F
:1035900001F016BEF28E8E0EF66E060EF76E166AED
:1035A000F2BE168EF29E76EC01F016BEF28E166A10
:1035B000F2BE168EF29E010E0101356F020E366FBD
:1035C000000103EC01F016BEF28EA40EF66E060E9C
:1035D000F76E166AF2BE168EF29E76EC01F016BEFB
:1035E000F28E166AF2BE168EF29E010E0101356F42
:1035F000030E366F000103EC01F016BEF28EBA0E18
:10360000F66E060EF76E166AF2BE168EF29E76EC17
:1036100001F016BEF28E166AF2BE168EF29E010EF2
:103620000101356F040E366F000103EC01F016BE88
:10363000F28ED00EF66E060EF76E166AF2BE168E7B
:10364000F29E76EC01F016BEF28E0101000E31B44E
:10365000010E006F050EA96E00C1A8FFA69CA69ED4
:10366000A684F250006EF29E0F01550EA76EAA0EB0
:10367000A76EA682A6B2FED7A6940050F212020E42
:103680000101006F166AF2BE168EF29EFA0E356FB9
:1036900000015BEC00F016BEF28E0101002FF2D7A4
:1036A000020E1C6E1E6E166AF2BE168EF29E0C0E76
:1036B000346F000140EC01F016BEF28E010118508B
:1036C0000308D8A4CAD1166AF2BE168EF29E010E65
:1036D000356F020E366F000103EC01F016BEF28E5C
:1036E000E60EF66E060EF76E166AF2BE168EF29EA5
:1036F00076EC01F016BEF28E166AF2BE168EF29EBF
:10370000010E0101356F030E366F000103EC01F06D
:1037100016BEF28EFC0EF66E060EF76E070E010157
:10372000086F0001BFEC07F0890EE96E42C00BF193
:1037300041C00AF140C009F13FC008F1020E010189
:103740000C6F000144EC0AF0166AF2BE168EF29E6F
:10375000200E0101346F000140EC01F016BEF28E24
:10376000166AF2BE168EF29E200E0101346F000121
:1037700040EC01F016BEF28E166AF2BE168EF29E74
:10378000200E0101346F000140EC01F016BEF28EF4
:1037900001011D6B1C6B1B6B800E1A6F42C021F167
:1037A00041C020F140C01FF13FC01EF1000135ECC7
:1037B0000BF005E3426A416A406A800E3F6E42C0E8
:1037C0001DF141C01CF140C01BF13FC01AF10101C5
:1037D000216B206B1F6B7E0E1E6F000135EC0BF012
:1037E00005E3426A416A406A7E0E3F6E938681A677
:1037F0002DD031B82AD0D89242C021F141C020F159
:1038000040C01FF13FC01EF1CD0E0101256FCC0E4F
:10381000246F4C0E236F7B0E226F000183EC06F0A9
:1038200003C042F002C041F001C040F000C03FF0D0
:103830003188166AF2BE168EF29E1E0E0101356F99
:1038400000015BEC00F016BEF28E01D0319893843B
:1038500081A42DD031BC2AD0D88242C021F141C0F0
:1038600020F140C01FF13FC01EF1CD0E0101256FB8
:10387000CC0E246F4C0E236F7B0E226F000183EC65
:1038800006F003C042F002C041F001C040F000C0A9
:103890003FF0318C166AF2BE168EF29E1E0E0101AA
:1038A000356F00015BEC00F016BEF28E01D0319C4A
:1038B000938081A0A9D031BAA6D0010E186E336AC8
:1038C000020E1C6E1E6E0B0E1B6E166AF2BE168E5C
:1038D000F29E1E0E0101356F00015BEC00F016BE7A
:1038E000F28E166AF2BE168EF29E0C0E0101346F35
:1038F000000140EC01F016BEF28E42C0A7F041C0BC
:10390000A6F040C0A5F03FC0A4F042C0FFF041C007
:10391000FEF040C0FDF03FC0FCF072EC0BF001C0C7
:1039200022F001010A6B22C009F10001B9EC05F097
:10393000D882A7C021F1A6C020F1A5C01FF1A4C064
:103940001EF103C025F102C024F101C023F100C023
:1039500022F183EC06F003C0A7F002C0A6F001C07C
:10396000A5F000C0A4F0A7C01DF1A6C01CF1A5C021
:103970001BF1A4C01AF10101216B206B480E1F6FCF
:10398000850E1E6F000167EC09F003C0ABF002C0AA
:10399000AAF001C0A9F000C0A8F0ABC0FFF0AAC017
:1039A000FEF0A9C0FDF0A8C0FCF072EC0BF001C065
:1039B00024F0280EA96E22C0A8FFA69CA69EA6846D
:1039C000F250006EF29E0F01550EA76EAA0EA76E62
:1039D000A682A6B2FED7A6940050F212290EA96EB6
:1039E00024C0A8FFA69CA69EA684F250006EF29E5C
:1039F000550EA76EAA0EA76EA682A6B2FED7A694F3
:103A00000050F212000101D0319A938281A223D09A
:103A100031BE20D0010E186E336A020E1C6E1E6E6F
:103A20000B0E1B6E166AF2BE168EF29E1E0E010162
:103A3000356F00015BEC00F016BEF28E166AF2BE26
:103A4000168EF29E0C0E0101346F000140EC01F065
:103A500016BEF28E01D0319E010118500408D8A480
:103A600092D2166AF2BE168EF29E010E356F366F36
:103A7000000103EC01F016BEF28E0C0EF66E070E7E
:103A8000F76E166AF2BE168EF29E76EC01F016BE46
:103A9000F28E166AF2BE168EF29E010E0101356F8D
:103AA000020E366F000103EC01F016BEF28E220EFC
:103AB000F66E070EF76E166AF2BE168EF29E76EC62
:103AC00001F016BEF28E166AF2BE168EF29E010E3E
:103AD0000101356F030E366F000103EC01F016BED5
:103AE000F28E380EF66E070EF76E0A0E0101086FA1
:103AF0000001BFEC07F037C000F11F0E0101016F9C
:103B00000001F0EC07F038C000F11F0E0101016F59
:103B10000001F0EC07F039C000F11F0E0101016F48
:103B20000001F0EC07F03AC000F11F0E0101016F37
:103B30000001F0EC07F0166AF2BE168EF29E200E1F
:103B40000101346F000140EC01F016BEF28E166ADE
:103B5000F2BE168EF29E200E0101346F000140EC81
:103B600001F016BEF28E938681A619D031B816D018
:103B70000B0E1B5C036A370FE96E000E0320EA6E22
:103B8000EF2A3188166AF2BE168EF29E1E0E0101D1
:103B9000356F00015BEC00F016BEF28E01D031985B
:103BA000938481A419D031BC16D00B0E1B5C036A20
:103BB000370FE96E000E0320EA6EEF06318C166AAD
:103BC000F2BE168EF29E1E0E0101356F00015BECF7
:103BD00000F016BEF28E01D0319C938081A01DD0E2
:103BE00031BA1AD0318A1B2A166AF2BE168EF29E9C
:103BF0001E0E0101356F00015BEC00F016BEF28E67
:103C0000166AF2BE168EF29E0C0E0101346F000190
:103C100040EC01F016BEF28E01D0319A938281A25F
:103C20001DD031BE1AD0318E1B06166AF2BE168E1A
:103C3000F29E1E0E0101356F00015BEC00F016BE16
:103C4000F28E166AF2BE168EF29E0C0E0101346FD1
:103C5000000140EC01F016BEF28E01D0319E0B0E39
:103C60001B5C036A370FE96E000E0320EA6EEFBE9D
:103C700001D00AD00B0E1B5C036A370FE96E000EF1
:103C80000320EA6E090EEF6E0B0E1B5C036A370F02
:103C9000E96E000E0320EA6EEFBE0CD0EF5009086B
:103CA00009E20B0E1B5C036A370FE96E000E03205E
:103CB000EA6EEF6A1B500A0808E3010E186E336AB9
:103CC000020E1C6E1E6E0B0E1B6E166AF2BE168E58
:103CD000F29E1BC035F1040E0101366F000103ECAA
:103CE00001F016BEF28E166AF2BE168EF29E36C035
:103CF00034F140EC01F016BEF28E1B500E08D8B025
:103D000021D13B50375CD8A498D03C50385CD8A423
:103D100094D03D50395CD8A490D03E503A5CD8A4A1
:103D20008CD0166AF2BE168EF29E010E0101356F1E
:103D3000366F000103EC01F016BEF28E4E0EF66EE9
:103D4000070EF76E166AF2BE168EF29E76EC01F042
:103D500016BEF28E166AF2BE168EF29E010E01019A
:103D6000356F020E366F000103EC01F016BEF28EC5
:103D7000640EF66E070EF76E166AF2BE168EF29E8F
:103D800076EC01F016BEF28E166AF2BE168EF29E28
:103D9000010E0101356F030E366F000103EC01F0D7
:103DA00016BEF28E7A0EF66E070EF76E166AF2BE29
:103DB000168EF29E76EC01F016BEF28E166AF2BEF8
:103DC000168EF29E010E0101356F040E366F000152
:103DD00003EC01F016BEF28E900EF66E070EF76E33
:103DE000166AF2BE168EF29E76EC01F016BEF28EC8
:103DF000020E0101006F166AF2BE168EF29EFA0ED6
:103E0000356F00015BEC00F016BEF28E0101002F51
:103E1000F2D7330E186E0B0E1B6E166AF2BE168E9C
:103E2000F29E0C0E346F000140EC01F016BEF28ED3
:103E3000376A386A396A3A6A85D0166AF2BE168ECF
:103E4000F29E010E0101356F366F000103EC01F0A7
:103E500016BEF28EA60EF66E070EF76E166AF2BE4C
:103E6000168EF29E76EC01F016BEF28E166AF2BE47
:103E7000168EF29E010E0101356F020E366F0001A3
:103E800003EC01F016BEF28EBC0EF66E070EF76E56
:103E9000166AF2BE168EF29E76EC01F016BEF28E17
:103EA000166AF2BE168EF29E010E0101356F030EE8
:103EB000366F000103EC01F016BEF28ED20EF66EE4
:103EC000070EF76E166AF2BE168EF29E76EC01F0C1
:103ED00016BEF28E166AF2BE168EF29E010E010119
:103EE000356F040E366F000103EC01F016BEF28E42
:103EF000E80EF66E070EF76E166AF2BE168EF29E8A
:103F000076EC01F016BEF28E020E0101006F166A09
:103F1000F2BE168EF29EFA0E356F00015BEC00F0D9
:103F200016BEF28E0101002FF2D70B0E1B6E166A21
:103F3000F2BE168EF29E0C0E346F000140EC01F0C2
:103F400016BEF28E1B500B081DE21B500D081AE323
:103F5000010E1B5C0101006F166AF2BE168EF29E06
:103F6000356F040E366F000103EC01F016BEF28EC1
:103F7000166AF2BE168EF29E35C034F140EC01F0A6
:103F800016BEF28E010118503308D8A46FD2166AFB
:103F9000F2BE168EF29E010E356F366F000103ECF5
:103FA00001F016BEF28EFE0EF66E070EF76E166A62
:103FB000F2BE168EF29E76EC01F016BEF28E166AF6
:103FC000F2BE168EF29E010E0101356F020E366FA3
:103FD000000103EC01F016BEF28E140EF66E080E10
:103FE000F76E166AF2BE168EF29E76EC01F016BEE1
:103FF000F28E166AF2BE168EF29E010E0101356F28
:10400000030E366F000103EC01F016BEF28E2A0E8D
:10401000F66E080EF76E0A0E0101086F0001BFEC84
:1040200007F037C000F11F0E0101016F0001F0EC35
:1040300007F038C000F11F0E0101016F0001F0EC24
:1040400007F039C000F11F0E0101016F0001F0EC13
:1040500007F03AC000F11F0E0101016F0001F0EC02
:1040600007F0166AF2BE168EF29E200E0101346F22
:10407000000140EC01F016BEF28E166AF2BE168EFA
:10408000F29E200E0101346F000140EC01F016BEDB
:10409000F28E938681A619D031B816D00B0E1B5C18
:1040A000036A370FE96E000E0320EA6EEF2A3188AB
:1040B000166AF2BE168EF29E1E0E0101356F0001C9
:1040C0005BEC00F016BEF28E01D03198938481A48F
:1040D00019D031BC16D00B0E1B5C036A370FE96E8A
:1040E000000E0320EA6EEF06318C166AF2BE168EC1
:1040F000F29E1E0E0101356F00015BEC00F016BE52
:10410000F28E01D0319C938081A01DD031BA1AD09B
:10411000318A1B2A166AF2BE168EF29E1E0E01010D
:10412000356F00015BEC00F016BEF28E166AF2BE2F
:10413000168EF29E0C0E0101346F000140EC01F06E
:1041400016BEF28E01D0319A938281A21DD031BE6B
:104150001AD0318E1B06166AF2BE168EF29E1E0E05
:104160000101356F00015BEC00F016BEF28E166A9D
:10417000F2BE168EF29E0C0E0101346F000140EC6F
:1041800001F016BEF28E01D0319E0B0E1B5C036A4D
:10419000370FE96E000E0320EA6EEFBE01D00AD0A1
:1041A0000B0E1B5C036A370FE96E000E0320EA6EEC
:1041B000090EEF6E0B0E1B5C036A370FE96E000EE3
:1041C0000320EA6EEFBE0CD0EF50090809E20B0E97
:1041D0001B5C036A370FE96E000E0320EA6EEF6A7C
:1041E0001B500A0804E3050E186E0B0E1B6E166AB0
:1041F000F2BE168EF29E1BC035F1040E0101366F21
:10420000000103EC01F016BEF28E166AF2BE168EA5
:10421000F29E36C034F140EC01F016BEF28E1B5017
:104220000E08D8B002D1166AF2BE168EF29E010EAA
:104230000101356F366F000103EC01F016BEF28EFE
:10424000400EF66E080EF76E166AF2BE168EF29EDD
:1042500076EC01F016BEF28E166AF2BE168EF29E53
:10426000010E0101356F020E366F000103EC01F003
:1042700016BEF28E560EF66E080EF76E166AF2BE77
:10428000168EF29E76EC01F016BEF28E166AF2BE23
:10429000168EF29E010E0101356F030E366F00017E
:1042A00003EC01F016BEF28E6C0EF66E080EF76E81
:1042B000166AF2BE168EF29E76EC01F016BEF28EF3
:1042C000166AF2BE168EF29E010E0101356F040EC3
:1042D000366F000103EC01F016BEF28E820EF66E10
:1042E000080EF76E166AF2BE168EF29E76EC01F09C
:1042F00016BEF28EA96A37C0A8FFA69CA69EA68409
:10430000F250006EF29E0F01550EA76EAA0EA76E18
:10431000A682A6B2FED7A6940050F212166AF2BE8A
:10432000168EF29E140E0101356F00015BEC00F059
:1043300016BEF28E010EA96E38C0A8FFA69CA69EDE
:10434000A684F250006EF29E0F01550EA76EAA0EC3
:10435000A76EA682A6B2FED7A6940050F212166AE5
:10436000F2BE168EF29E140E0101356F00015BEC59
:1043700000F016BEF28E020EA96E39C0A8FFA69CF0
:10438000A69EA684F250006EF29E0F01550EA76EF7
:10439000AA0EA76EA682A6B2FED7A6940050F2126D
:1043A000166AF2BE168EF29E140E0101356F0001E0
:1043B0005BEC00F016BEF28E030EA96E3AC0A8FFA9
:1043C000A69CA69EA684F250006EF29E0F01550E8A
:1043D000A76EAA0EA76EA682A6B2FED7A69400501C
:1043E000F212166AF2BE168EF29E140E0101356F9D
:1043F00000015BEC00F016BEF28E020E0101006FB0
:10440000166AF2BE168EF29EFA0E356F00015BEC54
:1044100000F016BEF28E0101002FF2D7010E186EC9
:10442000336A020E1C6E1E6E00011B500B081DE24B
:104430001B500D081AE3010E1B5C0101006F166A88
:10444000F2BE168EF29E356F040E366F000103EC3D
:1044500001F016BEF28E166AF2BE168EF29E35C0BE
:1044600034F140EC01F016BEF28E0101185005083F
:10447000D8A4F7D0166AF2BE168EF29E010E356FE2
:10448000020E366F000103EC01F016BEF28E980E9C
:10449000F66E080EF76E166AF2BE168EF29E76EC77
:1044A00001F016BEF28E166AF2BE168EF29E010E54
:1044B0000101356F030E366F000103EC01F016BEEB
:1044C000F28EAE0EF66E080EF76E070E0101086F43
:1044D0000001BFEC07F02BC000F1010E0101016FDC
:1044E0000001F0EC07F0166AF2BE168EF29E200E66
:1044F0000101346F000140EC01F016BEF28E166A25
:10450000F2BE168EF29E200E0101346F000140ECC7
:1045100001F016BEF28E166AF2BE168EF29E200EC4
:104520000101346F000140EC01F016BEF28E2B50F9
:104530000C0802E20C0E2B6E2B5202E1010E2B6EC8
:10454000938681A612D031B80FD0010E2B26318868
:10455000166AF2BE168EF29E1E0E0101356F000124
:104560005BEC00F016BEF28E01D03198938481A4EA
:1045700012D031BC0FD0010E2B5E318C166AF2BE08
:10458000168EF29E1E0E0101356F00015BEC00F0ED
:1045900016BEF28E01D0319C938081A039D031BA01
:1045A00036D0010E186E336A020E1C6E1E6E0B0E94
:1045B0001B6E166AF2BE168EF29E1E0E0101356F3C
:1045C00000015BEC00F016BEF28E166AF2BE168E8B
:1045D000F29E0C0E0101346F000140EC01F016BE9A
:1045E000F28E2A0EA96E2BC0A8FFA69CA69EA684BA
:1045F000F250006EF29E0F01550EA76EAA0EA76E26
:10460000A682A6B2FED7A6940050F212000101D0F5
:10461000319A938281A223D031BE20D0010E186E30
:10462000336A020E1C6E1E6E0B0E1B6E166AF2BEF5
:10463000168EF29E1E0E0101356F00015BEC00F03C
:1046400016BEF28E166AF2BE168EF29E0C0E010196
:10465000346F000140EC01F016BEF28E01D0319EA5
:10466000010118500608D8A437D2166AF2BE168E79
:10467000F29E010E356F366F000103EC01F016BE9D
:10468000F28EBE0EF66E080EF76E166AF2BE168E2B
:10469000F29E76EC01F016BEF28E166AF2BE168E0F
:1046A000F29E010E0101356F020E366F000103EC20
:1046B00001F016BEF28ED40EF66E080EF76E080EDE
:1046C0000101086F0001BFEC07F0010EE96E8BC01D
:1046D0000BF18AC00AF189C009F188C008F1010113
:1046E0000C6F000144EC0AF0E10EF66E080EF76E56
:1046F000080E0101086F0001BFEC07F0166AF2BE58
:10470000168EF29E010E0101356F030E366F000109
:1047100003EC01F016BEF28E0101046B00018EEC79
:104720000BF000C000F101C001F102C002F103C0B2
:1047300003F1166AF2BE168EF29E5A0E0101346F14
:10474000000140EC01F016BEF28E166AF2BE168E23
:10475000F29E460E0101346F000140EC01F016BEDE
:10476000F28E166AF2BE168EF29E3D0E0101346F75
:10477000000140EC01F016BEF28E010EE96E4AC057
:104780000BF149C00AF148C009F147C008F1010125
:104790000C6B000144EC0AF0F20EF66E080EF76E98
:1047A000050E0101086F0001BFEC07F0010EE96E74
:1047B00003C10BF102C10AF101C109F100C108F105
:1047C00001010C6B000144EC0AF0166AF2BE168E71
:1047D000F29E010E0101356F040E366F000103ECED
:1047E00001F016BEF28EFE0EF66E080EF76E0C0E7F
:1047F0000101086F0001BFEC07F0010EE96EBBC0BC
:104800000BF1BAC00AF1B9C009F1B8C008F1010151
:104810000C6B000144EC0AF0938081A034D131BAD2
:1048200031D1010E186E336A020E1C6E1E6E0B0E15
:104830001B6E166AF2BE168EF29E1E0E0101356FB9
:1048400000015BEC00F016BEF28E166AF2BE168E08
:10485000F29E0C0E0101346F000140EC01F016BE17
:10486000F28E0101046B00018EEC0BF0EACF01F136
:10487000E9CF00F1D8824AC021F149C020F148C0F7
:104880001FF147C01EF103C025F102C024F101C091
:1048900023F100C022F183EC06F001C1EAFF00C160
:1048A000E9FF03C0BBF002C0BAF001C0B9F000C01C
:1048B000B8F001011D6B1C6B1B6B1A6BBBC021F1A7
:1048C000BAC020F1B9C01FF1B8C01EF1000135EC2B
:1048D0000BF001E217E10A0E2C6E320EA96E2CC00D
:1048E000A8FFA69CA69EA684F250006EF29E0F0121
:1048F000550EA76EAA0EA76EA682A6B2FED7A694E4
:104900000050F212BBC01DF1BAC01CF1B9C01BF1BE
:10491000B8C01AF10101216B206B1F6B1E6B0001E7
:1049200035EC0BF018E3140E2C6E320EA96E2CC071
:10493000A8FFA69CA69EA684F250006EF29E0F01D0
:10494000550EA76EAA0EA76EA682A6B2FED7A69493
:104950000050F2120001B8C000F0B9C001F0BAC0B6
:1049600002F0BBC003F0019EBBC0BBF0BAC0BAF0FE
:1049700001C0B9F0B8C0B8F0BBC0B3F0BAC0B2F073
:10498000B9C0B1F0B8C0B0F0B3C0FFF0B2C0FEF033
:10499000B1C0FDF0B0C0FCF072EC0BF001C025F02E
:1049A00001010A6B25C009F10001B9EC05F0D882BC
:1049B000B3C021F1B2C020F1B1C01FF1B0C01EF1EF
:1049C00003C025F102C024F101C023F100C022F18F
:1049D00083EC06F003C0B3F002C0B2F001C0B1F046
:1049E00000C0B0F0B3C01DF1B2C01CF1B1C01BF1EA
:1049F000B0C01AF10101216B206B480E1F6F850EAC
:104A00001E6F000167EC09F003C0B7F002C0B6F0FA
:104A100001C0B5F000C0B4F0B7C0FFF0B6C0FEF002
:104A2000B5C0FDF0B4C0FCF072EC0BF001C026F094
:104A30003C0EA96E25C0A8FFA69CA69EA684F25097
:104A4000006EF29E0F01550EA76EAA0EA76EA682EB
:104A5000A6B2FED7A6940050F2123D0EA96E26C053
:104A6000A8FFA69CA69EA684F250006EF29E550E4C
:104A7000A76EAA0EA76EA682A6B2FED7A694005075
:104A8000F212000101D0319A938281A223D031BE6B
:104A900020D0010E186E336A020E1C6E1E6E0B0EB5
:104AA0001B6E166AF2BE168EF29E1E0E0101356F47
:104AB00000015BEC00F016BEF28E166AF2BE168E96
:104AC000F29E0C0E0101346F000140EC01F016BEA5
:104AD000F28E01D0319E010118500708D8A4FAD2F5
:104AE000166AF2BE168EF29E010E356F366F000109
:104AF00003EC01F016BEF28E0101046B00018EEC96
:104B00000BF000C000F101C001F102C002F103C0CE
:104B100003F1100EF66E090EF76E0A0E0101086F12
:104B20000001BFEC07F0010EE96E03C10BF102C1F9
:104B30000AF101C109F100C108F101010C6B00018A
:104B400044EC0AF0166AF2BE168EF29E200E0101A7
:104B5000346F000140EC01F016BEF28E166AF2BE10
:104B6000168EF29E200E0101346F000140EC01F020
:104B700016BEF28E166AF2BE168EF29E010E01016C
:104B8000356F020E366F000103EC01F016BEF28E97
:104B900001010A6B2AC009F10001B9EC05F000C05F
:104BA00000F101C001F102C002F103C003F103C032
:104BB00021F102C020F101C01FF100C01EF101016E
:104BC000256B246B7F0E236F860E226F0001D4ECC1
:104BD00005F001011D6B1C6B480E1B6F850E1A6FD3
:104BE00003C021F102C020F101C01FF100C01EF17D
:104BF000000167EC09F000C000F101C001F102C042
:104C000002F103C003F1010E0101046F00018EECFB
:104C10000BF000C004F101C005F102C006F103C0B1
:104C200007F1220EF66E090EF76E050E0101086FF0
:104C30000001BFEC07F0010EE96E03C10BF102C1E8
:104C40000AF101C109F100C108F101010C6B000179
:104C500044EC0AF0166AF2BE168EF29E250E010191
:104C6000346F000140EC01F016BEF28E2E0EF66E8F
:104C7000090EF76E040E0101086F0001BFEC07F08A
:104C8000010EE96E07C10BF106C10AF105C109F178
:104C900004C108F101010C6B000144EC0AF0166A32
:104CA000F2BE168EF29E010E0101356F030E366FB5
:104CB000000103EC01F016BEF28E020E0101046F3A
:104CC00000018EEC0BF000C000F101C001F102C048
:104CD00002F103C003F103C021F102C020F101C0C1
:104CE0001FF100C01EF10101256BC00E246F7F0E65
:104CF000236F880E226F0001D4EC05F001011D6BBB
:104D00001C6B480E1B6F850E1A6F03C021F102C089
:104D100020F101C01FF100C01EF1000167EC09F095
:104D200000C000F101C001F102C002F103C003F1B3
:104D3000380EF66E090EF76E040E0101086F0001C1
:104D4000BFEC07F0010EE96E8BC00BF18AC00AF1CF
:104D500089C009F188C008F101010C6F000144EC21
:104D60000AF0410EF66E090EF76E0A0E0101086F89
:104D70000001BFEC07F0010EE96E03C10BF102C1A7
:104D80000AF101C109F100C108F101010C6B000138
:104D900044EC0AF0166AF2BE168EF29E010E010174
:104DA000356F040E366F000103EC01F016BEF28E73
:104DB000520EF66E090EF76E090E0101086F000122
:104DC000BFEC07F0890EE96EBFC00BF1BEC00AF15F
:104DD000BDC009F1BCC008F1020E01010C6F000159
:104DE00044EC0AF0166AF2BE168EF29E200E010105
:104DF000346F000140EC01F016BEF28E938681A65E
:104E000042D0D892BFC021F1BEC020F1BDC01FF179
:104E1000BCC01EF10A0E0101256FD70E246F230EB0
:104E2000236F780E226F000183EC06F003C0BFF001
:104E300002C0BEF001C0BDF000C0BCF0166AF2BEF8
:104E4000168EF29E320E0101356F00015BEC00F010
:104E500016BEF28E01011D6B1C6B700E1B6F830E54
:104E60001A6FBFC021F1BEC020F1BDC01FF1BCC090
:104E70001EF1000135EC0BF006E3BF6BBE6B700E4C
:104E8000BD6F830EBC6F938481A43ED0D882BFC017
:104E900021F1BEC020F1BDC01FF1BCC01EF10A0E41
:104EA0000101256FD70E246F230E236F780E226F1A
:104EB000000183EC06F003C0BFF002C0BEF001C0E9
:104EC000BDF000C0BCF0166AF2BE168EF29E320E25
:104ED0000101356F00015BEC00F016BEF28EBFC021
:104EE0001DF1BEC01CF1BDC01BF1BCC01AF1010117
:104EF000216B206B1F6B1E6B000135EC0BF004E384
:104F0000BF6BBE6BBD6BBC6B938081A0BAD031BA56
:104F1000B7D0010E186E336A020E1C6E1E6E0B0E99
:104F20001B6E166AF2BE168EF29E1E0E0101356FC2
:104F300000015BEC00F016BEF28E166AF2BE168E11
:104F4000F29E0C0E0101346F000140EC01F016BE20
:104F5000F28EBFC0A7F0BEC0A6F0BDC0A5F0BCC019
:104F6000A4F0BFC0FFF0BEC0FEF0BDC0FDF0BCC0ED
:104F7000FCF072EC0BF001C022F001010A6B22C0C0
:104F800009F10001B9EC05F0D882A7C021F1A6C053
:104F900020F1A5C01FF1A4C01EF103C025F102C07D
:104FA00024F101C023F100C022F183EC06F003C01C
:104FB000A7F002C0A6F001C0A5F000C0A4F0A7C0F1
:104FC0001DF1A6C01CF1A5C01BF1A4C01AF101017E
:104FD000216B206B480E1F6F850E1E6F000167EC62
:104FE00009F003C0ABF002C0AAF001C0A9F000C0F4
:104FF000A8F0ABC0FFF0AAC0FEF0A9C0FDF0A8C0A9
:10500000FCF072EC0BF001C023F0190EA96E22C067
:10501000A8FFA69CA69EA684F250006EF29E0F01E9
:10502000550EA76EAA0EA76EA682A6B2FED7A694AC
:105030000050F2121A0EA96E23C0A8FFA69CA69ECD
:10504000A684F250006EF29E550EA76EAA0EA76EB1
:10505000A682A6B2FED7A6940050F212040E010159
:10506000006F166AF2BE168EF29EFA0E356F0001C0
:105070005BEC00F016BEF28E0101002FF2D70001AA
:1050800001D0319A938281A223D031BE20D0010E6B
:10509000186E336A020E1C6E1E6E0B0E1B6E166AA5
:1050A000F2BE168EF29E1E0E0101356F00015BEC02
:1050B00000F016BEF28E166AF2BE168EF29E0C0E2E
:1050C0000101346F000140EC01F016BEF28E01D0F8
:1050D000319E010118500808D8A45DEF2CF0166A23
:1050E000F2BE168EF29E010E356F366F000103EC94
:1050F00001F016BEF28E01010A6B2AC009F100010F
:10510000B9EC05F000C000F101C001F102C002F1EC
:1051100003C003F103C021F102C020F101C01FF15F
:1051200000C01EF10101256B246B7F0E236F860EDC
:10513000226F0001D4EC05F001011D6B1C6B480EC1
:105140001B6F850E1A6F03C021F102C020F101C050
:105150001FF100C01EF1000167EC09F000C000F172
:1051600001C001F102C002F103C003F1620EF66E4C
:10517000090EF76E0D0E0101086F0001BFEC07F07C
:10518000010EE96E03C10BF102C10AF101C109F17F
:1051900000C108F101010C6B000144EC0AF0166A31
:1051A000F2BE168EF29E250E0101346F000140EC16
:1051B00001F016BEF28E166AF2BE168EF29E200E18
:1051C0000101346F000140EC01F016BEF28E166A48
:1051D000F2BE168EF29E010E0101356F040E366F7F
:1051E000000103EC01F016BEF28E020E0101046F05
:1051F00000018EEC0BF000C000F101C001F102C013
:1052000002F103C003F103C021F102C020F101C08B
:105210001FF100C01EF10101256BC00E246F7F0E2F
:10522000236F880E226F0001D4EC05F001011D6B85
:105230001C6B480E1B6F850E1A6F03C021F102C054
:1052400020F101C01FF100C01EF1000167EC09F060
:1052500000C000F101C001F102C002F103C003F17E
:10526000780EF66E090EF76E040E0101086F00014C
:10527000BFEC07F0010EE96E8BC00BF18AC00AF19A
:1052800089C009F188C008F101010C6F000144ECEC
:105290000AF0810EF66E090EF76E0A0E0101086F14
:1052A0000001BFEC07F0010EE96E03C10BF102C172
:1052B0000AF101C109F100C108F101010C6B000103
:1052C00044EC0AF04BB003D14BB201D14BB4FFD048
:1052D000938681A645D0020E0101006F166AF2BEC8
:1052E000168EF29EFA0E356F00015BEC00F016BED2
:1052F000F28E0101002FF2D7938681A630D0166A74
:10530000F2BE168EF29E010E356F020E366F000150
:1053100003EC01F016BEF28E920EF66E090EF76ED9
:10532000166AF2BE168EF29E76EC01F016BEF28E72
:105330004B804B924B940A0E2D6E2F6E040E010182
:10534000006F166AF2BE168EF29EFA0E356F0001DD
:105350005BEC00F016BEF28E0101002FF2D70001C7
:10536000938481A445D0020E0101006F166AF2BE3B
:10537000168EF29EFA0E356F00015BEC00F016BE41
:10538000F28E0101002FF2D7938481A430D0166AE7
:10539000F2BE168EF29E010E356F020E366F0001C0
:1053A00003EC01F016BEF28EA40EF66E090EF76E37
:1053B000166AF2BE168EF29E76EC01F016BEF28EE2
:1053C0004B824B904B940A0E2E6E2F6E040E0101F1
:1053D000006F166AF2BE168EF29EFA0E356F00014D
:1053E0005BEC00F016BEF28E0101002FF2D7000137
:1053F000938081A045D0020E0101006F166AF2BEB3
:10540000168EF29EFA0E356F00015BEC00F016BEB0
:10541000F28E0101002FF2D7938081A030D0166A5E
:10542000F2BE168EF29E010E356F020E366F00012F
:1054300003EC01F016BEF28EB40EF66E090EF76E96
:10544000166AF2BE168EF29E76EC01F016BEF28E51
:105450004B844B904B920A0E2D6E2E6E040E010162
:10546000006F166AF2BE168EF29EFA0E356F0001BC
:105470005BEC00F016BEF28E0101002FF2D70001A6
:10548000938281A224D0010E186E336A020E1C6E24
:105490001E6E0B0E1B6E020E0101006F166AF2BE2D
:1054A000168EF29EFA0E356F00015BEC00F016BE10
:1054B000F28E0101002FF2D7166AF2BE168EF29E0E
:1054C0000C0E346F000140EC01F016BEF28E4BB0B2
:1054D00004D02E501408D8A4B6D04B924B940A0E88
:1054E0002D6E2F6E166AF2BE168EF29E010E01010F
:1054F000356F020E366F000103EC01F016BEF28E1E
:10550000C40EF66E090EF76E166AF2BE168EF29E85
:1055100076EC01F016BEF28E166AF2BE168EF29E80
:10552000010E0101356F030E366F000103EC01F02F
:1055300016BEF28ED60EF66E090EF76E166AF2BE23
:10554000168EF29E76EC01F016BEF28E938281A248
:105550007AD04B90140E2E6E0A0E2D6E2F6E020E08
:105560000101006F166AF2BE168EF29EFA0E356FBA
:1055700000015BEC00F016BEF28E0101002FF2D7A5
:10558000166AF2BE168EF29E0C0E346F000140ECCD
:1055900001F016BEF28EFB0EFC6FC0EC0BF0FB0EA2
:1055A0002A6E0A0EA96E2EC0A8FFA69CA69EA684EF
:1055B000F250006EF29E0F01550EA76EAA0EA76E56
:1055C000A682A6B2FED7A6940050F2120C0EA96EC7
:1055D0002FC0A8FFA69CA69EA684F250006EF29E45
:1055E000550EA76EAA0EA76EA682A6B2FED7A694E7
:1055F0000050F2120B0EA96E2DC0A8FFA69CA69E0D
:10560000A684F250006EF29E550EA76EAA0EA76EEB
:10561000A682A6B2FED7A6940050F2120D0EA96E75
:105620002AC0A8FFA69CA69EA684F250006EF29EF9
:10563000550EA76EAA0EA76EA682A6B2FED7A69496
:105640000050F21200014BB204D02D501408D8A41F
:1056500088D04B904B940A0E2F6E2E6E166AF2BEB7
:10566000168EF29E010E0101356F020E366F00019B
:1056700003EC01F016BEF28EEC0EF66E090EF76E1C
:10568000166AF2BE168EF29E76EC01F016BEF28E0F
:10569000166AF2BE168EF29E010E0101356F030EE0
:1056A000366F000103EC01F016BEF28EFC0EF66EB2
:1056B000090EF76E166AF2BE168EF29E76EC01F0B7
:1056C00016BEF28E938281A24CD04B92140E2D6E98
:1056D0000A0E2F6E2E6E020E0101006F166AF2BEC8
:1056E000168EF29EFA0E356F00015BEC00F016BECE
:1056F000F28E0101002FF2D7166AF2BE168EF29ECC
:105700000C0E346F000140EC01F016BEF28E0B0E51
:10571000A96E2DC0A8FFA69CA69EA684F250006E7E
:10572000F29E0F01550EA76EAA0EA76EA682A6B214
:10573000FED7A6940050F2120C0EA96E2FC0A8FF3F
:10574000A69CA69EA684F250006EF29E550EA76EF1
:10575000AA0EA76EA682A6B2FED7A6940050F21299
:1057600000014BB404D02F501408D8A4A5D04B90FE
:105770004B920A0E2D6E2E6E166AF2BE168EF29E99
:10578000010E0101356F020E366F000103EC01F0CE
:1057900016BEF28E120EF66E0A0EF76E166AF2BE84
:1057A000168EF29E76EC01F016BEF28E938681A6DE
:1057B00001D02A2A938481A401D02A062AC030F07D
:1057C0002AC0FCF0C0EC0BF0938281A275D00D0EC4
:1057D000A96E2AC0A8FFA69CA69EA684F250006EC1
:1057E000F29E0F01550EA76EAA0EA76EA682A6B254
:1057F000FED7A6940050F2124B94140E2F6E0A0E90
:105800002D6E2E6E020E0101006F166AF2BE168E0C
:10581000F29EFA0E356F00015BEC00F016BEF28EC0
:105820000101002FF2D7166AF2BE168EF29E0C0E00
:10583000346F000140EC01F016BEF28E0C0EA96E22
:105840002FC0A8FFA69CA69EA684F250006EF29ED2
:105850000F01550EA76EAA0EA76EA682A6B2FED79E
:10586000A6940050F2120B0EA96E2DC0A8FFA69CA4
:10587000A69EA684F250006EF29E550EA76EAA0E4A
:10588000A76EA682A6B2FED7A6940050F2120A0E08
:10589000A96E2EC0A8FFA69CA69EA684F250006EFC
:1058A000F29E550EA76EAA0EA76EA682A6B2FED7CE
:1058B000A6940050F2120001010118501408D8A457
:1058C00042D232AAB9D0166AF2BE168EF29E010EEC
:1058D000356F366F000103EC01F016BEF28E220E1A
:1058E000F66E0A0EF76E166AF2BE168EF29E76EC11
:1058F00001F016BEF28E166AF2BE168EF29E010EF0
:105900000101356F020E366F000103EC01F016BE87
:10591000F28E01010A6B2AC009F10001B9EC05F011
:1059200000C000F101C001F102C002F103C003F1A7
:1059300003C021F102C020F101C01FF100C01EF11F
:105940000101256B246B7F0E236F860E226F0001F1
:10595000D4EC05F001011D6B1C6B480E1B6F850E0E
:105960001A6F03C021F102C020F101C01FF100C075
:105970001EF1000167EC09F000C000F101C001F167
:1059800002C002F103C003F1300EF66E0A0EF76E8C
:10599000050E0101086F0001BFEC07F0010EE96E72
:1059A00003C10BF102C10AF101C109F100C108F103
:1059B00001010C6B000144EC0AF0166AF2BE168E6F
:1059C000F29E250E0101346F000140EC01F016BE7D
:1059D000F28E166AF2BE168EF29E010E0101356F2E
:1059E000030E366F000103EC01F016BEF28E3E0E80
:1059F000F66E0A0EF76E080E0101086F0001BFEC8B
:105A000007F0010EE96E8BC00BF18AC00AF189C064
:105A100009F188C008F101010C6F000144EC0AF0A3
:105A20004B0EF66E0A0EF76E070E0101086F0001AD
:105A3000BFEC07F0329A010132BE1CD0328C166ADC
:105A4000F2BE168EF29E0B0E356F020E366F0001FF
:105A500003EC01F016BEF28E540EF66E0A0EF76ECF
:105A6000166AF2BE168EF29E76EC01F016BEF28E2B
:105A700075D00101329C8BC01DF18AC01CF189C018
:105A80001BF188C01AF1216B206B1F6B7E0E1E6FFD
:105A9000000135EC0BF01BE3166AF2BE168EF29E87
:105AA0000B0E0101356F020E366F000103EC01F0A1
:105AB00016BEF28E600EF66E0A0EF76E166AF2BE13
:105AC000168EF29E76EC01F016BEF28E47D00101E2
:105AD0001D6B1C6B1B6B800E1A6F8BC021F18AC073
