:040000008FEF12F07C
:08000800046ED8CF05F0E0CF33
:1000100006F00001E9CF0CF0EACF07F0E1CF08F0DD
:10002000E2CF09F0D9CF0AF0DACF0BF0F3CF12F01C
:10003000F4CF13F0FACF14F000C00EF001C00FF0AF
:1000400002C010F003C011F09DA02AEF00F09EB096
:100050005AEF00F00EC000F00FC001F010C002F027
:1000600011C003F00CC0E9FF07C0EAFF078E08C00B
:10007000E1FF09C0E2FF0AC0D9FF0BC0DAFF12C0DE
:10008000F3FF13C0F4FF14C0FAFF045006C0E0FFF2
:1000900005C0D8FF1000F2CF0DF0F29EF76AB00F46
:1000A000F66E000EF7220900F5500DBEF28E12001A
:1000B000280C0106150ECF6EA00ECE6E592AD8B4AC
:1000C0005A2A5D2AD8B45E2A5C500A0806E2FF0A62
:1000D00003E15B50B70801E23F823FA003D05B2AF7
:1000E000D8B45C2A5D50140805E15E5203E15E6AF3
:1000F0005D6A3F8C5950C80836E15A5234E15A6A59
:10010000596A362A3F8A3EA20CD03FA40AD0335007
:100110003C0802E1336A342A34503C0802E1346A74
:10012000352A58A813D0375202E037060FD0225292
:1001300004E022063B0E376E09D058988A8A939ABB
:10014000140E176E8A8893983E823E8058AA0BD070
:10015000395202E0390607D03B5204E03B063B0E21
:10016000396E01D0FF009E902AEF00F0416C617261
:100170006D61202020202020202020204F46460096
:10018000416C61726D6120202020202020202020E1
:10019000204F4E0046696C74726F20202020202072
:1001A0002020202020202000536574706F696E7419
:1001B00020202020202020202020200043616D626C
:1001C000696F20436F6E7472617365F16120200066
:1001D0004D65646961204D6F76696C202020202078
:1001E0002020200050756E746F204365726F2020B0
:1001F00020202020202020004D616E74656E696DE6
:1002000069656E746F202020202020004D6F646F80
:1002100020202020202020202020202020202000FE
:100220005469656D706F2064652050757267612038
:10023000202020005469656D706F20506F73742DFD
:10024000507572676120200020434142494E412091
:1002500020455854524143544F5241200000202021
:1002600044452048554D4F5320592047415345534D
:1002700020200000202020204A5020494E474C4F8B
:1002800042414C20202020200000205245463A20A8
:1002900050414E454C204A504345483135200000DE
:1002A0002020202020496E67726573652020202061
:1002B00020202020000020202020436F6E747261D7
:1002C0007365F161202020202020000020202020C4
:1002D000434C4156453D25692569256925692020FE
:1002E000000020202020202020202020202020204E
:1002F0002020202020002020202020436F6E7472B8
:10030000617365F161202020200020202020202022
:10031000436F7272656374612020202020002020CA
:1003200020202020202020202020202020202020CD
:1003300020002020202020436F6E7472617365F1CD
:100340006120202020002020202020496E636F7231
:10035000726563746120202020002020202020204E
:1003600020202020202020202020202020002D2D93
:100370002D4D454E55205052494E434950414C2D2C
:100380002D2D000020202020202020202020202093
:10039000202020202020202000002020202020209D
:1003A000202041637469766F2020202020200000E7
:1003B0002020202020202020416C61726D612020AF
:1003C000202020200000202020202020202020206D
:1003D000202020202020202020200000202020205D
:1003E000202020202020202020202020202020200D
:1003F000000020202020202044657361637469760A
:100400006F202020202000002020202020202041BC
:100410006C61726D612020202020202000002020AF
:1004200020202020202020202020202020202020CC
:100430002020000020204475726163696F6E2041A6
:10044000637475616C2020200000205469656D7014
:100450006F3D20253032753A253032753A253032DD
:1004600075200000444553414354495641523D20B4
:100470004F7072696D61203E00002041435449561F
:1004800041523D204F7072696D61203E2020000076
:100490002052455345543D204F7072696D61205E76
:1004A00020202020000020526573657420646520A0
:1004B0007469656D706F20002020202020457869C8
:1004C000746F736F20202020200020202020202007
:1004D000536574706F696E74202020202020000006
:1004E0002020202020202025322E326620202000AF
:1004F000202020202020496E67726573652020200F
:1005000020202020000020436F6E7472617365F11B
:10051000612041637475616C202000002020202040
:10052000434C4156453D25692569256925692020AB
:1005300000002020202020202020202020202020FB
:1005400020202020202000002020202020436F6E2B
:100550007472617365F1612020202020000020204A
:1005600020202020436F7272656374612020202058
:1005700020200000202020202020202020202020BB
:1005800020202020202020200000202020202020AB
:10059000202020202020202020202020202000009B
:1005A0002020202020436F6E7472617365F16120FA
:1005B0002020202000002020202020496E636F7220
:1005C00072656374612020202020000020202020FC
:1005D000202020202020202020202020202020201B
:1005E00000002020202020496E677265736520205E
:1005F00020202020202000002020436F6E74726194
:100600007365F161204E7565766120200000202021
:100610002020434C4156453D2569256925692569BA
:10062000202000002020202020202020202020200A
:1006300020202020202020200000202020202043D7
:100640006F6E7472617365F16120202020200000BC
:100650002020202020416C6D6163656E6164612003
:1006600020202020000020202020202020202020CA
:1006700020202020202020202020000020202020BA
:10068000204D65646961204D6F76696C20202020C3
:10069000000020202020202020253032692020202A
:1006A000000020205A65726F20506F696E742043DD
:1006B0006F6E666967200000496E466C6F773D205B
:1006C00025322E31662020286D2F732920005A46AE
:1006D0003D25322E3066204144433D25322E306682
:1006E0000000204469666572656E6369613D25326C
:1006F0002E306600204D414E542E2020563D25328E
:100700002E306620200044616D703D25322E30660B
:1007100025252020543D25322E30662000004946F4
:100720003D2025322E3166286D2F73292044616DBE
:100730003D25322E30660000416A75737465313D87
:100740002025322E32662000204D4F444F2020209D
:1007500044616D703D25322E3066252520004946C6
:100760003D2025322E3166286D2F73292044616D7E
:100770003D25322E306600002020204D6F646F2012
:100780004D616E75616C202000002020204D6F644B
:100790006F204175746F202020002020204D6F6451
:1007A0006F2053656D69202020002020204D6F644C
:1007B0006F204D616E75616C20200000202020208C
:1007C00053656C656363696F6E61646F20202020E0
:1007D00000002020204D6F646F204175746F202031
:1007E00020002020202053656C656363696F6E6173
:1007F000646F2020202000002020204D6F646F2097
:1008000053656D6920202000202020202054696538
:100810006D706F2020646520202020202000202083
:100820002020202020507572676120202020202069
:1008300020202000253032753A2530327520284D91
:100840003A53292020005469656D706F20416C6D0A
:100850006163656E61646F002020436F727265632F
:1008600074616D656E746520200020202020205466
:1008700069656D706F202064652020202020200095
:100880002020202020506F73742D507572676120D6
:10089000202020202000253032753A253032752066
:1008A000284D3A53292020005469656D706F20410E
:1008B0006C6D6163656E61646F002020436F7272BE
:1008C000656374616D656E7465202000204A502058
:1008D0004345474800004578743D20253033752551
:1008E0002500496E466C6F773D2025322E316620FB
:1008F000286D2F732920000046696C74726F3A438B
:10090000414D000046696C74726F3A4F4B200000F5
:1009100046696C74726F3A2D2D2D0000466C756A15
:100920006F3D42616A6F0000466C756A6F3D416CB5
:10093000746F0000466C756A6F3D4F4B20200000BD
:100940004C757A3A4F4E20004C757A3A4F46462005
:1009500000004D6F746F723A4F4E20004D6F746FF0
:10096000723A4F46462000002020202021506F730D
:10097000742D5075726761212020202000002020F6
:100980002020202020202020202020202020202067
:1009900020200000202020202020253032753A25FC
:1009A000303275202000202020202050726F636597
:1009B000736F202020202020000020202020466966
:1009C0006E616C697A61646F202020200000202015
:1009D0002044657365612061706167617220202029
:1009E0002020000020202020206C612063616269AB
:1009F0006E6120202020202000002020203E204169
:100A00006365707461722020202020202020000067
:100A10002020203C2043616E63656C6172202020A1
:100A2000202020200000202020202020215075722E
:100A3000676121202020202020200000202020206D
:100A400020202020202020202020202020202020A6
:100A50000000202020202020253032753A25303219
:100A6000752020200000010EEA6E240EE96EEF5082
:100A70000EE00F0E016E006A002EFED7012EFBD78E
:100A80008F0E006E002EFED70000EF2EF2D7000C66
:100A900001012539F00B006E0F0E83140010836ED8
:100AA000080E006E002EFED78384DB0E006E002E33
:100AB000FED700D083940001000C8390020E010148
:100AC000246F0001D0DF010122A1839022B1838035
:100AD000080E006E002EFED78392080E006E002EC8
:100AE000FED783942339246F0F0E241724C125F1D8
:100AF0000001CEDF010123510F0B246F256F000190
:100B0000C7DF000C000E956E8390839283940F0EC6
:100B10000101246F0001A7DF010E0101096F0951D6
:100B200003080CE3030E256F0001B2DF050E01017F
:100B3000246F000198DF0101092BF1D7020E256F08
:100B40000001A6DF0101096B0951030813E3036AE1
:100B50000951F2CF0AF1F29E00014BEC00F00101C5
:100B60000ABFF28E0A6F226B236F0001A6DF01011C
:100B7000092BEAD70001000C010E0101205DFC0FDA
:100B800015E2040F0001DFEF05F0800E0101216F77
:100B90000DD0C00E0101216F09D0940E0101216F0B
:100BA00005D0D40E0101216F01D00101010E1F5D9E
:100BB0002127226B21C123F100017FDF000CF2CF3E
:100BC0000DF0F29EE824F76AF736E30FF66E0B0E8F
:100BD000F7220A00F550FA6E0800F5500DBEF28EAD
:100BE000F96E8A0B920B9A0BA20B01011E51F108B0
:100BF00002E1EE0E1E6F1E510C0A000105E0060A0E
:100C000011E0020A18E01ED00101226B010E236FD1
:100C1000000153DF010E166E020E0101246F000168
:100C200022DF18D0162A010E01011F6F16C020F115
:100C30000001A2DF0FD00101226B100E236F000113
:100C40003CDF08D0010E0101226F1EC123F100011B
:100C500034DF00D0000C8E0E006E13C101F012C103
:100C600002F0036A015209E102C001F0026A080EB3
:100C7000005E015202E1006A08D0D89001BE04D0A3
:100C8000023601360006F9D7019E000C01012751FA
:100C9000D8B4A5D0336F2B51D8B4A1D0335F05E3BE
:100CA0007F0E3327D8B09BD006D0810E335FD8A0FB
:100CB00096D0D8B494D033C100F0016A026A036AB6
:100CC000326B28C131F1318F29C130F12AC12FF1A6
:100CD000190E336F2E512F5F0DE2010E305F0AE2C5
:100CE000315F08E2325F06E2322B312B302B2E517E
:100CF0002F2728D02D51305F12E2010E315F0FE215
:100D0000325F0DE2322B312B2D5130272E512F2700
:100D100019E3302B17E1312B15E1322B13D02C5175
:100D20008009315F0EE2010E325F0BE2322B2C5153
:100D3000800931272D513027E9E3312BE7E1322BB0
:100D4000E5D70380332F01D00BD0D8902F37303721
:100D500031373237D8900336023601363437BAD7B6
:100D600034A106D0D890013202320332343302D09B
:100D7000000635E034BF1ED0D8902F3730373137DA
:100D800032372E512F5F07E2010E305F04E2315FF0
:100D900002E2325F1AE32D51305F05E2010E315F4E
:100DA00002E2325F12E32C518009315F03E2010E4F
:100DB000325F0BE3032A09E1022A07E1012A05E178
:100DC000002A0DE001320232033228C133F12C51E6
:100DD000331B33AF02D0018E06D0019E04D0006ACF
:100DE000016A026A036A0001000C800ED8A202D0D8
:100DF00001012C1B0101316B326B28C130F12C51E8
:100E0000301B2751D8B4DFD02F6F006E2B51D8B4D0
:100E1000E3D02F5FD8B483D03EE32CC135F1358FBA
:100E20002DC134F12EC133F1326BD89035333433C8
:100E3000333332332F2FF8D730AF03D03181E0D0A6
:100E400031912F913189010EEA6E2A0EE96EEBD0B5
:100E5000319930BF0AD02FA113D035333433333317
:100E60003233002AD8B4C7D00BD035BF0CD0D890BD
:100E700032373337343735370006D8B4BCD0F5D7DE
:100E8000318D6DD0319D28C130F128AF02D0358F22
:100E9000ABD0359FA9D02BC12FF12BC100F027512A
:100EA0002F5F28C135F1358F29C134F12AC133F1C3
:100EB000326BD89035333433333332332F2FF8D766
:100EC00030AF03D031839CD031932F91318B010E01
:100ED000EA6E2E0EE96EA7D0319B30BF0AD02FA14B
:100EE00013D03533343333333233002AD8B483D07C
:100EF0000BD035BF0CD0D890323733373437353735
:100F00000006D8B478D0F5D7318F29D0319F2CC1C5
:100F100030F12CAF02D0358F67D0359F65D02CC112
:100F200035F1358F2DC134F12EC133F130AF04D0FE
:100F3000359F318565D03195326B2F91010EEA6E68
:100F40002A0EE96E70D030BF1CD028C130F12FA11D
:100F500006D03533343333333233002A4CE032AFEA
:100F60000BD0332B09E1342B07E1352B05E1353369
:100F700034333333002A3FE031BD84D731BFC6D785
:100F80001CD0800E351B35AF04D03AD02CC130F1C7
:100F90000AD028C130F1355306E1345304E133530C
:100FA00002E1006A21D035BF08D0D89032373337FC
:100FB00034373537002EF7D71ED030AF02D0358FFB
:100FC00013D0359F11D02BC100F02CC135F12DC1AC
:100FD00034F12EC133F108D027C100F028C135F11A
:100FE00029C134F12AC133F135C101F034C102F015
:100FF00033C103F034D0006A016A026A036A2FD059
:10100000326B331F341F351F321F322B05E1332B58
:1010100003E1342B01E1352B31B112D731B354D771
:1010200031B589D7B3D7EF50332705E3342B03E12C
:10103000352BD8B42F81ED52EF50342703E3352BF5
:10104000D8B42F81ED52EF50EFBE01D0800A352782
:10105000D8B02F8131B9FCD631BB3ED774D700014F
:10106000000C0101095303E18B92949202D08B8210
:1010700094920001000C0900F5520CE0F6CF0CF13F
:10108000F7CF0DF1F5CF1EF1B0DD0CC1F6FF0DC1AC
:10109000F7FFF1D7000C0900F6CF12F1F7CF13F1EB
:1010A000F5CF1EF1A2DD12C1F6FF13C1F7FF01015A
:1010B000112F01D002D00001EED70001000C010178
:1010C0001051016A0F5D03E20FC100F00CD0006AFD
:1010D000080E116F0F3700361051005CD8B0006E4B
:1010E0000136112FF7D70001000C200E01010AA9CB
:1010F000300E0B6F09C100F009AF07D0001E002AA7
:1011000000C009F12D0E0B6F0A8F015009C10FF1BC
:10111000640E106F0001D3DF00C009F1300E01240E
:1011200001010C6F09C10FF10A0E106F0001C7DF3A
:10113000300E002401010E6F300E01240D6F0BC123
:1011400000F00AA702D00AAF0A950AB90BD00AAF7D
:1011500022D00AB520D000C00CF10AB31CD000C0C8
:101160000DF119D0300E0C5D16E100C00CF1200E0F
:101170000B6F0AA704D00A950A830AAF0A93300EB0
:101180000D5D09E100C00DF1200E0C6F0AA7F7D725
:101190000A930AAF0A910AA505D00BC11EF10001FE
:1011A00024DD01010AA305D00CC11EF100011DDDE3
:1011B00001010AA104D00DC11EF1000116DD0EC10E
:1011C0001EF1000112DD000C01010A2D1CD03EB4FD
:1011D0000CD0020E1F6F0BC120F10001CDDC6C0E94
:1011E000F66E010EF76E47DF01013EA40CD0020E31
:1011F0001F6F0BC120F10001BFDC800EF66E010EE7
:10120000F76E39DF01010A5102080CE1020E1F6F6F
:101210000BC120F10001B0DC940EF66E010EF76EEA
:101220002ADF01010A5103080CE1020E1F6F0BC1F6
:1012300020F10001A1DCA80EF66E010EF76E1BDF97
:1012400001010A5104080CE1020E1F6F0BC120F1CD
:10125000000192DCBC0EF66E010EF76E0CDF010190
:101260000A5105080CE1020E1F6F0BC120F10001AD
:1012700083DCD00EF66E010EF76EFDDE01010A5121
:1012800006080CE1020E1F6F0BC120F1000174DC97
:10129000E40EF66E010EF76EEEDE01010A5107084C
:1012A0000CE1020E1F6F0BC120F1000165DCF80E8E
:1012B000F66E010EF76EDFDE01010A5108080CE13F
:1012C000020E1F6F0BC120F1000156DC0C0EF66EF2
:1012D000020EF76ED0DE01010A5109080CE1020E80
:1012E0001F6F0BC120F1000147DC200EF66E020ECD
:1012F000F76EC1DE01010A510A080CE1020E1F6FF0
:101300000BC120F1000138DC340EF66E020EF76ED0
:10131000B2DE01010001000C015009C10FF1640EA1
:101320000101106F0001CBDE00C009F10150300E49
:1013300008E101010AA30FD00AB70DD00AB9200EA7
:1013400004D001010A970A990A81012601C01EF101
:1013500000014BDC010109C10FF10A0E106F000101
:10136000AEDE00C009F10150300E08E101010AB7FC
:101370000AD00AA108D00AB9200E0001012601C036
:101380001EF133DC0101300E092709C11EF10001F5
:101390002CDC000C01012351D8B471D0006E275110
:1013A000D8B46DD0002604E3810E002668E204D094
:1013B0007F0E005E64E363E024C12BF128512B1BF8
:1013C000248F288F26512A03F4CF2DF1255129038C
:1013D000F4CF03F0F3CF2CF12A03F3502D27F45070
:1013E0002C23000E032226512903F3502D27F450FD
:1013F0002C23000E026A0322022224512A03F350F6
:101400002C27F4500322000E022224512903F3500A
:101410000326F4500222000E016A012226512803FD
:10142000F3502C27F4500322000E022201222551F2
:101430002803F3500326F4500222000E0122245107
:101440002803F3500226F4500122002A01BE05D0E1
:101450002C370336023601360006000E2CAF0AD0B8
:10146000032A02220122015005E1025003E1035048
:1014700001E1002A2BBF018E2BAF019E04D0006A30
:10148000016A026A036A0001000C01011E51B608DC
:101490001E6F036A1FC122F11F8FD8901F332033A4
:1014A000213303320232013200321E2FF6D722AF2F
:1014B0000BD0001E011E021E031E002AD8B4012AF2
:1014C000D8B4022AD8B4032A0001D2EF0AF0006A85
:1014D000016A026A036A0101266B276B286B296B7C
:1014E00025512411231122112CE0200E2A6FD890AF
:1014F0001E371F3720372137263727372837293718
:101500002551295D08E12451285D05E12351275D1E
:1015100002E12251265D0FE32251265F2351D8A01C
:10152000233D275F2451D8A0243D285F2551D8A012
:10153000253D295FD88000360136023603362A2F32
:10154000D6D7010EEA6E260EE96E0001000CE950B6
:101550000101166F1551186F1BE014C126F113C15C
:1015600025F112C124F111C123F12A6B296B200E40
:10157000286F820E276F00010DDF03C014F102C037
:1015800013F101C012F100C011F10101182FE5D7CC
:1015900014C121F113C120F112C11FF111C11EF1BB
:1015A000000173D703C014F102C013F101C012F19E
:1015B00000C011F1010114AF0DD01607168B111FD9
:1015C000121F131F141F112BD8B4122BD8B4132BB6
:1015D000D8B4142B3B0E1D6F9A0E1C6FCA0E1B6FD6
:1015E0001A6B0A0E186F1551D8B4162B14C121F1BD
:1015F00013C120F112C11FF111C11EF11DC125F14E
:101600001CC124F11BC123F11AC122F100015FDFCB
:101610000150EFCF11F1ECCF12F1ECCF13F1ECCF81
:1016200014F1005213E101011529185DD8A402D06C
:1016300000010CD016510DE00F0B185D01E044E2E3
:1016400016BF42D016BD05D0200E37D0200E0101A6
:10165000161716AB0FD0169B1551D8A416070050BD
:10166000166F2D0E1E6F0001F5EC05F001011651ED
:10167000006E166B1551185D0DE10050166F2E0EA1
:101680001E6F0001F5EC05F001011651006E200EF1
:101690001617000E300E16AB10D0169B1551D8A49D
:1016A00016070050166F2D0E1E6F0001F5EC05F0A9
:1016B00001011651006E166B300E002600C01EF19F
:1016C0000001F5EC05F001011DC121F11CC120F163
:1016D0001BC11FF11AC11EF1256B246B236B0A0E6F
:1016E000226F0001F4DE03C01DF102C01CF101C035
:1016F0001BF100C01AF10101182F78D70001000C6E
:1017000024C12BF1010128512B1B2BAF05D0D894FC
:10171000D89024BFD8802FD024C12BF127C12CF121
:1017200023512C5F06E02BAF26D0D850010AD86E8B
:1017300022D028C12CF124512C5F06E02BAF1BD006
:10174000D850010AD86E17D029C12CF125512C5F31
:1017500006E02BAF10D0D850010AD86E0CD02AC1A9
:101760002CF126512C5F06E02BAF05D0D850010A92
:10177000D86E01D0D8900001000C8E0E006E0101D1
:101780000951005E0AC102F00BC101F0028E005245
:1017900009E0D890025202E1015204E00232013223
:1017A000002EF7D70AAF05D0011E021E012AD8B4B9
:1017B000022A0001000C01010D35006E0036FC0EFE
:1017C000001600C001F0C250C30B0010C26E0A0E1A
:1017D000246F000133EC05F0C282C2B2FED7C4CF41
:1017E00013F1C3CF12F100012BEC06F003C011F18D
:1017F00002C010F101C00FF100C00EF10EC100F0E7
:101800000FC101F010C102F011C103F0000C09C1B9
:10181000BEFF000C8E0E006E24C101F023C102F049
:10182000036A01AE05D0011E021E022A01E1012A4F
:10183000015209E102C001F0026A080E005E015285
:1018400002E1006A0DD0D89001BE04D00236013604
:101850000006F9D7010124AF02D0000101D0019E9A
:101860000001000C11C115F110C114F10FC113F1E9
:101870000EC112F115C126F114C125F113C124F1D5
:1018800012C123F101012A6B296B286B7F0E276F90
:10189000000136DFD8B440D2010E0101246F120ED0
:1018A000E96E24C1EAFF7E0EEF6ED88215C12AF1DF
:1018B00014C129F113C128F112C127F12E6B2D6B30
:1018C0002C6B7F0E2B6F0001F5EC06F000C023F1AE
:1018D00001C024F102C025F103C026F1D89215C140
:1018E0002AF114C129F113C128F112C127F1010114
:1018F0002E6B2D6B2C6B7F0E2B6F0001F5EC06F021
:1019000026C12AF125C129F124C128F123C127F1DB
:1019100003C02EF102C02DF101C02CF100C02BF14B
:1019200046EC06F003C015F102C014F101C013F13A
:1019300000C012F115C126F114C125F113C124F123
:1019400012C123F115C12AF114C129F113C128F1E3
:1019500012C127F11FDD03C021F102C020F101C037
:101960001FF100C01EF1BC0E0101266F240E256F71
:10197000670E246F7D0E236F21C12AF120C129F14A
:101980001FC128F11EC127F1000104DD00C023F1B1
:1019900001C024F102C025F103C026F1D89203C092
:1019A0002AF102C029F101C028F100C027F1E30E9D
:1019B00001012E6FE40E2D6F900E2C6F820E2B6F97
:1019C0000001F5EC06F003C019F102C018F101C0E6
:1019D00017F100C016F119C126F118C125F117C180
:1019E00024F116C123F121C12AF120C129F11FC11F
:1019F00028F11EC127F1CEDC00C023F101C024F183
:101A000002C025F103C026F1D89203C02AF102C01A
:101A100029F101C028F100C027F11C0E01012E6F31
:101A2000870E2D6F570E2C6F830E2B6F0001F5EC78
:101A300006F003C019F102C018F101C017F100C08F
:101A400016F119C126F118C125F117C124F116C1EB
:101A500023F121C12AF120C129F11FC128F11EC1A2
:101A600027F198DC00C023F101C024F102C025F168
:101A700003C026F1D89203C02AF102C029F101C0A7
:101A800028F100C027F1AB0E01012E6FE10E2D6F82
:101A90009E0E2C6F830E2B6F0001F5EC06F003C039
:101AA00019F102C018F101C017F100C016F10101CF
:101AB000266B256B246B7F0E236F21C12AF120C179
:101AC00029F11FC128F11EC127F1000163DC00C00C
:101AD00023F101C024F102C025F103C026F1D89200
:101AE00003C02AF102C029F101C028F100C027F18A
:101AF000B40E01012E6F2A0E2D6F820E2C6F2B6FEC
:101B00000001F5EC06F003C01DF102C01CF101C09C
:101B10001BF100C01AF11DC126F11CC125F11BC12A
:101B200024F11AC123F121C12AF120C129F11FC1D9
:101B300028F11EC127F12EDC00C023F101C024F1E1
:101B400002C025F103C026F1D89203C02AF102C0D9
:101B500029F101C028F100C027F1800E01012E6F8C
:101B60003E0E2D6F060E2C6F830E2B6F0001F5ECD1
:101B700006F003C01DF102C01CF101C01BF100C042
:101B80001AF11DC126F11CC125F11BC124F11AC196
:101B900023F121C12AF120C129F11FC128F11EC161
:101BA00027F1CAEC09F000C023F101C024F102C002
:101BB00025F103C026F1D89203C02AF102C029F111
:101BC00001C028F100C027F1AB0E01012E6FE10E1C
:101BD0002D6F9E0E2C6F820E2B6F0001F5EC06F020
:101BE00003C01DF102C01CF101C01BF100C01AF1BD
:101BF00015C126F114C125F113C124F112C123F13D
:101C000019C12AF118C129F117C128F116C127F10C
:101C1000CAEC09F000C023F101C024F102C025F193
:101C200003C026F103C02AF102C029F101C028F146
:101C300000C027F11DC12EF11CC12DF11BC12CF1DB
:101C40001AC12BF146EC06F003C019F102C018F1DD
:101C500001C017F100C016F1010E0101246F0E0E34
:101C6000E96E24C1EAFF7E0EEF5C226F22BF01D035
:101C700014D0000ED8802255246B236F23BF240775
:101C80000001C8DD00C01AF10150800A01011B6F7C
:101C900002C01CF103C01DF110D0246B22C123F13E
:101CA00023BF24070001B6DD03C01DF102C01CF1F3
:101CB00001C01BF100C01AF101011DC126F11CC1B8
:101CC00025F11BC124F11AC123F1180E2A6F720EDF
:101CD000296F310E286F7E0E276F0001CAEC09F0C4
:101CE000D89219C12AF118C129F117C128F116C1DA
:101CF00027F103C02EF102C02DF101C02CF100C06C
:101D00002BF1F5EC06F003C019F102C018F101C087
:101D100017F100C016F106D00101196B186B176B93
:101D2000166B000116C100F017C101F018C102F0D6
:101D300019C103F088EF0FF001010D6B00013BDDCD
:101D400000C00AF101C00BF102C00CF103C00DF19B
:101D500003C026F102C025F101C024F100C023F127
:101D600001012A6B296B200E286F810E276F00015D
:101D7000CAEC09F000C00AF101C00BF102C00CF17D
:101D800003C00DF103C02AF102C029F101C028F1FE
:101D900000C027F101012E6BC00E2D6F7F0E2C6F3E
:101DA000880E2B6F000146EC06F003C080F002C0E5
:101DB0007FF001C07EF000C07DF0010E01010D6FCB
:101DC0000001F9DC00C00AF101C00BF102C00CF106
:101DD00003C00DF103C026F102C025F101C024F1BA
:101DE00000C023F101012A6B296B200E286F810EA0
:101DF000276F0001CAEC09F000C00AF101C00BF125
:101E000002C00CF103C00DF103C02AF102C029F198
:101E100001C028F100C027F101012E6BC00E2D6F0B
:101E20007F0E2C6F880E2B6F000146EC06F003C06E
:101E300084F002C083F001C082F000C081F0010193
:101E40002A6B296B200E286F810E276F84C02EF11C
:101E500083C02DF182C02CF181C02BF1000146EC32
:101E600006F000C00AF101C00BF102C00CF103C082
:101E70000DF1D88203C02AF102C029F101C028F176
:101E800000C027F101012E6B2D6B2C6B7F0E2B6F89
:101E90000001F5EC06F078C02AF177C029F176C090
:101EA00028F175C027F103C02EF102C02DF101C049
:101EB0002CF100C02BF146EC06F003C07CF002C010
:101EC0007BF001C07AF000C079F07CC02AF17BC0C1
:101ED00029F17AC028F179C027F168C02EF167C0D6
:101EE0002DF166C02CF165C02BF146EC06F000C068
:101EF0000AF101C00BF102C00CF103C00DF103C0E7
:101F000011F102C010F101C00FF100C00EF1AAD40E
:101F100000C00AF101C00BF102C00CF103C00DF1C9
:101F200003C02AF102C029F101C028F100C027F145
:101F300064C02EF163C02DF162C02CF161C02BF1A1
:101F400046EC06F000C00AF101C00BF102C00CF132
:101F500003C00DF101012A6B296B286B7F0E276FDF
:101F60006CC02EF16BC02DF16AC02CF169C02BF151
:101F7000000146EC06F0EACF0FF1E9CF0EF1D8925E
:101F80000DC12AF10CC129F10BC128F10AC127F1B9
:101F900003C02EF102C02DF101C02CF100C02BF1C5
:101FA000F5EC06F00FC1EAFF0EC1E9FF01012A6B53
:101FB000296B286B7F0E276F03C02EF102C02DF115
:101FC00001C02CF100C02BF1000146EC06F003C06B
:101FD00070F002C06FF001C06EF000C06DF0D882EA
:101FE00070C02AF16FC029F16EC028F16DC027F1D1
:101FF000330E01012E6F930E2D6F080E2C6F870E7E
:102000002B6F0001F5EC06F003C074F002C073F012
:1020100001C072F000C071F02E500A0830E10101D9
:102020000D6B0001DBEC0BF000C00AF101C00BF1FD
:1020300002C00CF103C00DF1EACF0FF1E9CF0EF1B0
:10204000D89203C02AF102C029F101C028F100C0D2
:1020500027F1C8C02EF1C7C02DF1C6C02CF1C5C0F4
:102060002BF1F5EC06F00FC1EAFF0EC1E9FF03C04A
:10207000A4F002C0A3F001C0A2F000C0A1F02E5055
:10208000140830E101010D6B0001DBEC0BF000C026
:102090000AF101C00BF102C00CF103C00DF1EACF4F
:1020A0000FF1E9CF0EF1D88203C02AF102C029F165
:1020B00001C028F100C027F1C8C02EF1C7C02DF122
:1020C000C6C02CF1C5C02BF1F5EC06F00FC1EAFF3C
:1020D0000EC1E9FF03C0A4F002C0A3F001C0A2F04A
:1020E00000C0A1F0A4C026F1A3C025F1A2C024F134
:1020F000A1C023F1A4C02AF1A3C029F1A2C028F1F4
:10210000A1C027F1CAEC09F003C0A8F002C0A7F0F3
:1021100001C0A6F000C0A5F0A4C026F1A3C025F11F
:10212000A2C024F1A1C023F1A8C02AF1A7C029F1BF
:10213000A6C028F1A5C027F1CAEC09F003C0ACF095
:1021400002C0ABF001C0AAF000C0A9F0ACC026F1FB
:10215000ABC025F1AAC024F1A9C023F188C02AF19F
:1021600087C029F186C028F185C027F1CAEC09F0A3
:1021700000C00AF101C00BF102C00CF103C00DF167
:10218000A8C026F1A7C025F1A6C024F1A5C023F15F
:102190008CC02AF18BC029F18AC028F189C027F1AF
:1021A000CAEC09F0D8920DC12AF10CC129F10BC17A
:1021B00028F10AC127F103C02EF102C02DF101C0A0
:1021C0002CF100C02BF1F5EC06F000C00AF101C0C3
:1021D0000BF102C00CF103C00DF1A4C026F1A3C0A5
:1021E00025F1A2C024F1A1C023F190C02AF18FC033
:1021F00029F18EC028F18DC027F1CAEC09F0D892E0
:102200000DC12AF10CC129F10BC128F10AC127F136
:1022100003C02EF102C02DF101C02CF100C02BF142
:10222000F5EC06F000C00AF101C00BF102C00CF1A0
:1022300003C00DF1D89203C02AF102C029F101C0F8
:1022400028F100C027F194C02EF193C02DF192C067
:102250002CF191C02BF1F5EC06F003C0BCF002C0EC
:10226000BBF001C0BAF000C0B9F0D882BCC02AF1FE
:10227000BBC029F1BAC028F1B9C027F10A0E01018B
:102280002E6FD70E2D6F230E2C6F7B0E2B6F000140
:10229000F5EC06F003C0BCF002C0BBF001C0BAF020
:1022A00000C0B9F0BCC026F1BBC025F1BAC024F112
:1022B000B9C023F101012A6B296B286B276B000140
:1022C00080EC0BF004E3BC6BBB6BBA6BB96B010128
:1022D00009512A5C01E32A6A2A50040DF350036A6B
:1022E000D90FE96E000E0320EA6EB9C0EFFFBAC045
:1022F000ECFFBBC0ECFFBCC0ECFF2A2A00019C6BCA
:102300009B6B9A6B996B2B6A010E0101095D2B5C2B
:1023100001E038E22B50040DF350036AD90FE96E47
:10232000000E0320EA6EEFCF00F0ECCF01F0ECCF0F
:1023300002F0ECCF03F0EACF0BF1E9CF0AF1D8922B
:102340009CC02AF19BC029F19AC028F199C027F1BD
:1023500003C02EF102C02DF101C02CF100C02BF101
:102360000001F5EC06F00BC1EAFF0AC1E9FF03C06A
:102370009CF002C09BF001C09AF000C099F02B2A9B
:10238000C3D70101136B09C112F100012BEC06F058
:102390009CC02AF19BC029F19AC028F199C027F16D
:1023A00003C02EF102C02DF101C02CF100C02BF1B1
:1023B00046EC06F000C00AF101C00BF102C00CF1BE
:1023C00003C00DF103C026F102C025F101C024F1C4
:1023D00000C023F1CCC02AF1CBC029F1CAC028F13A
:1023E000C9C027F1CAEC09F003C09CF002C09BF001
:1023F00001C09AF000C099F099C000F09AC001F0B5
:102400009BC002F09CC003F0000C2F501408D8A40D
:1024100079D03EA277D0D8824FC02AF14EC029F1A0
:102420004DC028F14CC027F198C02EF197C02DF176
:1024300096C02CF195C02BF1F5EC06F003C0D8F056
:1024400002C0D7F001C0D6F000C0D5F0D8C026F148
:10245000D7C025F1D6C024F1D5C023F1CD0E01019E
:102460002A6FCC0E296F4C0E286F7C0E276F00014F
:1024700080EC0BF015E3CD0E0101266FCC0E256F1D
:10248000246F7C0E236FD8C02AF1D7C029F1D6C0A3
:1024900028F1D5C027F1000180EC0BF001E326D034
:1024A0000101266B256B246B236BD8C02AF1D7C0A2
:1024B00029F1D6C028F1D5C027F1000180EC0BF03E
:1024C00002E3010E2C26D8C026F1D7C025F1D6C0D4
:1024D00024F1D5C023F101012A6B296B286B276BEE
:1024E000000180EC0BF002E3010E2C5E2C50FB0887
:1024F00002E2FB0E2C6E2C50030802E3040E2C6E3D
:102500002CC0BEFF3050140804E1FB0E2C6E2CC012
:10251000BEFF3150140802E132C0BEFF000CF86A61
:10252000D09E078EEA6AE96A640E176E0B0E186E6B
:10253000020E196E0B0E1A6E020E1B6E030E1C6E2F
:10254000020E1D6E1E6E040E1F6E0A0E206E010E10
:10255000216E226A236A246A256A266A276A286A03
:10256000296A2A6A2B6A0A0E2C6E2D6A2E6E2F6E2D
:10257000306E316E326A336A346A356A366A376A67
:10258000386A396A3A6A3B6A3C6A3D6A3E903E92D2
:102590003E943E963E983E9A3E9C3E9E3F903F9291
:1025A0003F94406A4F6A4E6A4D6A4C6A536A526A57
:1025B000516A506A576A566A4B0E556E860E546EB3
:1025C0003F983F9A3F9C3F9E5890589258945896F7
:1025D0005898589A5A6A596A5C6A5B6A5E6A5D6A78
:1025E000606B5F6A646BE00E636F5D0E626F8A0EF4
:1025F000616F686BC00E676F280E666F890E656F1E
:10260000330E6C6F130E6B6F150E6A6F870E696F4A
:10261000706B6F6B6E6B6D6B746B736B726B716BDE
:10262000786B776B7A0E766F880E756F7C6B7B6B31
:102630007A6B796B806B7F6B7E6B7D6B846B836B4E
:10264000826B816B190E886F530E876F180E866F21
:10265000680E856FE90E8C6FBD0E8B6FC60E8A6F8C
:10266000710E896FBE0E906F960E8F6F240E8E6F57
:102670007A0E8D6FF30E946F5A0E936FAB0E926FAE
:10268000810E916F986B976B966B956B9C6B9B6BA8
:102690009A6B996BA06B9F6B9E6B9D6BA46BA36BEE
:1026A000A26BA16BA86BA76BA66BA56BAC6BAB6B9E
:1026B000AA6BA96B8B0EB06FFD0EAF6F650EAE6F80
:1026C0007C0EAD6FB46BB36BB26BB16BB86BB76BA9
:1026D000B66BB56BBC6BBB6BBA6BB96BC06BBF6BCE
:1026E000BE6BBD6BC46BC36BC26BC16BC86BC76B7E
:1026F000C66BC56BCC6BCB6BCA6B7F0EC96FD06BD7
:10270000CF6B240ECE6F880ECD6FD46BD36BD26B94
:10271000D16BD86BD76BD66BD56BC150C00B0F0983
:10272000C16E070EB46E3E0E416E200E426E5E0EFE
:10273000436E446A456A466A476A486A496A4A6A11
:102740004B6AD96BDA6BDB6BDC6BDD6BDE6BDF6BE3
:10275000E06BE16BE26BE36BE46BE56BE66BE76B05
:10276000E86BE96BEA6BEB6BEC6BED6BEE6BEF6BB5
:10277000F06BF16BF26BF36BF46BF56BF66BF76B65
:10278000F86BF96BFA6BFB6BFC6BFD6BFE6BFF6B15
:102790000101006B016B026B036B046B056B066B35
:1027A000076B086BC150C00B0B09C16EC090C08293
:1027B000C094C08EC280956A8C6A3F86850ECD6EAD
:1027C0009D80000E0509CA6EFF0ECB6E94948B940B
:1027D000969C0C0EBD6EB76AB66AC00EF212BE6A47
:1027E000000182EC05F00C0E01011E6F0001F5ECFA
:1027F00005F0F2CF09F1F29EA96AA69CA69EA680DA
:10280000A850010109BFF28E486E140E246F00011A
:1028100033EC05F0F2CF09F1F29E010EA96EA69CF1
:10282000A69EA680A850010109BFF28E496E140E23
:10283000246F000133EC05F0F2CF09F1F29E020E95
:10284000A96EA69CA69EA680A850010109BFF28E83
:102850004A6E140E246F000133EC05F0F2CF09F13B
:10286000F29E030EA96EA69CA69EA680A85001010A
:1028700009BFF28E4B6E140E246F000133EC05F08D
:10288000F2CF09F1F29E050EA96EA69CA69EA68027
:10289000A850010109BFF28E016E3E9401B03E8442
:1028A000F2CF09F1F29E0A0EA96EA69CA69EA68002
:1028B000A85009BFF28E306EF2CF09F1F29E0B0ED6
:1028C000A96EA69CA69EA680A85009BFF28E2F6E68
:1028D000F2CF09F1F29E0C0EA96EA69CA69EA680D0
:1028E000A85009BFF28E316EF2CF09F1F29E0D0EA3
:1028F000A96EA69CA69EA680A85009BFF28E326E35
:1029000032C02CF0F2CF09F1F29E140EA96EA69CF3
:10291000A69EA680A85009BFF28E226EF2CF09F1C2
:10292000F29E150EA96EA69CA69EA680A85009BF71
:10293000F28E376E22C023F037C038F0F2CF09F1A3
:10294000F29E160EA96EA69CA69EA680A85009BF50
:10295000F28E3B6EF2CF09F1F29E170EA96EA69C85
:10296000A69EA680A85009BFF28E396E3BC03CF0EF
:1029700039C03AF0F2CF09F1F29E190EA96EA69C69
:10298000A69EA680A85009BFF28E246EF2CF09F150
:10299000F29E1A0EA96EA69CA69EA680A85009BFFC
:1029A000F28E136B126F00012BEC06F003C0B4F033
:1029B00002C0B3F001C0B2F000C0B1F0B4C02AF15F
:1029C000B3C029F1B2C028F1B1C027F101012E6BCB
:1029D0002D6B480E2C6F850E2B6F000146EC06F018
:1029E00003C0B4F002C0B3F001C0B2F000C0B1F057
:1029F0000101136B24C012F100012BEC06F0D892F8
:102A000003C02AF102C029F101C028F100C027F15A
:102A1000B4C02EF1B3C02DF1B2C02CF1B1C02BF176
:102A2000F5EC06F003C0CCF002C0CBF001C0CAF058
:102A300000C0C9F0F2CF09F1F29E280EA96EA69C43
:102A4000A69EA680A850010109BFF28E246EF2CF87
:102A500009F1F29E290EA96EA69CA69EA680A850FA
:102A600009BFF28E136B126F00012BEC06F003C04E
:102A7000B4F002C0B3F001C0B2F000C0B1F0B4C015
:102A80002AF1B3C029F1B2C028F1B1C027F1010188
:102A90002E6B2D6B480E2C6F850E2B6F000146ECB4
:102AA00006F003C0B4F002C0B3F001C0B2F000C041
:102AB000B1F00101136B24C012F100012BEC06F000
:102AC000D89203C02AF102C029F101C028F100C048
:102AD00027F1B4C02EF1B3C02DF1B2C02CF1B1C0BA
:102AE0002BF1F5EC06F003C04FF002C04EF001C030
:102AF0004DF000C04CF0F2CF09F1F29E3C0EA96EF1
:102B0000A69CA69EA680A850010109BFF28E276E42
:102B1000F2CF09F1F29E3D0EA96EA69CA69EA6805C
:102B2000A85009BFF28E136B126F00012BEC06F058
:102B300003C0C0F002C0BFF001C0BEF000C0BDF0D5
:102B4000C0C02AF1BFC029F1BEC028F1BDC027F125
:102B500001012E6B2D6B480E2C6F850E2B6F000123
:102B600046EC06F003C0C0F002C0BFF001C0BEF0EA
:102B700000C0BDF00101136B27C012F100012BEC66
:102B800006F0D89203C02AF102C029F101C028F151
:102B900000C027F1C0C02EF1BFC02DF1BEC02CF186
:102BA000BDC02BF1F5EC06F003C0C8F002C0C7F0C1
:102BB00001C0C6F000C0C5F0F2CF09F1F29E320E9E
:102BC000A96EA69CA69EA680A850010109BFF28E00
:102BD0002E6EF2CF09F1F29E2A0EA96EA69CA69E39
:102BE000A680A85009BFF28E2D6E2D500C0802E26F
:102BF0000C0E2D6E2D5202E1010E2D6EF2CF09F159
:102C0000F29E460EA96EA69CA69EA680A85009BF5D
:102C1000F28E336EF2CF09F1F29E470EA96EA69C9A
:102C2000A69EA680A85009BFF28E346EF2CF09F19D
:102C3000F29E480EA96EA69CA69EA680A85009BF2B
:102C4000F28E356EF2CF09F1F29E490EA96EA69C66
:102C5000A69EA680A85009BFF28E016E3F9401B0D7
:102C60003F84C80E176E1750C8086CE13FB869D092
:102C7000020E096FFA0E246F000133EC05F001011A
:102C8000092FF8D7938081A05CD0000182EC05F079
:102C900020C009F131EC08F0010E01011F6F206F17
:102CA0000001BCEC05F0480EF66E020EF76E3BEC30
:102CB00008F0010E01011F6F020E206F0001BCEC35
:102CC00005F05E0EF66E020EF76E3BEC08F0010E9C
:102CD00001011F6F030E206F0001BCEC05F0740EA4
:102CE000F66E020EF76E3BEC08F0010E01011F6F4D
:102CF000040E206F0001BCEC05F08A0EF66E020E89
:102D0000F76E3BEC08F0080E0101096FFA0E246F14
:102D1000000133EC05F00101092FF8D70C0E1E6FEE
:102D20000001F5EC05F03F88176A3F96020E01019D
:102D3000096FFA0E246F000133EC05F00101092F31
:102D4000F8D791D71752D8A430D23F80BE6A3FA29D
:102D500007D00C0E1E6F0001F5EC05F0FF0001011D
:102D6000010E1F6F206F0001BCEC05F0A00EF66E87
:102D7000020EF76E3BEC08F0010E01011F6F020E10
:102D8000206F0001BCEC05F0B60EF66E020EF76E79
:102D90003BEC08F0010E01011F6F030E206F0001D4
:102DA000BCEC05F0CC0EF66E020EF76E0A0E0101B9
:102DB000116F00014BEC08F044C009F11F0E010136
:102DC0000A6F000175EC08F045C009F11F0E010102
:102DD0000A6F000175EC08F046C009F11F0E0101F1
:102DE0000A6F000175EC08F047C009F11F0E0101E0
:102DF0000A6F000175EC08F0200E01011E6F000142
:102E0000F5EC05F0200E01011E6F0001F5EC05F058
:102E1000938681A615D03EB812D00B0E1A5C036AB9
:102E2000440FE96E000E0320EA6EEF2A3E881E0E64
:102E30000101246F000133EC05F05C6A5B6A01D08C
:102E40003E98938481A415D03EBC12D00B0E1A5C20
:102E5000036A440FE96E000E0320EA6EEF063E8C13
:102E60001E0E0101246F000133EC05F05C6A5B6A01
:102E700001D03E9C938081A013D03EBA10D03E8AF0
:102E80001A2A1E0E0101246F000133EC05F00C0E0E
:102E900001011E6F0001F5EC05F05C6A5B6A01D070
:102EA0003E9A938281A213D03EBE10D03E8E1A0667
:102EB0001E0E0101246F000133EC05F00C0E010120
:102EC0001E6F0001F5EC05F05C6A5B6A01D03E9E66
:102ED0000B0E1A5C036A440FE96E000E0320EA6EC3
:102EE000EFBE01D00AD00B0E1A5C036A440FE96EE4
:102EF000000E0320EA6E090EEF6E0B0E1A5C036AD9
:102F0000440FE96E000E0320EA6EEFBE0CD0EF50C6
:102F1000090809E20B0E1A5C036A440FE96E000E01
:102F20000320EA6EEF6A1A500A0802E30B0E1A6ECB
:102F30001AC01FF1040E0101206F0001BCEC05F066
:102F400043C01EF1F5EC05F01A500E08D8B017D1A9
:102F50004450030871E1455008086EE146500908E5
:102F60006BE14750020868E1A96AA86AA69CA69E80
:102F7000A684F250006EF29E0F01550EA76EAA0EA7
:102F8000A76EA682A6B2FED7A6940050F212140E27
:102F90000101246F000133EC05F0010EA96EA86A4F
:102FA000A69CA69EA684F250006EF29E0F01550EBE
:102FB000A76EAA0EA76EA682A6B2FED7A694005050
:102FC000F212140E0101246F000133EC05F0020E21
:102FD000A96EA86AA69CA69EA684F250006EF29ED8
:102FE0000F01550EA76EAA0EA76EA682A6B2FED737
:102FF000A6940050F212140E0101246F000133EC6C
:1030000005F0030EA96EA86AA69CA69EA684F2509F
:10301000006EF29E0F01550EA76EAA0EA76EA68235
:10302000A6B2FED7A6940050F212140E0101246F2E
:10303000000133EC05F0FF004850445C5DE149506D
:10304000455C5AE14A50465C57E14B50475C54E1BD
:10305000010E01011F6F206F0001BCEC05F0E20EB4
:10306000F66E020EF76E3BEC08F0010E01011F6FC9
:10307000020E206F0001BCEC05F0F60EF66E020E9B
:10308000F76E3BEC08F0010E01011F6F030E206F7D
:103090000001BCEC05F00A0EF66E030EF76E3BEC79
:1030A00008F0010E01011F6F040E206F0001BCEC3F
:1030B00005F01E0EF66E030EF76E3BEC08F0020EE6
:1030C0000101096FFA0E246F000133EC05F00101D4
:1030D000092FF8D7320E176E0B0E1A6E0C0E1E6FDC
:1030E0000001F5EC05F08A8E939E3F903F92588840
:1030F0005C6A5B6A3F8E43D0010E01011F6F206F37
:103100000001BCEC05F0010E01011F6F020E206FE3
:103110000001BCEC05F0320EF66E030EF76E3BECD0
:1031200008F0010E01011F6F030E206F0001BCECBF
:1031300005F0460EF66E030EF76E3BEC08F0010E3E
:1031400001011F6F040E206F0001BCEC05F05A0E48
:10315000F66E030EF76E3BEC08F0020E0101096FEC
:10316000FA0E246F000133EC05F00101092FF8D7A6
:103170000B0E1A6E0C0E1E6F0001F5EC05F01A50C6
:103180000B0811E21A500D080EE3010E1A5C010142
:10319000096F1F6F040E206F0001BCEC05F042C0E8
:1031A0001EF1F5EC05F00101CDD5172C1DD140BE67
:1031B00001D001D0406A010E1F6F206F0001BCECEE
:1031C00005F06E0EF66E030EF76E3BEC08F093867C
:1031D00081A60FD03EB80CD01D061B06010E1B2485
:1031E0001C6E3E881E0E0101246F000133EC05F0B9
:1031F00001D03E98938481A40FD03EBC0CD01D2AF0
:103200001B2A010E1B5C1C6E3E8C1E0E0101246FDE
:10321000000133EC05F001D03E9C1D501F5C08E21C
:10322000402A1DC01FF0020E1F5C1E6E040E1B6E96
:103230001E501D5C08E240061DC01EF0020E1E243A
:103240001F6E020E1B6E1D50185C09E219C01DF0A6
:10325000020E1B6E406A1DC01EF01E241F6E195008
:103260001D5C0BE218C01DF0040E1B6E185C406E56
:103270001DC01FF0020E1F5C1E6E010E40240101D6
:10328000096F0A6F020E0B6F0001E4EC08F0020EEA
:1032900040240101096F0A6F030E0B6F0001E4EC7B
:1032A00008F0030E40240101096F0A6F040E0B6F32
:1032B0000001E4EC08F0010E01011F6F1BC020F1BA
:1032C0000001BCEC05F041C01EF1F5EC05F01B500F
:1032D000020818E1010E01011F6F040E206F0001AA
:1032E000BCEC05F042C01EF1F5EC05F0010E010149
:1032F0001F6F030E206F0001BCEC05F042C01EF1F1
:10330000F5EC05F01B50040818E1010E01011F6FD8
:10331000020E206F0001BCEC05F042C01EF1F5EC7E
:1033200005F0010E01011F6F030E206F0001BCECC0
:1033300005F042C01EF1F5EC05F01B50030818E142
:10334000010E01011F6F040E206F0001BCEC05F09F
:1033500042C01EF1F5EC05F0010E01011F6F020ED7
:10336000206F0001BCEC05F042C01EF1F5EC05F049
:10337000938081A01ED03EBA1BD01DC017F0030E53
:103380001B6E020E0101096FFA0E246F000133EC6F
:1033900005F00101092FF8D70C0E1E6F0001F5ECA6
:1033A00005F01750060804E1446A456A466A476A10
:1033B00001D03E9A938281A215D03EBE12D0020E59
:1033C0000101096FFA0E246F000133EC05F00101D1
:1033D000092FF8D7140E176E0C0E1E6F0001F5ECB6
:1033E00005F001D03E9E010117500208D8A4A6D0D6
:1033F0003E743E8A010E176E406A3EA438D03E8469
:10340000010E1F6F206F0001BCEC05F0840EF66EFC
:10341000030EF76E3BEC08F0010E01011F6F020E68
:10342000206F0001BCEC05F09A0EF66E030EF76EED
:103430003BEC08F0010E01011F6F030E206F00012D
:10344000BCEC05F0B00EF66E030EF76E3BEC08F028
:10345000010E01011F6F040E206F0001BCEC05F08E
:10346000C60EF66E030EF76E3BEC08F001013EB49B
:1034700038D03E94010E1F6F206F0001BCEC05F0A8
:10348000DC0EF66E030EF76E3BEC08F0010E010148
:103490001F6F020E206F0001BCEC05F0F20EF66EFD
:1034A000030EF76E3BEC08F0010E01011F6F030ED7
:1034B000206F0001BCEC05F0080EF66E040EF76EEE
:1034C0003BEC08F0010E01011F6F040E206F00019C
:1034D000BCEC05F01E0EF66E040EF76E3BEC08F029
:1034E0000101000E3EB4010E096F050EA96E09C15F
:1034F000A8FFA69CA69EA684F250006EF29E0F0125
:10350000550EA76EAA0EA76EA682A6B2FED7A694E7
:103510000050F212040E0101096FFA0E246F00012F
:1035200033EC05F00101092FF8D7020E1B6E1D6E5A
:103530000C0E1E6F0001F5EC05F001011750030899
:10354000D8A44CD1010E1F6F206F0001BCEC05F018
:10355000340EF66E040EF76E3BEC08F0010E01011E
:103560001F6F020E206F0001BCEC05F04A0EF66ED4
:10357000040EF76E090E0101116F00014BEC08F00B
:1035800035C009F1010E01010A6F00018CEC09F050
:103590003A0E01011E6F0001F5EC05F034C009F18F
:1035A000010E01010A6F00018CEC09F03A0E0101D5
:1035B0001E6F0001F5EC05F033C009F1010E0101A9
:1035C0000A6F00018CEC09F0200E01011E6F000152
:1035D000F5EC05F03FA40FD0010E01011F6F030EA3
:1035E000206F0001BCEC05F0640EF66E040EF76E61
:1035F0003BEC08F00ED0010E01011F6F030E206F8F
:103600000001BCEC05F07A0EF66E040EF76E3BEC92
:1036100008F0010E01011F6F040E206F0001BCECC9
:1036200005F0900EF66E040EF76E3BEC08F09386F4
:1036300081A681D0C80E0101246F000133EC05F092
:103640000C0E01011E6F0001F5EC05F0010E0101E9
:103650001F6F020E206F0001BCEC05F0A60EF66E87
:10366000040EF76E3BEC08F0010E01011F6F030E14
:10367000206F0001BCEC05F0B80EF66E040EF76E7C
:103680003BEC08F0460EA96EA86AA69CA69EA684EE
:10369000F250006EF29E0F01550EA76EAA0EA76E95
:1036A000A682A6B2FED7A6940050F212470EA96ECB
:1036B000A86AA69CA69EA684F250006EF29E550EA5
:1036C000A76EAA0EA76EA682A6B2FED7A694005039
:1036D000F212480EA96EA86AA69CA69EA684F25075
:1036E000006EF29E550EA76EAA0EA76EA682A6B217
:1036F000FED7A6940050F212040E0101096FAF0E1E
:10370000246F000133EC05F00101092FF8D7336A6B
:10371000346A356A1E0E246F000133EC05F0010E89
:10372000176E406A020E1B6E1D6E0C0E01011E6F9D
:103730000001F5EC05F0938081A031D03F74000EBC
:103740003FB4010E0101096F490EA96E09C1A8FF1E
:10375000A69CA69EA684F250006EF29E0F01550E06
:10376000A76EAA0EA76EA682A6B2FED7A694005098
:10377000F212020E0101096FFA0E246F000133EC00
:1037800005F00101092FF8D7010E176E406A020EED
:103790001B6E1D6E0C0E1E6F0001F5EC05F0938282
:1037A00081A21AD03EBE17D03E8E020E0101096FD3
:1037B000FA0E246F000133EC05F00101092FF8D750
:1037C000010E176E406A020E1B6E1D6E0C0E1E6FF0
:1037D0000001F5EC05F001D03E9E010117500408F0
:1037E000D8A48AD1010E1F6F020E206F0001BCEC1D
:1037F00005F0CA0EF66E040EF76E3BEC08F0010EF3
:1038000001011F6F030E206F0001BCEC05F0E00EFC
:10381000F66E040EF76E070E0101116F00014BECFE
:1038200008F0890EE96E4FC014F14EC013F14DC07F
:1038300012F14CC011F1020E0101156F0001A7EC4D
:103840000AF0200E01011E6F0001F5EC05F0200EBC
:1038500001011E6F0001F5EC05F0200E01011E6F45
:103860000001F5EC05F00101266B256B246B800E41
:10387000236F4FC02AF14EC029F14DC028F14CC032
:1038800027F1000180EC0BF005E34F6A4E6A4D6AA8
:10389000800E4C6E4FC026F14EC025F14DC024F174
:1038A0004CC023F101012A6B296B286B7E0E276F18
:1038B000000180EC0BF005E34F6A4E6A4D6A7E0E04
:1038C0004C6E938681A627D03EB824D0D8924FC0A4
:1038D0002AF14EC029F14DC028F14CC027F1CD0E80
:1038E00001012E6FCC0E2D6F4C0E2C6F7B0E2B6FAB
:1038F0000001F5EC06F003C04FF002C04EF001C02D
:103900004DF000C04CF03E881E0E0101246F0001F6
:1039100033EC05F001D03E98938481A427D03EBCBF
:1039200024D0D8824FC02AF14EC029F14DC028F1D1
:103930004CC027F1CD0E01012E6FCC0E2D6F4C0E19
:103940002C6F7B0E2B6F0001F5EC06F003C04FF0DF
:1039500002C04EF001C04DF000C04CF03E8C1E0E77
:103960000101246F000133EC05F001D03E9C9380EF
:1039700081A0A1D03EBA9ED0010E176E406A020E01
:103980001B6E1D6E0B0E1A6E020E0101096FFA0EF0
:10399000246F000133EC05F00101092FF8D70C0E5C
:1039A0001E6F0001F5EC05F04FC0B4F04EC0B3F04F
:1039B0004DC0B2F04CC0B1F04FC00CF14EC00BF195
:1039C0004DC00AF14CC009F1BDEC0BF001C024F070
:1039D0000101136B24C012F100012BEC06F0D88218
:1039E000B4C02AF1B3C029F1B2C028F1B1C027F1A7
:1039F00003C02EF102C02DF101C02CF100C02BF14B
:103A0000F5EC06F003C0B4F002C0B3F001C0B2F0B0
:103A100000C0B1F0B4C026F1B3C025F1B2C024F1AA
:103A2000B1C023F101012A6B296B480E286F850E66
:103A3000276F0001CAEC09F003C0B8F002C0B7F06C
:103A400001C0B6F000C0B5F0B8C00CF1B7C00BF1C2
:103A5000B6C00AF1B5C009F1BDEC0BF001C026F00B
:103A6000280EA96E24C0A8FFA69CA69EA684F2508C
:103A7000006EF29E0F01550EA76EAA0EA76EA682CB
:103A8000A6B2FED7A6940050F212290EA96E26C047
:103A9000A8FFA69CA69EA684F250006EF29E550E2C
:103AA000A76EAA0EA76EA682A6B2FED7A694005055
:103AB000F212000101D03E9A938281A21BD03EBE39
:103AC00018D0010E176E406A020E1B6E1D6E0B0E93
:103AD0001A6E020E0101096FFA0E246F000133EC19
:103AE00005F00101092FF8D70C0E1E6F0001F5EC4F
:103AF00005F001D03E9E010117500508D8A4B8D1A9
:103B0000010E1F6F206F0001BCEC05F0F00EF66E89
:103B1000040EF76E3BEC08F0010E01011F6F020E60
:103B2000206F0001BCEC05F0060EF66E050EF76E78
:103B30003BEC08F0010E01011F6F030E206F000126
:103B4000BCEC05F01C0EF66E050EF76E0A0E0101B8
:103B5000116F00014BEC08F044C009F11F0E010188
:103B60000A6F000175EC08F045C009F11F0E010154
:103B70000A6F000175EC08F046C009F11F0E010143
:103B80000A6F000175EC08F047C009F11F0E010132
:103B90000A6F000175EC08F0200E01011E6F000194
:103BA000F5EC05F0200E01011E6F0001F5EC05F0AB
:103BB000938681A613D03EB810D00B0E1A5C036A10
:103BC000440FE96E000E0320EA6EEF2A3E881E0EB7
:103BD0000101246F000133EC05F001D03E9893847D
:103BE00081A413D03EBC10D00B0E1A5C036A440FA4
:103BF000E96E000E0320EA6EEF063E8C1E0E0101F8
:103C0000246F000133EC05F001D03E9C938081A02D
:103C100015D03EBA12D03E8A1A2A020E0101096F4F
:103C2000FA0E246F000133EC05F00101092FF8D7DB
:103C30000C0E1E6F0001F5EC05F001D03E9A938248
:103C400081A215D03EBE12D03E8E1A06020E010190
:103C5000096FFA0E246F000133EC05F00101092F02
:103C6000F8D70C0E1E6F0001F5EC05F001D03E9E5A
:103C70000B0E1A5C036A440FE96E000E0320EA6E15
:103C8000EFBE01D00AD00B0E1A5C036A440FE96E36
:103C9000000E0320EA6E090EEF6E0B0E1A5C036A2B
:103CA000440FE96E000E0320EA6EEFBE0CD0EF5019
:103CB000090809E20B0E1A5C036A440FE96E000E54
:103CC0000320EA6EEF6A1A500A0808E3010E176E25
:103CD000406A020E1B6E1D6E0B0E1A6E1AC01FF18B
:103CE000040E0101206F0001BCEC05F043C01EF181
:103CF000F5EC05F01A500E08D8B0A5D04850445C39
:103D000059E14950455C56E14A50465C53E14B50FD
:103D1000475C50E1010E01011F6F206F0001BCECF8
:103D200005F0320EF66E050EF76E3BEC08F0010E54
:103D300001011F6F020E206F0001BCEC05F0480E60
:103D4000F66E050EF76E3BEC08F0010E01011F6FD9
:103D5000030E206F0001BCEC05F05E0EF66E050E42
:103D6000F76E3BEC08F0010E01011F6F040E206F8F
:103D70000001BCEC05F0740EF66E050EF76E3BEC20
:103D800008F0020E0101096FFA0E246F000133ECF6
:103D900005F00101092FF8D7330E176E0B0E1A6EBE
:103DA0000C0E1E6F0001F5EC05F0446A456A466A88
:103DB000476A49D0010E01011F6F206F0001BCEC62
:103DC00005F08A0EF66E050EF76E3BEC08F0010E5C
:103DD00001011F6F020E206F0001BCEC05F0A00E68
:103DE000F66E050EF76E3BEC08F0010E01011F6F39
:103DF000030E206F0001BCEC05F0B60EF66E050E4A
:103E0000F76E3BEC08F0010E01011F6F040E206FEE
:103E10000001BCEC05F0CC0EF66E050EF76E3BEC27
:103E200008F0020E0101096FFA0E246F000133EC55
:103E300005F00101092FF8D70B0E1A6E0C0E1E6F3C
:103E40000001F5EC05F01A500B0811E21A500D08AC
:103E50000EE3010E1A5C0101096F1F6F040E206F43
:103E60000001BCEC05F042C01EF1F5EC05F00101CB
:103E700017503308D8A4BBD1010E1F6F206F00016B
:103E8000BCEC05F0E20EF66E050EF76E3BEC08F0AA
:103E9000010E01011F6F020E206F0001BCEC05F046
:103EA000F80EF66E050EF76E3BEC08F0010E010100
:103EB0001F6F030E206F0001BCEC05F00E0EF66EB6
:103EC000060EF76E0A0E0101116F00014BEC08F0AF
:103ED00044C009F11F0E01010A6F000175EC08F0E2
:103EE00045C009F11F0E01010A6F000175EC08F0D1
:103EF00046C009F11F0E01010A6F000175EC08F0C0
:103F000047C009F11F0E01010A6F000175EC08F0AE
:103F1000200E01011E6F0001F5EC05F0200E0101DD
:103F20001E6F0001F5EC05F0938681A613D03EB814
:103F300010D00B0E1A5C036A440FE96E000E0320CA
:103F4000EA6EEF2A3E881E0E0101246F000133EC59
:103F500005F001D03E98938481A413D03EBC10D0CC
:103F60000B0E1A5C036A440FE96E000E0320EA6E22
:103F7000EF063E8C1E0E0101246F000133EC05F0AC
:103F800001D03E9C938081A011D03EBA0ED03E8AD3
:103F90001A2A1E0E0101246F000133EC05F00C0EED
:103FA00001011E6F0001F5EC05F001D03E9A9382ED
:103FB00081A211D03EBE0ED03E8E1A061E0E010109
:103FC000246F000133EC05F00C0E01011E6F00019F
:103FD000F5EC05F001D03E9E0B0E1A5C036A440F0F
:103FE000E96E000E0320EA6EEFBE01D00AD00B0E80
:103FF0001A5C036A440FE96E000E0320EA6E090E94
:10400000EF6E0B0E1A5C036A440FE96E000E03207C
:10401000EA6EEFBE0CD0EF50090809E20B0E1A5CF5
:10402000036A440FE96E000E0320EA6EEF6A1A502D
:104030000A0804E3050E176E0B0E1A6E1AC01FF164
:10404000040E0101206F0001BCEC05F043C01EF11D
:10405000F5EC05F01A500E08D8B0B4D0010E0101ED
:104060001F6F206F0001BCEC05F0240EF66E060EEB
:10407000F76E3BEC08F0010E01011F6F020E206F7E
:104080000001BCEC05F03A0EF66E060EF76E3BEC46
:1040900008F0010E01011F6F030E206F0001BCEC40
:1040A00005F0500EF66E060EF76E3BEC08F0010EB2
:1040B00001011F6F040E206F0001BCEC05F0660EBD
:1040C000F66E060EF76E3BEC08F0A96A44C0A8FF36
:1040D000A69CA69EA684F250006EF29E0F01550E7D
:1040E000A76EAA0EA76EA682A6B2FED7A69400500F
:1040F000F212140E0101246F000133EC05F0010EE1
:10410000A96E45C0A8FFA69CA69EA684F250006E8C
:10411000F29E0F01550EA76EAA0EA76EA682A6B23A
:10412000FED7A6940050F212140E0101246F000174
:1041300033EC05F0020EA96E46C0A8FFA69CA69E11
:10414000A684F250006EF29E0F01550EA76EAA0EC5
:10415000A76EA682A6B2FED7A6940050F212140E45
:104160000101246F000133EC05F0030EA96E47C076
:10417000A8FFA69CA69EA684F250006EF29E0F0198
:10418000550EA76EAA0EA76EA682A6B2FED7A6945B
:104190000050F212140E0101246F000133EC05F0FF
:1041A000020E0101096FFA0E246F000133EC05F0D5
:1041B0000101092FF8D7010E176E406A020E1B6E1F
:1041C0001D6E00011A500B0811E21A500D080EE383
:1041D000010E1A5C0101096F1F6F040E206F0001B0
:1041E000BCEC05F042C01EF1F5EC05F001011750E2
:1041F0000608D8A4B7D0010E1F6F020E206F000171
:10420000BCEC05F07C0EF66E060EF76E3BEC08F08B
:10421000010E01011F6F030E206F0001BCEC05F0C1
:10422000920EF66E060EF76E070E0101116F000179
:104230004BEC08F02DC009F1010E01010A6F0001DD
:1042400075EC08F0200E01011E6F0001F5EC05F081
:10425000200E01011E6F0001F5EC05F0200E01019A
:104260001E6F0001F5EC05F02D500C0802E20C0E5B
:104270002D6E2D5202E1010E2D6E938681A60CD07B
:104280003EB809D0010E2D263E881E0E0101246F76
:10429000000133EC05F001D03E98938481A40CD04A
:1042A0003EBC09D0010E2D5E3E8C1E0E0101246F16
:1042B000000133EC05F001D03E9C938081A031D009
:1042C0003EBA2ED0010E176E406A020E1B6E1D6E96
:1042D0000B0E1A6E020E0101096FFA0E246F000117
:1042E00033EC05F00101092FF8D70C0E1E6F000109
:1042F000F5EC05F02A0EA96E2DC0A8FFA69CA69E7F
:10430000A684F250006EF29E0F01550EA76EAA0E03
:10431000A76EA682A6B2FED7A6940050F2120001A4
:1043200001D03E9A938281A21BD03EBE18D0010ECE
:10433000176E406A020E1B6E1D6E0B0E1A6E020E79
:104340000101096FFA0E246F000133EC05F0010141
:10435000092FF8D70C0E1E6F0001F5EC05F001D007
:104360003E9E010117500708D8A4F7D1010E1F6F18
:10437000206F0001BCEC05F0A20EF66E060EF76E83
:104380003BEC08F0010E01011F6F020E206F0001CF
:10439000BCEC05F0B80EF66E060EF76E080E0101C5
:1043A000116F00014BEC08F0010EE96E98C014F19A
:1043B00097C013F196C012F195C011F10101156F6C
:1043C0000001A7EC0AF0C50EF66E060EF76E080E99
:1043D0000101116F00014BEC08F0010E01011F6F8C
:1043E000030E206F0001BCEC05F001010D6B000114
:1043F000DBEC0BF000C009F101C00AF102C00BF1C7
:1044000003C00CF15A0E01011E6F0001F5EC05F01E
:10441000460E01011E6F0001F5EC05F03D0E010195
:104420001E6F0001F5EC05F0010EE96E57C014F1A6
:1044300056C013F155C012F154C011F10101156BB2
:104440000001A7EC0AF0D60EF66E060EF76E050E0A
:104450000101116F00014BEC08F0010EE96E0CC177
:1044600014F10BC113F10AC112F109C111F10101DB
:10447000156B0001A7EC0AF0010E01011F6F040E7D
:10448000206F0001BCEC05F0E20EF66E060EF76E32
:104490000C0E0101116F00014BEC08F0010EE96EEA
:1044A000C8C014F1C7C013F1C6C012F1C5C011F1E4
:1044B0000101156B0001A7EC0AF0938081A02CD1BB
:1044C0003EBA29D1010E176E406A020E1B6E1D6E98
:1044D0000B0E1A6E020E0101096FFA0E246F000115
:1044E00033EC05F00101092FF8D70C0E1E6F000107
:1044F000F5EC05F001010D6B0001DBEC0BF0EACFF0
:104500000AF1E9CF09F1D88257C02AF156C029F142
:1045100055C028F154C027F103C02EF102C02DF17F
:1045200001C02CF100C02BF1F5EC06F00AC1EAFF46
:1045300009C1E9FF03C0C8F002C0C7F001C0C6F05E
:1045400000C0C5F00101266B256B246B236BC8C02E
:104550002AF1C7C029F1C6C028F1C5C027F1000162
:1045600080EC0BF001E217E10A0E2E6E320EA96EFE
:104570002EC0A8FFA69CA69EA684F250006EF29EB6
:104580000F01550EA76EAA0EA76EA682A6B2FED781
:10459000A6940050F212C8C026F1C7C025F1C6C0CB
:1045A00024F1C5C023F101012A6B296B286B276B0D
:1045B000000180EC0BF018E3140E2E6E320EA96E83
:1045C0002EC0A8FFA69CA69EA684F250006EF29E66
:1045D0000F01550EA76EAA0EA76EA682A6B2FED731
:1045E000A6940050F2120001C5C000F0C6C001F050
:1045F000C7C002F0C8C003F0019EC8C0C8F0C7C061
:10460000C7F001C0C6F0C5C0C5F0C8C0C0F0C7C083
:10461000BFF0C6C0BEF0C5C0BDF0C0C00CF1BFC089
:104620000BF1BEC00AF1BDC009F1BDEC0BF001C039
:1046300027F00101136B27C012F100012BEC06F0EB
:10464000D882C0C02AF1BFC029F1BEC028F1BDC0C8
:1046500027F103C02EF102C02DF101C02CF100C0E2
:104660002BF1F5EC06F003C0C0F002C0BFF001C0B2
:10467000BEF000C0BDF0C0C026F1BFC025F1BEC075
:1046800024F1BDC023F101012A6B296B480E286F6C
:10469000850E276F0001CAEC09F003C0C4F002C008
:1046A000C3F001C0C2F000C0C1F0C4C00CF1C3C06F
:1046B0000BF1C2C00AF1C1C009F1BDEC0BF001C0A1
:1046C00028F03C0EA96E27C0A8FFA69CA69EA68433
:1046D000F250006EF29E0F01550EA76EAA0EA76E45
:1046E000A682A6B2FED7A6940050F2123D0EA96E85
:1046F00028C0A8FFA69CA69EA684F250006EF29E3B
:10470000550EA76EAA0EA76EA682A6B2FED7A694D5
:104710000050F212000101D03E9A938281A21BD078
:104720003EBE18D0010E176E406A020E1B6E1D6E43
:104730000B0E1A6E020E0101096FFA0E246F0001B2
:1047400033EC05F00101092FF8D70C0E1E6F0001A4
:10475000F5EC05F001D03E9E010117500808D8A4E1
:10476000A8D2010E1F6F206F0001BCEC05F0010103
:104770000D6B0001DBEC0BF000C009F101C00AF188
:1047800002C00BF103C00CF1F40EF66E060EF76ECC
:104790000A0E0101116F00014BEC08F0010EE96EE9
:1047A0000CC114F10BC113F10AC112F109C111F1CD
:1047B0000101156B0001A7EC0AF0200E01011E6F2C
:1047C0000001F5EC05F0200E01011E6F0001F5EC73
:1047D00005F0010E01011F6F020E206F0001BCECFD
:1047E00005F00101136B2CC012F100012BEC06F057
:1047F00000C009F101C00AF102C00BF103C00CF1C5
:1048000003C02AF102C029F101C028F100C027F13C
:1048100001012E6B2D6B7F0E2C6F860E2B6F00010E
:1048200046EC06F00101266B256B480E246F850EC1
:10483000236F03C02AF102C029F101C028F100C092
:1048400027F10001CAEC09F000C009F101C00AF12A
:1048500002C00BF103C00CF1010E01010D6F00014C
:10486000DBEC0BF000C00DF101C00EF102C00FF146
:1048700003C010F1060EF66E070EF76E050E01016D
:10488000116F00014BEC08F0010EE96E0CC114F140
:104890000BC113F10AC112F109C111F10101156B2C
:1048A0000001A7EC0AF0250E01011E6F0001F5ECD6
:1048B00005F0120EF66E070EF76E040E0101116F71
:1048C00000014BEC08F0010EE96E10C114F10FC1AC
:1048D00013F10EC112F10DC111F10101156B0001AF
:1048E000A7EC0AF0200E01011E6F0001F5EC05F0A7
:1048F000010E01011F6F030E206F0001BCEC05F0DB
:10490000020E01010D6F0001DBEC0BF000C009F19C
:1049100001C00AF102C00BF103C00CF103C02AF17F
:1049200002C029F101C028F100C027F101012E6B5E
:10493000C00E2D6F7F0E2C6F880E2B6F000146EC82
:1049400006F00101266B256B480E246F850E236F40
:1049500003C02AF102C029F101C028F100C027F1EB
:104960000001CAEC09F000C009F101C00AF102C05F
:104970000BF103C00CF11E0EF66E070EF76E040E5F
:104980000101116F00014BEC08F0010EE96E98C0B7
:1049900014F197C013F196C012F195C011F1010105
:1049A000156F0001A7EC0AF0270EF66E070EF76EE2
:1049B0000A0E0101116F00014BEC08F0010EE96EC7
:1049C0000CC114F10BC113F10AC112F109C111F1AB
:1049D0000101156B0001A7EC0AF0010E01011F6F28
:1049E000040E206F0001BCEC05F0380EF66E070EC9
:1049F000F76E090E0101116F00014BEC08F0890EF2
:104A0000E96ECCC014F1CBC013F1CAC012F1C9C019
:104A100011F1020E0101156F0001A7EC0AF0200E42
:104A200001011E6F0001F5EC05F0938681A63AD0D6
:104A3000D892CCC02AF1CBC029F1CAC028F1C9C094
:104A400027F10A0E01012E6FD70E2D6F230E2C6F4A
:104A5000780E2B6F0001F5EC06F003C0CCF002C01D
:104A6000CBF001C0CAF000C0C9F0320E0101246FC2
:104A7000000133EC05F00101266B256B700E246FED
:104A8000830E236FCCC02AF1CBC029F1CAC028F114
:104A9000C9C027F1000180EC0BF004E3CC6BCB6BB9
:104AA000CA6BC96B938481A438D0D882CCC02AF158
:104AB000CBC029F1CAC028F1C9C027F10A0E0101F3
:104AC0002E6FD70E2D6F230E2C6F780E2B6F0001DB
:104AD000F5EC06F003C0CCF002C0CBF001C0CAF088
:104AE00000C0C9F0320E0101246F000133EC05F063
:104AF000CCC026F1CBC025F1CAC024F1C9C023F136
:104B000001012A6B296B286B276B000180EC0BF0ED
:104B100004E3CC6BCB6BCA6BC96B938081A0A8D02C
:104B20003EBAA5D0010E176E406A020E1B6E1D6EB6
:104B30000B0E1A6E1E0E0101246F000133EC05F0FE
:104B40000C0E01011E6F0001F5EC05F0CCC0B4F0B5
:104B5000CBC0B3F0CAC0B2F0C9C0B1F0CCC00CF148
:104B6000CBC00BF1CAC00AF1C9C009F1BDEC0BF012
:104B700001C024F00101136B24C012F100012BECE1
:104B800006F0D882B4C02AF1B3C029F1B2C028F12E
:104B9000B1C027F103C02EF102C02DF101C02CF1EC
:104BA00000C02BF1F5EC06F003C0B4F002C0B3F086
:104BB00001C0B2F000C0B1F0B4C026F1B3C025F11D
:104BC000B2C024F1B1C023F101012A6B296B480E58
:104BD000286F850E276F0001CAEC09F003C0B8F0FA
:104BE00002C0B7F001C0B6F000C0B5F0B8C00CF11B
:104BF000B7C00BF1B6C00AF1B5C009F1BDEC0BF0BE
:104C000001C025F0190EA96E24C0A8FFA69CA69E7F
:104C1000A684F250006EF29E0F01550EA76EAA0EEA
:104C2000A76EA682A6B2FED7A6940050F2121A0E64
:104C3000A96E25C0A8FFA69CA69EA684F250006E71
:104C4000F29E550EA76EAA0EA76EA682A6B2FED73A
:104C5000A6940050F212040E0101096FFA0E246F9F
:104C6000000133EC05F00101092FF8D7000101D054
:104C70003E9A938281A21BD03EBE18D0010E176EC1
:104C8000406A020E1B6E1D6E0B0E1A6E020E0101A3
:104C9000096FFA0E246F000133EC05F00101092FB2
:104CA000F8D70C0E1E6F0001F5EC05F001D03E9E0A
:104CB000010117500908D8A423D3010E1F6F206FDC
:104CC0000001BCEC05F00101136B2CC012F10001D6
:104CD0002BEC06F000C009F101C00AF102C00BF193
:104CE00003C00CF103C02AF102C029F101C028F170
:104CF00000C027F101012E6B2D6B7F0E2C6F860EED
:104D00002B6F000146EC06F00101266B256B480E67
:104D1000246F850E236F03C02AF102C029F101C060
:104D200028F100C027F10001CAEC09F000C009F128
:104D300001C00AF102C00BF103C00CF1480EF66E7F
:104D4000070EF76E0D0E0101116F00014BEC08F01C
:104D5000010EE96E0CC114F10BC113F10AC112F17D
:104D600009C111F10101156B0001A7EC0AF0250E34
:104D700001011E6F0001F5EC05F0200E01011E6F10
:104D80000001F5EC05F0010E01011F6F040E206F0C
:104D90000001BCEC05F0020E01010D6F0001DBEC1F
:104DA0000BF000C009F101C00AF102C00BF103C011
:104DB0000CF103C02AF102C029F101C028F100C0A2
:104DC00027F101012E6BC00E2D6F7F0E2C6F880E08
:104DD0002B6F000146EC06F00101266B256B480E97
:104DE000246F850E236F03C02AF102C029F101C090
:104DF00028F100C027F10001CAEC09F000C009F158
:104E000001C00AF102C00BF103C00CF15E0EF66E98
:104E1000070EF76E040E0101116F00014BEC08F054
:104E2000010EE96E98C014F197C013F196C012F10B
:104E300095C011F10101156F0001A7EC0AF0670E92
:104E4000F66E070EF76E0A0E0101116F00014BECB2
:104E500008F0010EE96E0CC114F10BC113F10AC187
:104E600012F109C111F10101156B0001A7EC0AF063
:104E700058B2AFD058B4ADD058B6ABD0938681A657
:104E80002DD0020E0101096FFA0E246F000133ECE0
:104E900005F00101092FF8D7938681A61ED0010ED7
:104EA0001F6F020E206F0001BCEC05F0780EF66E4D
:104EB000070EF76E3BEC08F05882589458960A0E8D
:104EC0002F6E316E040E0101096FFA0E246F00017E
:104ED00033EC05F00101092FF8D70001938481A478
:104EE0002DD0020E0101096FFA0E246F000133EC80
:104EF00005F00101092FF8D7938481A41ED0010E7B
:104F00001F6F020E206F0001BCEC05F08A0EF66EDA
:104F1000070EF76E3BEC08F05884589258960A0E2C
:104F2000306E316E040E0101096FFA0E246F00011C
:104F300033EC05F00101092FF8D70001938081A01F
:104F40002DD0020E0101096FFA0E246F000133EC1F
:104F500005F00101092FF8D7938081A01ED0010E22
:104F60001F6F020E206F0001BCEC05F09A0EF66E6A
:104F7000070EF76E3BEC08F05886589258940A0ECC
:104F80002F6E306E040E0101096FFA0E246F0001BE
:104F900033EC05F00101092FF8D70001938281A2BB
:104FA00018D0010E176E406A020E1B6E1D6E0B0E9E
:104FB0001A6E020E0101096FFA0E246F000133EC24
:104FC00005F00101092FF8D70C0E1E6F0001F5EC5A
:104FD00005F058B204D030501408D8A494D0589496
:104FE00058960A0E2F6E316E010E01011F6F020ED0
:104FF000206F0001BCEC05F0AA0EF66E070EF76EEE
:105000003BEC08F0010E01011F6F030E206F000141
:10501000BCEC05F0BC0EF66E070EF76E3BEC08F02C
:10502000938281A270D05892140E306E0A0E2F6EA9
:10503000316E020E0101096FFA0E246F000133EC8C
:1050400005F00101092FF8D70C0E1E6F0001F5ECD9
:1050500005F0FE0E0101096F000107EC0CF0FE0ED9
:105060002C6E0A0EA96E30C0A8FFA69CA69EA68430
:10507000F250006EF29E0F01550EA76EAA0EA76E9B
:10508000A682A6B2FED7A6940050F2120C0EA96E0C
:1050900031C0A8FFA69CA69EA684F250006EF29E88
:1050A000550EA76EAA0EA76EA682A6B2FED7A6942C
:1050B0000050F2120B0EA96E2FC0A8FFA69CA69E50
:1050C000A684F250006EF29E550EA76EAA0EA76E31
:1050D000A682A6B2FED7A6940050F2120D0EA96EBB
:1050E0002CC0A8FFA69CA69EA684F250006EF29E3D
:1050F000550EA76EAA0EA76EA682A6B2FED7A694DC
:105100000050F212000158B403D02F50140864E18B
:10511000589258960A0E316E306E010E01011F6FC3
:10512000020E206F0001BCEC05F0D20EF66E070EE9
:10513000F76E3BEC08F0010E01011F6F030E206FAC
:105140000001BCEC05F0E20EF66E070EF76E3BECCC
:1051500008F0938281A240D05894140E2F6E0A0E4C
:10516000316E306E020E0101096FFA0E246F0001DC
:1051700033EC05F00101092FF8D70C0E1E6F00016A
:10518000F5EC05F00B0EA96E2FC0A8FFA69CA69EFD
:10519000A684F250006EF29E0F01550EA76EAA0E65
:1051A000A76EA682A6B2FED7A6940050F2120C0EED
:1051B000A96E31C0A8FFA69CA69EA684F250006EE0
:1051C000F29E550EA76EAA0EA76EA682A6B2FED7B5
:1051D000A6940050F212000158B604D031501408C1
:1051E000D8A48DD0589258940A0E2F6E306E010EAE
:1051F00001011F6F020E206F0001BCEC05F0F80EDC
:10520000F66E070EF76E3BEC08F0938681A601D090
:105210002C2A938481A401D02C062CC032F02CC0FF
:1052200009F107EC0CF0938281A269D00D0EA96EF2
:105230002CC0A8FFA69CA69EA684F250006EF29EEB
:105240000F01550EA76EAA0EA76EA682A6B2FED7B4
:10525000A6940050F2125896140E316E0A0E2F6E5C
:10526000306E020E0101096FFA0E246F000133EC5B
:1052700005F00101092FF8D70C0E1E6F0001F5ECA7
:1052800005F00C0EA96E31C0A8FFA69CA69EA684B0
:10529000F250006EF29E0F01550EA76EAA0EA76E79
:1052A000A682A6B2FED7A6940050F2120B0EA96EEB
:1052B0002FC0A8FFA69CA69EA684F250006EF29E68
:1052C000550EA76EAA0EA76EA682A6B2FED7A6940A
:1052D0000050F2120A0EA96E30C0A8FFA69CA69E2E
:1052E000A684F250006EF29E550EA76EAA0EA76E0F
:1052F000A682A6B2FED7A6940050F21200010101C8
:1053000017500A08D8A465D1010E1F6F206F000145
:10531000BCEC05F0080EF66E080EF76E3BEC08F0DC
:10532000010E01011F6F020E206F0001BCEC05F0A1
:105330001E0EF66E080EF76E3BEC08F0060E01012D
:105340001F6F030E206F0001BCEC05F023C009F1B4
:10535000010E01010A6F00018CEC09F03A0E010107
:105360001E6F0001F5EC05F038C009F1010E0101D6
:105370000A6F00018CEC09F03D0EF66E080EF76E18
:10538000080E0101116F00014BEC08F0060E2124FC
:105390000101096F1F6F040E206F0001BCEC05F0C6
:1053A00043C01EF1F5EC05F0215205E1212C01D09E
:1053B00002D0000E00D02150030805E2215003085E
:1053C00002E0000E00D0938681A625D0212C10D0BB
:1053D00023503C080DE3232A020E0101096F960EAB
:1053E000246F000133EC05F00101092FF8D700010B
:1053F0002150030810E138503B080DE3382A020E13
:105400000101096F960E246F000133EC05F00101D4
:10541000092FF8D70001938481A446D0212C21D0F4
:10542000235001080DE22306020E0101096F960EBA
:10543000246F000133EC05F00101092FF8D70001BA
:1054400023503C080EE23C0E236E020E0101096F50
:10545000960E246F000133EC05F00101092FF8D7F7
:1054600000012150030820E138520DE03806020EF9
:105470000101096F960E246F000133EC05F0010164
:10548000092FF8D7000138503B080EE23B0E386E6A
:10549000020E0101096F960E246F000133EC05F036
:1054A0000101092FF8D70001938081A01DD0212C84
:1054B00003D0030E216E08D02150030803E1010E32
:1054C000216E02D0030E216E020E0101096FFA0E49
:1054D000246F000133EC05F00101092FF8D70C0E01
:1054E0001E6F0001F5EC05F0938281A271D0C80E09
:1054F0000101246F000133EC05F00C0E01011E6F59
:105500000001F5EC05F0010E01011F6F020E206F86
:105510000001BCEC05F0460EF66E080EF76E3BEC93
:1055200008F0010E01011F6F030E206F0001BCEC9B
:1055300005F0580EF66E080EF76E3BEC08F0140EF0
:10554000A96E23C0A8FFA69CA69EA684F250006E5A
:10555000F29E0F01550EA76EAA0EA76EA682A6B2E6
:10556000FED7A6940050F212150EA96E38C0A8FFFF
:10557000A69CA69EA684F250006EF29E550EA76EC3
:10558000AA0EA76EA682A6B2FED7A6940050F2126B
:1055900023C022F038C037F0040E0101096FAF0EAE
:1055A000246F000133EC05F00101092FF8D71E0E1E
:1055B000246F000133EC05F0010E176E406A020EF5
:1055C0001B6E1D6E0C0E01011E6F0001F5EC05F047
:1055D000010117500B08D8A462D1010E1F6F206F74
:1055E0000001BCEC05F06A0EF66E080EF76E3BEC9F
:1055F00008F0010E01011F6F020E206F0001BCECCC
:1056000005F0800EF66E080EF76E3BEC08F0060E05
:1056100001011F6F030E206F0001BCEC05F03CC0C0
:1056200009F1010E01010A6F00018CEC09F03A0E3C
:1056300001011E6F0001F5EC05F03AC009F1010E01
:1056400001010A6F00018CEC09F09F0EF66E080E46
:10565000F76E080E0101116F00014BEC08F0060E09
:1056600021240101096F1F6F040E206F0001BCECA3
:1056700005F043C01EF1F5EC05F0215205E1212CA7
:1056800001D002D0000E00D02150030805E22150C5
:10569000030802E0000E00D0938681A625D0212CBD
:1056A00010D03C503C080DE33C2A020E0101096F6A
:1056B000960E246F000133EC05F00101092FF8D795
:1056C00000012150030810E13A503B080DE33A2A4B
:1056D000020E0101096F960E246F000133EC05F0F4
:1056E0000101092FF8D70001938481A446D0212C11
:1056F00021D03C5001080DE23C06020E0101096F69
:10570000960E246F000133EC05F00101092FF8D744
:1057100000013C503C080EE23C0E3C6E020E0101C2
:10572000096F960E246F000133EC05F00101092F7B
:10573000F8D700012150030820E13A520DE03A0663
:10574000020E0101096F960E246F000133EC05F083
:105750000101092FF8D700013A503B080EE23B0E39
:105760003A6E020E0101096F960E246F000133ECB0
:1057700005F00101092FF8D70001938081A01AD00C
:10578000212C03D0030E216E05D02150030802E125
:10579000010E216E020E0101096FFA0E246F000145
:1057A00033EC05F00101092FF8D70C0E1E6F000134
:1057B000F5EC05F0938281A271D0C80E0101246F2F
:1057C000000133EC05F00C0E01011E6F0001F5EC39
:1057D00005F0010E01011F6F020E206F0001BCECED
:1057E00005F0A80EF66E080EF76E3BEC08F0010E01
:1057F00001011F6F030E206F0001BCEC05F0BA0E13
:10580000F66E080EF76E3BEC08F0160EA96E3CC063
:10581000A8FFA69CA69EA684F250006EF29E0F01E1
:10582000550EA76EAA0EA76EA682A6B2FED7A694A4
:105830000050F212170EA96E3AC0A8FFA69CA69EB1
:10584000A684F250006EF29E550EA76EAA0EA76EA9
:10585000A682A6B2FED7A6940050F2123CC03BF03E
:105860003AC039F0040E0101096FAF0E246F000138
:1058700033EC05F00101092FF8D71E0E246F00014B
:1058800033EC05F0010E176E406A020E1B6E1D6EA2
:105890000C0E01011E6F0001F5EC05F0010117501F
:1058A0001408D8A48FD13FAC59D0010E1F6F206FC0
:1058B0000001BCEC05F0CC0EF66E080EF76E3BEC6A
:1058C00008F0010E01011F6F020E206F0001BCECF9
:1058D00005F0D60EF66E080EF76E050E0101116F7B
:1058E00000014BEC08F03DC009F1030E01010A6F05
:1058F00000018CEC09F0250E01011E6F0001F5EC92
:1059000005F0010E01011F6F030E206F0001BCECBA
:1059100005F0E20EF66E080EF76E080E0101116F2B
:1059200000014BEC08F0010EE96E98C014F197C02D
:1059300013F196C012F195C011F10101156F00012C
:10594000A7EC0AF0EF0EF66E080EF76E070E0101D7
:10595000116F00014BEC08F03F9C01013FA421D0E6
:1059600035503B080FE20A0E1F6F010E206F000139
:10597000BCEC05F0F80EF66E080EF76E3BEC08F086
:105980000ED001010A0E1F6F010E206F0001BCEC4A
:1059900005F0040EF66E090EF76E3BEC08F00ED023
:1059A00001010A0E1F6F010E206F0001BCEC05F013
:1059B000100EF66E090EF76E3BEC08F098C026F15B
:1059C00097C025F196C024F195C023F101012A6BFF
:1059D000296B286B7E0E276F000180EC0BF00FE324
:1059E0000B0E01011F6F020E206F0001BCEC05F0D1
:1059F0001C0EF66E090EF76E3BEC08F02FD001017D
:105A0000266B256B246B800E236F98C02AF197C0FC
:105A100029F196C028F195C027F1000180EC0BF028
:105A20000FE30B0E01011F6F020E206F0001BCEC93
:105A300005F0280EF66E090EF76E3BEC08F00ED05E
:105A40000B0E01011F6F020E206F0001BCEC05F070
:105A5000340EF66E090EF76E3BEC08F03EA011D046
:105A60008A889398010E01011F6F040E206F0001B8
:105A7000BCEC05F0400EF66E090EF76E3BEC08F03C
:105A800010D08A989398010E01011F6F040E206FA9
:105A90000001BCEC05F0480EF66E090EF76E3BEC0B
:105AA00008F03EA20FD00A0E01011F6F040E206FF6
:105AB0000001BCEC05F0520EF66E090EF76E3BECE1
:105AC00008F012D058A002D08A9A939A0A0E0101C7
:105AD0001F6F040E206F0001BCEC05F05C0EF66E2B
