:04000000C5EF09F04F
:08000800046ED8CF05F0E0CF33
:1000100006F00001E9CF0CF0EACF07F0E1CF08F0DD
:10002000E2CF09F0D9CF0AF0DACF0BF0F3CF12F01C
:10003000F4CF13F0FACF14F000C00EF001C00FF0AF
:1000400002C010F003C011F09DA02AEF00F09EB096
:100050005AEF00F00EC000F00FC001F010C002F027
:1000600011C003F00CC0E9FF07C0EAFF078E08C00B
:10007000E1FF09C0E2FF0AC0D9FF0BC0DAFF12C0DE
:10008000F3FF13C0F4FF14C0FAFF045006C0E0FFF2
:1000900005C0D8FF1000F2CF0DF0F29EF76AB00F46
:1000A000F66E000EF7220900F5500DBEF28E12001A
:1000B000280C0106150ECF6EA00ECE6E4B2AD8B4BA
:1000C0004C2A4F2AD8B4502A505203E14F501308FB
:1000D00003E2506A4F6A358C4C5203E14B50C7081B
:1000E00045E24C6A4B6A2D2A358A34A211D035A2DA
:1000F0000FD02A2A2ABE05D02A503B0802E22A6ADB
:100100002B2A2BBE05D02B503B0802E22B6A2C2A4F
:100110004AA219D02EBE05D02E50000802E22E06AB
:1001200012D022BE07D02250000804E222063B0E65
:100130002E6E09D04A928A8A939A140E176E8A8874
:100140009398348234804AA411D030BE05D0305008
:10015000000802E230060AD032BE07D03250000852
:1001600004E232063B0E306E01D0FF009E902AEF73
:1001700000F0416C61726D61202020202020202041
:1001800020204F464600416C61726D612020202086
:10019000202020202020204F4E0046696C74726F72
:1001A00020202020202020202020202020005669F0
:1001B00064612046696C74726F202020202020200A
:1001C000200043616D62696F20436F6E74726173CA
:1001D00065F1612020005469656D706F20646520B1
:1001E000507572676120202020005469656D706F22
:1001F00020506F73742D507572676120200020436A
:100200004142494E412020455854524143544F5297
:1002100041200000202044452048554D4F5320598F
:1002200020474153455320200000202020204A50E1
:1002300020494E474C4F42414C20202020200000B6
:10024000205245463A2050414E454C204A504345A5
:100250004831352000002020202020496E6772653B
:100260007365202020202020202000002020202036
:10027000436F6E7472617365F1612020202020202D
:10028000000020202020434C4156453D256925692A
:100290002569256920200000202020202020202002
:1002A000202020202020202020202000202020206E
:1002B00020436F6E7472617365F16120202020000D
:1002C000202020202020436F7272656374612020FB
:1002D000202020002020202020202020202020203E
:1002E00020202020202020002020202020436F6E6E
:1002F0007472617365F1612020202000202020208D
:1003000020496E636F727265637461202020200043
:1003100020202020202020202020202020202020DD
:10032000202020002D2D2D4D454E55205052494E58
:10033000434950414C2D2D2D00002020202020200D
:1003400020202020202020202020202020200000ED
:10035000202020202020202041637469766F2020F7
:100360002020202000002020202020202020416C60
:1003700061726D612020202020200000202020209C
:10038000202020202020202020202020202020206D
:10039000000020202020202020202020202020209D
:1003A0002020202020200000202020202020446524
:1003B0007361637469766F20202020200000202064
:1003C0002020202020416C61726D6120202020209F
:1003D000202000002020202020202020202020205D
:1003E0002020202020202020000020204475726141
:1003F00063696F6E2041637475616C20202000007A
:10040000205469656D706F3D20253032753A253076
:1004100032753A253032752000004445534143542B
:10042000495641523D204F7072696D61203E000077
:1004300020414354495641523D204F7072696D61CD
:10044000203E202000002052455345543D204F704F
:1004500072696D61205E20202020000020526573AB
:100460006574206465207469656D706F20002020BC
:10047000202020457869746F736F20202020200091
:1004800020202020566964612046696C74726F20B8
:100490002020202000002020202020202530332E66
:1004A000306620486F7261732020000020202020D9
:1004B0002020496E6772657365202020202020204F
:1004C000000020436F6E7472617365F161204163B7
:1004D0007475616C2020000020202020434C415680
:1004E000453D2569256925692569202000002020D2
:1004F00020202020202020202020202020202020FC
:10050000202000002020202020436F6E7472617331
:1005100065F16120202020200000202020202020C4
:10052000436F7272656374612020202020200000D8
:1005300020202020202020202020202020202020BB
:1005400020202020000020202020202020202020EB
:1005500020202020202020202020000020202020DB
:1005600020436F6E7472617365F16120202020203A
:1005700000002020202020496E636F727265637432
:10058000612020202020000020202020202020206A
:10059000202020202020202020202020000020209B
:1005A000202020496E67726573652020202020205E
:1005B000202000002020436F6E7472617365F1612A
:1005C000204E756576612020000020202020434CBD
:1005D0004156453D2569256925692569202000008A
:1005E000202020202020202020202020202020200B
:1005F0002020202000002020202020436F6E7472D5
:10060000617365F16120202020200000202020203F
:1006100020416C6D6163656E616461202020202043
:10062000000020202020202020202020202020200A
:100630002020202020200000202020202054696538
:100640006D706F2020646520202020202000202055
:10065000202020202050757267612020202020203B
:1006600020202000253032753A2530327520284D63
:100670003A53292020005469656D706F20416C6DDC
:100680006163656E61646F002020436F7272656301
:1006900074616D656E746520200020202020205438
:1006A00069656D706F202064652020202020200067
:1006B0002020202020506F73742D507572676120A8
:1006C000202020202000253032753A253032752038
:1006D000284D3A53292020005469656D706F2041E0
:1006E0006C6D6163656E61646F002020436F727290
:1006F000656374616D656E7465202000204A50202A
:100700004345474800004578743D202D2D2D0000BD
:10071000496E466C6F773D202D2D2D202020000046
:10072000466C756A6F3D2D2D2D20000046696C7456
:10073000726F3A43414D000046696C74726F3A4FD4
:100740004B20000046696C74726F3A2D2D2D00000D
:100750004C757A3A4F4E20004C757A3A4F464620F7
:1007600000004D6F746F723A4F4E20004D6F746FE2
:10077000723A4F46462000002020202021506F73FF
:10078000742D5075726761212020202000002020E8
:100790002020202020202020202020202020202059
:1007A00020200000202020202020253032753A25EE
:1007B000303275202000202020202050726F636589
:1007C000736F202020202020000020202020466958
:1007D0006E616C697A61646F202020200000202007
:1007E000204465736561206170616761722020201B
:1007F0002020000020202020206C6120636162699D
:100800006E6120202020202000002020203E20415A
:100810006365707461722020202020202020000059
:100820002020203C2043616E63656C617220202093
:100830002020202000002020202020202150757220
:10084000676121202020202020200000202020205F
:100850002020202020202020202020202020202098
:100860000000202020202020253032753A2530320B
:10087000752020200000EA6A640EE96EEF500EE059
:100880000F0E016E006A002EFED7012EFBD78F0ED1
:10089000006E002EFED70000EF2EF2D7000C653957
:1008A000F00B006E0F0E83140010836E080E006EA6
:1008B000002EFED78384DB0E006E002EFED700D004
:1008C0008394000C8390020E646FD5DF62A1839045
:1008D00062B18380080E006E002EFED78392080E50
:1008E000006E002EFED783946339646F0F0E641779
:1008F00064C065F0D4DF63510F0B646F656FCFDFA9
:10090000000C000E956E8390839283940F0E646F9B
:10091000B2DF010E516E5150030808E3030E656FFC
:10092000BEDF050E646FA7DF512AF5D7020E656F93
:10093000B6DF516A515003080FE3036A5150F2CFFA
:1009400052F0F29E4BEC00F052BEF28E526E626B91
:10095000636FB8DF512AEED7000C010E605DFC0F0B
:100960000FE2040FC8EF04F0800E616F09D0C00ED3
:10097000616F06D0940E616F03D0D40E616F00D00A
:10098000010E5F5C6127626B61C063F09BDF000C4E
:10099000F2CF0DF0F29EE824F76AF736B50FF66E47
:1009A000090EF7220A00F550FA6E0800F5500DBE48
:1009B000F28EF96E68096E0974097A095E50F108C1
:1009C00002E1EE0E5E6E5E500C0A05E0060A0DE0D6
:1009D000020A12E016D0626B010E636F73DF010E24
:1009E000166E020E646F47DF12D0162A010E5F6E7C
:1009F00016C060F0B2DF0BD0626B100E636F62DF67
:100A000006D0010E626F5EC063F05CDF00D0000CA8
:100A10008E0E006E53C001F052C002F0036A53AE56
:100A200005D0011E021E022A01E1012A015209E13C
:100A300002C001F0026A080E005E015202E1006A83
:100A40000AD0D89001BE04D0023601360006F9D78C
:100A500053BE01D0019E000C515203E18B9294923F
:100A600002D08B829492000C0900F5520CE0F6CF74
:100A700054F0F7CF55F0F5CF5EF0A0DF54C0F6FF8D
:100A800055C0F7FFF1D7000C0900F6CF52F0F7CFB1
:100A900053F0F5CF5EF092DF52C0F6FF53C0F7FF80
:100AA000512EF2D7000C5850016A575C03E257C030
:100AB00000F00CD0006A080E596E573600365850B8
:100AC000005CD8B0006E0136592EF7D7000C200E0E
:100AD00052A8300E536E51C000F051AE07D0001E28
:100AE000002A00C051F02D0E536E528E015051C09D
:100AF00057F0640E586ED7DF00C051F0300E01245D
:100B0000546E51C057F00A0E586ECDDF300E0024DF
:100B1000566E300E0124556E53C000F052A602D01E
:100B200052AE529452B80BD052AE22D052B420D012
:100B300000C054F052B21CD000C055F019D0300E95
:100B4000545C16E100C054F0200E536E52A604D03F
:100B50005294528252AE5292300E555C09E100C05E
:100B600055F0200E546E52A6F7D7529252AE5290C4
:100B700052A403D053C05EF021DF52A203D054C070
:100B80005EF01CDF52A003D055C05EF017DF56C0E8
:100B90005EF014DF000C522C18D034B40AD0020ED0
:100BA0005F6E53C060F0D9DE720EF66E010EF76E06
:100BB0005BDF34A40AD0020E5F6E53C060F0CDDE5E
:100BC000860EF66E010EF76E4FDF525002080AE1F4
:100BD000020E5F6E53C060F0C0DE9A0EF66E010E1C
:100BE000F76E42DF525003080AE1020E5F6E53C0F7
:100BF00060F0B3DEAE0EF66E010EF76E35DF5250CA
:100C000004080AE1020E5F6E53C060F0A6DEC20E59
:100C1000F66E010EF76E28DF525005080AE1020E4B
:100C20005F6E53C060F099DED60EF66E010EF76E61
:100C30001BDF525006080AE1020E5F6E53C060F0DF
:100C40008CDEEA0EF66E010EF76E0EDF000C015020
:100C500051C057F0640E586E26DF00C051F00150AD
:100C6000300E07E152A20CD052B60AD052B8200E74
:100C700003D0529652985280012601C05EF09EDE4B
:100C800051C057F00A0E586E0EDF00C051F00150EF
:100C9000300E06E152B608D052A006D052B8200E4F
:100CA000012601C05EF08ADE300E512651C05EF092
:100CB00085DE000C5E50D8B471D0006E6251D8B49D
:100CC0006DD0002604E3810E002668E204D07F0E7A
:100CD000005E64E363E05FC066F06351661B5F8E95
:100CE000638F61516503F4CF68F060516403F4CF02
:100CF00003F0F3CF67F06503F3506827F4506723E0
:100D0000000E032261516403F3506827F4506723F7
:100D1000000E026A032202225F506503F350672728
:100D2000F4500322000E02225F506403F3500326A6
:100D3000F4500222000E016A012261516303F35054
:100D40006727F4500322000E022201226051630340
:100D5000F3500326F4500222000E01225F50630379
:100D6000F3500226F4500122002A01BE05D0673755
:100D70000336023601360006000E67AF0AD0032A9A
:100D800002220122015005E1025003E1035001E17A
:100D9000002A66BF018E66AF019E04D0006A016A18
:100DA000026A036A45EF07F05E50B6085E6E036A9A
:100DB0005FC062F05F8ED8905F3260336133033280
:100DC0000232013200325E2EF6D762AF0BD0001E27
:100DD000011E021E031E002AD8B4012AD8B4022A1A
:100DE000D8B4032A58EF07F0006A016A026A036A5E
:100DF000666B676B686B696B655164116311621197
:100E00002CE0200E6A6FD8905E365F36603761370F
:100E100066376737683769376551695D08E164513E
:100E2000685D05E16351675D02E16251665D0FE354
:100E30006251665F6351D8A0633D675F6451D8A07B
:100E4000643D685F6551D8A0653D695FD880003614
:100E50000136023603366A2FD6D7EA6A660EE96E85
:100E6000000CE950566E5550586E19E054C061F0B0
:100E700053C060F052C05FF051C05EF0656B646BB0
:100E8000200E636F820E626F15D703C054F002C04C
:100E900053F001C052F000C051F0582EE7D754C0B3
:100EA00061F053C060F052C05FF051C05EF07CD77B
:100EB00003C054F002C053F001C052F000C051F022
:100EC00054AE0DD05606568A511E521E531E541E45
:100ED000512AD8B4522AD8B4532AD8B4542A3B0E33
:100EE0005D6E9A0E5C6ECA0E5B6E5A6A0A0E586E82
:100EF0005550D8B4562A54C061F053C060F052C067
:100F00005FF051C05EF05DC065F05CC064F05BC036
:100F100063F05AC062F068DF0150EFCF51F0ECCFC0
:100F200052F0ECCF53F0ECCF54F000520FE15528C3
:100F3000585C0CE056500CE00F0B585C01E037E2B7
:100F400056BE35D056BC04D0200E2DD0200E5616DD
:100F500056AA0CD0569A5550D8A456060050566E34
:100F60002D0E5E6E2BDD5650006E566A5550585C45
:100F70000AE10050566E2E0E5E6E20DD5650006E59
:100F8000200E5616000E300E56AA0DD0569A555009
:100F9000D8A456060050566E2D0E5E6E0FDD5650CC
:100FA000006E566A300E002600C05EF007DD5DC0A0
:100FB00061F05CC060F05BC05FF05AC05EF0656BD2
:100FC000646B636B0A0E626F0FDF03C05DF002C0DB
:100FD0005CF001C05BF000C05AF0582E8CD7D1EF06
:100FE00010F056C05DF05A505D1A5DAE05D0D89431
:100FF000D89056BED8802FD056C05DF059C05EF054
:1010000055505E5E06E05DAE26D0D850010AD86E1F
:1010100022D05AC05EF056505E5E06E05DAE1BD038
:10102000D850010AD86E17D05BC05EF057505E5E94
:1010300006E05DAE10D0D850010AD86E0CD05CC06E
:101040005EF058505E5E06E05DAE05D0D850010AF5
:10105000D86E01D0D890000C800ED8B2561A5B6AB8
:101060005C6A52C05AF056505A1A5150D8B4DCD06B
:10107000596E006E5550D8B4E0D0595ED8B481D0C6
:101080003DE356C05FF05F8E57C05EF058C05DF024
:101090005C6AD8905F325E325D325C32592EF8D78E
:1010A0005AAE03D05B80DDD05B9059905B88EA6AD2
:1010B000540EE96EE9D05B985ABE0AD059A013D0FD
:1010C0005F325E325D325C32002AD8B4C5D00BD0BC
:1010D0005FBE0CD0D8905C365D365E365F3600065B
:1010E000D8B4BAD0F5D75B8C6BD05B9C52C05AF0A9
:1010F00052AE02D05F8EA9D05F9EA7D055C059F0E6
:1011000055C000F05150595E52C05FF05F8E53C021
:101110005EF054C05DF05C6AD8905F325E325D3242
:101120005C32592EF8D75AAE03D05B829AD05B92CC
:1011300059905B8AEA6A580EE96EA6D05B9A5ABE4D
:101140000AD059A013D05F325E325D325C32002A81
:10115000D8B482D00BD05FBE0CD0D8905C365D3650
:101160005E365F360006D8B477D0F5D75B8E28D0D0
:101170005B9E56C05AF056AE02D05F8E66D05F9E20
:1011800064D056C05FF05F8E57C05EF058C05DF00F
:101190005AAE04D05F9E5B8464D05B945C6A5990C5
:1011A000EA6A540EE96E70D05ABE1CD052C05AF092
:1011B00059A006D05F325E325D325C32002A4CE0CC
:1011C0005CAE0BD05D2A09E15E2A07E15F2A05E1EA
:1011D0005F325E325D32002A3FE05BBC86D75BBE89
:1011E000C7D71CD0800E5F1A5FAE04D03AD056C06D
:1011F0005AF00AD052C05AF05F5206E15E5204E142
:101200005D5202E1006A21D05FBE08D0D8905C3602
:101210005D365E365F36002EF7D71ED05AAE02D04E
:101220005F8E13D05F9E11D055C000F056C05FF0A6
:1012300057C05EF058C05DF008D051C000F052C0F9
:101240005FF053C05EF054C05DF05FC001F05EC05F
:1012500002F05DC003F034D0006A016A026A036ADA
:101260002FD05C6A5D1E5E1E5F1E5C1E5C2A05E15F
:101270005D2A03E15E2A01E15F2A5BB015D75BB20C
:1012800056D75BB48AD7B3D7EF505D2605E35E2A05
:1012900003E15F2AD8B45980ED52EF505E2603E394
:1012A0005F2AD8B45980ED52EF50EFBE01D0800ACA
:1012B0005F26D8B059805BB8FED65BBA3FD774D7EB
:1012C000000C8E0E006E5150005E52C002F053C0F2
:1012D00001F0028E005209E0D890025202E1015260
:1012E00004E002320132002EF7D752AE05D0011EC3
:1012F000021E012AD8B4022A70EF11F08E0E006E81
:1013000057C001F056C002F0036A015209E102C061
:1013100001F0026A080E005E015202E1006A08D084
:10132000D89001BE04D0023601360006F9D7019EDE
:10133000B3EF09F05134006E0036FC0E001600C009
:1013400001F0C250C30B0010C26E0A0E646F3BEC7A
:1013500004F0C282C2B2FED7C4CF03F0C3CF56F0AE
:10136000C4CF57F0CBD703C055F002C054F001C032
:1013700053F000C052F052C000F053C001F054C00E
:1013800002F055C003F060EF18F0F86AD09E078EA7
:10139000EA6AE96A640E176E070E186E020E196E7D
:1013A0000B0E1A6E020E1B6E030E1C6E020E1D6ECD
:1013B0001E6E040E1F6E0A0E206E010E216E226A32
:1013C000236A246A0A0E256E266E276E286E296A05
:1013D0002A6A2B6A2C6A2D6A2E6A2F6A306A316A51
:1013E000326A336A34903492349434963498349A0E
:1013F000349C349E359035923594366A456A446AF9
:10140000436A426A496A486A476A466A3598359A21
:10141000359C359E4A904A924A944C6A4B6A4E6A71
:101420004D6A506A4F6AC150C00B0F09C16E070E5A
:10143000B46E3E0E376E200E386E5E0E396E3A6A0E
:101440003B6A3C6A3D6A3E6A3F6A406A416AC150F3
:10145000C00B0B09C16EC090C082C094C08EC28008
:10146000956A8C6A3586850ECD6E9D80000E0509C5
:10147000CA6EFF0ECB6E94948B94969C0C0EBD6E30
:10148000B76AB66AC00EF212BE6A81EC04F00C0EA6
:101490005E6EDEEC04F0F2CF51F0F29EA96AA69CDB
:1014A000A69EA680A85051BEF28E3E6E140E646FAA
:1014B0003BEC04F0F2CF51F0F29E010EA96EA69C17
:1014C000A69EA680A85051BEF28E3F6E140E646F89
:1014D0003BEC04F0F2CF51F0F29E020EA96EA69CF6
:1014E000A69EA680A85051BEF28E406E140E646F68
:1014F0003BEC04F0F2CF51F0F29E030EA96EA69CD5
:10150000A69EA680A85051BEF28E416E140E646F46
:101510003BEC04F0F2CF51F0F29E050EA96EA69CB2
:10152000A69EA680A85051BEF28E016E349401B0E2
:101530003484140E646F3BEC04F0F2CF51F0F29E51
:101540000A0EA96EA69CA69EA680A85051BEF28E39
:10155000276E140E646F3BEC04F0F2CF51F0F29E54
:101560000B0EA96EA69CA69EA680A85051BEF28E18
:10157000266E140E646F3BEC04F0F2CF51F0F29E35
:101580000C0EA96EA69CA69EA680A85051BEF28EF7
:10159000286E140E646F3BEC04F0F2CF51F0F29E13
:1015A0000D0EA96EA69CA69EA680A85051BEF28ED6
:1015B000296E140E646F3BEC04F029C025F0F2CFC5
:1015C00051F0F29E140EA96EA69CA69EA680A8506D
:1015D00051BEF28E226E140E646F3BEC04F0F2CF1B
:1015E00051F0F29E150EA96EA69CA69EA680A8504C
:1015F00051BEF28E2E6E140E646F3BEC04F022C0CE
:1016000023F02EC02FF0F2CF51F0F29E160EA96EED
:10161000A69CA69EA680A85051BEF28E326E140ED5
:10162000646F3BEC04F0F2CF51F0F29E170EA96EFE
:10163000A69CA69EA680A85051BEF28E306E32C0E7
:1016400033F030C031F0F2CF51F0F29E280EA96E87
:10165000A69CA69EA680A85051BEF28E246E536A08
:1016600024C052F052BE530608EC05F003C045F00A
:1016700002C044F001C043F000C042F0140E646F99
:101680003BEC04F0F2CF51F0F29E460EA96EA69C00
:10169000A69EA680A85051BEF28E2A6E140E646FCC
:1016A0003BEC04F0F2CF51F0F29E470EA96EA69CDF
:1016B000A69EA680A85051BEF28E2B6E140E646FAB
:1016C0003BEC04F0F2CF51F0F29E480EA96EA69CBE
:1016D000A69EA680A85051BEF28E2C6E140E646F8A
:1016E0003BEC04F0F2CF51F0F29E490EA96EA69C9D
:1016F000A69EA680A85051BEF28E016E359201B012
:101700003582C80E176E1750C8085AE135B857D041
:10171000020E516EFA0E646F3BEC04F0512EFAD7B4
:10172000928A80AA4CD081EC04F020C051F02CECBD
:1017300005F0010E5F6E606FADEC04F0FE0EF66E0C
:10174000010EF76E34EC05F0010E5F6E020E606F55
:10175000ADEC04F0140EF66E020EF76E34EC05F0EC
:10176000010E5F6E030E606FADEC04F02A0EF66E94
:10177000020EF76E34EC05F0010E5F6E040E606F22
:10178000ADEC04F0400EF66E020EF76E34EC05F090
:10179000080E516EFA0E646F3BEC04F0512EFAD72E
:1017A0000C0E5E6EDEEC04F03588176A3596020E7C
:1017B000516EFA0E646F3BEC04F0512EFAD7A3D7AA
:1017C0001752D8A4F4D1348EBE6A35A005D00C0EC1
:1017D0005E6EDEEC04F0FF00010E5F6E606FADEC3C
:1017E00004F0560EF66E020EF76E34EC05F0010EA4
:1017F0005F6E020E606FADEC04F06C0EF66E020EC2
:10180000F76E34EC05F0010E5F6E030E606FADEC09
:1018100004F0820EF66E020EF76E0A0E516E44EC64
:1018200005F03AC051F01F0E526E67EC05F03BC058
:1018300051F01F0E526E67EC05F03CC051F01F0EC8
:10184000526E67EC05F03DC051F01F0E526E67EC12
:1018500005F0200E5E6EDEEC04F0200E5E6EDEEC17
:1018600004F0968484A413D034B610D00B0E1A5C06
:10187000036A3A0FE96E000E0320EA6EEF2A3486FF
:101880001E0E646F3BEC04F04E6A4D6A01D0349634
:10189000968284A213D034BA10D00B0E1A5C036A5D
:1018A0003A0FE96E000E0320EA6EEF06348A1E0E30
:1018B000646F3BEC04F04E6A4D6A01D0349A928A10
:1018C00080AA0FD034B80CD034881A2A1E0E646F48
:1018D0003BEC04F00C0E5E6EDEEC04F04E6A4D6ADA
:1018E00001D03498968084A00FD034BC0CD0348CB6
:1018F0001A061E0E646F3BEC04F00C0E5E6EDEECFE
:1019000004F04E6A4D6A01D0349C0B0E1A5C036AD7
:101910003A0FE96E000E0320EA6EEFBE01D00AD046
:101920000B0E1A5C036A3A0FE96E000E0320EA6E92
:10193000090EEF6E0B0E1A5C036A3A0FE96E000E89
:101940000320EA6EEFBE0CD0EF50090809E20B0E3F
:101950001A5C036A3A0FE96E000E0320EA6EEF6A22
:101960001ABE03D01A500A0802E30B0E1A6E1AC0F0
:101970005FF0040E606FADEC04F039C05EF0DEEC99
:1019800004F01ABEFDD01A500E08D8B0F9D03A5063
:1019900003086DE13B5008086AE13C50090867E123
:1019A0003D50020864E1A96AA86AA69CA69EA68486
:1019B000F250006EF29E0F01550EA76EAA0EA76E92
:1019C000A682A6B2FED7A6940050F212140E000111
:1019D000646F3BEC04F0010EA96EA86AA69CA69E5B
:1019E000A684F250006EF29E0F01550EA76EAA0E4D
:1019F000A76EA682A6B2FED7A6940050F212140ECD
:101A00000001646F3BEC04F0020EA96EA86AA69C6C
:101A1000A69EA684F250006EF29E0F01550EA76E90
:101A2000AA0EA76EA682A6B2FED7A6940050F21206
:101A3000140E0001646F3BEC04F0030EA96EA86A5B
:101A4000A69CA69EA684F250006EF29E0F01550E33
:101A5000A76EAA0EA76EA682A6B2FED7A6940050C5
:101A6000F212140E0001646F3BEC04F0FF003E50D4
:101A70003A5C4FE13F503B5C4CE140503C5C49E1FB
:101A800041503D5C46E1010E5F6E606FADEC04F0CD
:101A9000980EF66E020EF76E34EC05F0010E5F6ED6
:101AA000020E606FADEC04F0AC0EF66E020EF76E37
:101AB00034EC05F0010E5F6E030E606FADEC04F0C8
:101AC000C00EF66E020EF76E34EC05F0010E5F6E7E
:101AD000040E606FADEC04F0D40EF66E020EF76EDD
:101AE00034EC05F0020E516EFA0E646F3BEC04F01C
:101AF000512EFAD7320E176E0B0E1A6E0C0E5E6E4A
:101B0000DEEC04F0349E35904A824E6A4D6A358E82
:101B100037D0010E5F6E606FADEC04F0010E5F6EAA
:101B2000020E606FADEC04F0E80EF66E020EF76E7A
:101B300034EC05F0010E5F6E030E606FADEC04F047
:101B4000FC0EF66E020EF76E34EC05F0010E5F6EC1
:101B5000040E606FADEC04F0100EF66E030EF76E1F
:101B600034EC05F0020E516EFA0E646F3BEC04F09B
:101B7000512EFAD70B0E1A6E0C0E5E6EDEEC04F0D0
:101B80001ABE14D01A500B0811E21ABE03D01A5014
:101B90000D080CE3010E1A5C516E5F6E040E606F4F
:101BA000ADEC04F038C05EF0DEEC04F009D6172C82
:101BB0000BD136BE01D001D0366A010E5F6E606F68
:101BC000ADEC04F0240EF66E030EF76E34EC05F067
:101BD000968484A40DD034B60AD01D061B06010ECF
:101BE0001B241C6E34861E0E646F3BEC04F001D087
:101BF0003496968284A20DD034BA0AD01D2A1B2AAC
:101C0000010E1B5C1C6E348A1E0E646F3BEC04F0EC
:101C100001D0349A1F50800A006E1D50800A005C6B
:101C200008E2362A1DC01FF0020E1F5C1E6E040E55
:101C30001B6E1D50800A006E1E50800A005C08E278
:101C400036061DC01EF0020E1E241F6E020E1B6EF5
:101C50001850800A006E1D50800A005C09E219C00D
:101C60001DF0020E1B6E366A1DC01EF01E241F6E74
:101C70001D50800A006E1950800A005C0BE218C0EB
:101C80001DF0040E1B6E185C366E1DC01FF0020E98
:101C90001F5C1E6E010E3624516E526E020E536E84
:101CA000CBEC05F0020E3624516E526E030E536ECD
:101CB000CBEC05F0030E3624516E526E040E536EBB
:101CC000CBEC05F0010E5F6E1BC060F0ADEC04F0D4
:101CD00037C05EF0DEEC04F01B50020814E1010E88
:101CE0005F6E040E606FADEC04F038C05EF0DEECA9
:101CF00004F0010E5F6E030E606FADEC04F038C0AF
:101D00005EF0DEEC04F01B50040814E1010E5F6E7F
:101D1000020E606FADEC04F038C05EF0DEEC04F053
:101D2000010E5F6E030E606FADEC04F038C05EF024
:101D3000DEEC04F01B50030814E1010E5F6E040E8C
:101D4000606FADEC04F038C05EF0DEEC04F0010E24
:101D50005F6E020E606FADEC04F038C05EF0DEEC3A
:101D600004F0928A80AA1AD034B817D01DC017F098
:101D7000030E1B6E020E516EFA0E646F3BEC04F004
:101D8000512EFAD70C0E5E6EDEEC04F017500608EA
:101D900004E13A6A3B6A3C6A3D6A01D03498968015
:101DA00084A011D034BC0ED0020E516EFA0E646FB6
:101DB0003BEC04F0512EFAD7140E176E0C0E5E6E2B
:101DC000DEEC04F001D0349C17500208D8A495D062
:101DD00034743488010E176E366A34A430D03484DB
:101DE000010E5F6E606FADEC04F03A0EF66E030EFE
:101DF000F76E34EC05F0010E5F6E020E606FADEC15
:101E000004F0500EF66E030EF76E34EC05F0010E82
:101E10005F6E030E606FADEC04F0660EF66E030E9F
:101E2000F76E34EC05F0010E5F6E040E606FADECE2
:101E300004F07C0EF66E030EF76E34EC05F034B44D
:101E400030D03494010E5F6E606FADEC04F0920EF2
:101E5000F66E030EF76E34EC05F0010E5F6E020EA7
:101E6000606FADEC04F0A80EF66E030EF76E34EC66
:101E700005F0010E5F6E030E606FADEC04F0BE0E58
:101E8000F66E030EF76E34EC05F0010E5F6E040E75
:101E9000606FADEC04F0D40EF66E030EF76E34EC0A
:101EA00005F0000E34B4010E516E050EA96E51C03E
:101EB000A8FFA69CA69EA684F250006EF29E0F017B
:101EC000550EA76EAA0EA76EA682A6B2FED7A6943E
:101ED0000050F212040E516EFA0E0001646F3BECDA
:101EE00004F0512E01D002D00F01F6D7020E1B6E66
:101EF0001D6E0C0E5E6EDEEC04F017500308D8A4C5
:101F000025D1010E5F6E606FADEC04F0EA0EF66E47
:101F1000030EF76E34EC05F0010E5F6E020E606F7B
:101F2000ADEC04F0000EF66E040EF76E090E516E65
:101F300044EC05F02CC051F0010E526E27EC06F077
:101F40003A0E5E6EDEEC04F02BC051F0010E526EC4
:101F500027EC06F03A0E5E6EDEEC04F02AC051F07B
:101F6000010E526E27EC06F0200E5E6EDEEC04F0E1
:101F700035A20DD0010E5F6E030E606FADEC04F064
:101F80001A0EF66E040EF76E34EC05F00CD0010E4E
:101F90005F6E030E606FADEC04F0300EF66E040E53
:101FA000F76E34EC05F0010E5F6E040E606FADEC61
:101FB00004F0460EF66E040EF76E34EC05F09684CF
:101FC00084A477D0C80E646F3BEC04F00C0E5E6EF8
:101FD000DEEC04F0010E5F6E020E606FADEC04F0FB
:101FE0005C0EF66E040EF76E34EC05F0010E5F6EBB
:101FF000030E606FADEC04F06E0EF66E040EF76E1D
:1020000034EC05F0460EA96EA86AA69CA69EA6848E
:10201000F250006EF29E0F01550EA76EAA0EA76E2B
:10202000A682A6B2FED7A6940050F212470EA96E61
:10203000A86AA69CA69EA684F250006EF29E550E3B
:10204000A76EAA0EA76EA682A6B2FED7A6940050CF
:10205000F212480EA96EA86AA69CA69EA684F2500B
:10206000006EF29E550EA76EAA0EA76EA682A6B2AD
:10207000FED7A6940050F212040E516EAF0E00016E
:10208000646F3BEC04F0512E01D002D00F01F6D763
:102090002A6A2B6A2C6A1E0E646F3BEC04F0010E58
:1020A000176E366A020E1B6E1D6E0C0E5E6EDEEC37
:1020B00004F0928A80AA30D03572000E35B2010E3B
:1020C000516E490EA96E51C0A8FFA69CA69EA6847B
:1020D000F250006EF29E0F01550EA76EAA0EA76E6B
:1020E000A682A6B2FED7A6940050F212020E516E3E
:1020F000FA0E0001646F3BEC04F0512E01D002D0C7
:102100000F01F6D7010E176E366A020E1B6E1D6E9A
:102110000C0E5E6EDEEC04F0968084A016D034BC0B
:1021200013D0348C020E516EFA0E646F3BEC04F047
:10213000512EFAD7010E176E366A020E1B6E1D6EF7
:102140000C0E5E6EDEEC04F001D0349C17500408D7
:10215000D8A4FBD0010E5F6E020E606FADEC04F0F0
:10216000800EF66E040EF76E34EC05F0010E5F6E15
:10217000030E606FADEC04F0960EF66E040EF76E73
:10218000060E516E44EC05F0420EE96E45C054F067
:1021900044C053F043C052F042C051F0556A31EF91
:1021A00007F0A20EF66E040EF76E080E516E44ECA8
:1021B00005F045C058F044C057F043C056F042C047
:1021C00055F05C6A5B6A5A6A7F0E596EF1EC07F053
:1021D00005E3456A446A436A7F0E426E586A576A4D
:1021E0007F0E566E860E556E45C05CF044C05BF0A7
:1021F00043C05AF042C059F0F1EC07F006E3456ADB
:10220000446A7F0E436E860E426E968484A41DD06F
:10221000D89245C054F044C053F043C052F042C07D
:1022200051F0586A576A566A7F0E556E2CEC08F0CA
:1022300003C045F002C044F001C043F000C042F0CA
:1022400034861E0E646F3BEC04F0968284A21DD08F
:10225000D88245C054F044C053F043C052F042C04D
:1022600051F0586A576A566A7F0E556E2CEC08F08A
:1022700003C045F002C044F001C043F000C042F08A
:10228000348A1E0E646F3BEC04F0928A80AA41D01F
:1022900034B83ED0010E176E366A020E1B6E1D6EEC
:1022A0000B0E1A6E020E516EFA0E646F3BEC04F0C8
:1022B000512EFAD70C0E5E6EDEEC04F045C049F0EC
:1022C00044C048F043C047F042C046F045C054F017
:1022D00044C053F043C052F042C051F061EF09F0E6
:1022E00001C024F0280EA96E24C0A8FFA69CA69EBB
:1022F000A684F250006EF29E0F01550EA76EAA0E34
:10230000A76EA682A6B2FED7A6940050F2120001D4
:1023100001D03498968084A017D034BC14D0010E1C
:10232000176E366A020E1B6E1D6E0B0E1A6E020EB3
:10233000516EFA0E646F3BEC04F0512EFAD70C0E7E
:102340005E6EDEEC04F001D0349C17500508D8A472
:1023500084D1010E5F6E606FADEC04F0AC0EF66ED2
:10236000040EF76E34EC05F0010E5F6E020E606F26
:10237000ADEC04F0C20EF66E040EF76E34EC05F010
:10238000010E5F6E030E606FADEC04F0D80EF66EBA
:10239000040EF76E0A0E516E44EC05F03AC051F08F
:1023A0001F0E526E67EC05F03BC051F01F0E526ECF
:1023B00067EC05F03CC051F01F0E526E67EC05F063
:1023C0003DC051F01F0E526E67EC05F0200E5E6EA0
:1023D000DEEC04F0200E5E6EDEEC04F0968484A445
:1023E00011D034B60ED00B0E1A5C036A3A0FE96EA8
:1023F000000E0320EA6EEF2A34861E0E646F3BEC5B
:1024000004F001D03496968284A211D034BA0ED052
:102410000B0E1A5C036A3A0FE96E000E0320EA6E97
:10242000EF06348A1E0E646F3BEC04F001D0349A40
:10243000928A80AA11D034B80ED034881A2A020E9B
:10244000516EFA0E646F3BEC04F0512EFAD70C0E6D
:102450005E6EDEEC04F001D03498968084A011D03A
:1024600034BC0ED0348C1A06020E516EFA0E646F14
:102470003BEC04F0512EFAD70C0E5E6EDEEC04F04D
:1024800001D0349C0B0E1A5C036A3A0FE96E000E01
:102490000320EA6EEFBE01D00AD00B0E1A5C036A6D
:1024A0003A0FE96E000E0320EA6E090EEF6E0B0E76
:1024B0001A5C036A3A0FE96E000E0320EA6EEFBE63
:1024C0000CD0EF50090809E20B0E1A5C036A3A0FB0
:1024D000E96E000E0320EA6EEF6A1ABE03D01A50AE
:1024E0000A0808E3010E176E366A020E1B6E1D6E97
:1024F0000B0E1A6E1AC05FF0040E606FADEC04F0A4
:1025000039C05EF0DEEC04F01ABE91D01A500E080D
:10251000D8B08DD03E503A5C4DE13F503B5C4AE133
:1025200040503C5C47E141503D5C44E1010E5F6E30
:10253000606FADEC04F0EE0EF66E040EF76E34EC48
:1025400005F0010E5F6E020E606FADEC04F0040E3C
:10255000F66E050EF76E34EC05F0010E5F6E030E9D
:10256000606FADEC04F01A0EF66E050EF76E34ECEB
:1025700005F0010E5F6E040E606FADEC04F0300EDE
:10258000F66E050EF76E34EC05F0020E516EFA0E83
:10259000646F3BEC04F0512EFAD7330E176E0B0E1E
:1025A0001A6E0C0E5E6EDEEC04F03A6A3B6A3C6A10
:1025B0003D6A3DD0010E5F6E606FADEC04F0460EDB
:1025C000F66E050EF76E34EC05F0010E5F6E020E2E
:1025D000606FADEC04F05C0EF66E050EF76E34EC39
:1025E00005F0010E5F6E030E606FADEC04F0720E2D
:1025F000F66E050EF76E34EC05F0010E5F6E040EFC
:10260000606FADEC04F0880EF66E050EF76E34ECDC
:1026100005F0020E516EFA0E646F3BEC04F0512E81
:10262000FAD70B0E1A6E0C0E5E6EDEEC04F01ABEBC
:1026300014D01A500B0811E21ABE03D01A500D081C
:102640000CE3010E1A5C516E5F6E040E606FADEC10
:1026500004F038C05EF0DEEC04F017503308D8A464
:102660008FD1010E5F6E606FADEC04F09E0EF66EC2
:10267000050EF76E34EC05F0010E5F6E020E606F12
:10268000ADEC04F0B40EF66E050EF76E34EC05F00A
:10269000010E5F6E030E606FADEC04F0CA0EF66EB5
:1026A000050EF76E0A0E516E44EC05F03AC051F07B
:1026B0001F0E526E67EC05F03BC051F01F0E526EBC
:1026C00067EC05F03CC051F01F0E526E67EC05F050
:1026D0003DC051F01F0E526E67EC05F0200E5E6E8D
:1026E000DEEC04F0200E5E6EDEEC04F0968484A432
:1026F00011D034B60ED00B0E1A5C036A3A0FE96E95
:10270000000E0320EA6EEF2A34861E0E646F3BEC47
:1027100004F001D03496968284A211D034BA0ED03F
:102720000B0E1A5C036A3A0FE96E000E0320EA6E84
:10273000EF06348A1E0E646F3BEC04F001D0349A2D
:10274000928A80AA0DD034B80AD034881A2A1E0E74
:10275000646F3BEC04F00C0E5E6EDEEC04F001D016
:102760003498968084A00DD034BC0AD0348C1A06DC
:102770001E0E646F3BEC04F00C0E5E6EDEEC04F09B
:1027800001D0349C0B0E1A5C036A3A0FE96E000EFE
:102790000320EA6EEFBE01D00AD00B0E1A5C036A6A
:1027A0003A0FE96E000E0320EA6E090EEF6E0B0E73
:1027B0001A5C036A3A0FE96E000E0320EA6EEFBE60
:1027C0000CD0EF50090809E20B0E1A5C036A3A0FAD
:1027D000E96E000E0320EA6EEF6A1ABE03D01A50AB
:1027E0000A0804E3050E176E0B0E1A6E1AC05FF08E
:1027F000040E606FADEC04F039C05EF0DEEC04F066
:102800001ABEA8D01A500E08D8B0A4D0010E5F6E20
:10281000606FADEC04F0E00EF66E050EF76E34EC72
:1028200005F0010E5F6E020E606FADEC04F0F60E67
:10283000F66E050EF76E34EC05F0010E5F6E030EBA
:10284000606FADEC04F00C0EF66E060EF76E34EC15
:1028500005F0010E5F6E040E606FADEC04F0220E09
:10286000F66E060EF76E34EC05F0A96A3AC0A8FFC2
:10287000A69CA69EA684F250006EF29E0F01550EF5
:10288000A76EAA0EA76EA682A6B2FED7A694005087
:10289000F212140E0001646F3BEC04F0010EA96EFD
:1028A0003BC0A8FFA69CA69EA684F250006EF29E96
:1028B0000F01550EA76EAA0EA76EA682A6B2FED76E
:1028C000A6940050F212140E0001646F3BEC04F069
:1028D000020EA96E3CC0A8FFA69CA69EA684F2503C
:1028E000006EF29E0F01550EA76EAA0EA76EA6826D
:1028F000A6B2FED7A6940050F212140E0001646F27
:102900003BEC04F0030EA96E3DC0A8FFA69CA69E5A
:10291000A684F250006EF29E0F01550EA76EAA0E0D
:10292000A76EA682A6B2FED7A6940050F212140E8D
:102930000001646F3BEC04F0020E516EFA0E646FFE
:102940003BEC04F0512EFAD7010E176E366A020ED8
:102950001B6E1D6E1ABE14D01A500B0811E21ABE5F
:1029600003D01A500D080CE3010E1A5C516E5F6E15
:10297000040E606FADEC04F038C05EF0DEEC04F0E5
:1029800017500608D8A41FD1010E5F6E606FADEC22
:1029900004F0380EF66E060EF76E34EC05F0010EFC
:1029A0005F6E020E606FADEC04F04E0EF66E060E1A
:1029B000F76E34EC05F0060E5F6E030E606FADEC43
:1029C00004F023C051F0010E526E27EC06F03A0ECF
:1029D0005E6EDEEC04F02FC051F0010E526E27EC5B
:1029E00006F06D0EF66E060EF76E080E516E44EC94
:1029F00005F0060E2124516E5F6E040E606FADEC83
:102A000004F039C05EF0DEEC04F021BE03D02150AA
:102A1000000802E3010E216E21BE05D021500308FB
:102A200002E2030E216E968484A423D0212C0FD0C1
:102A3000232A23BE04D023503B0801E2236A020E5E
:102A4000516E960E646F3BEC04F0512EFAD7215074
:102A500003080FE12F2A2FBE04D02F503B0801E2BC
:102A60002F6A020E516E960E646F3BEC04F0512EED
:102A7000FAD7968284A221D0212C0ED0230623BE21
:102A800001D002D03B0E236E020E516E960E646F83
:102A90003BEC04F0512EFAD7215003080EE12F062B
:102AA0002FBE01D002D03B0E2F6E020E516E960E3D
:102AB000646F3BEC04F0512EFAD7928A80AA19D0A9
:102AC000212C03D0030E216E08D02150030803E10E
:102AD000010E216E02D0030E216E020E516EFA0E0F
:102AE000646F3BEC04F0512EFAD70C0E5E6EDEECF8
:102AF00004F0968084A067D0C80E646F3BEC04F0AD
:102B00000C0E5E6EDEEC04F0010E5F6E020E606F66
:102B1000ADEC04F0760EF66E060EF76E34EC05F0B2
:102B2000010E5F6E030E606FADEC04F0880EF66E62
:102B3000060EF76E34EC05F0140EA96E23C0A8FF44
:102B4000A69CA69EA684F250006EF29E0F01550E22
:102B5000A76EAA0EA76EA682A6B2FED7A6940050B4
:102B6000F212150EA96E2FC0A8FFA69CA69EA684E1
:102B7000F250006EF29E550EA76EAA0EA76EA682A8
:102B8000A6B2FED7A6940050F21223C022F02FC0A6
:102B90002EF0040E516EAF0E0001646F3BEC04F09A
:102BA000512E01D002D00F01F6D71E0E646F3BEC00
:102BB00004F0010E176E366A020E1B6E1D6E0C0EAF
:102BC0005E6EDEEC04F017500708D8A41CD1010E8D
:102BD0005F6E606FADEC04F09A0EF66E060EF76E47
:102BE00034EC05F0010E5F6E020E606FADEC04F088
:102BF000B00EF66E060EF76E34EC05F0060E5F6E44
:102C0000030E606FADEC04F033C051F0010E526E54
:102C100027EC06F03A0E5E6EDEEC04F031C051F0A7
:102C2000010E526E27EC06F0CF0EF66E060EF76E12
:102C3000080E516E44EC05F0060E2124516E5F6EB5
:102C4000040E606FADEC04F039C05EF0DEEC04F011
:102C500021BE03D02150000802E3010E216E21BEE7
:102C600005D02150030802E2030E216E968484A44D
:102C700023D0212C0FD0332A33BE04D033503B084D
:102C800001E2336A020E516E960E646F3BEC04F063
:102C9000512EFAD7215003080FE1312A31BE04D05A
:102CA00031503B0801E2316A020E516E960E646F9C
:102CB0003BEC04F0512EFAD7968284A221D0212C2D
:102CC0000ED0330633BE01D002D03B0E336E020E5F
:102CD000516E960E646F3BEC04F0512EFAD72150E2
:102CE00003080EE1310631BE01D002D03B0E316E39
:102CF000020E516E960E646F3BEC04F0512EFAD723
:102D0000928A80AA16D0212C03D0030E216E05D002
:102D10002150030802E1010E216E020E516EFA0EDF
:102D2000646F3BEC04F0512EFAD70C0E5E6EDEECB5
:102D300004F0968084A067D0C80E646F3BEC04F06A
:102D40000C0E5E6EDEEC04F0010E5F6E020E606F24
:102D5000ADEC04F0D80EF66E060EF76E34EC05F00E
:102D6000010E5F6E030E606FADEC04F0EA0EF66EBE
:102D7000060EF76E34EC05F0160EA96E33C0A8FFF0
:102D8000A69CA69EA684F250006EF29E0F01550EE0
:102D9000A76EAA0EA76EA682A6B2FED7A694005072
:102DA000F212170EA96E31C0A8FFA69CA69EA6849B
:102DB000F250006EF29E550EA76EAA0EA76EA68266
:102DC000A6B2FED7A6940050F21233C032F031C042
:102DD00030F0040E516EAF0E0001646F3BEC04F056
:102DE000512E01D002D00F01F6D71E0E646F3BECBE
:102DF00004F0010E176E366A020E1B6E1D6E0C0E6D
:102E00005E6EDEEC04F017501408D8A410D135AC77
:102E100030D0010E5F6E606FADEC04F0FC0EF66E0C
:102E2000060EF76E34EC05F0010E5F6E020E606F59
:102E3000ADEC04F0060EF66E070EF76E34EC05F0FE
:102E4000010E5F6E030E606FADEC04F0100EF66EB7
:102E5000070EF76E34EC05F00B0E5F6E020E606F1E
:102E6000ADEC04F0200EF66E070EF76E34EC05F0B4
:102E7000359C35A235D0536A2CC052F052BE530651
:102E800008EC05F045C058F044C057F043C056F078
:102E900042C055F003C05CF002C05BF001C05AF0C4
:102EA00000C059F0F1EC07F001E20DE10A0E5F6E8F
:102EB000010E606FADEC04F02C0EF66E070EF76E8F
:102EC00034EC05F00CD00A0E5F6E010E606FADECB5
:102ED00004F0380EF66E070EF76E34EC05F00CD0E9
:102EE0000A0E5F6E010E606FADEC04F0440EF66EDC
:102EF000070EF76E34EC05F034A00FD08A88939853
:102F0000010E5F6E040E606FADEC04F0500EF66EB5
:102F1000070EF76E34EC05F00ED08A989398010EE8
:102F20005F6E040E606FADEC04F0580EF66E070E87
:102F3000F76E34EC05F034A20DD00A0E5F6E040E6D
:102F4000606FADEC04F0620EF66E070EF76E34ECB7
:102F500005F010D04AA002D08A9A939A0A0E5F6EAA
:102F6000040E606FADEC04F06C0EF66E070EF76E9B
:102F700034EC05F0968284A209D034B606D03486AB
:102F8000C80E646F3BEC04F0347001D03496968028
:102F900084A01CD034BA19D0348AC80E646F3BECBC
:102FA00004F0347234A209D08A8A939A960E646F20
:102FB0003BEC04F081EC04F008D08A9A939A960EC8
:102FC000646F3BEC04F081EC04F001D0349A9684F9
:102FD00084A417D034B814D0020E516EFA0E646F68
:102FE0003BEC04F0512EFAD70C0E5E6EDEEC04F0D2
:102FF000010E176E366A020E1B6E1D6E0B0E1A6ED8
:1030000001D03498928A80AA11D034BC0ED0020E1E
:10301000516EFA0E646F3BEC04F0512EFAD70C0E91
:103020005E6EDEEC04F0280E176E01D0349C175053
:103030001E08D8A4CBD0010E5F6E606FADEC04F01B
:10304000780EF66E070EF76E34EC05F0010E5F6E2B
:10305000020E606FADEC04F08E0EF66E070EF76E8A
:1030600034EC05F0010E5F6E030E606FADEC04F002
:10307000A40EF66E070EF76E060E516E44EC05F0C8
:1030800032C051F0010E526E27EC06F03A0E5E6E21
:10309000DEEC04F030C051F0010E526E27EC06F069
:1030A000200E5E6EDEEC04F0200E5E6EDEEC04F0B0
:1030B00035AA8BD08A989398020E516E9AEF09F038
:1030C00000C051F001C052F002C053F003C054F0F0
:1030D00003C058F002C057F001C056F000C055F0D0
:1030E0005C6A5B6A400E5A6E810E596EF1EC07F015
:1030F0006BE3305269E1325267E1460EA96E2AC095
:10310000A8FFA69CA69EA684F250006EF29E0F0118
:10311000550EA76EAA0EA76EA682A6B2FED7A694DB
:103120000050F212470EA96E2BC0A8FFA69CA69EC7
:10313000A684F250006EF29E550EA76EAA0EA76EE0
:10314000A682A6B2FED7A6940050F212480EA96E2F
:103150002CC0A8FFA69CA69EA684F250006EF29EEC
:10316000550EA76EAA0EA76EA682A6B2FED7A6948B
:103170000050F2120C0E5E6E0001DEEC04F0010E47
:103180005F6E020E606FADEC04F0B60EF66E070EC9
:10319000F76E34EC05F0010E5F6E030E606FADEC60
:1031A00004F0CA0EF66E070EF76E34EC05F0080E4A
:1031B000516EFA0E646F3BEC04F0512EFAD70C0EF0
:1031C0005E6EDEEC04F0FF00359A31D71750280808
:1031D00060E1010E5F6E606FADEC04F0DE0EF66E26
:1031E000070EF76E34EC05F0010E5F6E020E606F95
:1031F000ADEC04F0F40EF66E070EF76E34EC05F04D
:10320000010E5F6E030E606FADEC04F00A0EF66EF9
:10321000080EF76E34EC05F0010E5F6E040E606F61
:10322000ADEC04F0200EF66E080EF76E34EC05F0EF
:10323000928A80AA11D034B80ED034881E0E176E30
:1032400020C051F02CEC05F08A9C939C0C0E5E6E15
:10325000DEEC04F04A8401D03498968084A018D023
:1032600034BC15D0348C140E176E366A020E1B6EE9
:103270001D6E0B0E1A6E020E516EFA0E646F3BEC51
:1032800004F0512EFAD70C0E5E6EDEEC04F001D085
:10329000349C1750320859E1010E5F6E606FADEC3F
:1032A00004F0360EF66E080EF76E34EC05F0010EE3
:1032B0005F6E020E606FADEC04F04C0EF66E080E01
:1032C000F76E34EC05F0010E5F6E030E606FADEC2F
:1032D00004F0620EF66E080EF76E060E516E44ECA8
:1032E00005F022C051F0010E526E27EC06F03A0EA6
:1032F0005E6EDEEC04F02EC051F0010E526E27EC33
:1033000006F0200E5E6EDEEC04F0200E5E6EDEEC4B
:1033100004F0200E5E6EDEEC04F08A8A939A8A989E
:103320009398968084A011D04A928A8A939A8A8828
:10333000939834823480140E176E040E516EFA0E78
:10334000646F3BEC04F0512EFAD72DBE06D02D5001
:10335000130803E281EC04F02D6A35A604D0516A0B
:103360002CEC05F00300175203E117501E083BE058
:1033700035AA37D0536A2CC052F052BE530608EC1F
:1033800005F045C058F044C057F043C056F042C065
:1033900055F003C05CF002C05BF001C05AF000C001
:1033A00059F0F1EC07F001E216E11750140813E1AF
:1033B00034A403D08A8C939C02D08A9C939C35744D
:1033C00035A405D020C051F02CEC05F003D0516A93
:1033D0002CEC05F006D020C051F02CEC05F08A9CB6
:1033E000939C359A06D020C051F02CEC05F08A9CB5
:0833F000939C83EF0BF0030036
:020000040030CA
:0E00000020CE1E1E008781000FC00FE00F40B3
:00000001FF
;PIC18F4550
;CRC=3494  CREATED="13-dic.-17 15:41"
