:1000000002EF00F0F86AD09EEA6AE96AC150C00BBC
:100010000F09C16E070EB46EC150C00B0F09C16E3F
:10002000956A8C6A928080B01BD0928280B218D080
:10003000928480B415D0928680B612D0928A80BA0B
:100040000FD0968084B00CD0968284B209D096846A
:1000500084B406D0948082B003D0948282A205D06A
:100060008C8095908C82959204D08C9095908C92F7
:060070009592D8D70300B1
:020000040030CA
:0E00000020CE1E1E008781000FC00FE00F40B3
:00000001FF
;PIC18F4550
;CRC=6EC7  CREATED="10-mar.-16 15:11"
