:0400000056EF2FF098
:0800080057EF00F000000000BA
:100010000000000000000000046ED8CF05F0E0CF23
:1000200006F00001E9CF0CF0EACF07F0E1CF08F0CD
:10003000E2CF09F0D9CF0AF0DACF0BF0F3CF12F00C
:10004000F4CF13F0FACF14F0FBCF15F000C00EF090
:1000500001C00FF002C010F003C011F09DAA34EFF0
:1000600000F09EBA8DEF02F00EC000F00FC001F05C
:1000700010C002F011C003F00CC0E9FF07C0EAFF96
:10008000078E08C0E1FF09C0E2FF0AC0D9FF0BC01C
:10009000DAFF12C0F3FF13C0F4FF14C0FAFF15C05B
:1000A000FBFF045006C0E0FF05C0D8FF1000176E2C
:1000B000D8CF18F0E0CF19F00001E9CF1FF0EACF58
:1000C0001AF0E1CF1BF0E2CF1CF0D9CF1DF0DACF50
:1000D0001EF0F3CF25F0F4CF26F0FACF27F0FBCFB8
:1000E00028F000C021F001C022F002C023F003C0BC
:1000F00024F0F2AA7FEF00F0F2B464EF02F0F2A86D
:1001000085EF00F0F2B225EF02F0F0A68BEF00F0E1
:10011000F0B0B9EF01F021C000F022C001F023C01F
:1001200002F024C003F01FC0E9FF1AC0EAFF1A8ED4
:100130001BC0E1FF1CC0E2FF1DC0D9FF1EC0DAFFDB
:1001400025C0F3FF26C0F4FF27C0FAFF28C0FBFF3D
:10015000175019C0E0FF18C0D8FF10006A302E7683
:10016000616C3D2575006A312E76616C3D30000072
:100170006A322E76616C3D3000006A332E76616CF7
:100180003D3000006A312E76616C3D2575006A3085
:100190002E76616C3D31303000006A322E76616C13
:1001A0003D3000006A332E76616C3D3000006A32CB
:1001B0002E76616C3D2575006A302E76616C3D317E
:1001C000303000006A312E76616C3D3130300000F5
:1001D0006A332E76616C3D3000006A332E76616C96
:1001E0003D2575006A302E76616C3D31303000005F
:1001F0006A312E76616C3D31303000006A322E76E5
:10020000616C3D31303000006A342E76616C3D25E2
:1002100075006A352E76616C3D3000006A362E76A8
:10022000616C3D3000006A372E76616C3D30000015
:100230006A352E76616C3D2575006A342E76616CC8
:100240003D31303000006A362E76616C3D30000062
:100250006A372E76616C3D3000006A362E76616C0E
:100260003D2575006A342E76616C3D3130300000DA
:100270006A352E76616C3D31303000006A372E765B
:10028000616C3D3000006A372E76616C3D2575004B
:100290006A342E76616C3D31303000006A352E763E
:1002A000616C3D31303000006A362E76616C3D3134
:1002B000303000005072696E636970616C2E626349
:1002C0006F3D254C750066656368612E62636F3D06
:1002D000254C750065737461646F2E62636F3D25F4
:1002E0004C7500006665782E62636F3D254C750085
:1002F00066646F776E2E62636F3D254C75007433B4
:100300002E62636F3D254C75000074322E62636F60
:100310003D254C75000070646F776E2E62636F3DF3
:10032000254C75007065782E62636F3D254C750015
:100330000B013551070B006E3531016E0132013270
:100340001F0E011601503725E96E000E3821EA6EA6
:10035000016A012A002A01D00136002EFDD736534A
:1003600003E00150EF1203D0011E0150EF1600010F
:10037000000CCE500201D96FCFCFDAF2DB51D95D3C
:10038000DD6FDC51DA59DE6FDAC2DCF2D9C2DBF2A2
:1003900000017E8B80AB3DD00201DE51030819E2E3
:1003A000FF0A03E1DD51B00814E2DE51060811E353
:1003B00003E1DD513F080DE3ABC035FB010E0B013E
:1003C000366F020E386FD50E376F0001B1DFAB2BE1
:1003D0000201DE51000817E2FF0A03E1DD51F408D3
:1003E00012E2DE5103080FE303E1DD5183080BE362
:1003F000ABC035FB0B01366B020E386FD50E376F75
:10040000000196DFAB2B0001AB511F0802E2808D8B
:10041000809B0201DE510C0814E2FF0A03E1DD516A
:10042000AC080FE2DE511D080CE303E1DD514B087F
:1004300008E3000180AB02D0020103D0808BAB6BDC
:100440000201F09000018BEF00F080877F890201AC
:10045000D351050808E1D76AE40ED66E8B969496C0
:100460008B9494942AD0D351040808E1D76AC90E1A
:10047000D66E8B9694968B9494941FD0D351030888
:1004800008E1D76AB40ED66E8B9694968B949494AA
:1004900014D0D351020808E1D76AA50ED66E8B9608
:1004A00094968B94949409D0D32D07D0D76A960E46
:1004B000D66E8B9694968B949494CD2BD8B4CE2BE9
:1004C000F29200018BEF00F00201D35316E0D351FA
:1004D000050813E3000180A709D08B8694968B84CE
:1004E0009494D76AFD0ED66E809706D08B9694961C
:1004F0008B949494D76AD66A0201F29400018BEF30
:1005000000F09EAAFED7ABCF2AF0AECF01F02AA210
:1005100002D0AB98AB888EEF02F0F3D701C0A6F003
:10052000A651650803E1010EA76F476AA72D0AD0FF
:10053000036A47503C0FE96E000E0320EA6EA6C026
:10054000EFFF472A4750090802E2476AA76B475264
:1005500010E13C5065080BE13D3C09D03E3C07D022
:10056000445205E1453C03D0050E9D6F02D00A0EB2
:100570009D6F9E9A34EF00F0706167652042696557
:100580006E76656E696461007061676520436C61B9
:10059000766500007061676520416A7573746573E4
:1005A000000074302E7478743D2225752200766127
:1005B000302E76616C3D310074302E7478743D229B
:1005C0002575257522007661302E76616C3D3200EE
:1005D00074302E7478743D2225752575257522009A
:1005E0007661302E76616C3D330074302E747874F1
:1005F0003D22257525752575257522007661302EDD
:1006000076616C3D340074302E7478743D22220083
:100610007061676520436C617665436F72726563D4
:10062000746100007061676520436C6176654261AA
:1006300064007061676520436F6E66696700706172
:10064000676520416A757374657300007061676542
:1006500020436C6176650000746974756C6F2E744C
:1006600078743D22436C617665204E756576612213
:1006700000007061676520416A75737465730000DE
:10068000746974756C6F2E7478743D22436C617656
:1006900065204E75657661220000706167652041B6
:1006A0006A75737465730000746974756C6F2E7469
:1006B00078743D22436C617665204E7565766122C3
:1006C0000000646F6576656E7473000074697475FC
:1006D0006C6F2E7478743D22436C617665204163A3
:1006E0007475616C2200646F6576656E74730000CA
:1006F000746974756C6F2E7478743D22436C6176E6
:1007000065205465636E69636F220000646F6576CF
:10071000656E74730000746974756C6F2E747874F0
:100720003D22496E677265736520436F6E74726116
:100730007365F16122007061676520436C617665C5
:10074000436F727265637461000070616765204376
:100750006C617665426164007061676520436F6E0D
:10076000666967007061676520416A7573746573B7
:1007700000007061676520436C61766500007469F4
:1007800074756C6F2E7478743D22436C61766520AD
:100790004E756576612200007061676520416A755B
:1007A000737465730000746974756C6F2E7478745B
:1007B0003D22436C617665204E75657661220000AE
:1007C0007061676520416A757374657300006665C2
:1007D0006368612E7478743D2246656368613A25CA
:1007E0003032752F253032752F323025303275205A
:1007F000202020486F72613A20253032753A25302A
:1008000032753A253032752020220000706167650C
:10081000205469656D706F5075726761000070617A
:100820006765205469656D706F5556007061676526
:100830002054696D65506F73745000007061676576
:10084000204D746F000070616765204665636861C4
:1008500000007061676520436C617665000070611F
:10086000676520436C6176650000706167652050A4
:1008700072696E636970616C000066656368612E01
:100880007478743D2246656368613A253032752F6D
:10089000253032752F323025303275202020204807
:1008A0006F72613A20253032753A253032753A251B
:1008B0003032752020220000747365636573742ED6
:1008C00070636F3D363535333500746D696E657311
:1008D000742E70636F3D3000747365636573742E9E
:1008E00070636F3D3000746D696E6573742E706354
:1008F0006F3D3635353335007061676520416A7567
:10090000737465730000746D696E6573742E74780A
:10091000743D22253032752200007473656365735F
:10092000742E7478743D222530327522000066657D
:100930006368612E7478743D2246656368613A2568
:100940003032752F253032752F32302530327520F8
:10095000202020486F72613A20253032753A2530C8
:1009600032753A2530327520202200007473656399
:100970006573742E70636F3D363535333500746D95
:10098000696E6573742E70636F3D300074736563B8
:100990006573742E70636F3D3000746D696E65739E
:1009A000742E70636F3D3635353335007061676581
:1009B00020416A75737465730000746D696E6573A8
:1009C000742E7478743D22253032752200007473C1
:1009D00065636573742E7478743D222530327522F8
:1009E0000000746974756C6F2E7478743D225075B4
:1009F000726761220000746974756C6F2E7478746C
:100A00003D222155626963616E646F20656C2076BA
:100A1000696472696F2122006D696E507572676139
:100A20002E7478743D222530327522007365635030
:100A3000757267612E7478743D22253032752200FC
:100A400066656368612E7478743D224665636861EB
:100A50003A253032752F253032752F32302530321D
:100A60007520202020486F72613A20253032753A77
:100A7000253032753A253032752020220000706111
:100A80006765205072696E636970616C0000706107
:100A90006765205072696E636970616C00006665FD
:100AA000782E7478743D2256656C6F636964616456
:100AB0003A2025752022000066646F776E2E7478C8
:100AC000743D224578747261636369F36E3A202540
:100AD000322E3266206D2F73220066656368612EA8
:100AE0007478743D2246656368613A253032752F0B
:100AF000253032752F3230253032752020202048A5
:100B00006F72613A20253032753A253032753A25B8
:100B100030327520220070646F776E2E7478743DC9
:100B20002225303375252522000062302E7069633E
:100B30003D36000062302E7069633D370000623040
:100B40002E7069633D37000065737461646F2E74A5
:100B500078743D225065726469646120466C756AE0
:100B60006F22000069636F6E2E7069633D3137003C
:100B700065737461646F2E7478743D225562697177
:100B800075652056696472696F22000069636F6E33
:100B90002E7069633D31360065737461646F2E7425
:100BA00078743D224D6F646F2045636F220065733A
:100BB0007461646F2E7478743D224F706572616346
:100BC00069F36E20536567757261220069636F6E09
:100BD0002E7069633D31350062322E7069633D319C
:100BE000320062322E7069633D31330062312E7003
:100BF00069633D38000062312E7069633D39000041
:100C00007061676520506F73745075726761000082
:100C10007061676520416A75737465730000706167
:100C2000676520416A757374657300006D696E5065
:100C3000757267612E7478743D22253032752200FA
:100C400073656350757267612E7478743D22253028
:100C50003275220066656368612E7478743D2246A1
:100C6000656368613A253032752F253032752F3231
:100C7000302530327520202020486F72613A2025BF
:100C80003032753A253032753A25303275202022BF
:100C9000000070616765205072696E636970616CF5
:100CA000000070616765204F6666000070616765CF
:100CB00020416A7573746573000074686F72612EE9
:100CC0007478743D2225303275220000746D696E8F
:100CD00075746F732E7478743D222530327522003E
:100CE000746469612E7478743D2225303275220057
:100CF000746D65732E7478743D2225303275220030
:100D000074796561722E7478743D222530327522B3
:100D1000000070616765204269656E76656E696482
:100D2000610070616765204269656E76656E696411
:100D3000610066656368612E7478743D2246656360
:100D400068613A253032752F253032752F323025C3
:100D500030327520202020486F72613A20253032D1
:100D6000753A253032753A25303275202022000040
:100D7000747365636573742E70636F3D36353533F8
:100D80003500746D696E6573742E70636F3D30004D
:100D9000747365636573742E70636F3D3000746D9A
:100DA000696E6573742E70636F3D3635353335006B
:100DB0007061676520416A75737465730000746DB6
:100DC000696E6573742E7478743D222530327522F5
:100DD0000000747365636573742E7478743D222506
:100DE00030327522000062302E7478743D225556E0
:100DF00028686F726173293A2530354C7520255863
:100E0000220062312E7478743D2246696C74726FD0
:100E100028686F726173293A2530354C75220000BD
:100E20006365726F496E2E7478743D224365726FEC
:100E300020496E466C6F773A2025322E30662200AC
:100E40006365726F446E2E7478743D224365726FD1
:100E500020446E466C6F773A2025322E3066220091
:100E6000616A75737465496E2E7478743D22416AA7
:100E70007573746520496E466C6F773A2025322E63
:100E800031662200616A75737465446E2E747874DD
:100E90003D22416A7573746520496E466C6F773ADE
:100EA0002025322E31662200696E666C6F772E74B3
:100EB00078743D22496E466C6F773A2025322E3287
:100EC000662025322E3266202200646F776E666CB3
:100ED0006F772E7478743D22446F776E466C6F770F
:100EE0003A2025322E3266220000616463696E2E3C
:100EF0007478743D22414443496E3A202530344C85
:100F000075220000616463646E2E7478743D224122
:100F10004443446E3A202530344C75220000706101
:100F2000676520416A757374657300007061676559
:100F300020416A75737465730000706167652041B4
:100F40006A7573746573000070616765205075720F
:100F5000676100007061676520436C617665000021
:100F6000436F6E6669672E7432632E7478743D2207
:100F700056656C6F63696461642200007433632E8C
:100F80007478743D222575220000436F6E66696790
:100F90002E7432632E7478743D224365726F20493B
:100FA0006E466C6F772200007433632E7478743D44
:100FB0002225322E30662200436F6E6669672E74DA
:100FC00032632E7478743D224365726F20466C75CF
:100FD0006A6F322200007433632E7478743D2225C8
:100FE000322E30662200436F6E6669672E7432635C
:100FF0002E7478743D22416A7573746520496E467B
:101000006C6F772200007433632E7478743D222550
:10101000322E31662200436F6E6669672E7432632A
:101020002E7478743D22416A7573746520466C7520
:101030006A6F322200007433632E7478743D222567
:10104000322E31662200436F6E6669672E743263FA
:101050002E7478743D224365726F20503122000057
:101060007433632E7478743D2225322E306622004C
:10107000436F6E6669672E7432632E7478743D22F6
:101080004365726F2050322200007433632E7478EF
:10109000743D2225322E30662200436F6E666967EA
:1010A0002E7432632E7478743D22416A75737465B0
:1010B0002050726573696F6E312200007433632EA5
:1010C0007478743D2225322E31662200436F6E669D
:1010D00069672E7432632E7478743D22416A757389
:1010E00074652050726573696F6E3222000074332C
:1010F000632E7478743D2225322E31662200436FB0
:101100006E6669672E7432632E7478743D2253754F
:1011100062697220436F6469676F22007433632EC3
:101120007478743D222558220000436F6E6669670B
:101130002E7432632E7478743D2242616A6172208B
:10114000436F6469676F22007433632E7478743D53
:10115000222558220000436F6E6669672E74326341
:101160002E7478743D22446574656E657220436FF9
:101170006469676F22007433632E7478743D22258E
:1011800058220000436F6E6669672E7432632E74B6
:1011900078743D224D65646961204D6F76696C22DB
:1011A00000007433632E7478743D2225303275222A
:1011B00000007061676520416A7573746573000093
:1011C00066656368612E7478743D22466563686164
:1011D0003A253032752F253032752F323025303296
:1011E0007520202020486F72613A20253032753AF0
:1011F0002530327522000B0EEA6E220EE96EEF509A
:101200000DE0060E016E006A002EFED7012EFBD700
:101210007B0E006E002EFED7EF2EF3D7000C0B01D5
:101220000A6B0A5107080DE3D890093302E28B9844
:1012300001D08B889498949A8B8A949A8B9A0A2BD3
:10124000F0D70001000C95968C8607CB09FBE7DFF1
:1012500008CB09FBE4DF95968C96000C95968C865E
:1012600004CB09FBDCDF9488100E006E002EFED745
:1012700000000B01056B0551070815E3948882B83F
:1012800002D0D89001D0D8800633949A8B8A210E50
:10129000006E002EFED7949A8B9A210E006E002EBF
:1012A000FED7052BE8D795968C9606CB01F000016A
:1012B000000C95968C96210E006E002EFED7949A07
:1012C0008B9A8E0E0B01076F086B0001BCDF900E2E
:1012D0000B01076FA40E086F0001B5DF810E0B0133
:1012E000046F0001BBDF01C000FB0B010051800B4C
:1012F00006E0800E076F086B0001A5DF0B010001FF
:1013000055EF32F00900F55211E0F6CF00FBF7CFB0
:1013100001FBF8CF02FBF5509EA8FED7AD6E00CBC7
:10132000F6FF01CBF7FF02CBF8FFECD7000C9EA82D
:10133000FED7AD6E000C100E006E002EFED7000022
:10134000FF0EF5DF100E006E002EFED70000FF0E20
:10135000EEDF100E006E002EFED70000FF0EE7DF5E
:10136000100E006E002EFED70000000C8E0E006ED8
:1013700020CB01F01FCB02F0036A015209E102C049
:1013800001F0026A080E005E015202E1006A08D014
:10139000D89001BE04D0023601360006F9D7019E6E
:1013A000000C0B011F51D8B4A5D02B6F2351D8B41A
:1013B000A1D02B5F05E37F0E2B27D8B09BD006D0A2
:1013C000810E2B5FD8A096D0D8B494D02BCB00F050
:1013D000016A026A036A2A6B20CB29FB298F21CB81
:1013E00028FB22CB27FB190E2B6F2651275F0DE21E
:1013F000010E285F0AE2295F08E22A5F06E22A2B33
:10140000292B282B2651272728D02551285F12E287
:10141000010E295F0FE22A5F0DE22A2B292B2551AD
:1014200028272651272719E3282B17E1292B15E117
:101430002A2B13D024518009295F0EE2010E2A5F66
:101440000BE22A2B24518009292725512827E9E37B
:10145000292BE7E12A2BE5D703802B2F01D00BD0D6
:10146000D8902737283729372A37D89003360236BD
:1014700001362C37BAD72CA106D0D89001320232CF
:1014800003322C3302D0000635E02CBF1ED0D8909A
:101490002737283729372A372651275F07E2010ED9
:1014A000285F04E2295F02E22A5F1AE32551285FE0
:1014B00005E2010E295F02E22A5F12E3245180094E
:1014C000295F03E2010E2A5F0BE3032A09E1022AE6
:1014D00007E1012A05E1002A0DE001320232033260
:1014E00020CB2BFB24512B1B2BAF02D0018E06D01F
:1014F000019E04D0006A016A026A036A0001000CBE
:10150000800ED8A202D00B01281B0B012D6B2E6B75
:1015100024CB2CFB28512C1B2351D8B4DFD02B6FAC
:10152000006E2751D8B4E3D02B5FD8B483D03EE30C
:1015300028CB31FB318F29CB30FB2ACB2FFB2E6BF5
:10154000D890313330332F332E332B2FF8D72CAFA5
:1015500003D02D81E0D02D912B912D890B0EEA6EB9
:10156000260EE96EEBD02D992CBF0AD02BA113D0FB
:10157000313330332F332E33002AD8B4C7D00BD0B9
:1015800031BF0CD0D8902E372F3730373137000687
:10159000D8B4BCD0F5D72D8D6DD02D9D24CB2CFB90
:1015A00024AF02D0318FABD0319FA9D027CB2BFBFA
:1015B00027CB00F023512B5F24CB31FB318F25CB80
:1015C00030FB26CB2FFB2E6BD890313330332F33AB
:1015D0002E332B2FF8D72CAF03D02D839CD02D93F7
:1015E0002B912D8B0B0EEA6E2A0EE96EA7D02D9B48
:1015F0002CBF0AD02BA113D0313330332F332E33ED
:10160000002AD8B483D00BD031BF0CD0D8902E375D
:101610002F37303731370006D8B478D0F5D72D8F33
:1016200029D02D9F28CB2CFB28AF02D0318F67D03B
:10163000319F65D028CB31FB318F29CB30FB2ACBB2
:101640002FFB2CAF04D0319F2D8565D02D952E6BAF
:101650002B910B0EEA6E260EE96E70D02CBF1CD0BB
:1016600024CB2CFB2BA106D0313330332F332E3338
:10167000002A4CE02EAF0BD02F2B09E1302B07E1D5
:10168000312B05E1313330332F33002A3FE02DBDBC
:1016900084D72DBFC6D71CD0800E311B31AF04D0EC
:1016A0003AD028CB2CFB0AD024CB2CFB315306E1BB
:1016B000305304E12F5302E1006A21D031BF08D03A
:1016C000D8902E372F3730373137002EF7D71ED02E
:1016D0002CAF02D0318F13D0319F11D027CB00F027
:1016E00028CB31FB29CB30FB2ACB2FFB08D023CBD7
:1016F00000F024CB31FB25CB30FB26CB2FFB31CBAD
:1017000001F030CB02F02FCB03F034D0006A016A35
:10171000026A036A2FD02E6B2F1F301F311F2E1F1E
:101720002E2B05E12F2B03E1302B01E1312B2DB1C5
:1017300012D72DB354D72DB589D7B3D7EF502F2754
:1017400005E3302B03E1312BD8B42B81ED52EF5060
:10175000302703E3312BD8B42B81ED52EF50EFBE8D
:1017600001D0800A3127D8B02B812DB9FCD62DBBF2
:101770003ED774D70001000CF2CF00FBF29CF29E22
:10178000AA6AA96AA69CA69EA680A8500B0100BDC5
:10179000F28C00BFF28E0001D16F0A0E0B01226F96
:1017A000000129DDF2CF00FBF29CF29EAA6A010E35
:1017B000A96EA69CA69EA680A8500B0100BDF28C27
:1017C00000BFF28E0001D26F0A0E0B01226F0001E2
:1017D00012DDF2CF00FBF29CF29EAA6A020EA96E05
:1017E000A69CA69EA680A8500B0100BDF28C00BF4F
:1017F000F28E0001D36F0A0E0B01226F0001FBDC99
:10180000F2CF00FBF29CF29EAA6A030EA96EA69C80
:10181000A69EA680A8500B0100BDF28C00BFF28EE0
:101820000001D46F0A0E0B01226F0001E4DCF2CF3D
:1018300000FBF29CF29EAA6A040EA96EA69CA69ECC
:10184000A680A8500B0100BDF28C00BFF28E0001F3
:10185000AF6F0A0E0B01226F0001CDDCF2CF00FB4F
:10186000F29CF29EAA6A050EA96EA69CA69EA68070
:10187000A8500B0100BDF28C00BFF28E0001AD6FCD
:101880000A0E0B01226F0001B6DCF2CF00FBF29CC6
:10189000F29EAA6A060EA96EA69CA69EA680A850D5
:1018A0000B0100BDF28C00BFF28E0001B36F0A0E77
:1018B0000B01226F00019FDCF2CF00FBF29CF29E35
:1018C000AA6A070EA96EA69CA69EA680A8500B0128
:1018D00000BDF28C00BFF28E0001B16F0A0E0B0149
:1018E000226F000188DCF2CF00FBF29CF29EAA6A14
:1018F000080EA96EA69CA69EA680A8500B0100BD4E
:10190000F28C00BFF28E0001B76F0A0E0B01226F3E
:10191000000171DCF2CF00FBF29CF29EAA6A090E74
:10192000A96EA69CA69EA680A8500B0100BDF28CB5
:1019300000BFF28E0001B66F0A0E0B01226F00018C
:101940005ADCF2CF00FBF29CF29EAA6A0C0EA96E42
:10195000A69CA69EA680A8500B0100BDF28C00BFDD
:10196000F28E0001C96F0A0E0B01226F000143DCE9
:10197000F2CF00FBF29CF29EAA6A0D0EA96EA69C05
:10198000A69EA680A8500B0100BDF28C00BFF28E6F
:101990000001CA6F0A0E0B01226F00012CDCF2CF8E
:1019A00000FBF29CF29EAA6A0E0EA96EA69CA69E51
:1019B000A680A8500B0100BDF28C00BFF28E000182
:1019C000CB6F0A0E0B01226F000115DCF2CF00FB7A
:1019D000F29CF29EAA6A0F0EA96EA69CA69EA680F5
:1019E000A8500B0100BDF28C00BFF28E0001CC6F3D
:1019F0000A0E0B01226F0001FBEC08F0F2CF00FB96
:101A0000F29CF29EAA6A100EA96EA69CA69EA680C3
:101A1000A8500B0100BDF28C00BFF28E0001CD6F0B
:101A20000A0E0B01226F0001FBEC08F0F2CF00FB65
:101A3000F29CF29EAA6A110EA96EA69CA69EA68092
:101A4000A8500B0100BDF28C00BFF28E0001CE6FDA
:101A50000A0E0B01226F0001FBEC08F0F2CF00FB35
:101A6000F29CF29EAA6A120EA96EA69CA69EA68061
:101A7000A8500B0100BDF28C00BFF28E0001CF6FA9
:101A80000A0E0B01226F0001FBEC08F0F2CF00FB05
:101A9000F29CF29EAA6A130EA96EA69CA69EA68030
:101AA000A8500B0100BDF28C00BFF28E0001D06F78
:101AB0000A0E0B01226F0001FBEC08F00A0E0B016D
:101AC000226F0001FBEC08F0F2CF00FBF29CF29ECB
:101AD000AA6A190EA96EA69CA69EA680A8500B0104
:101AE00000BDF28C00BFF28E00018E6F0A0E0B015A
:101AF000226F0001FBEC08F0F2CF00FBF29CF29E9B
:101B0000AA6A1A0EA96EA69CA69EA680A8500B01D2
:101B100000BDF28C00BFF28E206B1F6F000126DC2F
:101B200003C000F102C0FFF001C0FEF000C0FDF0F4
:101B30000A0E0B01226F0001FBEC08F000C122FB32
:101B4000FFC021FBFEC020FBFDC01FFB0B01266B6D
:101B5000256B200E246F820E236F000122DC03C050
:101B600000F102C0FFF001C0FEF000C0FDF00B016B
:101B7000206B8EC01FFB0001B6EC09F0D89203C0A9
:101B800026FB02C025FB01C024FB00C023FB00C1D3
:101B90002AFBFFC029FBFEC028FBFDC027FBB0DCF1
:101BA00003C054F402C053F401C052F400C051F415
:101BB000F2CF00FBF29CF29EAA6A1B0EA96EA69CB5
:101BC000A69EA680A8500B0100BDF28C00BFF28E2D
:101BD00000018E6F0A0E0B01226F0001FBEC08F072
:101BE000F2CF00FBF29CF29EAA6A1C0EA96EA69C84
:101BF000A69EA680A8500B0100BDF28C00BFF28EFD
:101C0000206B1F6F0001B6EC09F003C000F102C0A9
:101C1000FFF001C0FEF000C0FDF00A0E0B01226FC4
:101C20000001FBEC08F000C122FBFFC021FBFEC05D
:101C300020FBFDC01FFB0B01266B256B200E246FC4
:101C4000820E236F0001D1EC09F003C000F102C045
:101C5000FFF001C0FEF000C0FDF00B01206B8EC054
:101C60001FFB0001B6EC09F0D89203C026FB02C0AE
:101C700025FB01C024FB00C023FB00C12AFBFFC0E1
:101C800029FBFEC028FBFDC027FB3ADC03C0ADF5F5
:101C900002C0ACF501C0ABF500C0AAF50A0E0B01FD
:101CA000226F0001FBEC08F0F2CF00FBF29CF29EE9
:101CB000AA6A1D0EA96EA69CA69EA680A8500B011E
:101CC00000BDF28C00BFF28E00018E6F0A0E0B0178
:101CD000226F0001FBEC08F0F2CF00FBF29CF29EB9
:101CE000AA6A1E0EA96EA69CA69EA680A8500B01ED
:101CF00000BDF28C00BFF28E206B1F6F0001B6ECAE
:101D000009F003C000F102C0FFF001C0FEF000C006
:101D1000FDF00A0E0B01226F0001FBEC08F000C180
:101D200022FBFFC021FBFEC020FBFDC01FFB0B01FF
:101D3000266B256B200E246F820E236F0001D1ECE1
:101D400009F003C000F102C0FFF001C0FEF000C0C6
:101D5000FDF00B01206B8EC01FFB0001B6EC09F0FB
:101D6000D89203C026FB02C025FB01C024FB00C0A3
:101D700023FB00C12AFBFFC029FBFEC028FBFDC0DE
:101D800027FB80EC0AF003C0C7FA02C0C6FA01C004
:101D9000C5FA00C0C4FAF2CF00FBF29CF29EAA6A18
:101DA0001F0EA96EA69CA69EA680A8500B0100BD82
:101DB000F28C00BFF28E00018E6F0A0E0B01226FB3
:101DC0000001FBEC08F0F2CF00FBF29CF29EAA6A45
:101DD000200EA96EA69CA69EA680A8500B0100BD51
:101DE000F28C00BFF28E206B1F6F0001B6EC09F081
:101DF00003C000F102C0FFF001C0FEF000C0FDF022
:101E00000A0E0B01226F0001FBEC08F000C122FB5F
:101E1000FFC021FBFEC020FBFDC01FFB0B01266B9A
:101E2000256B200E246F820E236F0001D1EC09F088
:101E300003C000F102C0FFF001C0FEF000C0FDF0E1
:101E40000B01206B8EC01FFB0001B6EC09F0D8928D
:101E500003C026FB02C025FB01C024FB00C023FBFE
:101E600000C12AFBFFC029FBFEC028FBFDC027FBE9
:101E700080EC0AF003C083FA02C082FA01C081FA42
:101E800000C080FAF2CF00FBF29CF29EAA6A220EFA
:101E9000A96EA69CA69EA680A8500B0100BDF28C40
:101EA00000BFF28E016FF2CF02FBF29CF29EAA6A93
:101EB000210EA96EA69CA69EA680A85002BDF28CFB
:101EC00002BFF28E036F01CB03F003511F6F03C0FB
:101ED00020FB0001B6EC09F003C03FF402C03EF461
:101EE00001C03DF400C03CF40A0E0B01226F00015A
:101EF000FBEC08F0F2CF00FBF29CF29EAA6A240EE3
:101F0000A96EA69CA69EA680A8500B0100BDF28CCF
:101F100000BFF28E016FF2CF02FBF29CF29EAA6A22
:101F2000230EA96EA69CA69EA680A85002BDF28C88
:101F300002BFF28E036F01CB03F003511F6F03C08A
:101F400020FB0001B6EC09F003C098F502C097F53C
:101F500001C096F500C095F50A0E0B01226F000135
:101F6000FBEC08F0F2CF00FBF29CF29EAA6A260E70
:101F7000A96EA69CA69EA680A8500B0100BDF28C5F
:101F800000BFF28E016FF2CF02FBF29CF29EAA6AB2
:101F9000250EA96EA69CA69EA680A85002BDF28C16
:101FA00002BFF28E036F01CBC4F003CBC3F00A0E65
:101FB000226F0001FBEC08F0F2CF00FBF29CF29ED6
:101FC000AA6A270EA96EA69CA69EA680A8500B0101
:101FD00000BDF28C00BFF28E0001C26BC16F0A0E11
:101FE0000B01226F0001FBEC08F0F2CF00FBF29C2A
:101FF000F29EAA6A280EA96EA69CA69EA680A8504C
:102000000B0100BDF28C00BFF28E0001936F0A0E2F
:102010000B01226F0001FBEC08F0F2CF00FBF29CF9
:10202000F29EAA6A290EA96EA69CA69EA680A8501A
:102030000B0100BDF28C00BFF28E0001946F0A0EFE
:102040000B01226F0001FBEC08F0F2CF00FBF29CC9
:10205000F29EAA6A2B0EA96EA69CA69EA680A850E8
:102060000B0100BDF28C00BFF28E016FF2CF02FBBC
:10207000F29CF29EAA6A2A0EA96EA69CA69EA68033
:10208000A85002BDF28C02BFF28E036F01CB03F0A9
:1020900003511F6F03C020FB0001B6EC09F003C021
:1020A00043F402C042F401C041F400C040F40A0EFF
:1020B0000B01226F0001FBEC08F0F2CF00FBF29C59
:1020C000F29EAA6A2D0EA96EA69CA69EA680A85076
:1020D0000B0100BDF28C00BFF28E016FF2CF02FB4C
:1020E000F29CF29EAA6A2C0EA96EA69CA69EA680C1
:1020F000A85002BDF28C02BFF28E036F01CB03F039
:1021000003511F6F03C020FB0001B6EC09F003C0B0
:102110009CF502C09BF501C09AF500C099F50A0E26
:102120000B01226F0001FBEC08F0F2CF00FBF29CE8
:10213000F29EAA6A2F0EA96EA69CA69EA680A85003
:102140000B0100BDF28C00BFF28E016FF2CF02FBDB
:10215000F29CF29EAA6A2E0EA96EA69CA69EA6804E
:10216000A85002BDF28C02BFF28E036F01CB03F0C8
:1021700003511F6F03C020FB0001B6EC09F003C040
:10218000B9FA02C0B8FA01C0B7FA00C0B6FA0A0E2E
:102190000B01226F0001FBEC08F0F2CF00FBF29C78
:1021A000F29EAA6A310EA96EA69CA69EA680A85091
:1021B0000B0100BDF28C00BFF28E016FF2CF02FB6B
:1021C000F29CF29EAA6A300EA96EA69CA69EA680DC
:1021D000A85002BDF28C02BFF28E036F01CB03F058
:1021E00003511F6F03C020FB0001B6EC09F003C0D0
:1021F00075FA02C074FA01C073FA00C072FA0A0ECE
:102200000B01226F0001FBEC08F0F2CF00FBF29C07
:10221000F29EAA6A320EA96EA69CA69EA680A8501F
:102220000B0100BDF28C00BFF28E0401466F0A0E56
:102230000B01226F0001FBEC08F0F2CF00FBF29CD7
:10224000F29EAA6A330EA96EA69CA69EA680A850EE
:102250000B0100BDF28C00BFF28E05019F6F0A0ECC
:102260000B01226F0001FBEC08F0F2CF00FBF29CA7
:10227000F29EAA6A340EA96EA69CA69EA680A850BD
:102280000B0100BDF28C00BFF28E00018E6F0A0EB2
:102290000B01226F0001FBEC08F0F2CF00FBF29C77
:1022A000F29EAA6A350EA96EA69CA69EA680A8508C
:1022B0000B0100BDF28C00BFF28E206B1F6F00017E
:1022C000B6EC09F003C000F102C0FFF001C0FEF05F
:1022D00000C0FDF00A0E0B01226F0001FBEC08F0BC
:1022E00000C122FBFFC021FBFEC020FBFDC01FFB85
:1022F0000B01266B256B480E246F850E236F0001A2
:10230000D1EC09F003C000F102C0FFF001C0FEF003
:1023100000C0FDF00B01206B8EC01FFB0001B6EC6E
:1023200009F0D89203C026FB02C025FB01C024FBA4
:1023300000C023FB00C12AFBFFC029FBFEC028FB15
:10234000FDC027FB80EC0AF003C0C4F202C0C3F258
:1023500001C0C2F200C0C1F2F2CF00FBF29CF29EBB
:10236000AA6A360EA96EA69CA69EA680A8500B014E
:1023700000BDF28C00BFF28E0001876F0A0E0B01C8
:10238000226F0001FBEC08F0F2CF00FBF29CF29E02
:10239000AA6A370EA96EA69CA69EA680A8500B011D
:1023A00000BDF28C00BFF28E0001886F0A0E0B0197
:1023B000226F0001FBEC08F0F2CF00FBF29CF29ED2
:1023C000AA6A380EA96EA69CA69EA680A8500B01EC
:1023D00000BDF28C00BFF28E0001896F0A0E0B0166
:1023E000226F0001FBEC08F0F2CF00FBF29CF29EA2
:1023F000AA6A390EA96EA69CA69EA680A8500B01BB
:1024000000BDF28C00BFF28E0001956F0A0E0B0129
:10241000226F0001FBEC08F07EEF32F020CB27FBAF
:102420000B012451271B27AF05D0D894D89020BF8B
:10243000D8802FD020CB27FB23CB28FB1F51285F30
:1024400006E027AF26D0D850010AD86E22D024CB80
:1024500028FB2051285F06E027AF1BD0D850010A87
:10246000D86E17D025CB28FB2151285F06E027AF77
:1024700010D0D850010AD86E0CD026CB28FB2251A0
:10248000285F06E027AF05D0D850010AD86E01D0EA
:10249000D8900001000CD1BF03D0D151090803E34B
:1024A000D1BF01D01CD0D16BAA6AA96AA86AA69C28
:1024B000A69EA684F250006EF29CF29E0F01550E6D
:1024C000A76EAA0EA76EA682A6B2FED7A69400504B
:1024D000F2120A0E0B01226F0001FBEC08F0D2BFD2
:1024E00003D0D251090803E3D2BF01D01DD0D26B73
:1024F000AA6A010EA96EA86AA69CA69EA684F2509E
:10250000006EF29CF29E0F01550EA76EAA0EA76EEA
:10251000A682A6B2FED7A6940050F2120A0E0B01B4
:10252000226F0001FBEC08F0D3BF03D0D3510908A0
:1025300003E3D3BF01D01DD0D36BAA6A020EA96EEC
:10254000A86AA69CA69EA684F250006EF29CF29EFB
:102550000F01550EA76EAA0EA76EA682A6B2FED7D1
:10256000A6940050F2120A0E0B01226F0001FBEC40
:1025700008F0D4BF03D0D451090803E3D4BF01D07D
:102580001DD0D46BAA6A030EA96EA86AA69CA69E4B
:10259000A684F250006EF29CF29E0F01550EA76EBB
:1025A000AA0EA76EA682A6B2FED7A6940050F2127B
:1025B0000A0E0B01226F0001FBEC08F0AF5163081B
:1025C0001FE2010EAF6FAA6A040EA96E010EA86E7B
:1025D000A69CA69EA684F250006EF29CF29E0F016D
:1025E000550EA76EAA0EA76EA682A6B2FED7A69417
:1025F0000050F2120A0E0B01226F0001FBEC08F0F2
:10260000AD513B081DE2AD6BAA6A050EA96EA86A22
:10261000A69CA69EA684F250006EF29CF29E0F012C
:10262000550EA76EAA0EA76EA682A6B2FED7A694D6
:102630000050F2120A0E0B01226F0001FBEC08F0B1
:10264000B35163081FE2010EB36FAA6A060EA96EAA
:10265000010EA86EA69CA69EA684F250006EF29C67
:10266000F29E0F01550EA76EAA0EA76EA682A6B205
:10267000FED7A6940050F2120A0E0B01226F000141
:10268000FBEC08F0B1513B081DE2B16BAA6A070EE2
:10269000A96EA86AA69CA69EA684F250006EF29C23
:1026A000F29E0F01550EA76EAA0EA76EA682A6B2C5
:1026B000FED7A6940050F2120A0E0B01226F000101
:1026C000FBEC08F0B75163081FE2010EB76FAA6A6E
:1026D000080EA96E010EA86EA69CA69EA684F250B6
:1026E000006EF29CF29E0F01550EA76EAA0EA76E09
:1026F000A682A6B2FED7A6940050F2120A0E0B01D3
:10270000226F0001FBEC08F0B6513B081DE2B66BEE
:10271000AA6A090EA96EA86AA69CA69EA684F25073
:10272000006EF29CF29E0F01550EA76EAA0EA76EC8
:10273000A682A6B2FED7A6940050F2120A0E0B0192
:10274000226F0001FBEC08F0C9BF03D0C951090892
:1027500003E3C9BF01D01DD0C96BAA6A0C0EA96ED4
:10276000A86AA69CA69EA684F250006EF29CF29ED9
:102770000F01550EA76EAA0EA76EA682A6B2FED7AF
:10278000A6940050F2120A0E0B01226F0001FBEC1E
:1027900008F0CABF03D0CA51090803E3CABF01D079
:1027A0001DD0CA6BAA6A0D0EA96EA86AA69CA69E29
:1027B000A684F250006EF29CF29E0F01550EA76E99
:1027C000AA0EA76EA682A6B2FED7A6940050F21259
:1027D0000A0E0B01226F0001FBEC08F0CBBF03D007
:1027E000CB51090803E3CBBF01D01DD0CB6BAA6A44
:1027F0000E0EA96EA86AA69CA69EA684F250006E34
:10280000F29CF29E0F01550EA76EAA0EA76EA6822D
:10281000A6B2FED7A6940050F2120A0E0B01226F48
:102820000001FBEC08F0CCBF03D0CC51090803E356
:10283000CCBF01D01DD0CC6BAA6A0F0EA96EA86ABE
:10284000A69CA69EA684F250006EF29CF29E0F01FA
:10285000550EA76EAA0EA76EA682A6B2FED7A694A4
:102860000050F2120A0E0B01226F0001FBEC08F07F
:10287000CDBF03D0CD51090803E3CDBF01D01DD09A
:10288000CD6BAA6A100EA96EA86AA69CA69EA68405
:10289000F250006EF29CF29E0F01550EA76EAA0E2A
:1028A000A76EA682A6B2FED7A6940050F2120A0E18
:1028B0000B01226F0001FBEC08F0CEBF03D0CE511C
:1028C000090803E3CEBF01D01DD0CE6BAA6A110E5A
:1028D000A96EA86AA69CA69EA684F250006EF29CE1
:1028E000F29E0F01550EA76EAA0EA76EA682A6B283
:1028F000FED7A6940050F2120A0E0B01226F0001BF
:10290000FBEC08F0CFBF03D0CF51090803E3CFBFE2
:1029100001D01DD0CF6BAA6A120EA96EA86AA69C20
:10292000A69EA684F250006EF29CF29E0F01550EF8
:10293000A76EAA0EA76EA682A6B2FED7A6940050D6
:10294000F2120A0E0B01226F0001FBEC08F0D0BF5F
:1029500003D0D051090803E3D0BF01D01DD0D06B04
:10296000AA6A130EA96EA86AA69CA69EA684F25017
:10297000006EF29CF29E0F01550EA76EAA0EA76E76
:10298000A682A6B2FED7A6940050F2120A0E0B0140
:10299000226F0001FBEC08F00B01226B216B200E73
:1029A000206F820E1F6F54C426FB53C425FB52C4F4
:1029B00024FB51C423FB000131DD10E254C422FB8F
:1029C00053C421FB52C420FB51C41FFB0B01266BD7
:1029D000256B246B236B000121DD43E1CD0E040147
:1029E000546FCC0E536F0C0E526F7F0E516FAA6A4C
:1029F000190EA96E010EA86EA69CA69EA684F25082
:102A0000006EF29CF29E0F01550EA76EAA0EA76EE5
:102A1000A682A6B2FED7A6940050F2120A0E0B01AF
:102A2000226F0001FBEC08F0AA6A1A0EA96E050ECF
:102A3000A86EA69CA69EA684F250006EF29CF29E02
:102A40000F01550EA76EAA0EA76EA682A6B2FED7DC
:102A5000A6940050F2120A0E0B01226F0001FBEC4B
:102A600008F00B01226B216B200E206F820E1F6F6E
:102A7000ADC526FBACC525FBABC524FBAAC523FB16
:102A80000001CCDC10E2ADC522FBACC521FBABC51F
:102A900020FBAAC51FFB0B01266B256B246B236B48
:102AA0000001BCDC43E1CD0E0501AD6FCC0EAC6F77
:102AB0000C0EAB6F7F0EAA6FAA6A1B0EA96E010ED9
:102AC000A86EA69CA69EA684F250006EF29CF29E72
:102AD0000F01550EA76EAA0EA76EA682A6B2FED74C
:102AE000A6940050F2120A0E0B01226F0001FBECBB
:102AF00008F0AA6A1C0EA96E050EA86EA69CA69EDA
:102B0000A684F250006EF29CF29E0F01550EA76E45
:102B1000AA0EA76EA682A6B2FED7A6940050F21205
:102B20000A0E0B01226F0001FBEC08F00B01226B77
:102B3000216B206B800E1F6FC7CA26FBC6CA25FB00
:102B4000C5CA24FBC4CA23FB000168DC10E2C7CA63
:102B500022FBC6CA21FBC5CA20FBC4CA1FFB0B014E
:102B6000266B256B246B236B000158DC3FE10A01C7
:102B7000C76BC66BC56B7F0EC46FAA6A1D0EA96EAC
:102B8000010EA86EA69CA69EA684F250006EF29C32
:102B9000F29E0F01550EA76EAA0EA76EA682A6B2D0
:102BA000FED7A6940050F2120A0E0B01226F00010C
:102BB000FBEC08F0AA6A1E0EA96EA86AA69CA69E47
:102BC000A684F250006EF29CF29E0F01550EA76E85
:102BD000AA0EA76EA682A6B2FED7A6940050F21245
:102BE0000A0E0B01226F0001FBEC08F00B01226BB7
:102BF000216B206B800E1F6F83CA26FB82CA25FBC8
:102C000081CA24FB80CA23FB000108DC11E283CACD
:102C100022FB82CA21FB81CA20FB80CA1FFB0B0159
:102C2000266B256B246B236B00010EEC12F03FE149
:102C30000A01836B826B816B7F0E806FAA6A1F0E05
:102C4000A96E010EA86EA69CA69EA684F250006EE8
:102C5000F29CF29E0F01550EA76EAA0EA76EA682D9
:102C6000A6B2FED7A6940050F2120A0E0B01226FF4
:102C70000001FBEC08F0AA6A200EA96EA86AA69CC7
:102C8000A69EA684F250006EF29CF29E0F01550E95
:102C9000A76EAA0EA76EA682A6B2FED7A694005073
:102CA000F2120A0E0B01226F0001FBEC08F00B017F
:102CB000226B216B020E206F870E1F6F3FC426FB15
:102CC0003EC425FB3DC424FB3CC423FB00010EECA9
:102CD00012F013E23FC422FB3EC421FB3DC420FBA3
:102CE0003CC41FFB0B01266B256B480E246F860E20
:102CF000236F00010EEC12F040E304013F6B3E6BCA
:102D00004B0E3D6F860E3C6FAA6A210EA96ECB0E4C
:102D1000A86EA69CA69EA684F250006EF29CF29E1F
:102D20000F01550EA76EAA0EA76EA682A6B2FED7F9
:102D3000A6940050F2120A0E0B01226F0001FBEC68
:102D400008F0AA6A220EA96EA86AA69CA69EA6846E
:102D5000F250006EF29CF29E0F01550EA76EAA0E65
:102D6000A76EA682A6B2FED7A6940050F2120A0E53
:102D70000B01226F0001FBEC08F00B01226B216BB1
:102D8000020E206F870E1F6F98C526FB97C525FB87
:102D900096C524FB95C523FB00010EEC12F013E24F
:102DA00098C522FB97C521FB96C520FB95C51FFB47
:102DB0000B01266B256B480E246F860E236F0001D6
:102DC0000EEC12F040E30501986B976B4B0E966F7B
:102DD000860E956FAA6A230EA96ECB0EA86EA69CCE
:102DE000A69EA684F250006EF29CF29E0F01550E34
:102DF000A76EAA0EA76EA682A6B2FED7A694005012
:102E0000F2120A0E0B01226F0001FBEC08F0AA6A15
:102E1000240EA96EA86AA69CA69EA684F250006EF7
:102E2000F29CF29E0F01550EA76EAA0EA76EA68207
:102E3000A6B2FED7A6940050F2120A0E0B01226F22
:102E40000001FBEC08F0C4510D083FE2FF0A03E16A
:102E5000C35110083AE2C46BC36BAA6A250EA96E6F
:102E6000A86AA69CA69EA684F250006EF29CF29ED2
:102E70000F01550EA76EAA0EA76EA682A6B2FED7A8
:102E8000A6940050F2120A0E0B01226F0001FBEC17
:102E900008F0AA6A260EA96EA86AA69CA69EA68419
:102EA000F250006EF29CF29E0F01550EA76EAA0E14
:102EB000A76EA682A6B2FED7A6940050F2120A0E02
:102EC0000B01226F0001FBEC08F0C25303E1C1517A
:102ED0003C081EE2C26BC16BAA6A270EA96EA86AE3
:102EE000A69CA69EA684F250006EF29CF29E0F0154
:102EF000550EA76EAA0EA76EA682A6B2FED7A694FE
:102F00000050F2120A0E0B01226F0001FBEC08F0D8
:102F1000935106081FE2020E936FAA6A280EA96E4B
:102F2000020EA86EA69CA69EA684F250006EF29C8D
:102F3000F29E0F01550EA76EAA0EA76EA682A6B22C
:102F4000FED7A6940050F2120A0E0B01226F000168
:102F5000FBEC08F0945106081FE2020E946FAA6A77
:102F6000290EA96E020EA86EA69CA69EA684F250FB
:102F7000006EF29CF29E0F01550EA76EAA0EA76E70
:102F8000A682A6B2FED7A6940050F2120A0E0B013A
:102F9000226F0001FBEC08F00B01226B216B200E6D
:102FA000206F850E1F6F43C426FB42C425FB41C41E
:102FB00024FB40C423FB00010EEC12F03DE30401AE
:102FC000436B426B416B406BAA6A2A0EA96EA86ADA
:102FD000A69CA69EA684F250006EF29CF29E0F0163
:102FE000550EA76EAA0EA76EA682A6B2FED7A6940D
:102FF0000050F2120A0E0B01226F0001FBEC08F0E8
:10300000AA6A2B0EA96EA86AA69CA69EA684F25058
:10301000006EF29CF29E0F01550EA76EAA0EA76ECF
:10302000A682A6B2FED7A6940050F2120A0E0B0199
:10303000226F0001FBEC08F00B01226B216B200ECC
:10304000206F850E1F6F9CC526FB9BC525FB9AC56F
:1030500024FB99C523FB00010EEC12F03DE30501B2
:103060009C6B9B6B9A6B996BAA6A2C0EA96EA86AD3
:10307000A69CA69EA684F250006EF29CF29E0F01C2
:10308000550EA76EAA0EA76EA682A6B2FED7A6946C
:103090000050F2120A0E0B01226F0001FBEC08F047
:1030A000AA6A2D0EA96EA86AA69CA69EA684F250B6
:1030B000006EF29CF29E0F01550EA76EAA0EA76E2F
:1030C000A682A6B2FED7A6940050F2120A0E0B01F9
:1030D000226F0001FBEC08F00B01226B216B0C0E40
:1030E000206F870E1F6FB9CA26FBB8CA25FBB7CA67
:1030F00024FBB6CA23FB00010EEC12F013E2B9CA9E
:1031000022FBB8CA21FBB7CA20FBB6CA1FFB0B01C2
:10311000266B256B480E246F860E236F00010EEC84
:1031200012F040E30A01B96BB86B5C0EB76F860E04
:10313000B66FAA6A2E0EA96EDC0EA86EA69CA69E7D
:10314000A684F250006EF29CF29E0F01550EA76EFF
:10315000AA0EA76EA682A6B2FED7A6940050F212BF
:103160000A0E0B01226F0001FBEC08F0AA6A2F0E79
:10317000A96EA86AA69CA69EA684F250006EF29C38
:10318000F29E0F01550EA76EAA0EA76EA682A6B2DA
:10319000FED7A6940050F2120A0E0B01226F000116
:1031A000FBEC08F00B01226B216B0C0E206F870EDD
:1031B0001F6F75CA26FB74CA25FB73CA24FB72CA2B
:1031C00023FB00010EEC12F013E275CA22FB74CA55
:1031D00021FB73CA20FB72CA1FFB0B01266B256BF8
:1031E000480E246F860E236F00010EEC12F040E3B0
:1031F0000A01756B746B5C0E736F860E726FAA6A30
:10320000300EA96EDC0EA86EA69CA69EA684F25077
:10321000006EF29CF29E0F01550EA76EAA0EA76ECD
:10322000A682A6B2FED7A6940050F2120A0E0B0197
:10323000226F0001FBEC08F0AA6A310EA96EA86AA1
:10324000A69CA69EA684F250006EF29CF29E0F01F0
:10325000550EA76EAA0EA76EA682A6B2FED7A6949A
:103260000050F2120A0E0B01226F0001FBEC08F075
:103270000401465114081FE20A0E466FAA6A320E74
:10328000A96E0A0EA86EA69CA69EA684F250006E99
:10329000F29CF29E0F01550EA76EAA0EA76EA68293
:1032A000A6B2FED7A6940050F2120A0E0B01226FAE
:1032B0000001FBEC08F005019F5114081FE20A0E03
:1032C0009F6FAA6A330EA96E0A0EA86EA69CA69ED0
:1032D000A684F250006EF29CF29E0F01550EA76E6E
:1032E000AA0EA76EA682A6B2FED7A6940050F2122E
:1032F0000A0E0B01226F0001FBEC08F00B01226BA0
:10330000216B206B7F0E1F6FC4C226FBC3C225FB3F
:10331000C2C224FBC1C223FB00010EEC12F042E347
:10332000850E0201C46FEB0EC36F110EC26F7E0ECD
:10333000C16FAA6A340EA96EA86AA69CA69EA6842E
:10334000F250006EF29CF29E0F01550EA76EAA0E6F
:10335000A76EA682A6B2FED7A6940050F2120A0E5D
:103360000B01226F0001FBEC08F0AA6A350EA96E72
:10337000390EA86EA69CA69EA684F250006EF29C02
:10338000F29E0F01550EA76EAA0EA76EA682A6B2D8
:10339000FED7A6940050F2120A0E0B01226F000114
:1033A000FBEC08F0955150081FE2280E956FAA6AB1
:1033B000390EA96E3C0EA86EA69CA69EA684F2505D
:1033C000006EF29CF29E0F01550EA76EAA0EA76E1C
:1033D000A682A6B2FED7A6940050F2120A0E0B01E6
:1033E000226F0001FBEC08F080EF32F00B010F516F
:1033F000800DF3CF11FB0E51400DF35011270D51ED
:10340000200DF35011270C51100DF35011270B51C3
:10341000080DF35011270A51040DF3501127D890CD
:10342000093511250825106F10CB01F00001000CA3
:103430007D9F968484A403D0968084A005D08C8E32
:10344000959E8C9C959C05D08C9E959E8C9C959C65
:103450007E91000C7E91968484B403D0968084B0D3
:1034600005D08C9E959E8C8C959C05D08C9E959EAF
:103470008C9C959C7D9F000C80AD2CD1809D000E76
:103480000201D5B1010E0B01006F000E0201D5B390
:10349000010E0B01016F000E0201D5B5010E0B01EB
:1034A000026F000E0201D5B7010E0B01036F000E73
:1034B0000201D5B9010E0B01046F000E0201D5BB4C
:1034C000010E0B01056F000E0201D5BD010E0B01AF
:1034D000066F000E0201D5BF010E0B01076F00CB76
:1034E00008FB01CB09FB02CB0AFB03CB0BFB04CB94
:1034F0000CFB05CB0DFB06CB0EFB0F6F000176DF3F
:1035000001C0DFF2000E0201D6B1010E0B01006F07
:10351000000E0201D6B3010E0B01016F000E020175
:10352000D6B5010E0B01026F000E0201D6B7010ED7
:103530000B01036F000E0201D6B9010E0B01046FDF
:10354000000E0201D6BB010E0B01056F000E020139
:10355000D6BD010E0B01066F000E0201D6BF010E93
:103560000B01076F00CB08FB01CB09FB02CB0AFB69
:1035700003CB0BFB04CB0CFB05CB0DFB06CB0EFBEF
:103580000F6F000133DF01C0E0F2000E0201D7B17E
:10359000010E0B01006F000E0201D7B3010E0B01EB
:1035A000016F000E0201D7B5010E0B01026F000E74
:1035B0000201D7B7010E0B01036F000E0201D7B94C
:1035C000010E0B01046F000E0201D7BB010E0B01AF
:1035D000056F000E0201D7BD010E0B01066F000E34
:1035E0000201D7BF010E0B01076F00CB08FB01CB17
:1035F00009FB02CB0AFB03CB0BFB04CB0CFB05CB7B
:103600000DFB06CB0EFB0F6F0001F0DE01C0E1F2F7
:10361000000E0201D8B1010E0B01006F000E020175
:10362000D8B3010E0B01016F000E0201D8B5010ED7
:103630000B01026F000E0201D8B7010E0B01036FE0
:10364000000E0201D8B9010E0B01046F000E020139
:10365000D8BB010E0B01056F000E0201D8BD010E93
:103660000B01066F000E0201D8BF010E0B01076FA0
:1036700000CB08FB01CB09FB02CB0AFB03CB0BFB06
:1036800004CB0CFB05CB0DFB06CB0EFB0F6F000133
:10369000ADDE01C0E2F288510201E25D04E1000109
:1036A0007E81356A406A000187510201E25D04E1D2
:1036B00000017D8F356A406A000189510201E25D97
:1036C0000AE18C9E959E8C9C959C00017D9F7E912D
:1036D000356A406A020100017EA101D0A9DE7DAFFA
:1036E00001D0B8DE8EEF32F09D510508D8A4BBD0D2
:1036F0003CC031F03DC032F03EC033F03FC034F04A
:1037000040C035F041C036F042C037F043C038F019
:1037100044C039F045C03AF0342C07D0816B815158
:103720009E5D02E081C09EF09DD03450020808E109
:10373000010E816F81519E5D02E081C09EF092D0AA
:103740003450030808E1020E816F81519E5D02E052
:1037500081C09EF087D03450040808E1030E816FC9
:1037600081519E5D02E081C09EF07CD034500508FE
:1037700008E1040E816F81519E5D02E081C09EF0E0
:1037800071D03450060808E1050E816F81519E5DAD
:1037900002E081C09EF066D03450070808E1060EB2
:1037A000816F81519E5D02E081C09EF05BD03450FC
:1037B000080808E1070E816F81519E5D02E081C01B
:1037C0009EF050D03450090808E1080E816F8151F5
:1037D0009E5D02E081C09EF045D034500A0808E1A9
:1037E000090E816F81519E5D02E081C09EF03AD04A
:1037F00034500F0801E136D034501A0808E10A0E9F
:10380000816F81519E5D02E081C09EF02BD03450CB
:103810001B0808E10F0E816F81519E5D02E081C09F
:103820009EF020D034501C0808E1100E816F8151A9
:103830009E5D02E081C09EF015D034502C0808E156
:10384000640E816F81519E5D02E081C09EF00AD0BE
:103850003450CC0807E1F00E816F9E51F00802E071
:1038600081C09EF006D0A56BA551090802E3A52BE7
:10387000FBD7D1EF32F005CB06FB0B010639006E0A
:103880000F0E001600500A0DF3CF05FB0639006E2F
:10389000F00E00160050003A0F0E001600500527DB
:1038A00005CB01F00001000C0B011F512103F3CFE8
:1038B00001F0F4CF00F02203F35000262051210341
:1038C000F3500020026E0001000C0B011F35006E4A
:1038D0000036FC0E001600C001F0C250C30B0010F1
:1038E000C26E010E226F0001FBEC08F0C282C2B270
:1038F000FED7C4CF21FB0B01C3CF20FB20CB01F0AF
:1039000021CB02F00001000C0B012351D8B471D07F
:10391000006E2751D8B46DD0002604E3810E002636
:1039200068E204D07F0E005E64E363E024CB2BFBEF
:1039300028512B1B248F288F26512A03F4CF2DFBCF
:1039400025512903F4CF03F0F3CF2CFB2A03F350C6
:103950002D27F4502C23000E032226512903F35067
:103960002D27F4502C23000E026A03220222245138
:103970002A03F3502C27F4500322000E0222245174
:103980002903F3500326F4500222000E016A01229B
:1039900026512803F3502C27F4500322000E022254
:1039A000012225512803F3500326F4500222000E71
:1039B000012224512803F3500226F4500122002A48
:1039C00001BE05D02C370336023601360006000E44
:1039D0002CAF0AD0032A02220122015005E1025035
:1039E00003E1035001E1002A2BBF018E2BAF019EA2
:1039F00004D0006A016A026A036A0001000C0B012C
:103A0000206B01CB1FFB010E226F590E216F0001AD
:103A10004BDF01C002FB080E0B010124016E000EFA
:103A20000220036E0150E30F016E020E032201C05B
:103A300002FB03C003FB01CB1FFB000146DF03CBEE
:103A4000EAFF02CBE9FF02C0ECFFED5201C0EFFF3D
:103A50000B01206B01CB1FFB010E226F590E216F52
:103A6000000122DF02C003FB01C002FB0A0E0B01B2
:103A70000124016E000E0220036E0150E30FE96E77
:103A8000020E0320EA6EEF500A0868E1206B01CBBA
:103A90001FFB010E226F590E216F000105DF01C0CF
:103AA00002FB080E0B010124016E000E0220036EC2
:103AB0000150E30FE96E020E0320EA6EECCF03FB28
:103AC000ED52EFCF02FB206B01CB1FFB010E226FEB
:103AD000590E216F0001E8DE01C004FB040E0B014A
:103AE0000124016E000E0220036E0150E30FE96E07
:103AF000020E0320EA6EEFCF04FBECCF05FBECCF08
:103B000006FBECCF07FB03CB20FB02CB1FFB000126
:103B1000B6EC09F0EACF09FBE9CF08FBD89203C065
:103B200026FB02C025FB01C024FB00C023FB07CB02
:103B30002AFB06CB29FB05CB28FB04CB27FB80EC1B
:103B40000AF009CBEAFF08CBE9FF03C0F4F002C09A
:103B5000F3F001C0F2F000C0F1F00B01206B01CBDB
:103B60001FFB010E226F590E216F00019DDE02C066
:103B700003FB01C002FB0A0E0B010124016E000EC3
:103B80000220036E0150E30FE96E020E0320EA6E7D
:103B9000EF50140867E1206B01CB1FFB010E226F71
:103BA000590E216F000180DE01C002FB080E0B01DF
:103BB0000124016E000E0220036E0150E30FE96E36
:103BC000020E0320EA6EECCF03FBED52EFCF02FBB7
:103BD000206B01CB1FFB010E226F590E216F0001DC
:103BE00063DE01C004FB040E0B010124016E000E14
:103BF0000220036E0150E30FE96E020E0320EA6E0D
:103C0000EFCF04FBECCF05FBECCF06FBECCF07FBC3
:103C100003CB20FB02CB1FFB0001B6EC09F0EACF7F
:103C200009FBE9CF08FBD88203C026FB02C025FBB5
:103C300001C024FB00C023FB07CB2AFB06CB29FBDA
:103C400005CB28FB04CB27FB80EC0AF009CBEAFF6D
:103C500008CBE9FF03C0F4F002C0F3F001C0F2F0BA
:103C600000C0F1F0F4C026FBF3C025FBF2C024FB3A
:103C7000F1C023FBF4C02AFBF3C029FBF2C028FBF0
:103C8000F1C027FB000140DE03C0F8F002C0F7F0EE
:103C900001C0F6F000C0F5F0F4C026FBF3C025FB30
:103CA000F2C024FBF1C023FBF8C02AFBF7C029FBBC
:103CB000F6C028FBF5C027FB27DE03C0FCF002C0DE
:103CC000FBF001C0FAF000C0F9F00B01206B01CB52
:103CD0001FFB010E226F590E216F0001E5DD02C0AE
:103CE00003FB01C002FB0B0E0B010124016E000E51
:103CF0000220036E0150E30FE96E020E0320EA6E0C
:103D0000FCC026FBFBC025FBFAC024FBF9C023FB4B
:103D10001CC12AFB1BC129FB1AC128FB19C127FBA7
:103D20000001F2DD00C004FB01C005FB02C006FB80
:103D300003C007FBF8C026FBF7C025FBF6C024FB39
:103D4000F5C023FB20C12AFB1FC129FB1EC128FB94
:103D50001DC127FBD9DDEACF09FBE9CF08FBD892CB
:103D600007CB26FB06CB25FB05CB24FB04CB23FB93
:103D700003C02AFB02C029FB01C028FB00C027FBAF
:103D800080EC0AF009CBEAFF08CBE9FF00C004FB96
:103D900001C005FB02C006FB03C007FBF4C026FB05
:103DA000F3C025FBF2C024FBF1C023FB24C12AFB96
:103DB00023C129FB22C128FB21C127FBA5DDEACFB6
:103DC0000BFBE9CF0AFBD89207CB26FB06CB25FBE2
:103DD00005CB24FB04CB23FB03C02AFB02C029FB39
:103DE00001C028FB00C027FB80EC0AF00BCBEAFFE8
:103DF0000ACBE9FF00C004FB01C005FB02C006FBC3
:103E000003C007FBEACF0DFBE9CF0CFBD89203C040
:103E100026FB02C025FB01C024FB00C023FB28C1F8
:103E20002AFB27C129FB26C128FB25C127FB80ECE3
:103E30000AF00DCBEAFF0CCBE9FF00C0EFFF01C099
:103E4000ECFF02C0ECFF03C0ECFF0B01206B01CBC9
:103E50001FFB010E226F590E216F000125DD01C0ED
:103E600002FB0B0E0B010124016E000E0220036EFB
:103E70000150E30F016E020E032201C002FB03C0DA
:103E800003FB206B01CB1FFB010E226F590E216F2C
:103E900000010ADD01C004FB0B0E0B010124016EC1
:103EA000000E0220036E0150E30FE96E020E0320A4
:103EB000EA6EEFCF04FBECCF05FBECCF06FBECCFBB
:103EC00007FBEACF09FBE9CF08FBD88207CB26FB2B
:103ED00006CB25FB05CB24FB04CB23FB0A0E2A6F64
:103EE000D70E296F230E286F7B0E276F000180EC01
:103EF0000AF009CBEAFF08CBE9FF03CBEAFF02CBCC
:103F0000E9FF00C0EFFF01C0ECFF02C0ECFF03C0FF
:103F1000ECFF0B01206B01CB1FFB010E226F590E32
:103F2000216F0001C1DC01C002FB0B0E0B0101245B
:103F3000016E000E0220036E0150E30FE96E020EC7
:103F40000320EA6EEFCF02FBECCF03FBECCF04FBC8
:103F5000ECCF05FB05CB22FB04CB21FB03CB20FBE5
:103F600002CB1FFB266B256B246B236B00010EEC31
:103F700012F01DE30B01206B01CB1FFB010E226F22
:103F8000590E216F000190DC01C002FB0B0E0B01EA
:103F90000124016E000E0220036E0150E30FE96E52
:103FA000020E0320EA6EEF6AEC6AEC6AEC6A0B011F
:103FB000206B01CB1FFB010E226F590E216F0001F8
:103FC00073DC02C003FB01C002FB0F0E0B010124D6
:103FD000016E000E0220036E0150E30FE96E020E27
:103FE0000320EA6EEFCF02FB010E005D025D1AE0D6
:103FF00019E3206B01CB1FFB010E226F590E216FBD
:10400000000152DC01C002FB0F0E0B010124016E06
:10401000000E0220036E0150E30FE96E020E032032
:10402000EA6EEF6A206B01CB1FFB010E226F590E67
:10403000216F000139DC02C003FB01C002FB190E35
:104040000B010227000E0323206B01CB1FFB010E87
:10405000226F590E216F000127DC02C005FB01C051
:1040600004FB0F0E0B010124016E000E0220036EF3
:104070000150E30FE96E020E0320EA6E206BEFCFD2
:104080001FFB226B040E216F00010EDC02C003F047
:1040900001500B010225016E035103220150E30F71
:1040A000016E020E032201C002FB03C003FB206B62
:1040B00001CB1FFB010E226F590E216F000154EC42
:1040C0001CF002C005FB01C004FB0B0E0B01012418
:1040D000016E000E0220036E0150E30FE96E020E26
:1040E0000320EA6EEFCF00F0ECCF01F0ECCF02F04E
:1040F000ECCF03F003CBEAFF02CBE9FF00C0EFFFF8
:1041000001C0ECFF02C0ECFF03C0ECFF206B01CB51
:104110001FFB010E226F590E216F000154EC1CF0A1
:1041200001C002FB0F0E0B010124016E000E0220E4
:10413000036E0150E30FE96E020E0320EA6EEF2AD0
:10414000206B01CB1FFB010E226F590E216F000166
:1041500054EC1CF001C002FB110E0B010124016E96
:10416000000E0220036E0150E30FE96E020E0320E1
:10417000EA6EEF6AEC6AEC6AEC6A00018A6B010E87
:104180000B01005D00018A5D02E0D8B085D00B0113
:10419000206B01CB1FFB010E226F590E216F000116
:1041A00054EC1CF001C002FB110E0B010124016E46
:1041B000000E0220036E0150E30F016E020E032277
:1041C00001C002FB03C003FB03C0EAFF01C0E9FF1B
:1041D000EFCF04FBECCF05FBECCF06FBECCF07FBEE
:1041E000206B01CB1FFB010E226F590E216F0001C6
:1041F00054EC1CF002C009FB01C008FB190E0B01B6
:104200000827000E0923206B8AC01FFB226B040EB7
:10421000216F000154EC1CF002C003F001500B01AF
:104220000825016E095103220150E30FE96E020EC9
:104230000320EA6EEFCF00F0ECCF01F0ECCF02F0FC
:10424000ECCF03F0EACF09FBE9CF08FBD89207CB0C
:1042500026FB06CB25FB05CB24FB04CB23FB03C0AD
:104260002AFB02C029FB01C028FB00C027FB00017C
:1042700080EC0AF009CBEAFF08CBE9FF03CBEAFFA9
:1042800002CBE9FF00C0EFFF01C0ECFF02C0ECFF72
:1042900003C0ECFF8A2B73D70B01206B01CB1FFBF4
:1042A000010E226F590E216F000154EC1CF001C069
:1042B00002FB110E0B010124016E000E0220036EA1
:1042C0000150E30F016E020E032201C002FB03C086
:1042D00003FB206B01CB1FFB010E226F590E216FD8
:1042E000000154EC1CF001C004FB110E0B01012471
:1042F000016E000E0220036E0150E30FE96E020E04
:104300000320EA6EEFCF04FBECCF05FBECCF06FBFE
:10431000ECCF07FB206B00CB1FFB0001B6EC09F0D4
:1043200007CB22FB06CB21FB05CB20FB04CB1FFBDD
:1043300003C026FB02C025FB01C024FB00C023FBF9
:10434000D1EC09F000C004FB01C005FB02C006FB74
:1043500003C007FB0B01206B01CB1FFB010E226F7B
:10436000590E216F000154EC1CF002C009FB01C082
:1043700008FB150E0B010124016E000E0220036ED6
:104380000150E30FE96E020E0320EA6EEFCF00F05A
:10439000ECCF01F0ECCF02F0ECCF03F007CB26FB23
:1043A00006CB25FB05CB24FB04CB23FB03C02AFB58
:1043B00002C029FB01C028FB00C027FB000184ECE0
:1043C0001CF003CBEAFF02CBE9FF00C0EFFF01C006
:1043D000ECFF02C0ECFF03C0ECFF0B01206B01CB34
:1043E0001FFB010E226F590E216F000154EC1CF0CF
:1043F00002C003FB01C002FB110E0B010124016E80
:10440000000E0220036E0150E30FE96E020E03203E
:10441000EA6EEFCF00F0ECCF01F0ECCF02F0ECCF82
:1044200003F000013EEF33F00B01056B046B036BEF
:10443000026B096B086B076B066B0D6B0C6B0B6BE0
:104440000A6B3D0E116F9B0E106F750E0F6F7D0E78
:104450000E6FA50E156FBD0E146F210E136F7E0E1D
:10446000126F196B186B176B166B1D6B1C6B1B6B2C
:104470001A6B1E6B096B086B076B066B196B186B5D
:10448000176B166B01CB1FFB000165EC1CF002C023
:1044900020FB01C01FFBB6EC09F003C00DFB02C0FE
:1044A0000CFB01C00BFB00C00AFB0DCB22FB0CCBAD
:1044B00021FB0BCB20FB0ACB1FFB0B01266BC00E95
:1044C000256F7F0E246F880E236F0001D1EC09F059
:1044D00000C01FFB01C020FB02C021FB03C022FB68
:1044E00003C026FB02C025FB01C024FB00C023FB48
:1044F0000B012A6B296B200E286F810E276F00019C
:1045000084EC1CF003C00DFB02C00CFB01C00BFBD4
:1045100000C00AFB0DCB26FB0CCB25FB0BCB24FBF1
:104520000ACB23FB0DCB2AFB0CCB29FB0BCB28FBA7
:104530000ACB27FB84EC1CF000C01FFB01C020FB52
:1045400002C021FB03C022FB03C026FB02C025FBE7
:1045500001C024FB00C023FBF7CA2AFBF6CA29FBD3
:10456000F5CA28FBF4CA27FB84EC1CF000C01FFB33
:1045700001C020FB02C021FB03C022FB0DCB26FBA8
:104580000CCB25FB0BCB24FB0ACB23FBFBCA2AFB62
:10459000FACA29FBF9CA28FBF8CA27FB84EC1CF0ED
:1045A000D89222CB26FB21CB25FB20CB24FB1FCB93
:1045B00023FB03C02AFB02C029FB01C028FB00C06B
:1045C00027FB80EC0AF000C01FFB01C020FB02C0EB
:1045D00021FB03C022FBD89203C026FB02C025FBAF
:1045E00001C024FB00C023FBFFCA2AFBFECA29FB33
:1045F000FDCA28FBFCCA27FB80EC0AF003C005FBC0
:1046000002C004FB01C003FB00C002FBD88205CB43
:1046100026FB04CB25FB03CB24FB02CB23FB0A0E9A
:104620000B012A6FD70E296F230E286F7A0E276F82
:10463000000180EC0AF003C005FB02C004FB01C0CE
:1046400003FB00C002FB05CB22FB04CB21FB03CB09
:1046500020FB02CB1FFB0B01266B256B246B236B0E
:1046600000010EEC12F006E30B01056B046B036B0B
:10467000026B000111CB26FB10CB25FB0FCB24FBDB
:104680000ECB23FB05CB2AFB04CB29FB03CB28FB5A
:1046900002CB27FB84EC1CF003C019FB02C018FB03
:1046A00001C017FB00C016FB19CB22FB18CB21FB66
:1046B00017CB20FB16CB1FFB15CB26FB14CB25FB02
:1046C00013CB24FB12CB23FBD1EC09F003C01DFB61
:1046D00002C01CFB01C01BFB00C01AFB0B011E51DA
:1046E000005D01E21E6B1E51040DF350036A910F31
:1046F000E96E020E0320EA6E1ACBEFFF1BCBECFF34
:104700001CCBECFF1DCBECFF1E2B0201CF6B010E6F
:104710000B01005D0201CF5D01E038E200018D5127
:10472000040DF350036A910FE96E020E0320EA6E46
:10473000EFCF00F0ECCF01F0ECCF02F0ECCF03F0C4
:10474000EACF20FBE9CF1FFBD89209CB26FB08CB91
:1047500025FB07CB24FB06CB23FB03C02AFB02C0AF
:1047600029FB01C028FB00C027FB80EC0AF020CB0E
:10477000EAFF1FCBE9FF03C009FB02C008FB01C031
:1047800007FB00C006FB0201CF2BC1D70B01206B3A
:1047900000CB1FFB0001B6EC09F009CB22FB08CBD4
:1047A00021FB07CB20FB06CB1FFB03C026FB02C06F
:1047B00025FB01C024FB00C023FBD1EC09F003C0A2
:1047C00009FB02C008FB01C007FB00C006FB0B0190
:1047D000206B01CB1FFB010E226F590E216F0001D0
:1047E00054EC1CF002C020FB01C01FFB150E0B0196
:1047F0000124016E000E0220036E0150E30FE96EEA
:10480000020E0320EA6EEFCF00F0ECCF01F0ECCF08
:1048100002F0ECCF03F009CB26FB08CB25FB07CB3E
:1048200024FB06CB23FB03C02AFB02C029FB01C0EB
:1048300028FB00C027FB000184EC1CF04EEF33F096
:104840000B01206B01CB1FFB226B440E216F00017B
:1048500054EC1CF001C002FB400E0B010124016E60
:10486000000E0220036E0150A00FE96E090E032016
:10487000EA6EEF6AEC6AEC6AEC6A206B01CB1FFB14
:10488000226B440E216F000154EC1CF001C002FBAE
:10489000A00E0B010124016E090E0220036E01C05F
:1048A00002FB036F01CB1FFB000165EC1CF003CB87
:1048B000EAFF02CBE9FF02C0ECFFED5201C0EFFFBF
:1048C0000B01206B01CB1FFB226B440E216F0001FB
:1048D00054EC1CF001C002FB020E0B010124016E1E
:1048E000000E0220036E0150A00F016E090E03227C
:1048F00001C002FB03C003FB206B01CB1FFB226B3B
:10490000440E216F000154EC1CF002C005FB01C0F5
:1049100004FBA00E0B010124E96E090E0220EA6ED1
:10492000ECCF03F0ED52EFCF1FFB03C020FB0001E3
:10493000B6EC09F003CBEAFF02CBE9FF00C0EFFFC2
:1049400001C0ECFF02C0ECFF03C0ECFF0B01206BC9
:1049500001CB1FFB226B440E216F000154EC1CF0B5
:1049600001C002FB0A0E0B010124016E000E0220A1
:10497000036E0150A00F016E090E032201C002FB5D
:1049800003C003FB206B01CB1FFB226B440E216F86
:10499000000154EC1CF001C004FB020E0B010124C9
:1049A000016E000E0220036E0150A00FE96E090E89
:1049B0000320EA6EEFCF04FBECCF05FBECCF06FB48
:1049C000ECCF07FB206B01CB1FFB226B440E216F4A
:1049D000000154EC1CF002C009FB01C008FB060EEC
:1049E0000B010124016E000E0220036E0150A00F86
:1049F000E96E090E0320EA6EEFCF00F0ECCF01F074
:104A0000ECCF02F0ECCF03F007CB22FB06CB21FB6F
:104A100005CB20FB04CB1FFB03C026FB02C025FBFC
:104A200001C024FB00C023FB0001D1EC09F000C051
:104A300004FB01C005FB02C006FB03C007FBEACF75
:104A400009FBE9CF08FBD88203C026FB02C025FB87
:104A500001C024FB00C023FB0B012A6B296B286BD0
:104A60007F0E276F000180EC0AF009CBEAFF08CB2C
:104A7000E9FF03CBEAFF02CBE9FF00C0EFFF01C073
:104A8000ECFF02C0ECFF03C0ECFF0B01206B01CB7D
:104A90001FFB226B440E216F000154EC1CF001C07F
:104AA00002FB0A0E0B010124016E000E0220036EB0
:104AB0000150A00FE96E090E0320EA6EEFCF02FB52
:104AC000ECCF03FBECCF04FBECCF05FB05CB22FBCB
:104AD00004CB21FB03CB20FB02CB1FFB266B256BFA
:104AE000246B236B00010EEC12F01DE30B01206B15
:104AF00001CB1FFB226B440E216F000154EC1CF014
:104B000001C002FB0A0E0B010124016E000E0220FF
:104B1000036E0150A00FE96E090E0320EA6EEF6AE2
:104B2000EC6AEC6AEC6A0B01206B01CB1FFB226B79
:104B3000440E216F000154EC1CF002C003FB01C0C5
:104B400002FB120E0B010124016E000E0220036E07
:104B50000150A00FE96E090E0320EA6EEFCF02FBB1
:104B6000010E005D025D1AE019E3206B01CB1FFB13
:104B7000226B440E216F000154EC1CF001C002FBBB
:104B8000120E0B010124016E000E0220036E015073
:104B9000A00FE96E090E0320EA6EEF6A206B01CBCD
:104BA0001FFB226B440E216F000154EC1CF002C06D
:104BB00003FB01C002FB180E0B010227000E0323AA
:104BC000206B01CB1FFB226B440E216F000154ECC4
:104BD0001CF002C005FB01C004FB120E0B010124F6
:104BE000016E000E0220036E0150A00FE96E090E47
:104BF0000320EA6E206BEFCF1FFB226B040E216FA8
:104C0000000154EC1CF002C003F001500B0102251E
:104C1000016E035103220150A00F016E090E032201
:104C200001C002FB03C003FB206B01CB1FFB226B07
:104C3000440E216F000154EC1CF001C004FB0A0E6D
:104C40000B010124016E000E0220036E0150A00F23
:104C5000E96E090E0320EA6EEFCF04FBECCF05FBF3
:104C6000ECCF06FBECCF07FB07CB26FB06CB25FBE7
:104C700005CB24FB04CB23FBD70E2A6FA30E296F91
:104C8000286B810E276F000184EC1CF003CBEAFF38
:104C900002CBE9FF00C0EFFF01C0ECFF02C0ECFF58
:104CA00003C0ECFF0B01206B01CB1FFB226B440EFA
:104CB000216F000154EC1CF001C002FB120E0B012D
:104CC0000124016E000E0220036E0150A00FE96E58
:104CD000090E0320EA6EEF2A00018A6B010E0B0118
:104CE000005D00018A5D02E0D8B083D00B01206B2B
:104CF00001CB1FFB226B440E216F000154EC1CF012
:104D000001C002FB400E0B010124016E000E0220C7
:104D1000036E0150A00F016E090E032201C002FBB9
:104D200003C003FB03C0EAFF01C0E9FFEFCF04FBB0
:104D3000ECCF05FBECCF06FBECCF07FB206B01CBE8
:104D40001FFB226B440E216F000154EC1CF002C0CB
:104D500009FB01C008FB180E0B010827000E0923F0
:104D6000206B8AC01FFB226B040E216F000154ECE4
:104D70001CF002C003F001500B010825016E09511F
:104D800003220150A00FE96E090E0320EA6EEFCF57
:104D900000F0ECCF01F0ECCF02F0ECCF03F0EACF63
:104DA00009FBE9CF08FBD89207CB26FB06CB25FBF6
:104DB00005CB24FB04CB23FB03C02AFB02C029FB49
:104DC00001C028FB00C027FB000180EC0AF009CBE2
:104DD000EAFF08CBE9FF03CBEAFF02CBE9FF00C003
:104DE000EFFF01C0ECFF02C0ECFF03C0ECFF8A2B19
:104DF00075D70B01206B01CB1FFB226B440E216F7B
:104E0000000154EC1CF001C002FB400E0B01012418
:104E1000016E000E0220036E0150A00F016E090EFC
:104E2000032201C002FB03C003FB206B01CB1FFB6D
:104E3000226B440E216F000154EC1CF001C004FBF6
:104E4000400E0B010124016E000E0220036E015082
:104E5000A00FE96E090E0320EA6EEFCF04FBECCF42
:104E600005FBECCF06FBECCF07FB206B00CB1FFB59
:104E70000001B6EC09F007CB22FB06CB21FB05CBEA
:104E800020FB04CB1FFB03C026FB02C025FB01C097
:104E900024FB00C023FBD1EC09F003CBEAFF02CBDB
:104EA000E9FF00C0EFFF01C0ECFF02C0ECFF03C050
:104EB000ECFF0B01206B01CB1FFB226B440E216F1B
:104EC000000154EC1CF001C002FB400E0B01012458
:104ED000016E000E0220036E0150A00FE96E090E54
:104EE0000320EA6EEFCF02FBECCF03FBECCF04FB19
:104EF000ECCF05FB206B01CB1FFB226B440E216F17
:104F0000000154EC1CF002C007FB01C006FB140EAC
:104F10000B010124016E000E0220036E0150A00F50
:104F2000E96E090E0320EA6EEFCF00F0ECCF01F03E
:104F3000ECCF02F0ECCF03F005CB26FB04CB25FB36
:104F400003CB24FB02CB23FB03C02AFB02C029FBBB
:104F500001C028FB00C027FB000184EC1CF0000C02
:104F60000B01046B036B026B016B086B076B066B29
:104F7000056B0C6B0B6B0A6B096B106B0F6B0E6B7D
:104F80000D6B1F6B000165EC1CF002C020FB01C023
:104F90001FFBB6EC09F003C004FB02C003FB01C019
:104FA00002FB00C001FB0B01266B256B200E246F5A
:104FB000810E236F04CB2AFB03CB29FB02CB28FBFA
:104FC00001CB27FB000184EC1CF000C011FB01C0E9
:104FD00012FB02C013FB03C014FB03C022FB02C080
:104FE00021FB01C020FB00C01FFB0B01266BC00E84
:104FF000256F7F0E246F880E236F0001D1EC09F01E
:1050000003C008FB02C007FB01C006FB00C005FB94
:1050100008CB22FB07CB21FB06CB20FB05CB1FFBDC
:105020000A0E0B01266FD70E256F230E246F780E04
:10503000236F0001D1EC09F003C00CFB02C00BFB95
:1050400001C00AFB00C009FB0201D0510B01005D49
:1050500002E20201D06B0201D051040DF350036A49
:10506000A10FE96E010E0320EA6E09CBEFFF0ACB18
:10507000ECFF0BCBECFF0CCBECFFD02B0B01106B40
:105080000F6B0E6B0D6B0201D16B010E0B01005DFE
:105090000201D15D01E038E2D151040DF350036A01
:1050A000A10FE96E010E0320EA6EEFCF00F0ECCF06
:1050B00001F0ECCF02F0ECCF03F0EACF12FBE9CF26
:1050C00011FBD89210CB26FB0FCB25FB0ECB24FB7C
:1050D0000DCB23FB03C02AFB02C029FB01C028FB28
:1050E00000C027FB000180EC0AF012CBEAFF11CBD5
:1050F000E9FF03C010FB02C00FFB01C00EFB00C0A4
:105100000DFB0201D12BC1D70B01206B00CB1FFB84
:105110000001B6EC09F010CB22FB0FCB21FB0ECB2C
:1051200020FB0DCB1FFB03C026FB02C025FB01C0EB
:1051300024FB00C023FBD1EC09F07CEF33F08E0E92
:10514000006E0B010051005E01CB02F002CB01F0BA
:10515000028E005209E0D890025202E1015204E0AE
:1051600002320132002EF7D701AF05D0011E021E18
:10517000012AD8B4022A0001000C8B9094908C80F4
:1051800095908C8295928C8495948B9294928B9628
:1051900094968B949494000C0900F6CF03FBF7CF00
:1051A00004FBF8CF05FBF5509EA8FED7AD6E03CBF0
:1051B000F6FF04CBF7FF05CBF8FF0B01022F01D060
:1051C00002D00001E9D70001000C0B010A51016A6D
:1051D000095D03E209CB00F00CD0006A080E0B6FEA
:1051E000093700360A51005CD8B0006E01360B2F2B
:1051F000F7D70001000C015001CB09FB640E0B0135
:105200000A6F0001E2DF00C001FB0150300E08E12F
:105210000B0102A30ED002B70CD002B9200E04D0AD
:105220000B01029702990281012601509EA8FED728
:10523000AD6E01CB09FB0A0E0A6F0001C6DF00C08C
:1052400001FB0150300E08E10B0102B70BD002A1A7
:1052500009D002B9200E0001012601509EA8FED7F8
:10526000AD6E0B01300E012701519EA8FED7AD6E29
:105270000001000C8C9E959E8C9C959C000C968445
:1052800084B403D07E8318EC1AF07EA31FD018ECF0
:105290001AF0968284A203D0968084B001D07E93C7
:1052A000968284B204D0968084A001D07E939682A8
:1052B00084B204D0968084B001D07E93968284A27A
:1052C00004D0968084B001D07E931ED0968284A2B2
:1052D00005D0968084A002D02AEC1AF0968284B27F
:1052E00004D0968084A001D0C5DF968284B204D019
:1052F000968084B001D0BEDF968284A205D09680CD
:1053000084B002D02AEC1AF045EF3FF0006A016A3F
:105310000B010151D89002B100260032013202B3D4
:1053200000260032013202B500260032013202B7F7
:1053300000260032013202B900260032013202BBDF
:1053400000260032013202BD00260032013202BFC7
:105350000026003201320001000C0B010451061935
:10536000800B086F04AF05D0031F041F032BD8B4B4
:10537000042B06AF05D0051F061F052BD8B4062B3E
:1053800003510503F3CF01F0F4CF00F00603F3500F
:10539000002604510503F3500020026E08AF05D02B
:1053A000011E021E012AD8B4022A0001000C8E0E32
:1053B000006E01CB01F000CB02F0036A01AE05D014
:1053C000011E021E022A01E1012A015209E102C066
:1053D00001F0026A080E005E015202E1006A0DD07F
:1053E000D89001BE04D0023601360006F9D70B0171
:1053F00001AF02D0000101D0019E0001000C0B01A1
:105400000D51B6080D6F036A0ECB11FB0E8FD890AD
:105410000E330F33103303320232013200320D2FBC
:10542000F6D711AF0BD0001E011E021E031E002A6C
:10543000D8B4012AD8B4022AD8B4032A00018DEFC7
:105440002AF0006A016A026A036A0B01156B166B87
:10545000176B186B14511311121111112CE0200E3F
:10546000196FD8900D370E370F371037153716379D
:10547000173718371451185D08E11351175D05E10E
:105480001251165D02E11151155D0FE31151155FC7
:105490001251D8A0123D165F1351D8A0133D175FCB
:1054A0001451D8A0143D185FD8800036013602365A
:1054B0000336192FD6D70B0EEA6E150EE96E0001D2
:1054C000000CE9500B01056F0451076F1CE003CB82
:1054D00026FB02CB25FB01CB24FB00CB23FB2A6B55
:1054E000296B200E286F820E276F000184EC1CF0C0
:1054F00003C003FB02C002FB01C001FB00C000FBB4
:105500000B01072FE4D703CB10FB02CB0FFB01CB22
:105510000EFB00CB0DFB000172D703C003FB02C0E2
:1055200002FB01C001FB00C000FB0B0103AF0DD06B
:105530000507058B001F011F021F031F002BD8B496
:10554000012BD8B4022BD8B4032B3B0E0C6F9A0E50
:105550000B6FCA0E0A6F096B0A0E076F0451D8B49D
:10556000052B03CB10FB02CB0FFB01CB0EFB00CBBB
:105570000DFB0CCB14FB0BCB13FB0ACB12FB09CBA3
:1055800011FB00015EDF0150EFCF00FBECCF01FB10
:10559000ECCF02FBECCF03FB005213E10B0104291B
:1055A000075DD8A402D000010CD005510DE00F0B0F
:1055B000075D01E03CE205BF3AD005BD05D0200EF5
:1055C00031D0200E0B01051705AB0DD0059B045102
:1055D000D8A405070050056F2D0E9EA8FED7AD6E0E
:1055E0000551006E056B0451075D0BE10050056F1E
:1055F0002E0E9EA8FED7AD6E0551006E200E05172B
:10560000000E300E05AB0ED0059B0451D8A4050743
:105610000050056F2D0E9EA8FED7AD6E0551006E91
:10562000056B300E002600509EA8FED7AD6E0CCB49
:1056300010FB0BCB0FFB0ACB0EFB09CB0DFB146B46
:10564000136B126B0A0E116F0001FBDE03C00CFB23
:1056500002C00BFB01C00AFB00C009FB0B01072FB6
:1056600080D70001000C0B01226B216B206B1F6B9C
:1056700010C126FB0FC125FB0EC124FB0DC123FB6E
:1056800000010EEC12F002E2D8A47ED010C122FB81
:105690000FC121FB0EC120FB0DC11FFB0B01266BAF
:1056A000256B480E246F830E236F00010EEC12F061
:1056B00001E26AE110C126FB0FC125FB0EC124FBEC
:1056C0000DC123FB0B012A6B296B480E286F850E39
:1056D000276F000184EC1CF000C000FB01C001FB3F
:1056E00002C002FB03C003FB03C022FB02C021FB7C
:1056F00001C020FB00C01FFB0B01266B256B480E71
:10570000246F830E236F0001D1EC09F003C003FB6B
:1057100002C002FB01C001FB00C000FB10DD01C0A4
:1057200000FB5C0EF66E010EF76E000EF86E070EB3
:105730000B01026F000130DD00CB01FB1B0E0B01E2
:10574000026F000158DD9BEC09F0660EF66E010E4B
:10575000F76E000EF86E82EC09F09BEC09F0700E0B
:10576000F66E010EF76E000EF86E82EC09F09BECFF
:1057700009F07A0EF66E010EF76E000EF86E82ECEE
:1057800009F09BEC09F00FD20B01226B216B480E44
:10579000206F830E1F6F10C126FB0FC125FB0EC1AA
:1057A00024FB0DC123FB00010EEC12F0D8A09AD00F
:1057B00010C122FB0FC121FB0EC120FB0DC11FFB3D
:1057C0000B01266B256B480E246F840E236F00019E
:1057D0000EEC12F002E2D8A485D010C126FB0FC156
:1057E00025FB0EC124FB0DC123FB0B012A6B296B8A
:1057F000480E286F850E276F000184EC1CF000C056
:1058000000FB01C001FB02C002FB03C003FB03C09D
:1058100022FB02C021FB01C020FB00C01FFB0B01CB
:10582000266B256B480E246F830E236F0001D1EC8D
:1058300009F000C000FB01C001FB02C002FB03C075
:1058400003FBD88203C026FB02C025FB01C024FB5A
:1058500000C023FB0B012A6B296B480E286F850EB5
:10586000276F000180EC0AF003C003FB02C002FBBB
:1058700001C001FB00C000FB62DC01C000FB840E24
:10588000F66E010EF76E000EF86E070E0B01026F3A
:10589000000182DC00CB01FB1B0E0B01026F00013B
:1058A000AADC9BEC09F08E0EF66E010EF76E000E70
:1058B000F86E82EC09F09BEC09F09A0EF66E010E80
:1058C000F76E000EF86E82EC09F09BEC09F0A40E66
:1058D000F66E010EF76E000EF86E82EC09F09BEC8E
:1058E00009F061D10B01226B216B480E206F840EF1
:1058F0001F6F10C126FB0FC125FB0EC124FB0DC17C
:1059000023FB00010EEC12F0D8A09DD010C122FBA9
:105910000FC121FB0EC120FB0DC11FFB0B01266B2C
:10592000256B160E246F850E236F00010EEC12F00E
:1059300002E2D8A488D010C126FB0FC125FB0EC1FE
:1059400024FB0DC123FB0B012A6B296B480E286F2A
:10595000850E276F000184EC1CF000C000FB01C025
:1059600001FB02C002FB03C003FB03C022FB02C019
:1059700021FB01C020FB00C01FFB0B01266B256B28
:10598000480E246F830E236F0001D1EC09F000C094
:1059900000FB01C001FB02C002FB03C003FBD88275
:1059A00003C026FB02C025FB01C024FB00C023FB73
:1059B0000B012A6B296B480E286F860E276F00019A
:1059C00080EC0AF003C003FB02C002FB01C001FB34
:1059D00000C000FB9FEC28F001C000FBAE0EF66E8D
:1059E000010EF76E000EF86E070E0B01026F00013C
:1059F000CCEC28F000CB01FB1B0E0B01026F000169
:105A0000FBEC28F09BEC09F0B80EF66E010EF76E79
:105A1000000EF86E82EC09F09BEC09F0C40EF66EF5
:105A2000010EF76E000EF86E82EC09F09BEC09F0A7
:105A3000D00EF66E010EF76E000EF86E82EC09F0D5
:105A40009BEC09F0B0D00B01226B216B160E206F7E
:105A5000850E1F6F10C126FB0FC125FB0EC124FB55
:105A60000DC123FB00010EEC12F0D8A09CD010C198
:105A700022FB0FC121FB0EC120FB0DC11FFB0B013F
:105A8000266B256B480E246F850E236F00010EECEC
:105A900012F002E2D8A487D010C126FB0FC125FB6B
:105AA0000EC124FB0DC123FB0B012A6B296B480E91
:105AB000286F850E276F000184EC1CF000C000FBEE
:105AC00001C001FB02C002FB03C003FB03C022FBB9
:105AD00002C021FB01C020FB00C01FFB0B01266B95
