:0400000006EF25F0F2
:08000800046ED8CF05F0E0CF33
:1000100006F00001E9CF0CF0EACF07F0E1CF08F0DD
:10002000E2CF09F0D9CF0AF0DACF0BF0F3CF12F01C
:10003000F4CF13F0FACF14F0FBCF15F000C00EF0A0
:1000400001C00FF002C010F003C011F09DA02CEF12
:1000500000F09EB091EF09F00EC000F00FC001F06B
:1000600010C002F011C003F00CC0E9FF07C0EAFFA6
:10007000078E08C0E1FF09C0E2FF0AC0D9FF0BC02C
:10008000DAFF12C0F3FF13C0F4FF14C0FAFF15C06B
:10009000FBFF045006C0E0FF05C0D8FF1000F2CF00
:1000A0000DF0F29EF76ABC0FF66E000EF722000EFE
:1000B000F86E0900F5500DBEF28E1200000000002F
:1000C0000000005F00000003000300143E143E1413
:1000D000242A7F2A1243330866613649552250008C
:1000E00005030000001C2241000041221C001408EE
:1000F0003E081408083E08080050300000080808B0
:100100000808006060000020100804023E514945C4
:100110003E0004027F00426151494622414949366E
:100120001814127F1027454545393E494949320187
:10013000017109073649494936264949493E003681
:100140003600000056360000081422410014141432
:100150001414004122140802015109063E41595568
:100160005E7E0909097E7F494949363E4141412267
:100170007F4141413E7F494949417F090909013E8B
:100180004141493A7F0808087F00417F41003040E3
:1001900040403F7F081422417F404040407F020C96
:1001A000027F7F0204087F3E4141413E7F090909E9
:1001B000061E2121215E7F0909097600F2CF0DF08C
:1001C000F29EF76ADA0FF66E010EF722000EF86E55
:1001D0000900F5500DBEF28E120026494949320140
:1001E000017F01013F4040403F1F2040201F7F20F2
:1001F00010207F41221C22410708700807615149E5
:100200004543007F41000002040810200000417FA8
:10021000000402010204404040404000010204008A
:1002200020545454787F4444443838444444443837
:100230004444447F385454541804047E050508543B
:1002400054543C7F0804047800447D40002040441E
:100250003D007F1028440000417F40007C0478046A
:10026000787C0804047838444444387C1414140816
:10027000081414147C007C080404485454542004CA
:10028000043F44443C4040207C1C2040201C3C4017
:1002900030403C44281028440C5050503C44645496
:1002A0004C44000836414100007F000041413608BF
:1002B000000201020402F2CF0DF0F29ED20FF66EA0
:1002C000020EF722000EF86E0900F5500DBEF28EF8
:1002D000120000000000000000000000000000000C
:1002E000000000000000000000000000000000000E
:1002F00000000000000000000000000000000000FE
:1003000000000000000000000000000000000000ED
:1003100000000000000000000000000000000000DD
:1003200000000000000000000000000000000000CD
:1003300000000000000000000000000000000000BD
:1003400000000000000000000000000000000000AD
:10035000000000000000000000000000000000009D
:10036000000000000000000000000000000000008D
:10037000000000000000000000000000000000007D
:10038000000000000000000000000000000000006D
:10039000000000000000000000000000000000005D
:1003A000000000000000000000000000000000004D
:1003B000000000000000000000000000000000003D
:1003C0000000000000000000000000000000000825
:1003D0000080000000000000000000000000000499
:1003E000010000000000000000000000000000020A
:1003F00002000000000000000000000000000000FB
:100400007800000000000000000000000000000074
:100410008400000000000000000000000000000157
:10042000020000000000000000000000000000F9D1
:1004300002F80000000000000000000000000001C1
:1004400002000000000000000000000000000001A9
:100450000200000000000000000000000000000496
:100460008480000000000000000000000000000880
:1004700078400000000000000000000000000010B4
:1004800048200000000000000000000000000020E4
:100490004810000000000000000000000000000004
:1004A00078000000000000000000000000000000D4
:1004B000000000000000000000000000000000003C
:1004C000000000000000000000000000000000002C
:1004D000000000000000000000000000000000001C
:1004E000000000000000000000000000000000000C
:1006D0000000F2CF0DF0F29EEE0FF66E060EF7223E
:1006E000000EF86E0900F5500DBEF28E12000000EB
:1006F00000000000000000000000000000000000FA
:1007000000000000000000000000000000000000E9
:1007100000000000000000000000000000000000D9
:1007200000000000000000000000000000000000C9
:1007300000000000000000000000000000000000B9
:1007400000000000000000000000000000000000A9
:100750000000000000000000000000000000000099
:100760000000000000000000000000000000000089
:100770000000000000000000000000000000000079
:100780000000000000000000000000000000000069
:100790000000000000000000000000000000000059
:1007A0000000000000000000000000000000000049
:1007B0000000000000000000000000000000000039
:1007C0000000000000000000000000000000000029
:1007D0000000000000000000000000000000000019
:1007E0000000000000000000000000000000000009
:1007F00000000000000000000000000000000000F9
:1008000000000000000000000000000000000000E8
:1008100000000000000000000000000000000000D8
:1008200000000000000000000000000000000000C8
:1008300000000000000000000000000000000000B8
:1008400000000000000000000000000000000000A8
:100850000000000000000000000000000000000098
:100860000000000000000000000000000000000088
:100870000000000000000000000000000000000078
:100880000000000000000000000000000000000068
:100890000000000000000000000000000000000058
:1008A0000000000000000000000000000000000048
:1008B0000000000000000000000000000000000038
:1008C0000000000000000000000000000000000028
:1008D00000000000000000000000007FFFF80000A2
:1008E00000000000000000000000004000080000C0
:1008F0000000000000000000000000470388000026
:100900000000000000000000000000450288000018
:100910000000000000000000000000450288000008
:1009200000000000000000000000004502880000F8
:1009300000000000000000000000004502880000E8
:1009400000000000000000000000004703880000D5
:10095000000000000000000000000040000800004F
:10096000000000000000000000000040FC08000043
:1009700000000000000000000000004084080000AB
:10098000000000000000000000000040840800009B
:10099000000000000000000000000040FC08000013
:1009A00000000000000000000000004000080000FF
:1009B00000000000000000000000007FFFF80000C1
:1009C0000000000000000000000000000000000027
:1009D0000000000000000000000000000000000017
:1009E0000000000000000000000000000000000007
:1009F00000000000000000000000000000000000F7
:100A000000000000000000000000000000000000E6
:100A100000000000000000000000000000000000D6
:100A200000000000000000000000000000000000C6
:100A300000000000000000000000000000000000B6
:100A400000000000000000000000000000000000A6
:100A50000000000000000000000000000000000096
:100A60000000000000000000000000000000000086
:100A70000000000000000000000000000000000076
:100A80000000000000000000000000000000000066
:100A90000000000000000000000000000000000056
:100AA0000000000000000000000000000000000046
:100AB0000000000000000000000000000000000036
:100AC0000000000000000000000000000000000026
:100AD0000000000000000000000000000000000016
:100AE0000000000000000000000000000000F2CF45
:100AF0000DF0F29E0A0FF66E0B0EF722000EF86E46
:100B00000900F5500DBEF28E12000000000000003A
:100B100000000000000000000000000000000000D5
:100B200000000000000000000000000000000000C5
:100B300000000000000000000000000000000000B5
:100B400000000000000000000000000000000000A5
:100DF0000000000000000000600000000000000093
:100E00000000000000000000F000000000000000F2
:100E10000000000000000001F800000000000000D9
:100E20000000000000000001F800000000000000C9
:100E30000000000000000001F800000000000000B9
:100E40000000000000000000F000000000000000B2
:100E5000000000000000003871C000000000000029
:100E6000000000000000007C93E000000000000093
:100E700000000000000000FF0FF000000000000074
:100E800000000000000000FF0FF000000000000064
:100E9000000000000000007D93E000000000000062
:100EA000000000000000003861C0000000000000E9
:100EB0000000000000000000F00000000000000042
:100EC0000000000000000001F80000000000000029
:100ED0000000000000000001F80000000000000019
:100EE0000000000000000001F80000000000000009
:100EF0000000000000000000F00000000000000002
:100F000000000000000000006000F2CF0DF0F29E33
:100F1000F76A280FF66E0F0EF722000EF86E090022
:100F2000F5500DBEF28E1200436C61766500F2CF73
:100F30000DF0F29EF76A4C0FF66E0F0EF722000EC0
:100F4000F86E0900F5500DBEF28E1200436F7272FA
:100F5000656374610000F2CF0DF0F29EF76A740FC2
:100F6000F66E0F0EF722000EF86E0900F5500DBE5A
:100F7000F28E1200496E636F7272656374610000D5
:100F8000F2CF0DF0F29EF76A9E0FF66E0F0EF7226B
:100F9000000EF86E0900F5500DBEF28E12004D6580
:100FA0006E750000F2CF0DF0F29EF76AC20FF66E7A
:100FB0000F0EF722000EF86E0900F5500DBEF28EEE
:100FC00012005469656D706F205075726761000082
:100FD000F2CF0DF0F29EF76AEE0FF66E0F0EF722CB
:100FE000000EF86E0900F5500DBEF28E120043613E
:100FF0006D62696F20646520436C61766500F2CF95
:101000000DF0F29EF76A1C0FF66E100EF722000E1E
:10101000F86E0900F5500DBEF28E12004D6F646F30
:101020000000F2CF0DF0F29EF76A400FF66E100E40
:10103000F722000EF86E0900F5500DBEF28E120078
:10104000542E2050757267610000F2CF0DF0F29EB1
:10105000F76A680FF66E100EF722000EF86E0900A0
:10106000F5500DBEF28E12004D616E74656E696DA5
:1010700069656E746F00F2CF0DF0F29EF76A940FFF
:10108000F66E100EF722000EF86E0900F5500DBE38
:10109000F28E1200536572766963696F0000F2CFB9
:1010A0000DF0F29EF76ABC0FF66E100EF722000EDE
:1010B000F86E0900F5500DBEF28E1200436C617699
:1010C00065204E7565766100F2CF0DF0F29EF76AED
:1010D000E60FF66E100EF722000EF86E0900F550BE
:1010E0000DBEF28E12004D616E74656E69656E7490
:1010F0006F00F2CF0DF0F29EF76A100FF66E110E30
:10110000F722000EF86E0900F5500DBEF28E1200A7
:1011100054726162616A6F2046696C74726F2868EC
:10112000293A0000F2CF0DF0F29EF76A420FF66EF8
:10113000110EF722000EF86E0900F5500DBEF28E6A
:10114000120053656E736F7220646520466C756A79
:101150006F00F2CF0DF0F29EF76A700FF66E110E6F
:10116000F722000EF86E0900F5500DBEF28E120047
:1011700053656E736F722064652050726573696F7A
:101180006E00F2CF0DF0F29EF76AA00FF66E110E10
:10119000F722000EF86E0900F5500DBEF28E120017
:1011A00056656C6F63696461642056656E74696C22
:1011B00061646F720000F2CF0DF0F29EF76AD40FF7
:1011C000F66E110EF722000EF86E0900F5500DBEF6
:1011D000F28E120052656C6163696F6E20442F4974
:1011E0000000F2CF0DF0F29EF76A000FF66E120EBD
:1011F000F722000EF86E0900F5500DBEF28E1200B7
:1012000053656C656363696F6E2056656C00F2CF41
:101210000DF0F29EF76A2C0FF66E120EF722000EFA
:10122000F86E0900F5500DBEF28E120056656C6F17
:10123000636964616400F2CF0DF0F29EF76A540FA7
:10124000F66E120EF722000EF86E0900F5500DBE74
:10125000F28E120047756172646164610000F2CF22
:101260000DF0F29EF76A7C0FF66E120EF722000E5A
:10127000F86E0900F5500DBEF28E120052656C61D9
:1012800063696F6E0000F2CF0DF0F29EF76AA40F53
:10129000F66E120EF722000EF86E0900F5500DBE24
:1012A000F28E120056616C6F7200F2CF0DF0F29E5A
:1012B000F76AC80FF66E120EF722000EF86E0900DC
:1012C000F5500DBEF28E1200477561726461646F55
:1012D0000000F2CF0DF0F29EF76AF00FF66E120EDC
:1012E000F722000EF86E0900F5500DBEF28E1200C6
:1012F0005469656D706F0000F2CF0DF0F29EF76AD1
:10130000160FF66E130EF722000EF86E0900F55058
:101310000DBEF28E1200506F73742D50757267619E
:1013200000009E0ECF6E580ECE6E0401172BD8B45F
:10133000182B1CA103D0E02BD8B4E12BE1510A08F3
:1013400006E2FF0A03E1E051B70801E21B8F1CAB84
:1013500003D0E82BD8B4E92B1DA303D0EA2BD8B4D3
:10136000EB2B1DA503D0EC2BD8B4ED2B185304E1C7
:101370001751C708D8B077D0186B176B1A8DC92BC7
:101380001C85CD2BD651050809E11CB904D08B86EC
:1013900094961C8903D08B9694961C991BAD1CD0F7
:1013A000F62BF6BF05D0F651090802E2F66BF72BD3
:1013B000F7BF05D0F751050802E2F76BF82BF8BF2D
:1013C00005D0F851090802E2F86BF92BF9BF04D0F7
:1013D000F951050801E2F96B1BA921D0E22BD8B421
:1013E000E32B0501022B02BF05D00251090802E2DE
:1013F000026B032B03BF05D00351050802E2036B08
:10140000042B04BF05D00451090802E2046B052B2C
:1014100005BF04D00551050801E2056B0401D9514F
:10142000050803E1E42BD8B4E52B1BA71CD0EE2B59
:10143000EEBF05D0EE51090802E2EE6BEF2BEFBFD5
:1014400005D0EF51050802E2EF6BF02BF0BF05D09D
:10145000F051090802E2F06BF12BF1BF04D0F15119
:10146000050801E2F16B9E9000012CEF00F00501F0
:10147000D05303E18B9C949C02D08B8C949C0001F4
:10148000000C050EEA6ED90EE96EEF500DE0060E67
:10149000016E006A002EFED7012EFBD77B0E006E78
:1014A000002EFED7EF2EF3D7000C8E0E006ED6C5A1
:1014B00001F0D5C502F0036A015209E102C001F052
:1014C000026A080E005E015202E1006A08D0D8905C
:1014D00001BE04D0023601360006F9D7019E000C89
:1014E0000501D551D8B4A5D0E16FD951D8B4A1D058
:1014F000E15F05E37F0EE127D8B09BD006D0810ED7
:10150000E15FD8A096D0D8B494D0E1C500F0016ACC
:10151000026A036AE06BD6C5DFF5DF8FD7C5DEF55B
:10152000D8C5DDF5190EE16FDC51DD5F0DE2010E6E
:10153000DE5F0AE2DF5F08E2E05F06E2E02BDF2B1E
:10154000DE2BDC51DD2728D0DB51DE5F12E2010EFD
:10155000DF5F0FE2E05F0DE2E02BDF2BDB51DE27E8
:10156000DC51DD2719E3DE2B17E1DF2B15E1E02B42
:1015700013D0DA518009DF5F0EE2010EE05F0BE26B
:10158000E02BDA518009DF27DB51DE27E9E3DF2B8F
:10159000E7E1E02BE5D70380E12F01D00BD0D89015
:1015A000DD37DE37DF37E037D890033602360136D5
:1015B000E237BAD7E2A106D0D89001320232033224
:1015C000E23302D0000635E0E2BF1ED0D890DD370E
:1015D000DE37DF37E037DC51DD5F07E2010EDE5F2B
:1015E00004E2DF5F02E2E05F1AE3DB51DE5F05E267
:1015F000010EDF5F02E2E05F12E3DA518009DF5F94
:1016000003E2010EE05F0BE3032A09E1022A07E18E
:10161000012A05E1002A0DE0013202320332D6C56B
:10162000E1F5DA51E11BE1AF02D0018E06D0019E57
:1016300004D0006A016A026A036A0001000C800E8D
:10164000D8A202D00501DE1B0501E36BE46BDAC50D
:10165000E2F5DE51E21BD951D8B4DFD0E16F006E64
:10166000DD51D8B4E3D0E15FD8B483D03EE3DEC52A
:10167000E7F5E78FDFC5E6F5E0C5E5F5E46BD89063
:10168000E733E633E533E433E12FF8D7E2AF03D0B5
:10169000E381E0D0E391E191E389050EEA6EDC0E8F
:1016A000E96EEBD0E399E2BF0AD0E1A113D0E733B2
:1016B000E633E533E433002AD8B4C7D00BD0E7BF14
:1016C0000CD0D890E437E537E637E7370006D8B4D2
:1016D000BCD0F5D7E38D6DD0E39DDAC5E2F5DAAF86
:1016E00002D0E78FABD0E79FA9D0DDC5E1F5DDC51E
:1016F00000F0D951E15FDAC5E7F5E78FDBC5E6F524
:10170000DCC5E5F5E46BD890E733E633E533E43345
:10171000E12FF8D7E2AF03D0E3839CD0E393E191CC
:10172000E38B050EEA6EE00EE96EA7D0E39BE2BF05
:101730000AD0E1A113D0E733E633E533E433002ADE
:10174000D8B483D00BD0E7BF0CD0D890E437E537BE
:10175000E637E7370006D8B478D0F5D7E38F29D03D
:10176000E39FDEC5E2F5DEAF02D0E78F67D0E79FEB
:1017700065D0DEC5E7F5E78FDFC5E6F5E0C5E5F541
:10178000E2AF04D0E79FE38565D0E395E46BE19198
:10179000050EEA6EDC0EE96E70D0E2BF1CD0DAC531
:1017A000E2F5E1A106D0E733E633E533E433002A7E
:1017B0004CE0E4AF0BD0E52B09E1E62B07E1E72B8A
:1017C00005E1E733E633E533002A3FE0E3BD84D7A4
:1017D000E3BFC6D71CD0800EE71BE7AF04D03AD0DA
:1017E000DEC5E2F50AD0DAC5E2F5E75306E1E653D5
:1017F00004E1E55302E1006A21D0E7BF08D0D890A8
:10180000E437E537E637E737002EF7D71ED0E2AFEB
:1018100002D0E78F13D0E79F11D0DDC500F0DEC501
:10182000E7F5DFC5E6F5E0C5E5F508D0D9C500F078
:10183000DAC5E7F5DBC5E6F5DCC5E5F5E7C501F09A
:10184000E6C502F0E5C503F034D0006A016A026A19
:10185000036A2FD0E46BE51FE61FE71FE41FE42BAC
:1018600005E1E52B03E1E62B01E1E72BE3B112D71C
:10187000E3B354D7E3B589D7B3D7EF50E52705E3F2
:10188000E62B03E1E72BD8B4E181ED52EF50E627D8
:1018900003E3E72BD8B4E181ED52EF50EFBE01D066
:1018A000800AE727D8B0E181E3B9FCD6E3BB3ED795
:1018B00074D70001000CF2CFD0F5F29EAA6AA96A93
:1018C000A69CA69EA680A8500501D0BFF28E126FDE
:1018D0000A0ED96F0001D5DDF2CFD0F5F29EAA6ACB
:1018E000010EA96EA69CA69EA680A8500501D0BF99
:1018F000F28E136F0A0ED96F0001C3DDF2CFD0F55F
:10190000F29EAA6A020EA96EA69CA69EA680A85068
:101910000501D0BFF28E146F0A0ED96F0001B1DD40
:10192000F2CFD0F5F29EAA6A030EA96EA69CA69EDF
:10193000A680A8500501D0BFF28E156F0A0ED96F90
:1019400000019FDDF2CFD0F5F29EAA6A040EA96EC7
:10195000A69CA69EA680A8500501D0BFF28E0401C9
:10196000F26F0A0E0501D96F00018BDDF2CFD0F5C1
:10197000F29EAA6A050EA96EA69CA69EA680A850F5
:101980000501D0BFF28E0401F36F0A0E0501D96F75
:10199000000177DDF2CFD0F5F29EAA6A060EA96E9D
:1019A000A69CA69EA680A8500501D0BFF28E040179
:1019B000F46F0A0E0501D96F000163DDF2CFD0F597
:1019C000F29EAA6A070EA96EA69CA69EA680A850A3
:1019D0000501D0BFF28E0401F56F0A0E0501D96F23
:1019E00000014FDDF2CFD0F5F29EAA6A080EA96E73
:1019F000A69CA69EA680A8500501D0BFF28E040129
:101A0000FA6F0A0E0501D96F00013BDDF2CFD0F568
:101A1000F29EAA6A090EA96EA69CA69EA680A85050
:101A20000501D0BFF28E0401FB6F0A0E0501D96FCC
:101A3000000127DDF2CFD0F5F29EAA6A0A0EA96E48
:101A4000A69CA69EA680A8500501D0BFF28E0401D8
:101A5000FC6F0A0E0501D96F000113DDF2CFD0F53E
:101A6000F29EAA6A0B0EA96EA69CA69EA680A850FE
:101A70000501D0BFF28E0401FD6F0A0E0501D96F7A
:101A80000001FFDCF2CFD0F5F29EAA6A0C0EA96E1F
:101A9000A69CA69EA680A8500501D0BFF28E040188
:101AA000FE6F0A0E0501D96F0001EBDCF2CFD0F515
:101AB000F29EAA6A0D0EA96EA69CA69EA680A850AC
:101AC0000501D0BFF28E0401FF6F0A0E0501D96F28
:101AD0000001D7DCF2CFD0F5F29EAA6A0E0EA96EF5
:101AE000A69CA69EA680A8500501D0BFF28E006FCE
:101AF0000A0ED96F0001C5DCF2CFD0F5F29EAA6ABA
:101B00000F0EA96EA69CA69EA680A8500501D0BF68
:101B1000F28E016F0A0ED96F0001B3DCF2CFD0F55F
:101B2000F29EAA6A100EA96EA69CA69EA680A85038
:101B30000501D0BFF28E0A6F0A0ED96F0001A1DC39
:101B4000F2CFD0F5F29EAA6A110EA96EA69CA69EAF
:101B5000A680A8500501D0BFF28E0B6F0A0ED96F78
:101B600000018FDCF2CFD0F5F29EAA6A120EA96EA8
:101B7000A69CA69EA680A8500501D0BFF28E0C6F31
:101B80000A0ED96F00017DDCF2CFD0F5F29EAA6A71
:101B9000130EA96EA69CA69EA680A8500501D0BFD4
:101BA000F28E0D6F0A0ED96F00016BDCF2CFD0F50B
:101BB000F29EAA6A150EA96EA69CA69EA680A850A3
:101BC0000501D0BFF28E066F0A0ED96F000159DCF5
:101BD000F2CFD0F5F29EAA6A160EA96EA69CA69E1A
:101BE000A680A8500501D0BFF28E076F0A0ED96FEC
:101BF000000147DCF2CFD0F5F29EAA6A170EA96E5B
:101C0000A69CA69EA680A8500501D0BFF28E086FA4
:101C10000A0ED96F000135DCF2CFD0F5F29EAA6A28
:101C2000180EA96EA69CA69EA680A8500501D0BF3E
:101C3000F28E096F0A0ED96F000123DCF2CFD0F5C6
:101C4000F29EAA6A190EA96EA69CA69EA680A8500E
:101C50000501D0BFF28E0401D46F0A0E0501D96FC1
:101C600000010FDCF2CFD0F5F29EAA6A1A0EA96E1F
:101C7000A69CA69EA680A8500501D0BFF28ED66B6A
:101C8000D56F000112DC03C049F502C048F501C060
:101C900047F500C046F50A0E0501D96F000141EC79
:101CA0000AF049C5D8F548C5D7F547C5D6F546C5A4
:101CB000D5F50501DC6BDB6B200EDA6F820ED96F78
:101CC00000010EDC03C049F502C048F501C047F52C
:101CD00000C046F50501D66BD4C4D5F5000155EC1E
:101CE0000AF0D89203C0DCF502C0DBF501C0DAF5DA
:101CF00000C0D9F549C5E0F548C5DFF547C5DEF5B3
:101D000046C5DDF59CDC03C03DF502C03CF501C0D5
:101D10003BF500C03AF5F2CFD0F5F29EAA6A1B0E51
:101D2000A96EA69CA69EA680A8500501D0BFF28EE3
:101D30000401D46F0A0E0501D96F000141EC0AF0CD
:101D4000F2CFD0F5F29EAA6A1C0EA96EA69CA69EA2
:101D5000A680A8500501D0BFF28ED66BD56F0001CA
:101D600055EC0AF003C049F502C048F501C047F53B
:101D700000C046F50A0E0501D96F000141EC0AF0DA
:101D800049C5D8F548C5D7F547C5D6F546C5D5F5F3
:101D90000501DC6BDB6B200EDA6F820ED96F000160
:101DA00070EC0AF003C049F502C048F501C047F5E0
:101DB00000C046F50501D66BD4C4D5F5000155EC3D
:101DC0000AF0D89203C0DCF502C0DBF501C0DAF5F9
:101DD00000C0D9F549C5E0F548C5DFF547C5DEF5D2
:101DE00046C5DDF52CDC03C041F502C040F501C05D
:101DF0003FF500C03EF5F2CFD0F5F29EAA6A1E0E66
:101E0000A96EA69CA69EA680A8500501D0BFF28E02
:101E1000D16FF2CFD2F5F29EAA6A1D0EA96EA69CD2
:101E2000A69EA680A850D2BFF28ED36FD1C503F074
:101E3000D351D56F03C0D6F5000155EC0AF003C0AD
:101E4000A9F502C0A8F501C0A7F500C0A6F50A0EC5
:101E50000501D96F000141EC0AF0F2CFD0F5F29EF6
:101E6000AA6A220EA96EA69CA69EA680A85005016D
:101E7000D0BFF28ED16FF2CFD2F5F29EAA6A210EB8
:101E8000A96EA69CA69EA680A850D2BFF28ED36F44
:101E9000D1C5E5F4D3C5E4F40A0ED96F000141ECD5
:101EA0000AF0F2CFD0F5F29EAA6A1F0EA96EA69C88
:101EB000A69EA680A8500501D0BFF28E0401CE6F69
:101EC0000A0E0501D96F000141EC0AF0F2CFD0F5FE
:101ED000F29EAA6A200EA96EA69CA69EA680A85075
:101EE0000501D0BFF28E0401D86F0A0E0501D96F2B
:101EF000000141EC0AF0F2CFD0F5F29EAA6A230E5F
:101F0000A96EA69CA69EA680A8500501D0BFF28E01
:101F10000401D46F0A0E0501D96F000141EC0AF0EB
:101F2000F2CFD0F5F29EAA6A240EA96EA69CA69EB8
:101F3000A680A8500501D0BFF28ED66BD56F0001E8
:101F400055EC0AF003C049F502C048F501C047F559
:101F500000C046F50A0E0501D96F000141EC0AF0F8
:101F600049C5D8F548C5D7F547C5D6F546C5D5F511
:101F70000501DC6BDB6B480EDA6F850ED96F000153
:101F800070EC0AF003C049F502C048F501C047F5FE
:101F900000C046F50501D66BD4C4D5F5000155EC5B
:101FA0000AF0D89203C0DCF502C0DBF501C0DAF517
:101FB00000C0D9F549C5E0F548C5DFF547C5DEF5F0
:101FC00046C5DDF51FEC0BF003C0B9F502C0B8F54E
:101FD00001C0B7F500C0B6F5F2CFD0F5F29EAA6AFF
:101FE0003D0EA96EA69CA69EA680A8500501D0BF56
:101FF000F28ED16FF2CFD2F5F29EAA6A3C0EA96E94
:10200000A69CA69EA680A850D2BFF28ED36FD1C543
:1020100003F0D351D56F03C0D6F5000155EC0AF09B
:1020200003C021F502C020F501C01FF500C01EF558
:102030000A0E0501D96F000141EC0AF0F2CFD0F58C
:10204000F29EAA6A3F0EA96EA69CA69EA680A850E4
:102050000501D0BFF28ED16FF2CFD2F5F29EAA6AFF
:102060003E0EA96EA69CA69EA680A850D2BFF28E58
:10207000D36FD1C503F0D351D56F03C0D6F500019E
:1020800055EC0AF003C0B5F502C0B4F501C0B3F5D4
:1020900000C0B2F50A0E0501D96F000141EC0AF04B
:1020A000F2CFD0F5F29EAA6A320EA96EA69CA69E29
:1020B000A680A8500501D0BFF28E0401CA6F0A0E97
:1020C0000501D96F000141EC0AF0A5EF27F0D6C554
:1020D000DDF50501DA51DD1BDDAF05D0D894D890D0
:1020E000D6BFD8802FD0D6C5DDF5D9C5DEF5D55100
:1020F000DE5F06E0DDAF26D0D850010AD86E22D0D0
:10210000DAC5DEF5D651DE5F06E0DDAF1BD0D85074
:10211000010AD86E17D0DBC5DEF5D751DE5F06E0C9
:10212000DDAF10D0D850010AD86E0CD0DCC5DEF57A
:10213000D851DE5F06E0DDAF05D0D850010AD86E79
:1021400001D0D8900001000C050112BF03D012513C
:10215000090803E312BF01D016D0126BAA6AA96A5C
:10216000A86AA69CA69EA684F250006EF29E0F015D
:10217000550EA76EAA0EA76EA682A6B2FED7A6948B
:102180000050F212050113BF03D01351090803E3F5
:1021900013BF01D017D0136BAA6A010EA96EA86AEB
:1021A000A69CA69EA684F250006EF29E0F01550ECC
:1021B000A76EAA0EA76EA682A6B2FED7A69400505E
:1021C000F212050114BF03D01451090803E314BF30
:1021D00001D017D0146BAA6A020EA96EA86AA69C39
:1021E000A69EA684F250006EF29E0F01550EA76EB9
:1021F000AA0EA76EA682A6B2FED7A6940050F2122F
:10220000050115BF03D01551090803E315BF01D01F
:1022100016D0156BAA6A030EA96EA86AA69CA69E84
:10222000A684F250006EF29E0F01550EA76EAA0E04
:10223000A76EA682A6B2FED7A6940050F2120401A1
:10224000F2BF03D0F251090803E3F2BF01D017D067
:10225000F26BAA6A040EA96EA86AA69CA69EA68422
:10226000F250006EF29E0F01550EA76EAA0EA76ED9
:10227000A682A6B2FED7A6940050F2120401F3BFC4
:1022800003D0F351090803E3F3BF01D017D0F36B78
:10229000AA6A050EA96EA86AA69CA69EA684F250FC
:1022A000006EF29E0F01550EA76EAA0EA76EA682B3
:1022B000A6B2FED7A6940050F2120401F4BF03D0D8
:1022C000F451090803E3F4BF01D019D0020EF46FF2
:1022D000AA6A060EA96E020EA86EA69CA69EA684E9
:1022E000F250006EF29E0F01550EA76EAA0EA76E59
:1022F000A682A6B2FED7A6940050F2120401F5BF42
:1023000003D0F551090803E3F5BF01D017D0F56BF1
:10231000AA6A070EA96EA86AA69CA69EA684F25079
:10232000006EF29E0F01550EA76EAA0EA76EA68232
:10233000A6B2FED7A6940050F2120401FABF03D051
:10234000FA51090803E3FABF01D017D0FA6BAA6A61
:10235000080EA96EA86AA69CA69EA684F250006EDE
:10236000F29E0F01550EA76EAA0EA76EA682A6B208
:10237000FED7A6940050F2120401FBBF03D0FB511C
:10238000090803E3FBBF01D017D0FB6BAA6A090E53
:10239000A96EA86AA69CA69EA684F250006EF29E24
:1023A0000F01550EA76EAA0EA76EA682A6B2FED783
:1023B000A6940050F2120401FCBF03D0FC5109089E
:1023C00003E3FCBF01D019D0020EFC6FAA6A0A0E0B
:1023D000A96E020EA86EA69CA69EA684F250006E60
:1023E000F29E0F01550EA76EAA0EA76EA682A6B288
:1023F000FED7A6940050F2120401FDBF03D0FD5198
:10240000090803E3FDBF01D017D0FD6BAA6A0B0ECC
:10241000A96EA86AA69CA69EA684F250006EF29EA3
:102420000F01550EA76EAA0EA76EA682A6B2FED702
:10243000A6940050F2120401FEBF03D0FE51090819
:1024400003E3FEBF01D017D0FE6BAA6A0C0EA96E83
:10245000A86AA69CA69EA684F250006EF29E0F016A
:10246000550EA76EAA0EA76EA682A6B2FED7A69498
:102470000050F2120401FFBF03D0FF51090803E32B
:10248000FFBF01D016D0FF6BAA6A0D0EA96EA86A15
:10249000A69CA69EA684F250006EF29E0F01550ED9
:1024A000A76EAA0EA76EA682A6B2FED7A69400506B
:1024B000F212050100BF03D00051090803E300BF79
:1024C00001D017D0006BAA6A0E0EA96EA86AA69C4E
:1024D000A69EA684F250006EF29E0F01550EA76EC6
:1024E000AA0EA76EA682A6B2FED7A6940050F2123C
:1024F000050101BF03D00151090803E301BF01D069
:1025000017D0016BAA6A0F0EA96EA86AA69CA69E98
:10251000A684F250006EF29E0F01550EA76EAA0E11
:10252000A76EA682A6B2FED7A6940050F2120501AD
:102530000ABF03D00A51090803E30ABF01D017D02C
:102540000A6BAA6A100EA96EA86AA69CA69EA6840B
:10255000F250006EF29E0F01550EA76EAA0EA76EE6
:10256000A682A6B2FED7A6940050F21205010BBFB8
:1025700003D00B51090803E30BBF01D017D00B6B3D
:10258000AA6A110EA96EA86AA69CA69EA684F250FD
:10259000006EF29E0F01550EA76EAA0EA76EA682C0
:1025A000A6B2FED7A6940050F21205010CBF03D0CC
:1025B0000C51090803E30CBF01D017D00C6BAA6AB9
:1025C000120EA96EA86AA69CA69EA684F250006E62
:1025D000F29E0F01550EA76EAA0EA76EA682A6B296
:1025E000FED7A6940050F21205010DBF03D00D5185
:1025F000090803E30DBF01D017D00D6BAA6A130EB3
:10260000A96EA86AA69CA69EA684F250006EF29EB1
:102610000F01550EA76EAA0EA76EA682A6B2FED710
:10262000A6940050F212050106BF03D00651090816
:1026300003E306BF01D017D0066BAA6A150EA96E78
:10264000A86AA69CA69EA684F250006EF29E0F0178
:10265000550EA76EAA0EA76EA682A6B2FED7A694A6
:102660000050F212050107BF03D00751090803E328
:1026700007BF01D017D0076BAA6A160EA96EA86A09
:10268000A69CA69EA684F250006EF29E0F01550EE7
:10269000A76EAA0EA76EA682A6B2FED7A694005079
:1026A000F212050108BF03D00851090803E308BF6F
:1026B00001D017D0086BAA6A170EA96EA86AA69C4B
:1026C000A69EA684F250006EF29E0F01550EA76ED4
:1026D000AA0EA76EA682A6B2FED7A6940050F2124A
:1026E000050109BF03D00951090803E309BF01D05F
:1026F00019D0010E096FAA6A180EA96E010EA86EF4
:10270000A69CA69EA684F250006EF29E0F01550E66
:10271000A76EAA0EA76EA682A6B2FED7A6940050F8
:10272000F2120501D86BD76B480ED66F830ED56FAA
:102730003DC5DCF53CC5DBF53BC5DAF53AC5D9F559
:102740000001C5DC32E305013D6B3C6B400E3B6F85
:102750007F0E3A6FAA6A190EA96E010EA86EA69C8A
:10276000A69EA684F250006EF29E0F01550EA76E33
:10277000AA0EA76EA682A6B2FED7A6940050F212A9
:10278000AA6A1A0EA96E050EA86EA69CA69EA6841D
:10279000F250006EF29E550EA76EAA0EA76EA6828C
:1027A000A6B2FED7A6940050F2120501D86BD76BE3
:1027B000480ED66F830ED56F41C5DCF540C5DBF5FD
:1027C0003FC5DAF53EC5D9F5000181DC30E30501EE
:1027D000416B406B3F6B7F0E3E6FAA6A1B0EA96E6A
:1027E000010EA86EA69CA69EA684F250006EF29ED4
:1027F0000F01550EA76EAA0EA76EA682A6B2FED72F
:10280000A6940050F212AA6A1C0EA96EA86AA69C91
:10281000A69EA684F250006EF29E550EA76EAA0EDA
:10282000A76EA682A6B2FED7A6940050F2120501AA
:10283000D86BD76B160ED66F870ED56FA9C5DCF592
:10284000A8C5DBF5A7C5DAF5A6C5D9F500013FDCBB
:1028500031E30501A96BA86B4B0EA76F860EA66F1F
:10286000AA6A1D0EA96ECB0EA86EA69CA69EA68473
:10287000F250006EF29E0F01550EA76EAA0EA76EC3
:10288000A682A6B2FED7A6940050F212AA6A1E0E25
:10289000A96EA86AA69CA69EA684F250006EF29E1F
:1028A000550EA76EAA0EA76EA682A6B2FED7A69454
:1028B0000050F2120401CE513C0817E2CE6BAA6A16
:1028C0001F0EA96EA86AA69CA69EA684F250006E52
:1028D000F29E0F01550EA76EAA0EA76EA682A6B293
:1028E000FED7A6940050F2120401D851060819E24E
:1028F000020ED86FAA6A200EA96E020EA86EA69CC0
:10290000A69EA684F250006EF29E0F01550EA76E91
:10291000AA0EA76EA682A6B2FED7A6940050F21207
:102920000401E5510D0830E2FF0A03E1E45110080B
:102930002BE2E56BE46BAA6A210EA96EA86AA69C3D
:10294000A69EA684F250006EF29E0F01550EA76E51
:10295000AA0EA76EA682A6B2FED7A6940050F212C7
:10296000AA6A220EA96EA86AA69CA69EA684F25008
:10297000006EF29E550EA76EAA0EA76EA682A6B294
:10298000FED7A6940050F2120501D86BD76BD66B18
:10299000800ED56FB9C5DCF5B8C5DBF5B7C5DAF57E
:1029A000B6C5D9F5000167EC10F033E3850E0501DB
:1029B000B96FEB0EB86F110EB76F7E0EB66FAA6AC5
:1029C000230EA96EA86AA69CA69EA684F250006E4D
:1029D000F29E0F01550EA76EAA0EA76EA682A6B292
:1029E000FED7A6940050F212AA6A240EA96E390EE0
:1029F000A86EA69CA69EA684F250006EF29E550E6E
:102A0000A76EAA0EA76EA682A6B2FED7A694005005
:102A1000F2120501D86BD76B480ED66F860ED56FB4
:102A200021C5DCF520C5DBF51FC5DAF51EC5D9F5D6
:102A3000000167EC10F02EE30501216B206B1F6B8A
:102A40001E6BAA6A3C0EA96EA86AA69CA69EA684C6
:102A5000F250006EF29E0F01550EA76EAA0EA76EE1
:102A6000A682A6B2FED7A6940050F212AA6A3D0E24
:102A7000A96EA86AA69CA69EA684F250006EF29E3D
:102A8000550EA76EAA0EA76EA682A6B2FED7A69472
:102A90000050F2120501D86BD76B610ED66F880E0D
:102AA000D56FB5C5DCF5B4C5DBF5B3C5DAF5B2C590
:102AB000D9F5000167EC10F031E30501B56BB46B9B
:102AC000700EB36F860EB26FAA6A3E0EA96EF00E3C
:102AD000A86EA69CA69EA684F250006EF29E0F01E0
:102AE000550EA76EAA0EA76EA682A6B2FED7A69412
:102AF0000050F212AA6A3F0EA96EA86AA69CA69E72
:102B0000A684F250006EF29E550EA76EAA0EA76E16
:102B1000A682A6B2FED7A6940050F2120401CA51B2
:102B2000140819E20A0ECA6FAA6A320EA96E0A0EBA
:102B3000A86EA69CA69EA684F250006EF29E0F017F
:102B4000550EA76EAA0EA76EA682A6B2FED7A694B1
:102B50000050F21204010001A7EF27F00501DF5336
:102B600003E093968A8602D093948A84939C8A9CED
:102B7000956AE0C58CFF0000939E8A8E00D000D03D
:102B80000000939E8A9E93948A9493968A9600015D
:102B9000000C0501DB6B170EDA6F020EDD6F170EEE
:102BA000DC6FD86BD85107084EE3939A8A9ADF6B93
:102BB000400EE06F0001D2DF010E0501DF6F400E15
:102BC000E06F0001CBDF0501D851B809DE6FDF6B84
:102BD000E06F0001C3DF0501D851B809DE6F010EB7
:102BE000DF6FDEC5E0F50001B9DF939A8A8A05013F
:102BF000D96BD9513F0825E3DBC503F0DA51DA2B55
:102C0000D8B4DB2BE96E03C0EAFFEFCFDEF5DF6B54
:102C1000DEC5E0F50001A2DF0501DDC503F0DC51F2
:102C2000DC2BD8B4DD2BE96E03C0EAFFEFCFDEF575
:102C3000010EDF6FDEC5E0F5000190DF0501D92B45
:102C4000D8D7D82BAFD70001000C938081B032D0F9
:102C500004011C8B1CBD02D0CF2B1C8DE951000838
:102C600010E2FF0A03E1E8512C080BE2CF51010802
:102C700008E3928880A805D08B8294928B949494D8
:102C800017D0E951000810E2FF0A03E1E8512C08CF
:102C90000BE2CF51010808E2928680A605D08B9204
:102CA00094928B84949404D08B9294928B94949469
:102CB00017D0000104011C9DE951000809E2FF0A38
:102CC00003E1E8512C0804E2CF6BE96BE86B1C9B35
:102CD0001CBF06D01DB104D08B9294928B94949417
:102CE0000001ABEF27F00501D535006E0036FC0E74
:102CF000001600C001F0C250C30B0010C26E010EDE
:102D0000D96F000141EC0AF0C282C2B2FED7C4CF33
:102D1000D7F50501C3CFD6F5D6C501F0D7C502F06A
:102D20000001000C0501F251D8B471D0006EF651CB
:102D3000D8B46DD0002604E3810E002668E204D0EA
:102D40007F0E005E64E363E0F3C5FAF5F751FA1B0A
:102D5000F38FF78FF551F903F4CFFCF5F451F80335
:102D6000F4CF03F0F3CFFBF5F903F350FC27F45055
:102D7000FB23000E0322F551F803F350FC27F45017
:102D8000FB23000E026A03220222F351F903F350DF
:102D9000FB27F4500322000E0222F351F803F350F4
:102DA0000326F4500222000E016A0122F551F703B6
:102DB000F350FB27F4500322000E02220122F451AB
:102DC000F703F3500326F4500222000E0122F351C0
:102DD000F703F3500226F4500122002A01BE05D069
:102DE000FB370336023601360006000EFBAF0AD071
:102DF000032A02220122015005E1025003E103509F
:102E000001E1002AFABF018EFAAF019E04D0006AE8
:102E1000016A026A036A0001000C0501D56B00011A
:102E200062DF02C0DBF401C0DAF40401CA510A080F
:102E300023E1DBC4D6F5DAC4D5F5000155EC0AF080
:102E4000D89203C0DCF502C0DBF501C0DAF500C0A2
:102E5000D9F521C5E0F520C5DFF51FC5DEF51EC596
:102E6000DDF51FEC0BF003C031F502C030F501C0F9
:102E70002FF500C02EF50401CA51140822E1DBC46D
:102E8000D6F5DAC4D5F5000155EC0AF0D88203C0B6
:102E9000DCF502C0DBF501C0DAF500C0D9F521C5CB
:102EA000E0F520C5DFF51FC5DEF51EC5DDF51FEC1D
:102EB0000BF003C031F502C030F501C02FF500C0A2
:102EC0002EF531C5F5F530C5F4F52FC5F3F52EC552
:102ED000F2F531C5F9F530C5F8F52FC5F7F52EC572
:102EE000F6F500011FDF03C035F502C034F501C05F
:102EF00033F500C032F531C5F5F530C5F4F52FC511
:102F0000F3F52EC5F2F535C5F9F534C5F8F533C539
:102F1000F7F532C5F6F506DF03C039F502C038F51E
:102F200001C037F500C036F539C5F5F538C5F4F5FB
:102F300037C5F3F536C5F2F551C5F9F550C5F8F5C5
:102F40004FC5F7F54EC5F6F5EDDE00C0D1F501C071
:102F5000D2F502C0D3F503C0D4F535C5F5F534C5B7
:102F6000F4F533C5F3F532C5F2F555C5F9F554C599
:102F7000F8F553C5F7F552C5F6F5D4DED892D4C5A9
:102F8000DCF5D3C5DBF5D2C5DAF5D1C5D9F503C07B
:102F9000E0F502C0DFF501C0DEF500C0DDF51FEC95
:102FA0000BF000C0D1F501C0D2F502C0D3F503C0CB
:102FB000D4F531C5F5F530C5F4F52FC5F3F52EC5BB
:102FC000F2F559C5F9F558C5F8F557C5F7F556C5E1
:102FD000F6F5A8DED892D4C5DCF5D3C5DBF5D2C5AD
:102FE000DAF5D1C5D9F503C0E0F502C0DFF501C0BF
:102FF000DEF500C0DDF51FEC0BF000C0D1F501C01F
:10300000D2F502C0D3F503C0D4F5D89203C0DCF5E5
:1030100002C0DBF501C0DAF500C0D9F55DC5E0F509
:103020005CC5DFF55BC5DEF55AC5DDF51FEC0BF0C1
:1030300003C02DF502C02CF501C02BF500C02AF508
:10304000D8822DC5DCF52CC5DBF52BC5DAF52AC5F4
:10305000D9F50A0E0501E06FD70EDF6F230EDE6F84
:103060007B0EDD6F00011FEC0BF003C02DF502C0DD
:103070002CF501C02BF500C02AF52DC5D8F52CC5BF
:10308000D7F52BC5D6F52AC5D5F50501DC6BDB6B6D
:10309000DA6BD96B000167EC10F005E305012D6BCD
:1030A0002C6B2B6B2A6B0501D0510401D25D01E31F
:1030B000D26BD251040DF350036A5E0FE96E050E18
:1030C0000320EA6E2AC5EFFF2BC5ECFF2CC5ECFFF1
:1030D0002DC5ECFFD22B0501A16BA06B9F6B9E6BE6
:1030E0000401D36B010E0501D05D0401D35D01E045
:1030F00038E2D351040DF350036A5E0FE96E050EFA
:103100000320EA6EEFCF00F0ECCF01F0ECCF02F03D
:10311000ECCF03F0EACFD2F5E9CFD1F5D892A1C533
:10312000DCF5A0C5DBF59FC5DAF59EC5D9F503C072
:10313000E0F502C0DFF501C0DEF500C0DDF50001FD
:103140001FEC0BF0D2C5EAFFD1C5E9FF03C0A1F522
:1031500002C0A0F501C09FF500C09EF50401D32B6D
:10316000C1D70501D66BD0C5D5F5000155EC0AF0E5
:10317000A1C5D8F5A0C5D7F59FC5D6F59EC5D5F58F
:1031800003C0DCF502C0DBF501C0DAF500C0D9F5FB
:1031900070EC0AF000C0D1F501C0D2F502C0D3F541
:1031A00003C0D4F503C0F5F502C0F4F501C0F3F592
:1031B00000C0F2F53DC5F9F53CC5F8F53BC5F7F59E
:1031C0003AC5F6F5AFDD03C0A1F502C0A0F501C018
:1031D0009FF500C09EF59EC500F09FC501F0A0C5FB
:1031E00002F0A1C503F0B5EF27F00501D46BD36B56
:1031F000D26BD16B010ED56F000175DD02C0DDF41D
:1032000001C0DCF4DDC4D6F5DCC4D5F555EC0AF01C
:1032100003C0ADF502C0ACF501C0ABF500C0AAF526
:10322000ADC5D8F5ACC5D7F5ABC5D6F5AAC5D5F5AE
:10323000B5C5DCF5B4C5DBF5B3C5DAF5B2C5D9F56E
:1032400070EC0AF000C0D5F501C0D6F502C0D7F584
:1032500003C0D8F5D88203C0DCF502C0DBF501C09D
:10326000DAF500C0D9F50501E06BDF6BDE6B7F0E90
:10327000DD6F00011FEC0BF003C0B1F502C0B0F52B
:1032800001C0AFF500C0AEF5B1C5D8F5B0C5D7F5F2
:10329000AFC5D6F5AEC5D5F50501DC6BDB6BDA6BDA
:1032A000D96B000167EC10F005E30501B16BB06B61
:1032B000AF6BAE6B010E0501D05D0401D15D02E084
:1032C00001E3D16BD151040DF350036A7E0FE96E17
:1032D000050E0320EA6EB1C5F5F5B0C5F4F5AFC52E
:1032E000F3F5AEC5F2F5D70E0501F96FA30EF86F31
:1032F000F76B810EF66F000115DD00C0EFFF01C016
:10330000ECFF02C0ECFF03C0ECFF0401D12BD06B3B
:10331000010E0501D05D0401D05D01E038E2D0511D
:10332000040DF350036A7E0FE96E050E0320EA6E6A
:10333000EFCF00F0ECCF01F0ECCF02F0ECCF03F0D8
:10334000EACFD6F5E9CFD5F5D892D4C5DCF5D3C50B
:10335000DBF5D2C5DAF5D1C5D9F503C0E0F502C079
:10336000DFF501C0DEF500C0DDF500011FEC0BF05C
:10337000D6C5EAFFD5C5E9FF03C0D4F502C0D3F531
:1033800001C0D2F500C0D1F50401D02BC1D7050191
:10339000D66BD0C5D5F5000155EC0AF0D4C5D8F5EB
:1033A000D3C5D7F5D2C5D6F5D1C5D5F503C0DCF563
:1033B00002C0DBF501C0DAF500C0D9F570EC0AF007
:1033C00003C0D4F502C0D3F501C0D2F500C0D1F5D9
:1033D000D1C500F0D2C501F0D3C502F0D4C503F0C9
:1033E000C3EF27F00501EE51016AED5D03E2EDC583
:1033F00000F00CD0006A080EEF6FED370036EE518A
:10340000005CD8B0006E0136EF2FF7D70001000C3A
:10341000CFC5EAFFCEC5E9FF0501F2C5EFFFE92AF6
:10342000D8B4EA2AEF6ACE2BD8B4CF2B0001000C17
:10343000200E0501E8A9300EE96FE7C500F0E7AFFF
:1034400007D0001E002A00C0E7F52D0EE96FE88FB7
:103450000150E7C5EDF5640EEE6F0001C3DF00C05B
:10346000E7F5300E01240501EA6FE7C5EDF50A0E18
:10347000EE6F0001B7DF300E00240501EC6F300E57
:103480000124EB6FE9C500F0E8A702D0E8AFE895AA
:10349000E8B90BD0E8AF22D0E8B520D000C0EAF5FB
:1034A000E8B31CD000C0EBF519D0300EEA5D16E190
:1034B00000C0EAF5200EE96FE8A704D0E895E8839C
:1034C000E8AFE893300EEB5D09E100C0EBF5200EAC
:1034D000EA6FE8A7F7D7E893E8AFE891E8A505D049
:1034E000E9C5F2F5000194DF0501E8A305D0EAC5BE
:1034F000F2F500018DDF0501E8A104D0EBC5F2F57E
:10350000000186DFECC5F2F5000182DF000C060148
:103510000A6B0531096F093309331F0E0917093783
:103520000A3709370A3709370A3709370A37093797
:103530000A3709370A37C00E091704510927000E48
:103540000A2304513F080DE2170E09250B6F020EE6
:103550000A210C6F400E0B5D076F000E0C59086FAF
:1035600006D0170E0925076F000E0A21086F0653B3
:1035700015E008C603F007C6E9FF08C6EAFF0551D3
:10358000070B0B6F010E006E0B51016E04E0D8901B
:103590000036012EFCD70050EF1215D008C603F0FC
:1035A00007C6E9FF08C6EAFF0551070B0B6F010EBE
:1035B000006E0B51016E04E0D8900036012EFCD74E
:1035C0000050FF0AEF160001000C010E0501FD6F0F
:1035D000FE6F0601036B0501F451F65D0601046FF1
:1035E000045104AF03D0000ED8800455036A0501CE
:1035F000FB6F03C0FCF5F551F75D0601046F045144
:1036000004AF03D0000ED8800455036A0501F96F9A
:1036100003C0FAF5F451F65D02E2FF0EFD6FF551BD
:10362000F75D02E2FF0EFE6FFA51FC5D4BE303E132
:10363000F951FB5D47E3D890F937FA37FB51F95D53
:10364000006EFC51FA5900C0FFF5E8CF00F6FB51BF
:10365000FF5D0601016F0501FC5106010059026F73
:103660000501FC5305E1060103510501FB5D29E35A
:10367000F4C504F6F5C505F6F8C506F6000147DF02
:10368000060100BF01D00CD00501F951FF27FA5106
:10369000060100230501FD51F425F46F0ED006014B
:1036A00001510501FF270601025100230501FD51CB
:1036B000F425F46FFE51F525F56F0601032BD0D7E5
:1036C000050146D0D890FB37FC37F951FB5D006E01
:1036D000FA51FC5900C0FFF5E8CF00F6F951FF5D43
:1036E0000601016F0501FA5106010059026F05013B
:1036F000FA5305E1060103510501F95D29E3F4C51B
:1037000004F6F5C505F6F8C506F6000100DF06016A
:1037100000BF01D00CD00501FB51FF27FC51060171
:1037200000230501FE51F525F56F0ED0060101516C
:103730000501FF270601025100230501FD51F42573
:10374000F46FFE51F525F56F0601032BD0D7050167
:103750000001000C0501ED532EE0EB51E95D05E29F
:10376000E9C5F0F5EBC5F1F504D0EBC5F0F5E9C519
:10377000F1F5EC51EA5D05E2EAC5F2F5ECC5F3F5C9
:1037800004D0ECC5F2F5EAC5F3F5F051F15D12E3B2
:10379000F2C5EFF5EF51F35D0BE3F0C504F6EFC5AD
:1037A00005F6EEC506F60001B2DE0501EF2BF2D7F5
:1037B000F02BEBD72ED0E9C5F4F5EAC5F5F5EBC54E
:1037C000F6F5EAC5F7F5EEC5F8F50001FEDEE9C548
:1037D000F4F5ECC5F5F5EBC5F6F5ECC5F7F5EEC57A
:1037E000F8F5F3DEE9C5F4F5EAC5F5F5E9C5F6F552
:1037F000ECC5F7F5EEC5F8F5E8DEEBC5F4F5EAC57E
:10380000F5F5EBC5F6F5ECC5F7F5EEC5F8F5DDDE3B
:1038100005010001000CECC503F00501EBC5E9FF53
:10382000ECC5EAFFEF52D8B4D1D0ECC503F0EBC53C
:10383000E9FFECC5EAFFEF50520827E3ECC503F0BF
:10384000EBC5E9FFECC5EAFF200EEF5C050DF35078
:10385000036AF86F050EEA6EF30EE96EFC6BF8C5AD
:10386000FBF5F2CFF9F5F29E050E016EF76AF851FD
:1038700000014FEC00F00A000900F5CFEEFF012E29
:10388000FBD70501F9BFF28E35D0ECC503F0EBC5CF
:10389000E9FFECC5EAFFEF507E0827E3ECC503F033
:1038A000EBC5E9FFECC5EAFF530EEF5C050DF350E5
:1038B000036AF86F050EEA6EF30EE96EFC6BF8C54D
:1038C000FBF5F2CFF9F5F29E050E016EF76AF8519D
:1038D0000001DEEC00F00A000900F5CFEEFF012E3A
:1038E000FBD70501F9BFF28E05D0F36BF46BF56BD6
:1038F000F66BF76BECC503F0EB51E96E03C0EAFF22
:10390000EF500A0A000103E0070A09E00BD00501A5
:10391000ED51070DF350010FEA2751D000010501C9
:10392000E96B4DD00501ED51050DF350E9257F08F8
:1039300006E2E96BED51070DF350010FEA27EF6B3B
:10394000EF5104083CE3F06BF051060834E3036ADE
:10395000EF51F30FE96E050E0320EA6EEFCFF8F595
:10396000F8C500F0F051016E04E0D8900032012E4D
:10397000FCD700A01ED0F16BED51F15D1AE2F26BA5
:10398000ED51F25D14E2F251E925F86FF051ED03CB
:10399000F350EA25F125F96FF8C504F6E8CF05F6EE
:1039A000EEC506F60001B3DD0501F22BE9D7F12BD8
:1039B000E3D7F02BC9D7EF2BED51E927C1D7EB2B7C
:1039C000D8B4EC2BE92B000126D705010001000C2F
:1039D000050E0501CF6FDE0ECE6FDAC5E7F51F0EBF
:1039E000E86F000125DD0501DD2D27D0120EDB2556
:1039F000E76F180EDC25E86FDBC5E9F5DCC5EAF5F5
:103A0000E7C5EBF5EC6F010EED6FEE6F0001A2DE86
:103A1000020E0501DB25E76F010EDC25E86FE7C527
:103A2000E9F5EA6F050EEC6FDE0EEB6F020EED6F3F
:103A3000EE6B0001F0DE26D00501120EDB25E76FEC
:103A4000180EDC25E86FDBC5E9F5DCC5EAF5E7C54E
:103A5000EBF5EC6FED6BEE6B00017CDE020E050109
:103A6000DB25E76F010EDC25E86FE7C5E9F5EA6FB6
:103A7000050EEC6FDE0EEB6F020EED6F010EEE6FBA
:103A80000001C9DE000C0501D8C501F0D9C503F05D
:103A9000D8C5DEF5D9C5DFF5050EEA6EBA0EE96EBA
:103AA000D9C5E2FFD8C5E1FFE752E6CFEEFFFCE162
:103AB000DC2D25D0DD51080DF350DB25DE6FE96BE1
:103AC000DBC5EAF57F0EEB6FDEC5ECF5010EED6FA1
:103AD000EE6F00013FDE010E0501DA25DE6F010EFB
:103AE000DB25DF6FDEC5E9F5EA6F050EEC6FBA0E78
:103AF000EB6FDDC5EDF5EE6B00018DDE0501DC53EE
:103B000026E1DD51080DF350DB25DE6FE96BDBC5E7
:103B1000EAF57F0EEB6FDEC5ECF5010EED6FEE6B97
:103B2000000118DE010E0501DA25DE6F010EDB252E
:103B3000DF6FDEC5E9F5EA6F050EEC6FBA0EEB6FCD
:103B4000DDC5EDF5010EEE6F000165DE050100013A
:103B5000000C0501DB6B170EDA6F020EDD6F170E1E
:103B6000DC6FD851FF0DF3CFD9F5DF6BDE6BDF5182
:103B700001081AE3DBC503F0DA51DA2BD8B4DB2BEA
:103B8000E96E03C0EAFFD9C5EFFFDDC503F0DC51E4
:103B9000DC2BD8B4DD2BE96E03C0EAFFD9C5EFFFFB
:103BA000DE2BD8B4DF2BE3D70001000C04011CB7D7
:103BB0004BD00EC5DAF5140E0501DB6F1E0EDC6F5F
:103BC000010EDD6F000104DF0FC5DAF5280E0501D7
:103BD000DB6F1E0EDC6FDD6B0001FADE10C5DAF55F
:103BE0003C0E0501DB6F1E0EDC6FDD6B0001F0DEAD
:103BF0000EC5DAF5500E0501DB6F1E0EDC6FDD6BB6
:103C00000001E6DE050EEA6EBA0EE96EF2CFD8F5D7
:103C1000F29E000E85EC07F00A000900F550EE6EEA
:103C20000009FBE10501D8BFF28E050ED96FBA0E6F
:103C3000D86F140EDA6FDB6B010EDC6F030EDD6FD5
:103C4000000121DF04011C87928A80BA6BD01C918D
:103C5000E16BE06B1AB165D01A81050E0501D96FD1
:103C6000000141EC0AF0010E0401196F195104081A
:103C700058E31951C75D3AE1010E195D036A0E0F51
:103C8000E96E050E0320EA6EEF2A010E195D036A44
:103C90000E0FE96E050E0320EA6EEFBE0CD0EF505A
:103CA000090809E2010E195D036A0E0FE96E050E9F
:103CB0000320EA6EEF6A010E195D036A0E0FE96ECA
:103CC000050E0320EA6EEFCFD8F51951140DF3CF8E
:103CD000D9F50501D8C5DAF5D9C5DBF51E0EDC6FBF
:103CE000010EDD6F000174DE19D00401010E195DB3
:103CF000036A0E0FE96E050E0320EA6EEFCFD8F5CA
:103D00001951140DF3CFD9F50501D8C5DAF5D9C588
:103D1000DBF51E0EDC6FDD6B00015ADE0401192B92
:103D2000A5D701D01A91968084B069D01C91E16B1F
:103D3000E06B1AB563D01A85050E0501D96F000135
:103D400041EC0AF0010E0401196F1951040856E301
:103D50001951C75D38E1010E195D036A0E0FE96E56
:103D6000050E0320EA6EEF06010E195D036A0E0FC1
:103D7000E96E050E0320EA6EEFAE0AD0010E195D62
:103D8000036A0E0FE96E050E0320EA6E090EEF6E50
:103D9000010E195D036A0E0FE96E050E0320EA6E2F
:103DA000EFCFD8F51951140DF3CFD9F50501D8C5CA
:103DB000DAF5D9C5DBF51E0EDC6F010EDD6F0001F3
:103DC00007DE19D00401010E195D036A0E0FE96EBA
:103DD000050E0320EA6EEFCFD8F51951140DF3CF7D
:103DE000D9F50501D8C5DAF5D9C5DBF51E0EDC6FAE
:103DF000DD6B0001EDDD0401192BA7D701D01A9569
:103E0000968284B24DD01C91E16BE06B1AB347D01F
:103E10001A83050E0501D96F000141EC0AF0040177
:103E2000C72B010E196F1951040839E31951C75DE9
:103E30001BE1010E195D036A0E0FE96E050E0320EA
:103E4000EA6EEFCFD8F51951140DF3CFD9F505016E
:103E5000D8C5DAF5D9C5DBF51E0EDC6F010EDD6FB6
:103E60000001B6DD19D00401010E195D036A0E0FC1
:103E7000E96E050E0320EA6EEFCFD8F51951140D47
:103E8000F3CFD9F50501D8C5DAF5D9C5DBF51E0E96
:103E9000DC6FDD6B00019CDD0401192BC4D701D060
:103EA0001A93968484B422D0640E0501D96F000160
:103EB00041EC0AF0968484B418D0D1C5C6F405014B
:103EC000D86B000146DE04011C97010EC86FC76F56
:103ED00005010E6B0F6B106B116BD86B000139DE97
:103EE000C9EC15F0010E016EBFD10401C7510408E1
:103EF000D8B0BBD10501D86B00012BDE010E040147
:103F0000C76F1C91E16BE06B05010E510308D8A44B
:103F100079D00F510808D8A475D01051090872E162
:103F2000115102086FE1D2536DE1AA6AA96AA86A29
:103F3000A69CA69EA684F250006EF29E0F01550E1E
:103F4000A76EAA0EA76EA682A6B2FED7A6940050B0
:103F5000F212140E0501D96F000141EC0AF0AA6AB1
:103F6000010EA96EA86AA69CA69EA684F250006EB9
:103F7000F29E0F01550EA76EAA0EA76EA682A6B2DC
:103F8000FED7A6940050F212140E0501D96F00015D
:103F900041EC0AF0AA6A020EA96EA86AA69CA69E27
:103FA000A684F250006EF29E0F01550EA76EAA0E67
:103FB000A76EA682A6B2FED7A6940050F212140EE7
:103FC0000501D96F000141EC0AF0AA6A030EA96E3F
:103FD000A86AA69CA69EA684F250006EF29E0F01CF
:103FE000550EA76EAA0EA76EA682A6B2FED7A694FD
:103FF0000050F212140E0501D96F000141EC0AF0D5
:10400000FF000501D4510E5DD8A46ED0D5510F5DCF
:104010006BE1D651105D68E1D751115D65E1D86B58
:10402000000197DD050EEA6EBA0EE96EF2CFD8F503
:10403000F29E000E85EC07F00A000900F550EE6EC6
:104040000009FBE10501D8BFF28E050ED96FBA0E4B
:10405000D86F1E0EDA6FDB6BDC6B020EDD6F0001BA
:1040600012DD050EEA6EBA0EE96EF2CFD8F5F29EB9
:10407000000E97EC07F00A000900F550EE6E0009FB
:10408000FBE10501D8BFF28E050ED96FBA0ED86FCD
:104090000F0EDA6F1E0EDB6FDC6B020EDD6F0001A0
:1040A000F2DCD3C5C6F4C9EC15F0040E0501D86FD7
:1040B000FA0ED96F000141EC0AF00501D82FF8D7AC
:1040C000D86B000146DD05010E6B0F6B106B116B99
:1040D000D25302E104011B8704011C97010E016EFB
:1040E0000001C2D0C1D00501D86B000132DD050E40
:1040F000EA6EBA0EE96EF2CFD8F5F29E000E85ECAC
:1041000007F00A000900F550EE6E0009FBE1050119
:10411000D8BFF28E050ED96FBA0ED86F1E0EDA6FA9
:10412000DB6BDC6B020EDD6F0001ADDC050EEA6EB1
:10413000BA0EE96EF2CFD8F5F29E000EABEC07F0A6
:104140000A000900F550EE6E0009FBE10501D8BF39
:10415000F28E050ED96FBA0ED86FDA6B1E0EDB6FBA
:10416000DC6B020EDD6F00018EDC010E0401C76FF7
:104170000001C9EC15F0040E0501D86FFA0ED96FD5
:10418000000141EC0AF00501D82FF8D70E6B0F6B38
:10419000106B116BD86B0001DCDC0501E96BEA6B7D
:1041A0007F0EEB6F190EEC6F010EED6FEE6F0001DD
:1041B000AAEC1BF0050EEA6EBA0EE96EF2CFD8F546
:1041C000F29E000E85EC07F00A000900F550EE6E35
:1041D0000009FBE10501D8BFF28E190EE96F010E4F
:1041E000EA6F050EEC6FBA0EEB6F030EED6FEE6B20
:1041F00000010BEC1CF00EC5DAF5140E0501DB6FA7
:104200001E0EDC6F010EDD6F0001E8EC1CF00FC527
:10421000DAF5280E0501DB6F1E0EDC6FDD6B000189
:10422000E8EC1CF010C5DAF53C0E0501DB6F1E0E44
:10423000DC6FDD6B0001E8EC1CF00EC5DAF5500E0A
:104240000501DB6F1E0EDC6FDD6B0001E8EC1CF07E
:10425000D1C5C6F40501D86B00017BDC04011C97B5
:10426000000E016E000100D004010001000C050EDB
:104270000501CF6FD50ECE6FD0C5E7F51F0EE86FE5
:10428000000118EC1AF00501D32D2CD0D451060DE5
:10429000F350D125DE6FD451080DF350D225DF6FD6
:1042A000D1C5E9F5D2C5EAF5DEC5EBF5EC6F010E37
:1042B000ED6FEE6F0001AAEC1BF0020E0501D12597
:1042C000DE6F010ED225DF6FDEC5E9F5EA6F050E60
:1042D000EC6FD50EEB6FD4C5EDF5EE6B00010BEC7A
:1042E0001CF00501D3532DE1D451060DF350D12517
:1042F000DE6FD451080DF350D225DF6FD1C5E9F53B
:10430000D2C5EAF5DEC5EBF5EC6F010EED6FEE6B95
:104310000001AAEC1BF0020E0501D125DE6F010E93
:10432000D225DF6FDEC5E9F5EA6F050EEC6FD50E1D
:10433000EB6FD4C5EDF5010EEE6F00010BEC1CF038
:1043400005010001000C0501F251B608F26F036A85
:10435000F3C5F6F5F38FD890F333F433F533033226
:10436000023201320032F22FF6D7F6AF0BD0001E28
:10437000011E021E031E002AD8B4012AD8B4022A44
:10438000D8B4032A000131EF22F0006A016A026A00
:10439000036A0501FA6BFB6BFC6BFD6BF951F811BD
:1043A000F711F6112CE0200EFE6FD890F237F3379C
:1043B000F437F537FA37FB37FC37FD37F951FD5D38
:1043C00008E1F851FC5D05E1F751FB5D02E1F651B2
:1043D000FA5D0FE3F651FA5FF751D8A0F73DFB5FA6
:1043E000F851D8A0F83DFC5FF951D8A0F93DFD5F28
:1043F000D8800036013602360336FE2FD6D7050E9A
:10440000EA6EFA0EE96E0001000CE9500501EA6F50
:10441000E951EC6F1CE0E8C5F5F5E7C5F4F5E6C534
:10442000F3F5E5C5F2F5F96BF86B200EF76F820E28
:10443000F66F000192EC16F003C0E8F502C0E7F554
:1044400001C0E6F500C0E5F50501EC2FE4D7E8C5AD
:10445000F5F5E7C5F4F5E6C5F3F5E5C5F2F50001B8
:1044600072D703C0E8F502C0E7F501C0E6F500C069
:10447000E5F50501E8AF0DD0EA07EA8BE51FE61F79
:10448000E71FE81FE52BD8B4E62BD8B4E72BD8B448
:10449000E82B3B0EF16F9A0EF06FCA0EEF6FEE6BCA
:1044A0000A0EEC6FE951D8B4EA2BE8C5F5F5E7C57B
:1044B000F4F5E6C5F3F5E5C5F2F5F1C5F9F5F0C596
:1044C000F8F5EFC5F7F5EEC5F6F500015EDF015032
:1044D000EFCFE5F5ECCFE6F5ECCFE7F5ECCFE8F57F
:1044E000005213E10501E929EC5DD8A402D00001D6
:1044F0000CD0EA510DE00F0BEC5D01E044E2EABFA5
:1045000042D0EABD05D0200E37D0200E0501EA17B3
:10451000EAAB0FD0EA9BE951D8A4EA070050EA6F52
:104520002D0EF26F000108EC1AF00501EA51006E41
:10453000EA6BE951EC5D0DE10050EA6F2E0EF26F6F
:10454000000108EC1AF00501EA51006E200EEA178E
:10455000000E300EEAAB10D0EA9BE951D8A4EA076E
:104560000050EA6F2D0EF26F000108EC1AF0050101
:10457000EA51006EEA6B300E002600C0F2F5000131
:1045800008EC1AF00501F1C5F5F5F0C5F4F5EFC535
:10459000F3F5EEC5F2F5F96BF86BF76B0A0EF66FF3
:1045A0000001F3DE03C0F1F502C0F0F501C0EFF544
:1045B00000C0EEF50501EC2F78D70001F3EF22F0F3
:1045C000050E0501CF6FDC0ECE6F890EE96ED7C5E3
:1045D000E8F5D6C5E7F5D5C5E6F5D4C5E5F5020E8F
:1045E000E96F000112D70501DA2D2CD0DB51300D17
:1045F000F350D825E56FDB51080DF350D925E66F50
:10460000D8C5E9F5D9C5EAF5E5C5EBF5EC6F010EBE
:10461000ED6FEE6F0001AAEC1BF0020E0501D8252C
:10462000E56F010ED925E66FE5C5E9F5EA6F050EE0
:10463000EC6FDC0EEB6FDBC5EDF5EE6B00010BEC08
:104640001CF00501DA532DE1DB51300DF350D82574
:10465000E56FDB51080DF350D925E66FD8C5E9F5B4
:10466000D9C5EAF5E5C5EBF5EC6F010EED6FEE6B24
:104670000001AAEC1BF0020E0501D825E56F010E22
:10468000D925E66FE5C5E9F5EA6F050EEC6FDC0E9E
:10469000EB6FDBC5EDF5010EEE6F00010BEC1CF0CE
:1046A00005010001000C0501D451D603F3CF01F040
:1046B000F4CF00F0D703F3500026D551D603F350C2
:1046C0000020026E0001000C0501D051030853E1E7
:1046D000D16BD1513F084FE3D26BD2510F0849E360
:1046E000070ED36FD351800A7F0841E2D56BD1C545
:1046F000D4F5D76B100ED66F0001D5DF02C0D5F50B
:1047000001C0D4F50501D2510124016E000E022032
:10471000036E0150F2CFD4F5F29E03C0F7FF000103
:104720005BEC01F00501D4BFF28ED46F070ED88088
:10473000D355D56FD4C500F0D551016E04E0D890A3
:104740000032012EFCD700A010D0D251080DF3503A
:10475000D325D46FE8CF04F6D1C505F6010E0601C6
:10476000066F000187EC1AF00501D307BBD7D22BE7
:10477000B4D7D12BAED7D051040853E1D16BD1516E
:104780003F084FE3D26BD2510F0849E3070ED36FB6
:10479000D351800A7F0841E2D56BD1C5D4F5D76BE0
:1047A000100ED66F00017FDF02C0D5F501C0D4F531
:1047B0000501D2510124016E000E0220036E01504A
:1047C000F2CFD4F5F29E03C0F7FF000169EC03F0CD
:1047D0000501D4BFF28ED46F070ED880D355D56FA4
:1047E000D4C500F0D551016E04E0D8900032012EFE
:1047F000FCD700A010D0D251080DF350D325D46FB0
:10480000E8CF04F6D1C505F6010E0601066F0001DA
:1048100087EC1AF00501D307BBD7D22BB4D7D12B25
:10482000AED7D051050853E1D16BD1513F084FE3CA
:10483000D26BD2510F0849E3070ED36FD351800AD0
:104840007F0841E2D56BD1C5D4F5D76B100ED66F7A
:10485000000129DF02C0D5F501C0D4F50501D25110
:104860000124016E000E0220036E0150F2CFD4F538
:10487000F29E03C0F7FF000177EC05F00501D4BFFD
:10488000F28ED46F070ED880D355D56FD4C500F003
:10489000D551016E04E0D8900032012EFCD700A063
:1048A00010D0D251080DF350D325D46FE8CF04F6C1
:1048B000D1C505F6010E0601066F000187EC1AF05E
:1048C0000501D307BBD7D22BB4D7D12BAED700016C
:1048D000000C8E0E006E0501D051005ED1C502F0B5
:1048E000D2C501F0028E005209E0D890025202E1D6
:1048F000015204E002320132002EF7D7D1AF05D0C9
:10490000011E021E012AD8B4022A0001000C8B925B
:1049100094928B849494000C8B9294928B949494A4
:10492000000C8B8294928B949494000C93988A88B8
:10493000939E8A9E93948A9493968A96939A8A9A3F
:104940000501DF6BC00EE06F0001AEEC15F0010E4B
:104950000501DF6FC00EE06F0001AEEC15F0050140
:10496000DF6B400EE06F0001AEEC15F0010E0501AB
:10497000DF6F400EE06F0001AEEC15F00501DF6B5C
:10498000B80EE06F0001AEEC15F0010E0501DF6F0F
:10499000B80EE06F0001AEEC15F00501D02D10D07F
:1049A000DF6B3F0EE06F0001AEEC15F0010E05016C
:1049B000DF6F3F0EE06F0001AEEC15F00FD0050188
:1049C000DF6B3E0EE06F0001AEEC15F0010E05014D
:1049D000DF6F3E0EE06F0001AEEC15F00501D86B05
:1049E0000001A9EC1DF0C9EC15F0000C030E050147
:1049F000D15F0AE3050EEA6ED10EE96EEF5004E0D6
:104A000001D000D0EF2EFDD70001000CF86AD09E37
:104A1000078EEA6AE96A0401186B176B196B1A9121
:104A20001A931A951A971A991A9B1A9D1A9F1B91F5
:104A30001B931B951B971B991B9B1B9D1B9F1C91DD
:104A40001C931C951C971C991C9B1C9D1C9F1D91C5
:104A50001D931D95C80EC66F010EC76FC86FC96B39
:104A60000A0ECA6FCB6BCC6BCD6BCE6BCF6BD06BA2
:104A7000D16BD26BD36BD46BD56BD66FD76BD86B36
:104A8000050ED96FDB6BDA6BDD6BDC6BDF6BDE6B1E
:104A9000E16BE06BE36BE26BE56BE46BE76BE66BA2
:104AA000E96BE86BEB6BEA6BED6BEC6B0501196B7B
:104AB000186B176B166B1D6B1C6B1B6B1A6B216BCA
:104AC000206B1F6B1E6B256B246B236B226B296B7A
:104AD000286B276B266B2D6B2C6B2B6B2A6B316B2A
:104AE000306B2F6B2E6B356B346B336B326B396BDA
:104AF000386B376B366B3D6B3C6B3B6B3A6B416B8A
:104B0000406B3F6B3E6B456B446B436B426B496B39
:104B1000486B476B466B4D6B4C6B4B6B4A6B190E7E
:104B2000516F530E506F180E4F6F680E4E6FE90E97
:104B3000556FBD0E546FC60E536F710E526FBE0E81
:104B4000596F960E586F240E576F7A0E566FF30EEC
:104B50005D6F5A0E5C6FAB0E5B6F810E5A6FA16B6F
:104B6000A06B9F6B9E6BA56BA46B4B0EA36F860E09
:104B7000A26FA96BA86BA76BA66BAD6BAC6BAB6B95
:104B8000AA6BB16BB06BAF6BAE6BB56BB46BB36B49
:104B9000800EB26F850EB96FEB0EB86F110EB76F46
:104BA0007E0EB66FC150C00B0F09C16E070EB46EFA
:104BB0004A0E04011E6F500E1F6F200E206F490E0B
:104BC000216F6E0E226F670E236F6C0E246F6F0EB7
:104BD000256F620E266F610E276F6C0E286F296B92
:104BE000430E2A6F610E2B6F620E2C6F690E2D6FB4
:104BF0006E0E2E6F610E2F6F200E306F450E316FCF
:104C0000780E326F740E336F720E346F610E356F23
:104C1000630E366F740E376F6F0E386F720E396F0A
:104C2000610E3A6F3B6B540E3C6F200E3D6F650E6C
:104C30003E6F730E3F6F740E406F3D0E416F426BBF
:104C40003A0E436F446B430E456F6F0E466F6E0E08
:104C5000476F200E486F440E496F750E4A6F630E02
:104C60004B6F740E4C6F6F0E4D6F730E4E6F4F6B1C
:104C7000540E506F690E516F650E526F6D0E536F6B
:104C8000700E546F6F0E556F200E566F640E576F77
:104C9000650E586F200E596F500E5A6F750E5B6F70
:104CA000720E5C6F670E5D6F610E5E6F5F6B4A0E1A
:104CB000606F500E616F430E626F450E636F470E5B
:104CC000646F480E656F2D0E666F460E676F2D0E72
:104CD000686F410E696F6A6B500E6B6F720E6C6F6E
:104CE000650E6D6F730E6E6F280E6F6F690E706FAD
:104CF0006E0E716F480E726F320E736F4F0E746FBF
:104D0000290E756F3A0E766F776B460E786F610ECF
:104D1000796F620E7A6F720E7B6F690E7C6F630E15
:104D20007D6F610E7E6F3A0E7F6F320E806F300E98
:104D3000816F380E826F2E0E836F300E846F856BFD
:104D4000410E866F630E876F740E886F750E896FC4
:104D5000610E8A6F6C0E8B6F3A0E8C6F8D6B410EED
:104D60008E6F6A0E8F6F750E906F730E916F740E4B
:104D7000926F650E936F3A0E946F956B550E966F0A
:104D8000560E976F4C0E986F690E996F660E9A6F5C
:104D9000650E9B6F3A0E9C6F9D6B460E9E6F690E63
:104DA0009F6F6C0EA06F740EA16F650EA26F720ED6
:104DB000A36F3A0EA46FA56B460EA66F610EA76F88
:104DC000620EA86F720EA96F690EAA6F630EAB6FA9
:104DD000610EAC6F3A0EAD6F320EAE6F330EAF6F29
:104DE000350EB06F2E0EB16F300EB26FB36B210E59
:104DF000B46F460EB56F690EB66F6C0EB76F740E5A
:104E0000B86F720EB96F6F0EBA6F200EBB6F530E74
:104E1000BC6F610EBD6F740EBE6F750EBF6F720EEC
:104E2000C06F610EC16F640EC26F6F0EC36F210E33
:104E3000C46FC56BEE6BEF6BF06BF16B090EF26F2D
:104E4000F36BF46BF56BF66BF76BF86BF96BFA6F52
:104E5000FB6BFC6BFD6BFE6BFF6B0501006B016B6D
:104E6000026B036B046B056B066B076B086B096BBE
:104E70000A6B0B6B0C6B0D6B0E6B0F6B106B116B6E
:104E8000126B136B146B156B5E6B5F6B606B616BFE
:104E9000626B636B646B656B666B676B686B696B8E
:104EA0006A6B6B6B6C6B6D6B6E6B6F6B706B716B3E
:104EB000726B736B746B756B766B776B786B796BEE
:104EC0007A6B7B6B7C6B7D6B7E6B7F6B806B816B9E
:104ED000826B836B846B856B866B876B886B896B4E
:104EE0008A6B8B6B8C6B8D6B8E6B8F6B906B916BFE
:104EF000926B936B946B956B966B976B986B996BAE
:104F00009A6B9B6B9C6B9D6BCE6BCF6B850ECD6E46
:104F10009D80C150C00B0D09C16EC050C00B02096D
:104F2000C06EC08EC280C00EF2128A929392D06B75
:104F3000000137EC0AF08B8894988B8A949A8B9EA8
:104F4000949E8B9694965BEF0CF0A4EF10F0C9EC56
:104F500015F025EF16F004011CA51ED01C95080EB7
:104F60000501D06F00010DEF17F003C019F502C065
:104F700018F501C017F500C016F5080E0501D06F31
:104F80000001F5EF18F003C01DF502C01CF501C0CB
:104F90001BF500C01AF50401E5510D08D8B0D3D0B7
:104FA000FF0A04E1E4510F08D8B0CDD0E56BE46B03
:104FB000E4C4D0F5AA6A210EA96ED0C5A8FFA69CAC
:104FC000A69EA684F250006EF29E0F01550EA76EAB
:104FD000AA0EA76EA682A6B2FED7A6940050F21221
:104FE000140E0501D96F000141EC0AF0E5C4D0F5BB
:104FF000AA6A220EA96ED0C5A8FFA69CA69EA6846A
:10500000F250006EF29E0F01550EA76EAA0EA76E0B
:10501000A682A6B2FED7A6940050F212140E050185
:10502000D96F000141EC0AF005010A2B0ABF05D037
:105030000A51090802E20A6B0B2B0BBF05D00B517A
:10504000090802E20B6B0C2B0CBF05D00C510908B0
:1050500002E20C6B0D2B0DBF04D00D51090801E2CB
:105060000D6BAA6A100EA96E0AC5A8FFA69CA69E83
:10507000A684F250006EF29E0F01550EA76EAA0E86
:10508000A76EA682A6B2FED7A6940050F212140E06
:105090000501D96F000141EC0AF0AA6A110EA96E50
:1050A0000BC5A8FFA69CA69EA684F250006EF29E99
:1050B0000F01550EA76EAA0EA76EA682A6B2FED746
:1050C000A6940050F212140E0501D96F000141ECB4
:1050D0000AF0AA6A120EA96E0CC5A8FFA69CA69E8D
:1050E000A684F250006EF29E0F01550EA76EAA0E16
:1050F000A76EA682A6B2FED7A6940050F212140E96
:105100000501D96F000141EC0AF0AA6A130EA96EDD
:105110000DC5A8FFA69CA69EA684F250006EF29E26
:105120000F01550EA76EAA0EA76EA682A6B2FED7D5
:10513000A6940050F212140E0501D96F000141EC43
:105140000AF04FD00401E451840803E1E55103085B
:105150000CE0E451080803E1E551070806E0E451DA
:105160008C0840E1E5510A083DE1E4C4D0F5AA6AA3
:10517000210EA96ED0C5A8FFA69CA69EA684F250BB
:10518000006EF29E0F01550EA76EAA0EA76EA682A4
:10519000A6B2FED7A6940050F212140E0501D96FE4
:1051A000000141EC0AF0E5C4D0F5AA6A220EA96E0E
:1051B000D0C5A8FFA69CA69EA684F250006EF29EC3
:1051C0000F01550EA76EAA0EA76EA682A6B2FED735
:1051D000A6940050F212140E0501D96F000141ECA3
:1051E0000AF00401C651020804E08B9694960A0E58
:1051F000D66FC65311E10501D16BD26B010ED36F8F
:1052000012C5D4F513C5D5F514C5D6F515C5D7F512
:105210000001D6EC1DF00401C62D9FD00F0E050134
:10522000E96F010EEA6F040EEC6F500EEB6F010E8A
:10523000ED6FEE6F00010BEC1CF0D8C4D0F537EC2D
:105240000AF0F1C4D0F5140E0501D16FD26FD36B03
:10525000020ED46F000137EC21F0F0C4D0F5280E17
:105260000501D16F140ED26FD36B020ED46F000103
:1052700037EC21F03C0E0501E96F160EEA6F040EC3
:10528000EC6F430EEB6F020EED6F010EEE6F00013F
:105290000BEC1CF0EFC4D0F5460E0501D16F140ED7
:1052A000D26FD36B020ED46F000137EC21F0EEC445
:1052B000D0F55A0E0501D16F140ED26FD36B020ECA
:1052C000D46F000137EC21F0968284B217D0040E1F
:1052D0000501D06FFA0ED96F000141EC0AF005010B
:1052E000D02FF8D7968284B20AD004011B97020E01
:1052F000C66F0501D86B0001A9EC1DF00501040182
:10530000F251800A006EEE51800A005C01E025E255
:10531000F351800A006EEF51800A005C01E01DE24B
:10532000F451800A006EF051800A005C01E015E241
:10533000F551800A006EF151800A005C01E00DE237
:105340001B97020EC66F0501D86B0001A9EC1DF07A
:1053500004011B73050ED96F1B81C6510208D8A426
:1053600077EF2DF01B950501E96B010EEA6F040E36
:10537000EC6F600EEB6F010EED6FEE6F00010BEC4A
:105380001CF00501E96B150EEA6F040EEC6F6B0E55
:10539000EB6F010EED6FEE6F00010BEC1CF00501E1
:1053A000E96B230EEA6F040EEC6F9E0EEB6F010E9D
:1053B000ED6FEE6F00010BEC1CF004011AAD1BD079
:1053C0001DC5D7F51CC5D6F51BC5D5F51AC5D4F531
:1053D000460E0501D86F150ED96FDA6B010EDB6F23
:1053E0000001E0EC22F0040E0501D06F000164EC36
:1053F00023F004011A9DD9510508D8A4BFD0050E89
:105400000501D06F000164EC23F004011B8BD8C4AC
:10541000D0F5000137EC0AF004011CA3AED01C93B8
:10542000E4C4D0F5AA6A210EA96ED0C5A8FFA69C37
:10543000A69EA684F250006EF29E0F01550EA76E36
:10544000AA0EA76EA682A6B2FED7A6940050F212AC
:10545000140E0501D96F000141EC0AF0E5C4D0F546
:10546000AA6A220EA96ED0C5A8FFA69CA69EA684F5
:10547000F250006EF29E0F01550EA76EAA0EA76E97
:10548000A682A6B2FED7A6940050F212140E050111
:10549000D96F000141EC0AF0AA6A100EA96E0AC584
:1054A000A8FFA69CA69EA684F250006EF29E0F0155
:1054B000550EA76EAA0EA76EA682A6B2FED7A69418
:1054C0000050F212140E0501D96F000141EC0AF0F0
:1054D000AA6A110EA96E0BC5A8FFA69CA69EA6845B
:1054E000F250006EF29E0F01550EA76EAA0EA76E27
:1054F000A682A6B2FED7A6940050F212140E0501A1
:10550000D96F000141EC0AF0AA6A120EA96E0CC50F
:10551000A8FFA69CA69EA684F250006EF29E0F01E4
:10552000550EA76EAA0EA76EA682A6B2FED7A694A7
:105530000050F212140E0501D96F000141EC0AF07F
:10554000AA6A130EA96E0DC5A8FFA69CA69EA684E6
:10555000F250006EF29E0F01550EA76EAA0EA76EB6
:10556000A682A6B2FED7A6940050F212140E050130
:10557000D96F000141EC0AF00401CFD0D9510A08DB
:10558000D8A4CBD005011D6B1C6B1B6B1A6B660E70
:10559000E96F2D0EEA6F7F0EEB6F400EEC6F010E80
:1055A000ED6FEE6B0001AAEC1BF004011B9B0501E3
:1055B000D06B000137EC0AF004011CB3AED01C83A1
:1055C000E4C4D0F5AA6A210EA96ED0C5A8FFA69C96
:1055D000A69EA684F250006EF29E0F01550EA76E95
:1055E000AA0EA76EA682A6B2FED7A6940050F2120B
:1055F000140E0501D96F000141EC0AF0E5C4D0F5A5
:10560000AA6A220EA96ED0C5A8FFA69CA69EA68453
:10561000F250006EF29E0F01550EA76EAA0EA76EF5
:10562000A682A6B2FED7A6940050F212140E05016F
:10563000D96F000141EC0AF0AA6A100EA96E0AC5E2
:10564000A8FFA69CA69EA684F250006EF29E0F01B3
:10565000550EA76EAA0EA76EA682A6B2FED7A69476
:105660000050F212140E0501D96F000141EC0AF04E
:10567000AA6A110EA96E0BC5A8FFA69CA69EA684B9
:10568000F250006EF29E0F01550EA76EAA0EA76E85
:10569000A682A6B2FED7A6940050F212140E0501FF
:1056A000D96F000141EC0AF0AA6A120EA96E0CC56E
:1056B000A8FFA69CA69EA684F250006EF29E0F0143
:1056C000550EA76EAA0EA76EA682A6B2FED7A69406
:1056D0000050F212140E0501D96F000141EC0AF0DE
:1056E000AA6A130EA96E0DC5A8FFA69CA69EA68445
:1056F000F250006EF29E0F01550EA76EAA0EA76E15
:10570000A682A6B2FED7A6940050F212140E05018E
:10571000D96F000141EC0AF004011DC5D8F51CC584
:10572000D7F51BC5D6F51AC5D5F50501DC6BDB6BC6
:10573000DA6B800ED96F000170EC0AF00501F56B91
:10574000F46B480EF36F850EF26F03C0F9F502C0DB
:10575000F8F501C0F7F500C0F6F5000192EC16F07F
:1057600003C025F502C024F501C023F500C022F5D1
:105770000501D86BD76B480ED66F850ED56F25C542
:10578000DCF524C5DBF523C5DAF522C5D9F5000122
:1057900067EC10F007E30501256B246B480E236FBF
:1057A000850E226F25C5D8F524C5D7F523C5D6F5B6
:1057B00022C5D5F50501DC6BDB6BDA6B800ED96F8A
:1057C000000170EC0AF003C025F502C024F501C009
:1057D00023F500C022F529C5D3F528C5D2F527C584
:1057E000D1F526C5D0F569EC24F02A0E0124050177
:1057F000D06F2A0EE96F220EEA6FD0C5EBF5290EA5
:10580000EC6F010EED6FEE6B0001AAEC1BF025C5ED
:10581000D3F524C5D2F523C5D1F522C5D0F569EC61
:1058200024F02A0E01240501D06F2A0EE96F220E02
:10583000EA6FD0C5EBF5290EEC6F010EED6FEE6F40
:105840000001AAEC1BF0280E0501E96F200EEA6F9B
:105850005E0EEB6F2B0EEC6FED6B010EEE6F000129
:10586000AAEC1BF025C529F524C528F523C527F585
:1058700022C526F50501D86BD76B400ED66F7F0E7B
:10588000D56F1DC5DCF51CC5DBF51BC5DAF51AC5E2
:10589000D9F5000167EC10F01CE304011C811BAF7B
:1058A00016D00501D86BD76B400ED66F7F0ED56F23
:1058B0001DC5DCF51CC5DBF51BC5DAF51AC5D9F528
:1058C000000167EC10F004E3050E0401D66F00013F
:1058D00018D004011B9FE16BE06B1C910501E96B83
:1058E000360EEA6F680EEB6F400EEC6F010EED6F37
:1058F000EE6B0001AAEC1BF08B9694960A0E040145
:10590000D66F04011BA30AD0030E0501D06F00015E
:1059100064EC23F08B98949812D00401660E050174
:10592000E96F0E0EEA6F7F0EEB6F1C0EEC6F010E2F
:10593000ED6FEE6B0001AAEC1BF08B8894980401CC
:10594000D65105081EE10501E96B370EEA6F640EBA
:10595000EB6F3F0EEC6F010EED6FEE6B0001AAECEA
:105960001BF00501E96B370EEA6F040EEC6FB40E05
:10597000EB6F010EED6FEE6F00010BEC1CF00FD022
:1059800004010501E96B370EEA6F640EEB6F3F0E01
:10599000EC6F010EED6FEE6B0001AAEC1BF096822E
:1059A00084B218D004011AB713D01A87050E050166
:1059B000D96F000141EC0AF00401D951050803E157
:1059C0000A0ED96F05D0D9510A0802E1050ED96F28
:1059D00003D0000104011A97968484B412D01AB936
:1059E0000FD01A89050E0501D96F000141EC0AF0AC
:1059F00004011A7FD75303E10A0ED76F01D0D76B8A
:105A000001D01A99968084B014D01D85928680A604
:105A10000BD0ED5303E1EC51C80806E2000187EC1E
:105A200024F004011D8104D000018CEC24F0040159
:105A300019D0ED5303E1EC510A080AE2ED5308E1F5
:105A4000EC51C70805E31B731D95ED6BEC6B0AD099
:105A50001D95ED6BEC6B1DA105D000018CEC24F0C5
:105A600004011D91928A80BA14D01D83928880A867
:105A70000BD0EB5303E1EA51C80806E2000191ECB8
:105A800024F004011C8F04D000018CEC24F00401EC
:105A90002ED0EB5303E1EA510A081FE2EB531DE15C
:105AA000EA51C7081AE3030EC66F010E0501D06F55
:105AB000000196EC24F00501D86B0001A9EC1DF063
:105AC000C9EC15F08B8894988B8A949A8CEC24F00E
:105AD00004011D93EB6BEA6B0AD01D93EB6BEA6B31
:105AE0001CAF05D000018CEC24F004011C9FC651B2
:105AF0000308D8A473D1050EEA6EBA0EE96EF2CF90
:105B0000D0F5F29E000E0001C0EC07F00A0009007B
:105B1000F550EE6E0009FBE10501D0BFF28E050ED7
:105B2000D96FBA0ED86F280EDA6FDB6B010EDC6FFF
:105B3000020EDD6F000143EC1DF00401C82D23D0DF
:105B4000050EEA6EBA0EE96EF2CFD0F5F29E000EA7
:105B50000001D2EC07F00A000900F550EE6E0009D2
:105B6000FBE10501D0BFF28E050ED96FBA0ED86FDA
:105B7000DA6B130EDB6F010EDC6FDD6F000143EC9F
:105B80001DF022D00401050EEA6EBA0EE96EF2CFC6
:105B9000D0F5F29E000E0001D2EC07F00A000900D9
:105BA000F550EE6E0009FBE10501D0BFF28E050E47
:105BB000D96FBA0ED86FDA6B130EDB6FDC6B010E88
:105BC000DD6F000143EC1DF00401C851020823E120
:105BD000050EEA6EBA0EE96EF2CFD0F5F29E000E17
:105BE0000001E8EC07F00A000900F550EE6E00092C
:105BF000FBE10501D0BFF28E050ED96FBA0ED86F4A
:105C0000DA6B230EDB6F010EDC6FDD6F000143ECFE
:105C10001DF022D00401050EEA6EBA0EE96EF2CF35
:105C2000D0F5F29E000E0001E8EC07F00A00090032
:105C3000F550EE6E0009FBE10501D0BFF28E050EB6
:105C4000D96FBA0ED86FDA6B230EDB6FDC6B010EE7
:105C5000DD6F000143EC1DF00401C851030823E18E
:105C6000050EEA6EBA0EE96EF2CFD0F5F29E000E86
:105C70000001FFEC07F00A000900F550EE6E000984
:105C8000FBE10501D0BFF28E050ED96FBA0ED86FB9
:105C9000DA6B330EDB6F010EDC6FDD6F000143EC5E
:105CA0001DF022D00401050EEA6EBA0EE96EF2CFA5
:105CB000D0F5F29E000E0001FFEC07F00A0009008B
:105CC000F550EE6E0009FBE10501D0BFF28E050E26
:105CD000D96FBA0ED86FDA6B330EDB6FDC6B010E47
:105CE000DD6F000143EC1DF0C9EC15F004011BB59C
:105CF0000DD0020E0501D06FFA0ED96F000141ECF4
:105D00000AF00501D02FF8D704011B85928A80BACA
:105D10000CD01AB109D01A811E0E0501D96F0001ED
:105D200041EC0AF00401C80701D01A91968084B0B2
:105D30000CD01AB509D01A851E0E0501D96F0001C5
:105D400041EC0AF00401C82B01D01A95968284B266
:105D500024D01AB321D01A83020E0501D06FFA0E97
:105D6000D96F000141EC0AF00501D02FF8D7030EDE
:105D70000401C825C66F010EC86F0501D86B00016C
:105D8000A9EC1DF0010E0401C76F05010E6B0F6B2E
:105D9000106B116B04011C9701D01A93968484B484
:105DA00014D0040E0501D06FAF0ED96F000141EC85
:105DB0000AF00501D02FF8D7020E0401C66F0501C5
:105DC000D86B0001A9EC1DF00401C851030802E2E0
:105DD000010EC86FC85302E1030EC86FC651040814
:105DE000D8A4E0D1050EEA6EBA0EE96EF2CFD0F576
:105DF000F29E000E000111EC08F00A000900F550B7
:105E0000EE6E0009FBE10501D0BFF28E050ED96FE1
:105E1000BA0ED86F0A0EDA6FDB6B010EDC6F020E62
:105E2000DD6F000143EC1DF00401C75104080FE1D0
:105E3000F5C4D0F5140E0501D16F280ED26F010EF6
:105E4000D36F020ED46F000137EC21F00DD0F5C4F2
:105E5000D0F5140E0501D16F280ED26FD36B020E50
:105E6000D46F000137EC21F00401C75103080EE1A3
:105E7000F4C4D0F5280E0501D16FD26F010ED36F97
:105E8000020ED46F000137EC21F00CD0F4C4D0F531
:105E9000280E0501D16FD26FD36B020ED46F0001B3
:105EA00037EC21F00401C75102080FE1F3C4D0F52B
:105EB000460E0501D16F280ED26F010ED36F020E70
:105EC000D46F000137EC21F00DD0F3C4D0F5460EAD
:105ED0000501D16F280ED26FD36B020ED46F000173
:105EE00037EC21F00401C72D0FD0F2C4D0F55A0EC3
:105EF0000501D16F280ED26F010ED36F020ED46F41
:105F0000000137EC21F00DD0F2C4D0F55A0E050196
:105F1000D16F280ED26FD36B020ED46F000137EC15
:105F200021F03C0E0501E96F2A0EEA6F040EEC6FBA
:105F3000430EEB6F020EED6F010EEE6F00010BECE6
:105F40001CF0928A80BA15D004011AB111D01A81BE
:105F50001E0E0501D96F000141EC0AF0010E04018B
