:04000000FEEF2CF0F3
:08000800046ED8CF05F0E0CF33
:1000100006F00001E9CF0CF0EACF07F0E1CF08F0DD
:10002000E2CF09F0D9CF0AF0DACF0BF0F3CF12F01C
:10003000F4CF13F0FACF14F000C00EF001C00FF0AF
:1000400002C010F003C011F0F2A82AEF00F0F2B2E3
:10005000C9EF09F00EC000F00FC001F010C002F0AF
:1000600011C003F00CC0E9FF07C0EAFF078E08C00B
:10007000E1FF09C0E2FF0AC0D9FF0BC0DAFF12C0DE
:10008000F3FF13C0F4FF14C0FAFF045006C0E0FFF2
:1000900005C0D8FF1000F2CF0DF0F29EF76AB00F46
:1000A000F66E000EF7220900F5500DBEF28E12001A
:1000B000000000000000005F0000000300030014C7
:1000C0003E143E14242A7F2A1243330866613649BF
:1000D0005522500005030000001C2241000041226F
:1000E0001C0014083E081408083E080800503000A0
:1000F00000080808080800606000002010080402DA
:100100003E5149453E0004027F004261514946226A
:10011000414949361814127F1027454545393E4953
:100120004949320101710907364949493626494989
:10013000493E0036360000005636000008142241C1
:100140000014141414140041221408020151090669
:100150003E4159555E7E0909097E7F494949363E2F
:10016000414141227F4141413E7F494949417F0907
:100170000909013E4141493A7F0808087F00417F53
:100180004100304040403F7F081422417F404040C2
:10019000407F020C027F7F0204087F3E4141413EC6
:1001A0007F090909061E2121215E7F0909097600C0
:1001B000F2CF0DF0F29EF76ACA0FF66E010EF7222B
:1001C0000900F5500DBEF28E120026494949320150
:1001D000017F01013F4040403F1F2040201F7F2002
:1001E00010207F41221C22410708700807615149F5
:1001F0004543007F41000002040810200000417FB9
:10020000000402010204404040404000010204009A
:1002100020545454787F4444443838444444443847
:100220004444447F385454541804047E050508544B
:1002300054543C7F0804047800447D40002040442E
:100240003D007F1028440000417F40007C0478047A
:10025000787C0804047838444444387C1414140826
:10026000081414147C007C080404485454542004DA
:10027000043F44443C4040207C1C2040201C3C4027
:1002800030403C44281028440C5050503C446454A6
:100290004C44000836414100007F000041413608CF
:1002A000000201020402F2CF0DF0F29EBE0FF66EC4
:1002B000020EF7220900F5500DBEF28E120000006A
:1002C000000000000000000000000000000000002E
:1002D000000000000000000000000000000000001E
:1002E000000000000000000000000000000000000E
:1002F00000000000000000000000000000000000FE
:1003000000000000000000000000000000000000ED
:1003100000000000000000000000000000000000DD
:1003200000000000000000000000000000000000CD
:1003300000000000000000000000000000000000BD
:1003400000000000000000000000000000000000AD
:10035000000000000000000000000000000000009D
:10036000000000000000000000000000000000008D
:10037000000000000000000000000000000000007D
:10038000000000000000000000000000000000006D
:10039000000000000000000000000000000000005D
:1003A000000000000000000000000000000000004D
:1003B00000000000000000000000000800800000B5
:1003C0000000000000000000000000040100000028
:1003D0000000000000000000000000020200000019
:1003E0000000000000000000000000007800000095
:1003F0000000000000000000000000008400000079
:1004000000000000000000000000000102000000E9
:100410000000000000000000000000F902F80000E9
:1004200000000000000000000000000102000000C9
:1004300000000000000000000000000102000000B9
:1004400000000000000000000000000484800000A4
:1004500000000000000000000000000878400000DC
:100460000000000000000000000000104820000014
:100470000000000000000000000000204810000004
:1004800000000000000000000000000078000000F4
:10049000000000000000000000000000000000005C
:1004A000000000000000000000000000000000004C
:1004B000000000000000000000000000000000003C
:1004C000000000000000000000000000000000002C
:1006B0000000000000000000000000000000F2CF79
:1006C0000DF0F29ED60FF66E060EF7220900F550D9
:1006D0000DBEF28E120000000000000000000000BD
:1006E000000000000000000000000000000000000A
:1006F00000000000000000000000000000000000FA
:1007000000000000000000000000000000000000E9
:1007100000000000000000000000000000000000D9
:1007200000000000000000000000000000000000C9
:1007300000000000000000000000000000000000B9
:1007400000000000000000000000000000000000A9
:100750000000000000000000000000000000000099
:100760000000000000000000000000000000000089
:100770000000000000000000000000000000000079
:100780000000000000000000000000000000000069
:100790000000000000000000000000000000000059
:1007A0000000000000000000000000000000000049
:1007B0000000000000000000000000000000000039
:1007C0000000000000000000000000000000000029
:1007D0000000000000000000000000000000000019
:1007E0000000000000000000000000000000000009
:1007F00000000000000000000000000000000000F9
:1008000000000000000000000000000000000000E8
:1008100000000000000000000000000000000000D8
:1008200000000000000000000000000000000000C8
:1008300000000000000000000000000000000000B8
:1008400000000000000000000000000000000000A8
:100850000000000000000000000000000000000098
:100860000000000000000000000000000000000088
:100870000000000000000000000000000000000078
:100880000000000000000000000000000000000068
:100890000000000000000000000000000000000058
:1008A0000000000000000000000000000000000048
:1008B0000000000000000000000000000000000038
:1008C0000000007FFFF800000000000000000000B2
:1008D00000000040000800000000000000000000D0
:1008E0000000004703880000000000000000000036
:1008F0000000004502880000000000000000000029
:100900000000004502880000000000000000000018
:100910000000004502880000000000000000000008
:1009200000000045028800000000000000000000F8
:1009300000000047038800000000000000000000E5
:10094000000000400008000000000000000000005F
:1009500000000040FC080000000000000000000053
:1009600000000040840800000000000000000000BB
:1009700000000040840800000000000000000000AB
:1009800000000040FC080000000000000000000023
:10099000000000400008000000000000000000000F
:1009A0000000007FFFF800000000000000000000D1
:1009B0000000000000000000000000000000000037
:1009C0000000000000000000000000000000000027
:1009D0000000000000000000000000000000000017
:1009E0000000000000000000000000000000000007
:1009F00000000000000000000000000000000000F7
:100A000000000000000000000000000000000000E6
:100A100000000000000000000000000000000000D6
:100A200000000000000000000000000000000000C6
:100A300000000000000000000000000000000000B6
:100A400000000000000000000000000000000000A6
:100A50000000000000000000000000000000000096
:100A60000000000000000000000000000000000086
:100A70000000000000000000000000000000000076
:100A80000000000000000000000000000000000066
:100A90000000000000000000000000000000000056
:100AA0000000000000000000000000000000000046
:100AB0000000000000000000000000000000000036
:100AC0000000000000000000000000000000000026
:100AD000000000000000F2CF0DF0F29EEE0FF66E67
:100AE0000A0EF7220900F5500DBEF28E120000002A
:100AF00000000000000000000000000000000000F6
:100B000000000000000000000000000000000000E5
:100B100000000000000000000000000000000000D5
:100B200000000000000000000000000000000000C5
:100DD00000000000000000000000000060000000B3
:100DE000000000000000000000000000F000000013
:100DF000000000000000000000000001F8000000FA
:100E0000000000000000000000000001F8000000E9
:100E1000000000000000000000000001F8000000D9
:100E2000000000000000000000000000F0000000D2
:100E300000000000000000000000003871C0000049
:100E400000000000000000000000007C93E00000B3
:100E50000000000000000000000000FF0FF0000094
:100E60000000000000000000000000FF0FF0000084
:100E700000000000000000000000007D93E0000082
:100E800000000000000000000000003861C0000009
:100E9000000000000000000000000000F000000062
:100EA000000000000000000000000001F800000049
:100EB000000000000000000000000001F800000039
:100EC000000000000000000000000001F800000029
:100ED000000000000000000000000000F000000022
:100EE0000000000000000000000000006000F2CFE1
:100EF0000DF0F29EF76A080FF66E0F0EF72209004A
:100F0000F5500DBEF28E1200436C61766500F2CF93
:100F10000DF0F29EF76A280FF66E0F0EF722090009
:100F2000F5500DBEF28E1200436F727265637461EC
:100F30000000F2CF0DF0F29EF76A4C0FF66E0F0E26
:100F4000F7220900F5500DBEF28E1200496E636F54
:100F50007272656374610000F2CF0DF0F29EF76A61
:100F6000720FF66E0F0EF7220900F5500DBEF28ECD
:100F700012004A5043454737302D42420000F2CF1D
:100F80000DF0F29EF76A980FF66E0F0EF722090029
:100F9000F5500DBEF28E12004D656E750000F2CF59
:100FA0000DF0F29EF76AB80FF66E0F0EF7220900E9
:100FB000F5500DBEF28E1200416A757374657300B0
:100FC000F2CF0DF0F29EF76ADA0FF66E0F0EF722EF
:100FD0000900F5500DBEF28E120043616D62696F1B
:100FE00020646520436C61766500F2CF0DF0F29EBF
:100FF000F76A040FF66E100EF7220900F5500DBEC9
:10100000F28E12004D6F646F0000F2CF0DF0F29E71
:10101000F76A240FF66E100EF7220900F5500DBE88
:10102000F28E12005469656D706F205075726761A1
:101030000000F2CF0DF0F29EF76A4C0FF66E100E24
:10104000F7220900F5500DBEF28E12005469656D4D
:10105000706F20506F73742D507572676100F2CFFE
:101060000DF0F29EF76A780FF66E100EF722090067
:10107000F5500DBEF28E12004C757A2055560000C8
:10108000F2CF0DF0F29EF76A9A0FF66E100EF7226D
:101090000900F5500DBEF28E12004D616E74656E42
:1010A000696D69656E746F00F2CF0DF0F29EF76A9C
:1010B000C20FF66E100EF7220900F5500DBEF28E2B
:1010C0001200536572766963696F0000F2CF0DF00C
:1010D000F29EF76AE60FF66E100EF7220900F55041
:1010E0000DBEF28E12005556204F66660000F2CFFC
:1010F0000DF0F29EF76A080FF66E110EF722090046
:10110000F5500DBEF28E12005556204F6E00F2CFF4
:101110000DF0F29EF76A280FF66E110EF722090005
:10112000F5500DBEF28E1200542E2050757267617C
:101130000000F2CF0DF0F29EF76A4C0FF66E110E22
:10114000F7220900F5500DBEF28E1200542E2050E9
:101150006F73742D507572676100F2CF0DF0F29EBF
:10116000F76A740FF66E110EF7220900F5500DBEE6
:10117000F28E1200436C617665204E7565766100D3
:10118000F2CF0DF0F29EF76A9A0FF66E110EF7226B
:101190000900F5500DBEF28E12004D616E74656E41
:1011A00069656E746F00F2CF0DF0F29EF76AC00FA2
:1011B000F66E110EF7220900F5500DBEF28E1200E8
:1011C00054726162616A6F2046696C74726F28683C
:1011D000293A0000F2CF0DF0F29EF76AEE0FF66E9C
:1011E000110EF7220900F5500DBEF28E1200536564
:1011F0006E736F7220646520466C756A6F00F2CF63
:101200000DF0F29EF76A180FF66E120EF722090023
:10121000F5500DBEF28E120053656E736F7220642E
:10122000652050726573696F6E00F2CF0DF0F29E0B
:10123000F76A440FF66E120EF7220900F5500DBE44
:10124000F28E120056656C6F6369646164205665A6
:101250006E74696C61646F720000F2CF0DF0F29EE3
:10126000F76A740FF66E120EF7220900F5500DBEE4
:10127000F28E120020204170616761723F00F2CF50
:101280000DF0F29EF76A980FF66E120EF722090023
:10129000F5500DBEF28E120053490000F2CF0DF052
:1012A000F29EF76AB60FF66E120EF7220900F5509D
:1012B0000DBEF28E12004E4F0000F2CF0DF0F29EE6
:1012C000F76AD40FF66E120EF7220900F5500DBE24
:1012D000F28E120053656C656363696F6E2056650C
:1012E0006C00F2CF0DF0F29EF76AFC0FF66E120E54
:1012F000F7220900F5500DBEF28E120056656C6F94
:10130000636964616400F2CF0DF0F29EF76A200F0A
:10131000F66E130EF7220900F5500DBEF28E120084
:1013200047756172646164610000F2CF0DF0F29E56
:10133000F76A440FF66E130EF7220900F5500DBE42
:10134000F28E12005469656D706F0000F2CF0DF0DF
:10135000F29EF76A660FF66E130EF7220900F5503B
:101360000DBEF28E1200506F73742D50757267614E
:101370000000030E0601265F0AE3060EEA6E260E43
:10138000E96EEF5004E001D000D0EF2EFDD7000150
:10139000000C928A80BA05D00401E32BD8B4E42B68
:1013A00003D00401E46BE36B968084B004D0E52B9A
:1013B000D8B4E62B02D0E66BE56B968284B204D0FB
:1013C000E72BD8B4E82B02D0E86BE76B968484B4A3
:1013D00004D0E92BD8B4EA2B02D0EA6BE96B050103
:1013E000C92BD8B4CA2BCA5303E1C95177084AE2C2
:1013F000CA6BC96B04012C8D2E85CD2B2CAF03D06D
:10140000DF2BD8B4E02B2DBB02D02EAB1CD0ED2BA4
:10141000EDBF05D0ED51090802E2ED6BEE2BEEBFFA
:1014200005D0EE51050802E2EE6BEF2BEFBF05D0C1
:10143000EF51090802E2EF6BF02BF0BF04D0F0513E
:10144000050801E2F06B2EA11CD0F52BF5BF05D0ED
:10145000F551090802E2F56BF62BF6BF05D0F651FF
:10146000050802E2F66BF72BF7BF05D0F751090824
:1014700002E2F76BF82BF8BF04D0F851050801E23F
:10148000F86B0501D26BD16B04012E890501D45193
:10149000050820E3D4531CE0D351630819E3CCC5FD
:1014A00025F60601252B2507D8B406D0FF0E266F9A
:1014B00000015FDF0601F7D7CBC526F6000159DF33
:1014C0008B849494A60E006E002EFED700000501BA
:1014D0008B949494F29200012AEF00F0050EEA6ECC
:1014E000F10EE96EEF500DE0060E016E006A002E5F
:1014F000FED7012EFBD77B0E006E002EFED7EF2EFF
:10150000F3D7000C0501DD51060804E1D36B8B8491
:10151000949437D0DD51050807E10F0ED36F070E05
:10152000CC6FD00ECB6F2DD0DD51040807E1190E22
:10153000D36F0B0ECC6FB80ECB6F23D0DD510308E9
:1015400007E1230ED36F0E0ECC6F100ECB6F19D0A8
:10155000DD51020807E12D0ED36F100ECC6FCC0EBB
:10156000CB6F0FD0DD2D07D0320ED36F130ECC6FA3
:10157000880ECB6F06D0DD5304E1640ED36F8B94DD
:1015800094940001000C0501EC5303E093968A86C5
:1015900002D093948A84939C8A9C956AEDC58CFFB3
:1015A0000000939E8A8E00D000D00000939E8A9EF9
:1015B00093948A9493968A960001000C0501E86B37
:1015C000160EE76F020EEA6F160EE96FE551FF0D7A
:1015D000F3CFE6F5EC6BEB6BEC5101081AE3E8C5D1
:1015E00003F0E751E72BD8B4E82BE96E03C0EAFF1C
:1015F000E6C5EFFFEAC503F0E951E92BD8B4EA2BC1
:10160000E96E03C0EAFFE6C5EFFFEB2BD8B4EC2B85
:10161000E3D70001000C0501E86B160EE76F020E20
:10162000EA6F160EE96FE56BE55107084EE3939AF2
:101630008A9AEC6B400EED6F0001A5DF010E0501EB
:10164000EC6F400EED6F00019EDF0501E551B8091A
:10165000EB6FEC6BED6F000196DF0501E551B8090A
:10166000EB6F010EEC6FEBC5EDF500018CDF939A8B
:101670008A8A0501E66BE6513F0825E3E8C503F0D9
:10168000E751E72BD8B4E82BE96E03C0EAFFEFCFB0
:10169000EBF5EC6BEBC5EDF5000175DF0501EAC577
:1016A00003F0E951E92BD8B4EA2BE96E03C0EAFF55
:1016B000EFCFEBF5010EEC6FEBC5EDF5000163DF4D
:1016C0000501E62BD8D7E52BAFD70001000C939886
:1016D0008A88939E8A9E93948A9493968A96939AE4
:1016E0008A9A0501EC6BC00EED6F00014CDF010E14
:1016F0000501EC6FC00EED6F000145DF0501EC6BDD
:10170000400EED6F00013FDF010E0501EC6F400E52
:10171000ED6F000138DF0501EC6BB80EED6F0001D5
:1017200032DF010E0501EC6FB80EED6F00012BDF0B
:101730000501DD2D0ED0EC6B3F0EED6F000123DFB8
:10174000010E0501EC6F3F0EED6F00011CDF0DD0A7
:101750000501EC6B3E0EED6F000115DF010E05017A
:10176000EC6F3E0EED6F00010EDF0501E56B000131
:1017700025DF51DF000C8E0E006E15C601F014C679
:1017800002F0036A015209E102C001F0026A080E88
:10179000005E015202E1006A08D0D89001BE04D078
:1017A000023601360006F9D7019E000C06011051E1
:1017B000D8B4A5D01C6F1451D8B4A1D01C5F05E3D8
:1017C0007F0E1C27D8B09BD006D0810E1C5FD8A0FE
:1017D00096D0D8B494D01CC600F0016A026A036A9D
:1017E0001B6B11C61AF61A8F12C619F613C618F615
:1017F000190E1C6F1751185F0DE2010E195F0AE2F6
:101800001A5F08E21B5F06E21B2B1A2B192B1751DC
:10181000182728D01651195F12E2010E1A5F0FE245
:101820001B5F0DE21B2B1A2B165119271751182776
:1018300019E3192B17E11A2B15E11B2B13D01551A6
:1018400080091A5F0EE2010E1B5F0BE21B2B155184
:1018500080091A2716511927E9E31A2BE7E11B2BF8
:10186000E5D703801C2F01D00BD0D890183719373B
:101870001A371B37D8900336023601361D37BAD7D0
:101880001DA106D0D8900132023203321D3302D09E
:10189000000635E01DBF1ED0D890183719371A370B
:1018A0001B371751185F07E2010E195F04E21A5F38
:1018B00002E21B5F1AE31651195F05E2010E1A5F7F
:1018C00002E21B5F12E3155180091A5F03E2010E69
:1018D0001B5F0BE3032A09E1022A07E1012A05E164
:1018E000002A0DE001320232033211C61CF61551F6
:1018F0001C1B1CAF02D0018E06D0019E04D0006AD2
:10190000016A026A036A0001000C800ED8A202D0AC
:101910000601191B06011E6B1F6B15C61DF619511A
:101920001D1B1451D8B4DFD01C6F006E1851D8B4F1
:10193000E3D01C5FD8B483D03EE319C622F6228FD1
:101940001AC621F61BC620F61F6BD890223321330E
:1019500020331F331C2FF8D71DAF03D01E81E0D0DA
:101960001E911C911E89060EEA6E170EE96EEBD0D1
:101970001E991DBF0AD01CA113D02233213320335E
:101980001F33002AD8B4C7D00BD022BF0CD0D890B8
:101990001F372037213722370006D8B4BCD0F5D7FF
:1019A0001E8D6DD01E9D15C61DF615AF02D0228F5F
:1019B000ABD0229FA9D018C61CF618C600F014514F
:1019C0001C5F15C622F6228F16C621F617C620F612
:1019D0001F6BD8902233213320331F331C2FF8D7AD
:1019E0001DAF03D01E839CD01E931C911E8B060E30
:1019F000EA6E1B0EE96EA7D01E9B1DBF0AD01CA16C
:101A000013D02233213320331F33002AD8B483D09C
:101A10000BD022BF0CD0D8901F3720372137223768
:101A20000006D8B478D0F5D71E8F29D01E9F19C6CE
:101A30001DF619AF02D0228F67D0229F65D019C63C
:101A400022F6228F1AC621F61BC620F61DAF04D03F
:101A5000229F1E8565D01E951F6B1C91060EEA6E97
:101A6000170EE96E70D01DBF1CD015C61DF61CA147
:101A700006D02233213320331F33002A4CE01FAF1E
:101A80000BD0202B09E1212B07E1222B05E122338A
:101A900021332033002A3FE01EBD84D71EBFC6D7A6
:101AA0001CD0800E221B22AF04D03AD019C61DF6DE
:101AB0000AD015C61DF6225306E1215304E1205336
:101AC00002E1006A21D022BF08D0D8901F3720370A
:101AD00021372237002EF7D71ED01DAF02D0228F1C
:101AE00013D0229F11D018C600F019C622F61AC6CC
:101AF00021F61BC620F608D014C600F015C622F643
:101B000016C621F617C620F622C601F021C602F03D
:101B100020C603F034D0006A016A026A036A2FD03B
:101B20001F6B201F211F221F1F1F1F2B05E1202BB2
:101B300003E1212B01E1222B1EB112D71EB354D792
:101B40001EB589D7B3D7EF50202705E3212B03E13A
:101B5000222BD8B41C81ED52EF50212703E3222B16
:101B6000D8B41C81ED52EF50EFBE01D0800A22277D
:101B7000D8B01C811EB9FCD61EBB3ED774D700015D
:101B8000000CF2CFDDF5F29EAA6AA96AA69CA69E79
:101B9000A680A8500501DDBFF28E0D6F0A0EF16F11
:101BA00000019CDCF2CFDDF5F29EAA6A010EA96E5F
:101BB000A69CA69EA680A8500501DDBFF28E0E6FE2
:101BC0000A0EF16F00018ADCF2CFDDF5F29EAA6AFF
:101BD000020EA96EA69CA69EA680A8500501DDBF98
:101BE000F28E0F6F0A0EF16F000178DCF2CFDDF597
:101BF000F29EAA6A030EA96EA69CA69EA680A85075
:101C00000501DDBFF28E106F0A0EF16F000166DC78
:101C1000F2CFDDF5F29EAA6A040EA96EA69CA69EDE
:101C2000A680A8500501DDBFF28E0401F16F0A0EF7
:101C30000501F16F000152DCF2CFDDF5F29EAA6AD8
:101C4000050EA96EA69CA69EA680A8500501DDBF24
:101C5000F28E0401F26F0A0E0501F16F00013EDC05
:101C6000F2CFDDF5F29EAA6A060EA96EA69CA69E8C
:101C7000A680A8500501DDBFF28E0401F36F0A0EA5
:101C80000501F16F00012ADCF2CFDDF5F29EAA6AB0
:101C9000070EA96EA69CA69EA680A8500501DDBFD2
:101CA000F28E0401F46F0A0E0501F16F000116DCDB
:101CB000F2CFDDF5F29EAA6A080EA96EA69CA69E3A
:101CC000A680A8500501DDBFF28E0401F96F0A0E4F
:101CD0000501F16F000102DCF2CFDDF5F29EAA6A88
:101CE000090EA96EA69CA69EA680A8500501DDBF80
:101CF000F28E0401FA6F0A0E0501F16F00016EEC1D
:101D00000AF0F2CFDDF5F29EAA6A0A0EA96EA69C31
:101D1000A69EA680A8500501DDBFF28E0401FB6FD0
:101D20000A0E0501F16F00016EEC0AF0F2CFDDF54D
:101D3000F29EAA6A0B0EA96EA69CA69EA680A8502B
:101D40000501DDBFF28E0401FC6F0A0E0501F16F83
:101D500000016EEC0AF0F2CFDDF5F29EAA6A0C0EDD
:101D6000A96EA69CA69EA680A8500501DDBFF28E96
:101D70000401FD6F0A0E0501F16F00016EEC0AF01F
:101D8000F2CFDDF5F29EAA6A0D0EA96EA69CA69E64
:101D9000A680A8500501DDBFF28E0401FE6F0A0E79
:101DA0000501F16F00016EEC0AF0F2CFDDF5F29E55
:101DB000AA6A0E0EA96EA69CA69EA680A850050132
:101DC000DDBFF28E0401FF6F0A0E0501F16F000105
:101DD0006EEC0AF0F2CFDDF5F29EAA6A0F0EA96E44
:101DE000A69CA69EA680A8500501DDBFF28E006FBE
:101DF0000A0EF16F00016EEC0AF0F2CFDDF5F29EF3
:101E0000AA6A100EA96EA69CA69EA680A8500501DF
:101E1000DDBFF28E056F0A0EF16F00016EEC0AF065
:101E2000F2CFDDF5F29EAA6A110EA96EA69CA69EBF
:101E3000A680A8500501DDBFF28E066F0A0EF16F75
:101E400000016EEC0AF0F2CFDDF5F29EAA6A120EE6
:101E5000A96EA69CA69EA680A8500501DDBFF28EA5
:101E6000076F0A0EF16F00016EEC0AF0F2CFDDF59C
:101E7000F29EAA6A130EA96EA69CA69EA680A850E2
:101E80000501DDBFF28E086F0A0EF16F00016EECE6
:101E90000AF0F2CFDDF5F29EAA6A150EA96EA69C95
:101EA000A69EA680A8500501DDBFF28E016F0A0E26
:101EB000F16F00016EEC0AF0F2CFDDF5F29EAA6A36
:101EC000160EA96EA69CA69EA680A8500501DDBF91
:101ED000F28E026F0A0EF16F00016EEC0AF0F2CF83
:101EE000DDF5F29EAA6A170EA96EA69CA69EA68094
:101EF000A8500501DDBFF28E036F0A0EF16F0001DD
:101F00006EEC0AF0F2CFDDF5F29EAA6A180EA96E09
:101F1000A69CA69EA680A8500501DDBFF28E046F88
:101F20000A0EF16F00016EEC0AF0F2CFDDF5F29EC1
:101F3000AA6A190EA96EA69CA69EA680A8500501A5
:101F4000DDBFF28E0401D26F0A0E0501F16F0001B0
:101F50006EEC0AF0F2CFDDF5F29EAA6A1A0EA96EB7
:101F6000A69CA69EA680A8500501DDBFF28E0601A4
:101F7000156B146F0001BBEC0BF003C03CF502C005
:101F80003BF501C03AF500C039F50A0E0501F16FC5
:101F900000016EEC0AF03CC513F63BC512F63AC5DB
:101FA00011F639C510F60601176B166B200E156F6A
:101FB000820E146F0001D6EC0BF003C03CF502C09A
:101FC0003BF501C03AF500C039F50601156BD2C4E6
:101FD00014F60001BBEC0BF0D89203C017F602C058
:101FE00016F601C015F600C014F63CC51BF63BC53D
:101FF0001AF63AC519F639C518F687DC03C034F568
:1020000002C033F501C032F500C031F5F2CFDDF585
:10201000F29EAA6A1B0EA96EA69CA69EA680A85038
:102020000501DDBFF28E0401D26F0A0E0501F16FCA
:1020300000016EEC0AF0F2CFDDF5F29EAA6A1C0EEA
:10204000A96EA69CA69EA680A8500501DDBFF28EB3
:102050000601156B146F0001BBEC0BF003C03CF5DF
:1020600002C03BF501C03AF500C039F50A0E050182
:10207000F16F00016EEC0AF03CC513F63BC512F699
:102080003AC511F639C510F60601176B166B200E0E
:10209000156F820E146F0001D6EC0BF003C03CF5F7
:1020A00002C03BF501C03AF500C039F50601156BD9
:1020B000D2C414F60001BBEC0BF0D89203C017F6A3
:1020C00002C016F601C015F600C014F63CC51BF69A
:1020D0003BC51AF63AC519F639C518F616DC03C021
:1020E00038F502C037F501C036F500C035F5F2CF3E
:1020F000DDF5F29EAA6A1E0EA96EA69CA69EA6807B
:10210000A8500501DDBFF28EDE6FF2CFDFF5F29E43
:10211000AA6A1D0EA96EA69CA69EA680A850DFBF27
:10212000F28EE06FDEC503F0E0510601146F03C0CC
:1021300015F60001BBEC0BF003C0BCF502C0BBF50B
:1021400001C0BAF500C0B9F50A0E0501F16F000132
:102150006EEC0AF0F2CFDDF5F29EAA6A220EA96EAD
:10216000A69CA69EA680A8500501DDBFF28EDE6F5C
:10217000F2CFDFF5F29EAA6A210EA96EA69CA69E5A
:10218000A680A850DFBFF28EE06FDEC5E0F4E0C5A8
:10219000DFF40A0EF16F00016EEC0AF0F2CFDDF50C
:1021A000F29EAA6A1F0EA96EA69CA69EA680A850A3
:1021B0000501DDBFF28E0401DE6BDD6F0A0E050145
:1021C000F16F00016EEC0AF0F2CFDDF5F29EAA6A23
:1021D000200EA96EA69CA69EA680A8500501DDBF74
:1021E000F28ED46F0A0EF16F00016EEC0AF0F2CF9E
:1021F000DDF5F29EAA6A3D0EA96EA69CA69EA6805B
:10220000A8500501DDBFF28EDE6FF2CFDFF5F29E42
:10221000AA6A3C0EA96EA69CA69EA680A850DFBF07
:10222000F28EE06FDEC503F0E0510601146F03C0CB
:1022300015F60001BBEC0BF003C020F502C01FF542
:1022400001C01EF500C01DF50A0E0501F16F000169
:102250006EEC0AF0F2CFDDF5F29EAA6A3F0EA96E8F
:10226000A69CA69EA680A8500501DDBFF28EDE6F5B
:10227000F2CFDFF5F29EAA6A3E0EA96EA69CA69E3C
:10228000A680A850DFBFF28EE06FDEC503F0E051FC
:102290000601146F03C015F60001BBEC0BF003C080
:1022A000C8F502C0C7F501C0C6F500C0C5F50A0EE5
:1022B0000501F16F00016EEC0AF0F2CFDDF5F29E40
:1022C000AA6A320EA96EA69CA69EA680A8500501F9
:1022D000DDBFF28E0401CA6F0A0E0501F16F000125
:1022E0006EEC0AF0C3EF2FF011C618F60601155177
:1022F000181B18AF05D0D894D89011BFD8802FD014
:1023000011C618F614C619F61051195F06E018AF79
:1023100026D0D850010AD86E22D015C619F6115110
:10232000195F06E018AF1BD0D850010AD86E17D03D
:1023300016C619F61251195F06E018AF10D0D85022
:10234000010AD86E0CD017C619F61351195F06E0B2
:1023500018AF05D0D850010AD86E01D0D89000012E
:10236000000C05010DBF03D00D51090803E30DBF9B
:1023700001D016D00D6BAA6AA96AA86AA69CA69E6F
:10238000A684F250006EF29E0F01550EA76EAA0EA3
:10239000A76EA682A6B2FED7A6940050F21205013F
:1023A0000EBF03D00E51090803E30EBF01D017D0B2
:1023B0000E6BAA6A010EA96EA86AA69CA69EA684A8
:1023C000F250006EF29E0F01550EA76EAA0EA76E78
:1023D000A682A6B2FED7A6940050F21205010FBF46
:1023E00003D00F51090803E30FBF01D017D00F6BC3
:1023F000AA6A020EA96EA86AA69CA69EA684F2509E
:10240000006EF29E0F01550EA76EAA0EA76EA68251
:10241000A6B2FED7A6940050F212050110BF03D059
:102420001051090803E310BF01D016D0106BAA6A3F
:10243000030EA96EA86AA69CA69EA684F250006E02
:10244000F29E0F01550EA76EAA0EA76EA682A6B227
:10245000FED7A6940050F2120401F1BF03D0F1514F
:10246000090803E3F1BF01D017D0F16BAA6A040E8B
:10247000A96EA86AA69CA69EA684F250006EF29E43
:102480000F01550EA76EAA0EA76EA682A6B2FED7A2
:10249000A6940050F2120401F2BF03D0F2510908D1
:1024A00003E3F2BF01D017D0F26BAA6A050EA96E42
:1024B000A86AA69CA69EA684F250006EF29E0F010A
:1024C000550EA76EAA0EA76EA682A6B2FED7A69438
:1024D0000050F2120401F3BF03D0F351090803E3E3
:1024E000F3BF01D019D0020EF36FAA6A060EA96ECF
:1024F000020EA86EA69CA69EA684F250006EF29EC6
:102500000F01550EA76EAA0EA76EA682A6B2FED721
:10251000A6940050F2120401F4BF03D0F45109084C
:1025200003E3F4BF01D017D0F46BAA6A070EA96EBB
:10253000A86AA69CA69EA684F250006EF29E0F0189
:10254000550EA76EAA0EA76EA682A6B2FED7A694B7
:102550000050F2120401F9BF03D0F951090803E356
:10256000F9BF01D017D0F96BAA6A080EA96EA86A44
:10257000A69CA69EA684F250006EF29E0F01550EF8
:10258000A76EAA0EA76EA682A6B2FED7A69400508A
:10259000F2120401FABF03D0FA51090803E3FABFAB
:1025A00001D017D0FA6BAA6A090EA96EA86AA69C78
:1025B000A69EA684F250006EF29E0F01550EA76EE5
:1025C000AA0EA76EA682A6B2FED7A6940050F2125B
:1025D0000401FBBF03D0FB51090803E3FBBF01D09B
:1025E00019D0020EFB6FAA6A0A0EA96E020EA86E1F
:1025F000A69CA69EA684F250006EF29E0F01550E78
:10260000A76EAA0EA76EA682A6B2FED7A694005009
:10261000F2120401FCBF03D0FC51090803E3FCBF24
:1026200001D017D0FC6BAA6A0B0EA96EA86AA69CF3
:10263000A69EA684F250006EF29E0F01550EA76E64
:10264000AA0EA76EA682A6B2FED7A6940050F212DA
:102650000401FDBF03D0FD51090803E3FDBF01D014
:1026600017D0FD6BAA6A0C0EA96EA86AA69CA69E3E
:10267000A684F250006EF29E0F01550EA76EAA0EB0
:10268000A76EA682A6B2FED7A6940050F21204014D
:10269000FEBF03D0FE51090803E3FEBF01D017D0EF
:1026A000FE6BAA6A0D0EA96EA86AA69CA69EA684B9
:1026B000F250006EF29E0F01550EA76EAA0EA76E85
:1026C000A682A6B2FED7A6940050F2120401FFBF64
:1026D00003D0FF51090803E3FFBF01D016D0FF6B01
:1026E000AA6A0E0EA96EA86AA69CA69EA684F2509F
:1026F000006EF29E0F01550EA76EAA0EA76EA6825F
:10270000A6B2FED7A6940050F212050100BF03D076
:102710000051090803E300BF01D017D0006BAA6A7B
:102720000F0EA96EA86AA69CA69EA684F250006E03
:10273000F29E0F01550EA76EAA0EA76EA682A6B234
:10274000FED7A6940050F212050105BF03D0055133
:10275000090803E305BF01D017D0056BAA6A100E64
:10276000A96EA86AA69CA69EA684F250006EF29E50
:102770000F01550EA76EAA0EA76EA682A6B2FED7AF
:10278000A6940050F212050106BF03D006510908B5
:1027900003E306BF01D017D0066BAA6A110EA96E1B
:1027A000A86AA69CA69EA684F250006EF29E0F0117
:1027B000550EA76EAA0EA76EA682A6B2FED7A69445
:1027C0000050F212050107BF03D00751090803E3C7
:1027D00007BF01D017D0076BAA6A120EA96EA86AAC
:1027E000A69CA69EA684F250006EF29E0F01550E86
:1027F000A76EAA0EA76EA682A6B2FED7A694005018
:10280000F212050108BF03D00851090803E308BF0D
:1028100001D017D0086BAA6A130EA96EA86AA69CED
:10282000A69EA684F250006EF29E0F01550EA76E72
:10283000AA0EA76EA682A6B2FED7A6940050F212E8
:10284000050101BF03D00151090803E301BF01D015
:1028500017D0016BAA6A150EA96EA86AA69CA69E3F
:10286000A684F250006EF29E0F01550EA76EAA0EBE
:10287000A76EA682A6B2FED7A6940050F21205015A
:1028800002BF03D00251090803E302BF01D017D0F1
:10289000026BAA6A160EA96EA86AA69CA69EA684BA
:1028A000F250006EF29E0F01550EA76EAA0EA76E93
:1028B000A682A6B2FED7A6940050F212050103BF6D
:1028C00003D00351090803E303BF01D017D0036B02
:1028D000AA6A170EA96EA86AA69CA69EA684F250A4
:1028E000006EF29E0F01550EA76EAA0EA76EA6826D
:1028F000A6B2FED7A6940050F212050104BF03D081
:102900000451090803E304BF01D018D0010E046F7D
:10291000AA6A180EA96E010EA86EA69CA69EA68491
:10292000F250006EF29E0F01550EA76EAA0EA76E12
:10293000A682A6B2FED7A6940050F2120601136B2F
:10294000126B480E116F830E106F34C517F633C526
:1029500016F632C515F631C514F60001C5DC32E3B2
:102960000501346B336B400E326F7F0E316FAA6AF4
:10297000190EA96E010EA86EA69CA69EA684F25002
:10298000006EF29E0F01550EA76EAA0EA76EA682CC
:10299000A6B2FED7A6940050F212AA6A1A0EA96E29
:1029A000050EA86EA69CA69EA684F250006EF29E0E
:1029B000550EA76EAA0EA76EA682A6B2FED7A69443
:1029C0000050F2120601136B126B480E116F830E4A
:1029D000106F38C517F637C516F636C515F635C566
:1029E00014F6000181DC30E30501386B376B366B80
:1029F0007F0E356FAA6A1B0EA96E010EA86EA69CEB
:102A0000A69EA684F250006EF29E0F01550EA76E90
:102A1000AA0EA76EA682A6B2FED7A6940050F21206
:102A2000AA6A1C0EA96EA86AA69CA69EA684F2504D
:102A3000006EF29E550EA76EAA0EA76EA682A6B2D3
:102A4000FED7A6940050F2120601136B126B160EFD
:102A5000116F870E106FBCC517F6BBC516F6BAC549
:102A600015F6B9C514F600013FDC31E30501BC6B76
:102A7000BB6B4B0EBA6F860EB96FAA6A1D0EA96E9C
:102A8000CB0EA86EA69CA69EA684F250006EF29E67
:102A90000F01550EA76EAA0EA76EA682A6B2FED78C
:102AA000A6940050F212AA6A1E0EA96EA86AA69CED
:102AB000A69EA684F250006EF29E550EA76EAA0E38
:102AC000A76EA682A6B2FED7A6940050F212040109
:102AD000DE5303E1DD513C0817E2DE6BDD6BAA6AD1
:102AE0001F0EA96EA86AA69CA69EA684F250006E30
:102AF000F29E0F01550EA76EAA0EA76EA682A6B271
:102B0000FED7A6940050F2120501D451060818E22F
:102B1000020ED46FAA6A200EA96E020EA86EA69CA1
:102B2000A69EA684F250006EF29E0F01550EA76E6F
:102B3000AA0EA76EA682A6B2FED7A6940050F212E5
:102B40000401E0510D0830E2FF0A03E1DF511008F3
:102B50002BE2E06BDF6BAA6A210EA96EA86AA69C25
:102B6000A69EA684F250006EF29E0F01550EA76E2F
:102B7000AA0EA76EA682A6B2FED7A6940050F212A5
:102B8000AA6A220EA96EA86AA69CA69EA684F250E6
:102B9000006EF29E550EA76EAA0EA76EA682A6B272
:102BA000FED7A6940050F2120601136B126B480E6A
:102BB000116F860E106F20C517F61FC516F61EC5BD
:102BC00015F61DC514F6000174EC11F02EE3050195
:102BD000206B1F6B1E6B1D6BAA6A3C0EA96EA86A48
:102BE000A69CA69EA684F250006EF29E0F01550E82
:102BF000A76EAA0EA76EA682A6B2FED7A694005014
:102C0000F212AA6A3D0EA96EA86AA69CA69EA68488
:102C1000F250006EF29E550EA76EAA0EA76EA68207
:102C2000A6B2FED7A6940050F2120601136B126BE7
:102C3000610E116F880E106FC8C517F6C7C516F65E
:102C4000C6C515F6C5C514F6000174EC11F031E3E4
:102C50000501C86BC76B700EC66F860EC56FAA6A7A
:102C60003E0EA96EF00EA86EA69CA69EA684F250FB
:102C7000006EF29E0F01550EA76EAA0EA76EA682D9
:102C8000A6B2FED7A6940050F212AA6A3F0EA96E11
:102C9000A86AA69CA69EA684F250006EF29E550ECF
:102CA000A76EAA0EA76EA682A6B2FED7A694005063
:102CB000F2120401CA51140819E20A0ECA6FAA6A74
:102CC000320EA96E0A0EA86EA69CA69EA684F2508D
:102CD000006EF29E0F01550EA76EAA0EA76EA68279
:102CE000A6B2FED7A6940050F21204010001C5EF6F
:102CF0002FF00501EE35006E0036FC0E001600C008
:102D000001F0C250C30B0010C26E010EF16F000142
:102D10006EEC0AF0C282C2B2FED7C4CFF0F5050154
:102D2000C3CFEFF5EFC501F0F0C502F00001000CD4
:102D30008E0E006E06011051005E11C602F012C622
:102D400001F0028E005209E0D890025202E10152D5
:102D500004E002320132002EF7D711AF05D0011E78
:102D6000021E012AD8B4022A0001000C06011051EB
:102D7000D8B471D0006E1451D8B46DD0002604E3DD
:102D8000810E002668E204D07F0E005E64E363E0FB
:102D900011C618F61551181B118F158F13511703F3
:102DA000F4CF1AF612511603F4CF03F0F3CF19F64D
:102DB0001703F3501A27F4501923000E032213515E
:102DC0001603F3501A27F4501923000E026A032247
:102DD000022211511703F3501927F4500322000E59
:102DE000022211511603F3500326F4500222000E62
:102DF000016A012213511503F3501927F4500322DD
:102E0000000E0222012212511503F3500326F45042
:102E10000222000E012211511503F3500226F45034
:102E20000122002A01BE05D01937033602360136C9
:102E30000006000E19AF0AD0032A02220122015017
:102E400005E1025003E1035001E1002A18BF018EA1
:102E500018AF019E04D0006A016A026A036A000189
:102E6000000C06010D9101C606F600C605F6FFC569
:102E700004F6FEC503F601C613F600C612F6FFC53A
:102E800011F6FEC510F6176B166B156B146B00016F
:102E900074EC11F005E306010D810451800A046F02
:102EA00006C613F605C612F604C611F603C610F6DA
:102EB0000601176B166B156B8E0E146F000174EC08
:102EC00011F001E218E106C613F605C612F604C6B3
:102ED00011F603C610F62CDF02C015F601C014F679
:102EE000BBEC0BF003C00AF602C009F601C008F6FD
:102EF00000C007F6CFD006C613F605C612F604C604
:102F000011F603C610F6800E0601176F960E166FA7
:102F1000180E156F960E146F000174EC11F0D8A006
:102F2000B1D006C613F605C612F604C611F603C6DE
:102F300010F60601176B166B156B8E0E146F0001E1
:102F4000D6EC0BF003C013F602C012F601C011F666
:102F500000C010F6EDDE02C00CF601C00BF606C68E
:102F600013F605C612F604C611F603C610F60601DE
:102F7000176B166B156B8E0E146F0001D6EC0BF0F1
:102F800000C00EF601C00FF602C010F603C011F625
:102F90000CC615F60BC614F6BBEC0BF0D88211C6A6
:102FA00017F610C616F60FC615F60EC614F603C0B1
:102FB0001BF602C01AF601C019F600C018F685EC1F
:102FC0000CF00601136B126B116B8E0E106F03C0A9
:102FD00017F602C016F601C015F600C014F600017F
:102FE000C5DE03C006F602C005F601C004F600C047
:102FF00003F60CC615F60BC614F6BBEC0BF0060177
:10300000136B126B116B8E0E106F03C017F602C09C
:1030100016F601C015F600C014F60001A7DE03C0C5
:103020000AF602C009F601C008F600C007F606C697
:1030300013F605C612F604C611F603C610F678DEBE
:1030400002C015F601C014F6BBEC0BF0D8920AC60C
:1030500017F609C616F608C615F607C614F603C015
:103060001BF602C01AF601C019F600C018F685EC6E
:103070000CF003C00AF602C009F601C008F600C051
:1030800007F608D006C60AF605C609F604C608F60D
:1030900003C607F606C613F605C612F604C611F6F1
:1030A00003C610F645DE02C015F601C014F6BBECEF
:1030B0000BF0D88206C617F605C616F604C615F636
:1030C00003C614F603C01BF602C01AF601C019F6B7
:1030D00000C018F685EC0CF003C006F602C005F639
:1030E00001C004F600C003F606010DA103D008518B
:1030F000800A086F06C613F605C612F604C611F656
:1031000003C610F6176B166B156B146B000174EC8D
:1031100011F03CE006010DA11CD002531AE1D88247
:103120000AC617F609C616F608C615F607C614F637
:103130001B6B1A6B196B7F0E186F000185EC0CF07E
:1031400003C00AF602C009F601C008F600C007F67F
:1031500006010DB11CD0022D1AD0D8920AC617F65E
:1031600009C616F608C615F607C614F61B6B1A6BC9
:10317000196B7F0E186F000185EC0CF003C00AF686
:1031800002C009F601C008F600C007F6060101C634
:1031900013F600C612F6FFC511F6FEC510F6176B42
:1031A000166B156B146B000174EC11F006E106014F
:1031B0000A6B096B086B076B000107C600F008C6B5
:1031C00001F009C602F00AC603F0000CFDC501F6C5
:1031D000FCC500F6FBC5FFF5FAC5FEF5010E0601BC
:1031E000026F00013EDE63EF19F0FDC501F6FCC57C
:1031F00000F6FBC5FFF5FAC5FEF50601026B0001FE
:1032000030DE87EF19F0F1C513F6F0C512F6EFC501
:1032100011F6EEC510F60601176B166B156B146BE5
:10322000000174EC11F0D8B4A0D0EDC513F6ECC5D4
:1032300012F6EBC511F6EAC510F6F1C517F6F0C5A2
:1032400016F6EFC515F6EEC514F6D6EC0BF000C079
:10325000F6F501C0F7F502C0F8F503C0F9F503C0B3
:1032600013F602C012F601C011F600C010F60601F6
:10327000176B166B156B146B000174EC11F024E3E3
:10328000EDC513F6ECC512F6EBC511F6EAC510F65E
:10329000F1C517F6F0C516F6EFC515F6EEC514F62E
:1032A000D6EC0BF000C0F6F501C0F7F502C0F8F55A
:1032B00003C0F9F503C0FDF502C0FCF501C0FBF544
:1032C00000C0FAF583D723D0EDC513F6ECC512F68E
:1032D000EBC511F6EAC510F6F1C517F6F0C516F6FE
:1032E000EFC515F6EEC514F6D6EC0BF000C0F6F5FA
:1032F00001C0F7F502C0F8F503C0F9F503C0FDF50C
:1033000002C0FCF501C0FBF500C0FAF56ED703C0A2
:10331000F5F502C0F4F501C0F3F500C0F2F5F5C50E
:1033200013F6F4C512F6F3C511F6F2C510F6F1C5A1
:1033300017F6F0C516F6EFC515F6EEC514F616DD50
:10334000D882EDC517F6ECC516F6EBC515F6EAC53D
:1033500014F603C01BF602C01AF601C019F600C02D
:1033600018F685EC0CF001D000D0000C8E0E006E2B
:1033700005C601F004C602F0036A01AE05D0011EC5
:10338000021E022A01E1012A015209E102C001F0F4
:10339000026A080E005E015202E1006A0DD0D89068
:1033A00001BE04D0023601360006F9D7060105AF8A
:1033B00002D0000101D0019E0001000CF1C5F5F51D
:1033C000F0C5F4F5EFC5F3F5EEC5F2F5F5C513F666
:1033D000F4C512F6F3C511F6F2C510F60601176B27
:1033E000166B156B7F0E146F000174EC11F0D8B4DE
:1033F00044D2050E0601046FF20EE96E04C6EAFF20
:103400007E0EEF6ED882F5C517F6F4C516F6F3C535
:1034100015F6F2C514F61B6B1A6B196B7F0E186F3D
:10342000000185EC0CF000C003F601C004F602C0F8
:1034300005F603C006F6D892F5C517F6F4C516F6DC
:10344000F3C515F6F2C514F606011B6B1A6B196B62
:103450007F0E186F000185EC0CF006C613F605C64A
:1034600012F604C611F603C610F603C017F602C022
:1034700016F601C015F600C014F6D6EC0BF003C02A
:10348000F5F502C0F4F501C0F3F500C0F2F5F5C59D
:1034900013F6F4C512F6F3C511F6F2C510F6F5C52C
:1034A00017F6F4C516F6F3C515F6F2C514F65EDC8C
:1034B00003C001F602C000F601C0FFF500C0FEF532
:1034C000BC0E0601136F240E126F670E116F7D0E76
:1034D000106F01C617F600C616F6FFC515F6FEC535
:1034E00014F6000143DC00C003F601C004F602C07C
:1034F00005F603C006F6D89203C017F602C016F60A
:1035000001C015F600C014F6E30E06011B6FE40EB1
:103510001A6F900E196F820E186F000185EC0CF077
:1035200003C0F9F502C0F8F501C0F7F500C0F6F5E3
:10353000F9C513F6F8C512F6F7C511F6F6C510F67B
:1035400001C617F600C616F6FFC515F6FEC514F639
:103550000DDC00C003F601C004F602C005F603C08E
:1035600006F6D89203C017F602C016F601C015F68B
:1035700000C014F61C0E06011B6F870E1A6F570E43
:10358000196F830E186F000185EC0CF003C0F9F57C
:1035900002C0F8F501C0F7F500C0F6F5F9C513F65D
:1035A000F8C512F6F7C511F6F6C510F601C617F6FE
:1035B00000C616F6FFC515F6FEC514F6B6EC16F0F5
:1035C00000C003F601C004F602C005F603C006F60B
:1035D000D89203C017F602C016F601C015F600C057
:1035E00014F6AB0E06011B6FE10E1A6F9E0E196FDB
:1035F000830E186F000185EC0CF003C0F9F502C0D2
:10360000F8F501C0F7F500C0F6F50601136B126B73
:10361000116B7F0E106F01C617F600C616F6FFC5B8
:1036200015F6FEC514F60001B6EC16F000C003F660
:1036300001C004F602C005F603C006F6D89203C026
:1036400017F602C016F601C015F600C014F6B40E47
:1036500006011B6F2A0E1A6F820E196F186F000178
:1036600085EC0CF003C0FDF502C0FCF501C0FBF5D4
:1036700000C0FAF5FDC513F6FCC512F6FBC511F640
:10368000FAC510F601C617F600C616F6FFC515F600
:10369000FEC514F6B6EC16F000C003F601C004F641
:1036A00002C005F603C006F6D89203C017F602C0A2
:1036B00016F601C015F600C014F6800E06011B6F49
:1036C0003E0E1A6F060E196F830E186F000185ECFF
:1036D0000CF003C0FDF502C0FCF501C0FBF500C015
:1036E000FAF5FDC513F6FCC512F6FBC511F6FAC5D1
:1036F00010F601C617F600C616F6FFC515F6FEC58C
:1037000014F6B6EC16F000C003F601C004F602C0D1
:1037100005F603C006F6D89203C017F602C016F6E7
:1037200001C015F600C014F6AB0E06011B6FE10ECA
:103730001A6F9E0E196F820E186F000185EC0CF047
:1037400003C0FDF502C0FCF501C0FBF500C0FAF5B1
:10375000F5C513F6F4C512F6F3C511F6F2C510F669
:10376000F9C517F6F8C516F6F7C515F6F6C514F639
:10377000B6EC16F000C003F601C004F602C005F670
:1037800003C006F603C013F602C012F601C011F61C
:1037900000C010F6FDC517F6FCC516F6FBC515F6FC
:1037A000FAC514F6D6EC0BF003C0F9F502C0F8F533
:1037B00001C0F7F500C0F6F5050E0601046FEE0E28
:1037C000E96E04C6EAFF7E0EEF5C026F02BF01D015
:1037D00015D0000ED8800255056B046F04BF050795
:1037E0000001C4DD00C0FAF50150800A0501FB6F3D
:1037F00002C0FCF503C0FDF510D00601056B02C642
:1038000004F604BF05070001B1DD03C0FDF502C0E9
:10381000FCF501C0FBF500C0FAF5FDC513F6FCC5CB
:1038200012F6FBC511F6FAC510F6180E0601176F51
:10383000720E166F310E156F7E0E146F0001B6EC0E
:1038400016F0D892F9C517F6F8C516F6F7C515F6AD
:10385000F6C514F603C01BF602C01AF601C019F62D
:1038600000C018F685EC0CF003C0F9F502C0F8F5BD
:1038700001C0F7F500C0F6F506D00501F96BF86B4D
:10388000F76BF66B0001F6C500F0F7C501F0F8C55F
:1038900002F0F9C503F0000CF1C513F6F0C512F6FD
:1038A000EFC511F6EEC510F6180E0601176F720E71
:1038B000166F310E156F7E0E146F0001D6EC0BF0F3
:1038C00003C013F602C012F601C011F600C010F6D4
:1038D00098EC16F001C0FEF50501FF91F1C5F5F574
:1038E000F0C5F4F5EFC5F3F5EEC5F2F5F1C513F645
:1038F000F0C512F6EFC511F6EEC510F60601176B0E
:10390000166B156B146B000174EC11F006E30501E6
:10391000FF81FE6DF351800AF36F0501F96BF86BBF
:10392000F76BF66B050E0601016FF60EE96E01C628
:10393000EAFF7F0E0501FE25EF6EF5C513F6F4C50F
:1039400012F6F3C511F6F2C510F6180E0601176F40
:10395000720E166F310E156F7E0E146F0001D6ECCD
:103960000BF000C000F601C001F602C002F603C071
:1039700003F60601056BFEC504F604BF050700014A
:10398000F5DCD88203C617F602C616F601C615F690
:1039900000C614F603C01BF602C01AF601C019F6E1
:1039A00000C018F685EC0CF003C0F5F502C0F4F584
:1039B00001C0F3F500C0F2F57C0E0601136F880E0E
:1039C000126F590E116F720E106FF5C517F6F4C510
:1039D00016F6F3C515F6F2C514F60001B6EC16F0AE
:1039E00000C000F601C001F602C002F603C003F6F3
:1039F000D89203C017F602C016F601C015F600C033
:103A000014F6E00E06011B6F970E1A6F260E196F43
:103A1000750E186F000185EC0CF003C0FDF502C0B7
:103A2000FCF501C0FBF500C0FAF5FDC513F6FCC5B9
:103A300012F6FBC511F6FAC510F6F5C517F6F4C572
:103A400016F6F3C515F6F2C514F6B6EC16F000C07E
:103A500000F601C001F602C002F603C003F6D892D8
:103A600003C017F602C016F601C015F600C014F622
:103A7000C40E06011B6F1D0E1A6F1E0E196F780EF5
:103A8000186F000185EC0CF003C0FDF502C0FCF5D9
:103A900001C0FBF500C0FAF5FDC513F6FCC512F632
:103AA000FBC511F6FAC510F6F5C517F6F4C516F6FE
:103AB000F3C515F6F2C514F6B6EC16F000C000F624
:103AC00001C001F602C002F603C003F6D89203C09B
:103AD00017F602C016F601C015F600C014F65E0E09
:103AE00006011B6F500E1A6F630E196F7A0E186F56
:103AF000000185EC0CF003C0FDF502C0FCF501C02F
:103B0000FBF500C0FAF5FDC513F6FCC512F6FBC5C2
:103B100011F6FAC510F6F5C517F6F4C516F6F3C595
:103B200015F6F2C514F6B6EC16F000C000F601C0AA
:103B300001F602C002F603C003F6D89203C017F6DE
:103B400002C016F601C015F600C014F61A0E0601E2
:103B50001B6FFE0E1A6F750E196F7C0E186F000129
:103B600085EC0CF003C0FDF502C0FCF501C0FBF5CF
:103B700000C0FAF5FDC513F6FCC512F6FBC511F63B
:103B8000FAC510F6F5C517F6F4C516F6F3C515F621
:103B9000F2C514F6B6EC16F000C000F601C001F64E
:103BA00002C002F603C003F6D89203C017F602C0A3
:103BB00016F601C015F600C014F6180E06011B6FAC
:103BC000720E1A6F310E196F7E0E186F000185ECA0
:103BD0000CF003C0FDF502C0FCF501C0FBF500C010
:103BE000FAF5F5C513F6F4C512F6F3C511F6F2C5EC
:103BF00010F6FDC517F6FCC516F6FBC515F6FAC599
:103C000014F6B6EC16F0D8920601176B166B156B0E
:103C10007F0E146F03C01BF602C01AF601C019F61E
:103C200000C018F6000185EC0CF0F9C513F6F8C5D4
:103C300012F6F7C511F6F6C510F603C017F602C066
:103C400016F601C015F600C014F6B6EC16F003C067
:103C5000F9F502C0F8F501C0F7F500C0F6F5050169
:103C6000FFA11AD00601136B126B116B7F0E106F40
:103C7000F9C517F6F8C516F6F7C515F6F6C514F624
:103C80000001D6EC0BF003C0F9F502C0F8F501C055
:103C9000F7F500C0F6F50501F6C500F0F7C501F02F
:103CA000F8C502F0F9C503F00001000CE5C513F6F4
:103CB000E4C512F6E3C511F6E2C510F60601176B6E
:103CC000166B156B146B000174EC11F0D8A0D9D0F1
:103CD000E9C5EDF5E8C5ECF5E7C5EBF5E6C5EAF5B0
:103CE0000501F16BF06BEF6B7F0EEE6F000103ECE3
:103CF00019F000C0EAF501C0EBF502C0ECF503C015
:103D0000EDF503C013F602C012F601C011F600C0B3
:103D100010F60601176B166B156B146B000174EC33
:103D200011F0D8A4AED0E9C5EDF5E8C5ECF5E7C5CE
:103D3000EBF5E6C5EAF50501F16BF06BEF6B800E74
:103D4000EE6F000103EC19F000C0EAF501C0EBF5DD
:103D500002C0ECF503C0EDF503C013F602C012F685
:103D600001C011F600C010F60601176B166B156B3B
:103D7000146B000174EC11F041E1E2C5EAF50501B4
:103D8000E351800AEB6FE4C5ECF5E5C5EDF5E5C55B
:103D9000F1F5E4C5F0F5EF6FE2C5EEF50001DEECFC
:103DA00019F000C0EAF501C0EBF502C0ECF503C064
:103DB000EDF503C013F602C012F601C011F600C003
:103DC00010F6E9C517F6E8C516F6E7C515F6E6C517
:103DD00014F6B6EC16F000C0EAF501C0EBF502C02F
:103DE000ECF503C0EDF503C0F1F502C0F0F501C03C
:103DF000EFF500C0EEF550DDDED042D0E2C5EAF5C9
:103E00000501E351800AEB6FE4C5ECF5E5C5EDF57E
:103E1000E5C5F1F5E4C5F0F5EF6FE2C5EEF500019B
:103E2000DEEC19F000C0EAF501C0EBF502C0ECF5DC
:103E300003C0EDF503C013F602C012F601C011F67F
:103E400000C010F6E9C517F6E8C516F6E7C515F681
:103E5000E6C514F6B6EC16F000C0EAF501C0EBF5C5
:103E600002C0ECF503C0EDF503C0F1F502C0F0F5BA
:103E700001C0EFF500C0EEF50FDD800E011A9BD0FA
:103E80009AD0E5C513F6E4C512F6E3C511F6E2C50E
:103E900010F60601176B166B156B146B000174ECB2
:103EA00011F030E3E9C5EDF5E8C5ECF5E7C5EBF554
:103EB000E6C5EAF50501F16BF06BEF6B7F0EEE6F77
:103EC000000103EC19F000C0EAF501C0EBF502C0F7
:103ED000ECF503C0EDF503C013F602C012F601C005
:103EE00011F600C010F60601176B166B156B146BFC
:103EF000000174EC11F006E0006A016A026A036ACC
:103F00005AD059D0E5C513F6E4C512F6E3C511F64B
:103F1000E2C510F60601176B166B156B146B0001EA
:103F200074EC11F012E1E9C513F6E8C512F6E7C525
:103F300011F6E6C510F60601176B166B156B146BC0
:103F4000000174EC11F001E236E1E5C5F1F5E4C5DC
:103F5000F0F5E3C5EFF5E2C5EEF5DEEC19F000C0D3
:103F6000EAF501C0EBF502C0ECF503C0EDF503C0C6
:103F700013F602C012F601C011F600C010F6E9C532
:103F800017F6E8C516F6E7C515F6E6C514F6B6EC5D
:103F900016F000C0EAF501C0EBF502C0ECF503C075
:103FA000EDF503C0F1F502C0F0F501C0EFF500C07A
:103FB000EEF572DC00D0000C010E0501EE6F000181
:103FC00079EC16F002C0D6F401C0D5F40401CA5150
:103FD0000A0823E1D6C415F6D5C414F60001BBECDB
:103FE0000BF0D89203C017F602C016F601C015F602
:103FF00000C014F620C51BF61FC51AF61EC519F61B
:104000001DC518F685EC0CF003C028F502C027F595
:1040100001C026F500C025F50401CA51140822E1AB
:10402000D6C415F6D5C414F60001BBEC0BF0D8824B
:1040300003C017F602C016F601C015F600C014F64C
:1040400020C51BF61FC51AF61EC519F61DC518F6A4
:1040500085EC0CF003C028F502C027F501C026F559
:1040600000C025F528C5E5F527C5E4F526C5E3F527
:1040700025C5E2F50501E96BE86B400EE76F800EA0
:10408000E66F000113DE00C0DEF501C0DFF502C0FF
:10409000E0F503C0E1F503C013F602C012F601C05B
:1040A00011F600C010F644C517F643C516F642C512
:1040B00015F641C514F6B6EC16F000C0DEF501C0E9
:1040C000DFF502C0E0F503C0E1F528C5E5F527C539
:1040D000E4F526C5E3F525C5E2F50501E96BE86BD6
:1040E000E76B800EE66F0001E1DD00C0E2F501C084
:1040F000E3F502C0E4F503C0E5F503C013F602C022
:1041000012F601C011F600C010F648C517F647C5F3
:1041100016F646C515F645C514F6B6EC16F0EACF08
:10412000E3F5E9CFE2F5D892E1C517F6E0C516F65A
:10413000DFC515F6DEC514F603C01BF602C01AF67D
:1041400001C019F600C018F685EC0CF0E3C5EAFFD3
:10415000E2C5E9FF00C0DEF501C0DFF502C0E0F511
:1041600003C0E1F528C513F627C512F626C511F6DA
:1041700025C510F64CC517F64BC516F64AC515F6FB
:1041800049C514F6B6EC16F0EACFE5F5E9CFE4F54B
:10419000D892E1C517F6E0C516F6DFC515F6DEC5FF
:1041A00014F603C01BF602C01AF601C019F600C0CF
:1041B00018F685EC0CF0E5C5EAFFE4C5E9FF00C0A0
:1041C000DEF501C0DFF502C0E0F503C0E1F5EACF9E
:1041D000E7F5E9CFE6F5D89203C017F602C016F668
:1041E00001C015F600C014F650C51BF64FC51AF6EF
:1041F0004EC519F64DC518F685EC0CF0E7C5EAFF7B
:10420000E6C5E9FF03C024F502C023F501C022F58D
:1042100000C021F524C513F623C512F622C511F6F8
:1042200021C510F60601176B166B156B146B000198
:1042300074EC11F005E30501246B236B226B216BF9
:104240000501DD510401D05D01E3D06BD051040DB7
:10425000F350036A510FE96E050E0320EA6E21C583
:10426000EFFF22C5ECFF23C5ECFF24C5ECFFD02BEC
:104270000501B46BB36BB26BB16B0401D16B010E72
:104280000501DD5D0401D15D01E038E2D151040D8D
:10429000F350036A510FE96E050E0320EA6EEFCF6B
:1042A00000F0ECCF01F0ECCF02F0ECCF03F0EACF5E
:1042B000DFF5E9CFDEF5D892B4C517F6B3C516F62B
:1042C000B2C515F6B1C514F603C01BF602C01AF646
:1042D00001C019F600C018F6000185EC0CF0DFC52E
:1042E000EAFFDEC5E9FF03C0B4F502C0B3F501C0C3
:1042F000B2F500C0B1F50401D12BC1D70601156B91
:10430000DDC514F60001BBEC0BF0B4C513F6B3C564
:1043100012F6B2C511F6B1C510F603C017F602C009
:1043200016F601C015F600C014F6D6EC0BF000C06E
:10433000DEF501C0DFF502C0E0F503C0E1F503C022
:1043400013F602C012F601C011F600C010F634C513
:1043500017F633C516F632C515F631C514F6B6ECA8
:1043600016F003C0B4F502C0B3F501C0B2F500C049
:10437000B1F5B1C500F0B2C501F0B3C502F0B4C5E6
:1043800003F0D1EF2FF00501E16BE06BDF6BDE6B2B
:10439000E56BE46BE36BE26BE96BE86BE76BE66B99
:1043A000ED6BEC6BEB6BEA6BEE6B000179EC16F0EE
:1043B00002C015F601C014F6BBEC0BF003C0E1F52A
:1043C00002C0E0F501C0DFF500C0DEF50601136BA9
:1043D000126B200E116F810E106FE1C517F6E0C54C
:1043E00016F6DFC515F6DEC514F60001B6EC16F0BC
:1043F00000C0EEF501C0EFF502C0F0F503C0F1F525
:1044000003C013F602C012F601C011F600C010F688
:104410000601176BC00E166F7F0E156F880E146F96
:104420000001D6EC0BF003C0E5F502C0E4F501C0D5
:10443000E3F500C0E2F5E5C513F6E4C512F6E3C501
:1044400011F6E2C510F60A0E0601176FD70E166FA9
:10445000230E156F780E146F0001D6EC0BF003C01D
:10446000E9F502C0E8F501C0E7F500C0E6F5050191
:10447000CE51DD5D01E2CE6BCE51040DF350036AE7
:10448000710FE96E050E0320EA6EE6C5EFFFE7C582
:10449000ECFFE8C5ECFFE9C5ECFFCE2BED6BEC6B58
:1044A000EB6BEA6BCF6B010EDD5DCF5D01E038E2B7
:1044B000CF51040DF350036A710FE96E050E03200E
:1044C000EA6EEFCF00F0ECCF01F0ECCF02F0ECCFD2
:1044D00003F0EACFEFF5E9CFEEF5D892EDC517F688
:1044E000ECC516F6EBC515F6EAC514F603C01BF6C7
:1044F00002C01AF601C019F600C018F6000185ECDA
:104500000CF0EFC5EAFFEEC5E9FF03C0EDF502C010
:10451000ECF501C0EBF500C0EAF50501CF2BC3D7E0
:104520000601156BDDC514F60001BBEC0BF0EDC503
:1045300013F6ECC512F6EBC511F6EAC510F603C08A
:1045400017F602C016F601C015F600C014F6D6EC38
:104550000BF0DFEF2FF00501FB51016AFA5D03E27A
:10456000FAC500F00CD0006A080EFC6FFA3700366E
:10457000FB51005CD8B0006E0136FC2FF7D700016C
:10458000000C2BC4EAFF2AC4E9FF0501FFC5EFFFB9
:10459000E92AD8B4EA2AEF6A04012A2BD8B42B2BD3
:1045A0000001000C200E0501F5A9300EF66FF4C5D0
:1045B00000F0F4AF07D0001E002A00C0F4F52D0E65
:1045C000F66FF58F0150F4C5FAF5640EFB6F00012C
:1045D000C2DF00C0F4F5300E01240501F76FF4C509
:1045E000FAF50A0EFB6F0001B6DF300E002405015C
:1045F000F96F300E0124F86FF6C500F0F5A702D070
:10460000F5AFF595F5B90BD0F5AF22D0F5B520D0C3
:1046100000C0F7F5F5B31CD000C0F8F519D0300E86
:10462000F75D16E100C0F7F5200EF66FF5A704D090
:10463000F595F583F5AFF593300EF85D09E100C00F
:10464000F8F5200EF76FF5A7F7D7F593F5AFF591CD
:10465000F5A505D0F6C5FFF5000193DF0501F5A32B
:1046600005D0F7C5FFF500018CDF0501F5A104D0E9
:10467000F8C5FFF5000185DFF9C5FFF5000181DF11
:10468000000C0601176B1231166F163316331F0E0E
:1046900016171637173716371737163717371637CF
:1046A00017371637173716371737C00E1617115129
:1046B0001627000E172311513F080DE2160E16257E
:1046C000186F020E1721196F400E185D146F000E3F
:1046D0001959156F06D0160E1625146F000E1721E6
:1046E000156F135315E015C603F014C6E9FF15C680
:1046F000EAFF1251070B186F010E006E1851016E80
:1047000004E0D8900036012EFCD70050EF1215D0EF
:1047100015C603F014C6E9FF15C6EAFF1251070BD0
:10472000186F010E006E1851016E04E0D89000362B
:10473000012EFCD70050FF0AEF160001000C010EFD
:1047400006010A6F0B6F106B0151035D116F115160
:1047500011AF03D0000ED8801155036A086F03C053
:1047600009F60251045D116F115111AF03D0000E13
:10477000D8801155036A066F03C007F60151035D27
:1047800002E2FF0E0A6F0251045D02E2FF0E0B6FA0
:104790000751095D3BE303E10651085D37E3D8901B
:1047A000063707370851065D006E0951075900C0EA
:1047B0000CF60D6F08510C5D0E6F09510D590F6FFE
:1047C000095303E11051085D20E301C611F602C64A
:1047D00012F605C613F6000154DF06010DBF01D025
:1047E00008D006510C2707510D230A510125016FEE
:1047F0000AD00E510C270F510D230A510125016FCC
:104800000B510225026F102BDBD736D0D89008371A
:1048100009370651085D006E0751095900C00CF6B2
:104820000D6F06510C5D0E6F07510D590F6F075339
:1048300003E11051065D20E301C611F602C612F62F
:1048400005C613F600011DDF06010DBF01D008D01B
:1048500008510C2709510D230B510225026F0AD074
:104860000E510C270F510D230A510125016F0B51D9
:104870000225026F102BDBD70001000C0501FA5353
:1048800031E0F851F65D05E2F6C5FDF5F8C5FEF537
:1048900004D0F8C5FDF5F6C5FEF5F951F75D05E262
:1048A000F7C5FFF5F9C500F604D0F9C5FFF5F7C562
:1048B00000F6FD51FE5D15E3FFC5FCF5FC51060158
:1048C000005D0CE3FDC511F6FCC512F6FBC513F641
:1048D0000001D7DE0501FC2BF1D706010501FD2BF8
:1048E000E8D72ED0F6C501F6F7C502F6F8C503F6EF
:1048F000F7C504F6FBC505F6000121DFF6C501F694
:10490000F9C502F6F8C503F6F9C504F6FBC505F6C8
:1049100016DFF6C501F6F7C502F6F6C503F6F9C5CA
:1049200004F6FBC505F60BDFF8C501F6F7C502F680
:10493000F8C503F6F9C504F6FBC505F600DF050169
:104940000001000CF9C503F00501F8C5E9FFF9C540
:10495000EAFFEF52D8B4D5D0F9C503F0F8C5E9FFA6
:10496000F9C5EAFFEF50520828E3F9C503F0F8C58E
:10497000E9FFF9C5EAFF200EEF5C050DF350036A6D
:104980000601056F060EEA6EE96A096B05C608F6B0
:10499000F2CF06F6F29E050E016EF76A0551000190
:1049A0004BEC00F00A000900F5CFEEFF012EFBD71B
:1049B000060106BFF28E37D00501F9C503F0F8C530
:1049C000E9FFF9C5EAFFEF507E0827E3F9C503F0D8
:1049D000F8C5E9FFF9C5EAFF530EEF5C050DF3508A
:1049E000036A0601056F060EEA6EE96A096B05C6E1
:1049F00008F6F2CF06F6F29E050E016EF76A055133
:104A00000001D8EC00F00A000900F5CFEEFF012EFE
:104A1000FBD7060106BFF28E06D00601006B016BC4
:104A2000026B036B046BF9C503F00501F851E96EE5
:104A300003C0EAFFEF500A0A000103E0070A09E099
:104A40000BD00501FA51070DF350010FF72752D093
:104A500000010501F66B4ED00501FA51050DF3502A
:104A6000F6257F0806E2F66BFA51070DF350010FA9
:104A7000F727FC6BFC5104083DE3FD6BFD51060874
:104A800035E3036AFCC5E9FF060E0324EA6EEFCFA7
:104A900005F605C600F0FD51016E04E0D890003225
:104AA000012EFCD700A020D0FE6BFA51FE5D1CE267
:104AB000FF6BFA51FF5D16E2FF51F6250601056F07
:104AC0000501FD51FA03F350F725FE250601066F97
:104AD00005C611F6126FFBC513F60001D2DD050104
:104AE000FF2BE7D7FE2BE1D7FD2BC8D7FC2BFA51C4
:104AF000F627C0D7F82BD8B4F92BF62B000122D714
:104B000005010001000C050E04012B6FEB0E2A6F4E
:104B1000E7C5F4F51F0E0501F56F000143DD050142
:104B2000EA2D27D0120EE825F46F180EE925F56F4F
:104B3000E8C5F6F5E9C5F7F5F4C5F8F5F96F010E26
:104B4000FA6FFB6F00019ADE020E0501E825F46F93
:104B5000010EE925F56FF4C5F6F5F76F050EF96F4F
:104B6000EB0EF86F020EFA6FFB6B0001EBDE26D046
:104B70000501120EE825F46F180EE925F56FE8C55A
:104B8000F6F5E9C5F7F5F4C5F8F5F96FFA6BFB6BC7
:104B9000000174DE020E0501E825F46F010EE9251F
:104BA000F56FF4C5F6F5F76F050EF96FEB0EF86FBC
:104BB000020EFA6F010EFB6F0001C4DE000C05014E
:104BC000E5C501F0E6C503F0E5C5EBF5E6C5ECF596
:104BD000040EEA6E160EE96EE6C5E2FFE5C5E1FFDA
:104BE000E752E6CFEEFFFCE1E92D25D0EA51080DB2
:104BF000F350E825EB6FF66BE8C5F7F57F0EF86F1D
:104C0000EBC5F9F5010EFA6FFB6F000137DE010EFF
:104C10000501E725EB6F010EE825EC6FEBC5F6F516
:104C2000F76F040EF96F160EF86FEAC5FAF5FB6B15
:104C3000000188DE0501E95326E1EA51080DF35031
:104C4000E825EB6FF66BE8C5F7F57F0EF86FEBC55F
:104C5000F9F5010EFA6FFB6B000110DE010E050184
:104C6000E725EB6F010EE825EC6FEBC5F6F5F76F66
:104C7000040EF96F160EF86FEAC5FAF5010EFB6F18
:104C8000000160DE05010001000C04012EB74BD0CD
:104C900009C5E7F5140E0501E86F1E0EE96F010E58
:104CA000EA6F000130DF0AC5E7F5280E0501E86F5D
:104CB0001E0EE96FEA6B000126DF0BC5E7F53C0E1F
:104CC0000501E86F1E0EE96FEA6B00011CDF09C5E4
:104CD000E7F5500E0501E86F1E0EE96FEA6B000163
:104CE00012DF040EEA6E160EE96EF2CFE5F5F29EC3
:104CF000000E77EC07F00A000900F550EE6E00098F
:104D0000FBE10501E5BFF28E040EE66F160EE56FBE
:104D1000140EE76FE86B010EE96F030EEA6F0001F6
:104D20004EDF04012E87928A80BA6DD02D9FDC6BF6
:104D3000DB6B2CB167D02C81050E0501F16F0001F2
:104D40006EEC0AF0010E0501CD6FCD51040859E358
:104D5000CD510401C85D3AE1010E0501CD5D036A44
:104D6000090FE96E050E0320EA6EEF2A010ECD5DF4
:104D7000036A090FE96E050E0320EA6EEFBE0CD040
:104D8000EF50090809E2010ECD5D036A090FE96ED3
:104D9000050E0320EA6EEF6A010ECD5D036A090F6E
:104DA000E96E050E0320EA6EEFCFE5F5CD51140D47
:104DB000F3CFE6F5E5C5E7F5E6C5E8F51E0EE96FC4
:104DC000010EEA6F00019FDE19D00401010E0501FA
:104DD000CD5D036A090FE96E050E0320EA6EEFCF81
:104DE000E5F5CD51140DF3CFE6F5E5C5E7F5E6C5DC
:104DF000E8F51E0EE96FEA6B000185DE0501CD2B9B
:104E0000A4D7040101D02C91968084B06CD02D9F42
:104E1000DC6BDB6B2CB566D02C85050E0501F16FC4
:104E200000016EEC0AF0010E0501CD6FCD510408B2
:104E300058E3CD510401C85D39E1010E0501CD5D96
:104E4000036A090FE96E050E0320EA6EEF06010EF4
:104E5000CD5D036A090FE96E050E0320EA6EEFBE11
:104E600001D00AD0010ECD5D036A090FE96E050E6F
:104E70000320EA6E090EEF6E010ECD5D036A090F85
:104E8000E96E050E0320EA6EEFCFE5F5CD51140D66
:104E9000F3CFE6F5E5C5E7F5E6C5E8F51E0EE96FE3
:104EA000010EEA6F00012FDE19D00401010E050189
:104EB000CD5D036A090FE96E050E0320EA6EEFCFA0
:104EC000E5F5CD51140DF3CFE6F5E5C5E7F5E6C5FB
:104ED000E8F51E0EE96FEA6B000115DE0501CD2B2A
:104EE000A5D7040101D02C95968284B250D02D9F75
:104EF000DC6BDB6B2CB34AD02C83050E0501F16F04
:104F000000016EEC0AF00401C82B010E0501CD6F03
:104F1000CD5104083AE3CD510401C85D1BE1010EF7
:104F20000501CD5D036A090FE96E050E0320EA6EE7
:104F3000EFCFE5F5CD51140DF3CFE6F5E5C5E7F577
:104F4000E6C5E8F51E0EE96F010EEA6F0001DBDD34
:104F500019D00401010E0501CD5D036A090FE96E48
:104F6000050E0320EA6EEFCFE5F5CD51140DF3CF1A
:104F7000E6F5E5C5E7F5E6C5E8F51E0EE96FEA6B6F
:104F80000001C1DD0501CD2BC3D7040101D02C9355
:104F9000968484B424D0640E0501F16F00016EEC98
:104FA0000AF0968484B41AD0DEC5C7F40501E56B17
:104FB0000001DEEC0AF004012E97010EC96FC86FE4
:104FC0000501096B0A6B0B6B0C6BE56B0001DEECEA
:104FD0000AF00BEC0BF0010E016EC5D10401C851B3
:104FE0000408D8B0C1D10501E56B0001DEEC0AF080
:104FF000010E0401C86F2D9FDC6BDB6B05010951AD
:105000000308D8A479D00A510808D8A475D00B5148
:10501000090872E10C5102086FE1DF536DE1AA6AE1
:10502000A96AA86AA69CA69EA684F250006EF29E6B
:105030000F01550EA76EAA0EA76EA682A6B2FED7C6
:10504000A6940050F212140E0501F16F00016EECEF
:105050000AF0AA6A010EA96EA86AA69CA69EA6845A
:10506000F250006EF29E0F01550EA76EAA0EA76EAB
:10507000A682A6B2FED7A6940050F212140E050125
:10508000F16F00016EEC0AF0AA6A020EA96EA86A1E
:10509000A69CA69EA684F250006EF29E0F01550EAD
:1050A000A76EAA0EA76EA682A6B2FED7A69400503F
:1050B000F212140E0501F16F00016EEC0AF0AA6AFB
:1050C000030EA96EA86AA69CA69EA684F250006E46
:1050D000F29E0F01550EA76EAA0EA76EA682A6B26B
:1050E000FED7A6940050F212140E0501F16F0001D4
:1050F0006EEC0AF0FF000501E151095DD8A470D003
:10510000E2510A5D6DE1E3510B5D6AE1E4510C5D32
:1051100067E1E56B0001DEEC0AF0040EEA6E160EA4
:10512000E96EF2CFE5F5F29E000E77EC07F00A008B
:105130000900F550EE6E0009FBE10501E5BFF28EB6
:10514000040EE66F160EE56F1E0EE76FE86BE96B57
:10515000020EEA6F000133DD040EEA6E160EE96EF0
:10516000F2CFE5F5F29E000E87EC07F00A00090089
:10517000F550EE6E0009FBE10501E5BFF28E040E6D
:10518000E66F160EE56F0F0EE76F1E0EE86FE96B08
:10519000020EEA6F000113DDE0C5C7F40BEC0BF063
:1051A000040E0501E56FFA0EF16F00016EEC0AF0D6
:1051B0000501E52FF8D7E56B0001DEEC0AF00501EB
:1051C000096B0A6B0B6B0C6BDF5302E104012D8B37
:1051D00004012E97010E016E0001C5D0C4D0050157
:1051E000E56B0001DEEC0AF0040EEA6E160EE96EC5
:1051F000F2CFE5F5F29E000E77EC07F00A00090009
:10520000F550EE6E0009FBE10501E5BFF28E040EDC
:10521000E66F160EE56F1E0EE76FE86BE96B020E88
:10522000EA6F0001CCDC040EEA6E160EE96EF2CFD6
:10523000E5F5F29E000E99EC07F00A000900F55022
:10524000EE6E0009FBE10501E5BFF28E040EE66F8C
:10525000160EE56FE76B1E0EE86FE96B020EEA6F44
:105260000001ADDC010E0401C86F00010BEC0BF076
:10527000040E0501E56FFA0EF16F00016EEC0AF005
:105280000501E52FF8D7096B0A6B0B6B0C6BE56B0F
:105290000001DEEC0AF00501F66BF76B7F0EF86F8C
:1052A000190EF96F010EFA6FFB6F00013EEC24F04E
:1052B000040EEA6E160EE96EF2CFE5F5F29E000ED0
:1052C00077EC07F00A000900F550EE6E0009FBE1EB
:1052D0000501E5BFF28E190EF66F010EF76F040E91
:1052E000F96F160EF86F030EFA6FFB6B0001A2EC5C
:1052F00024F009C5E7F5140E0501E86F1E0EE96FED
:10530000010EEA6F000183EC25F00AC5E7F5280ECF
:105310000501E86F1E0EE96FEA6B000183EC25F0D2
:105320000BC5E7F53C0E0501E86F1E0EE96FEA6B51
:10533000000183EC25F009C5E7F5500E0501E86F83
:105340001E0EE96FEA6B000183EC25F0DEC5C7F4A1
:105350000501E56B0001DEEC0AF004012E97000E5A
:10536000016E000100D004010001000C050E0401D3
:105370002B6FE20E2A6FDDC5F4F51F0E0501F56FE8
:105380000001D2EC22F00501E02D2CD0E151060DF8
:10539000F350DE25EB6FE151080DF350DF25EC6F84
:1053A000DEC5F6F5DFC5F7F5EBC5F8F5F96F010ECB
:1053B000FA6FFB6F00013EEC24F0020E0501DE25C2
:1053C000EB6F010EDF25EC6FEBC5F6F5F76F050E01
:1053D000F96FE20EF86FE1C5FAF5FB6B0001A2EC84
:1053E00024F00501E0532DE1E151060DF350DE25D7
:1053F000EB6FE151080DF350DF25EC6FDEC5F6F5DC
:10540000DFC5F7F5EBC5F8F5F96F010EFA6FFB6B29
:1054100000013EEC24F0020E0501DE25EB6F010ECB
:10542000DF25EC6FEBC5F6F5F76F050EF96FE20EB1
:10543000F86FE1C5FAF5010EFB6F0001A2EC24F054
:1054400005010001000C0501E151E303F3CF01F078
:10545000F4CF00F0E403F3500026E251E303F350ED
:105460000020026E0001000C0501DD51030853E12C
:10547000DE6BDE513F084FE3DF6BDF510F0849E37E
:10548000070EE06FE051800A7F0841E2E26BDEC563
:10549000E1F5E46B100EE36F0001D5DF02C0E2F529
:1054A00001C0E1F50501DF510124016E000E02206B
:1054B000036E0150F2CFE1F5F29E03C0F7FF000149
:1054C00053EC01F00501E1BFF28EE16F070ED880C9
:1054D000E055E26FE1C500F0E251016E04E0D890C2
:1054E0000032012EFCD700A010D0DF51080DF35080
:1054F000E025E16FE8CF11F6DEC512F6010E0601D8
:10550000136F000141EC23F00501E007BBD7DF2B4F
:10551000B4D7DE2BAED7DD51040853E1DE6BDE518C
:105520003F084FE3DF6BDF510F0849E3070EE06FE1
:10553000E051800A7F0841E2E26BDEC5E1F5E46BF1
:10554000100EE36F00017FDF02C0E2F501C0E1F55C
:105550000501DF510124016E000E0220036E01508F
:10556000F2CFE1F5F29E03C0F7FF00015FEC03F01C
:105570000501E1BFF28EE16F070ED880E055E26FC2
:10558000E1C500F0E251016E04E0D8900032012E36
:10559000FCD700A010D0DF51080DF350E025E16FDB
:1055A000E8CF11F6DEC512F6010E0601136F0001F9
:1055B00041EC23F00501E007BBD7DF2BB4D7DE2B8E
:1055C000AED7DD51050853E1DE6BDE513F084FE3F6
:1055D000DF6BDF510F0849E3070EE06FE051800AEF
:1055E0007F0841E2E26BDEC5E1F5E46B100EE36F8C
:1055F000000129DF02C0E2F501C0E1F50501DF513C
:105600000124016E000E0220036E0150F2CFE1F57D
:10561000F29E03C0F7FF00016BEC05F00501E1BF4E
:10562000F28EE16F070ED880E055E26FE1C500F021
:10563000E251016E04E0D8900032012EFCD700A0A8
:1056400010D0DF51080DF350E025E16FE8CF11F6DF
:10565000DEC512F6010E0601136F000141EC23F0C6
:105660000501E007BBD7DF2BB4D7DE2BAED7000197
:10567000000C0501FF51B608FF6F036A00C603F670
:105680000601008FD8900033013302330332023217
:10569000013200320501FF2F01D002D00601F2D7FE
:1056A000060103AF0BD0001E011E021E031E002ABE
:1056B000D8B4012AD8B4022AD8B4032A0001D0EF02
:1056C0002BF0006A016A026A036A0601076B086B25
:1056D000096B0A6B06510511041103112EE0200E0F
:1056E0000B6FD8900501FF370601003701370237ED
:1056F0000737083709370A3706510A5D08E10551AF
:10570000095D05E10451085D02E10351075D0FE306
:105710000351075F0451D8A0043D085F0551D8A08C
:10572000053D095F0651D8A0063D0A5FD8800036C6
:105730000136023603360B2FD4D7060EEA6E070E5B
:10574000E96E0001000CE9500501F76FF651F96FA1
:105750001DE0F5C513F6F4C512F6F3C511F6F2C552
:1057600010F60601176B166B200E156F820E146F64
:105770000001B6EC16F003C0F5F502C0F4F501C067
:10578000F3F500C0F2F50501F92FE3D7F5C502F6F0
:10579000F4C501F6F3C500F6F2C5FFF5000169D7BF
:1057A00003C0F5F502C0F4F501C0F3F500C0F2F551
:1057B0000501F5AF0DD0F707F78BF21FF31FF41FAC
:1057C000F51FF22BD8B4F32BD8B4F42BD8B4F52BA7
:1057D0003B0EFE6F9A0EFD6FCA0EFC6FFB6B0A0E3E
:1057E000F96FF651D8B4F72BF5C502F6F4C501F6FA
:1057F000F3C500F6F2C5FFF5FEC506F6FDC505F6D4
:10580000FCC504F6FBC503F600015BDF0150EFCFDA
:10581000F2F5ECCFF3F5ECCFF4F5ECCFF5F5005263
:1058200013E10501F629F95DD8A402D000010CD0DE
:10583000F7510DE00F0BF95D01E043E2F7BF41D0F6
:10584000F7BD05D0200E37D0200E0501F717F7ABB6
:105850000FD0F79BF651D8A4F7070050F76F2D0E25
:10586000FF6F0001C1EC22F00501F751006EF76BEC
:10587000F651F95D0DE10050F76F2E0EFF6F00013C
:10588000C1EC22F00501F751006E200EF717000E53
:10589000300EF7AB10D0F79BF651D8A4F7070050A5
:1058A000F76F2D0EFF6F0001C1EC22F00501F751DB
:1058B000006EF76B300E002600C0FFF50001C1EC52
:1058C00022F0FEC502F6FDC501F6FCC500F6FBC5DB
:1058D000FFF50601066B056B046B0A0E036F0001F2
:1058E000F0DE03C0FEF502C0FDF501C0FCF500C00E
:1058F000FBF50501F92F78D7000192EF2CF0050E8A
:1059000004012B6FE90E2A6F010EE96EE4C5F5F56F
:10591000E3C5F4F5E2C5F3F5E1C5F2F50501F66B73
:10592000000111D7B00E0501FF6F0001C1EC22F09C
:10593000430E0501FF6F0001C1EC22F00501E72DC8
:105940002CD0E851140DF350E525F26FE851080D05
:10595000F350E625F36FE5C5F6F5E6C5F7F5F2C5B4
:10596000F8F5F96F010EFA6FFB6F00013EEC24F0C1
:10597000020E0501E525F26F010EE625F36FF2C573
:10598000F6F5F76F050EF96FE90EF86FE8C5FAF551
:10599000FB6B0001A2EC24F00501E7532DE1E85177
:1059A000140DF350E525F26FE851080DF350E6258C
:1059B000F36FE5C5F6F5E6C5F7F5F2C5F8F5F96F4D
:1059C000010EFA6FFB6B00013EEC24F0020E0501A4
:1059D000E525F26F010EE625F36FF2C5F6F5F76FD8
:1059E000050EF96FE90EF86FE8C5FAF5010EFB6FC9
:1059F0000001A2EC24F005010001000CF86AD09E21
:105A0000078EEA6AE96A04012C912C932C952C9755
:105A10002C992C9B2C9D2C9F2D912D932D952D9762
:105A20002D992D9B2D9D2D9F2E912E932E952E974A
:105A3000C80EC76F010EC86FC96F0A0ECA6FCB6B55
:105A4000CC6BCD6BCE6BCF6BD06BD16BD26BD36B82
:105A5000D46FD66BD56BD86BD76BDA6BD96BDC6B2D
:105A6000DB6BDE6BDD6BE06BDF6BE26BE16BE46BE2
:105A7000E36BE66BE56BE86BE76BEA6BE96BEC6B92
:105A8000EB6B0501146B136B126B116B186B176BBF
:105A9000166B156B1C6B1B6B1A6B196B206B1F6BDA
:105AA0001E6B1D6B246B236B226B216B286B276B8A
:105AB000266B256B2C6B2B6B2A6B296B306B2F6B3A
:105AC0002E6B2D6B346B336B326B316B386B376BEA
:105AD000366B356B3C6B3B6B3A6B396B406B3F6B9A
:105AE0003E6B3D6B290E446FB60E436F200E426F26
:105AF0006E0E416FEE0E486F7D0E476FEE0E466FD5
:105B0000770E456FED0E4C6F470E4B6F6D0E4A6F63
:105B10007F0E496F1A0E506FD10E4F6F9C0E4E6F55
:105B2000860E4D6FB46BB36BB26BB16BB86BB76B6A
:105B3000500EB66F860EB56FBC6BBB6BBA6BB96B94
:105B4000C06BBF6BBE6BBD6BC46BC36BC26BC16BF9
:105B5000C86BC76BC66B800EC56FCA6BC96BCC6B4D
:105B6000CB6BCD6BCE6BCF6BD06B04012E992E9B84
:105B70000501D26BD16BD36BD46BD86BD76BD66B63
:105B8000D56BDC6BDB6BDA6BD96BC150C00B0F09CB
:105B9000C16E070EB46E04012A6B2B6B4A0E2F6F79
:105BA000500E306F200E316F490E326F6E0E336F14
:105BB000670E346F6C0E356F6F0E366F620E376F77
:105BC000610E386F6C0E396F3A6B430E3B6F610E8E
:105BD0003C6F620E3D6F690E3E6F6E0E3F6F610E41
:105BE000406F200E416F450E426F780E436F740E6A
:105BF000446F720E456F610E466F630E476F740EF1
:105C0000486F6F0E496F720E4A6F610E4B6F4C6B8F
:105C10003A0E4D6F4E6B550E4F6F560E506F516BC7
:105C2000530E526F690E536F6E0E546F200E556FE8
:105C3000440E566F750E576F630E586F740E596F82
:105C40006F0E5A6F730E5B6F5C6B540E5D6F690E57
:105C50005E6F650E5F6F6D0E606F700E616F6F0E21
:105C6000626F200E636F640E646F650E656F200EA9
:105C7000666F500E676F750E686F720E696F670EF4
:105C80006A6F610E6B6F6C6B560E6D6F650E6E6F8B
:105C90006C0E6F6F3A0E706F716B540E726F650EF3
:105CA000736F6D0E746F700E756F650E766F720E7A
:105CB000776F610E786F740E796F750E7A6F720E52
:105CC0007B6F610E7C6F7D6B460E7E6F610E7F6F0A
:105CD000620E806F720E816F690E826F630E836F2A
:105CE000610E846F3A0E856F320E866F300E876FAD
:105CF000380E886F2E0E896F300E8A6F8B6B410EB7
:105D00008C6F630E8D6F740E8E6F750E8F6F610EBC
:105D1000906F6C0E916F3A0E926F936B410E946F71
:105D20006A0E956F750E966F730E976F740E986F5F
:105D3000650E996F3A0E9A6F9B6B540E9C6F2E0EE8
:105D40009D6F200E9E6F460E9F6F690EA06F6C0EAA
:105D5000A16F740EA26F720EA36F6F0EA46F3A0E36
:105D6000A56FA66B460EA76F610EA86F620EA96F96
:105D7000720EAA6F690EAB6F630EAC6F610EAD6FE2
:105D80003A0EAE6F320EAF6F330EB06F350EB16F8D
:105D90002E0EB26F300EB36FB46B210EB56F460E80
:105DA000B66F690EB76F6C0EB86F740EB96F720E66
:105DB000BA6F6F0EBB6F200EBC6F530EBD6F610EBE
:105DC000BE6F740EBF6F750EC06F720EC16F610E25
:105DD000C26F640EC36F6F0EC46F210EC56FC66BAA
:105DE000ED6BEE6BEF6BF06B090EF16FF26BF36B1B
:105DF000F46BF56BF66BF76BF86BF96FFA6BFB6B8B
:105E0000FC6BFD6BFE6BFF6B0501006B016B026BA6
:105E1000036B046B056B066B076B086B096B0A6BF6
:105E20000B6B0C6B0D6B0E6B0F6B106B516B526B26
:105E3000536B546B556B566B576B586B596B5A6B56
:105E40005B6B5C6B5D6B5E6B5F6B606B616B626B06
:105E5000636B646B656B666B676B686B696B6A6BB6
:105E60006B6B6C6B6D6B6E6B6F6B706B716B726B66
:105E7000736B746B756B766B776B786B796B7A6B16
:105E80007B6B7C6B7D6B7E6B7F6B806B816B826BC6
:105E9000836B846B856B866B876B886B896B8A6B76
:105EA0008B6B8C6B8D6B8E6B8F6B906B916B926B26
:105EB000936B946B956B966B976B986B996B9A6BD6
:105EC0009B6B9C6B9D6B9E6B9F6BA06BA16BA26B86
:105ED000A36BA46BA56BA66BA76BA86BA96BAA6B36
:105EE000AB6BAC6BAD6BAE6BAF6BB06B040EDD6FC1
:105EF000FA0EF16F00016EEC0AF00501DD2FF8D704
:105F000004012E990501DD6B000182EC0AF0050108
:105F1000DC6BDB6B260EDA6F850ED96FD86BB00E9B
:105F2000D76F010ED66F8C0ED56F8B949494F28838
:105F3000F18CC150C00B0D09C16EC050C00B0209DD
:105F4000C06EC08EC280C00EF212DD6B000182EC0A
:105F50000AF08B949494010E0501DD6F000167EC4B
