:04000000ACEF0BF066
:08000800046ED8CF05F0E0CF33
:1000100006F00001E9CF0CF0EACF07F0E1CF08F0DD
:10002000E2CF09F0D9CF0AF0DACF0BF0F3CF12F01C
:10003000F4CF13F0FACF14F000C00EF001C00FF0AF
:1000400002C010F003C011F09DA02AEF00F09EB096
:100050005AEF00F00EC000F00FC001F010C002F027
:1000600011C003F00CC0E9FF07C0EAFF078E08C00B
:10007000E1FF09C0E2FF0AC0D9FF0BC0DAFF12C0DE
:10008000F3FF13C0F4FF14C0FAFF045006C0E0FFF2
:1000900005C0D8FF1000F2CF0DF0F29EF76AB00F46
:1000A000F66E000EF7220900F5500DBEF28E12001A
:1000B000280C0106150ECF6EA00ECE6E442AD8B4C1
:1000C000452A455203E14450C70850E2456A446A54
:1000D000272A3088438030822EAE03D0462AD8B4F7
:1000E000472A2EA213D02FA211D0242A24BE06D034
:1000F00024503B0803E2246A252A2F8E25BE06D011
:1001000025503B0803E2256A262A308030AC1BD0FC
:1001100028BE05D02850000802E2280614D021BECF
:1001200007D02150000804E221063B0E286E0BD0B8
:10013000309C8A8A939A140E166E010E3E6E8A883F
:1001400093982E822E8030AE11D02ABE05D02A5030
:10015000000802E22A060AD02CBE07D02C50000864
:1001600004E22C063B0E2A6E01D0FF009E902AEF7F
:1001700000F0416C61726D61202020202020202041
:1001800020204F464600416C61726D612020202086
:10019000202020202020204F4E0046696C74726F72
:1001A00020202020202020202020202020005669F0
:1001B00064612046696C74726F202020202020200A
:1001C000200043616D62696F20436F6E74726173CA
:1001D00065F1612020005469656D706F20646520B1
:1001E000507572676120202020005469656D706F22
:1001F00020506F73742D507572676120200020436A
:100200004142494E412020455854524143544F5297
:1002100041200000202044452048554D4F5320598F
:1002200020474153455320200000202020204A50E1
:1002300020494E474C4F42414C20202020200000B6
:10024000205245463A2050414E454C204A504345A5
:100250004831352000002020202020496E6772653B
:100260007365202020202020202000002020202036
:10027000436F6E7472617365F1612020202020202D
:10028000000020202020434C4156453D256925692A
:100290002569256920200000202020202020202002
:1002A000202020202020202020202000202020206E
:1002B00020436F6E7472617365F16120202020000D
:1002C000202020202020436F7272656374612020FB
:1002D000202020002020202020202020202020203E
:1002E00020202020202020002020202020436F6E6E
:1002F0007472617365F1612020202000202020208D
:1003000020496E636F727265637461202020200043
:1003100020202020202020202020202020202020DD
:10032000202020002D2D2D4D454E55205052494E58
:10033000434950414C2D2D2D00002020202020200D
:1003400020202020202020202020202020200000ED
:10035000202020202020202041637469766F2020F7
:100360002020202000002020202020202020416C60
:1003700061726D612020202020200000202020209C
:10038000202020202020202020202020202020206D
:10039000000020202020202020202020202020209D
:1003A0002020202020200000202020202020446524
:1003B0007361637469766F20202020200000202064
:1003C0002020202020416C61726D6120202020209F
:1003D000202000002020202020202020202020205D
:1003E0002020202020202020000020204475726141
:1003F00063696F6E2041637475616C20202000007A
:10040000205469656D706F3D20253032753A253076
:1004100032753A253032752000004445534143542B
:10042000495641523D204F7072696D61203E000077
:1004300020414354495641523D204F7072696D61CD
:10044000203E202000002052455345543D204F704F
:1004500072696D61205E20202020000020526573AB
:100460006574206465207469656D706F20002020BC
:10047000202020457869746F736F20202020200091
:1004800020202020566964612046696C74726F20B8
:100490002020202000002020202020202530332E66
:1004A000306620486F7261732020000020202020D9
:1004B0002020496E6772657365202020202020204F
:1004C000000020436F6E7472617365F161204163B7
:1004D0007475616C2020000020202020434C415680
:1004E000453D2569256925692569202000002020D2
:1004F00020202020202020202020202020202020FC
:10050000202000002020202020436F6E7472617331
:1005100065F16120202020200000202020202020C4
:10052000436F7272656374612020202020200000D8
:1005300020202020202020202020202020202020BB
:1005400020202020000020202020202020202020EB
:1005500020202020202020202020000020202020DB
:1005600020436F6E7472617365F16120202020203A
:1005700000002020202020496E636F727265637432
:10058000612020202020000020202020202020206A
:10059000202020202020202020202020000020209B
:1005A000202020496E67726573652020202020205E
:1005B000202000002020436F6E7472617365F1612A
:1005C000204E756576612020000020202020434CBD
:1005D0004156453D2569256925692569202000008A
:1005E000202020202020202020202020202020200B
:1005F0002020202000002020202020436F6E7472D5
:10060000617365F16120202020200000202020203F
:1006100020416C6D6163656E616461202020202043
:10062000000020202020202020202020202020200A
:100630002020202020200000202020202054696538
:100640006D706F2020646520202020202000202055
:10065000202020202050757267612020202020203B
:1006600020202000253032753A2530327520284D63
:100670003A53292020005469656D706F20416C6DDC
:100680006163656E61646F002020436F7272656301
:1006900074616D656E746520200020202020205438
:1006A00069656D706F202064652020202020200067
:1006B0002020202020506F73742D507572676120A8
:1006C000202020202000253032753A253032752038
:1006D000284D3A53292020005469656D706F2041E0
:1006E0006C6D6163656E61646F002020436F727290
:1006F000656374616D656E7465202000204A50202A
:100700004345474800004578743D202D2D2D0000BD
:10071000496E466C6F773D202D2D2D202020000046
:10072000466C756A6F3D2D2D2D20000046696C7456
:10073000726F3A4F4B2000004C757A3A204F4E2092
:1007400000004C757A3A4F46462000004D6F746F9A
:10075000723A204F4E2000004D6F746F723A4F4630
:100760004620000046696C74726F3A43414D0000A8
:1007700046696C74726F3A4F4B2000002020202095
:1007800021506F73742D50757267612120202020D5
:100790000000202020202020202020202020202099
:1007A0002020202020200000202020202020253074
:1007B00032753A253032752020002020202020502C
:1007C000726F6365736F202020202020000020209E
:1007D000202046696E616C697A61646F2020202058
:1007E00000002020204465736561206170616761AD
:1007F000722020202020000020202020206C61205A
:10080000636162696E61202020202020000020208A
:10081000203E2041636570746172202020202020DA
:10082000202000002020203C2043616E63656C6125
:1008300072202020202020200000202020202020A6
:100840002150757267612120202020202020000087
:100850002020202020202020202020202020202098
:10086000202020200000202020202020253032754C
:100870003A25303275202020000020202020202022
:10088000253032753A253032752020200000EA6A82
:100890005D0EE96EEF500EE00F0E016E006A002E45
:1008A000FED7012EFBD78F0E006E002EFED7000064
:1008B000EF2EF2D7000C5E38F00B006E0F0E831493
:1008C0000010836E080E006E002EFED78384DB0EB0
:1008D000006E002EFED700D08394000C8390020E91
:1008E0005D6ED5DF5BA083905BB08380080E006EE9
:1008F000002EFED78392080E006E002EFED7839442
:100900005C385D6E0F0E5D165DC05EF0D4DF5C502E
:100910000F0B5D6E5E6ECFDF000C000E956E839048
:10092000839283940F0E5D6EB2DF010E4A6E4A50C1
:10093000030808E3030E5E6EBEDF050E5D6EA7DFE3
:100940004A2AF5D7020E5E6EB6DF4A6A4A5003089D
:100950000FE3036A4A50F2CF4BF0F29E4BEC00F0EB
:100960004BBEF28E4B6E5B6A5C6EB8DF4A2AEED7E6
:10097000000C010E595CFC0F0FE2040FD4EF04F0E1
:10098000800E5A6E09D0C00E5A6E06D0940E5A6E62
:1009900003D0D40E5A6E00D0010E585C5A265B6A02
:1009A0005AC05CF09BDF000CF2CF0DF0F29EE82401
:1009B000F76AF736CD0FF66E090EF7220A00F550EA
:1009C000FA6E0800F5500DBEF28EF96E80098609A8
:1009D0008C099209F00E956E8382080E006E002E2F
:1009E000FED78384080E006E002EFED783380F0BCF
:1009F000596E8394080E006E002EFED78384630E1A
:100A0000006E002EFED700D083380F0B586E8394F3
:100A1000000E956E5938006EF00E001600505810FA
:100A2000016E000C5750F10802E1EE0E576E575060
:100A30000C0A05E0060A0DE0020A12E016D05B6A15
:100A4000010E5C6E4BDF010E496E020E5D6E1FDF04
:100A500012D0492A010E586E49C059F08ADF0BD0D6
:100A60005B6A100E5C6E3ADF06D0010E5B6E57C0FB
:100A70005CF034DF00D08390ADDF01507F0B486E17
:100A8000000CA96AA86AA69CA69EA684F250006ED5
:100A9000F29E0F01550EA76EAA0EA76EA682A6B2F1
:100AA000FED7A6940050F212140E5D6E0001EFDE28
:100AB000010EA96EA86AA69CA69EA684F250006E9E
:100AC000F29E0F01550EA76EAA0EA76EA682A6B2C1
:100AD000FED7A6940050F212140E5D6E0001D7DE10
:100AE000020EA96EA86AA69CA69EA684F250006E6D
:100AF000F29E0F01550EA76EAA0EA76EA682A6B291
:100B0000FED7A6940050F212140E5D6E0001BFDEF7
:100B1000030EA96EA86AA69CA69EA684F250006E3B
:100B2000F29E0F01550EA76EAA0EA76EA682A6B260
:100B3000FED7A6940050F212140E5D6E0001A7DEDF
:100B4000050EA96E010EA86EA69CA69EA684F25064
:100B5000006EF29E0F01550EA76EAA0EA76EA6821A
:100B6000A6B2FED7A6940050F212140E5D6E0001DC
:100B70008EDE140EA96E010EA86EA69CA69EA684FB
:100B8000F250006EF29E0F01550EA76EAA0EA76ED0
:100B9000A682A6B2FED7A6940050F212140E5D6E85
:100BA000000175DE150EA96EA86AA69CA69EA684F5
:100BB000F250006EF29E0F01550EA76EAA0EA76EA0
:100BC000A682A6B2FED7A6940050F212140E5D6E55
:100BD00000015DDE160EA96E010EA86EA69CA69EF3
:100BE000A684F250006EF29E0F01550EA76EAA0E5B
:100BF000A76EA682A6B2FED7A6940050F212140EDB
:100C00005D6E000144DE170EA96EA86AA69CA69E22
:100C1000A684F250006EF29E0F01550EA76EAA0E2A
:100C2000A76EA682A6B2FED7A6940050F212140EAA
:100C30005D6E00012CDE280EA96E3C0EA86EA69CEF
:100C4000A69EA684F250006EF29E0F01550EA76E6E
:100C5000AA0EA76EA682A6B2FED7A6940050F212E4
:100C6000140E5D6E000113DE460EA96EA86AA69CE6
:100C7000A69EA684F250006EF29E0F01550EA76E3E
:100C8000AA0EA76EA682A6B2FED7A6940050F212B4
:100C9000140E5D6E0001FBDD470EA96EA86AA69CCE
:100CA000A69EA684F250006EF29E0F01550EA76E0E
:100CB000AA0EA76EA682A6B2FED7A6940050F21284
:100CC000140E5D6E0001E3DD480EA96EA86AA69CB5
:100CD000A69EA684F250006EF29E0F01550EA76EDE
:100CE000AA0EA76EA682A6B2FED7A6940050F21254
:100CF000140E5D6E0001CBDD490EA96E010EA86ECB
:100D0000A69CA69EA684F250006EF29E0F01550E80
:100D1000A76EAA0EA76EA682A6B2FED7A694005012
:100D2000F212140E5D6E0001B2DD500EA96E270E98
:100D3000A86EA69CA69EA684F250006EF29E0F019D
:100D4000550EA76EAA0EA76EA682A6B2FED7A694CF
:100D50000050F212140E5D6E000199DD000C8E0E33
:100D6000006E4CC001F04BC002F0036A015209E171
:100D700002C001F0026A080E005E015202E1006A40
:100D800008D0D89001BE04D0023601360006F9D74B
:100D9000019E000C83901EDE01507F0B4A6E4AC0FC
:100DA00001F036EF0DF04A5203E18B92949202D09B
:100DB0008B829492000C0900F5520CE0F6CF4DF0B6
:100DC000F7CF4EF0F5CF57F02DDE4DC0F6FF4EC0F9
:100DD000F7FFF1D7000C0900F6CF4BF0F7CF4CF03E
:100DE000F5CF57F01FDE4BC0F6FF4CC0F7FF4A2E81
:100DF000F2D7000C5150016A505C03E250C000F081
:100E00000CD0006A080E526E503600365150005C0D
:100E1000D8B0006E0136522EF7D7000C200E4BA82A
:100E2000300E4C6E4AC000F04AAE07D0001E002AB9
:100E300000C04AF02D0E4C6E4B8E01504AC050F04F
:100E4000640E516ED7DF00C04AF0300E01244D6EA3
:100E50004AC050F00A0E516ECDDF300E00244F6EA6
:100E6000300E01244E6E4CC000F04BA602D04BAEAB
:100E70004B944BB80BD04BAE22D04BB420D000C01B
:100E80004DF04BB21CD000C04EF019D0300E4D5C6E
:100E900016E100C04DF0200E4C6E4BA604D04B94D2
:100EA0004B824BAE4B92300E4E5C09E100C04EF0CF
:100EB000200E4D6E4BA6F7D74B924BAE4B904BA4EA
:100EC00003D04CC057F0AEDD4BA203D04DC057F05D
:100ED000A9DD4BA003D04EC057F0A4DD4FC057F0A2
:100EE000A1DD000C2F962F982F9A2F9C4E0E356E59
:100EF000928A80AA12D0140E5D6EC9DC928A80AAF2
:100F00000BD02EB609D02F86550E356E2E86010ECB
:100F10003E6E1E0E5D6EBBDC01D02E96968284A2C4
:100F200012D0140E5D6EB3DC968284A20BD02EB864
:100F300009D02F88520E356E2E88010E3E6E1E0E81
:100F40005D6EA5DC01D02E98968084A012D0140E80
:100F50005D6E9DDC968084A00BD02EBA09D02F8ABE
:100F6000440E356E2E8A010E3E6E1E0E5D6E8FDCB7
:100F700001D02E9A968484A412D0140E5D6E87DC64
:100F8000968484A40BD02EBC09D02F8C4C0E356EC9
:100F90002E8C010E3E6E1E0E5D6E79DC01D02E9CF5
:100FA000000C4B2C18D02EB40AD0020E586E4CC038
:100FB00059F0DFDC720EF66E010EF76EFCDE2EA429
:100FC0000AD0020E586E4CC059F0D3DC860EF66E75
:100FD000010EF76EF0DE4B5002080AE1020E586E69
:100FE0004CC059F0C6DC9A0EF66E010EF76EE3DEC9
:100FF0004B5003080AE1020E586E4CC059F0B9DCA0
:10100000AE0EF66E010EF76ED6DE4B5004080AE106
:10101000020E586E4CC059F0ACDCC20EF66E010EDA
:10102000F76EC9DE4B5005080AE1020E586E4CC03F
:1010300059F09FDCD60EF66E010EF76EBCDE4B50FB
:1010400006080AE1020E586E4CC059F092DCEA0E16
:10105000F66E010EF76EAFDE000C01504AC050F084
:10106000640E516EC7DE00C04AF00150300E07E139
:101070004BA20CD04BB60AD04BB8200E03D04B96E7
:101080004B984B80012601C057F0CCDC4AC050F091
:101090000A0E516EAFDE00C04AF00150300E06E17C
:1010A0004BB608D04BA006D04BB8200E012601C08D
:1010B00057F0B8DC300E4A264AC057F0B3DC000CBB
:1010C0005750D8B471D0006E5B50D8B46DD00026A4
:1010D00004E3810E002668E204D07F0E005E64E324
:1010E00063E058C05FF05C505F1A588E5C8E5A50B7
:1010F0005E02F4CF61F059505D02F4CF03F0F3CFFC
:1011000060F05E02F3506127F4506023000E03226A
:101110005A505D02F3506127F4506023000E026ABA
:101120000322022258505E02F3506027F45003223B
:10113000000E022258505D02F3500326F4500222A2
:10114000000E016A01225A505C02F3506027F450ED
:101150000322000E0222012259505C02F3500326A2
:10116000F4500222000E012258505C02F350022675
:10117000F4500122002A01BE05D060370336023642
:1011800001360006000E60AF0AD0032A02220122B7
:10119000015005E1025003E1035001E1002A5FBE66
:1011A000018E5FAE019E04D0006A016A026A036A82
:1011B0004BEF09F05750B608576E036A58C05BF002
:1011C000588ED890583259325A3203320232013294
:1011D0000032572EF6D75BAE0BD0001E011E021E4A
:1011E000031E002AD8B4012AD8B4022AD8B4032A8C
:1011F0005EEF09F0006A016A026A036A5F6A606B67
:10120000616B626B5E505D105C105B102CE0200E19
:10121000636FD8905736583659365A365F3660372E
:10122000613762375E50625D08E15D50615D05E1E6
:101230005C50605D02E15B505F5C0FE35B505F5EA2
:101240005C50D8A05C3C605F5D50D8A05D3C615FA5
:101250005E50D8A05E3C625FD88000360136023610
:101260000336632FD6D7EA6A5F0EE96E000CE950A9
:101270004F6E4E50516E19E04DC05AF04CC059F0AF
:101280004BC058F04AC057F05E6A5D6A200E5C6E33
:10129000820E5B6E15D703C04DF002C04CF001C04A
:1012A0004BF000C04AF0512EE7D74DC05AF04CC069
:1012B00059F04BC058F04AC057F07CD703C04DF0EE
:1012C00002C04CF001C04BF000C04AF04DAE0DD052
:1012D0004F064F8A4A1E4B1E4C1E4D1E4A2AD8B43A
:1012E0004B2AD8B44C2AD8B44D2A3B0E566E9A0ECF
:1012F000556ECA0E546E536A0A0E516E4E50D8B4D3
:101300004F2A4DC05AF04CC059F04BC058F04AC05B
:1013100057F056C05EF055C05DF054C05CF053C04D
:101320005BF068DF0150EFCF4AF0ECCF4BF0ECCF31
:101330004CF0ECCF4DF000520FE14E28515C0CE028
:101340004F500CE00F0B515C01E03BE24FBE39D037
:101350004FBC04D0200E30D0200E4F164FAA0DD017
:101360004F9A4E50D8A44F0600504F6E2D0E576E18
:1013700012EC05F04F50006E4F6A4E50515C0BE17D
:1013800000504F6E2E0E576E12EC05F04F50006E4F
:10139000200E4F16000E300E4FAA0ED04F9A4E5010
:1013A000D8A44F0600504F6E2D0E576E12EC05F06C
:1013B0004F50006E4F6A300E002600C057F012ECFE
:1013C00005F056C05AF055C059F054C058F053C0FB
:1013D00057F05E6A5D6A5C6A0A0E5B6E0BDF03C0E3
:1013E00056F002C055F001C054F000C053F0512E29
:1013F00088D74FEF12F04CC053F05050531A53AEF1
:1014000005D0D894D8904CBED8802FD04CC053F083
:101410004FC054F04B50545E06E053AE26D0D85027
:10142000010AD86E22D050C054F04C50545E06E0F1
:1014300053AE1BD0D850010AD86E17D051C054F00B
:101440004D50545E06E053AE10D0D850010AD86E0D
:101450000CD052C054F04E50545E06E053AE05D04E
:10146000D850010AD86E01D0D890000C800ED8B2A6
:101470004F1A546A556A4BC053F04F50531A4A5092
:10148000D8B4DCD0526E006E4E50D8B4E0D0525E6C
:10149000D8B481D03DE34FC058F0588E50C057F0BB
:1014A00051C056F0556AD89058325732563255329C
:1014B000522EF8D753AE03D05480DDD054905290C2
:1014C0005488EA6A4D0EE96EE9D0549853BE0AD0AA
:1014D00052A013D05832573256325532002AD8B45F
:1014E000C5D00BD058BE0CD0D8905536563657368E
:1014F00058360006D8B4BAD0F5D7548C6BD0549C6B
:101500004BC053F04BAE02D0588EA9D0589EA7D0F6
:101510004EC052F04EC000F04A50525E4BC058F0E0
:10152000588E4CC057F04DC056F0556AD89058327E
:10153000573256325532522EF8D753AE03D054821A
:101540009AD054925290548AEA6A510EE96EA6D00B
:10155000549A53BE0AD052A013D058325732563242
:101560005532002AD8B482D00BD058BE0CD0D890B7
:1015700055365636573658360006D8B477D0F5D794
:10158000548E28D0549E4FC053F04FAE02D0588E88
:1015900066D0589E64D04FC058F0588E50C057F057
:1015A00051C056F053AE04D0589E548464D0549425
:1015B000556A5290EA6A4D0EE96E70D053BE1CD047
:1015C0004BC053F052A006D05832573256325532E3
:1015D000002A4CE055AE0BD0562A09E1572A07E104
:1015E000582A05E1583257325632002A3FE054BC9F
:1015F00086D754BEC7D71CD0800E581A58AE04D018
:101600003AD04FC053F00AD04BC053F0585206E1C5
:10161000575204E1565202E1006A21D058BE08D068
:10162000D8905536563657365836002EF7D71ED036
:1016300053AE02D0588E13D0589E11D04EC000F039
:101640004FC058F050C057F051C056F008D04AC0B3
:1016500000F04BC058F04CC057F04DC056F058C089
:1016600001F057C002F056C003F034D0006A016A9E
:10167000026A036A2FD0556A561E571E581E551E01
:10168000552A05E1562A03E1572A01E1582A54B0A8
:1016900015D754B256D754B48AD7B3D7EF5056267D
:1016A00005E3572A03E1582AD8B45280ED52EF508F
:1016B000572603E3582AD8B45280ED52EF50EFBEBC
:1016C00001D0800A5826D8B0528054B8FED654BAF9
:1016D0003FD774D7000C8E0E006E4A50005E4BC090
:1016E00002F04CC001F0028E005209E0D890025284
:1016F00002E1015204E002320132002EF7D74BAE74
:1017000005D0011E021E012AD8B4022AE8EF12F009
:101710008E0E006E4CC001F04BC002F0036A4CAE5E
:1017200005D0011E021E022A01E1012A015209E12F
:1017300002C001F0026A080E005E015202E1006A76
:101740000AD0D89001BE04D0023601360006F9D77F
:101750004CBE01D0019E000CF86AD09E078EEA6A4A
:10176000E96A640E166E070E176E020E186E0B0EE7
:10177000196E020E1A6E030E1B6E020E1C6E1D6E8B
:10178000040E1E6E0A0E1F6E010E206E216A226A62
:10179000236A246A256A266A276A286A296A2A6AC5
:1017A0002B6A2C6A2D6A2E902E922E942E962E98AD
:1017B0002E9A2E9C2E9E2F902F922F942F962F98FC
:1017C0002F9A2F9C2F9E30903092316A4E0E356E9C
:1017D0003E6A426A416A406A3F6A30963098309A5F
:1017E000309C309E4390456A446A476A466A486A1C
:1017F000C150C00B0F09C16E070EB46E3E0E326EA3
:10180000200E336E5E0E346E366A376A386A396A75
:101810003A6A3B6A3C6A3D6AC150C00B0B09C16E13
:10182000C090C082C094C08EC280956A8C6A308499
:10183000850ECD6E9D80000E0509CA6EFF0ECB6E23
:1018400094948B94969C0C0EBD6EB76AB66AC00ECB
:10185000F212BE6A8DEC04F00C0E576E12EC05F01D
:10186000F2CF4AF0F29E500EA96EA69CA69EA680CC
:10187000A8504ABEF28E270802E041EC05F0F2CFF4
:101880004AF0F29EA96AA69CA69EA680A8504ABECF
:10189000F28E3A6E140E5D6E47EC04F0F2CF4AF011
:1018A000F29E010EA96EA69CA69EA680A8504ABED6
:1018B000F28E3B6E140E5D6E47EC04F0F2CF4AF0F0
:1018C000F29E020EA96EA69CA69EA680A8504ABEB5
:1018D000F28E3C6E140E5D6E47EC04F0F2CF4AF0CF
:1018E000F29E030EA96EA69CA69EA680A8504ABE94
:1018F000F28E3D6E140E5D6E47EC04F0F2CF4AF0AE
:10190000F29E050EA96EA69CA69EA680A8504ABE71
:10191000F28E016E2E9401B02E84140E5D6E47EC93
:1019200004F0F2CF4AF0F29E140EA96EA69CA69E79
:10193000A680A8504ABEF28E216E140E5D6E47EC52
:1019400004F0F2CF4AF0F29E150EA96EA69CA69E58
:10195000A680A8504ABEF28E286E140E5D6E47EC2B
:1019600004F021C022F028C029F0F2CF4AF0F29E04
:10197000160EA96EA69CA69EA680A8504ABEF28E00
:101980002C6E140E5D6E47EC04F0F2CF4AF0F29E1E
:10199000170EA96EA69CA69EA680A8504ABEF28EDF
:1019A0002A6E2CC02DF02AC02BF0F2CF4AF0F29E06
:1019B000280EA96EA69CA69EA680A8504ABEF28EAE
:1019C0004C6A4B6EAFEC06F003C042F002C041F02F
:1019D00001C040F000C03FF0140E5D6E47EC04F013
:1019E000F2CF4AF0F29E460EA96EA69CA69EA68055
:1019F000A8504ABEF28E246E140E5D6E47EC04F0C1
:101A0000F2CF4AF0F29E470EA96EA69CA69EA68033
:101A1000A8504ABEF28E256E140E5D6E47EC04F09F
:101A2000F2CF4AF0F29E480EA96EA69CA69EA68012
:101A3000A8504ABEF28E266E140E5D6E47EC04F07E
:101A4000F2CF4AF0F29E490EA96EA69CA69EA680F1
:101A5000A8504ABEF28E016E2F9201B02F82C80E9E
:101A6000166E43A00AD04390CAEF06F04850015CBE
:101A700004E08DEC04F0010E3E6E1650C80867E1DC
:101A800030B662D0020E4A6EFA0E5D6E47EC04F07C
:101A90004A2EFAD7968284A257D0040E4A6EFA0EC6
:101AA0005D6E47EC04F04A2EFAD7968284A24CD0A1
:101AB0008DEC04F01FC04AF0D3EC06F0010E586E16
:101AC000596EB9EC04F0FE0EF66E010EF76EDBEC0B
:101AD00006F0010E586E020E596EB9EC04F0140EA9
:101AE000F66E020EF76EDBEC06F0010E586E030E7A
:101AF000596EB9EC04F02A0EF66E020EF76EDBECAE
:101B000006F0010E586E040E596EB9EC04F0400E4A
:101B1000F66E020EF76EDBEC06F0080E4A6EFA0E59
:101B20005D6E47EC04F04A2EFAD70C0E576E12EC9D
:101B300005F03086166A3094020E4A6EFA0E5D6E1B
:101B400047EC04F04A2EFAD7010E3E6E96D7165295
:101B5000D8A4A4D12E8EBE6A475203E146500F0886
:101B600005E20C0E576E12EC05F0FF003E2C50D033
:101B7000010E586E596EB9EC04F0560EF66E020E58
:101B8000F76EDBEC06F0010E586E020E596EB9ECE2
:101B900004F06C0EF66E020EF76EDBEC06F0010E32
:101BA000586E030E596EB9EC04F0820EF66E020EFA
:101BB000F76E0A0E4A6EEBEC06F036C04AF01F0EC6
:101BC0004B6E0EEC07F037C04AF01F0E4B6E0EEC5A
:101BD00007F038C04AF01F0E4B6E0EEC07F039C00C
:101BE0004AF01F0E4B6E0EEC07F0200E576E12ECF3
:101BF00005F0200E576E12EC05F019C058F0040ED7
:101C0000596EB9EC04F034C057F012EC05F03E6A9E
:101C100072EC07F03550550A07E0110A11E0160A78
:101C20001BE01E0A25E030D00B0E195C036A360F4C
:101C3000E96E000E0320EA6EEF2A476A466A24D056
:101C40000B0E195C036A360FE96E000E0320EA6E74
:101C5000EF06476A466A18D0192A1E0E5D6E47ECD9
:101C600004F00C0E576E12EC05F0476A466A0CD071
:101C700019061E0E5D6E47EC04F00C0E576E12EC4A
:101C800005F0476A466A00D03E2C07D10B0E195C5E
:101C9000036A360FE96E000E0320EA6EEFBE01D034
:101CA0000AD00B0E195C036A360FE96E000E032092
:101CB000EA6E090EEF6E0B0E195C036A360FE96EC1
:101CC000000E0320EA6EEFBE0CD0EF50090809E2C7
:101CD0000B0E195C036A360FE96E000E0320EA6EE4
:101CE000EF6A19BE03D019500A0802E30B0E196EF1
:101CF00019C058F0040E596EB9EC04F034C057F016
:101D000012EC05F019BEA9D019500E08D8B0A5D014
:101D1000365003080CE13750080809E1385009082B
:101D200006E13950020803E141EC05F0FF003A50AA
:101D3000365C5AE13B50375C57E13C50385C54E12B
:101D40003D50395C51E1010E586E596EB9EC04F00A
:101D5000980EF66E020EF76EDBEC06F0010E586E72
:101D6000020E596EB9EC04F0AC0EF66E020EF76E70
:101D7000DBEC06F0010E586E030E596EB9EC04F060
:101D8000C00EF66E020EF76EDBEC06F0010E586E1A
:101D9000040E596EB9EC04F0D40EF66E020EF76E16
:101DA000DBEC06F0C80E5D6E47EC04F08A8A939A6D
:101DB000640E5D6E47EC04F08DEC04F0640E5D6E15
:101DC00047EC04F0320E166E010E3E6E0B0E196ECD
:101DD0000C0E576E12EC05F02E9E2F90308C308832
:101DE000476A466A308A39D0010E586E596EB9EC8E
:101DF00004F0010E586E020E596EB9EC04F0E80EB4
:101E0000F66E020EF76EDBEC06F0010E586E030E56
:101E1000596EB9EC04F0FC0EF66E020EF76EDBECB8
:101E200006F0010E586E040E596EB9EC04F0100E57
:101E3000F66E030EF76EDBEC06F0010E3E6E020E40
:101E40004A6EFA0E5D6E47EC04F04A2EFAD70B0E7E
:101E5000196E0C0E576E12EC05F019BE1ED01950FB
:101E60000B081BE219BE03D019500D0816E3010E32
:101E7000195C4A6E586E040E596EB9EC04F033C00A
:101E800057F012EC05F019C058F0040E596EB9EC79
:101E900004F034C057F012EC05F059D6162CF4D0EB
:101EA00072EC07F03550550809E11C061A06010EC0
:101EB0001A241B6E1E0E5D6E47EC04F0355044086C
:101EC00009E11C2A1A2A010E1A5C1B6E1E0E5D6E99
:101ED00047EC04F01E50800A006E1C50800A005C23
:101EE00008E2312A1CC01EF0020E1E5C1D6E040E9C
:101EF0001A6E1C50800A006E1D50800A005C08E2B9
:101F000031061CC01DF0020E1D241E6E020E1A6E3C
:101F10001750800A006E1C50800A005C09E218C04D
:101F20001CF0020E1A6E316A1CC01DF01D241E6EBC
:101F30001C50800A006E1850800A005C0BE217C02B
:101F40001CF0040E1A6E175C316E1CC01EF0020EDF
:101F50001E5C1D6E31BE01D001D0316A3E2C73D0A3
:101F6000010E586E596EB9EC04F0240EF66E030E95
:101F7000F76EDBEC06F0010E31244A6E4B6E020E5A
:101F80004C6ED1EC07F0020E31244A6E4B6E030EFC
:101F90004C6ED1EC07F0030E31244A6E4B6E040EEA
:101FA0004C6ED1EC07F0010E586E1AC059F0B9EC26
:101FB00004F032C057F012EC05F01A50020814E198
:101FC000010E586E040E596EB9EC04F033C057F090
:101FD00012EC05F0010E586E030E596EB9EC04F0C8
:101FE00033C057F012EC05F01A50040814E1010E4A
:101FF000586E020E596EB9EC04F033C057F012EC73
:1020000005F0010E586E030E596EB9EC04F033C0A2
:1020100057F012EC05F01A50030814E1010E586E47
:10202000040E596EB9EC04F033C057F012EC05F011
:10203000010E586E020E596EB9EC04F033C057F021
:1020400012EC05F03E6A3550520811E11CC016F042
:10205000010E3E6E030E1A6E0C0E576E12EC05F05A
:102060001650060804E1366A376A386A396A35500C
:102070004C0809E1140E166E010E3E6E3E6E0C0EFB
:10208000576E12EC05F00AD716500208D8A497D064
:102090002E74010E166E316A2EA430D02E84010EDD
:1020A000586E596EB9EC04F03A0EF66E030EF76EE8
:1020B000DBEC06F0010E586E020E596EB9EC04F01E
:1020C000500EF66E030EF76EDBEC06F0010E586E46
:1020D000030E596EB9EC04F0660EF66E030EF76E41
:1020E000DBEC06F0010E586E040E596EB9EC04F0EC
:1020F0007C0EF66E030EF76EDBEC06F02EB430D0DD
:102100002E94010E586E596EB9EC04F0920EF66ED4
:10211000030EF76EDBEC06F0010E586E020E596EE0
:10212000B9EC04F0A80EF66E030EF76EDBEC06F0C9
:10213000010E586E030E596EB9EC04F0BE0EF66E29
:10214000030EF76EDBEC06F0010E586E040E596EAE
:10215000B9EC04F0D40EF66E030EF76EDBEC06F06D
:10216000000E2EB4010E4A6E050EA96E4AC0A8FFDD
:10217000A69CA69EA684F250006EF29E0F01550EFC
:10218000A76EAA0EA76EA682A6B2FED7A69400508E
:10219000F212010E166E3E6E040E4A6EFA0E5D6E5F
:1021A000000147EC04F04A2E01D002D00F01F6D70F
:1021B000020E1A6E1C6E0C0E576E12EC05F01650C5
:1021C0000308D8A43FD13E2C5FD0010E586E596E43
:1021D000B9EC04F03E6AEA0EF66E030EF76EDBEC25
:1021E00006F0010E586E020E596EB9EC04F0000EA6
:1021F000F66E040EF76E090E4A6EEBEC06F026C082
:102200004AF0010E4B6E2DEC08F03A0E576E12ECB0
:1022100005F025C04AF0010E4B6E2DEC08F03A0E89
:10222000576E12EC05F024C04AF0010E4B6E2DECF7
:1022300008F0200E576E12EC05F02FA20DD0010E03
:10224000586E030E596EB9EC04F01A0EF66E040EB9
:10225000F76EDBEC06F00CD0010E586E030E596ED3
:10226000B9EC04F0300EF66E040EF76EDBEC06F0FF
:10227000010E586E040E596EB9EC04F0460EF66E5F
:10228000040EF76EDBEC06F072EC07F03550550AE1
:1022900007E0070AD8B48AD01E0AD8B4BDD0D1D07E
:1022A000C80E5D6E47EC04F00C0E576E12EC05F094
:1022B000010E586E020E596EB9EC04F05C0EF66E0B
:1022C000040EF76EDBEC06F0010E586E030E596E2D
:1022D000B9EC04F06E0EF66E040EF76EDBEC06F051
:1022E000460EA96EA86AA69CA69EA684F250006E11
:1022F000F29E0F01550EA76EAA0EA76EA682A6B279
:10230000FED7A6940050F212140E5D6E000147EC49
:1023100004F0470EA96EA86AA69CA69EA684F25059
:10232000006EF29E0F01550EA76EAA0EA76EA68232
:10233000A6B2FED7A6940050F212140E5D6E0001F4
:1023400047EC04F0480EA96EA86AA69CA69EA68437
:10235000F250006EF29E0F01550EA76EAA0EA76EE8
:10236000A682A6B2FED7A6940050F212040E4A6EC0
:10237000AF0E5D6E000147EC04F04A2E01D002D092
:102380000F01F6D7246A256A266A1E0E5D6E47EC99
:1023900004F0010E166E316A020E1A6E1C6E010EEA
:1023A0003E6E0C0E576E12EC05F04BD02F72000EE5
:1023B0002FB2010E4A6E490EA96E4AC0A8FFA69C14
:1023C000A69EA684F250006EF29E0F01550EA76ED7
:1023D000AA0EA76EA682A6B2FED7A6940050F2124D
:1023E0002FA201D03080020E4A6EFA0E5D6E0001FF
:1023F00047EC04F04A2E01D002D00F01F6D7010EAF
:10240000166E316A020E1A6E1C6E010E3E6E0C0EB6
:10241000576E12EC05F015D0020E4A6EFA0E5D6E84
:1024200047EC04F04A2EFAD7010E166E316A020EFE
:102430001A6E1C6E010E3E6E0C0E576E12EC05F0FD
:1024400000D0BDD616500408D8A408D13E2C30D0F8
:10245000010E586E020E596EB9EC04F0800EF66E45
:10246000040EF76EDBEC06F0010E586E030E596E8B
:10247000B9EC04F0960EF66E040EF76E060E4A6E78
:10248000EBEC06F0420EE96E42C04DF041C04CF05C
:1024900040C04BF03FC04AF04E6A37EF09F0A20E41
:1024A000F66E040EF76E080E4A6EEBEC06F03E6A0E
:1024B00042C04EF041C04DF040C04CF03FC04BF028
:1024C000526A516A506A7F0E4F6EFBEC09F005E3C9
:1024D000426A416A406A7F0E3F6E4E6A4D6A7F0EC5
:1024E0004C6E860E4B6E42C052F041C051F040C05F
:1024F00050F03FC04FF0FBEC09F006E3426A416A3E
:102500007F0E406E860E3F6E72EC07F03550550A16
:1025100007E0110A22E0160A3DE01E0A72E09DD093
:10252000D89242C04DF041C04CF040C04BF03FC08B
:102530004AF0516A506A4F6A7F0E4E6E36EC0AF0CE
:1025400003C042F002C041F001C040F000C03FF0C3
:102550001E0E5D6E47EC04F080D0D88242C04DF074
:1025600041C04CF040C04BF03FC04AF0516A506A45
:102570004F6A7F0E4E6E36EC0AF003C042F002C086
:1025800041F001C040F000C03FF01E0E5D6E47EC10
:1025900004F063D0010E166E316A020E1A6E1C6EC4
:1025A0000B0E196E020E4A6EFA0E5D6E47EC04F0C9
:1025B0004A2EFAD70C0E576E12EC05F042C04DF0C1
:1025C00041C04CF040C04BF03FC04AF06BEF0BF005
:1025D00001C023F0280EA96E23C0A8FFA69CA69ECA
:1025E000A684F250006EF29E0F01550EA76EAA0E41
:1025F000A76EA682A6B2FED7A6940050F2120001E2
:102600002CD0010E166E316A020E1A6E1C6E0B0E65
:10261000196E020E4A6EFA0E5D6E47EC04F04A2EF9
:10262000FAD70C0E576E12EC05F0F2CF4AF0F29E7C
:10263000280EA96EA69CA69EA680A8504ABEF28E21
:102640004C6A4B6EAFEC06F003C042F002C041F0A2
:1026500001C040F000C03FF000D0F4D6165005088D
:10266000D8A4A7D13E2C50D0010E586E596EB9ECAB
:1026700004F0AC0EF66E040EF76EDBEC06F0010E05
:10268000586E020E596EB9EC04F0C20EF66E040ECE
:10269000F76EDBEC06F0010E586E030E596EB9ECC6
:1026A00004F0D80EF66E040EF76E0A0E4A6EEBECCE
:1026B00006F036C04AF01F0E4B6E0EEC07F037C026
:1026C0004AF01F0E4B6E0EEC07F038C04AF01F0E9A
:1026D0004B6E0EEC07F039C04AF01F0E4B6E0EEC3D
:1026E00007F0200E576E12EC05F0200E576E12EC1C
:1026F00005F019C058F0040E596EB9EC04F034C05E
:1027000057F012EC05F03E6A72EC07F03550550AAE
:1027100007E0110A13E0160A20E01E0A2CE039D067
:102720000B0E195C036A360FE96E000E0320EA6E89
:10273000EF2A1E0E5D6E47EC04F02BD00B0E195CD9
:10274000036A360FE96E000E0320EA6EEF062E8A4A
:102750001E0E5D6E47EC04F01CD0192A020E4A6E64
:10276000FA0E5D6E47EC04F04A2EFAD70C0E576E47
:1027700012EC05F00ED01906020E4A6EFA0E5D6ECE
:1027800047EC04F04A2EFAD70C0E576E12EC05F007
:1027900000D03E2C0DD10B0E195C036A360FE96E8A
:1027A000000E0320EA6EEFBE01D00AD00B0E195CBA
:1027B000036A360FE96E000E0320EA6E090EEF6E13
:1027C0000B0E195C036A360FE96E000E0320EA6EE9
:1027D000EFBE0CD0EF50090809E20B0E195C036A3A
:1027E000360FE96E000E0320EA6EEF6A19BE03D0C1
:1027F00019500A081CE3010E166E316E020E1A6E95
:10280000030E1B6E020E1C6E0B0E196E19C058F0D3
:10281000040E596EB9EC04F00C0E576E12EC05F074
:102820000B0E196E366A376A386A396A0AD019C0CF
:1028300058F0040E596EB9EC04F034C057F012ECA5
:1028400005F019BE95D019500E08D8B091D03A5065
:10285000365C4DE13B50375C4AE13C50385C47E127
:102860003D50395C44E1010E586E596EB9EC04F0EC
:10287000EE0EF66E040EF76EDBEC06F0010E586EEF
:10288000020E596EB9EC04F0040EF66E050EF76EEA
:10289000DBEC06F0010E586E030E596EB9EC04F035
:1028A0001A0EF66E050EF76EDBEC06F0010E586E92
:1028B000040E596EB9EC04F0300EF66E050EF76E8C
:1028C000DBEC06F0020E4A6EFA0E5D6E47EC04F089
:1028D0004A2EFAD7330E166E0B0E196E0C0E576E6B
:1028E00012EC05F0366A376A386A396A41D0010E4F
:1028F000586E596EB9EC04F0460EF66E050EF76E82
:10290000DBEC06F0010E586E020E596EB9EC04F0C5
:102910005C0EF66E050EF76EDBEC06F0010E586EDF
:10292000030E596EB9EC04F0720EF66E050EF76EDA
:10293000DBEC06F0010E586E040E596EB9EC04F093
:10294000880EF66E050EF76EDBEC06F0020E4A6E90
:10295000FA0E5D6E47EC04F04A2EFAD70B0E196E94
:102960000C0E576E12EC05F0366A376A386A396A0F
:1029700019BE1ED019500B081BE219BE03D0195006
:102980000D0816E3010E195C4A6E586E040E596E5E
:10299000B9EC04F033C057F012EC05F019C058F050
:1029A000040E596EB9EC04F034C057F012EC05F087
:1029B00055D616503308D8A4B7D13E2C50D0010EAE
:1029C000586E596EB9EC04F09E0EF66E050EF76E59
:1029D000DBEC06F0010E586E020E596EB9EC04F0F5
:1029E000B40EF66E050EF76EDBEC06F0010E586EB7
:1029F000030E596EB9EC04F0CA0EF66E050EF76EB2
:102A00000A0E4A6EEBEC06F036C04AF01F0E4B6E13
:102A10000EEC07F037C04AF01F0E4B6E0EEC07F0BD
:102A200038C04AF01F0E4B6E0EEC07F039C04AF06A
:102A30001F0E4B6E0EEC07F0200E576E12EC05F0D9
:102A4000200E576E12EC05F019C058F0040E596EA6
:102A5000B9EC04F034C057F012EC05F03E6A72ECA9
:102A600007F03550550A07E0110A13E0160A1FE077
:102A70001E0A27E030D00B0E195C036A360FE96E90
:102A8000000E0320EA6EEF2A1E0E5D6E47EC04F086
:102A900022D00B0E195C036A360FE96E000E03207C
:102AA000EA6EEF061E0E5D6E47EC04F014D0192A94
:102AB0001E0E5D6E47EC04F00C0E576E12EC05F026
:102AC0000AD019061E0E5D6E47EC04F00C0E576E10
:102AD00012EC05F000D03E2C26D10B0E195C036AD7
:102AE000360FE96E000E0320EA6EEFBE01D00AD069
:102AF0000B0E195C036A360FE96E000E0320EA6EB6
:102B0000090EEF6E0B0E195C036A360FE96E000EAC
:102B10000320EA6EEFBE0CD0EF50090809E20B0E5D
:102B2000195C036A360FE96E000E0320EA6EEF6A45
:102B300019BE03D019500A081BE3010E166E316E40
:102B4000020E1A6E030E1B6E020E1C6E0B0E196E19
:102B500019C058F0040E596EB9EC04F00C0E576E03
:102B600012EC05F00B0E196E366A376A386A396A4C
:102B700019C058F0040E596EB9EC04F034C057F087
:102B800012EC05F019BEB9D019500E08D8B0B5D066
:102B9000010E586E596EB9EC04F0E00EF66E050E9B
:102BA000F76EDBEC06F0010E586E020E596EB9ECB2
:102BB00004F0F60EF66E050EF76EDBEC06F0010E75
:102BC000586E030E596EB9EC04F00C0EF66E060E3C
:102BD000F76EDBEC06F0010E586E040E596EB9EC80
:102BE00004F0220EF66E060EF76EDBEC06F0A96A14
:102BF00036C0A8FFA69CA69EA684F250006EF29E48
:102C00000F01550EA76EAA0EA76EA682A6B2FED71A
:102C1000A6940050F212140E5D6E000147EC04F011
:102C2000010EA96E37C0A8FFA69CA69EA684F250EE
:102C3000006EF29E0F01550EA76EAA0EA76EA68219
:102C4000A6B2FED7A6940050F212140E5D6E0001DB
:102C500047EC04F0020EA96E38C0A8FFA69CA69E01
:102C6000A684F250006EF29E0F01550EA76EAA0EBA
:102C7000A76EA682A6B2FED7A6940050F212140E3A
:102C80005D6E000147EC04F0030EA96E39C0A8FF89
:102C9000A69CA69EA684F250006EF29E0F01550ED1
:102CA000A76EAA0EA76EA682A6B2FED7A694005063
:102CB000F212140E5D6E000147EC04F036C03AF0DB
:102CC00037C03BF038C03CF039C03DF0366A376A57
:102CD000386A396A020E4A6EFA0E5D6E47EC04F0ED
:102CE0004A2EFAD7010E166E020E1A6E1C6E0B0ECD
:102CF000196E0C0E576E12EC05F019BE14D0195057
:102D00000B0811E219BE03D019500D080CE3010E97
:102D1000195C4A6E586E040E596EB9EC04F033C05B
:102D200057F012EC05F045D616500608D8A420D16D
:102D30003E2C42D0010E586E596EB9EC04F0380E9C
:102D4000F66E060EF76EDBEC06F0010E586E020E04
:102D5000596EB9EC04F04E0EF66E060EF76EDBEC13
:102D600006F0060E586E030E596EB9EC04F022C040
:102D70004AF0010E4B6E2DEC08F03A0E576E12EC35
:102D800005F029C04AF0010E4B6E2DEC08F06D0ED7
:102D9000F66E060EF76E080E4A6EEBEC06F0060EA7
:102DA00020244A6E586E040E596EB9EC04F034C0FB
:102DB00057F012EC05F03E6A20BE03D02050000808
:102DC00002E3010E206E20BE05D02050030802E26F
:102DD000030E206E72EC07F03550550A07E0110A19
:102DE00021E0160A39E01E0A51E0C1D0202C0BD098
:102DF000222A22BE04D022503B0801E2226AC80ED9
:102E00005D6E47EC04F0205003080BE1292A29BE2F
:102E100004D029503B0801E2296AC80E5D6E47ECD8
:102E200004F0A5D0202C0AD0220622BE01D002D068
:102E30003B0E226EC80E5D6E47EC04F02050030876
:102E40000AE1290629BE01D002D03B0E296EC80E28
:102E50005D6E47EC04F08BD0202C03D0030E206E67
:102E600008D02050030803E1010E206E02D0030EAB
:102E7000206E020E4A6EC80E5D6E47EC04F04A2EBC
:102E8000FAD70C0E576E12EC05F071D0C80E5D6EBD
:102E900047EC04F00C0E576E12EC05F0010E586E64
:102EA000020E596EB9EC04F0760EF66E060EF76E51
:102EB000DBEC06F0010E586E030E596EB9EC04F00F
:102EC000880EF66E060EF76EDBEC06F0140EA96E99
:102ED00022C0A8FFA69CA69EA684F250006EF29E79
:102EE0000F01550EA76EAA0EA76EA682A6B2FED738
:102EF000A6940050F212140E5D6E000147EC04F02F
:102F0000150EA96E29C0A8FFA69CA69EA684F25005
:102F1000006EF29E0F01550EA76EAA0EA76EA68236
:102F2000A6B2FED7A6940050F212140E5D6E0001F8
:102F300047EC04F0366A376A386A396A22C021F0F1
:102F400029C028F0040E4A6EAF0E5D6E47EC04F007
:102F50004A2EFAD7010E166E020E1A6E1C6E010E64
:102F60003E6E316A0C0E576E12EC05F000D0DCD6C6
:102F700016500708D8A42CD13E2C50D0010E586E04
:102F8000596EB9EC04F09A0EF66E060EF76EDBEC95
:102F900006F0010E586E020E596EB9EC04F0B00E38
:102FA000F66E060EF76EDBEC06F0060E586E030E9C
:102FB000596EB9EC04F02DC04AF0010E4B6E2DECA9
:102FC00008F03A0E576E12EC05F02BC04AF0010ED5
:102FD0004B6E2DEC08F0CF0EF66E060EF76E080E57
:102FE0004A6EEBEC06F0060E20244A6E586E040E74
:102FF000596EB9EC04F034C057F012EC05F020BE65
:1030000003D02050000802E3010E206E20BE05D040
:103010002050030802E2030E206E3E6A72EC07F0B5
:103020003550550A07E0110A29E0160A49E01E0A40
:103030005EE0CDD0202C0FD02D2A2DBE04D02D50F7
:103040003B0801E22D6A020E4A6E960E5D6E47EC59
:1030500004F04A2EFAD7205003080FE12B2A2BBE8A
:1030600004D02B503B0801E22B6A020E4A6E960EEA
:103070005D6E47EC04F04A2EFAD7A9D0202C0ED072
:103080002D062DBE01D002D03B0E2D6E020E4A6ED3
:10309000960E5D6E47EC04F04A2EFAD720500308D6
:1030A0000EE12B062BBE01D002D03B0E2B6E020E82
:1030B0004A6E960E5D6E47EC04F04A2EFAD787D022
:1030C000202C03D0030E206E05D02050030802E10F
:1030D000010E206E020E4A6EFA0E5D6E47EC04F091
:1030E0004A2EFAD70C0E576E12EC05F070D0C80EAF
:1030F0005D6E47EC04F00C0E576E12EC05F0010EFD
:10310000586E020E596EB9EC04F0D80EF66E060E2B
:10311000F76EDBEC06F0010E586E030E596EB9EC3B
:1031200004F0EA0EF66E060EF76EDBEC06F0160EF5
:10313000A96E2DC0A8FFA69CA69EA684F250006E84
:10314000F29E0F01550EA76EAA0EA76EA682A6B21A
:10315000FED7A6940050F212140E5D6E000147ECEB
:1031600004F0170EA96E2BC0A8FFA69CA69EA684ED
:10317000F250006EF29E0F01550EA76EAA0EA76EBA
:10318000A682A6B2FED7A6940050F212140E5D6E6F
:10319000000147EC04F02DC02CF02BC02AF0040EE7
:1031A0004A6EAF0E5D6E47EC04F04A2EFAD71E0E43
:1031B0005D6E47EC04F0010E166E3E6E020E1A6E46
:1031C0001C6E316A0C0E576E12EC05F000D0D0D692
:1031D00016501408D8A4EDD03E2C7BD05B6A010EAB
:1031E0005C6E6EEC04F0010E586E596EB9EC04F092
:1031F000FC0EF66E060EF76EDBEC06F0010E586E56
:10320000020E596EB9EC04F0060EF66E070EF76E5C
:10321000DBEC06F0010E586E030E596EB9EC04F0AB
:10322000100EF66E070EF76EDBEC06F00B0E586E06
:10323000020E596EB9EC04F0200EF66E070EF76E12
:10324000DBEC06F00A0E586E010E596EB9EC04F074
:103250002C0EF66E070EF76EDBEC06F02EA00FD0EC
:103260008A889398010E586E040E596EB9EC04F0DA
:10327000380EF66E070EF76EDBEC06F00ED08A986D
:103280009398010E586E040E596EB9EC04F0420E7C
:10329000F66E070EF76EDBEC06F02EA20DD00A0ECE
:1032A000586E040E596EB9EC04F04C0EF66E070E13
:1032B000F76EDBEC06F00CD00A0E586E040E596E59
:1032C000B9EC04F0580EF66E070EF76EDBEC06F064
:1032D0003E6A2FA237D030A035D04C6A26C04BF0C2
:1032E0004BBE4C0688EC0BF042C04EF041C04DF096
:1032F00040C04CF03FC04BF003C052F002C051F050
:1033000001C050F000C04FF0FBEC09F001E20DE10C
:103310000A0E586E010E596EB9EC04F0640EF66E8A
:10332000070EF76EDBEC06F00CD00A0E586E010E9D
:10333000596EB9EC04F0700EF66E070EF76EDBEC0A
:1033400006F0309072EC07F03550440A07E0080AA6
:1033500007E0190A1AE0070A25E02BD02E7029D0C1
:103360002E722EA203D08A8A939A02D08A9A939AB6
:10337000640E5D6E47EC04F08DEC04F0640E5D6E3F
:1033800047EC04F0010E3E6E14D00C0E576E12EC9A
:1033900005F0010E166E316A020E1A6E1C6E0B0ECF
:1033A000196E07D00C0E576E12EC05F0280E166E33
:1033B00000D016501E08D8A4C2D03E2C18D0010E42
:1033C000586E596EB9EC04F07C0EF66E070EF76E6F
:1033D000DBEC06F0010E586E020E596EB9EC04F0EB
:1033E000920EF66E070EF76EDBEC06F03E6A30A822
:1033F000A5D08A989398010E586E030E596EB9ECB9
:1034000004F0A80EF66E070EF76E060E4A6EEBEC91
:1034100006F02CC04AF0010E4B6E2DEC08F03A0E6F
:10342000576E12EC05F02AC04AF0010E4B6E2DECDF
:1034300008F0200E576E12EC05F0200E576E12ECBD
:1034400005F02A52D8A479D02C5277E1460EA96E05
:1034500024C0A8FFA69CA69EA684F250006EF29EF1
:103460000F01550EA76EAA0EA76EA682A6B2FED7B2
:10347000A6940050F212140E5D6E000147EC04F0A9
:10348000470EA96E25C0A8FFA69CA69EA684F25052
:10349000006EF29E0F01550EA76EAA0EA76EA682B1
:1034A000A6B2FED7A6940050F212140E5D6E000173
:1034B00047EC04F0480EA96E26C0A8FFA69CA69E65
:1034C000A684F250006EF29E0F01550EA76EAA0E52
:1034D000A76EA682A6B2FED7A6940050F212140ED2
:1034E0005D6E000147EC04F00C0E576E12EC05F017
:1034F000010E586E020E596EB9EC04F0BA0EF66E5B
:10350000070EF76EDBEC06F0010E586E030E596ED7
:10351000B9EC04F0CE0EF66E070EF76EDBEC06F09B
:10352000080E4A6EFA0E5D6E47EC04F04A2EFAD78A
:103530000C0E576E12EC05F0FF0030983AD716507B
:10354000280860E13E2C30D0010E586E596EB9EC5F
:1035500004F0E20EF66E070EF76EDBEC06F0010EDD
:10356000586E020E596EB9EC04F0F80EF66E070EA6
:10357000F76EDBEC06F0010E586E030E596EB9ECD7
:1035800004F00E0EF66E080EF76EDBEC06F0010E80
:10359000586E040E596EB9EC04F0240EF66E080E47
:1035A000F76EDBEC06F03E6A72EC07F03550520A1B
:1035B00003E01E0A11E026D01E0E166E010E3E6EAE
:1035C0001FC04AF0D3EC06F08A9C939C0C0E576EF9
:1035D00012EC05F0308E16D0140E166E010E3E6EF3
:1035E000316A020E1A6E1C6E0B0E196E020E4A6EB6
:1035F000FA0E5D6E47EC04F04A2EFAD70C0E576EA9
:1036000012EC05F016503208D8A49BD03E2C46D0C0
:10361000010E586E596EB9EC04F03A0EF66E080EB3
:10362000F76EDBEC06F0010E586E020E596EB9EC27
:1036300004F0500EF66E080EF76EDBEC06F0010E8D
:10364000586E030E596EB9EC04F0660EF66E080E55
:10365000F76E060E4A6EEBEC06F021C04AF0010E42
:103660004B6E2DEC08F03A0E576E12EC05F028C0A8
:103670004AF0010E4B6E2DEC08F0200E576E12EC46
:1036800005F0200E576E12EC05F0200E576E12EC6E
:1036900005F03E6A8A8A939A8A98939830A82BD02C
:1036A000010E586E030E596EB9EC04F07A0EF66EE8
:1036B000080EF76E060E4A6EEBEC06F021C04AF0DB
:1036C000010E4B6E2DEC08F03A0E576E12EC05F021
:1036D00028C04AF0010E4B6E2DEC08F0200E576EFC
:1036E00012EC05F0200E576E12EC05F0200E576E0E
:1036F00012EC05F03098968484B404D0215220E175
:1037000028521EE1640E5D6E47EC04F0968484B48A
:1037100004D0215215E1285213E1309C8A8A939AF1
:103720008A8893982E822E80140E166E010E3E6E9D
:10373000020E4A6EFA0E5D6E47EC04F04A2EFAD77E
:1037400061D730A404D04A6AD3EC06F003001652C5
:1037500006E116501E0803E1165032083BE030A87F
:1037600038D04C6A26C04BF04BBE4C0688EC0BF0B0
:1037700042C04EF041C04DF040C04CF03FC04BF055
:1037800003C052F002C051F001C050F000C04FF031
:10379000FBEC09F001E216E11650140813E12EA427
:1037A00003D08A8C939C02D08A9C939C2F742FA464
:1037B00005D01FC04AF0D3EC06F003D04A6AD3EC20
:1037C00006F006D01FC04AF0D3EC06F08A9C939C0A
:1037D000309806D01FC04AF0D3EC06F08A9C939C28
:0637E00031EF0DF00300C3
:020000040030CA
:0E00000020CE1E1E008781000FC00FE00F40B3
:00000001FF
;PIC18F4550
;CRC=BDE8  CREATED="27-oct.-18 12:11"
