:100000003BEF04F0F76A140FF66E000EF7220900BA
:10001000F5501200280C01064C555A20424C414E16
:1000200043412020202020204F4646004C555A2096
:10003000424C414E4341202020202020204F4E00A2
:10004000455854524143544F522020202020202014
:100050004F464600455854524143544F52202020A9
:1000600020202020204F4E0043414D42494F204345
:100070004F4E54524153454E4120200020434142AF
:10008000494E412020455854524143544F5241203B
:100090000000202044452048554D4F53205920470B
:1000A0004153455320200000202020204A50204961
:1000B0004E474C4F42414C2020202020000020522F
:1000C00045463A2050414E454C204A504345483120
:1000D000352000002020202020496E67726573655E
:1000E0002020202020202020000020202020436FDE
:1000F0006E7472617365F161202020202020000061
:1001000020202020434C4156453D2569256925691D
:1001100025692020000020202020202020202020D1
:1001200020202020202020202000202020202043CC
:100130006F6E7472617365F16120202020002020B1
:1001400020202020436F727265637461202020207C
:1001500020002020202020202020202020202020BF
:100160002020202020002020202020436F6E747249
:10017000617365F16120202020002020202020498B
:100180006E636F72726563746120202020002020EE
:10019000202020202020202020202020202020205F
:1001A00020002D2D2D4D454E55205052494E43498E
:1001B00050414C2D2D2D00002020202020202020DB
:1001C000202020202020202020202020000020206F
:1001D00020202020456E63656E64696F20202020FA
:1001E0002020000020202020204C757A20426C61C5
:1001F0006E6361202020202000002020202020206D
:10020000202020202020202020202020202000002E
:1002100020202020202020202020202020202020DE
:10022000202020200000202020202020204170615C
:10023000676F202020202020202000002020202068
:100240004C757A2020426C616E6361202020202052
:1002500000002020202020202020202020202020DE
:1002600020202020202000002020202020202020CE
:1002700020202020202020202020202000002020BE
:1002800020202020456E63656E64696F2020202049
:1002900020200000202020202020457874726163F7
:1002A000746F722020202020000020202020202099
:1002B000202020202020202020202020202000007E
:1002C000202020202020202020202020202020202E
:1002D00020202020000020202020202020417061AC
:1002E000676F2020202020202020000020202020B8
:1002F00020457874726163746F7220202020202062
:10030000000020202020202020202020202020202D
:100310002020202020200000202020202020496EA6
:100320006772657365202020202020200000204374
:100330006F6E7472617365F1612041637475616CF5
:100340002020000020202020434C4156453D2569B7
:1003500025692569256920200000202020202020F3
:1003600020202020202020202020202020200000CD
:100370002020202020436F6E7472617365F161202C
:10038000202020200000202020202020436F727297
:100390006563746120202020202000002020202080
:1003A000202020202020202020202020202020204D
:1003B000000020202020202020202020202020207D
:1003C00020202020202000002020202020436F6EAD
:1003D0007472617365F161202020202000002020CC
:1003E000202020496E636F72726563746120202043
:1003F000202000002020202020202020202020203D
:100400002020202020202020000020202020204903
:100410006E67726573652020202020202020000058
:100420002020436F6E7472617365F161204E7565B3
:1004300076612020000020202020434C4156453D7D
:1004400025692569256925692020000020202020B4
:10045000202020202020202020202020202020209C
:1004600000002020202020436F6E7472617365F1BC
:1004700061202020202000002020202020416C6DC1
:100480006163656E616461202020202000002020CF
:10049000202020202020202020202020202020205C
:1004A00020200000EA6A230EE96EEF500EE0010EF4
:1004B000016E006A002EFED7012EFBD74A0E006E99
:1004C000002EFED700D0EF2EF2D7000C2938F00B0B
:1004D000006E0F0E81140010816E0000818000D02C
:1004E0008190000CF00E936E8184000081800000EA
:1004F00081380F0B296E81900000818000008138C7
:100500000F0B286E8190000E936E2938006EF00E4E
:10051000001600502810016E90EF02F08192E2D791
:1005200001C028F001BEFBD726A0819226B08182AF
:1005300000008194000081902738286E0F0E281645
:1005400028C029F0C3DF27500F0B286E296EBEDFAD
:10055000000C000E936E8192819481900F0E236E99
:10056000A1DF010E1C6E1C50030808E3030E296E68
:10057000ADDF050E236E96DF1C2AF5D7020E296E1D
:10058000A5DF1C6A1C5003080EE3036A1C50F2CF5F
:100590001DF0F29E37DD1DBEF28E1D6E266A276E9F
:1005A000BDDF1C2AEFD770EF04F0010E245CFC0FB6
:1005B0000FE2040FF0EF02F0800E256E09D0C00E9E
:1005C000256E06D0940E256E03D0D40E256E00D075
:1005D000010E235C2526266A25C027F09FDF000C2C
:1005E000E824F76AF736FB0FF66E050EF7220A00CD
:1005F000F550FA6E0800F550F96EB805BE05C40551
:10060000CA052250F10802E1EE0E226E22500C0AB9
:1006100005E0060A0DE0020A12E016D0266A010E75
:10062000276E7CDF010E046E020E236E3BDF12D0BC
:10063000042A010E236E04C024F0B7DF0BD0266A13
:10064000100E276E6BDF06D0010E266E22C027F03B
:1006500065DF00D0000C0900F5520CE0F6CF1FF06A
:10066000F7CF20F0F5CF22F0CCDF1FC0F6FF20C07F
:10067000F7FFF1D7000C0900F6CF1DF0F7CF1EF001
:10068000F5CF22F0BEDF1DC0F6FF1EC0F7FF1C2E07
:10069000F2D7000C2350016A225C03E222C000F072
:1006A0000CD0006A080E246E223600362350005CFF
:1006B000D8B0006E0136242EF7D7000C200E1DA8EE
:1006C000300E1E6E1CC000F01CAE07D0001E002AAB
:1006D00000C01CF02D0E1E6E1D8E01501CC022F09D
:1006E000640E236ED7DF00C01CF0300E01241F6E95
:1006F0001CC022F00A0E236ECDDF300E0024216EC6
:10070000300E0124206E1EC000F01DA602D01DAECA
:100710001D941DB80BD01DAE22D01DB420D000C03A
:100720001FF01DB21CD000C020F019D0300E1F5C8D
:1007300016E100C01FF0200E1E6E1DA604D01D94F1
:100740001D821DAE1D92300E205C09E100C020F01C
:10075000200E1F6E1DA6F7D71D921DAE1D901DA465
:1007600003D01EC022F04DDF1DA203D01FC022F017
:1007700048DF1DA003D020C022F043DF21C022F0BB
:1007800040DF000C1D2C18D00EB20AD0020E236ED2
:100790001EC024F00ADF180EF66E000EF76E5BDF47
:1007A0000EA20AD0020E236E1EC024F0FEDE2C0E16
:1007B000F66E000EF76E4FDF1D50020818E10EB402
:1007C0000AD0020E236E1EC024F0EFDE400EF66E3D
:1007D000000EF76E40DF0EA40AD0020E236E1EC07C
:1007E00024F0E3DE540EF66E000EF76E34DF1D507B
:1007F00003080AE1020E236E1EC024F0D6DE680E46
:10080000F66E000EF76E27DF000C1C5208E18C9686
:1008100095968C9895988C9A959A8C9495941C2C76
:1008200008D08C9695968C9895988C9A959A8C84ED
:1008300095941C50020808E18C9895988C9A959A8A
:100840008C9495948C8695961C50030808E18C9A9C
:10085000959A8C9495948C9695968C8895981C5026
:10086000040808E18C9695968C9895988C949594AC
:100870008C8A959A000CF86AD09EEA6AE96A056A41
:10088000050E066E020E076E0B0E086E020E096E46
:10089000030E0A6E020E0B6E0C6E040E0D6E0E90A1
:1008A0000E920E940E960E980E9A0E9C0F6A010EE2
:1008B000106EC150C00B0F09C16E070EB46E3E0E14
:1008C000116E200E126E5E0E136E146A156A166A91
:1008D000176A186A196A1A6A1B6A956A8C6A39D685
:1008E000010E236E246E61DE7C0EF66E000EF76E36
:1008F000B2DE010E236E020E246E57DE920EF66EED
:10090000000EF76EA8DE010E236E030E246E4DDE80
:10091000A80EF66E000EF76E9EDE010E236E040E1C
:10092000246E43DEBE0EF66E000EF76E94DE080EE9
:100930001C6EFA0E236EB6DD1C2EFBD70C0E226E3B
:1009400060DEF2CF1CF0F29EA96AA69CA69EA6804D
:10095000A8501CBEF28E186E140E236EA3DDF2CFCB
:100960001CF0F29E010EA96EA69CA69EA680A85021
:100970001CBEF28E196E140E236E94DDF2CF1CF0A5
:10098000F29E020EA96EA69CA69EA680A8501CBE32
:10099000F28E1A6E140E236E85DDF2CF1CF0F29EDD
:1009A000030EA96EA69CA69EA680A8501CBEF28E21
:1009B0001B6E140E236E76DD0552D8A4A8D1010E4D
:1009C000236E246EF2DDD40EF66E000EF76E43DE5B
:1009D000010E236E020E246EE8DDEA0EF66E000EA6
:1009E000F76E39DE010E236E030E246EDEDD000E7F
:1009F000F66E010EF76E0A0E1C6E3DDE14C01CF082
:100A00001F0E1D6E5BDE15C01CF01F0E1D6E56DE28
:100A100016C01CF01F0E1D6E51DE17C01CF01F0EFD
:100A20001D6E4CDE200E226EECDD200E226EE9DD06
:100A3000928080A010D00EB60DD00B0E085C036A19
:100A4000140FE96E000E0320EA6EEF2A0E861E0ECA
:100A5000236E28DD01D00E96928280A210D00EBAAD
:100A60000DD00B0E085C036A140FE96E000E032014
:100A7000EA6EEF060E8A1E0E236E14DD01D00E9A6A
:100A8000928480A40BD00EB808D00E88082A1E0EBF
:100A9000236E08DD0C0E226EB4DD01D00E98928616
:100AA00080A60BD00EBC08D00E8C08061E0E236E3E
:100AB000F9DC0C0E226EA5DD01D00E9C0B0E085C3D
:100AC000036A140FE96E000E0320EA6EEFBE01D038
:100AD0000AD00B0E085C036A140FE96E000E0320A7
:100AE000EA6E090EEF6E0B0E085C036A140FE96ED6
:100AF000000E0320EA6EEFBE0CD0EF50090809E2A9
:100B00000B0E085C036A140FE96E000E0320EA6EF8
:100B1000EF6A08500A0802E30B0E086E08C023F0C3
:100B2000040E246E42DD13C022F06BDD08500E0867
:100B3000D8B0DDD01450030869E11550080866E10B
:100B40001650090863E11750020860E1A96AA86A13
:100B5000A69CA69EA684F250006EF29E0F01550E32
:100B6000A76EAA0EA76EA682A6B2FED7A6940050C4
:100B7000F212140E236E000195DC010EA96EA86A14
:100B8000A69CA69EA684F250006EF29E0F01550E02
:100B9000A76EAA0EA76EA682A6B2FED7A694005094
:100BA000F212140E236E00017DDC020EA96EA86AFB
:100BB000A69CA69EA684F250006EF29E0F01550ED2
:100BC000A76EAA0EA76EA682A6B2FED7A694005064
:100BD000F212140E236E000165DC030EA96EA86AE2
:100BE000A69CA69EA684F250006EF29E0F01550EA2
:100BF000A76EAA0EA76EA682A6B2FED7A694005034
:100C0000F212140E236E00014DDCFF001850145C2C
:100C10003FE11950155C3CE11A50165C39E11B505C
:100C2000175C36E1010E236E246EBFDC160EF66EE5
:100C3000010EF76E10DD010E236E020E246EB5DC80
:100C40002A0EF66E010EF76E06DD010E236E030E00
:100C5000246EABDC3E0EF66E010EF76EFCDC010E70
:100C6000236E040E246EA1DC520EF66E010EF76E9A
:100C7000F2DC020E1C6EFA0E236E14DC1C2EFBD767
:100C8000010E056E0B0E086E0C0E226EBADC2FD014
:100C9000010E236E246E89DC010E236E020E246E7B
:100CA00084DC660EF66E010EF76ED5DC010E236E47
:100CB000030E246E7ADC7A0EF66E010EF76ECBDC34
:100CC000010E236E040E246E70DC8E0EF66E010E85
:100CD000F76EC1DC020E1C6EFA0E236E52EC02F0AF
:100CE0001C2EFAD70B0E086E0C0E226E8ADC0850F2
:100CF0000B080DE208500D080AE3010E085C1C6E9B
:100D0000236E040E246E51DC12C022F07ADC052C16
:100D10004ED0010E236E246E48DCA20EF66E010E3C
:100D2000F76E99DC0FBE01D001D00F6A010E0F24BF
:100D30001C6E1D6E030E1E6E25DD020E0F241C6E32
:100D40001D6E040E1E6E1EDD928680A60AD00EB6A3
:100D500007D0030E056E0E861E0E236E52EC02F0B7
:100D600001D00E96928280A20AD00EBA07D00E8AC7
:100D70001E0E236E52EC02F0020E056E01D00E9A8A
:100D8000928080A013D00EB810D0040E056E1E0EF7
:100D9000236E52EC02F00C0E226E33DC0550040878
:100DA00004E1146A156A166A176A01D00E98055094
:100DB000020875E1010E056E0F6A0E720EA22ED0AA
:100DC0000E828C829592010E236E246ED5EC02F079
:100DD000B80EF66E010EF76E3EDC010E236E020EAB
:100DE000246ED5EC02F0CE0EF66E010EF76E33DCFB
:100DF000010E236E030E246ED5EC02F0E40EF66EA7
:100E0000010EF76E28DC010E236E040E246ED5EC65
:100E100002F0FA0EF66E010EF76E1DDC0EB230D047
:100E20000E928C929592010E236E246ED5EC02F0F8
:100E3000100EF66E020EF76E0EDC010E236E020E21
:100E4000246ED5EC02F0260EF66E020EF76E03DC71
:100E5000010E236E030E246ED5EC02F03C0EF66EEE
:100E6000020EF76E2BEC03F0010E236E040E246EBF
:100E7000D5EC02F0520EF66E020EF76E2BEC03F07C
:100E8000020E1C6EFA0E236E52EC02F01C2EFAD7E4
:100E9000020E096E0B6E0C0E226E01EC03F0055073
:100EA0000308D8A47DD00E740E88010E056E0F6A5B
:100EB0000EA433D00E84010E1C6EA7DC010E236E2F
:100EC000246ED5EC02F0680EF66E020EF76E2BEC77
:100ED00003F0010E236E020E246ED5EC02F07E0E9E
:100EE000F66E020EF76E2BEC03F0010E236E030E6E
:100EF000246ED5EC02F0940EF66E020EF76E2BEC1B
:100F000003F0010E236E040E246ED5EC02F0AA0E3F
:100F1000F66E020EF76E2BEC03F00EB432D00E9488
:100F20001C6A73DC010E236E246ED5EC02F0C00E39
:100F3000F66E020EF76E2BEC03F0010E236E020E1E
:100F4000246ED5EC02F0D60EF66E020EF76E2BEC88
:100F500003F0010E236E030E246ED5EC02F0EC0EAE
:100F6000F66E020EF76E2BEC03F0010E236E040EEC
:100F7000246ED5EC02F0020EF66E030EF76E2BEC2B
:100F800003F0020E1C6EFA0E236E52EC02F01C2EC1
:100F9000FAD7020E096E0B6E0C0E226E01EC03F0F6
:100FA00005500408D8A474D1010E236E246ED5EC2C
:100FB00002F0180EF66E030EF76E2BEC03F0010E26
:100FC000236E020E246ED5EC02F02E0EF66E030E8A
:100FD000F76E2BEC03F0010E236E030E246ED5EC9E
:100FE00002F0440EF66E030EF76E0A0E1C6E3BEC1A
:100FF00003F014C01CF01F0E1D6E5EEC03F015C054
:101000001CF01F0E1D6E5EEC03F016C01CF01F0ED0
:101010001D6E5EEC03F017C01CF01F0E1D6E5EEC23
:1010200003F0200E226E01EC03F0200E226E01EC84
:1010300003F0928080A011D00EB60ED00B0E085C8B
:10104000036A140FE96E000E0320EA6EEF2A0E8683
:101050001E0E236E52EC02F001D00E96928280A2F8
:1010600011D00EBA0ED00B0E085C036A140FE96E95
:10107000000E0320EA6EEF060E8A1E0E236E52EC5F
:1010800002F001D00E9A928480A40DD00EB80AD03E
:101090000E88082A1E0E236E52EC02F00C0E226EF1
:1010A00001EC03F001D00E98928680A60DD00EBC04
:1010B0000AD00E8C08061E0E236E52EC02F00C0EA7
:1010C000226E01EC03F001D00E9C0B0E085C036A4B
:1010D000140FE96E000E0320EA6EEFBE01D00AD0B5
:1010E0000B0E085C036A140FE96E000E0320EA6E13
:1010F000090EEF6E0B0E085C036A140FE96E000E0A
:101100000320EA6EEFBE0CD0EF50090809E20B0E87
:10111000085C036A140FE96E000E0320EA6EEF6AA2
:1011200008500A0808E3010E056E0F6A020E096EE8
:101130000B6E0B0E086E08C023F0040E246ED5EC67
:1011400002F013C022F001EC03F008500E08D8B0F2
:101150008DD01850145C4DE11950155C4AE11A50BD
:10116000165C47E11B50175C44E1010E236E246EB0
:10117000D5EC02F05A0EF66E030EF76E2BEC03F070
:10118000010E236E020E246ED5EC02F0700EF66E88
:10119000030EF76E2BEC03F0010E236E030E246E8C
:1011A000D5EC02F0860EF66E030EF76E2BEC03F014
:1011B000010E236E040E246ED5EC02F09C0EF66E2A
:1011C000030EF76E2BEC03F0020E1C6EFA0E236E6C
:1011D00052EC02F01C2EFAD7330E056E0B0E086E81
:1011E0000C0E226E01EC03F0146A156A166A176A77
:1011F0003DD0010E236E246ED5EC02F0B20EF66ED9
:10120000030EF76E2BEC03F0010E236E020E246E1C
:10121000D5EC02F0C80EF66E030EF76E2BEC03F061
:10122000010E236E030E246ED5EC02F0DE0EF66E78
:10123000030EF76E2BEC03F0010E236E040E246EEA
:10124000D5EC02F0F40EF66E030EF76E2BEC03F005
:10125000020E1C6EFA0E236E52EC02F01C2EFAD710
:101260000B0E086E0C0E226E01EC03F008500B08FA
:101270000FE208500D080CE3010E085C1C6E236E93
:10128000040E246ED5EC02F012C022F001EC03F043
:1012900005503308D8A487D1010E236E246ED5ECF7
:1012A00002F00A0EF66E040EF76E2BEC03F0010E40
:1012B000236E020E246ED5EC02F0200EF66E040EA4
:1012C000F76E2BEC03F0010E236E030E246ED5ECAB
:1012D00002F0360EF66E040EF76E0A0E1C6E3BEC34
:1012E00003F014C01CF01F0E1D6E5EEC03F015C061
:1012F0001CF01F0E1D6E5EEC03F016C01CF01F0EDE
:101300001D6E5EEC03F017C01CF01F0E1D6E5EEC30
:1013100003F0200E226E01EC03F0200E226E01EC91
:1013200003F0928080A011D00EB60ED00B0E085C98
:10133000036A140FE96E000E0320EA6EEF2A0E8690
:101340001E0E236E52EC02F001D00E96928280A205
:1013500011D00EBA0ED00B0E085C036A140FE96EA2
:10136000000E0320EA6EEF060E8A1E0E236E52EC6C
:1013700002F001D00E9A928480A40DD00EB80AD04B
:101380000E88082A1E0E236E52EC02F00C0E226EFE
:1013900001EC03F001D00E98928680A60DD00EBC11
:1013A0000AD00E8C08061E0E236E52EC02F00C0EB4
:1013B000226E01EC03F001D00E9C0B0E085C036A58
:1013C000140FE96E000E0320EA6EEFBE01D00AD0C2
:1013D0000B0E085C036A140FE96E000E0320EA6E20
:1013E000090EEF6E0B0E085C036A140FE96E000E17
:1013F0000320EA6EEFBE0CD0EF50090809E20B0E95
:10140000085C036A140FE96E000E0320EA6EEF6AAF
:1014100008500A0804E3050E056E0B0E086E08C09E
:1014200023F0040E246ED5EC02F013C022F001EC80
:1014300003F008500E08D8B0A4D0010E236E246E1D
:10144000D5EC02F04C0EF66E040EF76E2BEC03F0AA
:10145000010E236E020E246ED5EC02F0620EF66EC3
:10146000040EF76E2BEC03F0010E236E030E246EB8
:10147000D5EC02F0780EF66E040EF76E2BEC03F04E
:10148000010E236E040E246ED5EC02F08E0EF66E65
:10149000040EF76E2BEC03F0A96A14C0A8FFA69CFB
:1014A000A69EA684F250006EF29E0F01550EA76E06
:1014B000AA0EA76EA682A6B2FED7A6940050F2127C
:1014C000140E236E000152EC02F0010EA96E15C03D
:1014D000A8FFA69CA69EA684F250006EF29E0F0165
:1014E000550EA76EAA0EA76EA682A6B2FED7A69428
:1014F0000050F212140E236E000152EC02F0020EA4
:10150000A96E16C0A8FFA69CA69EA684F250006EE7
:10151000F29E0F01550EA76EAA0EA76EA682A6B266
:10152000FED7A6940050F212140E236E000152EC66
:1015300002F0030EA96E17C0A8FFA69CA69EA68463
:10154000F250006EF29E0F01550EA76EAA0EA76E06
:10155000A682A6B2FED7A6940050F212140E236EF5
:10156000000152EC02F0020E1C6EFA0E236E52ECD9
:1015700002F01C2EFAD7010E056E0F6A020E096EDC
:101580000B6E08500B080FE208500D080CE3010E1B
:10159000085C1C6E236E040E246ED5EC02F012C0A3
:0C15A00022F001EC03F0DCEF04F003008B
:020000040030CA
:0E0000003FC03E1E000781000FC00FE00F4002
:00000001FF
;PIC18F4550
;CRC=D8CA  CREATED="27-jul-15 08:17"
