:0400000078EF2AF07B
:08000800046ED8CF05F0E0CF33
:1000100006F00001E9CF0CF0EACF07F0E1CF08F0DD
:10002000E2CF09F0D9CF0AF0DACF0BF0F3CF12F01C
:10003000F4CF13F0FACF14F000C00EF001C00FF0AF
:1000400002C010F003C011F09DA02AEF00F09EB096
:10005000ECEF04F00EC000F00FC001F010C002F091
:1000600011C003F00CC0E9FF07C0EAFF078E08C00B
:10007000E1FF09C0E2FF0AC0D9FF0BC0DAFF12C0DE
:10008000F3FF13C0F4FF14C0FAFF045006C0E0FFF2
:1000900005C0D8FF1000F2CF0DF0F29EF76AB00F46
:1000A000F66E000EF7220900F5500DBEF28E12001A
:1000B000280C0106202156616C6F7220416C6D6125
:1000C00063656E61646F20200000202020202020C6
:1000D0002020202020202020202020202020000060
:1000E00020202020436F7272656374616D656E74A9
:1000F00065212020000020202020202020202020FA
:10010000202020202020202020200000416C61722F
:100110006D61202020202020202020204F464600F6
:10012000416C61726D612020202020202020202041
:10013000204F4E0046696C74726F202020202020D2
:1001400020202020202020005469656D706F2046FB
:10015000696C74726F2020202020200043616D6242
:10016000696F20436F6E7472617365F161202000C6
:100170005469656D706F20646520507572676120E9
:10018000202020005469656D706F20506F73742DAE
:100190005075726761202000536572766963696FDC
:1001A0002020202020202020202020004D6F766558
:1001B000722056696472696F202020202020200060
:1001C0002020202020496E67726573652020202042
:1001D00020202020000020202020436F6E747261B8
:1001E0007365F161202020202020000020202020A5
:1001F000434C4156453D25752575257525752020AF
:10020000000020202020202020202020202020202E
:100210002020202020002020202020436F6E747298
:10022000617365F161202020200020202020202003
:10023000436F7272656374612020202020002020AB
:1002400020202020202020202020202020202020AE
:1002500020002020202020436F6E7472617365F1AE
:100260006120202020002020202020496E636F7212
:10027000726563746120202020002020202020202F
:1002800020202020202020202020202020002D2D74
:100290002D4D454E55205052494E434950414C2D0D
:1002A0002D2D000020204475726163696F6E20411E
:1002B000637475616C2020200000205469656D70A6
:1002C0006F3D20253032753A253032753A2530326F
:1002D00075200000444553414354495641523D2046
:1002E0004F7072696D61203E0000204143544956B1
:1002F00041523D204F7072696D61203E2020000008
:100300002052455345543D204F7072696D61205E07
:100310002020202000002052657365742064652031
:100320007469656D706F2000202020202045786959
:10033000746F736F202020202000205469656D7039
:100340006F2064652046696C74726F002020202045
:100350002020202530337520202000002020202060
:10036000202020202020202020202020202020208D
:100370000000202020202020202041637469766F17
:1003800020202020202000002020202020202020AD
:10039000416C61726D61202020202020000020200F
:1003A000202020202020202020202020202020204D
:1003B000202000002020202020202020202020207D
:1003C000202020202020202000002020202020206D
:1003D00044657361637469766F20202020200000DB
:1003E00020202020202020416C61726D612020207F
:1003F000202020200000202020202020202020203D
:10040000202020202020202020200000202020202C
:10041000204D65646961204D6F76696C2020202035
:10042000000020202020202020253032692020209C
:10043000000020205A65726F20506F696E7420434F
:100440006F6E666967200000496E466C6F773D20CD
:1004500025322E31662020286D2F732920005A4620
:100460003D25322E3066204144433D25322E3066F4
:100470000000204469666572656E6369613D2532DE
:100480002E306600204D414E542E2020563D253200
:100490002E306620200044616D703D25322E30667E
:1004A00025252020543D25322E3066200000494667
:1004B0003D2025322E3166286D2F73292044616D31
:1004C0003D25322E30660000416A75737465313DFA
:1004D0002025322E31662000204D4F444F20202011
:1004E00044616D703D25322E306625252000494639
:1004F0003D2025322E3166286D2F73292044616DF1
:100500003D25322E306600002020204D6F646F2084
:100510004D616E75616C2020000020202020536505
:100520006C656363696F6E61646F2020202000003A
:100530002020204D6F646F204175746F20202000B3
:100540002020202053656C656363696F6E61646F62
:100550002020202000002020204D6F646F20536554
:100560006D69202020002020416A75737465205633
:10057000616C6F7220202020000020202020205459
:1005800069656D706F202064652020202020200088
:1005900020202020202020507572676120202020FC
:1005A000202020202000253032753A253032752059
:1005B000284D3A53292020005469656D706F204101
:1005C0006C6D6163656E61646F002020436F7272B1
:1005D000656374616D656E746520200020202020A5
:1005E000205469656D706F202064652020202020D4
:1005F00020002020202020506F73742D50757267CA
:100600006120202020202000253032753A2530320C
:100610007520284D3A53292020005469656D706F6C
:1006200020416C6D6163656E61646F002020436FD3
:100630007272656374616D656E74652020002020A0
:10064000202021506F73742D507572676121202016
:1006500020200000202020202020202020202020DA
:1006600020202020202020200000202020202020CA
:10067000253032753A253032752020002020202088
:100680002050726F6365736F2020202020200000AF
:100690002020202046696E616C697A61646F202099
:1006A0002020000020202044657365612061706176
:1006B0006761722020202020000020202020206C54
:1006C0006120636162696E6120202020202000008B
:1006D0002020203E2041636570746172202020201C
:1006E0002020202000002020203C2043616E6365F4
:1006F0006C6172202020202020200000202020205B
:100700002020215075726761212020202020202088
:100710000000202020202020202020202020202019
:1007200020202020202000002020202020202530F4
:1007300032753A25303275202020000020202020FC
:1007400020496E67726573652020202020202020BC
:1007500000002020436F6E7472617365F161204E5A
:10076000756576612020000020202020434C4156F2
:10077000453D25692569256925692020000020203F
:100780002020202020202020202020202020202069
:10079000202000002020202020436F6E747261739F
:1007A00065F1612020202020000020202020204111
:1007B0006C6D6163656E6164612020202020000003
:1007C0002020202020202020202020202020202029
:1007D000202020200000202056656C6F6369646132
:1007E00064204D6F746F723D202000002020202077
:1007F00020202020256925252020202020202020A1
:100800000000202056616C6F7220616C6D61636521
:100810006E61646F20200000202020436F7272659B
:100820006374616D656E7465202020002020204D6A
:100830006F76657220202056696472696F202020CF
:1008400020002020202153756269656E646F21208D
:10085000202020002020202142616A616E646F21E7
:1008600020202020000020202021446574656E692E
:10087000646F2120202000003E4D65646961204D99
:100880006F76696C2020202020202020000020503E
:10089000756E746F204365726F2020202020202009
:1008A00020200000204D616E74656E696D69656E73
:1008B000746F20202020202000002053616C696488
:1008C0006120416E616C6F67612020202020000054
:1008D000204D65646961204D6F76696C2020202071
:1008E0002020202000003E50756E746F20436572FA
:1008F0006F2020202020202020200000204D616E2D
:1009000074656E696D69656E746F202020202020EB
:1009100000002053616C69646120416E616C6F67F7
:100920006120202020200000204D65646961204D59
:100930006F76696C2020202020202020000020508D
:10094000756E746F204365726F2020202020202058
:10095000202000003E4D616E74656E696D69656EA4
:10096000746F20202020202000002053616C6964D7
:100970006120416E616C6F676120202020200000A3
:10098000204D65646961204D6F76696C20202020C0
:100990002020202000002050756E746F2043657267
:1009A0006F2020202020202020200000204D616E7C
:1009B00074656E696D69656E746F2020202020203B
:1009C00000003E53616C69646120416E616C6F6729
:1009D0006120202020200000B10ECF6EE00ECE6EF0
:1009E000552AD8B4562A592AD8B45A2A58500A082F
:1009F00006E2FF0A03E15750B70801E2438243A031
:100A000003D0572AD8B4582A5A5203E15950C7087C
:100A100003E25A6A596A5480565203E15550C70896
:100A200033E2566A556A3A2A438E42A20DD043A455
:100A30000BD0372A37503C0802E1376A382A385041
:100A40003C0802E1386A392A54AA11D03B5202E02C
:100A50003B060DD0265204E026063B0E3B6E07D027
:100A6000549A140E1C6E8A8893984282428054AC29
:100A70000BD03D5202E03D0607D03F5204E03F0656
:100A80003B0E3D6E01D0FF009E902AEF00F0204308
:100A90004142494E412020455854524143544F52FF
:100AA00041200000202044452048554D4F532059F7
:100AB00020474153455320200000202020204A5049
:100AC00020494E474C4F42414C202020202000001E
:100AD000205245463A2050414E454C204A5043450D
:100AE0004831352000002020202020496E677265A3
:100AF000736520202020202020200000202020209E
:100B0000436F6E7472617365F16120202020202094
:100B1000000020202020434C4156453D2575257579
:100B200025752575202000004A5020434547480080
:100B30004578743A253033692525000054656D7079
:100B4000657261747572613A2025322E30662043D9
:100B5000000046696C74726F3A43414D000046696B
:100B60006C74726F3A4F4B20000046696C74726F60
:100B70003A2D2D2D00004C757A3A4F4E20004C75C1
:100B80007A3A4F46462000004D6F746F723A4F4ECE
:100B900020004D6F746F723A4F46462000002D2D95
:100BA0002D4D454E55205052494E434950414C2DF4
:100BB0002D2D0000010EEA6E210EE96EEF500EE0C1
:100BC000050E016E006A002EFED7012EFBD72E0EF9
:100BD000006E002EFED700D0EF2EF2D7000CBE6ABA
:100BE0008A9893988A9A939A8A9C939C8A9E939EB9
:100BF000000C0101065303E18B9E949E02D08B8E64
:100C0000949E0001000C01012239F00B006E0F0EC2
:100C100083140010836E080E006E002EFED78384AE
:100C2000490E006E002EFED783940001000C8390C5
:100C3000020E0101216F0001BDDF01011FA18390A0
:100C40001FB18380080E006E002EFED78392080E1F
:100C5000006E002EFED783942039216F0F0E2117CE
:100C600021C122F10001CFDF010120510F0B216FC3
:100C7000226F0001C8DF000C000E956E83908392F6
:100C800083940F0E0101216F000194DF010E010119
:100C9000066F065103080CE3030E226F0001B3DF59
:100CA000050E0101216F000185DF0101062BF1D73F
:100CB000020E226F0001A7DF0101066B0651030837
:100CC00013E3036A0651F2CF07F1F29E00014BECE9
:100CD00000F0010107BFF28E076F1F6B206F00014C
:100CE000A6DF0101062BEAD70001000C010E01016D
:100CF0001D5DFC0F15E2040F000199EF06F0800E58
:100D000001011E6F0DD0C00E01011E6F09D0940E9F
:100D100001011E6F05D0D40E01011E6F01D001012B
:100D2000010E1C5D1E271F6B1EC120F100017FDF1D
:100D3000000CF2CF0DF0F29EE824F76AF736570F59
:100D4000F66E0D0EF7220A00F550FA6E0800F55007
:100D50000DBEF28EF96EFE0C060D0E0D160D010184
:100D60001B51F10802E1EE0E1B6F1B510C0A000132
:100D700005E0060A11E0020A18E01ED001011F6B0F
:100D8000010E206F000153DF010E166E020E0101ED
:100D9000216F00010FDF18D0162A010E01011C6F10
:100DA00016C01DF10001A2DF0FD001011F6B100E54
:100DB000206F00013CDF08D0010E01011F6F1BC135
:100DC00020F1000134DF00D08390000CC150C00B33
:100DD0000D09C16EC090C082C094C08EC280850EC5
:100DE000CD6E9D80780E0609CA6EFF0ECB6E949470
:100DF0008B94969C0C0EBD6EB76AB66AC00EF2124A
:100E0000EEDE0101066B0001F4DE36DF0C0E01019F
:100E10001B6F0001A4DFB8EF2BF08E0E006E1DC11A
:100E200001F01CC102F0036A015209E102C001F0A5
:100E3000026A080E005E015202E1006A08D0D890F2
:100E400001BE04D0023601360006F9D7019E000C1F
:100E500001011B51D8B4A5D0276F1F51D8B4A1D020
:100E6000275F05E37F0E2727D8B09BD006D0810EE1
:100E7000275FD8A096D0D8B494D027C100F0016ADB
:100E8000026A036A266B1CC125F1258F1DC124F15E
:100E90001EC123F1190E276F2251235F0DE2010EAF
:100EA000245F0AE2255F08E2265F06E2262B252B57
:100EB000242B2251232728D02151245F12E2010E36
:100EC000255F0FE2265F0DE2262B252B21512427DB
:100ED0002251232719E3242B17E1252B15E1262B7B
:100EE00013D020518009255F0EE2010E265F0BE230
:100EF000262B20518009252721512427E9E3252B82
:100F0000E7E1262BE5D70380272F01D00BD0D8901F
:100F10002337243725372637D89003360236013653
:100F20002837BAD728A106D0D8900132023203322E
:100F3000283302D0000635E028BF1ED0D8902337D2
:100F40002437253726372251235F07E2010E245F1D
:100F500004E2255F02E2265F1AE32151245F05E2E5
:100F6000010E255F02E2265F12E320518009255F12
:100F700003E2010E265F0BE3032A09E1022A07E1DF
:100F8000012A05E1002A0DE00132023203321CC1C0
:100F900027F12051271B27AF02D0018E06D0019EDA
:100FA00004D0006A016A026A036A0001000C800E24
:100FB000D8A202D001011E1B0101236B246B1AC1B0
:100FC00022F11E51221B1951D8B4DFD0216F006EBF
:100FD0001D51D8B4E3D0215FD8B483D03EE31EC105
:100FE00027F1278F1FC126F120C125F1246BD8904E
:100FF0002733263325332433212FF8D722AF03D0CC
:101000002381E0D0239121912389010EEA6E1C0EE9
:10101000E96EEBD0239922BF0AD021A113D0273348
:10102000263325332433002AD8B4C7D00BD027BFAA
:101030000CD0D89024372537263727370006D8B468
:10104000BCD0F5D7238D6DD0239D1AC122F11AAFE4
:1010500002D0278FABD0279FA9D01DC121F11DC180
:1010600000F01951215F1AC127F1278F1BC126F10A
:101070001CC125F1246BD890273326332533243324
:10108000212FF8D722AF03D023839CD02393219123
:10109000238B010EEA6E200EE96EA7D0239B22BFA0
:1010A0000AD021A113D02733263325332433002A35
:1010B000D8B483D00BD027BF0CD0D8902437253795
:1010C000263727370006D8B478D0F5D7238F29D014
:1010D000239F1EC122F11EAF02D0278F67D0279F0A
:1010E00065D01EC127F1278F1FC126F120C125F130
:1010F00022AF04D0279F238565D02395246B2191AF
:10110000010EEA6E1C0EE96E70D022BF1CD01AC10F
:1011100022F121A106D02733263325332433002A98
:101120004CE024AF0BD0252B09E1262B07E1272B20
:1011300005E1273326332533002A3FE023BD84D73A
:1011400023BFC6D71CD0800E271B27AF04D03AD0B0
:101150001EC122F10AD01AC122F1275306E12653FB
:1011600004E1255302E1006A21D027BF08D0D890BE
:101170002437253726372737002EF7D71ED022AF42
:1011800002D0278F13D0279F11D01DC100F01EC1A0
:1011900027F11FC126F120C125F108D019C100F0A7
:1011A0001AC127F11BC126F11CC125F127C101F08D
:1011B00026C102F025C103F034D0006A016A026A38
:1011C000036A2FD0246B251F261F271F241F242BC3
:1011D00005E1252B03E1262B01E1272B23B112D7B3
:1011E00023B354D723B589D7B3D7EF50252705E3C9
:1011F000262B03E1272BD8B42181ED52EF5026276F
:1012000003E3272BD8B42181ED52EF50EFBE01D07C
:10121000800A2727D8B0218123B9FCD623BB3ED72B
:1012200074D70001000CF2CF06F1F29E640EA96E95
:10123000A69CA69EA680A850010106BFF28E4C6E09
:10124000140E216F0001B6DCF2CF06F1F29E650E9E
:10125000A96EA69CA69EA680A850010106BFF28E8C
:101260004D6E140E216F0001A5DCF2CF06F1F29E47
:10127000660EA96EA69CA69EA680A850010106BF78
:10128000F28E4E6E140E216F000194DCF2CF06F147
:10129000F29E670EA96EA69CA69EA680A85001018C
:1012A00006BFF28E4F6E140E216F000183DCF2CF69
:1012B00006F1F29E050EA96EA69CA69EA680A850D9
:1012C000010106BFF28E016E429401B04284140EF9
:1012D000216F00016FDCF2CF06F1F29E0A0EA96EBB
:1012E000A69CA69EA680A850010106BFF28E336E72
:1012F000140E216F00015EDCF2CF06F1F29E0B0EA0
:10130000A96EA69CA69EA680A850010106BFF28EDB
:10131000326E140E216F00014DDCF2CF06F1F29E09
:101320000C0EA96EA69CA69EA680A850010106BF21
:10133000F28E346E140E216F00013CDCF2CF06F108
:10134000F29E0D0EA96EA69CA69EA680A850010135
:1013500006BFF28E356E140E216F00012BDC35C0F6
:101360002FF0F2CF06F1F29E140EA96EA69CA69E57
:10137000A680A850010106BFF28E266E140E216FC2
:10138000000118DCF2CF06F1F29E150EA96EA69CA4
:10139000A69EA680A850010106BFF28E3B6E140ED9
:1013A000216F000107DCF2CF06F1F29E160EA96E46
:1013B000A69CA69EA680A850010106BFF28E3F6E95
:1013C000140E216F0001DAEC05F0F2CF06F1F29E67
:1013D000170EA96EA69CA69EA680A850010106BF66
:1013E000F28E3D6E140E216F0001DAEC05F0F2CFA3
:1013F00006F1F29E190EA96EA69CA69EA680A85084
:10140000010106BFF28E286E140E216F0001DAEC86
:1014100005F0F2CF06F1F29E1A0EA96EA69CA69ECA
:10142000A680A850010106BFF28E1D6B1C6F000143
:10143000F4DC03C088F002C087F001C086F000C071
:1014400085F0140E0101216F0001DAEC05F088C06F
:101450001EF187C01DF186C01CF185C01BF1010182
:10146000226B216B200E206F820E1F6F0001F0DCBB
:1014700003C088F002C087F001C086F000C085F08C
:1014800001011D6B28C01CF10001C7DCD89203C00C
:101490001CF102C01BF101C01AF100C019F188C093
:1014A00020F187C01FF186C01EF185C01DF17FDDD0
:1014B00003C09CF002C09BF001C09AF000C099F0FC
:1014C000F2CF06F1F29E280EA96EA69CA69EA680DB
:1014D000A850010106BFF28E286E140E216F000184
:1014E000DAEC05F0F2CF06F1F29E290EA96EA69C69
:1014F000A69EA680A850010106BFF28E1D6B1C6F30
:1015000000018BDC03C088F002C087F001C086F0C8
:1015100000C085F0140E0101216F0001DAEC05F026
:1015200088C01EF187C01DF186C01CF185C01BF16B
:101530000101226B216B200E206F820E1F6F0001B4
:1015400087DC03C088F002C087F001C086F000C0CD
:1015500085F028C041F0F2CF06F1F29E2A0EA96E66
:10156000A69CA69EA680A850010106BFF28E306EF2
:10157000140E216F0001DAEC05F0F2CF06F1F29EB5
:10158000320EA96EA69CA69EA680A850010106BF99
:10159000F28E316E140E216F0001DAEC05F0F2CFFD
:1015A00006F1F29E3C0EA96EA69CA69EA680A850AF
:1015B000010106BFF28E2A6E140E216F0001DAECD3
:1015C00005F0F2CF06F1F29E3D0EA96EA69CA69EF6
:1015D000A680A850010106BFF28E1D6B1C6F000192
:1015E0001CDC03C094F002C093F001C092F000C074
:1015F00091F0140E0101216F0001DAEC05F091C0A9
:101600001DF12AC01CF1000108DC03C098F002C0E3
:1016100097F001C096F000C095F0F2CF06F1F29E6F
:10162000460EA96EA69CA69EA680A850010106BFE4
:10163000F28E376E140E216F0001DAEC05F0F2CF56
:1016400006F1F29E470EA96EA69CA69EA680A85003
:10165000010106BFF28E386E140E216F0001DAEC24
:1016600005F0F2CF06F1F29E480EA96EA69CA69E4A
:10167000A680A850010106BFF28E396E140E216FAC
:101680000001DAEC05F0F2CF06F1F29E490EA96EE8
:10169000A69CA69EA680A850010106BFF28E016EF0
:1016A000439401B04384140E216F0001DAEC05F07D
:1016B000E5EF2BF008C10FF101010C510F1B0FAF2B
:1016C00005D0D894D89008BFD8802FD008C10FF18A
:1016D0000BC110F10751105F06E00FAF26D0D850B4
:1016E000010AD86E22D00CC110F10851105F06E03B
:1016F0000FAF1BD0D850010AD86E17D00DC110F112
:101700000951105F06E00FAF10D0D850010AD86E13
:101710000CD00EC110F10A51105F06E00FAF05D0DA
:10172000D850010AD86E01D0D8900001000C4CBEF0
:1017300003D04C50090803E34CBE01D01BD04C6AC7
:10174000640EA96EA86AA69CA69EA684F250006E9E
:10175000F29E0F01550EA76EAA0EA76EA682A6B224
:10176000FED7A6940050F212140E0101216F000161
:10177000DAEC05F04DBE03D04D50090803E34DBE31
:1017800001D01BD04D6A650EA96EA86AA69CA69EC4
:10179000A684F250006EF29E0F01550EA76EAA0E9F
:1017A000A76EA682A6B2FED7A6940050F212140E1F
:1017B0000101216F0001DAEC05F04EBE03D04E505E
:1017C000090803E34EBE01D01BD04E6A660EA96E17
:1017D000A86AA69CA69EA684F250006EF29E0F01F7
:1017E000550EA76EAA0EA76EA682A6B2FED7A69425
:1017F0000050F212140E0101216F0001DAEC05F025
:101800004FBE03D04F50090803E34FBE01D01BD099
:101810004F6A670EA96EA86AA69CA69EA684F2507F
:10182000006EF29E0F01550EA76EAA0EA76EA6823D
:10183000A6B2FED7A6940050F212140E0101216F39
:101840000001DAEC05F0000E42B4010E01081CE2C2
:101850004284050EA96E010EA86EA69CA69EA684C3
:10186000F250006EF29E0F01550EA76EAA0EA76EE3
:10187000A682A6B2FED7A6940050F212140E010161
:10188000216F0001DAEC05F0335014081DE2140E4C
:10189000336E0A0EA96E140EA86EA69CA69EA68490
:1018A000F250006EF29E0F01550EA76EAA0EA76EA3
:1018B000A682A6B2FED7A6940050F212140E010121
:1018C000216F0001DAEC05F0325014081DE20A0E17
:1018D000336E0B0EA96E0A0EA86EA69CA69EA68459
:1018E000F250006EF29E0F01550EA76EAA0EA76E63
:1018F000A682A6B2FED7A6940050F212140E0101E1
:10190000216F0001DAEC05F0345014081DE20A0ED4
:10191000346E0C0EA96E0A0EA86EA69CA69EA68416
:10192000F250006EF29E0F01550EA76EAA0EA76E22
:10193000A682A6B2FED7A6940050F212140E0101A0
:10194000216F0001DAEC05F026503B081DE2020E83
:10195000266E140EA96E020EA86EA69CA69EA684E4
:10196000F250006EF29E0F01550EA76EAA0EA76EE2
:10197000A682A6B2FED7A6940050F212140E010160
:10198000216F0001DAEC05F03B503B081BE23B6A9B
:10199000150EA96EA86AA69CA69EA684F250006E9B
:1019A000F29E0F01550EA76EAA0EA76EA682A6B2D2
:1019B000FED7A6940050F212140E0101216F00010F
:1019C000DAEC05F03F503B081DE2020E3F6E160EAA
:1019D000A96E020EA86EA69CA69EA684F250006E6A
:1019E000F29E0F01550EA76EAA0EA76EA682A6B292
:1019F000FED7A6940050F212140E0101216F0001CF
:101A0000DAEC05F03D503B081BE23D6A170EA96E6B
:101A1000A86AA69CA69EA684F250006EF29E0F01B4
:101A2000550EA76EAA0EA76EA682A6B2FED7A694E2
:101A30000050F212140E0101216F0001DAEC05F0E2
:101A400001010A6B096B200E086F830E076F9CC0A3
:101A50000EF19BC00DF19AC00CF199C00BF1000181
:101A600029DE3AE39C6B9B6B9A6B7F0E996F190E84
:101A7000A96E010EA86EA69CA69EA684F250006ECA
:101A8000F29E0F01550EA76EAA0EA76EA682A6B2F1
:101A9000FED7A6940050F212140E0101216F00012E
:101AA000DAEC05F01A0EA96EA86AA69CA69EA6847A
:101AB000F250006EF29E0F01550EA76EAA0EA76E91
:101AC000A682A6B2FED7A6940050F212140E01010F
:101AD000216F0001DAEC05F030500C081DE20A0E0F
:101AE000306E2A0EA96E0A0EA86EA69CA69EA6842B
:101AF000F250006EF29E0F01550EA76EAA0EA76E51
:101B0000A682A6B2FED7A6940050F212140E0101CE
:101B1000216F0001DAEC05F0315014081DE20A0EC5
:101B2000316E320EA96E0A0EA86EA69CA69EA684E1
:101B3000F250006EF29E0F01550EA76EAA0EA76E10
:101B4000A682A6B2FED7A6940050F212140E01018E
:101B5000216F0001DAEC05F001010A6B096B160E2A
:101B6000086F880E076F98C00EF197C00DF196C0F0
:101B70000CF195C00BF100019DDD38E3986B976B7C
:101B8000966B956B3C0EA96EA86AA69CA69EA68431
:101B9000F250006EF29E0F01550EA76EAA0EA76EB0
:101BA000A682A6B2FED7A6940050F212140E01012E
:101BB000216F0001DAEC05F03D0EA96EA86AA69C23
:101BC000A69EA684F250006EF29E0F01550EA76EDF
:101BD000AA0EA76EA682A6B2FED7A6940050F21255
:101BE000140E0101216F0001DAEC05F037503C08BA
:101BF0001BE2376A460EA96EA86AA69CA69EA6841A
:101C0000F250006EF29E0F01550EA76EAA0EA76E3F
:101C1000A682A6B2FED7A6940050F212140E0101BD
:101C2000216F0001DAEC05F038503C081BE2386AFD
:101C3000470EA96EA86AA69CA69EA684F250006EC6
:101C4000F29E0F01550EA76EAA0EA76EA682A6B22F
:101C5000FED7A6940050F212140E0101216F00016C
:101C6000DAEC05F039503C081BE2396A480EA96EDF
:101C7000A86AA69CA69EA684F250006EF29E0F0152
:101C8000550EA76EAA0EA76EA682A6B2FED7A69480
:101C90000050F212140E0101216F0001DAEC05F080
:101CA000000E43B4010E01081BE24394490EA96ED5
:101CB000A86AA69CA69EA684F250006EF29E0F0112
:101CC000550EA76EAA0EA76EA682A6B2FED7A69440
:101CD0000050F212140E0101216F0001DAEC05F040
:101CE00035500A0802E30B0E356E26C027F03BC0C4
:101CF0003CF03FC040F03DC03EF0E7EF2BF0090064
:101D0000F5520DE0F6CF0DF1F7CF0EF1F5CF1BF147
:101D1000AFEC06F00DC1F6FF0EC1F7FFF0D7000CD7
:101D20000900F6CF0FF1F7CF10F1F5CF1BF1AFECB3
:101D300006F00FC1F6FF10C1F7FF01010E2F01D011
:101D400002D00001EDD70001000C01011051016A21
:101D50000F5D03E20FC100F00CD0006A080E116F96
:101D60000F3700361051005CD8B0006E0136112FCD
:101D7000F7D70001000C01500DC10FF1640E0101F5
:101D8000106F0001E2DF00C00DF10150300E08E1DC
:101D900001010EA310D00EB70ED00EB9200E04D044
:101DA00001010E970E990E81012601C01BF1000161
:101DB000AFEC06F001010DC10FF10A0E106F00012A
:101DC000C4DF00C00DF10150300E08E101010EB773
:101DD0000BD00EA109D00EB9200E0001012601C0C2
:101DE0001BF1AFEC06F00101300E0D270DC11BF108
:101DF0000001AFEC06F0000C010E01011C6F1D6F1D
:101E0000000176EC06F0C00EF66E010EF76E77DF7D
:101E1000010E01011C6F020E1D6F000176EC06F031
:101E2000D60EF66E010EF76E6ADF010E01011C6F11
:101E3000030E1D6F000176EC06F0EC0EF66E010E3F
:101E4000F76E0A0E01010E6F00016ADF48C00DF146
:101E50001B0E01010E6F00018EDF49C00DF11B0E3C
:101E600001010E6F000187DF4AC00DF11B0E010159
:101E70000E6F000180DF4BC00DF11B0E01010E6FD4
:101E8000000179DF200E01011B6F0001AFEC06F0AD
:101E9000200E01011B6F0001AFEC06F0928A80BAA0
:101EA0001ED0140E0101216F0001DAEC05F0928AB8
:101EB00080BA14D042B812D00B0E1E5C036A480FD1
:101EC000E96E000E0320EA6EEF2A42881E0E010121
:101ED000216F0001DAEC05F0586A576A01D0429888
:101EE000968084B01CD0140E0101216F0001DAEC41
:101EF00005F0968084B012D00B0E1E5C036A480F6A
:101F0000E96E000E0320EA6EEF06428C1E0E010100
:101F1000216F0001DAEC05F0586A576A01D0429C43
:101F2000968284B21CD0140E0101216F0001DAECFC
:101F300005F0968284B212D042BA10D0428A1E2A8C
:101F40001E0E0101216F0001DAEC05F00C0E0101FB
:101F50001B6F0001AFEC06F0586A576A01D0429A35
:101F6000968484B41CD0140E0101216F0001DAECB8
:101F700005F0968484B412D042BE10D0428E1E0664
:101F80001E0E0101216F0001DAEC05F00C0E0101BB
:101F90001B6F0001AFEC06F0586A576A01D0429EF1
:101FA0000B0E1E5C036A480FE96E000E0320EA6EFA
:101FB000EFBE01D00AD00B0E1E5C036A480FE96E1B
:101FC000000E0320EA6E090EEF6E0B0E1E5C036A14
:101FD000480FE96E000E0320EA6EEFBE0CD0EF5002
:101FE000090809E20B0E1E5C036A480FE96E000E39
:101FF0000320EA6EEF6A1E500A080AE30B0E1E6EFB
:1020000007C11CF0446A020E1F6E216E0B0E1E6E7D
:102010001EC01CF1040E01011D6F000176EC06F0DC
:1020200047C01BF1AFEC06F01E500B0811E21E502A
:102030000D080EE3010E1E5C01010D6F1C6F040EF6
:102040001D6F000176EC06F046C01BF1AFEC06F008
:102050001E500E08D8B01AD148500308D8A479D021
:1020600049500808D8A475D04A50090872E14B506D
:1020700002086FE101010653D8B402D0000169D013
:10208000640EA96EA86AA69CA69EA684F250006E55
:10209000F29E0F01550EA76EAA0EA76EA682A6B2DB
:1020A000FED7A6940050F212140E0101216F000118
:1020B000DAEC05F0650EA96EA86AA69CA69EA68419
:1020C000F250006EF29E0F01550EA76EAA0EA76E7B
:1020D000A682A6B2FED7A6940050F212140E0101F9
:1020E000216F0001DAEC05F0660EA96EA86AA69CC5
:1020F000A69EA684F250006EF29E0F01550EA76EAA
:10210000AA0EA76EA682A6B2FED7A6940050F2121F
:10211000140E0101216F0001DAEC05F0670EA96EC3
:10212000A86AA69CA69EA684F250006EF29E0F019D
:10213000550EA76EAA0EA76EA682A6B2FED7A694CB
:102140000050F212140E0101216F0001DAEC05F0CB
:10215000FF0001010951485C52E10A51495C4FE11D
:102160000B514A5C4CE10C514B5C49E1010E1C6F78
:102170001D6F000176EC06F0020EF66E020EF76E91
:10218000BEDD010E01011C6F020E1D6F000176EC19
:1021900006F0160EF66E020EF76EB1DD010E0101AD
:1021A0001C6F030E1D6F000176EC06F02A0EF66E12
:1021B000020EF76EA4DD010E01011C6F040E1D6FEF
:1021C000000176EC06F03E0EF66E020EF76E97DD1D
:1021D000020E01010D6FFA0E216F0001DAEC05F01D
:1021E00001010D2FF8D708C11CF00B0E1E6E486AB6
:1021F000496A4A6A4B6A010E016E48D047D0010E07
:102200001C6F1D6F000176EC06F0010E01011C6FC2
:10221000020E1D6F000176EC06F0520EF66E020EF5
:10222000F76E6DDD010E01011C6F030E1D6F0001C5
:1022300076EC06F0660EF66E020EF76E60DD010EAD
:1022400001011C6F040E1D6F000176EC06F07A0E82
:10225000F66E020EF76E53DD020E01010D6FFA0EDF
:10226000216F0001DAEC05F001010D2FF8D70B0EFC
:102270001E6E0C0E1B6F0001AFEC06F0486A496A37
:102280004A6A4B6A000E016E010100D00001000C89
:102290000101072D1ED042B40DD0020E1C6F08C1E3
:1022A0001DF1000176EC06F00C0EF66E010EF76ED5
:1022B00026DD010142A40DD0020E1C6F08C11DF1E4
:1022C000000176EC06F0200EF66E010EF76E17DDBB
:1022D0000101075102080DE1020E1C6F08C11DF13A
:1022E000000176EC06F0340EF66E010EF76E07DD97
:1022F0000101075103080DE1020E1C6F08C11DF119
:10230000000176EC06F0480EF66E010EF76EF7DC73
:102310000101075104080DE1020E1C6F08C11DF1F7
:10232000000176EC06F05C0EF66E010EF76EE7DC4F
:102330000101075105080DE1020E1C6F08C11DF1D6
:10234000000176EC06F0700EF66E010EF76ED7DC2B
:102350000101075106080DE1020E1C6F08C11DF1B5
:10236000000176EC06F0840EF66E010EF76EC7DC07
:102370000101075107080DE1020E1C6F08C11DF194
:10238000000176EC06F0980EF66E010EF76EB7DCE3
:102390000101075108080DE1020E1C6F08C11DF173
:1023A000000176EC06F0AC0EF66E010EF76EA7DCBF
:1023B00001010001000C010E01011C6F1D6F0001E5
:1023C00076EC06F08E0EF66E020EF76E98DC928AB0
:1023D00080BA18D0140E0101216F0001DAEC05F06B
:1023E000928A80BA0ED042B80CD021061F06010E88
:1023F0001F24206E42881E0E0101216F0001DAECBD
:1024000005F001D04298968084B018D0140E0101D6
:10241000216F0001DAEC05F0968084B00ED042BC4A
:102420000CD0212A1F2A010E1F5C206E428C1E0E2A
:102430000101216F0001DAEC05F001D0429C21502E
:10244000235C08E2442A21C023F0020E235C226EA2
:10245000040E1F6E2250215C08E2440621C022F0C7
:10246000020E2224236E020E1F6E21500101055D13
:1024700009E21DC021F0020E1F6E446A21C022F045
:102480002224236E1D50215C0BE205C121F0040EB5
:102490001F6E055D446E21C023F0020E235C226E88
:1024A00044BE01D001D0446A010E4424066F076F78
:1024B000020E086F0001ECDE020E44240101066FDB
:1024C000076F030E086F0001E3DE030E44240101D1
:1024D000066F076F040E086F0001DADE010E0101BE
:1024E0001C6F1FC01DF1000176EC06F045C01BF10A
:1024F000AFEC06F01F50020818E1010E01011C6F3D
:10250000040E1D6F000176EC06F046C01BF1AFEC27
:1025100006F0010E01011C6F030E1D6F000176EC29
:1025200006F046C01BF1AFEC06F01F50040818E19E
:10253000010E01011C6F020E1D6F000176EC06F00A
:1025400046C01BF1AFEC06F0010E01011C6F030E3B
:102550001D6F000176EC06F046C01BF1AFEC06F0F3
:102560001F50030818E1010E01011C6F040E1D6FBE
:10257000000176EC06F046C01BF1AFEC06F0010E50
:1025800001011C6F020E1D6F000176EC06F046C0C3
:102590001BF1AFEC06F0968284B228D0140E010134
:1025A000216F0001DAEC05F0968284B21ED042BAA7
:1025B0001CD0428A21C01CF0030E1F6E020E0101C6
:1025C000066FFA0E216F0001DAEC05F00101062F0B
:1025D000F8D70C0E1B6F0001AFEC06F01C5006087C
:1025E00004E1486A496A4A6A4B6A01D0429A968471
:1025F00084B41ED0140E0101216F0001DAEC05F045
:10260000968484B414D042BE12D0020E0101066F2B
:10261000FA0E216F0001DAEC05F00101062FF8D760
:10262000140E1C6E0C0E1B6F0001AFEC06F001D0F7
:10263000429ED6EF2CF04274428A010E1C6E446A10
:1026400042A438D04284010E01011C6F1D6F0001AD
:1026500076EC06F05C0EF66E030EF76E7FEC0EF075
:10266000010E01011C6F020E1D6F000176EC06F0D9
:10267000720EF66E030EF76E7FEC0EF0010E010186
:102680001C6F030E1D6F000176EC06F0880EF66ECF
:10269000030EF76E7FEC0EF0010E01011C6F040EAD
:1026A0001D6F000176EC06F09E0EF66E030EF76EBF
:1026B0007FEC0EF042B438D04294010E01011C6F41
:1026C0001D6F000176EC06F0B40EF66E030EF76E89
:1026D0007FEC0EF0010E01011C6F020E1D6F000158
:1026E00076EC06F0CA0EF66E030EF76E7FEC0EF077
:1026F000010E01011C6F030E1D6F000176EC06F048
:10270000E00EF66E030EF76E7FEC0EF0010E010187
:102710001C6F040E1D6F000176EC06F0F60EF66ECF
:10272000030EF76E7FEC0EF0000E42B4010E0101B5
:10273000066F050EA96E06C1A8FFA69CA69EA684DC
:10274000F250006EF29E0F01550EA76EAA0EA76EF4
:10275000A682A6B2FED7A6940050F212040E010182
:10276000066FFA0E216F0001DAEC05F00101062F69
:10277000F8D7020E1F6E216E0C0E1B6F0001AFEC1E
:1027800006F0DBEF2CF0010E01011C6F1D6F000144
:1027900076EC06F0A40EF66E020EF76E7FEC0EF0ED
:1027A000010E01011C6F020E1D6F000176EC06F098
:1027B000BA0EF66E020EF76E090E01010E6F0001E1
:1027C00090EC0EF039C00DF1010E01010E6F000109
:1027D000BBEC0EF03A0E01011B6F0001AFEC06F0EE
:1027E00038C00DF1010E01010E6F0001BBEC0EF0BF
:1027F0003A0E01011B6F0001AFEC06F037C00DF17E
:10280000010E01010E6F0001BBEC0EF0200E010164
:102810001B6F0001AFEC06F043A40FD0010E0101C5
:102820001C6F030E1D6F000176EC06F0D40EF66EE1
:10283000020EF76E7FEC0EF00ED0010E01011C6F40
:10284000030E1D6F000176EC06F0EA0EF66E020E26
:10285000F76E7FEC0EF0010E01011C6F040E1D6F70
:10286000000176EC06F0000EF66E030EF76E7FECBC
:102870000EF0928A80BA98D0140E0101216F0001E7
:10288000DAEC05F0928A80BA8FD00C0E01011B6F32
:102890000001AFEC06F0010E01011C6F020E1D6F6E
:1028A000000176EC06F0160EF66E030EF76E7FEC66
:1028B0000EF0010E01011C6F030E1D6F000176EC7E
:1028C00006F0280EF66E030EF76E7FEC0EF0460E45
:1028D000A96EA86AA69CA69EA684F250006EF29EDF
:1028E0000F01550EA76EAA0EA76EA682A6B2FED73E
:1028F000A6940050F212140E0101216F0001DAECCF
:1029000005F0470EA96EA86AA69CA69EA684F25062
:10291000006EF29E0F01550EA76EAA0EA76EA6823C
:10292000A6B2FED7A6940050F212140E0101216F38
:102930000001DAEC05F0480EA96EA86AA69CA69ED6
:10294000A684F250006EF29E0F01550EA76EAA0EDD
:10295000A76EA682A6B2FED7A6940050F212140E5D
:102960000101216F0001DAEC05F0040E0101066F90
:10297000AF0E216F0001DAEC05F00101062FF8D748
:10298000376A386A396A1E0E216F0001DAEC05F0E9
:10299000010E1C6E446A020E1F6E216E0C0E0101A8
:1029A0001B6F0001AFEC06F0968284B240D0140E8B
:1029B0000101216F0001DAEC05F0968284B237D074
:1029C0004374000E43B4010E0101066F490EA96E57
:1029D00006C1A8FFA69CA69EA684F250006EF29E99
:1029E0000F01550EA76EAA0EA76EA682A6B2FED73D
:1029F000A6940050F212140E0101216F0001DAECCE
:102A000005F0020E0101066FFA0E216F0001DAECEB
:102A100005F00101062FF8D7010E1C6E446A020E64
:102A20001F6E216E0C0E1B6F0001AFEC06F096843A
:102A300084B423D0140E0101216F0001DAEC05F0FB
:102A4000968484B419D042BE17D0428E020E010182
:102A5000066FFA0E216F0001DAEC05F00101062F76
:102A6000F8D7010E1C6E446A020E1F6E216E0C0E0A
:102A70001B6F0001AFEC06F001D0429EE0EF2CF09E
:102A80000C0E01011B6F0001AFEC06F0010E0101FD
:102A90001C6F020E1D6F000176EC06F0B40EF66E90
:102AA000000EF76E7FEC0EF0010E01011C6F040E9C
:102AB0001D6F000176EC06F0CA0EF66E000EF76E82
:102AC0007FEC0EF0010E01011C6F030E1D6F000163
:102AD00076EC06F0E00EF66E000EF76E7FEC0EF070
:102AE000010E01011C6F1D6F000176EC06F0F60E61
:102AF000F66E000EF76E7FEC0EF0080E0101066F09
:102B0000FA0E216F0001DAEC05F00101062FF8D76B
:102B10000C0E1B6F0001AFEC06F0000C010E010162
:102B20001C6F020E1D6F000176EC06F03A0EF66E79
:102B3000030EF76E7FEC0EF0010E01011C6F030E09
:102B40001D6F000176EC06F04C0EF66E030EF76E6C
:102B5000070E01010E6F000190EC0EF041C00DF167
:102B6000030E01010E6F0001BBEC0EF0200E0101FF
:102B70001B6F0001AFEC06F0200E01011B6F00017E
:102B8000AFEC06F0200E01011B6F0001AFEC06F068
:102B90004150090802E30A0E416E928A80BA0FD0B2
:102BA000140E0101216F0001DAEC05F0928A80BA5F
:102BB00005D042B803D0010E4126428801D0429888
:102BC000968084B00FD0140E0101216F0001DAEC61
:102BD00005F0968084B005D042BC03D0010E415E62
:102BE000428C01D0429C968284A203D0968484B405
:102BF00043D0140E0101216F0001DAEC05F096823A
:102C000084A203D0968484B436D042BA34D0010E64
:102C10001C6E446A020E1F6E216E0B0E1E6E020E9B
:102C20000101066FFA0E216F0001DAEC05F00101D7
:102C3000062FF8D70C0E1B6F0001AFEC06F0280E24
:102C4000A96E41C0A8FFA69CA69EA684F250006E65
:102C5000F29E0F01550EA76EAA0EA76EA682A6B20F
:102C6000FED7A6940050F212140E0101216F00014C
:102C7000DAEC05F005DF01D0429AE5EF2CF0200EEA
:102C8000010108A9300E096F07C100F007AF07D096
:102C9000001E002A00C007F12D0E096F088F015099
:102CA00007C10FF1640E106F0001A5EC0EF000C01B
:102CB00007F1300E012401010A6F07C10FF10A0E5E
:102CC000106F0001A5EC0EF0300E002401010C6F16
:102CD000300E01240B6F09C100F008A702D008AF25
:102CE000089508B90BD008AF22D008B520D000C095
:102CF0000AF108B31CD000C00BF119D0300E0A5DE8
:102D000016E100C00AF1200E096F08A704D008954B
:102D1000088308AF0893300E0B5D09E100C00BF18A
:102D2000200E0A6F08A7F7D7089308AF089108A5E7
:102D300006D009C11BF10001AFEC06F0010108A3A8
:102D400006D00AC11BF10001AFEC06F0010108A199
:102D500005D00BC11BF10001AFEC06F00CC11BF15B
:102D60000001AFEC06F0000C010E01011C6F1D6F9D
:102D7000000176EC06F03C0EF66E070EF76E7FEC67
:102D80000EF0010E01011C6F020E1D6F000176ECAA
:102D900006F0520EF66E070EF76E7FEC0EF0010E87
:102DA00001011C6F030E1D6F000176EC06F0680E2A
:102DB000F66E070EF76E0A0E01010E6F000190EC21
:102DC0000EF048C007F11F0E0101086F000157DF28
:102DD00049C007F11F0E0101086F000150DF4AC012
:102DE00007F11F0E0101086F000149DF4BC007F119
:102DF0001F0E0101086F000142DF200E01011B6F51
:102E00000001AFEC06F0200E01011B6F0001AFECDA
:102E100006F0928A80BA1CD0140E0101216F0001C5
:102E2000DAEC05F0928A80BA12D042B810D00B0EBC
:102E30001E5C036A480FE96E000E0320EA6EEF2A5B
:102E400042881E0E0101216F0001DAEC05F001D06D
:102E50004298968084B01CD0140E0101216F0001AD
:102E6000DAEC05F0968084B012D042BC10D00B0E84
:102E70001E5C036A480FE96E000E0320EA6EEF063F
:102E8000428C1E0E0101216F0001DAEC05F001D029
:102E9000429C968284B21AD0140E0101216F000167
:102EA000DAEC05F0968284B210D042BA0ED0428A93
:102EB0001E2A1E0E0101216F0001DAEC05F00C0E36
:102EC00001011B6F0001AFEC06F001D0429A96841D
:102ED00084B41AD0140E0101216F0001DAEC05F060
:102EE000968484B410D042BE0ED0428E1E061E0EB2
:102EF0000101216F0001DAEC05F00C0E01011B6FDE
:102F00000001AFEC06F001D0429E0B0E1E5C036A7E
:102F1000480FE96E000E0320EA6EEFBE01D00AD022
:102F20000B0E1E5C036A480FE96E000E0320EA6E6A
:102F3000090EEF6E0B0E1E5C036A480FE96E000E61
:102F40000320EA6EEFBE0CD0EF50090809E20B0E29
:102F50001E5C036A480FE96E000E0320EA6EEF6AFA
:102F60001E500A081CE3020E0101066FFA0E216FC3
:102F70000001DAEC05F00101062FF8D7010E1C6EF6
:102F8000446A020E1F6E216E486A496A4A6A4B6A99
:102F90000C0E1B6F0001AFEC06F00B0E1E6E1EC078
:102FA0001CF1040E01011D6F000176EC06F047C014
:102FB0001BF1AFEC06F01E500E08D8B0C3D0010EC6
:102FC00001011C6F1D6F000176EC06F07E0EF66E9F
:102FD000070EF76E7FEC0EF0010E01011C6F020E62
:102FE0001D6F000176EC06F0940EF66E070EF76E7C
:102FF0007FEC0EF0010E01011C6F030E1D6F00012E
:1030000076EC06F0AA0EF66E070EF76E7FEC0EF069
:10301000010E01011C6F040E1D6F000176EC06F01D
:10302000C00EF66E070EF76E7FEC0EF048C04CF047
:1030300049C04DF04AC04EF04BC04FF0640EA96E2F
:1030400048C0A8FFA69CA69EA684F250006EF29EE1
:103050000F01550EA76EAA0EA76EA682A6B2FED7C6
:10306000A6940050F212140E0101216F0001DAEC57
:1030700005F0650EA96E49C0A8FFA69CA69EA68471
:10308000F250006EF29E0F01550EA76EAA0EA76EAB
:10309000A682A6B2FED7A6940050F212140E010129
:1030A000216F0001DAEC05F0660EA96E4AC0A8FF98
:1030B000A69CA69EA684F250006EF29E0F01550EAD
:1030C000A76EAA0EA76EA682A6B2FED7A69400503F
:1030D000F212140E0101216F0001DAEC05F0670E07
:1030E000A96E4BC0A8FFA69CA69EA684F250006EB7
:1030F000F29E0F01550EA76EAA0EA76EA682A6B26B
:10310000FED7A6940050F212140E0101216F0001A7
:10311000DAEC05F0020E0101066FFA0E216F0001D4
:10312000DAEC05F00101062FF8D7010E1C6E446A97
:10313000020E1F6E216E486A496A4A6A4B6A0B0E7C
:103140001E6E00011E500B0811E21E500D080EE30A
:10315000010E1E5C0101066F1C6F040E1D6F000145
:1031600076EC06F046C01BF1AFEC06F0FFEF2CF05A
:10317000010E01011C6F1D6F000176EC06F07A0E46
:10318000F66E050EF76E7FEC0EF0010E01011C6F5E
:10319000020E1D6F000176EC06F0900EF66E050E25
:1031A000F76E7FEC0EF0060E01011C6F030E1D6F13
:1031B000000176EC06F027C00DF1010E01010E6F43
:1031C0000001BBEC0EF03A0E01011B6F0001AFECE9
:1031D00006F03CC00DF1010E01010E6F0001BBECC9
:1031E0000EF0AF0EF66E050EF76E080E01010E6FB3
:1031F000000190EC0EF0060E25240101066F1C6FF5
:10320000040E1D6F000176EC06F047C01BF1AFEC19
:1032100006F0255202E1010E256E2550030802E258
:10322000030E256E928A80BA25D0252C10D0275007
:103230003C080DE3272A020E0101066F960E216F4E
:103240000001DAEC05F00101062FF8D70001255046
:10325000030810E13C503B080DE33C2A020E01013B
:10326000066F960E216F0001DAEC05F00101062FC2
:10327000F8D70001968084B046D0252C21D0275065
:1032800001080DE22706020E0101066F960E216F5E
:103290000001DAEC05F00101062FF8D700012750F4
:1032A0003C080EE23C0E276E020E0101066F960EE0
:1032B000216F0001DAEC05F00101062FF8D70001BB
:1032C0002550030820E13C520DE03C06020E0101AE
:1032D000066F960E216F0001DAEC05F00101062F52
:1032E000F8D700013C503B080EE23B0E3C6E020E4C
:1032F0000101066F960E216F0001DAEC05F0010165
:10330000062FF8D70001968284B21DD0252C03D059
:10331000030E256E08D02550030803E1010E256E2B
:1033200002D0030E256E020E0101066FFA0E216F08
:103330000001DAEC05F00101062FF8D70C0E1B6F27
:103340000001AFEC06F0968484B47ED0C80E010173
:10335000216F0001DAEC05F00C0E01011B6F00017A
:10336000AFEC06F0010E01011C6F020E1D6F000193
:1033700076EC06F0B80EF66E050EF76E7FEC0EF0EA
:10338000010E01011C6F030E1D6F000176EC06F0AB
:10339000CA0EF66E050EF76E7FEC0EF0140EA96ED7
:1033A00027C0A8FFA69CA69EA684F250006EF29E9F
:1033B0000F01550EA76EAA0EA76EA682A6B2FED763
:1033C000A6940050F2121E0E0101216F0001DAECEA
:1033D00005F0150EA96E3CC0A8FFA69CA69EA6846B
:1033E000F250006EF29E0F01550EA76EAA0EA76E48
:1033F000A682A6B2FED7A6940050F2121E0E0101BC
:10340000216F0001DAEC05F027C026F03CC03BF04C
:10341000040E0101066FAF0E216F0001DAEC05F01A
:103420000101062FF8D71E0E216F0001DAEC05F01E
:10343000010E1C6E446A020E1F6E216E0C0E0101FD
:103440001B6F0001AFEC06F004EF2DF0010E01013F
:103450001C6F1D6F000176EC06F0DC0EF66E050E9B
:10346000F76E7FEC0EF0010E01011C6F020E1D6F56
:10347000000176EC06F0F20EF66E050EF76E7FECAC
:103480000EF0060E01011C6F030E1D6F000176EC9D
:1034900006F040C00DF1010E01010E6F0001BBEC02
:1034A0000EF03A0E01011B6F0001AFEC06F03EC0BA
:1034B0000DF1010E01010E6F0001BBEC0EF0110EBB
:1034C000F66E060EF76E080E01010E6F000190EC0D
:1034D0000EF0060E25240101066F1C6F040E1D6FF1
:1034E000000176EC06F047C01BF1AFEC06F0255268
:1034F00002E1010E256E2550030802E2030E256E3F
:10350000928A80BA25D0252C10D040503C080DE37B
:10351000402A020E0101066F960E216F0001DAECBF
:1035200005F00101062FF8D700012550030810E12E
:103530003E503B080DE33E2A020E0101066F960E37
:10354000216F0001DAEC05F00101062FF8D7000128
:10355000968084B046D0252C21D0405001080DE241
:103560004006020E0101066F960E216F0001DAEC93
:1035700005F00101062FF8D7000140503C080EE28B
:103580003C0E406E020E0101066F960E216F000187
:10359000DAEC05F00101062FF8D7000125500308E9
:1035A00020E13E520DE03E06020E0101066F960E2E
:1035B000216F0001DAEC05F00101062FF8D70001B8
:1035C0003E503B080EE23B0E3E6E020E0101066FBE
:1035D000960E216F0001DAEC05F00101062FF8D7F5
:1035E0000001968284B21AD0252C03D0030E256EDA
:1035F00005D02550030802E1010E256E020E0101DF
:10360000066FFA0E216F0001DAEC05F00101062FBA
:10361000F8D70C0E1B6F0001AFEC06F0968484B453
:103620007ED0C80E0101216F0001DAEC05F00C0E0E
:1036300001011B6F0001AFEC06F0010E01011C6FD0
:10364000020E1D6F000176EC06F01A0EF66E060EE5
:10365000F76E7FEC0EF0010E01011C6F030E1D6F63
:10366000000176EC06F02C0EF66E060EF76E7FEC7F
:103670000EF0160EA96E40C0A8FFA69CA69EA684BA
:10368000F250006EF29E0F01550EA76EAA0EA76EA5
:10369000A682A6B2FED7A6940050F212140E010123
:1036A000216F0001DAEC05F0170EA96E3EC0A8FFED
:1036B000A69CA69EA684F250006EF29E0F01550EA7
:1036C000A76EAA0EA76EA682A6B2FED7A694005039
:1036D000F212140E0101216F0001DAEC05F040C076
:1036E0003FF03EC03DF0040E0101066FAF0E216FAA
:1036F0000001DAEC05F00101062FF8D71E0E216F4C
:103700000001DAEC05F0010E1C6E446A020E1F6E19
:10371000216E0C0E01011B6F0001AFEC06F009EFEA
:103720002DF0365202E1040E366E3650040802E2E5
:10373000010E366E362C38D0010E01011C6F1D6F44
:10374000000176EC06F0780EF66E080EF76E7FEC50
:103750000EF0010E01011C6F020E1D6F000176ECD0
:1037600006F08E0EF66E080EF76E7FEC0EF0010E70
:1037700001011C6F030E1D6F000176EC06F0A40E14
:10378000F66E080EF76E7FEC0EF0010E01011C6F55
:10379000040E1D6F000176EC06F0BA0EF66E080EF0
:1037A000F76E7FEC0EF0B0D03650020838E1010E13
:1037B00001011C6F1D6F000176EC06F0D00EF66E55
:1037C000080EF76E7FEC0EF0010E01011C6F020E69
:1037D0001D6F000176EC06F0E60EF66E080EF76E31
:1037E0007FEC0EF0010E01011C6F030E1D6F000136
:1037F00076EC06F0FC0EF66E080EF76E7FEC0EF01F
:10380000010E01011C6F040E1D6F000176EC06F025
:10381000120EF66E090EF76E7FEC0EF075D0365074
:10382000030838E1010E01011C6F1D6F000176ECE9
:1038300006F0280EF66E090EF76E7FEC0EF0010E04
:1038400001011C6F020E1D6F000176EC06F03E0EAA
:10385000F66E090EF76E7FEC0EF0010E01011C6F83
:10386000030E1D6F000176EC06F0540EF66E090E85
:10387000F76E7FEC0EF0010E01011C6F040E1D6F40
:10388000000176EC06F06A0EF66E090EF76E7FEC1C
:103890000EF03AD03650040837E1010E01011C6FDA
:1038A0001D6F000176EC06F0800EF66E090EF76EC5
:1038B0007FEC0EF0010E01011C6F020E1D6F000166
:1038C00076EC06F0960EF66E090EF76E7FEC0EF0B3
:1038D000010E01011C6F030E1D6F000176EC06F056
:1038E000AC0EF66E090EF76E7FEC0EF0010E0101C4
:1038F0001C6F040E1D6F000176EC06F0C20EF66E12
:10390000090EF76E7FEC0EF0928A80BA10D0140E7A
:103910000101216F0001DAEC05F0928A80BA07D02C
:103920001E0E0101216F0001DAEC05F036069680CB
:1039300084B010D0140E0101216F0001DAEC05F003
:10394000968084B007D01E0E0101216F0001DAECD1
:1039500005F0362A968284B225D0140E0101216F1B
:103960000001DAEC05F0968284B216D0362C03D032
:10397000090E1C6E11D03650020803E10A0E1C6EAF
:103980000BD03650030803E10B0E1C6E05D03650E9
:10399000040802E10C0E1C6E0C0E01011B6F0001ED
:1039A000AFEC06F0968484B421D0140E0101216F8F
:1039B0000001DAEC05F0968484B418D0010E1C6E78
:1039C000446A020E1F6E216E0B0E1E6E020E010166
:1039D000066FFA0E216F0001DAEC05F00101062FE7
:1039E000F8D70C0E1B6F0001AFEC06F02AEF2DF09C
:1039F000010E01011C6F020E1D6F000176EC06F036
:103A00000C0EF66E040EF76E7FEC0EF0010E010147
:103A10001C6F030E1D6F000176EC06F0220EF66E91
:103A2000040EF76E070E01010E6F000190EC0EF010
:103A300030C007F1010E0101086F00013FEC16F0E4
:103A4000200E01011B6F0001AFEC06F0200E0101FA
:103A50001B6F0001AFEC06F0200E01011B6F00018F
:103A6000AFEC06F030500C0802E20C0E306E305213
:103A700002E1010E306E928A80BA15D0140E010157
:103A8000216F0001DAEC05F0928A80BA0BD042B8BF
:103A900009D0010E302642881E0E0101216F00015F
:103AA000DAEC05F001D04298968084B015D0140E5F
:103AB0000101216F0001DAEC05F0968084B00BD093
:103AC00042BC09D0010E305E428C1E0E0101216FF6
:103AD0000001DAEC05F001D0429C968484B441D018
:103AE000140E0101216F0001DAEC05F0968484B414
:103AF00037D042BA35D0010E1C6E446A020E1F6EDA
:103B0000216E0B0E1E6E020E0101066FFA0E216F62
:103B10000001DAEC05F00101062FF8D70C0E1B6F3F
:103B20000001AFEC06F02A0EA96E30C0A8FFA69CDB
:103B3000A69EA684F250006EF29E0F01550EA76E4F
:103B4000AA0EA76EA682A6B2FED7A6940050F212C5
:103B5000140E0101216F0001DAEC05F040EC15F0C4
:103B600001D0429A2FEF2DF001011B51D8B471D032
:103B7000006E1F51D8B46DD0002604E3810E0026DC
:103B800068E204D07F0E005E64E363E01CC123F1B1
:103B90002051231B1C8F208F1E512203F4CF25F1AF
:103BA0001D512103F4CF03F0F3CF24F12203F3508E
:103BB0002527F4502423000E03221E512103F35025
:103BC0002527F4502423000E026A032202221C51EE
:103BD0002203F3502427F4500322000E02221C512A
:103BE0002103F3500326F4500222000E016A012241
:103BF0001E512003F3502427F4500322000E02220A
:103C000001221D512003F3500326F4500222000E1E
:103C100001221C512003F3500226F4500122002AF5
:103C200001BE05D024370336023601360006000EE9
:103C300024AF0AD0032A02220122015005E10250DA
:103C400003E1035001E1002A23BF018E23AF019E4F
:103C500004D0006A016A026A036A0001000C0101D3
:103C60001B51B6081B6F036A1CC11FF11C8FD89033
:103C70001C331D331E3303320232013200321B2F3C
:103C8000F6D71FAF0BD0001E011E021E031E002A16
:103C9000D8B4012AD8B4022AD8B4032A0001BCEF50
:103CA0001EF0006A016A026A036A0101236B246B39
:103CB000256B266B2251211120111F112CE0200EA3
:103CC000276FD8901B371C371D371E3723372437F3
:103CD000253726372251265D08E12151255D05E172
:103CE0002051245D02E11F51235D0FE31F51235F2B
:103CF0002051D8A0203D245F2151D8A0213D255F2F
:103D00002251D8A0223D265FD880003601360236E7
:103D10000336272FD6D7010EEA6E230EE96E000177
:103D2000000CE9500101136F1251156F1BE011C116
:103D30001EF110C11DF10FC11CF10EC11BF1226B50
:103D4000216B200E206F820E1F6F00010DDF03C05C
:103D500011F102C010F101C00FF100C00EF101011C
:103D6000152FE5D711C11EF110C11DF10FC11CF1B6
:103D70000EC11BF1000173D703C011F102C010F195
:103D800001C00FF100C00EF1010111AF0DD01307FA
:103D9000138B0E1F0F1F101F111F0E2BD8B40F2BCC
:103DA000D8B4102BD8B4112B3B0E1A6F9A0E196F82
:103DB000CA0E186F176B0A0E156F1251D8B4132B59
:103DC00011C11EF110C11DF10FC11CF10EC11BF17B
:103DD0001AC122F119C121F118C120F117C11FF137
:103DE00000015FDF0150EFCF0EF1ECCF0FF1ECCF10
:103DF00010F1ECCF11F1005213E101011229155D10
:103E0000D8A402D000010CD013510DE00F0B155DAA
:103E100001E044E213BF42D013BD05D0200E37D0DD
:103E2000200E0101131713AB0FD0139B1251D8A40E
:103E300013070050136F2D0E1B6F0001AFEC06F03F
:103E400001011351006E136B1251155D0DE100500D
:103E5000136F2E0E1B6F0001AFEC06F00101135122
:103E6000006E200E1317000E300E13AB10D0139BF4
:103E70001251D8A413070050136F2D0E1B6F0001B1
:103E8000AFEC06F001011351006E136B300E0026EB
:103E900000C01BF10001AFEC06F001011AC11EF1D8
:103EA00019C11DF118C11CF117C11BF1226B216B47
:103EB000206B0A0E1F6F0001F4DE03C01AF102C06E
:103EC00019F101C018F100C017F10101152F78D7C1
:103ED0000001000C01011735006E0036FC0E0016C3
:103EE00000C001F0C250C30B0010C26E0A0E216F59
:103EF0000001DAEC05F0C282C2B2FED7C4CF1DF1D8
:103F0000C3CF1CF100010DEC07F003C01BF102C090
:103F10001AF101C019F100C018F118C100F019C15F
:103F200001F01AC102F01BC103F0000C8E0E006EEE
:103F300001010651005E07C102F008C101F0028EC6
:103F4000005209E0D890025202E1015204E002322C
:103F50000132002EF7D707AF05D0011E021E012A3D
:103F6000D8B4022A0001000C010E01011C6F1D6F64
:103F7000000176EC06F0320EF66E040EF76E7FEC62
:103F80000EF0010E01011C6F020E1D6F000176EC98
:103F900006F0480EF66E040EF76E080E01010E6F65
:103FA000000190EC0EF0010EE96E70C011F16FC0CF
:103FB00010F16EC00FF16DC00EF10101126F000122
:103FC000B0DE550EF66E040EF76E080E01010E6F90
:103FD000000190EC0EF0010E01011C6F030E1D6F2D
:103FE000000176EC06F00101176B000173DF00C0E1
:103FF00006F101C007F102C008F103C009F15A0E31
:1040000001011B6F0001AFEC06F0460E01011B6FB2
:104010000001AFEC06F03D0E01011B6F0001AFEC9B
:1040200006F0010EE96E53C011F152C010F151C0FB
:104030000FF150C00EF10101126B000172DE660E2D
:10404000F66E040EF76E050E01010E6F000190EC86
:104050000EF0010EE96E09C111F108C110F107C19E
:104060000FF106C10EF10101126B00015ADE010EC3
:1040700001011C6F040E1D6F000176EC06F0720E3C
:10408000F66E040EF76E0C0E01010E6F000190EC3F
:104090000EF0010EE96E98C011F197C010F196C0B4
:1040A0000FF195C00EF10101126B00013ADE96820C
:1040B00084B202D1140E0101216F0001DAEC05F087
:1040C000968284B2F8D042BAF6D0010E1C6E446AD1
:1040D000020E1F6E216E0B0E1E6E020E0101066F88
:1040E000FA0E216F0001DAEC05F00101062FF8D776
:1040F0000C0E1B6F0001AFEC06F00101176B000105
:10410000E9DEEACF07F1E9CF06F1D88253C01CF10E
:1041100052C01BF151C01AF150C019F103C020F177
:1041200002C01FF101C01EF100C01DF1D7EC07F065
:1041300007C1EAFF06C1E9FF03C098F002C097F08B
:1041400001C096F000C095F001010A6B096B086B85
:10415000076B98C00EF197C00DF196C00CF195C099
:104160000BF100015AEC0BF001E21DE10A0E316E79
:10417000320EA96E31C0A8FFA69CA69EA684F2505E
:10418000006EF29E0F01550EA76EAA0EA76EA682B4
:10419000A6B2FED7A6940050F212140E0101216FB0
:1041A0000001DAEC05F098C00AF197C009F196C059
:1041B00008F195C007F101010E6B0D6B0C6B0B6BD9
:1041C00000015AEC0BF01DE3140E316E320EA96E95
:1041D00031C0A8FFA69CA69EA684F250006EF29E57
:1041E0000F01550EA76EAA0EA76EA682A6B2FED725
:1041F000A6940050F212140E0101216F0001DAECB6
:1042000005F095C000F096C001F097C002F098C08C
:1042100003F0019E98C098F097C097F001C096F007
:1042200095C095F098C009F197C008F196C007F1C4
:1042300095C006F17BDE02C05CF001C05BF05BC0A4
:1042400006F13C0EA96E06C1A8FFA69CA69EA684F8
:10425000F250006EF29E0F01550EA76EAA0EA76EC9
:10426000A682A6B2FED7A6940050F212140E010147
:10427000216F0001DAEC05F05CC006F13D0EA96E7D
:1042800006C1A8FFA69CA69EA684F250006EF29ED0
:104290000F01550EA76EAA0EA76EA682A6B2FED774
:1042A000A6940050F212140E0101216F0001DAEC05
:1042B00005F040EC15F001D0429A968484B424D0E5
:1042C000140E0101216F0001DAEC05F0968484B42C
:1042D0001AD042BE18D0010E1C6E446A020E1F6E28
:1042E000216E0B0E1E6E020E0101066FFA0E216F7B
:1042F0000001DAEC05F00101062FF8D70C0E1B6F58
:104300000001AFEC06F001D0429E34EF2DF0010E1B
:1043100001011C6F1D6F000176EC06F00101176BA7
:104320000001D8DD00C006F101C007F102C008F1AC
:1043300003C009F1840EF66E040EF76E0A0E010139
:104340000E6F000190EC0EF0010EE96E09C111F143
:1043500008C110F107C10FF106C10EF10101126B86
:104360000001DFDC200E01011B6F0001AFEC06F045
:10437000200E01011B6F0001AFEC06F0010E0101E0
:104380001C6F020E1D6F000176EC06F001011D6B23
:104390002FC01CF100010DEC07F000C006F101C0B8
:1043A00007F102C008F103C009F103C01EF102C009
:1043B0001DF101C01CF100C01BF10101226B216B3A
:1043C0007F0E206F860E1F6F000128EC07F00101A1
:1043D0001E6B1D6B480E1C6F850E1B6F03C022F1F8
:1043E00002C021F101C020F100C01FF10001B4ECB6
:1043F0001DF000C006F101C007F102C008F103C0C2
:1044000009F1010E0101176F000164DD00C00AF11E
:1044100001C00BF102C00CF103C00DF1960EF66E57
:10442000040EF76E050E01010E6F000190EC0EF008
:10443000010EE96E09C111F108C110F107C10FF1B8
:1044400006C10EF10101126B00016BDC250E0101AA
:104450001B6F0001AFEC06F0A20EF66E040EF76EB5
:10446000040E01010E6F000190EC0EF0010EE96EDA
:104470000DC111F10CC110F10BC10FF10AC10EF108
:104480000101126B00014DDC200E01011B6F0001C8
:10449000AFEC06F0010E01011C6F030E1D6F000151
:1044A00076EC06F0020E0101176F000113DD00C06B
:1044B00006F101C007F102C008F103C009F103C011
:1044C0001EF102C01DF101C01CF100C01BF1010171
:1044D000226BC00E216F7F0E206F880E1F6F0001B0
:1044E00028EC07F001011E6B1D6B480E1C6F850E3A
:1044F0001B6F03C022F102C021F101C020F100C0F6
:104500001FF10001B4EC1DF000C006F101C007F17D
:1045100002C008F103C009F1AE0EF66E040EF76E8C
:10452000040E01010E6F000190EC0EF0010EE96E19
:1045300070C011F16FC010F16EC00FF16DC00EF1BF
:104540000101126F000191EC1EF0B70EF66E040E21
:10455000F76E0A0E01010E6F000190EC0EF0010ED5
:10456000E96E09C111F108C110F107C10FF106C1CF
:104570000EF10101126B000191EC1EF0010E010120
:104580001C6F040E1D6F000176EC06F0C80EF66E6F
:10459000040EF76E090E01010E6F000190EC0EF093
:1045A000010EE96E9CC011F19BC010F19AC00FF191
:1045B00099C00EF10101126F000191EC1EF0200E66
:1045C00001011B6F0001AFEC06F001010A6B096BE2
:1045D000700E086F830E076F9CC00EF19BC00DF12B
:1045E0009AC00CF199C00BF100015AEC0BF004E3F6
:1045F0009C6B9B6B9A6B996B9CC00AF19BC009F1F9
:104600009AC008F199C007F101010E6B0D6B0C6B9C
:104610000B6B00015AEC0BF004E39C6B9B6B9A6BE9
:10462000996B928A80BA26D0320E0101216F000167
:10463000DAEC05F0928A80BA1DD0D8929CC01CF1A9
:104640009BC01BF19AC01AF199C019F1CD0E01015E
:10465000206FCC0E1F6F4C0E1E6F7B0E1D6F000166
:10466000D7EC07F003C09CF002C09BF001C09AF0A9
:1046700000C099F0968084B026D0320E0101216FDF
:104680000001DAEC05F0968084B01DD0D8829CC081
:104690001CF19BC01BF19AC01AF199C019F1CD0E03
:1046A0000101206FCC0E1F6F4C0E1E6F7B0E1D6F15
:1046B0000001D7EC07F003C09CF002C09BF001C0E2
:1046C0009AF000C099F0968484B4B3D0140E01011E
:1046D000216F0001DAEC05F0968484B4A9D042BAC7
:1046E000A7D0010E1C6E446A020E1F6E216E0B0EC7
:1046F0001E6E1E0E0101216F0001DAEC05F00C0E9A
:1047000001011B6F0001AFEC06F09CC088F09BC05C
:1047100087F09AC086F099C085F09CC009F19BC0D3
:1047200008F19AC007F199C006F100DC01C028F039
:1047300001011D6B28C01CF100010DEC07F0D882AF
:1047400088C01CF187C01BF186C01AF185C019F121
:1047500003C020F102C01FF101C01EF100C01DF115
:10476000D7EC07F003C088F002C087F001C086F0E4
:1047700000C085F088C01EF187C01DF186C01CF105
:1047800085C01BF10101226B216B200E206F820E70
:104790001F6F0001B4EC1DF003C08CF002C08BF061
:1047A00001C08AF000C089F08CC009F18BC008F10B
:1047B0008AC007F189C006F196EC1FF001C029F00C
:1047C000190EA96E28C0A8FFA69CA69EA684F2502A
:1047D000006EF29E0F01550EA76EAA0EA76EA6825E
:1047E000A6B2FED7A6940050F212140E0101216F5A
:1047F0000001DAEC05F01A0EA96E29C0A8FFA69CEC
:10480000A69EA684F250006EF29E0F01550EA76E72
:10481000AA0EA76EA682A6B2FED7A6940050F212E8
:10482000140E0101216F0001DAEC05F040EC15F0E7
:1048300001D0429A39EF2DF006C1BEFF000C010EE7
:1048400001011C6F020E1D6F000176EC06F0D60E02
:10485000F66E070EF76E7FEC0EF001011D6B2FC098
:104860001CF100010DEC07F000C006F101C007F1DA
:1048700002C008F103C009F103C01EF102C01DF11E
:1048800001C01CF100C01BF10101226B216B7E0EE7
:10489000206F860E1F6F000128EC07F000C006F1A4
:1048A00001C007F102C008F103C009F103C01EF105
:1048B00002C01DF101C01CF100C01BF10101226BFF
:1048C000216B480E206F850E1F6F0001B4EC1DF0A8
:1048D00003C01BF002C01AF001C019F000C018F0AC
:1048E0001BC009F11AC008F119C007F118C006F180
:1048F00096EC1FF001C017F0010E01011C6F030EB2
:104900001D6F000176EC06F0EC0EF66E070EF76EEA
:10491000080E01010E6F000190EC0EF017C007F1B8
:104920001F0E0101086F00013FEC16F0250E01017A
:104930001B6F0001AFEC06F0F80EF66E070EF76E77
:10494000080E01010E6F000190EC0EF02F501D08B3
:1049500002E31E0E2F6E2F50FE0802E2FE0E2F6E97
:10496000928A80BA14D0140E0101216F0001DAEC92
:1049700005F0928A80BA0BD0010E2F261E0E01017F
:10498000216F0001DAEC05F02FC006F155DF9680AB
:1049900084B014D0140E0101216F0001DAEC05F08F
:1049A000968084B00BD0010E2F5E1E0E0101216F88
:1049B0000001DAEC05F02FC006F13EDF968484B4E6
:1049C00072D0140E0101216F0001DAEC05F096841B
:1049D00084B469D02FC006F12FDF0D0EA96E2FC051
:1049E000A8FFA69CA69EA684F250006EF29E0F0120
:1049F000550EA76EAA0EA76EA682A6B2FED7A694E3
:104A00000050F212020E0101066FFA0E216F000132
:104A1000DAEC05F00101062FF8D7010E1C6F020E2B
:104A20001D6F000176EC06F0020E0101066FFA0E12
:104A3000216F0001DAEC05F00101062FF8D70C0E0A
:104A40001B6F0001AFEC06F0010E01011C6F020E9E
:104A50001D6F000176EC06F0020EF66E080EF76E82
:104A60007FEC0EF0010E01011C6F030E1D6F0001A3
:104A700076EC06F0180EF66E080EF76E7FEC0EF070
:104A8000010E1C6E446A020E1F6E216E0B0E1E6E0E
:104A9000020E0101066FFA0E216F0001DAEC05F03B
:104AA0000101062FF8D700013EEF2DF001010A6B3E
:104AB000096B086B076B0E6B0D6B0C6B0B6B126B42
:104AC000116B106B0F6B166B156B146B136B176BF5
:104AD00000016AEC1FF003C00AF102C009F101C035
:104AE00008F100C007F101011E6B1D6B200E1C6F49
:104AF000810E1B6F0AC122F109C121F108C120F109
:104B000007C11FF10001B4EC1DF000C017F101C096
:104B100018F102C019F103C01AF103C01EF102C05E
:104B20001DF101C01CF100C01BF10101226BC00E80
:104B3000216F7F0E206F880E1F6F000128EC07F099
:104B400003C00EF102C00DF101C00CF100C00BF169
:104B50000EC11EF10DC11DF10CC11CF10BC11BF1E9
:104B60000A0E0101226FD70E216F230E206F780EDF
:104B70001F6F000128EC07F003C012F102C011F111
:104B800001C010F100C00FF12C500101065D01E2DF
:104B90002C6A2C50040DF350036AD50FE96E000EF9
:104BA0000320EA6E0FC1EFFF10C1ECFF11C1ECFF53
:104BB00012C1ECFF2C2A166B156B146B136B2E6A4B
:104BC000010E065D2E5C01E038E22E50040DF3501C
:104BD000036AD50FE96E000E0320EA6EEFCF00F0F6
:104BE000ECCF01F0ECCF02F0ECCF03F0EACF18F1FC
:104BF000E9CF17F1D89216C11CF115C11BF114C1F0
:104C00001AF113C119F103C020F102C01FF101C054
:104C10001EF100C01DF10001D7EC07F018C1EAFF3A
:104C200017C1E9FF03C016F102C015F101C014F16C
:104C300000C013F12E2A0101C3D71D6B06C11CF160
:104C400000010DEC07F016C11EF115C11DF114C1D4
:104C50001CF113C11BF103C022F102C021F101C0FC
:104C600020F100C01FF128EC07F0000C81AA0ED043
:104C7000640E0101216F0001DAEC05F03CEC06F056
:104C8000640E0101216F0001DAEC05F08A9A939A13
:104C9000000C81BA0ED0640E0101216F0001DAEC24
:104CA00005F03CEC06F0640E0101216F0001DAEC26
:104CB00005F08A8A939A000C928880B803D0928675
:104CC00080B605D08B9294928B80949004D08B9276
:104CD00094928B90949003EF2FF0928880A803D049
:104CE000928680A605D08B8294928B90949004D06B
:104CF0008B9294928B9094900AEF2FF08B929492D7
:104D00008B909490000C010E01011C6F1D6F00012F
:104D100076EC06F03E0EF66E060EF76E7FEC0EF0A9
:104D2000010E01011C6F020E1D6F000176EC06F0F2
:104D3000540EF66E060EF76E7FEC0EF0010E0101BA
:104D40001C6F030E1D6F000176EC06F06A0EF66E06
:104D5000060EF76E060E01010E6F000190EC0EF0CC
:104D60003FC00DF1010E01010E6F0001BBEC0EF012
:104D70003A0E01011B6F0001AFEC06F03DC00DF1D2
:104D8000010E01010E6F0001BBEC0EF0200E0101BF
:104D90001B6F0001AFEC06F0200E01011B6F00013C
:104DA000AFEC06F08A8A939A43AE8AD08A98939899
:104DB0003D52D8A484D03F52D8A481D0460EA96ECB
:104DC00037C0A8FFA69CA69EA684F250006EF29E55
:104DD0000F01550EA76EAA0EA76EA682A6B2FED729
:104DE000A6940050F212140E0101216F0001DAECBA
:104DF00005F0470EA96E38C0A8FFA69CA69EA68403
:104E0000F250006EF29E0F01550EA76EAA0EA76E0D
:104E1000A682A6B2FED7A6940050F212140E01018B
:104E2000216F0001DAEC05F0480EA96E39C0A8FF29
:104E3000A69CA69EA684F250006EF29E0F01550E0F
:104E4000A76EAA0EA76EA682A6B2FED7A6940050A1
:104E5000F212140E0101216F0001DAEC05F00C0EC4
:104E600001011B6F0001AFEC06F0010E01011C6F88
:104E7000020E1D6F000176EC06F07C0EF66E060E3B
:104E8000F76E7FEC0EF0010E01011C6F030E1D6F1B
:104E9000000176EC06F0900EF66E060EF76E7FECD3
:104EA0000EF08B9294928B9094900C0E01011B6FDC
:104EB0000001AFEC06F02FC006F1BEDCFF00439E00
:104EC00037EF2FF0010E01011C6F1D6F000176EC12
:104ED00006F0A40EF66E060EF76E7FEC0EF0010ED5
:104EE00001011C6F020E1D6F000176EC06F0BA0E78
:104EF000F66E060EF76E7FEC0EF0010E01011C6FD0
:104F0000030E1D6F000176EC06F0D00EF66E060E55
:104F1000F76E7FEC0EF0010E01011C6F040E1D6F89
:104F2000000176EC06F0E60EF66E060EF76E7FECEC
:104F30000EF0968284B21CD0140E0101216F000184
:104F4000DAEC05F0968284B212D042BA10D0428ACE
:104F50001E0E1C6E24C006F1F9EC05F08A9E939E8D
:104F60000C0E01011B6F0001AFEC06F0548C01D058
:104F7000429A968484B425D0140E0101216F000159
:104F8000DAEC05F0968484B41BD042BE19D0428E70
:104F9000140E1C6E446A020E1F6E216E0B0E1E6EE6
:104FA000020E0101066FFA0E216F0001DAEC05F026
:104FB0000101062FF8D70C0E1B6F0001AFEC06F0B5
:104FC00001D0429E3CEF2FF031500A0832E1010E31
:104FD0000101176F00016AEC1FF000C007F101C06A
:104FE00008F102C009F103C00AF1EACF0CF1E9CFE0
:104FF0000BF1D89203C01CF102C01BF101C01AF1E1
:1050000000C019F198C020F197C01FF196C01EF1A1
:1050100095C01DF1D7EC07F00CC1EAFF0BC1E9FF09
:1050200003C07CF002C07BF001C07AF000C079F0D0
:1050300034D03150140831E1010E0101176F000125
:105040006AEC1FF000C007F101C008F102C009F1CD
:1050500003C00AF1EACF0CF1E9CF0BF1D88203C00B
:105060001CF102C01BF101C01AF100C019F198C077
:1050700020F197C01FF196C01EF195C01DF1D7EC2D
:1050800007F00CC1EAFF0BC1E9FF03C07CF002C0CE
:105090007BF001C07AF000C079F07CC01EF17BC0CB
:1050A0001DF17AC01CF179C01BF17CC022F17BC0DC
:1050B00021F17AC020F179C01FF1B4EC1DF003C0DA
:1050C00080F002C07FF001C07EF000C07DF07CC0A7
:1050D0001EF17BC01DF17AC01CF179C01BF180C0AC
:1050E00022F17FC021F17EC020F17DC01FF1B4EC20
:1050F0001DF003C084F002C083F001C082F000C044
:1051000081F084C01EF183C01DF182C01CF181C0FA
:105110001BF160C022F15FC021F15EC020F15DC0D3
:105120001FF1B4EC1DF000C007F101C008F102C08E
:1051300009F103C00AF180C01EF17FC01DF17EC0DD
:105140001CF17DC01BF164C022F163C021F162C07B
:1051500020F161C01FF1B4EC1DF0D8920AC11CF11E
:1051600009C11BF108C11AF107C119F103C020F1EF
:1051700002C01FF101C01EF100C01DF1D7EC07F005
:1051800000C007F101C008F102C009F103C00AF133
:105190007CC01EF17BC01DF17AC01CF179C01BF1EF
:1051A00068C022F167C021F166C020F165C01FF11F
:1051B000B4EC1DF0D8920AC11CF109C11BF108C161
:1051C0001AF107C119F103C020F102C01FF101C09B
:1051D0001EF100C01DF1D7EC07F000C007F101C0BF
:1051E00008F102C009F103C00AF1D89203C01CF112
:1051F00002C01BF101C01AF100C019F16CC020F10E
:105200006BC01FF16AC01EF169C01DF1D7EC07F039
:1052100003C090F002C08FF001C08EF000C08DF08E
:10522000D88290C01CF18FC01BF18EC01AF18DC0C6
:1052300019F10A0E0101206FD70E1F6F230E1E6F8A
:105240007B0E1D6F0001D7EC07F003C090F002C089
:105250008FF001C08EF000C08DF090C00AF18FC0B9
:1052600009F18EC008F18DC007F101010E6B0D6BC5
:105270000C6B0B6B00015AEC0BF004E3906B8F6B23
:105280008E6B8D6B010106512B5C01E32B6A2B5059
:10529000040DF350036AA50FE96E000E0320EA6EB9
:1052A0008DC0EFFF8EC0ECFF8FC0ECFF90C0ECFF15
:1052B0002B2A0001746B736B726B716B2D6A010E7C
:1052C0000101065D2D5C01E038E22D50040DF35024
:1052D000036AA50FE96E000E0320EA6EEFCF00F01F
:1052E000ECCF01F0ECCF02F0ECCF03F0EACF08F105
:1052F000E9CF07F1D89274C01CF173C01BF172C0E2
:105300001AF171C019F103C020F102C01FF101C0F0
:105310001EF100C01DF10001D7EC07F008C1EAFF43
:1053200007C1E9FF03C074F002C073F001C072F05E
:1053300000C071F02D2AC3D701011D6B06C11CF1FD
:1053400000010DEC07F074C01EF173C01DF172C0B6
:105350001CF171C01BF103C022F102C021F101C098
:1053600020F100C01FF128EC07F000C007F101C0D8
:1053700008F102C009F103C00AF103C01EF102C026
:105380001DF101C01CF100C01BF19CC022F19BC0AB
:1053900021F19AC020F199C01FF1B4EC1DF003C0B7
:1053A00074F002C073F001C072F000C071F071C0FF
:1053B00000F072C001F073C002F074C003F0000C82
:1053C00054A056D0010E01011C6F1D6F000176EC38
:1053D00006F0FC0EF66E060EF76E7FEC0EF0010E78
:1053E00001011C6F020E1D6F000176EC06F0120E1B
:1053F000F66E070EF76E7FEC0EF0010E01011C6FCA
:10540000030E1D6F000176EC06F0280EF66E070EF7
:10541000F76E060E01010E6F000190EC0EF026C033
:105420000DF1010E01010E6F0001BBEC0EF03A0E02
:1054300001011B6F0001AFEC06F03BC00DF1010E46
:1054400001010E6F0001BBEC0EF0200E01011B6F7D
:105450000001AFEC06F0200E01011B6F0001AFEC64
:1054600006F0200E01011B6F0001AFEC06F0549016
:10547000928880B803D0928680B605D08B929492A1
:105480008B80949004D08B9294928B90949096847D
:1054900084B415D0040E0101066FFA0E216F0001CD
:1054A000DAEC05F00101062FF8D7968484B408D011
:1054B000549A000149EC26F0140E1C6E1FDC010109
:1054C0002FC006F100011CEC24F08A8A939A8A9876
:1054D000939843AE0BD030C006F176DD03C070F078
:1054E00002C06FF001C06EF000C06DF041EF2FF010
:1054F000F86AD09E078EEA6AE96A176A1B6A1A6A16
:10550000196A186A640E1C6E020E1D6E0B0E1E6E5A
:10551000020E1F6E030E206E020E216E226E040E0E
:10552000236E0A0E246E010E256E266A276A286AEB
:10553000296A2A6A2B6A2C6A2D6A2E6A0A0E2F6E35
:10554000306A316E326E336E346E356A010E366EED
:10555000376A386A396A3A6A3B6A3C6A3D6A3E6A27
:105560003F6A406A416A429042924294429642980F
:10557000429A429C429E439043924394439643985E
:10558000439A439C446A536A526A4B0E516E860E8C
:10559000506E439E54905492549454965498549AF6
:1055A000549C566A556A586A576A5A6A596A5C6ABC
:1055B0005B6A190E606F530E5F6E180E5E6E680E9A
:1055C0005D6EE90E646FBD0E636FC60E626F710E85
:1055D000616FBE0E686F960E676F240E666F7A0E4F
:1055E000656FF30E6C6F5A0E6B6FAB0E6A6F810EA8
:1055F000696F706B6F6B6E6B6D6B746B736B726BD3
:10560000716B786B776B766B756B7C6B7B6B7A6B86
:10561000796B806B7F6B7E6B7D6B846B836B826B36
:10562000816B886B876B866B856B8C6B8B6B8A6BE6
:10563000896B906B8F6B8E6B8D6B946B936B926B96
:10564000916B986B976B966B956B9C6B9B6B9A6B46
:105650007F0E996FA06B9F6B9E6B9D6BA46BA36B72
:10566000A26BA16B080E0101056FC150C00B0F09A1
:10567000C16E070EB46E3E0E456E200E466E5E0E77
:10568000476E486A496A4A6A4B6A4C6A4D6A4E6A72
:105690004F6A0001A56BA66BA76BA86BA96BAA6BE1
:1056A000AB6BAC6BAD6BAE6BAF6BB06BB16BB26B2E
:1056B000B36BB46BB56BB66BB76BB86BB96BBA6BDE
:1056C000BB6BBC6BBD6BBE6BBF6BC06BC16BC26B8E
:1056D000C36BC46BC56BC66BC76BC86BC96BCA6B3E
:1056E000CB6BCC6BCD6BCE6BCF6BD06BD16BD26BEE
:1056F000D36BD46BD56BD66BD76BD86BD96BDA6B9E
:10570000DB6BDC6BDD6BDE6BDF6BE06BE16BE26B4D
:10571000E36BE46BE56BE66BE76BE86BE96BEA6BFD
:10572000EB6BEC6BED6BEE6BEF6BF06BF16BF26BAD
:10573000F36BF46BF56BF66BF76BF86BF96BFA6B5D
:10574000FB6BFC6BFD6BFE6BFF6B0101006B016B78
:10575000026B036B046B040E066FFA0E216F0001DF
:10576000DAEC05F00101062FF8D70001E6EF06F0AC
:10577000C80E1C6EEFEC05F01C50C808D8A4E3D08E
:10578000928880A803D0928680A605D08B829492BE
:105790008B90949004D08B9294928B909490EFEC99
:1057A00005F0968284B2CCD0040E0101066FFA0E89
:1057B000216F0001DAEC05F00101062FF8D796827F
:1057C00084B2BFD0000113EF09F097EF0BF03CEC6F
:1057D00006F0010E0101066F0001F9EC05F0010E63
:1057E00001011C6F1D6F000176EC06F08E0EF66E47
:1057F0000A0EF76E7FEC0EF0010E01011C6F020E17
:105800001D6F000176EC06F0A40EF66E0A0EF76E20
:105810007FEC0EF0010E01011C6F030E1D6F0001E5
:1058200076EC06F0BA0EF66E0A0EF76E7FEC0EF00E
:10583000010E01011C6F040E1D6F000176EC06F0D5
:10584000D00EF66E0A0EF76E7FEC0EF0080E010118
:10585000066FFA0E216F0001DAEC05F00101062F48
:10586000F8D70C0E1B6F0001AFEC06F01C6A0C0E93
:1058700001011B6F0001AFEC06F0020E0101066F83
:10588000FA0E216F0001DAEC05F00101062FF8D7BE
:10589000010E1C6F1D6F000176EC06F0E60EF66E31
:1058A0000A0EF76E7FEC0EF0010E01011C6F020E66
:1058B0001D6F000176EC06F0FC0EF66E0A0EF76E18
:1058C0007FEC0EF0010E01011C6F030E1D6F000135
:1058D00076EC06F0120EF66E0B0EF76E0A0E010154
:1058E0000E6F000190EC0EF048C00DF11B0E01018F
:1058F0000E6F0001BBEC0EF049C00DF11B0E010153
:105900000E6F0001BBEC0EF04AC00DF11B0E010141
:105910000E6F0001BBEC0EF04BC00DF11B0E010130
:105920000E6F0001BBEC0EF0200E01011B6F000199
:10593000AFEC06F0200E01011B6F0001AFEC06F08A
:105940000101000119D71C522DE14380EFEC05F055
:1059500043A207D00C0E01011B6F0001AFEC06F053
:10596000FF000101066B076B320E086F4CC009F196
:105970004DC00AF14EC00BF14FC00CF10001FCEC20
:105980000EF0012C0ED00C0E01011B6F0001AFECCC
:1059900006F08A8C939C43904392548A586A576AC3
:1059A0005482D1D71C2C02D0DBEF11F01C5002081E
:1059B00002E11BEF13F01C50030802E1C3EF13F0E8
:1059C0001C50040802E18EEF15F01C50050812E18E
:1059D000050E0101066F010E076F330E086F4CC0F4
:1059E00009F14DC00AF14EC00BF14FC00CF100019E
:1059F000FCEC0EF01C50330802E1B4EF16F01C5022
:105A0000060802E1B8EF18F01C50070802E126EF83
:105A10001AF01C50080819E1080E0101066F010E6A
:105A2000076F470E086F040E096F0A6F0B6F0C6F3C
:105A30000001FCEC0EF0015204E11C50080801E1E9
:105A4000EBD7486A496A4A6A4B6A1C50470802E128
:105A500091EF1BF01C50090802E1F8EF1CF01C50FC
:105A60000A0802E1B4EF1FF01C500B0802E187EFB7
:105A700021F01C500C0802E11FEF24F01C50140808
:105A8000D8A4F0D154A0E8D0010E01011C6F1D6F05
:105A9000000176EC06F0280EF66E0B0EF76E7FEC2A
:105AA0000EF0010E01011C6F020E1D6F000176EC5D
:105AB00006F001011D6B2FC01CF100010DEC07F079
:105AC00000C006F101C007F102C008F103C009F1EE
:105AD00003C01EF102C01DF101C01CF100C01BF18A
